{"abi":[{"type":"constructor","inputs":[{"name":"_sanctionsVerifier","type":"address","internalType":"address"},{"name":"_riskVerifier","type":"address","internalType":"address"},{"name":"_kycVerifier","type":"address","internalType":"address"}],"stateMutability":"nonpayable"},{"type":"function","name":"getVerifiers","inputs":[],"outputs":[{"name":"sanctions","type":"address","internalType":"address"},{"name":"risk","type":"address","internalType":"address"},{"name":"kyc","type":"address","internalType":"address"}],"stateMutability":"view"},{"type":"function","name":"isProofUsed","inputs":[{"name":"_proofHash","type":"bytes32","internalType":"bytes32"}],"outputs":[{"name":"","type":"bool","internalType":"bool"}],"stateMutability":"view"},{"type":"function","name":"kycVerifier","inputs":[],"outputs":[{"name":"","type":"address","internalType":"contract IGroth16Verifier"}],"stateMutability":"view"},{"type":"function","name":"owner","inputs":[],"outputs":[{"name":"","type":"address","internalType":"address"}],"stateMutability":"view"},{"type":"function","name":"riskVerifier","inputs":[],"outputs":[{"name":"","type":"address","internalType":"contract IGroth16Verifier"}],"stateMutability":"view"},{"type":"function","name":"sanctionsVerifier","inputs":[],"outputs":[{"name":"","type":"address","internalType":"contract IGroth16Verifier"}],"stateMutability":"view"},{"type":"function","name":"transferOwnership","inputs":[{"name":"_newOwner","type":"address","internalType":"address"}],"outputs":[],"stateMutability":"nonpayable"},{"type":"function","name":"updateKYCVerifier","inputs":[{"name":"_newVerifier","type":"address","internalType":"address"}],"outputs":[],"stateMutability":"nonpayable"},{"type":"function","name":"updateRiskVerifier","inputs":[{"name":"_newVerifier","type":"address","internalType":"address"}],"outputs":[],"stateMutability":"nonpayable"},{"type":"function","name":"updateSanctionsVerifier","inputs":[{"name":"_newVerifier","type":"address","internalType":"address"}],"outputs":[],"stateMutability":"nonpayable"},{"type":"function","name":"usedProofs","inputs":[{"name":"","type":"bytes32","internalType":"bytes32"}],"outputs":[{"name":"","type":"bool","internalType":"bool"}],"stateMutability":"view"},{"type":"function","name":"verifyFullCompliance","inputs":[{"name":"_sanctionsPa","type":"uint256[2]","internalType":"uint256[2]"},{"name":"_sanctionsPb","type":"uint256[2][2]","internalType":"uint256[2][2]"},{"name":"_sanctionsPc","type":"uint256[2]","internalType":"uint256[2]"},{"name":"_sanctionsSignals","type":"uint256[]","internalType":"uint256[]"},{"name":"_riskPa","type":"uint256[2]","internalType":"uint256[2]"},{"name":"_riskPb","type":"uint256[2][2]","internalType":"uint256[2][2]"},{"name":"_riskPc","type":"uint256[2]","internalType":"uint256[2]"},{"name":"_riskSignals","type":"uint256[]","internalType":"uint256[]"},{"name":"_kycPa","type":"uint256[2]","internalType":"uint256[2]"},{"name":"_kycPb","type":"uint256[2][2]","internalType":"uint256[2][2]"},{"name":"_kycPc","type":"uint256[2]","internalType":"uint256[2]"},{"name":"_kycSignals","type":"uint256[]","internalType":"uint256[]"}],"outputs":[{"name":"sanctionsValid","type":"bool","internalType":"bool"},{"name":"riskValid","type":"bool","internalType":"bool"},{"name":"kycValid","type":"bool","internalType":"bool"},{"name":"riskLevel","type":"uint8","internalType":"uint8"},{"name":"kycStatus","type":"uint8","internalType":"uint8"}],"stateMutability":"nonpayable"},{"type":"function","name":"verifyKYCProof","inputs":[{"name":"_pA","type":"uint256[2]","internalType":"uint256[2]"},{"name":"_pB","type":"uint256[2][2]","internalType":"uint256[2][2]"},{"name":"_pC","type":"uint256[2]","internalType":"uint256[2]"},{"name":"_pubSignals","type":"uint256[]","internalType":"uint256[]"}],"outputs":[{"name":"valid","type":"bool","internalType":"bool"},{"name":"kycStatus","type":"uint8","internalType":"uint8"}],"stateMutability":"nonpayable"},{"type":"function","name":"verifyRiskProof","inputs":[{"name":"_pA","type":"uint256[2]","internalType":"uint256[2]"},{"name":"_pB","type":"uint256[2][2]","internalType":"uint256[2][2]"},{"name":"_pC","type":"uint256[2]","internalType":"uint256[2]"},{"name":"_pubSignals","type":"uint256[]","internalType":"uint256[]"}],"outputs":[{"name":"valid","type":"bool","internalType":"bool"},{"name":"riskLevel","type":"uint8","internalType":"uint8"}],"stateMutability":"nonpayable"},{"type":"function","name":"verifySanctionsProof","inputs":[{"name":"_pA","type":"uint256[2]","internalType":"uint256[2]"},{"name":"_pB","type":"uint256[2][2]","internalType":"uint256[2][2]"},{"name":"_pC","type":"uint256[2]","internalType":"uint256[2]"},{"name":"_pubSignals","type":"uint256[]","internalType":"uint256[]"}],"outputs":[{"name":"valid","type":"bool","internalType":"bool"}],"stateMutability":"nonpayable"},{"type":"event","name":"KYCProofVerified","inputs":[{"name":"user","type":"address","indexed":true,"internalType":"address"},{"name":"proofHash","type":"bytes32","indexed":false,"internalType":"bytes32"},{"name":"timestamp","type":"uint256","indexed":false,"internalType":"uint256"}],"anonymous":false},{"type":"event","name":"RiskProofVerified","inputs":[{"name":"user","type":"address","indexed":true,"internalType":"address"},{"name":"proofHash","type":"bytes32","indexed":false,"internalType":"bytes32"},{"name":"riskLevel","type":"uint8","indexed":false,"internalType":"uint8"},{"name":"timestamp","type":"uint256","indexed":false,"internalType":"uint256"}],"anonymous":false},{"type":"event","name":"SanctionsProofVerified","inputs":[{"name":"user","type":"address","indexed":true,"internalType":"address"},{"name":"proofHash","type":"bytes32","indexed":false,"internalType":"bytes32"},{"name":"timestamp","type":"uint256","indexed":false,"internalType":"uint256"}],"anonymous":false},{"type":"event","name":"VerifierUpdated","inputs":[{"name":"verifierType","type":"string","indexed":false,"internalType":"string"},{"name":"oldAddress","type":"address","indexed":false,"internalType":"address"},{"name":"newAddress","type":"address","indexed":false,"internalType":"address"}],"anonymous":false}],"bytecode":{"object":"0x6080346100a957601f61107338819003918201601f19168301916001600160401b038311848410176100ad578084926060946040528339810103126100a957610047816100c1565b906100606040610059602084016100c1565b92016100c1565b60018060a01b03199233845f5416175f5560018060a01b0392838092168560015416176001551683600254161760025516906003541617600355604051610f9d90816100d68239f35b5f80fd5b634e487b7160e01b5f52604160045260245ffd5b51906001600160a01b03821682036100a95756fe60806040526004361015610011575f80fd5b5f3560e01c8063049369c0146109ec5780631beef5f7146109c4578063318ea97c1461092e578063557bbf7f146105ef57806362eec2ae146108995780637d97a0eb146108715780637e99544d146106a95780638da5cb5b14610682578063a935e76614610646578063b937e7cc1461061e578063c30a0f25146105ef578063c6bf896d14610554578063ca2dac3e14610389578063f2fde38b146103095763fdb58c39146100be575f80fd5b346102b7576100cc36610d42565b90915f9460018060a01b03600354169182156102cd576100ef6009851015610ea5565b6040516361971b8760e11b8152956020938490889081806101178a8c89898c60048701610dd8565b03915afa9687156102c2575f97610287575b5086610144575b60408051881515815260ff8a166020820152f35b909192939496505f96851561024c576001958682351461027e575b8087101561024c57868683013514610274575b806002101561024c578660408301351461026a575b806003101561024c5786606083013514610260575b6004101561024c57608001358514610241575b6101d4906101c66040519384928784019687610eea565b03601f198101835282610d95565b51902091825f52600482526101f060ff60405f20541615610f26565b825f526004825260405f209060ff1982541617905560405191825242908201527fc71db28774f4adb8c9fd81d291613686cae7832850c4cd49be0299b84369b28a60403392a25f8080808080610130565b6010909617956101af565b634e487b7160e01b5f52603260045260245ffd5b976008179761019c565b9760041797610187565b9760021797610172565b9750859761015f565b9096508381813d83116102bb575b61029f8183610d95565b810103126102b7576102b090610dcb565b955f610129565b5f80fd5b503d610295565b6040513d5f823e3d90fd5b60405162461bcd60e51b815260206004820152601460248201527312d650c81d995c9a599a595c881b9bdd081cd95d60621b6044820152606490fd5b346102b75760203660031901126102b7576004356001600160a01b03818116918290036102b75761033f5f549182163314610e6d565b8115610354576001600160a01b031916175f55005b60405162461bcd60e51b815260206004820152600d60248201526c24b73b30b634b21037bbb732b960991b6044820152606490fd5b346102b75761039736610d42565b9293919060018060a01b0360015416801561050f5760208286926103be6004851015610ea5565b85896103e16040519a8b95869485946361971b8760e11b86528d60048701610dd8565b03915afa9485156102c2575f956104d3575b5084610407575b6020856040519015158152f35b1561024c5760019035036104995761042e6020946101c66040519384928884019687610eea565b519020805f526004835261044960ff60405f20541615610f26565b805f526004835260405f20600160ff1982541617905560405190815242838201527f9dbc819b0076c0750831df1c92aab3481c8568ab275a7d3aa9947a90ac3131a860403392a2828080806103fa565b60405162461bcd60e51b8152602060048201526012602482015271155cd95c881a5cc81cd85b98dd1a5bdb995960721b6044820152606490fd5b9094506020813d602011610507575b816104ef60209383610d95565b810103126102b75761050090610dcb565b93866103f3565b3d91506104e2565b60405162461bcd60e51b815260206004820152601a60248201527f53616e6374696f6e73207665726966696572206e6f74207365740000000000006044820152606490fd5b346102b75760203660031901126102b7576004356001600160a01b03818116918290036102b757610589815f54163314610e6d565b7f65543636650391f9cb75374897d6c92c18f870c791bcbe689de597e4e269eb0360a0600154926040519060608252600960608301526873616e6374696f6e7360b81b608083015284166020820152846040820152a16001600160a01b03191617600155005b346102b75760203660031901126102b7576004355f526004602052602060ff60405f2054166040519015158152f35b346102b7575f3660031901126102b7576003546040516001600160a01b039091168152602090f35b346102b7575f3660031901126102b757606060018060a01b03806001541690806002541690600354169060405192835260208301526040820152f35b346102b7575f3660031901126102b7575f546040516001600160a01b039091168152602090f35b346102b7576106b736610d42565b6002545f956001600160a01b03909116949392909190851561083457816106e2600886941015610ea5565b8560405180986361971b8760e11b82528180610708868860209c8d988d60048701610dd8565b03915afa9687156102c2575f976107fd575b50866107345760408051881515815260ff8a166020820152f35b909192939496506004101561024c5760800135602781116107e057506107695f955b6101c66040519384928784019687610eea565b51902090815f526004815261078560ff60405f20541615610f26565b815f526004815260405f20600160ff1982541617905560405191825260ff8416908201524260408201527fb62487cde5cfcbf27a9e21f4199e689ee21ec80e24cbdb287b36d3fc19fcf45660603392a2828080808080610130565b6045106107f257610769600195610756565b610769600295610756565b9096508481813d831161082d575b6108158183610d95565b810103126102b75761082690610dcb565b958861071a565b503d61080b565b60405162461bcd60e51b8152602060048201526015602482015274149a5cdac81d995c9a599a595c881b9bdd081cd95d605a1b6044820152606490fd5b346102b7575f3660031901126102b7576001546040516001600160a01b039091168152602090f35b346102b75760203660031901126102b7576004356001600160a01b03818116918290036102b7576108ce815f54163314610e6d565b7f65543636650391f9cb75374897d6c92c18f870c791bcbe689de597e4e269eb0360a060035492604051906060825260036060830152626b796360e81b608083015284166020820152846040820152a16001600160a01b03191617600355005b346102b75760203660031901126102b7576004356001600160a01b03818116918290036102b757610963815f54163314610e6d565b7f65543636650391f9cb75374897d6c92c18f870c791bcbe689de597e4e269eb0360a060025492604051906060825260046060830152637269736b60e01b608083015284166020820152846040820152a16001600160a01b03191617600255005b346102b7575f3660031901126102b7576002546040516001600160a01b039091168152602090f35b346102b7576103603660031901126102b757366044116102b7573660c4116102b75736610104116102b75767ffffffffffffffff610104358181116102b757610a39903690600401610d11565b91909136610164116102b757366101e4116102b7576102243681116102b757358281116102b757610a6e903690600401610d11565b909236610284116102b75736610304116102b7576103443681116102b757359081116102b757610aa2903690600401610d11565b636516d61f60e11b60805290949092906040600460843760445f60c45b60028210610cfb57505050604060c48060800137610120610184526101a48290526001600160fb1b0382116102b75760209160051b9081906101c43760809061014401815f305af19283156102c2575f93610cc4575b60408051637e99544d60e01b8152929061012460048501376101645f604485015b60028210610cae5750505060406101e460c485013761012061010484015261012483018190526001600160fb1b0381116102b75761014483604093819360051b80918484013781010301815f305af19384156102c2575f915f95610c8b575b506040805163fdb58c3960e01b8152939061024460048601376102845f604486015b60028210610c7557505050604061030460c486013761012061010485015261012484018190526001600160fb1b0381116102b75761014484604093819360051b80918484013781010301815f305af180156102c25760a09460ff935f905f93610c43575b5084929360405196151587521515602087015215156040860152166060840152166080820152f35b859350610c68915060403d604011610c6e575b610c608183610d95565b810190610e46565b92610c1b565b503d610c56565b6040808281866001953701930191019091610bb7565b909450610ca7915060403d604011610c6e57610c608183610d95565b9385610b95565b6040808281866001953701930191019091610b36565b925060203d602011610cf4575b80610cdf6020926080610d95565b126102b757610cee6080610dcb565b92610b15565b503d610cd1565b6040808281866001953701930191019091610abf565b9181601f840112156102b75782359167ffffffffffffffff83116102b7576020808501948460051b0101116102b757565b906101206003198301126102b757816044116102b7576004918060c4116102b757604491610104918083116102b75760c492359067ffffffffffffffff82116102b757610d9191600401610d11565b9091565b90601f8019910116810190811067ffffffffffffffff821117610db757604052565b634e487b7160e01b5f52604160045260245ffd5b519081151582036102b757565b9290859291610120926040809387375f8684015b60028210610e275750505060c08501376101008301819052820152610140926001600160fb1b0381116102b75760051b809284830137010190565b8480969750818185600195969798943701930191018895949392610dec565b91908260409103126102b7576020610e5d83610dcb565b92015160ff811681036102b75790565b15610e7457565b60405162461bcd60e51b81526020600482015260096024820152682737ba1037bbb732b960b91b6044820152606490fd5b15610eac57565b60405162461bcd60e51b8152602060048201526016602482015275496e76616c6964207075626c6963207369676e616c7360501b6044820152606490fd5b9193926040809284375f8383015b60028210610f1157505061010093945060c08301370190565b838082818a6001953701970191019095610ef8565b15610f2d57565b60405162461bcd60e51b8152602060048201526012602482015271141c9bdbd988185b1c9958591e481d5cd95960721b6044820152606490fdfea2646970667358221220e56f7e0c852e5c854787aa90171a503e45d2d5e7993dda70f48a690f698f06dc64736f6c63430008180033","linkReferences":{}},"methodIdentifiers":{"getVerifiers()":"a935e766","isProofUsed(bytes32)":"557bbf7f","kycVerifier()":"b937e7cc","owner()":"8da5cb5b","riskVerifier()":"1beef5f7","sanctionsVerifier()":"7d97a0eb","transferOwnership(address)":"f2fde38b","updateKYCVerifier(address)":"62eec2ae","updateRiskVerifier(address)":"318ea97c","updateSanctionsVerifier(address)":"c6bf896d","usedProofs(bytes32)":"c30a0f25","verifyFullCompliance(uint256[2],uint256[2][2],uint256[2],uint256[],uint256[2],uint256[2][2],uint256[2],uint256[],uint256[2],uint256[2][2],uint256[2],uint256[])":"049369c0","verifyKYCProof(uint256[2],uint256[2][2],uint256[2],uint256[])":"fdb58c39","verifyRiskProof(uint256[2],uint256[2][2],uint256[2],uint256[])":"7e99544d","verifySanctionsProof(uint256[2],uint256[2][2],uint256[2],uint256[])":"ca2dac3e"},"id":34}