{"contracts/withnft.sol":{"AMTTP":{"abi":[{"anonymous":false,"inputs":[{"indexed":true,"internalType":"bytes32","name":"swapId","type":"bytes32"},{"indexed":true,"internalType":"address","name":"approver","type":"address"}],"name":"Approved","type":"event"},{"anonymous":false,"inputs":[{"indexed":false,"internalType":"address","name":"approver","type":"address"}],"name":"ApproverAdded","type":"event"},{"anonymous":false,"inputs":[{"indexed":false,"internalType":"address","name":"approver","type":"address"}],"name":"ApproverRemoved","type":"event"},{"anonymous":false,"inputs":[{"indexed":false,"internalType":"uint8","name":"version","type":"uint8"}],"name":"Initialized","type":"event"},{"anonymous":false,"inputs":[{"indexed":true,"internalType":"address","name":"previousOwner","type":"address"},{"indexed":true,"internalType":"address","name":"newOwner","type":"address"}],"name":"OwnershipTransferred","type":"event"},{"anonymous":false,"inputs":[{"indexed":true,"internalType":"bytes32","name":"swapId","type":"bytes32"},{"indexed":true,"internalType":"address","name":"seller","type":"address"}],"name":"SwapCompleted","type":"event"},{"anonymous":false,"inputs":[{"indexed":true,"internalType":"bytes32","name":"swapId","type":"bytes32"}],"name":"SwapEscalated","type":"event"},{"anonymous":false,"inputs":[{"indexed":true,"internalType":"bytes32","name":"swapId","type":"bytes32"},{"indexed":true,"internalType":"address","name":"buyer","type":"address"},{"indexed":true,"internalType":"address","name":"seller","type":"address"},{"indexed":false,"internalType":"uint256","name":"amount","type":"uint256"},{"indexed":false,"internalType":"uint8","name":"riskLevel","type":"uint8"},{"indexed":false,"internalType":"bytes32","name":"kycHash","type":"bytes32"},{"indexed":false,"internalType":"enum AMTTP.AssetType","name":"assetType","type":"uint8"}],"name":"SwapInitiated","type":"event"},{"anonymous":false,"inputs":[{"indexed":true,"internalType":"bytes32","name":"swapId","type":"bytes32"},{"indexed":true,"internalType":"address","name":"buyer","type":"address"}],"name":"SwapRefunded","type":"event"},{"inputs":[{"internalType":"address","name":"a","type":"address"}],"name":"addApprover","outputs":[],"stateMutability":"nonpayable","type":"function"},{"inputs":[{"internalType":"bytes32","name":"","type":"bytes32"}],"name":"approvalCounts","outputs":[{"internalType":"uint256","name":"","type":"uint256"}],"stateMutability":"view","type":"function"},{"inputs":[{"internalType":"bytes32","name":"","type":"bytes32"},{"internalType":"address","name":"","type":"address"}],"name":"approvals","outputs":[{"internalType":"bool","name":"","type":"bool"}],"stateMutability":"view","type":"function"},{"inputs":[{"internalType":"bytes32","name":"swapId","type":"bytes32"}],"name":"approveSwap","outputs":[],"stateMutability":"nonpayable","type":"function"},{"inputs":[{"internalType":"uint256","name":"","type":"uint256"}],"name":"approvers","outputs":[{"internalType":"address","name":"","type":"address"}],"stateMutability":"view","type":"function"},{"inputs":[{"internalType":"bytes32","name":"swapId","type":"bytes32"},{"internalType":"bytes32","name":"preimage","type":"bytes32"}],"name":"completeSwap","outputs":[],"stateMutability":"nonpayable","type":"function"},{"inputs":[{"internalType":"bytes32","name":"swapId","type":"bytes32"}],"name":"escalateSwap","outputs":[],"stateMutability":"nonpayable","type":"function"},{"inputs":[{"internalType":"address","name":"_oracle","type":"address"},{"internalType":"uint256","name":"_threshold","type":"uint256"}],"name":"initialize","outputs":[],"stateMutability":"nonpayable","type":"function"},{"inputs":[{"internalType":"address","name":"seller","type":"address"},{"internalType":"bytes32","name":"hashlock","type":"bytes32"},{"internalType":"uint256","name":"timelock","type":"uint256"},{"internalType":"uint8","name":"risk","type":"uint8"},{"internalType":"bytes32","name":"kycHash","type":"bytes32"},{"internalType":"bytes","name":"oracleSig","type":"bytes"}],"name":"initiateSwap","outputs":[],"stateMutability":"payable","type":"function"},{"inputs":[{"internalType":"address","name":"seller","type":"address"},{"internalType":"address","name":"token","type":"address"},{"internalType":"uint256","name":"amount","type":"uint256"},{"internalType":"bytes32","name":"hashlock","type":"bytes32"},{"internalType":"uint256","name":"timelock","type":"uint256"},{"internalType":"uint8","name":"risk","type":"uint8"},{"internalType":"bytes32","name":"kycHash","type":"bytes32"},{"internalType":"bytes","name":"oracleSig","type":"bytes"}],"name":"initiateSwapERC20","outputs":[],"stateMutability":"nonpayable","type":"function"},{"inputs":[{"internalType":"address","name":"seller","type":"address"},{"internalType":"address","name":"token","type":"address"},{"internalType":"uint256","name":"tokenId","type":"uint256"},{"internalType":"bytes32","name":"hashlock","type":"bytes32"},{"internalType":"uint256","name":"timelock","type":"uint256"},{"internalType":"uint8","name":"risk","type":"uint8"},{"internalType":"bytes32","name":"kycHash","type":"bytes32"},{"internalType":"bytes","name":"oracleSig","type":"bytes"}],"name":"initiateSwapERC721","outputs":[],"stateMutability":"nonpayable","type":"function"},{"inputs":[{"internalType":"address","name":"a","type":"address"}],"name":"isApprover","outputs":[{"internalType":"bool","name":"","type":"bool"}],"stateMutability":"view","type":"function"},{"inputs":[],"name":"oracle","outputs":[{"internalType":"address","name":"","type":"address"}],"stateMutability":"view","type":"function"},{"inputs":[],"name":"owner","outputs":[{"internalType":"address","name":"","type":"address"}],"stateMutability":"view","type":"function"},{"inputs":[{"internalType":"bytes32","name":"swapId","type":"bytes32"}],"name":"refundSwap","outputs":[],"stateMutability":"nonpayable","type":"function"},{"inputs":[{"internalType":"address","name":"a","type":"address"}],"name":"removeApprover","outputs":[],"stateMutability":"nonpayable","type":"function"},{"inputs":[],"name":"renounceOwnership","outputs":[],"stateMutability":"nonpayable","type":"function"},{"inputs":[{"internalType":"address","name":"token","type":"address"},{"internalType":"address","name":"to","type":"address"},{"internalType":"uint256","name":"tokenId","type":"uint256"}],"name":"rescueERC721","outputs":[],"stateMutability":"nonpayable","type":"function"},{"inputs":[{"internalType":"address","name":"o","type":"address"}],"name":"setOracle","outputs":[],"stateMutability":"nonpayable","type":"function"},{"inputs":[{"internalType":"uint256","name":"t","type":"uint256"}],"name":"setThreshold","outputs":[],"stateMutability":"nonpayable","type":"function"},{"inputs":[{"internalType":"bytes32","name":"","type":"bytes32"}],"name":"swaps","outputs":[{"internalType":"address","name":"buyer","type":"address"},{"internalType":"address","name":"seller","type":"address"},{"internalType":"uint256","name":"amount","type":"uint256"},{"internalType":"address","name":"token","type":"address"},{"internalType":"uint256","name":"tokenId","type":"uint256"},{"internalType":"bytes32","name":"hashlock","type":"bytes32"},{"internalType":"uint256","name":"timelock","type":"uint256"},{"internalType":"uint8","name":"riskLevel","type":"uint8"},{"internalType":"bytes32","name":"kycHash","type":"bytes32"},{"internalType":"bool","name":"completed","type":"bool"},{"internalType":"bool","name":"refunded","type":"bool"},{"internalType":"bool","name":"frozen","type":"bool"},{"internalType":"enum AMTTP.AssetType","name":"assetType","type":"uint8"}],"stateMutability":"view","type":"function"},{"inputs":[],"name":"threshold","outputs":[{"internalType":"uint256","name":"","type":"uint256"}],"stateMutability":"view","type":"function"},{"inputs":[{"internalType":"address","name":"newOwner","type":"address"}],"name":"transferOwnership","outputs":[],"stateMutability":"nonpayable","type":"function"}],"evm":{"bytecode":{"linkReferences":{},"object":"6080806040523461001657612616908161001c8239f35b600080fdfe608080604052600436101561001357600080fd5b600090813560e01c90816323f3693914611e1a5750806324f6c77614611dd157806338293371146119ec57806342cde4e8146119ce5780636cf4c88f146118b05780636d218e4814611882578063715018a61461182457806378dc33561461146b5780637adbf9731461141f5780637dc0d1d0146113f65780637df325e1146113605780638abed32b146113365780638da5cb5b1461130d578063960bfe04146112b1578063b140429414610de7578063b646c19414610d27578063cd6dc68714610bb1578063d3650fb814610b6d578063d5e9a80b1461068e578063e35468cb14610536578063eb84e7f21461044b578063f2fde38b146103ba5763fe2510ee1461011e57600080fd5b346103b7576020806003193601126103b3576004359061013c612112565b81835260978152604083209060098201805461015b60ff82161561224c565b61016b60ff8260081c161561228c565b61017b60ff8260101c16156122cb565b600684015442106103805761ff001916610100179081905560181c60ff16600381101561036c578061023d57508380808060018060a01b038654166002870154905af16101c6612300565b501561020557505b546001600160a01b0316907fc672feaa452bd52b0000f3d29c943cd9331556ab05529d49e984311220c16c198380a3600160655580f35b6064906040519062461bcd60e51b825260048201526011602482015270115512081c99599d5b990819985a5b1959607a1b6044820152fd5b600181036102d1575060038201548254600284015460405163a9059cbb60e01b81526001600160a01b0392831660048201526024810191909152918391839160449183918a91165af180156102c657610298575b50506101ce565b816102b792903d106102bf575b6102af81836121e7565b810190612209565b503880610291565b503d6102a5565b6040513d87823e3d90fd5b60029150036101ce5760038101548154600483015485926001600160a01b03908116921690823b15610368576040516323b872dd60e01b81523060048201526001600160a01b0392909216602483015260448201529082908290606490829084905af1801561035d576103455750506101ce565b61034e90612168565b610359578238610291565b8280fd5b6040513d84823e3d90fd5b8380fd5b634e487b7160e01b85526021600452602485fd5b60405162461bcd60e51b815260048101849052600b60248201526a139bdd08195e1c1a5c995960aa1b6044820152606490fd5b5080fd5b80fd5b50346103b75760203660031901126103b7576103d4611f0e565b6103dc612011565b6001600160a01b038116156103f7576103f490612069565b80f35b60405162461bcd60e51b815260206004820152602660248201527f4f776e61626c653a206e6577206f776e657220697320746865207a65726f206160448201526564647265737360d01b6064820152608490fd5b50346103b75760203660031901126103b757604090600435815260976020522060018060a01b0360ff818354169180600185015416936002810154916003820154166004820154600583015460068401549186600786015416936009600887015496015496888860181c169a6040519a8b5260208b015260408a01526060890152608088015260a087015260c086015260e08501526101008401528181161515610120840152818160081c16151561014084015260101c1615156101608201526003821015610520576101a091610180820152f35b634e487b7160e01b600052602160045260246000fd5b50346103b7576020806003193601126103b35760043590610556336123c8565b1561065b57818352609881526040832033600052815260ff6040600020541661062457609990828452609781526105a0600960408620015460ff8116159081610615575b50612330565b82845260988152604084203360005281526040600020600160ff19825416179055828452526040822080549060018201809211610601575533907f90b535106f433f3869de4725076776361dc9946b091db11206fa1b526a85ecd48380a380f35b634e487b7160e01b84526011600452602484fd5b60ff915060081c16153861059a565b6064906040519062461bcd60e51b82526004820152601060248201526f105b1c9958591e48185c1c1c9bdd995960821b6044820152fd5b6064906040519062461bcd60e51b82526004820152600c60248201526b2737ba1030b8383937bb32b960a11b6044820152fd5b5060c03660031901126103b7576106a3611f0e565b602480359060449081359060649182359460ff8616809603610a86576084359360a43567ffffffffffffffff8111610b69576106e3903690600401611f24565b6106ee999199612112565b3415610b39576001600160a01b038216998a15610b065742861115610ad15760038a11610aa05760048a1015610a8b5761072782612230565b61073460405191826121e7565b8281523683830111610a865760006020846107c1956107b995838601378301015260405160208101903382528d60408201523460608201528c60808201528a60a082015260a08152610785816121af565b5190207f19457468657265756d205369676e6564204d6573736167653a0a333200000000600052601c52603c60002061251d565b919091612419565b609c546001600160a01b03918216911681149081610a7c575b5015610a405760405160208101916001600160601b031990813360601b16845260601b1660348201528360488201528460688201526068815261081c816121cb565b5190206000818152609760205260409020549096906001600160a01b0316610a115750506000929161095d600961018093896040519461085b86612192565b33865260208601928d84528a8c604089019534875260608a01918d835260808b01938e855260a08c0195865260c08c0196875260e08c019788526101008c01526101208b019d8e5260006101408c015260006101608c015260008c8c0152600052609760205260406000209660018060a01b038b5116916001600160601b0360a01b92838a5416178955600189019060018060a01b0390511683825416179055516002880155600387019160018060a01b039051169082541617905551600485015551600584015551600683015560ff6007830191511660ff1982541617905561010084015160088201550194511515859060ff801983541691151516179055565b610140810151845461ff00191690151560081b61ff0016178455610160810151845462ff0000191690151560101b62ff00001617845501519060038210156109fd575063ff00000082549160181b169063ff00000019161790556040519234845260208401526040830152600060608301527fbf65c77c39f1726f5a1c1116c14795eca552690a845fbe9f58574d77a9f8886860803393a4600160655580f35b634e487b7160e01b60009081526021600452fd5b6a537761702065786973747360a81b8591600b6040519362461bcd60e51b855260206004860152840152820152fd5b5060405162461bcd60e51b81526020600482015260188186015277496e76616c6964206f7261636c65207369676e617475726560401b81880152fd5b90501515386107da565b600080fd5b86634e487b7160e01b60005260216004526000fd5b60405162461bcd60e51b815260206004820152600c818901526b496e76616c6964207269736b60a01b818b01528490fd5b60405162461bcd60e51b8152602060048201526010818901526f496e76616c69642074696d656c6f636b60801b818b01528490fd5b60405162461bcd60e51b815260206004820152600e818901526d24b73b30b634b21039b2b63632b960911b818b01528490fd5b60405162461bcd60e51b815260206004820152600b818801526a139bc8115512081cd95b9d60aa1b818a01528390fd5b8980fd5b50346103b75760203660031901126103b75760043590609a548210156103b7576020610b9883611fc4565b905460405160039290921b1c6001600160a01b03168152f35b50346103b75760403660031901126103b757610bcb611f0e565b815460ff8160081c161590818092610d1a575b8015610d03575b15610ca75760ff198116600117845581610c96575b50610c1460ff845460081c16610c0f816120b2565b6120b2565b610c1d33612069565b825491610c3360ff8460081c16610c0f816120b2565b600160655560018060a01b03166001600160601b0360a01b609c541617609c55602435609b55610c61575080f35b61ff00191681557f7f26b83ff96e1f2b6a682f133852f6798a09c465da95921460cefb3847402498602060405160018152a180f35b61ffff191661010117835538610bfa565b60405162461bcd60e51b815260206004820152602e60248201527f496e697469616c697a61626c653a20636f6e747261637420697320616c72656160448201526d191e481a5b9a5d1a585b1a5e995960921b6064820152608490fd5b50303b158015610be55750600160ff821614610be5565b50600160ff821610610bde565b50346103b75760203660031901126103b757610d41611f0e565b610d49612011565b6001600160a01b03811690610d5f821515612368565b609a5468010000000000000000811015610dd35791610dc9602092610dab8560017f835bddf1ceee4956e4329af9edf018523c1191238187a597453f6020bcadb0429701609a55611fc4565b90919060018060a01b038084549260031b9316831b921b1916179055565b604051908152a180f35b634e487b7160e01b84526041600452602484fd5b50346103b757610df636611f52565b610e0898919298979597969496612112565b841561127e576001600160a01b03821693841561124857428811156112105760ff1692600384116111dc57600484101561052057610e4582612230565b610e5260405191826121e7565b8281523683830111610a86576000602084610ea3956107b995838601378301015260405160208101903382528760408201528860608201528660808201528c60a082015260a08152610785816121af565b609c546001600160a01b039182169116811490816111d2575b50156111925760405160208101916001600160601b031990813360601b16845260601b16603482015287604882015286606882015260688152610efe816121cb565b5190206000818152609760205260409020549095906001600160a01b031661115f5760405196610f2d88612192565b33885283602089015284604089015260018060a01b03861660608901526000608089015260a088015260c08701528060e08701528661010087015260006101208701526000610140870152600061016087015260016101808701528460005260976020526101806009604060002060018060a01b038951166001600160601b0360a01b90818354161782556001820160018060a01b0360208c0151168282541617905560408a01516002830155600382019060018060a01b0360608c015116908254161790556080890151600482015560a0890151600582015560c089015160068201556007810160ff60e08b01511660ff19825416179055610100890151600882015501966110506101208201511515899060ff801983541691151516179055565b610140810151885461ff00191690151560081b61ff0016178855610160810151885462ff0000191690151560101b62ff00001617885501519460038610156105205788978761111f9763ff00000060209a549160181b169063ff000000191617905560405192858452888401526040830152600160608301527fbf65c77c39f1726f5a1c1116c14795eca552690a845fbe9f58574d77a9f8886860803393a46040516323b872dd60e01b8152336004820152306024820152604481019190915293849283919082906064820190565b03926001600160a01b03165af1801561035d57611140575b50600160655580f35b6111589060203d6020116102bf576102af81836121e7565b5038611137565b60405162461bcd60e51b815260206004820152600b60248201526a537761702065786973747360a81b6044820152606490fd5b60405162461bcd60e51b8152602060048201526018602482015277496e76616c6964206f7261636c65207369676e617475726560401b6044820152606490fd5b9050151538610ebc565b60405162461bcd60e51b815260206004820152600c60248201526b496e76616c6964207269736b60a01b6044820152606490fd5b60405162461bcd60e51b815260206004820152601060248201526f496e76616c69642074696d656c6f636b60801b6044820152606490fd5b60405162461bcd60e51b815260206004820152600e60248201526d24b73b30b634b21039b2b63632b960911b6044820152606490fd5b60405162461bcd60e51b815260206004820152600b60248201526a16995c9bc8185b5bdd5b9d60aa1b6044820152606490fd5b50346103b75760203660031901126103b7576004356112ce612011565b609a5481116112dd57609b5580f35b60405162461bcd60e51b81526020600482015260086024820152670a8dede40d0d2ced60c31b6044820152606490fd5b50346103b757806003193601126103b7576033546040516001600160a01b039091168152602090f35b50346103b75760203660031901126103b75760406020916004358152609983522054604051908152f35b50346103b75760603660031901126103b7578061137b611f0e565b611383611ef8565b9061138c612011565b6001600160a01b0316803b156113f2576040516323b872dd60e01b81523060048201526001600160a01b03929092166024830152604480359083015282908290606490829084905af1801561035d576113e25750f35b6113eb90612168565b6103b75780f35b5050fd5b50346103b757806003193601126103b757609c546040516001600160a01b039091168152602090f35b50346103b75760203660031901126103b757611439611f0e565b611441612011565b6001600160a01b0316611455811515612368565b6001600160601b0360a01b609c541617609c5580f35b50346103b75760403660031901126103b757602460043561148a612112565b808352602060978152604084209060098201938454946114ad60ff87161561224c565b6114bd60ff8760081c161561228c565b6114cd60ff8760101c16156122cb565b60068401544210156117f6576040518381019083358252848152604081019181831067ffffffffffffffff8411176117e15782604052815190206005870154036117ae57505060ff60078501541661152481612221565b600481101561179b5760021490811561176c575b5061171c575b60ff90600180978319161780915560181c16600381101561170957806115f857508580808060018060a01b0389880154166002880154905af161157f612300565b50156115bf5750505b8201546001600160a01b0316907f0625e047e273118a71cca3f0dd73a68d97dd99585ffdee4b3f86670fe113f13d8480a360655580f35b9060136064926040519262461bcd60e51b8452600484015282015272115512081d1c985b9cd9995c8819985a5b1959606a1b6044820152fd5b905084810361167f5750600382015484830154600284015460405163a9059cbb60e01b81526001600160a01b0392831660048201526024810191909152918391839160449183918b91165af1801561167457611656575b5050611588565b8161166c92903d106102bf576102af81836121e7565b50388061164f565b6040513d88823e3d90fd5b600291500361158857600381015483820154600483015486926001600160a01b03908116921690823b15610368576040516323b872dd60e01b81523060048201526001600160a01b0392909216602483015260448201529082908290606490829084905af1801561035d576116f5575050611588565b6116fe90612168565b61036857833861164f565b50634e487b7160e01b8652602160045285fd5b848752609983526040872054609b54111561153e5760405162461bcd60e51b815260048101849052601481840152734e6f7420656e6f75676820617070726f76616c7360601b6044820152606490fd5b6117769150612221565b60048110156117885760031438611538565b634e487b7160e01b885260216004528288fd5b634e487b7160e01b895260216004528389fd5b906f496e76616c696420707265696d61676560801b60846064938762461bcd60e51b855260448201526010858201520152fd5b84634e487b7160e01b60005260416004526000fd5b60405162461bcd60e51b81526004810184905260078184015266115e1c1a5c995960ca1b6044820152606490fd5b50346103b757806003193601126103b75761183d612011565b603380546001600160a01b031981169091556000906001600160a01b03167f8be0079c531659141344cd1fd0a4f28419497f9722a3daafe3b4186f6b6457e08280a380f35b50346103b75760203660031901126103b75760206118a66118a1611f0e565b6123c8565b6040519015158152f35b50346103b7576020806003193601126103b3576118cb611f0e565b916118d4612011565b6001600160a01b0392831691815b609a805490818310156119c4578690866118fb85611fc4565b939054600394851b1c161461191b57505050611916906123a3565b6118e2565b6000199795969495919390928881019081116119b05790610dab8361194261194f94611fc4565b905490881b1c1691611fc4565b815496871561199c577fc6e35658c76ecdde40a54f31a91fb7c8615e9893cc0885584b27bb3433270d469697019261198684611fc4565b81939154921b1b1916905555604051908152a180f35b634e487b7160e01b87526031600452602487fd5b634e487b7160e01b88526011600452602488fd5b5050505091505080f35b50346103b757806003193601126103b7576020609b54604051908152f35b50346103b7576119fb36611f52565b611a09999893949599612112565b6001600160a01b03841615611248574286111561121057600360ff8616116111dc57600460ff86161015611dbd57611a4081612230565b91611a4e60405193846121e7565b8183523682820111610b695791896020836107b994611add968386013783010152604051602081019033825260018060a01b03871660408201526001606082015260ff881660808201528560a082015260a08152611aab816121af565b5190207f19457468657265756d205369676e6564204d6573736167653a0a3332000000008b52601c52603c8a2061251d565b609c546001600160a01b03918216911681149081611db3575b50156111925760405160208101906001600160601b0319803360601b1683528460601b16603482015289604882015285606882015260688152611b38816121cb565b519020808852609760205260408820549094906001600160a01b031661115f5760405198611b658a612192565b338a5260018060a01b03841660208b0152600160408b015260018060a01b03881660608b01528660808b015260a08a015260c089015260ff831660e0890152806101008901528661012089015286610140890152866101608901526002610180890152838752609760205261018060096040892060018060a01b038b51166001600160601b0360a01b9081835416178255600182018c602060018060a01b03910151168282541617905560408c0151600283015560038201908c606060018060a01b03910151169082541617905560808b0151600482015560a08b0151600582015560c08b015160068201556007810160ff60e08d01511660ff198254161790556101008b015160088201550198611c9061012082015115158b9060ff801983541691151516179055565b6101408101518a5461ff00191690151560081b61ff0016178a556101608101518a5462ff0000191690151560101b62ff000016178a550151976003891015611d9f57879863ff00000082549160181b169063ff000000191617905560ff604051936001855216602084015260408301526002606083015260018060a01b0316917fbf65c77c39f1726f5a1c1116c14795eca552690a845fbe9f58574d77a9f8886860803393a46001600160a01b0382163b156113f2576040516323b872dd60e01b8152336004820152306024820152604481019190915291908290606490829084906001600160a01b03165af1801561035d57611d905750600160655580f35b611d9990612168565b38611137565b634e487b7160e01b88526021600452602488fd5b9050151538611af6565b634e487b7160e01b89526021600452602489fd5b50346103b75760403660031901126103b75760ff6040602092611df2611ef8565b6004358252609885528282206001600160a01b03909116825284522054604051911615158152f35b9050346103b35760203660031901126103b357600435808352609760205260408320805491929091336001600160a01b0391821614908115611ee8575b5015611eba575060090162010000815460ff81161580611eab575b611e7b90612330565b62ff000019161790557f223ab6991c0e3cee2af471cba0cc06415bf12c2adf4cc81c07d869dd5057503e8280a280f35b50600881901c60ff1615611e72565b62461bcd60e51b81526020600482015260096024820152684e6f7420706172747960b81b6044820152606490fd5b9050600183015416331438611e57565b602435906001600160a01b0382168203610a8657565b600435906001600160a01b0382168203610a8657565b9181601f84011215610a865782359167ffffffffffffffff8311610a865760208381860195010111610a8657565b90610100600319830112610a86576001600160a01b03916004358381168103610a8657926024359081168103610a86579160443591606435916084359160a43560ff81168103610a86579160c4359160e4359067ffffffffffffffff8211610a8657611fc091600401611f24565b9091565b609a54811015611ffb57609a6000527f44da158ba27f9252712a74ff6a55c5d531f69609f1f6e7f17c4443a8e2089be40190600090565b634e487b7160e01b600052603260045260246000fd5b6033546001600160a01b0316330361202557565b606460405162461bcd60e51b815260206004820152602060248201527f4f776e61626c653a2063616c6c6572206973206e6f7420746865206f776e65726044820152fd5b603380546001600160a01b039283166001600160a01b0319821681179092559091167f8be0079c531659141344cd1fd0a4f28419497f9722a3daafe3b4186f6b6457e0600080a3565b156120b957565b60405162461bcd60e51b815260206004820152602b60248201527f496e697469616c697a61626c653a20636f6e7472616374206973206e6f74206960448201526a6e697469616c697a696e6760a81b6064820152608490fd5b600260655414612123576002606555565b60405162461bcd60e51b815260206004820152601f60248201527f5265656e7472616e637947756172643a207265656e7472616e742063616c6c006044820152606490fd5b67ffffffffffffffff811161217c57604052565b634e487b7160e01b600052604160045260246000fd5b6101a0810190811067ffffffffffffffff82111761217c57604052565b60c0810190811067ffffffffffffffff82111761217c57604052565b60a0810190811067ffffffffffffffff82111761217c57604052565b90601f8019910116810190811067ffffffffffffffff82111761217c57604052565b90816020910312610a8657518015158103610a865790565b60ff1660048110156105205790565b67ffffffffffffffff811161217c57601f01601f191660200190565b1561225357565b60405162461bcd60e51b8152602060048201526011602482015270105b1c9958591e4818dbdb5c1b195d1959607a1b6044820152606490fd5b1561229357565b60405162461bcd60e51b815260206004820152601060248201526f105b1c9958591e481c99599d5b99195960821b6044820152606490fd5b156122d257565b60405162461bcd60e51b8152602060048201526006602482015265233937bd32b760d11b6044820152606490fd5b3d1561232b573d9061231182612230565b9161231f60405193846121e7565b82523d6000602084013e565b606090565b1561233757565b60405162461bcd60e51b8152602060048201526009602482015268119a5b985b1a5e995960ba1b6044820152606490fd5b1561236f57565b60405162461bcd60e51b815260206004820152600c60248201526b5a65726f206164647265737360a01b6044820152606490fd5b60001981146123b25760010190565b634e487b7160e01b600052601160045260246000fd5b609a549060005b8281106123de57505050600090565b6123e781611fc4565b905460039190911b1c6001600160a01b03908116908316146124115761240c906123a3565b6123cf565b505050600190565b6005811015610520578061242a5750565b600181036124775760405162461bcd60e51b815260206004820152601860248201527f45434453413a20696e76616c6964207369676e617475726500000000000000006044820152606490fd5b600281036124c45760405162461bcd60e51b815260206004820152601f60248201527f45434453413a20696e76616c6964207369676e6174757265206c656e677468006044820152606490fd5b6003146124cd57565b60405162461bcd60e51b815260206004820152602260248201527f45434453413a20696e76616c6964207369676e6174757265202773272076616c604482015261756560f01b6064820152608490fd5b90604181511460001461254757611fc0916020820151906060604084015193015160001a90612551565b5050600090600290565b9291907f7fffffffffffffffffffffffffffffff5d576e7357a4501ddfe92f46681b20a083116125d45791608094939160ff602094604051948552168484015260408301526060820152600093849182805260015afa156125c75781516001600160a01b038116156125c1579190565b50600190565b50604051903d90823e3d90fd5b5050505060009060039056fea2646970667358221220996a38dff7d82418a2d4c42838bf8673f90d844b886b6e9859c2b9827a11ae8f64736f6c63430008150033","opcodes":"PUSH1 0x80 DUP1 PUSH1 0x40 MSTORE CALLVALUE PUSH2 0x16 JUMPI PUSH2 0x2616 SWAP1 DUP2 PUSH2 0x1C DUP3 CODECOPY RETURN JUMPDEST PUSH1 0x0 DUP1 REVERT INVALID PUSH1 0x80 DUP1 PUSH1 0x40 MSTORE PUSH1 0x4 CALLDATASIZE LT ISZERO PUSH2 0x13 JUMPI PUSH1 0x0 DUP1 REVERT JUMPDEST PUSH1 0x0 SWAP1 DUP2 CALLDATALOAD PUSH1 0xE0 SHR SWAP1 DUP2 PUSH4 0x23F36939 EQ PUSH2 0x1E1A JUMPI POP DUP1 PUSH4 0x24F6C776 EQ PUSH2 0x1DD1 JUMPI DUP1 PUSH4 0x38293371 EQ PUSH2 0x19EC JUMPI DUP1 PUSH4 0x42CDE4E8 EQ PUSH2 0x19CE JUMPI DUP1 PUSH4 0x6CF4C88F EQ PUSH2 0x18B0 JUMPI DUP1 PUSH4 0x6D218E48 EQ PUSH2 0x1882 JUMPI DUP1 PUSH4 0x715018A6 EQ PUSH2 0x1824 JUMPI DUP1 PUSH4 0x78DC3356 EQ PUSH2 0x146B JUMPI DUP1 PUSH4 0x7ADBF973 EQ PUSH2 0x141F JUMPI DUP1 PUSH4 0x7DC0D1D0 EQ PUSH2 0x13F6 JUMPI DUP1 PUSH4 0x7DF325E1 EQ PUSH2 0x1360 JUMPI DUP1 PUSH4 0x8ABED32B EQ PUSH2 0x1336 JUMPI DUP1 PUSH4 0x8DA5CB5B EQ PUSH2 0x130D JUMPI DUP1 PUSH4 0x960BFE04 EQ PUSH2 0x12B1 JUMPI DUP1 PUSH4 0xB1404294 EQ PUSH2 0xDE7 JUMPI DUP1 PUSH4 0xB646C194 EQ PUSH2 0xD27 JUMPI DUP1 PUSH4 0xCD6DC687 EQ PUSH2 0xBB1 JUMPI DUP1 PUSH4 0xD3650FB8 EQ PUSH2 0xB6D JUMPI DUP1 PUSH4 0xD5E9A80B EQ PUSH2 0x68E JUMPI DUP1 PUSH4 0xE35468CB EQ PUSH2 0x536 JUMPI DUP1 PUSH4 0xEB84E7F2 EQ PUSH2 0x44B JUMPI DUP1 PUSH4 0xF2FDE38B EQ PUSH2 0x3BA JUMPI PUSH4 0xFE2510EE EQ PUSH2 0x11E JUMPI PUSH1 0x0 DUP1 REVERT JUMPDEST CALLVALUE PUSH2 0x3B7 JUMPI PUSH1 0x20 DUP1 PUSH1 0x3 NOT CALLDATASIZE ADD SLT PUSH2 0x3B3 JUMPI PUSH1 0x4 CALLDATALOAD SWAP1 PUSH2 0x13C PUSH2 0x2112 JUMP JUMPDEST DUP2 DUP4 MSTORE PUSH1 0x97 DUP2 MSTORE PUSH1 0x40 DUP4 KECCAK256 SWAP1 PUSH1 0x9 DUP3 ADD DUP1 SLOAD PUSH2 0x15B PUSH1 0xFF DUP3 AND ISZERO PUSH2 0x224C JUMP JUMPDEST PUSH2 0x16B PUSH1 0xFF DUP3 PUSH1 0x8 SHR AND ISZERO PUSH2 0x228C JUMP JUMPDEST PUSH2 0x17B PUSH1 0xFF DUP3 PUSH1 0x10 SHR AND ISZERO PUSH2 0x22CB JUMP JUMPDEST PUSH1 0x6 DUP5 ADD SLOAD TIMESTAMP LT PUSH2 0x380 JUMPI PUSH2 0xFF00 NOT AND PUSH2 0x100 OR SWAP1 DUP2 SWAP1 SSTORE PUSH1 0x18 SHR PUSH1 0xFF AND PUSH1 0x3 DUP2 LT ISZERO PUSH2 0x36C JUMPI DUP1 PUSH2 0x23D JUMPI POP DUP4 DUP1 DUP1 DUP1 PUSH1 0x1 DUP1 PUSH1 0xA0 SHL SUB DUP7 SLOAD AND PUSH1 0x2 DUP8 ADD SLOAD SWAP1 GAS CALL PUSH2 0x1C6 PUSH2 0x2300 JUMP JUMPDEST POP ISZERO PUSH2 0x205 JUMPI POP JUMPDEST SLOAD PUSH1 0x1 PUSH1 0x1 PUSH1 0xA0 SHL SUB AND SWAP1 PUSH32 0xC672FEAA452BD52B0000F3D29C943CD9331556AB05529D49E984311220C16C19 DUP4 DUP1 LOG3 PUSH1 0x1 PUSH1 0x65 SSTORE DUP1 RETURN JUMPDEST PUSH1 0x64 SWAP1 PUSH1 0x40 MLOAD SWAP1 PUSH3 0x461BCD PUSH1 0xE5 SHL DUP3 MSTORE PUSH1 0x4 DUP3 ADD MSTORE PUSH1 0x11 PUSH1 0x24 DUP3 ADD MSTORE PUSH17 0x115512081C99599D5B990819985A5B1959 PUSH1 0x7A SHL PUSH1 0x44 DUP3 ADD MSTORE REVERT JUMPDEST PUSH1 0x1 DUP2 SUB PUSH2 0x2D1 JUMPI POP PUSH1 0x3 DUP3 ADD SLOAD DUP3 SLOAD PUSH1 0x2 DUP5 ADD SLOAD PUSH1 0x40 MLOAD PUSH4 0xA9059CBB PUSH1 0xE0 SHL DUP2 MSTORE PUSH1 0x1 PUSH1 0x1 PUSH1 0xA0 SHL SUB SWAP3 DUP4 AND PUSH1 0x4 DUP3 ADD MSTORE PUSH1 0x24 DUP2 ADD SWAP2 SWAP1 SWAP2 MSTORE SWAP2 DUP4 SWAP2 DUP4 SWAP2 PUSH1 0x44 SWAP2 DUP4 SWAP2 DUP11 SWAP2 AND GAS CALL DUP1 ISZERO PUSH2 0x2C6 JUMPI PUSH2 0x298 JUMPI JUMPDEST POP POP PUSH2 0x1CE JUMP JUMPDEST DUP2 PUSH2 0x2B7 SWAP3 SWAP1 RETURNDATASIZE LT PUSH2 0x2BF JUMPI JUMPDEST PUSH2 0x2AF DUP2 DUP4 PUSH2 0x21E7 JUMP JUMPDEST DUP2 ADD SWAP1 PUSH2 0x2209 JUMP JUMPDEST POP CODESIZE DUP1 PUSH2 0x291 JUMP JUMPDEST POP RETURNDATASIZE PUSH2 0x2A5 JUMP JUMPDEST PUSH1 0x40 MLOAD RETURNDATASIZE DUP8 DUP3 RETURNDATACOPY RETURNDATASIZE SWAP1 REVERT JUMPDEST PUSH1 0x2 SWAP2 POP SUB PUSH2 0x1CE JUMPI PUSH1 0x3 DUP2 ADD SLOAD DUP2 SLOAD PUSH1 0x4 DUP4 ADD SLOAD DUP6 SWAP3 PUSH1 0x1 PUSH1 0x1 PUSH1 0xA0 SHL SUB SWAP1 DUP2 AND SWAP3 AND SWAP1 DUP3 EXTCODESIZE ISZERO PUSH2 0x368 JUMPI PUSH1 0x40 MLOAD PUSH4 0x23B872DD PUSH1 0xE0 SHL DUP2 MSTORE ADDRESS PUSH1 0x4 DUP3 ADD MSTORE PUSH1 0x1 PUSH1 0x1 PUSH1 0xA0 SHL SUB SWAP3 SWAP1 SWAP3 AND PUSH1 0x24 DUP4 ADD MSTORE PUSH1 0x44 DUP3 ADD MSTORE SWAP1 DUP3 SWAP1 DUP3 SWAP1 PUSH1 0x64 SWAP1 DUP3 SWAP1 DUP5 SWAP1 GAS CALL DUP1 ISZERO PUSH2 0x35D JUMPI PUSH2 0x345 JUMPI POP POP PUSH2 0x1CE JUMP JUMPDEST PUSH2 0x34E SWAP1 PUSH2 0x2168 JUMP JUMPDEST PUSH2 0x359 JUMPI DUP3 CODESIZE PUSH2 0x291 JUMP JUMPDEST DUP3 DUP1 REVERT JUMPDEST PUSH1 0x40 MLOAD RETURNDATASIZE DUP5 DUP3 RETURNDATACOPY RETURNDATASIZE SWAP1 REVERT JUMPDEST DUP4 DUP1 REVERT JUMPDEST PUSH4 0x4E487B71 PUSH1 0xE0 SHL DUP6 MSTORE PUSH1 0x21 PUSH1 0x4 MSTORE PUSH1 0x24 DUP6 REVERT JUMPDEST PUSH1 0x40 MLOAD PUSH3 0x461BCD PUSH1 0xE5 SHL DUP2 MSTORE PUSH1 0x4 DUP2 ADD DUP5 SWAP1 MSTORE PUSH1 0xB PUSH1 0x24 DUP3 ADD MSTORE PUSH11 0x139BDD08195E1C1A5C9959 PUSH1 0xAA SHL PUSH1 0x44 DUP3 ADD MSTORE PUSH1 0x64 SWAP1 REVERT JUMPDEST POP DUP1 REVERT JUMPDEST DUP1 REVERT JUMPDEST POP CALLVALUE PUSH2 0x3B7 JUMPI PUSH1 0x20 CALLDATASIZE PUSH1 0x3 NOT ADD SLT PUSH2 0x3B7 JUMPI PUSH2 0x3D4 PUSH2 0x1F0E JUMP JUMPDEST PUSH2 0x3DC PUSH2 0x2011 JUMP JUMPDEST PUSH1 0x1 PUSH1 0x1 PUSH1 0xA0 SHL SUB DUP2 AND ISZERO PUSH2 0x3F7 JUMPI PUSH2 0x3F4 SWAP1 PUSH2 0x2069 JUMP JUMPDEST DUP1 RETURN JUMPDEST PUSH1 0x40 MLOAD PUSH3 0x461BCD PUSH1 0xE5 SHL DUP2 MSTORE PUSH1 0x20 PUSH1 0x4 DUP3 ADD MSTORE PUSH1 0x26 PUSH1 0x24 DUP3 ADD MSTORE PUSH32 0x4F776E61626C653A206E6577206F776E657220697320746865207A65726F2061 PUSH1 0x44 DUP3 ADD MSTORE PUSH6 0x646472657373 PUSH1 0xD0 SHL PUSH1 0x64 DUP3 ADD MSTORE PUSH1 0x84 SWAP1 REVERT JUMPDEST POP CALLVALUE PUSH2 0x3B7 JUMPI PUSH1 0x20 CALLDATASIZE PUSH1 0x3 NOT ADD SLT PUSH2 0x3B7 JUMPI PUSH1 0x40 SWAP1 PUSH1 0x4 CALLDATALOAD DUP2 MSTORE PUSH1 0x97 PUSH1 0x20 MSTORE KECCAK256 PUSH1 0x1 DUP1 PUSH1 0xA0 SHL SUB PUSH1 0xFF DUP2 DUP4 SLOAD AND SWAP2 DUP1 PUSH1 0x1 DUP6 ADD SLOAD AND SWAP4 PUSH1 0x2 DUP2 ADD SLOAD SWAP2 PUSH1 0x3 DUP3 ADD SLOAD AND PUSH1 0x4 DUP3 ADD SLOAD PUSH1 0x5 DUP4 ADD SLOAD PUSH1 0x6 DUP5 ADD SLOAD SWAP2 DUP7 PUSH1 0x7 DUP7 ADD SLOAD AND SWAP4 PUSH1 0x9 PUSH1 0x8 DUP8 ADD SLOAD SWAP7 ADD SLOAD SWAP7 DUP9 DUP9 PUSH1 0x18 SHR AND SWAP11 PUSH1 0x40 MLOAD SWAP11 DUP12 MSTORE PUSH1 0x20 DUP12 ADD MSTORE PUSH1 0x40 DUP11 ADD MSTORE PUSH1 0x60 DUP10 ADD MSTORE PUSH1 0x80 DUP9 ADD MSTORE PUSH1 0xA0 DUP8 ADD MSTORE PUSH1 0xC0 DUP7 ADD MSTORE PUSH1 0xE0 DUP6 ADD MSTORE PUSH2 0x100 DUP5 ADD MSTORE DUP2 DUP2 AND ISZERO ISZERO PUSH2 0x120 DUP5 ADD MSTORE DUP2 DUP2 PUSH1 0x8 SHR AND ISZERO ISZERO PUSH2 0x140 DUP5 ADD MSTORE PUSH1 0x10 SHR AND ISZERO ISZERO PUSH2 0x160 DUP3 ADD MSTORE PUSH1 0x3 DUP3 LT ISZERO PUSH2 0x520 JUMPI PUSH2 0x1A0 SWAP2 PUSH2 0x180 DUP3 ADD MSTORE RETURN JUMPDEST PUSH4 0x4E487B71 PUSH1 0xE0 SHL PUSH1 0x0 MSTORE PUSH1 0x21 PUSH1 0x4 MSTORE PUSH1 0x24 PUSH1 0x0 REVERT JUMPDEST POP CALLVALUE PUSH2 0x3B7 JUMPI PUSH1 0x20 DUP1 PUSH1 0x3 NOT CALLDATASIZE ADD SLT PUSH2 0x3B3 JUMPI PUSH1 0x4 CALLDATALOAD SWAP1 PUSH2 0x556 CALLER PUSH2 0x23C8 JUMP JUMPDEST ISZERO PUSH2 0x65B JUMPI DUP2 DUP4 MSTORE PUSH1 0x98 DUP2 MSTORE PUSH1 0x40 DUP4 KECCAK256 CALLER PUSH1 0x0 MSTORE DUP2 MSTORE PUSH1 0xFF PUSH1 0x40 PUSH1 0x0 KECCAK256 SLOAD AND PUSH2 0x624 JUMPI PUSH1 0x99 SWAP1 DUP3 DUP5 MSTORE PUSH1 0x97 DUP2 MSTORE PUSH2 0x5A0 PUSH1 0x9 PUSH1 0x40 DUP7 KECCAK256 ADD SLOAD PUSH1 0xFF DUP2 AND ISZERO SWAP1 DUP2 PUSH2 0x615 JUMPI JUMPDEST POP PUSH2 0x2330 JUMP JUMPDEST DUP3 DUP5 MSTORE PUSH1 0x98 DUP2 MSTORE PUSH1 0x40 DUP5 KECCAK256 CALLER PUSH1 0x0 MSTORE DUP2 MSTORE PUSH1 0x40 PUSH1 0x0 KECCAK256 PUSH1 0x1 PUSH1 0xFF NOT DUP3 SLOAD AND OR SWAP1 SSTORE DUP3 DUP5 MSTORE MSTORE PUSH1 0x40 DUP3 KECCAK256 DUP1 SLOAD SWAP1 PUSH1 0x1 DUP3 ADD DUP1 SWAP3 GT PUSH2 0x601 JUMPI SSTORE CALLER SWAP1 PUSH32 0x90B535106F433F3869DE4725076776361DC9946B091DB11206FA1B526A85ECD4 DUP4 DUP1 LOG3 DUP1 RETURN JUMPDEST PUSH4 0x4E487B71 PUSH1 0xE0 SHL DUP5 MSTORE PUSH1 0x11 PUSH1 0x4 MSTORE PUSH1 0x24 DUP5 REVERT JUMPDEST PUSH1 0xFF SWAP2 POP PUSH1 0x8 SHR AND ISZERO CODESIZE PUSH2 0x59A JUMP JUMPDEST PUSH1 0x64 SWAP1 PUSH1 0x40 MLOAD SWAP1 PUSH3 0x461BCD PUSH1 0xE5 SHL DUP3 MSTORE PUSH1 0x4 DUP3 ADD MSTORE PUSH1 0x10 PUSH1 0x24 DUP3 ADD MSTORE PUSH16 0x105B1C9958591E48185C1C1C9BDD9959 PUSH1 0x82 SHL PUSH1 0x44 DUP3 ADD MSTORE REVERT JUMPDEST PUSH1 0x64 SWAP1 PUSH1 0x40 MLOAD SWAP1 PUSH3 0x461BCD PUSH1 0xE5 SHL DUP3 MSTORE PUSH1 0x4 DUP3 ADD MSTORE PUSH1 0xC PUSH1 0x24 DUP3 ADD MSTORE PUSH12 0x2737BA1030B8383937BB32B9 PUSH1 0xA1 SHL PUSH1 0x44 DUP3 ADD MSTORE REVERT JUMPDEST POP PUSH1 0xC0 CALLDATASIZE PUSH1 0x3 NOT ADD SLT PUSH2 0x3B7 JUMPI PUSH2 0x6A3 PUSH2 0x1F0E JUMP JUMPDEST PUSH1 0x24 DUP1 CALLDATALOAD SWAP1 PUSH1 0x44 SWAP1 DUP2 CALLDATALOAD SWAP1 PUSH1 0x64 SWAP2 DUP3 CALLDATALOAD SWAP5 PUSH1 0xFF DUP7 AND DUP1 SWAP7 SUB PUSH2 0xA86 JUMPI PUSH1 0x84 CALLDATALOAD SWAP4 PUSH1 0xA4 CALLDATALOAD PUSH8 0xFFFFFFFFFFFFFFFF DUP2 GT PUSH2 0xB69 JUMPI PUSH2 0x6E3 SWAP1 CALLDATASIZE SWAP1 PUSH1 0x4 ADD PUSH2 0x1F24 JUMP JUMPDEST PUSH2 0x6EE SWAP10 SWAP2 SWAP10 PUSH2 0x2112 JUMP JUMPDEST CALLVALUE ISZERO PUSH2 0xB39 JUMPI PUSH1 0x1 PUSH1 0x1 PUSH1 0xA0 SHL SUB DUP3 AND SWAP10 DUP11 ISZERO PUSH2 0xB06 JUMPI TIMESTAMP DUP7 GT ISZERO PUSH2 0xAD1 JUMPI PUSH1 0x3 DUP11 GT PUSH2 0xAA0 JUMPI PUSH1 0x4 DUP11 LT ISZERO PUSH2 0xA8B JUMPI PUSH2 0x727 DUP3 PUSH2 0x2230 JUMP JUMPDEST PUSH2 0x734 PUSH1 0x40 MLOAD SWAP2 DUP3 PUSH2 0x21E7 JUMP JUMPDEST DUP3 DUP2 MSTORE CALLDATASIZE DUP4 DUP4 ADD GT PUSH2 0xA86 JUMPI PUSH1 0x0 PUSH1 0x20 DUP5 PUSH2 0x7C1 SWAP6 PUSH2 0x7B9 SWAP6 DUP4 DUP7 ADD CALLDATACOPY DUP4 ADD ADD MSTORE PUSH1 0x40 MLOAD PUSH1 0x20 DUP2 ADD SWAP1 CALLER DUP3 MSTORE DUP14 PUSH1 0x40 DUP3 ADD MSTORE CALLVALUE PUSH1 0x60 DUP3 ADD MSTORE DUP13 PUSH1 0x80 DUP3 ADD MSTORE DUP11 PUSH1 0xA0 DUP3 ADD MSTORE PUSH1 0xA0 DUP2 MSTORE PUSH2 0x785 DUP2 PUSH2 0x21AF JUMP JUMPDEST MLOAD SWAP1 KECCAK256 PUSH32 0x19457468657265756D205369676E6564204D6573736167653A0A333200000000 PUSH1 0x0 MSTORE PUSH1 0x1C MSTORE PUSH1 0x3C PUSH1 0x0 KECCAK256 PUSH2 0x251D JUMP JUMPDEST SWAP2 SWAP1 SWAP2 PUSH2 0x2419 JUMP JUMPDEST PUSH1 0x9C SLOAD PUSH1 0x1 PUSH1 0x1 PUSH1 0xA0 SHL SUB SWAP2 DUP3 AND SWAP2 AND DUP2 EQ SWAP1 DUP2 PUSH2 0xA7C JUMPI JUMPDEST POP ISZERO PUSH2 0xA40 JUMPI PUSH1 0x40 MLOAD PUSH1 0x20 DUP2 ADD SWAP2 PUSH1 0x1 PUSH1 0x1 PUSH1 0x60 SHL SUB NOT SWAP1 DUP2 CALLER PUSH1 0x60 SHL AND DUP5 MSTORE PUSH1 0x60 SHL AND PUSH1 0x34 DUP3 ADD MSTORE DUP4 PUSH1 0x48 DUP3 ADD MSTORE DUP5 PUSH1 0x68 DUP3 ADD MSTORE PUSH1 0x68 DUP2 MSTORE PUSH2 0x81C DUP2 PUSH2 0x21CB JUMP JUMPDEST MLOAD SWAP1 KECCAK256 PUSH1 0x0 DUP2 DUP2 MSTORE PUSH1 0x97 PUSH1 0x20 MSTORE PUSH1 0x40 SWAP1 KECCAK256 SLOAD SWAP1 SWAP7 SWAP1 PUSH1 0x1 PUSH1 0x1 PUSH1 0xA0 SHL SUB AND PUSH2 0xA11 JUMPI POP POP PUSH1 0x0 SWAP3 SWAP2 PUSH2 0x95D PUSH1 0x9 PUSH2 0x180 SWAP4 DUP10 PUSH1 0x40 MLOAD SWAP5 PUSH2 0x85B DUP7 PUSH2 0x2192 JUMP JUMPDEST CALLER DUP7 MSTORE PUSH1 0x20 DUP7 ADD SWAP3 DUP14 DUP5 MSTORE DUP11 DUP13 PUSH1 0x40 DUP10 ADD SWAP6 CALLVALUE DUP8 MSTORE PUSH1 0x60 DUP11 ADD SWAP2 DUP14 DUP4 MSTORE PUSH1 0x80 DUP12 ADD SWAP4 DUP15 DUP6 MSTORE PUSH1 0xA0 DUP13 ADD SWAP6 DUP7 MSTORE PUSH1 0xC0 DUP13 ADD SWAP7 DUP8 MSTORE PUSH1 0xE0 DUP13 ADD SWAP8 DUP9 MSTORE PUSH2 0x100 DUP13 ADD MSTORE PUSH2 0x120 DUP12 ADD SWAP14 DUP15 MSTORE PUSH1 0x0 PUSH2 0x140 DUP13 ADD MSTORE PUSH1 0x0 PUSH2 0x160 DUP13 ADD MSTORE PUSH1 0x0 DUP13 DUP13 ADD MSTORE PUSH1 0x0 MSTORE PUSH1 0x97 PUSH1 0x20 MSTORE PUSH1 0x40 PUSH1 0x0 KECCAK256 SWAP7 PUSH1 0x1 DUP1 PUSH1 0xA0 SHL SUB DUP12 MLOAD AND SWAP2 PUSH1 0x1 PUSH1 0x1 PUSH1 0x60 SHL SUB PUSH1 0xA0 SHL SWAP3 DUP4 DUP11 SLOAD AND OR DUP10 SSTORE PUSH1 0x1 DUP10 ADD SWAP1 PUSH1 0x1 DUP1 PUSH1 0xA0 SHL SUB SWAP1 MLOAD AND DUP4 DUP3 SLOAD AND OR SWAP1 SSTORE MLOAD PUSH1 0x2 DUP9 ADD SSTORE PUSH1 0x3 DUP8 ADD SWAP2 PUSH1 0x1 DUP1 PUSH1 0xA0 SHL SUB SWAP1 MLOAD AND SWAP1 DUP3 SLOAD AND OR SWAP1 SSTORE MLOAD PUSH1 0x4 DUP6 ADD SSTORE MLOAD PUSH1 0x5 DUP5 ADD SSTORE MLOAD PUSH1 0x6 DUP4 ADD SSTORE PUSH1 0xFF PUSH1 0x7 DUP4 ADD SWAP2 MLOAD AND PUSH1 0xFF NOT DUP3 SLOAD AND OR SWAP1 SSTORE PUSH2 0x100 DUP5 ADD MLOAD PUSH1 0x8 DUP3 ADD SSTORE ADD SWAP5 MLOAD ISZERO ISZERO DUP6 SWAP1 PUSH1 0xFF DUP1 NOT DUP4 SLOAD AND SWAP2 ISZERO ISZERO AND OR SWAP1 SSTORE JUMP JUMPDEST PUSH2 0x140 DUP2 ADD MLOAD DUP5 SLOAD PUSH2 0xFF00 NOT AND SWAP1 ISZERO ISZERO PUSH1 0x8 SHL PUSH2 0xFF00 AND OR DUP5 SSTORE PUSH2 0x160 DUP2 ADD MLOAD DUP5 SLOAD PUSH3 0xFF0000 NOT AND SWAP1 ISZERO ISZERO PUSH1 0x10 SHL PUSH3 0xFF0000 AND OR DUP5 SSTORE ADD MLOAD SWAP1 PUSH1 0x3 DUP3 LT ISZERO PUSH2 0x9FD JUMPI POP PUSH4 0xFF000000 DUP3 SLOAD SWAP2 PUSH1 0x18 SHL AND SWAP1 PUSH4 0xFF000000 NOT AND OR SWAP1 SSTORE PUSH1 0x40 MLOAD SWAP3 CALLVALUE DUP5 MSTORE PUSH1 0x20 DUP5 ADD MSTORE PUSH1 0x40 DUP4 ADD MSTORE PUSH1 0x0 PUSH1 0x60 DUP4 ADD MSTORE PUSH32 0xBF65C77C39F1726F5A1C1116C14795ECA552690A845FBE9F58574D77A9F88868 PUSH1 0x80 CALLER SWAP4 LOG4 PUSH1 0x1 PUSH1 0x65 SSTORE DUP1 RETURN JUMPDEST PUSH4 0x4E487B71 PUSH1 0xE0 SHL PUSH1 0x0 SWAP1 DUP2 MSTORE PUSH1 0x21 PUSH1 0x4 MSTORE REVERT JUMPDEST PUSH11 0x5377617020657869737473 PUSH1 0xA8 SHL DUP6 SWAP2 PUSH1 0xB PUSH1 0x40 MLOAD SWAP4 PUSH3 0x461BCD PUSH1 0xE5 SHL DUP6 MSTORE PUSH1 0x20 PUSH1 0x4 DUP7 ADD MSTORE DUP5 ADD MSTORE DUP3 ADD MSTORE REVERT JUMPDEST POP PUSH1 0x40 MLOAD PUSH3 0x461BCD PUSH1 0xE5 SHL DUP2 MSTORE PUSH1 0x20 PUSH1 0x4 DUP3 ADD MSTORE PUSH1 0x18 DUP2 DUP7 ADD MSTORE PUSH24 0x496E76616C6964206F7261636C65207369676E6174757265 PUSH1 0x40 SHL DUP2 DUP9 ADD MSTORE REVERT JUMPDEST SWAP1 POP ISZERO ISZERO CODESIZE PUSH2 0x7DA JUMP JUMPDEST PUSH1 0x0 DUP1 REVERT JUMPDEST DUP7 PUSH4 0x4E487B71 PUSH1 0xE0 SHL PUSH1 0x0 MSTORE PUSH1 0x21 PUSH1 0x4 MSTORE PUSH1 0x0 REVERT JUMPDEST PUSH1 0x40 MLOAD PUSH3 0x461BCD PUSH1 0xE5 SHL DUP2 MSTORE PUSH1 0x20 PUSH1 0x4 DUP3 ADD MSTORE PUSH1 0xC DUP2 DUP10 ADD MSTORE PUSH12 0x496E76616C6964207269736B PUSH1 0xA0 SHL DUP2 DUP12 ADD MSTORE DUP5 SWAP1 REVERT JUMPDEST PUSH1 0x40 MLOAD PUSH3 0x461BCD PUSH1 0xE5 SHL DUP2 MSTORE PUSH1 0x20 PUSH1 0x4 DUP3 ADD MSTORE PUSH1 0x10 DUP2 DUP10 ADD MSTORE PUSH16 0x496E76616C69642074696D656C6F636B PUSH1 0x80 SHL DUP2 DUP12 ADD MSTORE DUP5 SWAP1 REVERT JUMPDEST PUSH1 0x40 MLOAD PUSH3 0x461BCD PUSH1 0xE5 SHL DUP2 MSTORE PUSH1 0x20 PUSH1 0x4 DUP3 ADD MSTORE PUSH1 0xE DUP2 DUP10 ADD MSTORE PUSH14 0x24B73B30B634B21039B2B63632B9 PUSH1 0x91 SHL DUP2 DUP12 ADD MSTORE DUP5 SWAP1 REVERT JUMPDEST PUSH1 0x40 MLOAD PUSH3 0x461BCD PUSH1 0xE5 SHL DUP2 MSTORE PUSH1 0x20 PUSH1 0x4 DUP3 ADD MSTORE PUSH1 0xB DUP2 DUP9 ADD MSTORE PUSH11 0x139BC8115512081CD95B9D PUSH1 0xAA SHL DUP2 DUP11 ADD MSTORE DUP4 SWAP1 REVERT JUMPDEST DUP10 DUP1 REVERT JUMPDEST POP CALLVALUE PUSH2 0x3B7 JUMPI PUSH1 0x20 CALLDATASIZE PUSH1 0x3 NOT ADD SLT PUSH2 0x3B7 JUMPI PUSH1 0x4 CALLDATALOAD SWAP1 PUSH1 0x9A SLOAD DUP3 LT ISZERO PUSH2 0x3B7 JUMPI PUSH1 0x20 PUSH2 0xB98 DUP4 PUSH2 0x1FC4 JUMP JUMPDEST SWAP1 SLOAD PUSH1 0x40 MLOAD PUSH1 0x3 SWAP3 SWAP1 SWAP3 SHL SHR PUSH1 0x1 PUSH1 0x1 PUSH1 0xA0 SHL SUB AND DUP2 MSTORE RETURN JUMPDEST POP CALLVALUE PUSH2 0x3B7 JUMPI PUSH1 0x40 CALLDATASIZE PUSH1 0x3 NOT ADD SLT PUSH2 0x3B7 JUMPI PUSH2 0xBCB PUSH2 0x1F0E JUMP JUMPDEST DUP2 SLOAD PUSH1 0xFF DUP2 PUSH1 0x8 SHR AND ISZERO SWAP1 DUP2 DUP1 SWAP3 PUSH2 0xD1A JUMPI JUMPDEST DUP1 ISZERO PUSH2 0xD03 JUMPI JUMPDEST ISZERO PUSH2 0xCA7 JUMPI PUSH1 0xFF NOT DUP2 AND PUSH1 0x1 OR DUP5 SSTORE DUP2 PUSH2 0xC96 JUMPI JUMPDEST POP PUSH2 0xC14 PUSH1 0xFF DUP5 SLOAD PUSH1 0x8 SHR AND PUSH2 0xC0F DUP2 PUSH2 0x20B2 JUMP JUMPDEST PUSH2 0x20B2 JUMP JUMPDEST PUSH2 0xC1D CALLER PUSH2 0x2069 JUMP JUMPDEST DUP3 SLOAD SWAP2 PUSH2 0xC33 PUSH1 0xFF DUP5 PUSH1 0x8 SHR AND PUSH2 0xC0F DUP2 PUSH2 0x20B2 JUMP JUMPDEST PUSH1 0x1 PUSH1 0x65 SSTORE PUSH1 0x1 DUP1 PUSH1 0xA0 SHL SUB AND PUSH1 0x1 PUSH1 0x1 PUSH1 0x60 SHL SUB PUSH1 0xA0 SHL PUSH1 0x9C SLOAD AND OR PUSH1 0x9C SSTORE PUSH1 0x24 CALLDATALOAD PUSH1 0x9B SSTORE PUSH2 0xC61 JUMPI POP DUP1 RETURN JUMPDEST PUSH2 0xFF00 NOT AND DUP2 SSTORE PUSH32 0x7F26B83FF96E1F2B6A682F133852F6798A09C465DA95921460CEFB3847402498 PUSH1 0x20 PUSH1 0x40 MLOAD PUSH1 0x1 DUP2 MSTORE LOG1 DUP1 RETURN JUMPDEST PUSH2 0xFFFF NOT AND PUSH2 0x101 OR DUP4 SSTORE CODESIZE PUSH2 0xBFA JUMP JUMPDEST PUSH1 0x40 MLOAD PUSH3 0x461BCD PUSH1 0xE5 SHL DUP2 MSTORE PUSH1 0x20 PUSH1 0x4 DUP3 ADD MSTORE PUSH1 0x2E PUSH1 0x24 DUP3 ADD MSTORE PUSH32 0x496E697469616C697A61626C653A20636F6E747261637420697320616C726561 PUSH1 0x44 DUP3 ADD MSTORE PUSH14 0x191E481A5B9A5D1A585B1A5E9959 PUSH1 0x92 SHL PUSH1 0x64 DUP3 ADD MSTORE PUSH1 0x84 SWAP1 REVERT JUMPDEST POP ADDRESS EXTCODESIZE ISZERO DUP1 ISZERO PUSH2 0xBE5 JUMPI POP PUSH1 0x1 PUSH1 0xFF DUP3 AND EQ PUSH2 0xBE5 JUMP JUMPDEST POP PUSH1 0x1 PUSH1 0xFF DUP3 AND LT PUSH2 0xBDE JUMP JUMPDEST POP CALLVALUE PUSH2 0x3B7 JUMPI PUSH1 0x20 CALLDATASIZE PUSH1 0x3 NOT ADD SLT PUSH2 0x3B7 JUMPI PUSH2 0xD41 PUSH2 0x1F0E JUMP JUMPDEST PUSH2 0xD49 PUSH2 0x2011 JUMP JUMPDEST PUSH1 0x1 PUSH1 0x1 PUSH1 0xA0 SHL SUB DUP2 AND SWAP1 PUSH2 0xD5F DUP3 ISZERO ISZERO PUSH2 0x2368 JUMP JUMPDEST PUSH1 0x9A SLOAD PUSH9 0x10000000000000000 DUP2 LT ISZERO PUSH2 0xDD3 JUMPI SWAP2 PUSH2 0xDC9 PUSH1 0x20 SWAP3 PUSH2 0xDAB DUP6 PUSH1 0x1 PUSH32 0x835BDDF1CEEE4956E4329AF9EDF018523C1191238187A597453F6020BCADB042 SWAP8 ADD PUSH1 0x9A SSTORE PUSH2 0x1FC4 JUMP JUMPDEST SWAP1 SWAP2 SWAP1 PUSH1 0x1 DUP1 PUSH1 0xA0 SHL SUB DUP1 DUP5 SLOAD SWAP3 PUSH1 0x3 SHL SWAP4 AND DUP4 SHL SWAP3 SHL NOT AND OR SWAP1 SSTORE JUMP JUMPDEST PUSH1 0x40 MLOAD SWAP1 DUP2 MSTORE LOG1 DUP1 RETURN JUMPDEST PUSH4 0x4E487B71 PUSH1 0xE0 SHL DUP5 MSTORE PUSH1 0x41 PUSH1 0x4 MSTORE PUSH1 0x24 DUP5 REVERT JUMPDEST POP CALLVALUE PUSH2 0x3B7 JUMPI PUSH2 0xDF6 CALLDATASIZE PUSH2 0x1F52 JUMP JUMPDEST PUSH2 0xE08 SWAP9 SWAP2 SWAP3 SWAP9 SWAP8 SWAP6 SWAP8 SWAP7 SWAP5 SWAP7 PUSH2 0x2112 JUMP JUMPDEST DUP5 ISZERO PUSH2 0x127E JUMPI PUSH1 0x1 PUSH1 0x1 PUSH1 0xA0 SHL SUB DUP3 AND SWAP4 DUP5 ISZERO PUSH2 0x1248 JUMPI TIMESTAMP DUP9 GT ISZERO PUSH2 0x1210 JUMPI PUSH1 0xFF AND SWAP3 PUSH1 0x3 DUP5 GT PUSH2 0x11DC JUMPI PUSH1 0x4 DUP5 LT ISZERO PUSH2 0x520 JUMPI PUSH2 0xE45 DUP3 PUSH2 0x2230 JUMP JUMPDEST PUSH2 0xE52 PUSH1 0x40 MLOAD SWAP2 DUP3 PUSH2 0x21E7 JUMP JUMPDEST DUP3 DUP2 MSTORE CALLDATASIZE DUP4 DUP4 ADD GT PUSH2 0xA86 JUMPI PUSH1 0x0 PUSH1 0x20 DUP5 PUSH2 0xEA3 SWAP6 PUSH2 0x7B9 SWAP6 DUP4 DUP7 ADD CALLDATACOPY DUP4 ADD ADD MSTORE PUSH1 0x40 MLOAD PUSH1 0x20 DUP2 ADD SWAP1 CALLER DUP3 MSTORE DUP8 PUSH1 0x40 DUP3 ADD MSTORE DUP9 PUSH1 0x60 DUP3 ADD MSTORE DUP7 PUSH1 0x80 DUP3 ADD MSTORE DUP13 PUSH1 0xA0 DUP3 ADD MSTORE PUSH1 0xA0 DUP2 MSTORE PUSH2 0x785 DUP2 PUSH2 0x21AF JUMP JUMPDEST PUSH1 0x9C SLOAD PUSH1 0x1 PUSH1 0x1 PUSH1 0xA0 SHL SUB SWAP2 DUP3 AND SWAP2 AND DUP2 EQ SWAP1 DUP2 PUSH2 0x11D2 JUMPI JUMPDEST POP ISZERO PUSH2 0x1192 JUMPI PUSH1 0x40 MLOAD PUSH1 0x20 DUP2 ADD SWAP2 PUSH1 0x1 PUSH1 0x1 PUSH1 0x60 SHL SUB NOT SWAP1 DUP2 CALLER PUSH1 0x60 SHL AND DUP5 MSTORE PUSH1 0x60 SHL AND PUSH1 0x34 DUP3 ADD MSTORE DUP8 PUSH1 0x48 DUP3 ADD MSTORE DUP7 PUSH1 0x68 DUP3 ADD MSTORE PUSH1 0x68 DUP2 MSTORE PUSH2 0xEFE DUP2 PUSH2 0x21CB JUMP JUMPDEST MLOAD SWAP1 KECCAK256 PUSH1 0x0 DUP2 DUP2 MSTORE PUSH1 0x97 PUSH1 0x20 MSTORE PUSH1 0x40 SWAP1 KECCAK256 SLOAD SWAP1 SWAP6 SWAP1 PUSH1 0x1 PUSH1 0x1 PUSH1 0xA0 SHL SUB AND PUSH2 0x115F JUMPI PUSH1 0x40 MLOAD SWAP7 PUSH2 0xF2D DUP9 PUSH2 0x2192 JUMP JUMPDEST CALLER DUP9 MSTORE DUP4 PUSH1 0x20 DUP10 ADD MSTORE DUP5 PUSH1 0x40 DUP10 ADD MSTORE PUSH1 0x1 DUP1 PUSH1 0xA0 SHL SUB DUP7 AND PUSH1 0x60 DUP10 ADD MSTORE PUSH1 0x0 PUSH1 0x80 DUP10 ADD MSTORE PUSH1 0xA0 DUP9 ADD MSTORE PUSH1 0xC0 DUP8 ADD MSTORE DUP1 PUSH1 0xE0 DUP8 ADD MSTORE DUP7 PUSH2 0x100 DUP8 ADD MSTORE PUSH1 0x0 PUSH2 0x120 DUP8 ADD MSTORE PUSH1 0x0 PUSH2 0x140 DUP8 ADD MSTORE PUSH1 0x0 PUSH2 0x160 DUP8 ADD MSTORE PUSH1 0x1 PUSH2 0x180 DUP8 ADD MSTORE DUP5 PUSH1 0x0 MSTORE PUSH1 0x97 PUSH1 0x20 MSTORE PUSH2 0x180 PUSH1 0x9 PUSH1 0x40 PUSH1 0x0 KECCAK256 PUSH1 0x1 DUP1 PUSH1 0xA0 SHL SUB DUP10 MLOAD AND PUSH1 0x1 PUSH1 0x1 PUSH1 0x60 SHL SUB PUSH1 0xA0 SHL SWAP1 DUP2 DUP4 SLOAD AND OR DUP3 SSTORE PUSH1 0x1 DUP3 ADD PUSH1 0x1 DUP1 PUSH1 0xA0 SHL SUB PUSH1 0x20 DUP13 ADD MLOAD AND DUP3 DUP3 SLOAD AND OR SWAP1 SSTORE PUSH1 0x40 DUP11 ADD MLOAD PUSH1 0x2 DUP4 ADD SSTORE PUSH1 0x3 DUP3 ADD SWAP1 PUSH1 0x1 DUP1 PUSH1 0xA0 SHL SUB PUSH1 0x60 DUP13 ADD MLOAD AND SWAP1 DUP3 SLOAD AND OR SWAP1 SSTORE PUSH1 0x80 DUP10 ADD MLOAD PUSH1 0x4 DUP3 ADD SSTORE PUSH1 0xA0 DUP10 ADD MLOAD PUSH1 0x5 DUP3 ADD SSTORE PUSH1 0xC0 DUP10 ADD MLOAD PUSH1 0x6 DUP3 ADD SSTORE PUSH1 0x7 DUP2 ADD PUSH1 0xFF PUSH1 0xE0 DUP12 ADD MLOAD AND PUSH1 0xFF NOT DUP3 SLOAD AND OR SWAP1 SSTORE PUSH2 0x100 DUP10 ADD MLOAD PUSH1 0x8 DUP3 ADD SSTORE ADD SWAP7 PUSH2 0x1050 PUSH2 0x120 DUP3 ADD MLOAD ISZERO ISZERO DUP10 SWAP1 PUSH1 0xFF DUP1 NOT DUP4 SLOAD AND SWAP2 ISZERO ISZERO AND OR SWAP1 SSTORE JUMP JUMPDEST PUSH2 0x140 DUP2 ADD MLOAD DUP9 SLOAD PUSH2 0xFF00 NOT AND SWAP1 ISZERO ISZERO PUSH1 0x8 SHL PUSH2 0xFF00 AND OR DUP9 SSTORE PUSH2 0x160 DUP2 ADD MLOAD DUP9 SLOAD PUSH3 0xFF0000 NOT AND SWAP1 ISZERO ISZERO PUSH1 0x10 SHL PUSH3 0xFF0000 AND OR DUP9 SSTORE ADD MLOAD SWAP5 PUSH1 0x3 DUP7 LT ISZERO PUSH2 0x520 JUMPI DUP9 SWAP8 DUP8 PUSH2 0x111F SWAP8 PUSH4 0xFF000000 PUSH1 0x20 SWAP11 SLOAD SWAP2 PUSH1 0x18 SHL AND SWAP1 PUSH4 0xFF000000 NOT AND OR SWAP1 SSTORE PUSH1 0x40 MLOAD SWAP3 DUP6 DUP5 MSTORE DUP9 DUP5 ADD MSTORE PUSH1 0x40 DUP4 ADD MSTORE PUSH1 0x1 PUSH1 0x60 DUP4 ADD MSTORE PUSH32 0xBF65C77C39F1726F5A1C1116C14795ECA552690A845FBE9F58574D77A9F88868 PUSH1 0x80 CALLER SWAP4 LOG4 PUSH1 0x40 MLOAD PUSH4 0x23B872DD PUSH1 0xE0 SHL DUP2 MSTORE CALLER PUSH1 0x4 DUP3 ADD MSTORE ADDRESS PUSH1 0x24 DUP3 ADD MSTORE PUSH1 0x44 DUP2 ADD SWAP2 SWAP1 SWAP2 MSTORE SWAP4 DUP5 SWAP3 DUP4 SWAP2 SWAP1 DUP3 SWAP1 PUSH1 0x64 DUP3 ADD SWAP1 JUMP JUMPDEST SUB SWAP3 PUSH1 0x1 PUSH1 0x1 PUSH1 0xA0 SHL SUB AND GAS CALL DUP1 ISZERO PUSH2 0x35D JUMPI PUSH2 0x1140 JUMPI JUMPDEST POP PUSH1 0x1 PUSH1 0x65 SSTORE DUP1 RETURN JUMPDEST PUSH2 0x1158 SWAP1 PUSH1 0x20 RETURNDATASIZE PUSH1 0x20 GT PUSH2 0x2BF JUMPI PUSH2 0x2AF DUP2 DUP4 PUSH2 0x21E7 JUMP JUMPDEST POP CODESIZE PUSH2 0x1137 JUMP JUMPDEST PUSH1 0x40 MLOAD PUSH3 0x461BCD PUSH1 0xE5 SHL DUP2 MSTORE PUSH1 0x20 PUSH1 0x4 DUP3 ADD MSTORE PUSH1 0xB PUSH1 0x24 DUP3 ADD MSTORE PUSH11 0x5377617020657869737473 PUSH1 0xA8 SHL PUSH1 0x44 DUP3 ADD MSTORE PUSH1 0x64 SWAP1 REVERT JUMPDEST PUSH1 0x40 MLOAD PUSH3 0x461BCD PUSH1 0xE5 SHL DUP2 MSTORE PUSH1 0x20 PUSH1 0x4 DUP3 ADD MSTORE PUSH1 0x18 PUSH1 0x24 DUP3 ADD MSTORE PUSH24 0x496E76616C6964206F7261636C65207369676E6174757265 PUSH1 0x40 SHL PUSH1 0x44 DUP3 ADD MSTORE PUSH1 0x64 SWAP1 REVERT JUMPDEST SWAP1 POP ISZERO ISZERO CODESIZE PUSH2 0xEBC JUMP JUMPDEST PUSH1 0x40 MLOAD PUSH3 0x461BCD PUSH1 0xE5 SHL DUP2 MSTORE PUSH1 0x20 PUSH1 0x4 DUP3 ADD MSTORE PUSH1 0xC PUSH1 0x24 DUP3 ADD MSTORE PUSH12 0x496E76616C6964207269736B PUSH1 0xA0 SHL PUSH1 0x44 DUP3 ADD MSTORE PUSH1 0x64 SWAP1 REVERT JUMPDEST PUSH1 0x40 MLOAD PUSH3 0x461BCD PUSH1 0xE5 SHL DUP2 MSTORE PUSH1 0x20 PUSH1 0x4 DUP3 ADD MSTORE PUSH1 0x10 PUSH1 0x24 DUP3 ADD MSTORE PUSH16 0x496E76616C69642074696D656C6F636B PUSH1 0x80 SHL PUSH1 0x44 DUP3 ADD MSTORE PUSH1 0x64 SWAP1 REVERT JUMPDEST PUSH1 0x40 MLOAD PUSH3 0x461BCD PUSH1 0xE5 SHL DUP2 MSTORE PUSH1 0x20 PUSH1 0x4 DUP3 ADD MSTORE PUSH1 0xE PUSH1 0x24 DUP3 ADD MSTORE PUSH14 0x24B73B30B634B21039B2B63632B9 PUSH1 0x91 SHL PUSH1 0x44 DUP3 ADD MSTORE PUSH1 0x64 SWAP1 REVERT JUMPDEST PUSH1 0x40 MLOAD PUSH3 0x461BCD PUSH1 0xE5 SHL DUP2 MSTORE PUSH1 0x20 PUSH1 0x4 DUP3 ADD MSTORE PUSH1 0xB PUSH1 0x24 DUP3 ADD MSTORE PUSH11 0x16995C9BC8185B5BDD5B9D PUSH1 0xAA SHL PUSH1 0x44 DUP3 ADD MSTORE PUSH1 0x64 SWAP1 REVERT JUMPDEST POP CALLVALUE PUSH2 0x3B7 JUMPI PUSH1 0x20 CALLDATASIZE PUSH1 0x3 NOT ADD SLT PUSH2 0x3B7 JUMPI PUSH1 0x4 CALLDATALOAD PUSH2 0x12CE PUSH2 0x2011 JUMP JUMPDEST PUSH1 0x9A SLOAD DUP2 GT PUSH2 0x12DD JUMPI PUSH1 0x9B SSTORE DUP1 RETURN JUMPDEST PUSH1 0x40 MLOAD PUSH3 0x461BCD PUSH1 0xE5 SHL DUP2 MSTORE PUSH1 0x20 PUSH1 0x4 DUP3 ADD MSTORE PUSH1 0x8 PUSH1 0x24 DUP3 ADD MSTORE PUSH8 0xA8DEDE40D0D2CED PUSH1 0xC3 SHL PUSH1 0x44 DUP3 ADD MSTORE PUSH1 0x64 SWAP1 REVERT JUMPDEST POP CALLVALUE PUSH2 0x3B7 JUMPI DUP1 PUSH1 0x3 NOT CALLDATASIZE ADD SLT PUSH2 0x3B7 JUMPI PUSH1 0x33 SLOAD PUSH1 0x40 MLOAD PUSH1 0x1 PUSH1 0x1 PUSH1 0xA0 SHL SUB SWAP1 SWAP2 AND DUP2 MSTORE PUSH1 0x20 SWAP1 RETURN JUMPDEST POP CALLVALUE PUSH2 0x3B7 JUMPI PUSH1 0x20 CALLDATASIZE PUSH1 0x3 NOT ADD SLT PUSH2 0x3B7 JUMPI PUSH1 0x40 PUSH1 0x20 SWAP2 PUSH1 0x4 CALLDATALOAD DUP2 MSTORE PUSH1 0x99 DUP4 MSTORE KECCAK256 SLOAD PUSH1 0x40 MLOAD SWAP1 DUP2 MSTORE RETURN JUMPDEST POP CALLVALUE PUSH2 0x3B7 JUMPI PUSH1 0x60 CALLDATASIZE PUSH1 0x3 NOT ADD SLT PUSH2 0x3B7 JUMPI DUP1 PUSH2 0x137B PUSH2 0x1F0E JUMP JUMPDEST PUSH2 0x1383 PUSH2 0x1EF8 JUMP JUMPDEST SWAP1 PUSH2 0x138C PUSH2 0x2011 JUMP JUMPDEST PUSH1 0x1 PUSH1 0x1 PUSH1 0xA0 SHL SUB AND DUP1 EXTCODESIZE ISZERO PUSH2 0x13F2 JUMPI PUSH1 0x40 MLOAD PUSH4 0x23B872DD PUSH1 0xE0 SHL DUP2 MSTORE ADDRESS PUSH1 0x4 DUP3 ADD MSTORE PUSH1 0x1 PUSH1 0x1 PUSH1 0xA0 SHL SUB SWAP3 SWAP1 SWAP3 AND PUSH1 0x24 DUP4 ADD MSTORE PUSH1 0x44 DUP1 CALLDATALOAD SWAP1 DUP4 ADD MSTORE DUP3 SWAP1 DUP3 SWAP1 PUSH1 0x64 SWAP1 DUP3 SWAP1 DUP5 SWAP1 GAS CALL DUP1 ISZERO PUSH2 0x35D JUMPI PUSH2 0x13E2 JUMPI POP RETURN JUMPDEST PUSH2 0x13EB SWAP1 PUSH2 0x2168 JUMP JUMPDEST PUSH2 0x3B7 JUMPI DUP1 RETURN JUMPDEST POP POP REVERT JUMPDEST POP CALLVALUE PUSH2 0x3B7 JUMPI DUP1 PUSH1 0x3 NOT CALLDATASIZE ADD SLT PUSH2 0x3B7 JUMPI PUSH1 0x9C SLOAD PUSH1 0x40 MLOAD PUSH1 0x1 PUSH1 0x1 PUSH1 0xA0 SHL SUB SWAP1 SWAP2 AND DUP2 MSTORE PUSH1 0x20 SWAP1 RETURN JUMPDEST POP CALLVALUE PUSH2 0x3B7 JUMPI PUSH1 0x20 CALLDATASIZE PUSH1 0x3 NOT ADD SLT PUSH2 0x3B7 JUMPI PUSH2 0x1439 PUSH2 0x1F0E JUMP JUMPDEST PUSH2 0x1441 PUSH2 0x2011 JUMP JUMPDEST PUSH1 0x1 PUSH1 0x1 PUSH1 0xA0 SHL SUB AND PUSH2 0x1455 DUP2 ISZERO ISZERO PUSH2 0x2368 JUMP JUMPDEST PUSH1 0x1 PUSH1 0x1 PUSH1 0x60 SHL SUB PUSH1 0xA0 SHL PUSH1 0x9C SLOAD AND OR PUSH1 0x9C SSTORE DUP1 RETURN JUMPDEST POP CALLVALUE PUSH2 0x3B7 JUMPI PUSH1 0x40 CALLDATASIZE PUSH1 0x3 NOT ADD SLT PUSH2 0x3B7 JUMPI PUSH1 0x24 PUSH1 0x4 CALLDATALOAD PUSH2 0x148A PUSH2 0x2112 JUMP JUMPDEST DUP1 DUP4 MSTORE PUSH1 0x20 PUSH1 0x97 DUP2 MSTORE PUSH1 0x40 DUP5 KECCAK256 SWAP1 PUSH1 0x9 DUP3 ADD SWAP4 DUP5 SLOAD SWAP5 PUSH2 0x14AD PUSH1 0xFF DUP8 AND ISZERO PUSH2 0x224C JUMP JUMPDEST PUSH2 0x14BD PUSH1 0xFF DUP8 PUSH1 0x8 SHR AND ISZERO PUSH2 0x228C JUMP JUMPDEST PUSH2 0x14CD PUSH1 0xFF DUP8 PUSH1 0x10 SHR AND ISZERO PUSH2 0x22CB JUMP JUMPDEST PUSH1 0x6 DUP5 ADD SLOAD TIMESTAMP LT ISZERO PUSH2 0x17F6 JUMPI PUSH1 0x40 MLOAD DUP4 DUP2 ADD SWAP1 DUP4 CALLDATALOAD DUP3 MSTORE DUP5 DUP2 MSTORE PUSH1 0x40 DUP2 ADD SWAP2 DUP2 DUP4 LT PUSH8 0xFFFFFFFFFFFFFFFF DUP5 GT OR PUSH2 0x17E1 JUMPI DUP3 PUSH1 0x40 MSTORE DUP2 MLOAD SWAP1 KECCAK256 PUSH1 0x5 DUP8 ADD SLOAD SUB PUSH2 0x17AE JUMPI POP POP PUSH1 0xFF PUSH1 0x7 DUP6 ADD SLOAD AND PUSH2 0x1524 DUP2 PUSH2 0x2221 JUMP JUMPDEST PUSH1 0x4 DUP2 LT ISZERO PUSH2 0x179B JUMPI PUSH1 0x2 EQ SWAP1 DUP2 ISZERO PUSH2 0x176C JUMPI JUMPDEST POP PUSH2 0x171C JUMPI JUMPDEST PUSH1 0xFF SWAP1 PUSH1 0x1 DUP1 SWAP8 DUP4 NOT AND OR DUP1 SWAP2 SSTORE PUSH1 0x18 SHR AND PUSH1 0x3 DUP2 LT ISZERO PUSH2 0x1709 JUMPI DUP1 PUSH2 0x15F8 JUMPI POP DUP6 DUP1 DUP1 DUP1 PUSH1 0x1 DUP1 PUSH1 0xA0 SHL SUB DUP10 DUP9 ADD SLOAD AND PUSH1 0x2 DUP9 ADD SLOAD SWAP1 GAS CALL PUSH2 0x157F PUSH2 0x2300 JUMP JUMPDEST POP ISZERO PUSH2 0x15BF JUMPI POP POP JUMPDEST DUP3 ADD SLOAD PUSH1 0x1 PUSH1 0x1 PUSH1 0xA0 SHL SUB AND SWAP1 PUSH32 0x625E047E273118A71CCA3F0DD73A68D97DD99585FFDEE4B3F86670FE113F13D DUP5 DUP1 LOG3 PUSH1 0x65 SSTORE DUP1 RETURN JUMPDEST SWAP1 PUSH1 0x13 PUSH1 0x64 SWAP3 PUSH1 0x40 MLOAD SWAP3 PUSH3 0x461BCD PUSH1 0xE5 SHL DUP5 MSTORE PUSH1 0x4 DUP5 ADD MSTORE DUP3 ADD MSTORE PUSH19 0x115512081D1C985B9CD9995C8819985A5B1959 PUSH1 0x6A SHL PUSH1 0x44 DUP3 ADD MSTORE REVERT JUMPDEST SWAP1 POP DUP5 DUP2 SUB PUSH2 0x167F JUMPI POP PUSH1 0x3 DUP3 ADD SLOAD DUP5 DUP4 ADD SLOAD PUSH1 0x2 DUP5 ADD SLOAD PUSH1 0x40 MLOAD PUSH4 0xA9059CBB PUSH1 0xE0 SHL DUP2 MSTORE PUSH1 0x1 PUSH1 0x1 PUSH1 0xA0 SHL SUB SWAP3 DUP4 AND PUSH1 0x4 DUP3 ADD MSTORE PUSH1 0x24 DUP2 ADD SWAP2 SWAP1 SWAP2 MSTORE SWAP2 DUP4 SWAP2 DUP4 SWAP2 PUSH1 0x44 SWAP2 DUP4 SWAP2 DUP12 SWAP2 AND GAS CALL DUP1 ISZERO PUSH2 0x1674 JUMPI PUSH2 0x1656 JUMPI JUMPDEST POP POP PUSH2 0x1588 JUMP JUMPDEST DUP2 PUSH2 0x166C SWAP3 SWAP1 RETURNDATASIZE LT PUSH2 0x2BF JUMPI PUSH2 0x2AF DUP2 DUP4 PUSH2 0x21E7 JUMP JUMPDEST POP CODESIZE DUP1 PUSH2 0x164F JUMP JUMPDEST PUSH1 0x40 MLOAD RETURNDATASIZE DUP9 DUP3 RETURNDATACOPY RETURNDATASIZE SWAP1 REVERT JUMPDEST PUSH1 0x2 SWAP2 POP SUB PUSH2 0x1588 JUMPI PUSH1 0x3 DUP2 ADD SLOAD DUP4 DUP3 ADD SLOAD PUSH1 0x4 DUP4 ADD SLOAD DUP7 SWAP3 PUSH1 0x1 PUSH1 0x1 PUSH1 0xA0 SHL SUB SWAP1 DUP2 AND SWAP3 AND SWAP1 DUP3 EXTCODESIZE ISZERO PUSH2 0x368 JUMPI PUSH1 0x40 MLOAD PUSH4 0x23B872DD PUSH1 0xE0 SHL DUP2 MSTORE ADDRESS PUSH1 0x4 DUP3 ADD MSTORE PUSH1 0x1 PUSH1 0x1 PUSH1 0xA0 SHL SUB SWAP3 SWAP1 SWAP3 AND PUSH1 0x24 DUP4 ADD MSTORE PUSH1 0x44 DUP3 ADD MSTORE SWAP1 DUP3 SWAP1 DUP3 SWAP1 PUSH1 0x64 SWAP1 DUP3 SWAP1 DUP5 SWAP1 GAS CALL DUP1 ISZERO PUSH2 0x35D JUMPI PUSH2 0x16F5 JUMPI POP POP PUSH2 0x1588 JUMP JUMPDEST PUSH2 0x16FE SWAP1 PUSH2 0x2168 JUMP JUMPDEST PUSH2 0x368 JUMPI DUP4 CODESIZE PUSH2 0x164F JUMP JUMPDEST POP PUSH4 0x4E487B71 PUSH1 0xE0 SHL DUP7 MSTORE PUSH1 0x21 PUSH1 0x4 MSTORE DUP6 REVERT JUMPDEST DUP5 DUP8 MSTORE PUSH1 0x99 DUP4 MSTORE PUSH1 0x40 DUP8 KECCAK256 SLOAD PUSH1 0x9B SLOAD GT ISZERO PUSH2 0x153E JUMPI PUSH1 0x40 MLOAD PUSH3 0x461BCD PUSH1 0xE5 SHL DUP2 MSTORE PUSH1 0x4 DUP2 ADD DUP5 SWAP1 MSTORE PUSH1 0x14 DUP2 DUP5 ADD MSTORE PUSH20 0x4E6F7420656E6F75676820617070726F76616C73 PUSH1 0x60 SHL PUSH1 0x44 DUP3 ADD MSTORE PUSH1 0x64 SWAP1 REVERT JUMPDEST PUSH2 0x1776 SWAP2 POP PUSH2 0x2221 JUMP JUMPDEST PUSH1 0x4 DUP2 LT ISZERO PUSH2 0x1788 JUMPI PUSH1 0x3 EQ CODESIZE PUSH2 0x1538 JUMP JUMPDEST PUSH4 0x4E487B71 PUSH1 0xE0 SHL DUP9 MSTORE PUSH1 0x21 PUSH1 0x4 MSTORE DUP3 DUP9 REVERT JUMPDEST PUSH4 0x4E487B71 PUSH1 0xE0 SHL DUP10 MSTORE PUSH1 0x21 PUSH1 0x4 MSTORE DUP4 DUP10 REVERT JUMPDEST SWAP1 PUSH16 0x496E76616C696420707265696D616765 PUSH1 0x80 SHL PUSH1 0x84 PUSH1 0x64 SWAP4 DUP8 PUSH3 0x461BCD PUSH1 0xE5 SHL DUP6 MSTORE PUSH1 0x44 DUP3 ADD MSTORE PUSH1 0x10 DUP6 DUP3 ADD MSTORE ADD MSTORE REVERT JUMPDEST DUP5 PUSH4 0x4E487B71 PUSH1 0xE0 SHL PUSH1 0x0 MSTORE PUSH1 0x41 PUSH1 0x4 MSTORE PUSH1 0x0 REVERT JUMPDEST PUSH1 0x40 MLOAD PUSH3 0x461BCD PUSH1 0xE5 SHL DUP2 MSTORE PUSH1 0x4 DUP2 ADD DUP5 SWAP1 MSTORE PUSH1 0x7 DUP2 DUP5 ADD MSTORE PUSH7 0x115E1C1A5C9959 PUSH1 0xCA SHL PUSH1 0x44 DUP3 ADD MSTORE PUSH1 0x64 SWAP1 REVERT JUMPDEST POP CALLVALUE PUSH2 0x3B7 JUMPI DUP1 PUSH1 0x3 NOT CALLDATASIZE ADD SLT PUSH2 0x3B7 JUMPI PUSH2 0x183D PUSH2 0x2011 JUMP JUMPDEST PUSH1 0x33 DUP1 SLOAD PUSH1 0x1 PUSH1 0x1 PUSH1 0xA0 SHL SUB NOT DUP2 AND SWAP1 SWAP2 SSTORE PUSH1 0x0 SWAP1 PUSH1 0x1 PUSH1 0x1 PUSH1 0xA0 SHL SUB AND PUSH32 0x8BE0079C531659141344CD1FD0A4F28419497F9722A3DAAFE3B4186F6B6457E0 DUP3 DUP1 LOG3 DUP1 RETURN JUMPDEST POP CALLVALUE PUSH2 0x3B7 JUMPI PUSH1 0x20 CALLDATASIZE PUSH1 0x3 NOT ADD SLT PUSH2 0x3B7 JUMPI PUSH1 0x20 PUSH2 0x18A6 PUSH2 0x18A1 PUSH2 0x1F0E JUMP JUMPDEST PUSH2 0x23C8 JUMP JUMPDEST PUSH1 0x40 MLOAD SWAP1 ISZERO ISZERO DUP2 MSTORE RETURN JUMPDEST POP CALLVALUE PUSH2 0x3B7 JUMPI PUSH1 0x20 DUP1 PUSH1 0x3 NOT CALLDATASIZE ADD SLT PUSH2 0x3B3 JUMPI PUSH2 0x18CB PUSH2 0x1F0E JUMP JUMPDEST SWAP2 PUSH2 0x18D4 PUSH2 0x2011 JUMP JUMPDEST PUSH1 0x1 PUSH1 0x1 PUSH1 0xA0 SHL SUB SWAP3 DUP4 AND SWAP2 DUP2 JUMPDEST PUSH1 0x9A DUP1 SLOAD SWAP1 DUP2 DUP4 LT ISZERO PUSH2 0x19C4 JUMPI DUP7 SWAP1 DUP7 PUSH2 0x18FB DUP6 PUSH2 0x1FC4 JUMP JUMPDEST SWAP4 SWAP1 SLOAD PUSH1 0x3 SWAP5 DUP6 SHL SHR AND EQ PUSH2 0x191B JUMPI POP POP POP PUSH2 0x1916 SWAP1 PUSH2 0x23A3 JUMP JUMPDEST PUSH2 0x18E2 JUMP JUMPDEST PUSH1 0x0 NOT SWAP8 SWAP6 SWAP7 SWAP5 SWAP6 SWAP2 SWAP4 SWAP1 SWAP3 DUP9 DUP2 ADD SWAP1 DUP2 GT PUSH2 0x19B0 JUMPI SWAP1 PUSH2 0xDAB DUP4 PUSH2 0x1942 PUSH2 0x194F SWAP5 PUSH2 0x1FC4 JUMP JUMPDEST SWAP1 SLOAD SWAP1 DUP9 SHL SHR AND SWAP2 PUSH2 0x1FC4 JUMP JUMPDEST DUP2 SLOAD SWAP7 DUP8 ISZERO PUSH2 0x199C JUMPI PUSH32 0xC6E35658C76ECDDE40A54F31A91FB7C8615E9893CC0885584B27BB3433270D46 SWAP7 SWAP8 ADD SWAP3 PUSH2 0x1986 DUP5 PUSH2 0x1FC4 JUMP JUMPDEST DUP2 SWAP4 SWAP2 SLOAD SWAP3 SHL SHL NOT AND SWAP1 SSTORE SSTORE PUSH1 0x40 MLOAD SWAP1 DUP2 MSTORE LOG1 DUP1 RETURN JUMPDEST PUSH4 0x4E487B71 PUSH1 0xE0 SHL DUP8 MSTORE PUSH1 0x31 PUSH1 0x4 MSTORE PUSH1 0x24 DUP8 REVERT JUMPDEST PUSH4 0x4E487B71 PUSH1 0xE0 SHL DUP9 MSTORE PUSH1 0x11 PUSH1 0x4 MSTORE PUSH1 0x24 DUP9 REVERT JUMPDEST POP POP POP POP SWAP2 POP POP DUP1 RETURN JUMPDEST POP CALLVALUE PUSH2 0x3B7 JUMPI DUP1 PUSH1 0x3 NOT CALLDATASIZE ADD SLT PUSH2 0x3B7 JUMPI PUSH1 0x20 PUSH1 0x9B SLOAD PUSH1 0x40 MLOAD SWAP1 DUP2 MSTORE RETURN JUMPDEST POP CALLVALUE PUSH2 0x3B7 JUMPI PUSH2 0x19FB CALLDATASIZE PUSH2 0x1F52 JUMP JUMPDEST PUSH2 0x1A09 SWAP10 SWAP9 SWAP4 SWAP5 SWAP6 SWAP10 PUSH2 0x2112 JUMP JUMPDEST PUSH1 0x1 PUSH1 0x1 PUSH1 0xA0 SHL SUB DUP5 AND ISZERO PUSH2 0x1248 JUMPI TIMESTAMP DUP7 GT ISZERO PUSH2 0x1210 JUMPI PUSH1 0x3 PUSH1 0xFF DUP7 AND GT PUSH2 0x11DC JUMPI PUSH1 0x4 PUSH1 0xFF DUP7 AND LT ISZERO PUSH2 0x1DBD JUMPI PUSH2 0x1A40 DUP2 PUSH2 0x2230 JUMP JUMPDEST SWAP2 PUSH2 0x1A4E PUSH1 0x40 MLOAD SWAP4 DUP5 PUSH2 0x21E7 JUMP JUMPDEST DUP2 DUP4 MSTORE CALLDATASIZE DUP3 DUP3 ADD GT PUSH2 0xB69 JUMPI SWAP2 DUP10 PUSH1 0x20 DUP4 PUSH2 0x7B9 SWAP5 PUSH2 0x1ADD SWAP7 DUP4 DUP7 ADD CALLDATACOPY DUP4 ADD ADD MSTORE PUSH1 0x40 MLOAD PUSH1 0x20 DUP2 ADD SWAP1 CALLER DUP3 MSTORE PUSH1 0x1 DUP1 PUSH1 0xA0 SHL SUB DUP8 AND PUSH1 0x40 DUP3 ADD MSTORE PUSH1 0x1 PUSH1 0x60 DUP3 ADD MSTORE PUSH1 0xFF DUP9 AND PUSH1 0x80 DUP3 ADD MSTORE DUP6 PUSH1 0xA0 DUP3 ADD MSTORE PUSH1 0xA0 DUP2 MSTORE PUSH2 0x1AAB DUP2 PUSH2 0x21AF JUMP JUMPDEST MLOAD SWAP1 KECCAK256 PUSH32 0x19457468657265756D205369676E6564204D6573736167653A0A333200000000 DUP12 MSTORE PUSH1 0x1C MSTORE PUSH1 0x3C DUP11 KECCAK256 PUSH2 0x251D JUMP JUMPDEST PUSH1 0x9C SLOAD PUSH1 0x1 PUSH1 0x1 PUSH1 0xA0 SHL SUB SWAP2 DUP3 AND SWAP2 AND DUP2 EQ SWAP1 DUP2 PUSH2 0x1DB3 JUMPI JUMPDEST POP ISZERO PUSH2 0x1192 JUMPI PUSH1 0x40 MLOAD PUSH1 0x20 DUP2 ADD SWAP1 PUSH1 0x1 PUSH1 0x1 PUSH1 0x60 SHL SUB NOT DUP1 CALLER PUSH1 0x60 SHL AND DUP4 MSTORE DUP5 PUSH1 0x60 SHL AND PUSH1 0x34 DUP3 ADD MSTORE DUP10 PUSH1 0x48 DUP3 ADD MSTORE DUP6 PUSH1 0x68 DUP3 ADD MSTORE PUSH1 0x68 DUP2 MSTORE PUSH2 0x1B38 DUP2 PUSH2 0x21CB JUMP JUMPDEST MLOAD SWAP1 KECCAK256 DUP1 DUP9 MSTORE PUSH1 0x97 PUSH1 0x20 MSTORE PUSH1 0x40 DUP9 KECCAK256 SLOAD SWAP1 SWAP5 SWAP1 PUSH1 0x1 PUSH1 0x1 PUSH1 0xA0 SHL SUB AND PUSH2 0x115F JUMPI PUSH1 0x40 MLOAD SWAP9 PUSH2 0x1B65 DUP11 PUSH2 0x2192 JUMP JUMPDEST CALLER DUP11 MSTORE PUSH1 0x1 DUP1 PUSH1 0xA0 SHL SUB DUP5 AND PUSH1 0x20 DUP12 ADD MSTORE PUSH1 0x1 PUSH1 0x40 DUP12 ADD MSTORE PUSH1 0x1 DUP1 PUSH1 0xA0 SHL SUB DUP9 AND PUSH1 0x60 DUP12 ADD MSTORE DUP7 PUSH1 0x80 DUP12 ADD MSTORE PUSH1 0xA0 DUP11 ADD MSTORE PUSH1 0xC0 DUP10 ADD MSTORE PUSH1 0xFF DUP4 AND PUSH1 0xE0 DUP10 ADD MSTORE DUP1 PUSH2 0x100 DUP10 ADD MSTORE DUP7 PUSH2 0x120 DUP10 ADD MSTORE DUP7 PUSH2 0x140 DUP10 ADD MSTORE DUP7 PUSH2 0x160 DUP10 ADD MSTORE PUSH1 0x2 PUSH2 0x180 DUP10 ADD MSTORE DUP4 DUP8 MSTORE PUSH1 0x97 PUSH1 0x20 MSTORE PUSH2 0x180 PUSH1 0x9 PUSH1 0x40 DUP10 KECCAK256 PUSH1 0x1 DUP1 PUSH1 0xA0 SHL SUB DUP12 MLOAD AND PUSH1 0x1 PUSH1 0x1 PUSH1 0x60 SHL SUB PUSH1 0xA0 SHL SWAP1 DUP2 DUP4 SLOAD AND OR DUP3 SSTORE PUSH1 0x1 DUP3 ADD DUP13 PUSH1 0x20 PUSH1 0x1 DUP1 PUSH1 0xA0 SHL SUB SWAP2 ADD MLOAD AND DUP3 DUP3 SLOAD AND OR SWAP1 SSTORE PUSH1 0x40 DUP13 ADD MLOAD PUSH1 0x2 DUP4 ADD SSTORE PUSH1 0x3 DUP3 ADD SWAP1 DUP13 PUSH1 0x60 PUSH1 0x1 DUP1 PUSH1 0xA0 SHL SUB SWAP2 ADD MLOAD AND SWAP1 DUP3 SLOAD AND OR SWAP1 SSTORE PUSH1 0x80 DUP12 ADD MLOAD PUSH1 0x4 DUP3 ADD SSTORE PUSH1 0xA0 DUP12 ADD MLOAD PUSH1 0x5 DUP3 ADD SSTORE PUSH1 0xC0 DUP12 ADD MLOAD PUSH1 0x6 DUP3 ADD SSTORE PUSH1 0x7 DUP2 ADD PUSH1 0xFF PUSH1 0xE0 DUP14 ADD MLOAD AND PUSH1 0xFF NOT DUP3 SLOAD AND OR SWAP1 SSTORE PUSH2 0x100 DUP12 ADD MLOAD PUSH1 0x8 DUP3 ADD SSTORE ADD SWAP9 PUSH2 0x1C90 PUSH2 0x120 DUP3 ADD MLOAD ISZERO ISZERO DUP12 SWAP1 PUSH1 0xFF DUP1 NOT DUP4 SLOAD AND SWAP2 ISZERO ISZERO AND OR SWAP1 SSTORE JUMP JUMPDEST PUSH2 0x140 DUP2 ADD MLOAD DUP11 SLOAD PUSH2 0xFF00 NOT AND SWAP1 ISZERO ISZERO PUSH1 0x8 SHL PUSH2 0xFF00 AND OR DUP11 SSTORE PUSH2 0x160 DUP2 ADD MLOAD DUP11 SLOAD PUSH3 0xFF0000 NOT AND SWAP1 ISZERO ISZERO PUSH1 0x10 SHL PUSH3 0xFF0000 AND OR DUP11 SSTORE ADD MLOAD SWAP8 PUSH1 0x3 DUP10 LT ISZERO PUSH2 0x1D9F JUMPI DUP8 SWAP9 PUSH4 0xFF000000 DUP3 SLOAD SWAP2 PUSH1 0x18 SHL AND SWAP1 PUSH4 0xFF000000 NOT AND OR SWAP1 SSTORE PUSH1 0xFF PUSH1 0x40 MLOAD SWAP4 PUSH1 0x1 DUP6 MSTORE AND PUSH1 0x20 DUP5 ADD MSTORE PUSH1 0x40 DUP4 ADD MSTORE PUSH1 0x2 PUSH1 0x60 DUP4 ADD MSTORE PUSH1 0x1 DUP1 PUSH1 0xA0 SHL SUB AND SWAP2 PUSH32 0xBF65C77C39F1726F5A1C1116C14795ECA552690A845FBE9F58574D77A9F88868 PUSH1 0x80 CALLER SWAP4 LOG4 PUSH1 0x1 PUSH1 0x1 PUSH1 0xA0 SHL SUB DUP3 AND EXTCODESIZE ISZERO PUSH2 0x13F2 JUMPI PUSH1 0x40 MLOAD PUSH4 0x23B872DD PUSH1 0xE0 SHL DUP2 MSTORE CALLER PUSH1 0x4 DUP3 ADD MSTORE ADDRESS PUSH1 0x24 DUP3 ADD MSTORE PUSH1 0x44 DUP2 ADD SWAP2 SWAP1 SWAP2 MSTORE SWAP2 SWAP1 DUP3 SWAP1 PUSH1 0x64 SWAP1 DUP3 SWAP1 DUP5 SWAP1 PUSH1 0x1 PUSH1 0x1 PUSH1 0xA0 SHL SUB AND GAS CALL DUP1 ISZERO PUSH2 0x35D JUMPI PUSH2 0x1D90 JUMPI POP PUSH1 0x1 PUSH1 0x65 SSTORE DUP1 RETURN JUMPDEST PUSH2 0x1D99 SWAP1 PUSH2 0x2168 JUMP JUMPDEST CODESIZE PUSH2 0x1137 JUMP JUMPDEST PUSH4 0x4E487B71 PUSH1 0xE0 SHL DUP9 MSTORE PUSH1 0x21 PUSH1 0x4 MSTORE PUSH1 0x24 DUP9 REVERT JUMPDEST SWAP1 POP ISZERO ISZERO CODESIZE PUSH2 0x1AF6 JUMP JUMPDEST PUSH4 0x4E487B71 PUSH1 0xE0 SHL DUP10 MSTORE PUSH1 0x21 PUSH1 0x4 MSTORE PUSH1 0x24 DUP10 REVERT JUMPDEST POP CALLVALUE PUSH2 0x3B7 JUMPI PUSH1 0x40 CALLDATASIZE PUSH1 0x3 NOT ADD SLT PUSH2 0x3B7 JUMPI PUSH1 0xFF PUSH1 0x40 PUSH1 0x20 SWAP3 PUSH2 0x1DF2 PUSH2 0x1EF8 JUMP JUMPDEST PUSH1 0x4 CALLDATALOAD DUP3 MSTORE PUSH1 0x98 DUP6 MSTORE DUP3 DUP3 KECCAK256 PUSH1 0x1 PUSH1 0x1 PUSH1 0xA0 SHL SUB SWAP1 SWAP2 AND DUP3 MSTORE DUP5 MSTORE KECCAK256 SLOAD PUSH1 0x40 MLOAD SWAP2 AND ISZERO ISZERO DUP2 MSTORE RETURN JUMPDEST SWAP1 POP CALLVALUE PUSH2 0x3B3 JUMPI PUSH1 0x20 CALLDATASIZE PUSH1 0x3 NOT ADD SLT PUSH2 0x3B3 JUMPI PUSH1 0x4 CALLDATALOAD DUP1 DUP4 MSTORE PUSH1 0x97 PUSH1 0x20 MSTORE PUSH1 0x40 DUP4 KECCAK256 DUP1 SLOAD SWAP2 SWAP3 SWAP1 SWAP2 CALLER PUSH1 0x1 PUSH1 0x1 PUSH1 0xA0 SHL SUB SWAP2 DUP3 AND EQ SWAP1 DUP2 ISZERO PUSH2 0x1EE8 JUMPI JUMPDEST POP ISZERO PUSH2 0x1EBA JUMPI POP PUSH1 0x9 ADD PUSH3 0x10000 DUP2 SLOAD PUSH1 0xFF DUP2 AND ISZERO DUP1 PUSH2 0x1EAB JUMPI JUMPDEST PUSH2 0x1E7B SWAP1 PUSH2 0x2330 JUMP JUMPDEST PUSH3 0xFF0000 NOT AND OR SWAP1 SSTORE PUSH32 0x223AB6991C0E3CEE2AF471CBA0CC06415BF12C2ADF4CC81C07D869DD5057503E DUP3 DUP1 LOG2 DUP1 RETURN JUMPDEST POP PUSH1 0x8 DUP2 SWAP1 SHR PUSH1 0xFF AND ISZERO PUSH2 0x1E72 JUMP JUMPDEST PUSH3 0x461BCD PUSH1 0xE5 SHL DUP2 MSTORE PUSH1 0x20 PUSH1 0x4 DUP3 ADD MSTORE PUSH1 0x9 PUSH1 0x24 DUP3 ADD MSTORE PUSH9 0x4E6F74207061727479 PUSH1 0xB8 SHL PUSH1 0x44 DUP3 ADD MSTORE PUSH1 0x64 SWAP1 REVERT JUMPDEST SWAP1 POP PUSH1 0x1 DUP4 ADD SLOAD AND CALLER EQ CODESIZE PUSH2 0x1E57 JUMP JUMPDEST PUSH1 0x24 CALLDATALOAD SWAP1 PUSH1 0x1 PUSH1 0x1 PUSH1 0xA0 SHL SUB DUP3 AND DUP3 SUB PUSH2 0xA86 JUMPI JUMP JUMPDEST PUSH1 0x4 CALLDATALOAD SWAP1 PUSH1 0x1 PUSH1 0x1 PUSH1 0xA0 SHL SUB DUP3 AND DUP3 SUB PUSH2 0xA86 JUMPI JUMP JUMPDEST SWAP2 DUP2 PUSH1 0x1F DUP5 ADD SLT ISZERO PUSH2 0xA86 JUMPI DUP3 CALLDATALOAD SWAP2 PUSH8 0xFFFFFFFFFFFFFFFF DUP4 GT PUSH2 0xA86 JUMPI PUSH1 0x20 DUP4 DUP2 DUP7 ADD SWAP6 ADD ADD GT PUSH2 0xA86 JUMPI JUMP JUMPDEST SWAP1 PUSH2 0x100 PUSH1 0x3 NOT DUP4 ADD SLT PUSH2 0xA86 JUMPI PUSH1 0x1 PUSH1 0x1 PUSH1 0xA0 SHL SUB SWAP2 PUSH1 0x4 CALLDATALOAD DUP4 DUP2 AND DUP2 SUB PUSH2 0xA86 JUMPI SWAP3 PUSH1 0x24 CALLDATALOAD SWAP1 DUP2 AND DUP2 SUB PUSH2 0xA86 JUMPI SWAP2 PUSH1 0x44 CALLDATALOAD SWAP2 PUSH1 0x64 CALLDATALOAD SWAP2 PUSH1 0x84 CALLDATALOAD SWAP2 PUSH1 0xA4 CALLDATALOAD PUSH1 0xFF DUP2 AND DUP2 SUB PUSH2 0xA86 JUMPI SWAP2 PUSH1 0xC4 CALLDATALOAD SWAP2 PUSH1 0xE4 CALLDATALOAD SWAP1 PUSH8 0xFFFFFFFFFFFFFFFF DUP3 GT PUSH2 0xA86 JUMPI PUSH2 0x1FC0 SWAP2 PUSH1 0x4 ADD PUSH2 0x1F24 JUMP JUMPDEST SWAP1 SWAP2 JUMP JUMPDEST PUSH1 0x9A SLOAD DUP2 LT ISZERO PUSH2 0x1FFB JUMPI PUSH1 0x9A PUSH1 0x0 MSTORE PUSH32 0x44DA158BA27F9252712A74FF6A55C5D531F69609F1F6E7F17C4443A8E2089BE4 ADD SWAP1 PUSH1 0x0 SWAP1 JUMP JUMPDEST PUSH4 0x4E487B71 PUSH1 0xE0 SHL PUSH1 0x0 MSTORE PUSH1 0x32 PUSH1 0x4 MSTORE PUSH1 0x24 PUSH1 0x0 REVERT JUMPDEST PUSH1 0x33 SLOAD PUSH1 0x1 PUSH1 0x1 PUSH1 0xA0 SHL SUB AND CALLER SUB PUSH2 0x2025 JUMPI JUMP JUMPDEST PUSH1 0x64 PUSH1 0x40 MLOAD PUSH3 0x461BCD PUSH1 0xE5 SHL DUP2 MSTORE PUSH1 0x20 PUSH1 0x4 DUP3 ADD MSTORE PUSH1 0x20 PUSH1 0x24 DUP3 ADD MSTORE PUSH32 0x4F776E61626C653A2063616C6C6572206973206E6F7420746865206F776E6572 PUSH1 0x44 DUP3 ADD MSTORE REVERT JUMPDEST PUSH1 0x33 DUP1 SLOAD PUSH1 0x1 PUSH1 0x1 PUSH1 0xA0 SHL SUB SWAP3 DUP4 AND PUSH1 0x1 PUSH1 0x1 PUSH1 0xA0 SHL SUB NOT DUP3 AND DUP2 OR SWAP1 SWAP3 SSTORE SWAP1 SWAP2 AND PUSH32 0x8BE0079C531659141344CD1FD0A4F28419497F9722A3DAAFE3B4186F6B6457E0 PUSH1 0x0 DUP1 LOG3 JUMP JUMPDEST ISZERO PUSH2 0x20B9 JUMPI JUMP JUMPDEST PUSH1 0x40 MLOAD PUSH3 0x461BCD PUSH1 0xE5 SHL DUP2 MSTORE PUSH1 0x20 PUSH1 0x4 DUP3 ADD MSTORE PUSH1 0x2B PUSH1 0x24 DUP3 ADD MSTORE PUSH32 0x496E697469616C697A61626C653A20636F6E7472616374206973206E6F742069 PUSH1 0x44 DUP3 ADD MSTORE PUSH11 0x6E697469616C697A696E67 PUSH1 0xA8 SHL PUSH1 0x64 DUP3 ADD MSTORE PUSH1 0x84 SWAP1 REVERT JUMPDEST PUSH1 0x2 PUSH1 0x65 SLOAD EQ PUSH2 0x2123 JUMPI PUSH1 0x2 PUSH1 0x65 SSTORE JUMP JUMPDEST PUSH1 0x40 MLOAD PUSH3 0x461BCD PUSH1 0xE5 SHL DUP2 MSTORE PUSH1 0x20 PUSH1 0x4 DUP3 ADD MSTORE PUSH1 0x1F PUSH1 0x24 DUP3 ADD MSTORE PUSH32 0x5265656E7472616E637947756172643A207265656E7472616E742063616C6C00 PUSH1 0x44 DUP3 ADD MSTORE PUSH1 0x64 SWAP1 REVERT JUMPDEST PUSH8 0xFFFFFFFFFFFFFFFF DUP2 GT PUSH2 0x217C JUMPI PUSH1 0x40 MSTORE JUMP JUMPDEST PUSH4 0x4E487B71 PUSH1 0xE0 SHL PUSH1 0x0 MSTORE PUSH1 0x41 PUSH1 0x4 MSTORE PUSH1 0x24 PUSH1 0x0 REVERT JUMPDEST PUSH2 0x1A0 DUP2 ADD SWAP1 DUP2 LT PUSH8 0xFFFFFFFFFFFFFFFF DUP3 GT OR PUSH2 0x217C JUMPI PUSH1 0x40 MSTORE JUMP JUMPDEST PUSH1 0xC0 DUP2 ADD SWAP1 DUP2 LT PUSH8 0xFFFFFFFFFFFFFFFF DUP3 GT OR PUSH2 0x217C JUMPI PUSH1 0x40 MSTORE JUMP JUMPDEST PUSH1 0xA0 DUP2 ADD SWAP1 DUP2 LT PUSH8 0xFFFFFFFFFFFFFFFF DUP3 GT OR PUSH2 0x217C JUMPI PUSH1 0x40 MSTORE JUMP JUMPDEST SWAP1 PUSH1 0x1F DUP1 NOT SWAP2 ADD AND DUP2 ADD SWAP1 DUP2 LT PUSH8 0xFFFFFFFFFFFFFFFF DUP3 GT OR PUSH2 0x217C JUMPI PUSH1 0x40 MSTORE JUMP JUMPDEST SWAP1 DUP2 PUSH1 0x20 SWAP2 SUB SLT PUSH2 0xA86 JUMPI MLOAD DUP1 ISZERO ISZERO DUP2 SUB PUSH2 0xA86 JUMPI SWAP1 JUMP JUMPDEST PUSH1 0xFF AND PUSH1 0x4 DUP2 LT ISZERO PUSH2 0x520 JUMPI SWAP1 JUMP JUMPDEST PUSH8 0xFFFFFFFFFFFFFFFF DUP2 GT PUSH2 0x217C JUMPI PUSH1 0x1F ADD PUSH1 0x1F NOT AND PUSH1 0x20 ADD SWAP1 JUMP JUMPDEST ISZERO PUSH2 0x2253 JUMPI JUMP JUMPDEST PUSH1 0x40 MLOAD PUSH3 0x461BCD PUSH1 0xE5 SHL DUP2 MSTORE PUSH1 0x20 PUSH1 0x4 DUP3 ADD MSTORE PUSH1 0x11 PUSH1 0x24 DUP3 ADD MSTORE PUSH17 0x105B1C9958591E4818DBDB5C1B195D1959 PUSH1 0x7A SHL PUSH1 0x44 DUP3 ADD MSTORE PUSH1 0x64 SWAP1 REVERT JUMPDEST ISZERO PUSH2 0x2293 JUMPI JUMP JUMPDEST PUSH1 0x40 MLOAD PUSH3 0x461BCD PUSH1 0xE5 SHL DUP2 MSTORE PUSH1 0x20 PUSH1 0x4 DUP3 ADD MSTORE PUSH1 0x10 PUSH1 0x24 DUP3 ADD MSTORE PUSH16 0x105B1C9958591E481C99599D5B991959 PUSH1 0x82 SHL PUSH1 0x44 DUP3 ADD MSTORE PUSH1 0x64 SWAP1 REVERT JUMPDEST ISZERO PUSH2 0x22D2 JUMPI JUMP JUMPDEST PUSH1 0x40 MLOAD PUSH3 0x461BCD PUSH1 0xE5 SHL DUP2 MSTORE PUSH1 0x20 PUSH1 0x4 DUP3 ADD MSTORE PUSH1 0x6 PUSH1 0x24 DUP3 ADD MSTORE PUSH6 0x233937BD32B7 PUSH1 0xD1 SHL PUSH1 0x44 DUP3 ADD MSTORE PUSH1 0x64 SWAP1 REVERT JUMPDEST RETURNDATASIZE ISZERO PUSH2 0x232B JUMPI RETURNDATASIZE SWAP1 PUSH2 0x2311 DUP3 PUSH2 0x2230 JUMP JUMPDEST SWAP2 PUSH2 0x231F PUSH1 0x40 MLOAD SWAP4 DUP5 PUSH2 0x21E7 JUMP JUMPDEST DUP3 MSTORE RETURNDATASIZE PUSH1 0x0 PUSH1 0x20 DUP5 ADD RETURNDATACOPY JUMP JUMPDEST PUSH1 0x60 SWAP1 JUMP JUMPDEST ISZERO PUSH2 0x2337 JUMPI JUMP JUMPDEST PUSH1 0x40 MLOAD PUSH3 0x461BCD PUSH1 0xE5 SHL DUP2 MSTORE PUSH1 0x20 PUSH1 0x4 DUP3 ADD MSTORE PUSH1 0x9 PUSH1 0x24 DUP3 ADD MSTORE PUSH9 0x119A5B985B1A5E9959 PUSH1 0xBA SHL PUSH1 0x44 DUP3 ADD MSTORE PUSH1 0x64 SWAP1 REVERT JUMPDEST ISZERO PUSH2 0x236F JUMPI JUMP JUMPDEST PUSH1 0x40 MLOAD PUSH3 0x461BCD PUSH1 0xE5 SHL DUP2 MSTORE PUSH1 0x20 PUSH1 0x4 DUP3 ADD MSTORE PUSH1 0xC PUSH1 0x24 DUP3 ADD MSTORE PUSH12 0x5A65726F2061646472657373 PUSH1 0xA0 SHL PUSH1 0x44 DUP3 ADD MSTORE PUSH1 0x64 SWAP1 REVERT JUMPDEST PUSH1 0x0 NOT DUP2 EQ PUSH2 0x23B2 JUMPI PUSH1 0x1 ADD SWAP1 JUMP JUMPDEST PUSH4 0x4E487B71 PUSH1 0xE0 SHL PUSH1 0x0 MSTORE PUSH1 0x11 PUSH1 0x4 MSTORE PUSH1 0x24 PUSH1 0x0 REVERT JUMPDEST PUSH1 0x9A SLOAD SWAP1 PUSH1 0x0 JUMPDEST DUP3 DUP2 LT PUSH2 0x23DE JUMPI POP POP POP PUSH1 0x0 SWAP1 JUMP JUMPDEST PUSH2 0x23E7 DUP2 PUSH2 0x1FC4 JUMP JUMPDEST SWAP1 SLOAD PUSH1 0x3 SWAP2 SWAP1 SWAP2 SHL SHR PUSH1 0x1 PUSH1 0x1 PUSH1 0xA0 SHL SUB SWAP1 DUP2 AND SWAP1 DUP4 AND EQ PUSH2 0x2411 JUMPI PUSH2 0x240C SWAP1 PUSH2 0x23A3 JUMP JUMPDEST PUSH2 0x23CF JUMP JUMPDEST POP POP POP PUSH1 0x1 SWAP1 JUMP JUMPDEST PUSH1 0x5 DUP2 LT ISZERO PUSH2 0x520 JUMPI DUP1 PUSH2 0x242A JUMPI POP JUMP JUMPDEST PUSH1 0x1 DUP2 SUB PUSH2 0x2477 JUMPI PUSH1 0x40 MLOAD PUSH3 0x461BCD PUSH1 0xE5 SHL DUP2 MSTORE PUSH1 0x20 PUSH1 0x4 DUP3 ADD MSTORE PUSH1 0x18 PUSH1 0x24 DUP3 ADD MSTORE PUSH32 0x45434453413A20696E76616C6964207369676E61747572650000000000000000 PUSH1 0x44 DUP3 ADD MSTORE PUSH1 0x64 SWAP1 REVERT JUMPDEST PUSH1 0x2 DUP2 SUB PUSH2 0x24C4 JUMPI PUSH1 0x40 MLOAD PUSH3 0x461BCD PUSH1 0xE5 SHL DUP2 MSTORE PUSH1 0x20 PUSH1 0x4 DUP3 ADD MSTORE PUSH1 0x1F PUSH1 0x24 DUP3 ADD MSTORE PUSH32 0x45434453413A20696E76616C6964207369676E6174757265206C656E67746800 PUSH1 0x44 DUP3 ADD MSTORE PUSH1 0x64 SWAP1 REVERT JUMPDEST PUSH1 0x3 EQ PUSH2 0x24CD JUMPI JUMP JUMPDEST PUSH1 0x40 MLOAD PUSH3 0x461BCD PUSH1 0xE5 SHL DUP2 MSTORE PUSH1 0x20 PUSH1 0x4 DUP3 ADD MSTORE PUSH1 0x22 PUSH1 0x24 DUP3 ADD MSTORE PUSH32 0x45434453413A20696E76616C6964207369676E6174757265202773272076616C PUSH1 0x44 DUP3 ADD MSTORE PUSH2 0x7565 PUSH1 0xF0 SHL PUSH1 0x64 DUP3 ADD MSTORE PUSH1 0x84 SWAP1 REVERT JUMPDEST SWAP1 PUSH1 0x41 DUP2 MLOAD EQ PUSH1 0x0 EQ PUSH2 0x2547 JUMPI PUSH2 0x1FC0 SWAP2 PUSH1 0x20 DUP3 ADD MLOAD SWAP1 PUSH1 0x60 PUSH1 0x40 DUP5 ADD MLOAD SWAP4 ADD MLOAD PUSH1 0x0 BYTE SWAP1 PUSH2 0x2551 JUMP JUMPDEST POP POP PUSH1 0x0 SWAP1 PUSH1 0x2 SWAP1 JUMP JUMPDEST SWAP3 SWAP2 SWAP1 PUSH32 0x7FFFFFFFFFFFFFFFFFFFFFFFFFFFFFFF5D576E7357A4501DDFE92F46681B20A0 DUP4 GT PUSH2 0x25D4 JUMPI SWAP2 PUSH1 0x80 SWAP5 SWAP4 SWAP2 PUSH1 0xFF PUSH1 0x20 SWAP5 PUSH1 0x40 MLOAD SWAP5 DUP6 MSTORE AND DUP5 DUP5 ADD MSTORE PUSH1 0x40 DUP4 ADD MSTORE PUSH1 0x60 DUP3 ADD MSTORE PUSH1 0x0 SWAP4 DUP5 SWAP2 DUP3 DUP1 MSTORE PUSH1 0x1 GAS STATICCALL ISZERO PUSH2 0x25C7 JUMPI DUP2 MLOAD PUSH1 0x1 PUSH1 0x1 PUSH1 0xA0 SHL SUB DUP2 AND ISZERO PUSH2 0x25C1 JUMPI SWAP2 SWAP1 JUMP JUMPDEST POP PUSH1 0x1 SWAP1 JUMP JUMPDEST POP PUSH1 0x40 MLOAD SWAP1 RETURNDATASIZE SWAP1 DUP3 RETURNDATACOPY RETURNDATASIZE SWAP1 REVERT JUMPDEST POP POP POP POP PUSH1 0x0 SWAP1 PUSH1 0x3 SWAP1 JUMP INVALID LOG2 PUSH5 0x6970667358 0x22 SLT KECCAK256 SWAP10 PUSH11 0x38DFF7D82418A2D4C42838 0xBF DUP7 PUSH20 0xF90D844B886B6E9859C2B9827A11AE8F64736F6C PUSH4 0x43000815 STOP CALLER "},"methodIdentifiers":{"addApprover(address)":"b646c194","approvalCounts(bytes32)":"8abed32b","approvals(bytes32,address)":"24f6c776","approveSwap(bytes32)":"e35468cb","approvers(uint256)":"d3650fb8","completeSwap(bytes32,bytes32)":"78dc3356","escalateSwap(bytes32)":"23f36939","initialize(address,uint256)":"cd6dc687","initiateSwap(address,bytes32,uint256,uint8,bytes32,bytes)":"d5e9a80b","initiateSwapERC20(address,address,uint256,bytes32,uint256,uint8,bytes32,bytes)":"b1404294","initiateSwapERC721(address,address,uint256,bytes32,uint256,uint8,bytes32,bytes)":"38293371","isApprover(address)":"6d218e48","oracle()":"7dc0d1d0","owner()":"8da5cb5b","refundSwap(bytes32)":"fe2510ee","removeApprover(address)":"6cf4c88f","renounceOwnership()":"715018a6","rescueERC721(address,address,uint256)":"7df325e1","setOracle(address)":"7adbf973","setThreshold(uint256)":"960bfe04","swaps(bytes32)":"eb84e7f2","threshold()":"42cde4e8","transferOwnership(address)":"f2fde38b"}},"storageLayout":{"storage":[{"astId":139,"contract":"contracts/withnft.sol:AMTTP","label":"_initialized","offset":0,"slot":"0","type":"t_uint8"},{"astId":142,"contract":"contracts/withnft.sol:AMTTP","label":"_initializing","offset":1,"slot":"0","type":"t_bool"},{"astId":766,"contract":"contracts/withnft.sol:AMTTP","label":"__gap","offset":0,"slot":"1","type":"t_array(t_uint256)50_storage"},{"astId":11,"contract":"contracts/withnft.sol:AMTTP","label":"_owner","offset":0,"slot":"51","type":"t_address"},{"astId":131,"contract":"contracts/withnft.sol:AMTTP","label":"__gap","offset":0,"slot":"52","type":"t_array(t_uint256)49_storage"},{"astId":316,"contract":"contracts/withnft.sol:AMTTP","label":"_status","offset":0,"slot":"101","type":"t_uint256"},{"astId":385,"contract":"contracts/withnft.sol:AMTTP","label":"__gap","offset":0,"slot":"102","type":"t_array(t_uint256)49_storage"},{"astId":4642,"contract":"contracts/withnft.sol:AMTTP","label":"swaps","offset":0,"slot":"151","type":"t_mapping(t_bytes32,t_struct(Swap)4637_storage)"},{"astId":4648,"contract":"contracts/withnft.sol:AMTTP","label":"approvals","offset":0,"slot":"152","type":"t_mapping(t_bytes32,t_mapping(t_address,t_bool))"},{"astId":4652,"contract":"contracts/withnft.sol:AMTTP","label":"approvalCounts","offset":0,"slot":"153","type":"t_mapping(t_bytes32,t_uint256)"},{"astId":4655,"contract":"contracts/withnft.sol:AMTTP","label":"approvers","offset":0,"slot":"154","type":"t_array(t_address)dyn_storage"},{"astId":4657,"contract":"contracts/withnft.sol:AMTTP","label":"threshold","offset":0,"slot":"155","type":"t_uint256"},{"astId":4659,"contract":"contracts/withnft.sol:AMTTP","label":"oracle","offset":0,"slot":"156","type":"t_address"}],"types":{"t_address":{"encoding":"inplace","label":"address","numberOfBytes":"20"},"t_array(t_address)dyn_storage":{"base":"t_address","encoding":"dynamic_array","label":"address[]","numberOfBytes":"32"},"t_array(t_uint256)49_storage":{"base":"t_uint256","encoding":"inplace","label":"uint256[49]","numberOfBytes":"1568"},"t_array(t_uint256)50_storage":{"base":"t_uint256","encoding":"inplace","label":"uint256[50]","numberOfBytes":"1600"},"t_bool":{"encoding":"inplace","label":"bool","numberOfBytes":"1"},"t_bytes32":{"encoding":"inplace","label":"bytes32","numberOfBytes":"32"},"t_enum(AssetType)4609":{"encoding":"inplace","label":"enum AMTTP.AssetType","numberOfBytes":"1"},"t_mapping(t_address,t_bool)":{"encoding":"mapping","key":"t_address","label":"mapping(address => bool)","numberOfBytes":"32","value":"t_bool"},"t_mapping(t_bytes32,t_mapping(t_address,t_bool))":{"encoding":"mapping","key":"t_bytes32","label":"mapping(bytes32 => mapping(address => bool))","numberOfBytes":"32","value":"t_mapping(t_address,t_bool)"},"t_mapping(t_bytes32,t_struct(Swap)4637_storage)":{"encoding":"mapping","key":"t_bytes32","label":"mapping(bytes32 => struct AMTTP.Swap)","numberOfBytes":"32","value":"t_struct(Swap)4637_storage"},"t_mapping(t_bytes32,t_uint256)":{"encoding":"mapping","key":"t_bytes32","label":"mapping(bytes32 => uint256)","numberOfBytes":"32","value":"t_uint256"},"t_struct(Swap)4637_storage":{"encoding":"inplace","label":"struct AMTTP.Swap","members":[{"astId":4611,"contract":"contracts/withnft.sol:AMTTP","label":"buyer","offset":0,"slot":"0","type":"t_address"},{"astId":4613,"contract":"contracts/withnft.sol:AMTTP","label":"seller","offset":0,"slot":"1","type":"t_address"},{"astId":4615,"contract":"contracts/withnft.sol:AMTTP","label":"amount","offset":0,"slot":"2","type":"t_uint256"},{"astId":4617,"contract":"contracts/withnft.sol:AMTTP","label":"token","offset":0,"slot":"3","type":"t_address"},{"astId":4619,"contract":"contracts/withnft.sol:AMTTP","label":"tokenId","offset":0,"slot":"4","type":"t_uint256"},{"astId":4621,"contract":"contracts/withnft.sol:AMTTP","label":"hashlock","offset":0,"slot":"5","type":"t_bytes32"},{"astId":4623,"contract":"contracts/withnft.sol:AMTTP","label":"timelock","offset":0,"slot":"6","type":"t_uint256"},{"astId":4625,"contract":"contracts/withnft.sol:AMTTP","label":"riskLevel","offset":0,"slot":"7","type":"t_uint8"},{"astId":4627,"contract":"contracts/withnft.sol:AMTTP","label":"kycHash","offset":0,"slot":"8","type":"t_bytes32"},{"astId":4629,"contract":"contracts/withnft.sol:AMTTP","label":"completed","offset":0,"slot":"9","type":"t_bool"},{"astId":4631,"contract":"contracts/withnft.sol:AMTTP","label":"refunded","offset":1,"slot":"9","type":"t_bool"},{"astId":4633,"contract":"contracts/withnft.sol:AMTTP","label":"frozen","offset":2,"slot":"9","type":"t_bool"},{"astId":4636,"contract":"contracts/withnft.sol:AMTTP","label":"assetType","offset":3,"slot":"9","type":"t_enum(AssetType)4609"}],"numberOfBytes":"320"},"t_uint256":{"encoding":"inplace","label":"uint256","numberOfBytes":"32"},"t_uint8":{"encoding":"inplace","label":"uint8","numberOfBytes":"1"}}}}}}