{"abi":[{"type":"constructor","inputs":[],"stateMutability":"nonpayable"},{"type":"receive","stateMutability":"payable"},{"type":"function","name":"approveSwap","inputs":[{"name":"swapId","type":"bytes32","internalType":"bytes32"}],"outputs":[],"stateMutability":"nonpayable"},{"type":"function","name":"completeSwap","inputs":[{"name":"swapId","type":"bytes32","internalType":"bytes32"},{"name":"preimage","type":"bytes32","internalType":"bytes32"}],"outputs":[],"stateMutability":"nonpayable"},{"type":"function","name":"coreContract","inputs":[],"outputs":[{"name":"","type":"address","internalType":"contract IAMTTPCore"}],"stateMutability":"view"},{"type":"function","name":"crossChain","inputs":[],"outputs":[{"name":"","type":"address","internalType":"contract IAMTTPCrossChain"}],"stateMutability":"view"},{"type":"function","name":"disputeResolver","inputs":[],"outputs":[{"name":"","type":"address","internalType":"address"}],"stateMutability":"view"},{"type":"function","name":"getChainRiskScore","inputs":[{"name":"chainId","type":"uint16","internalType":"uint16"},{"name":"user","type":"address","internalType":"address"}],"outputs":[{"name":"","type":"uint256","internalType":"uint256"}],"stateMutability":"view"},{"type":"function","name":"getContractAddresses","inputs":[],"outputs":[{"name":"core","type":"address","internalType":"address"},{"name":"nft","type":"address","internalType":"address"},{"name":"policy","type":"address","internalType":"address"},{"name":"crossChainAddr","type":"address","internalType":"address"},{"name":"dispute","type":"address","internalType":"address"}],"stateMutability":"view"},{"type":"function","name":"getProtocolStats","inputs":[],"outputs":[{"name":"_totalSwaps","type":"uint256","internalType":"uint256"},{"name":"_totalCompleted","type":"uint256","internalType":"uint256"},{"name":"_volumeETH","type":"uint256","internalType":"uint256"},{"name":"_volumeERC20","type":"uint256","internalType":"uint256"},{"name":"_nftSwaps","type":"uint256","internalType":"uint256"}],"stateMutability":"view"},{"type":"function","name":"getRiskThreshold","inputs":[],"outputs":[{"name":"","type":"uint256","internalType":"uint256"}],"stateMutability":"view"},{"type":"function","name":"getUserPolicy","inputs":[{"name":"user","type":"address","internalType":"address"}],"outputs":[{"name":"dailyLimit","type":"uint256","internalType":"uint256"},{"name":"singleTxLimit","type":"uint256","internalType":"uint256"},{"name":"kycVerified","type":"bool","internalType":"bool"},{"name":"trusted","type":"bool","internalType":"bool"}],"stateMutability":"view"},{"type":"function","name":"initialize","inputs":[{"name":"_core","type":"address","internalType":"address"},{"name":"_nft","type":"address","internalType":"address"},{"name":"_policyEngine","type":"address","internalType":"address"},{"name":"_crossChain","type":"address","internalType":"address"},{"name":"_disputeResolver","type":"address","internalType":"address"}],"outputs":[],"stateMutability":"nonpayable"},{"type":"function","name":"nftContract","inputs":[],"outputs":[{"name":"","type":"address","internalType":"contract IAMTTPNFT"}],"stateMutability":"view"},{"type":"function","name":"owner","inputs":[],"outputs":[{"name":"","type":"address","internalType":"address"}],"stateMutability":"view"},{"type":"function","name":"policyEngine","inputs":[],"outputs":[{"name":"","type":"address","internalType":"contract IAMTTPPolicyEngine"}],"stateMutability":"view"},{"type":"function","name":"proxiableUUID","inputs":[],"outputs":[{"name":"","type":"bytes32","internalType":"bytes32"}],"stateMutability":"view"},{"type":"function","name":"raiseDispute","inputs":[{"name":"swapId","type":"bytes32","internalType":"bytes32"},{"name":"evidence","type":"string","internalType":"string"}],"outputs":[],"stateMutability":"payable"},{"type":"function","name":"refundSwap","inputs":[{"name":"swapId","type":"bytes32","internalType":"bytes32"}],"outputs":[],"stateMutability":"nonpayable"},{"type":"function","name":"renounceOwnership","inputs":[],"outputs":[],"stateMutability":"nonpayable"},{"type":"function","name":"setContracts","inputs":[{"name":"_core","type":"address","internalType":"address"},{"name":"_nft","type":"address","internalType":"address"},{"name":"_policyEngine","type":"address","internalType":"address"},{"name":"_crossChain","type":"address","internalType":"address"},{"name":"_disputeResolver","type":"address","internalType":"address"}],"outputs":[],"stateMutability":"nonpayable"},{"type":"function","name":"swapERC20","inputs":[{"name":"seller","type":"address","internalType":"address"},{"name":"token","type":"address","internalType":"address"},{"name":"amount","type":"uint256","internalType":"uint256"},{"name":"hashlock","type":"bytes32","internalType":"bytes32"},{"name":"timelock","type":"uint256","internalType":"uint256"},{"name":"riskScore","type":"uint256","internalType":"uint256"},{"name":"kycHash","type":"bytes32","internalType":"bytes32"},{"name":"oracleSignature","type":"bytes","internalType":"bytes"}],"outputs":[{"name":"swapId","type":"bytes32","internalType":"bytes32"}],"stateMutability":"nonpayable"},{"type":"function","name":"swapETH","inputs":[{"name":"seller","type":"address","internalType":"address"},{"name":"hashlock","type":"bytes32","internalType":"bytes32"},{"name":"timelock","type":"uint256","internalType":"uint256"},{"name":"riskScore","type":"uint256","internalType":"uint256"},{"name":"kycHash","type":"bytes32","internalType":"bytes32"},{"name":"oracleSignature","type":"bytes","internalType":"bytes"}],"outputs":[{"name":"swapId","type":"bytes32","internalType":"bytes32"}],"stateMutability":"payable"},{"type":"function","name":"swapNFTforETH","inputs":[{"name":"buyer","type":"address","internalType":"address"},{"name":"nftContract_","type":"address","internalType":"address"},{"name":"tokenId","type":"uint256","internalType":"uint256"},{"name":"ethAmount","type":"uint256","internalType":"uint256"},{"name":"hashlock","type":"bytes32","internalType":"bytes32"},{"name":"timelock","type":"uint256","internalType":"uint256"},{"name":"riskScore","type":"uint256","internalType":"uint256"},{"name":"kycHash","type":"bytes32","internalType":"bytes32"},{"name":"oracleSignature","type":"bytes","internalType":"bytes"}],"outputs":[{"name":"swapId","type":"bytes32","internalType":"bytes32"}],"stateMutability":"nonpayable"},{"type":"function","name":"swapNFTforNFT","inputs":[{"name":"partyB","type":"address","internalType":"address"},{"name":"nftContractA","type":"address","internalType":"address"},{"name":"tokenIdA","type":"uint256","internalType":"uint256"},{"name":"nftContractB","type":"address","internalType":"address"},{"name":"tokenIdB","type":"uint256","internalType":"uint256"},{"name":"hashlock","type":"bytes32","internalType":"bytes32"},{"name":"timelock","type":"uint256","internalType":"uint256"},{"name":"riskScore","type":"uint256","internalType":"uint256"},{"name":"oracleSignature","type":"bytes","internalType":"bytes"}],"outputs":[{"name":"swapId","type":"bytes32","internalType":"bytes32"}],"stateMutability":"nonpayable"},{"type":"function","name":"swapTypes","inputs":[{"name":"","type":"bytes32","internalType":"bytes32"}],"outputs":[{"name":"","type":"uint8","internalType":"enum AMTTPRouter.SwapType"}],"stateMutability":"view"},{"type":"function","name":"syncRiskToChain","inputs":[{"name":"dstChainId","type":"uint16","internalType":"uint16"},{"name":"user","type":"address","internalType":"address"},{"name":"riskScore","type":"uint256","internalType":"uint256"},{"name":"adapterParams","type":"bytes","internalType":"bytes"}],"outputs":[],"stateMutability":"payable"},{"type":"function","name":"totalNFTSwaps","inputs":[],"outputs":[{"name":"","type":"uint256","internalType":"uint256"}],"stateMutability":"view"},{"type":"function","name":"totalSwapsCompleted","inputs":[],"outputs":[{"name":"","type":"uint256","internalType":"uint256"}],"stateMutability":"view"},{"type":"function","name":"totalSwapsInitiated","inputs":[],"outputs":[{"name":"","type":"uint256","internalType":"uint256"}],"stateMutability":"view"},{"type":"function","name":"totalVolumeERC20","inputs":[],"outputs":[{"name":"","type":"uint256","internalType":"uint256"}],"stateMutability":"view"},{"type":"function","name":"totalVolumeETH","inputs":[],"outputs":[{"name":"","type":"uint256","internalType":"uint256"}],"stateMutability":"view"},{"type":"function","name":"transferOwnership","inputs":[{"name":"newOwner","type":"address","internalType":"address"}],"outputs":[],"stateMutability":"nonpayable"},{"type":"function","name":"upgradeTo","inputs":[{"name":"newImplementation","type":"address","internalType":"address"}],"outputs":[],"stateMutability":"nonpayable"},{"type":"function","name":"upgradeToAndCall","inputs":[{"name":"newImplementation","type":"address","internalType":"address"},{"name":"data","type":"bytes","internalType":"bytes"}],"outputs":[],"stateMutability":"payable"},{"type":"function","name":"userSwapCount","inputs":[{"name":"","type":"address","internalType":"address"}],"outputs":[{"name":"","type":"uint256","internalType":"uint256"}],"stateMutability":"view"},{"type":"event","name":"AdminChanged","inputs":[{"name":"previousAdmin","type":"address","indexed":false,"internalType":"address"},{"name":"newAdmin","type":"address","indexed":false,"internalType":"address"}],"anonymous":false},{"type":"event","name":"AnalyticsUpdated","inputs":[{"name":"totalSwaps","type":"uint256","indexed":false,"internalType":"uint256"},{"name":"totalCompleted","type":"uint256","indexed":false,"internalType":"uint256"},{"name":"totalVolumeETH","type":"uint256","indexed":false,"internalType":"uint256"}],"anonymous":false},{"type":"event","name":"BeaconUpgraded","inputs":[{"name":"beacon","type":"address","indexed":true,"internalType":"address"}],"anonymous":false},{"type":"event","name":"ContractsUpdated","inputs":[{"name":"core","type":"address","indexed":false,"internalType":"address"},{"name":"nft","type":"address","indexed":false,"internalType":"address"},{"name":"policy","type":"address","indexed":false,"internalType":"address"},{"name":"crossChain","type":"address","indexed":false,"internalType":"address"}],"anonymous":false},{"type":"event","name":"Initialized","inputs":[{"name":"version","type":"uint8","indexed":false,"internalType":"uint8"}],"anonymous":false},{"type":"event","name":"OwnershipTransferred","inputs":[{"name":"previousOwner","type":"address","indexed":true,"internalType":"address"},{"name":"newOwner","type":"address","indexed":true,"internalType":"address"}],"anonymous":false},{"type":"event","name":"SwapRouted","inputs":[{"name":"swapId","type":"bytes32","indexed":true,"internalType":"bytes32"},{"name":"swapType","type":"uint8","indexed":false,"internalType":"enum AMTTPRouter.SwapType"},{"name":"initiator","type":"address","indexed":true,"internalType":"address"}],"anonymous":false},{"type":"event","name":"Upgraded","inputs":[{"name":"implementation","type":"address","indexed":true,"internalType":"address"}],"anonymous":false}],"bytecode":{"object":"0x60a080604052346100da57306080525f549060ff8260081c16610088575060ff8082160361004e575b60405161222590816100df8239608051818181610ec701528181610fed015261143d0152f35b60ff90811916175f557f7f26b83ff96e1f2b6a682f133852f6798a09c465da95921460cefb3847402498602060405160ff8152a15f610028565b62461bcd60e51b815260206004820152602760248201527f496e697469616c697a61626c653a20636f6e747261637420697320696e697469604482015266616c697a696e6760c81b6064820152608490fd5b5f80fdfe608060409080825260049182361015610022575b5050503615610020575f80fd5b005b5f915f3560e01c9081631459457a146119c457508063172678a9146119a55780631e56b7461461184b5780631f01e265146117805780633137d856146116035780633659cfe614611415578063367dc5e0146112915780634917db66146112695780634f1ef28614610f7357806352d1902d14610eb1578063543aa9fe14610e7957806359a929f014610e035780636ee4ca9b14610de4578063715018a614610d87578063761d9e6814610ca6578063771aceef14610c6157806377ab9e4414610c1657806378dc335614610a525780638ba90bf1146109bd5780638da5cb5b14610995578063927399a51461096d578063953874d214610918578063be7b8a77146107f3578063c54aa9cb14610667578063cd82e7d314610648578063d56d229d14610620578063e35468cb14610537578063e80db5db1461050f578063f2c2ca6c146104f0578063f2fde38b1461045a578063f5a3f4af14610432578063f63bf8bd14610329578063f6c310a41461030a5763fe2510ee036100135734610306576020366003190112610306578235906101bc611f58565b81835261010560205260ff818420541660058110156102e7576101e0811515611ebd565b5f6001821480156102fa575b1561026257505060fb54929384936001600160a01b031692833b1561025e57602485928385519687948593637f12887760e11b85528401525af1908115610255575061023e575b50505b600160c95580f35b61024790611c25565b61025257805f610233565b80fd5b513d84823e3d90fd5b8480fd5b6102e75793848160038697149182156102dd575b5050610286575b50505050610236565b60fc546001600160a01b031692833b1561025e57602485928385519687948593631953f73560e21b85528401525af190811561025557506102c9575b808061027d565b6102d290611c25565b61025257805f6102c2565b149050815f610276565b634e487b7160e01b845260218552602484fd5b50505f600282146101ec565b5080fd5b5034610306578160031936011261030657602090610103549051908152f35b50346103065760807f5fa24fea85a5ce115f424d206cd07e10fe6c52fd86d013949fea9654d3f62ca09161035c36611b90565b9361036a9592919395611fae565b6001600160a01b03908116958190819081908961041b575b169384610404575b1694856103ed575b1694856103d6575b16806103b8575b50815194855260208501528301526060820152a180f35b6bffffffffffffffffffffffff60a01b60ff54161760ff55886103a1565b60fe80546001600160a01b0319168717905561039a565b60fd80546001600160a01b03191687179055610392565b60fc80546001600160a01b0319168617905561038a565b60fb80546001600160a01b0319168b179055610382565b503461030657816003193601126103065760ff5490516001600160a01b039091168152602090f35b5082346104ec5760203660031901126104ec57610475611b64565b9161047e611fae565b6001600160a01b0383161561049a578361049784612006565b80f35b906020608492519162461bcd60e51b8352820152602660248201527f4f776e61626c653a206e6577206f776e657220697320746865207a65726f206160448201526564647265737360d01b6064820152fd5b8280fd5b5034610306578160031936011261030657602090610102549051908152f35b503461030657816003193601126103065760fb5490516001600160a01b039091168152602090f35b50346103065760203660031901126103065782359081835261010560205260ff818420541660058110156102e757938461057385961515611ebd565b60018114908115610615575b50156105d55760fb546001600160a01b031692833b1561025e5760248592838551968794859363e35468cb60e01b85528401525af190811561025557506105c557505080f35b6105ce90611c25565b6102525780f35b60fc546001600160a01b031692833b1561025e5760248592838551968794859363e35468cb60e01b85528401525af190811561025557506105c557505080f35b60029150145f61057f565b503461030657816003193601126103065760fc5490516001600160a01b039091168152602090f35b5034610306578160031936011261030657602090610101549051908152f35b503461030657610100806003193601126104ec57610683611b64565b9061068c611b7a565b936044359260e4356001600160401b0381116104ec576106af9036908901611be7565b9190976106ba611f58565b60fb546001600160a01b0398908916918991906106d8841515611ca3565b89519a8b95633aea216160e21b875216908501521660248301528560448301526064356064830152608435608483015260a43560a483015260c43560c48301528460e483015281848161073460209c8d97610104840191611cde565b03925af19485156107e75781956107b4575b5080858592526101058752818120600260ff198254161790553381526101068752206107728154611da3565b905561077e8154611da3565b9055815160028152835f805160206121d0833981519152863393a36107a7610103918254611cfe565b9055600160c95551908152f35b9094508581813d83116107e0575b6107cc8183611c67565b810103126107dc57519383610746565b5f80fd5b503d6107c2565b508351903d90823e3d90fd5b509182600319360112610306578035926024356001600160401b038111610914576108219036908401611be7565b85859492945261010560205260ff8386205416956005871015610901578661084b87981515611ebd565b600181149081156108f6575b50156108b75760fb546001600160a01b031690813b156108b357869361089c86519788958694859463be7b8a7760e01b86528501528860248501526044840191611cde565b039134905af190811561025557506105c557505080f35b8680fd5b60fc546001600160a01b031690813b156108b357869361089c86519788958694859463be7b8a7760e01b86528501528860248501526044840191611cde565b60029150145f610857565b634e487b7160e01b865260218352602486fd5b8380fd5b503461030657816003193601126103065760fb5460fc5460fd5460fe5460ff5485516001600160a01b03958616815293851660208501529184169483019490945292821660608201529116608082015260a090f35b503461030657816003193601126103065760fd5490516001600160a01b039091168152602090f35b503461030657816003193601126103065760335490516001600160a01b039091168152602090f35b503461030657816003193601126103065760fd546020906001600160a01b03166109e8811515611e73565b825163309ac81760e01b815294859182905afa918215610a475791610a12575b6020925051908152f35b90506020823d602011610a3f575b81610a2d60209383611c67565b810103126107dc576020915190610a08565b3d9150610a20565b9051903d90823e3d90fd5b503461030657806003193601126103065760249081358435610a72611f58565b80855261010560205260ff83862054166005811015610bf857610a96811515611ebd565b5f600182148015610c0a575b15610b1b57505060fb54949586956001600160a01b031690813b156108b35786604492819587519889968795633c6e19ab60e11b87528601528401525af19081156102555750610b07575b50505b610101610afd8154611da3565b9055600160c95580f35b610b1090611c25565b61025257805f610aed565b610bf85795808760038899145f14610b8a57505060fc546001600160a01b031690813b156108b35786604492819587519889968795637a7f6a2560e11b87528601528401525af19081156102555750610b76575b5050610af0565b610b7f90611c25565b61025257805f610b6f565b14610b9b575b505050505050610af0565b60fc546001600160a01b031690813b156108b3578660449281958751988996879563f346cc7360e01b87528601528401525af19081156102555750610be4575b80808080610b90565b610bed90611c25565b61025257805f610bdb565b634e487b7160e01b8652602187528486fd5b50505f60028214610aa2565b509034610252576020366003190112610252578160ff91843581526101056020522054169051906005811015610c4e57602092508152f35b602183634e487b7160e01b5f525260245ffd5b503461030657816003193601126103065760a0906101005490610101549061010254610103549161010454938151958652602086015284015260608301526080820152f35b508290346104ec5760203660031901126104ec576080610cc4611b64565b60fd546001600160a01b03916024918316610ce0811515611e73565b85519687948593630ec3b3cd60e31b855216908301525afa9081156102555783928485918694610d29575b50608095508251948552602085015215159083015215156060820152f35b9350505091506080813d608011610d7f575b81610d4860809383611c67565b810103126104ec5760809250805191602082015192610d746060610d6d848601611eb0565b9401611eb0565b909392909286610d0b565b3d9150610d3b565b8234610252578060031936011261025257610da0611fae565b603380546001600160a01b031981169091555f906001600160a01b03167f8be0079c531659141344cd1fd0a4f28419497f9722a3daafe3b4186f6b6457e08280a380f35b5034610306578160031936011261030657602090610104549051908152f35b5034610306578060031936011261030657602061ffff6044610e23611c14565b610e2b611b7a565b60fe546001600160a01b0390811691610e45831515611d1f565b8751998a96879563059a929f60e41b875216908501521660248301525afa918215610a475791610a12576020925051908152f35b50346103065760203660031901126103065760209181906001600160a01b03610ea0611b64565b168152610106845220549051908152f35b50919034610252578060031936011261025257507f00000000000000000000000000000000000000000000000000000000000000006001600160a01b03163003610f0b57602082515f805160206121b08339815191528152f35b6020608492519162461bcd60e51b8352820152603860248201527f555550535570677261646561626c653a206d757374206e6f742062652063616c60448201527f6c6564207468726f7567682064656c656761746563616c6c00000000000000006064820152fd5b508083916003193601126104ec57610f89611b64565b90602435906001600160401b03821161025e573660238301121561025e5781840135610fb481611c88565b610fc083519182611c67565b818152866020948583019336602482840101116104ec578060248893018637830101526001600160a01b037f000000000000000000000000000000000000000000000000000000000000000081169061101b30831415611db1565b6110375f805160206121b0833981519152928284541614611e12565b61103f611fae565b7f4910fdfa16fed3260ed0e7147f7cc6da11a60208b5b9406d12a635614ffd91435460ff161561107957505050505050610497915061204e565b869293949596169085516352d1902d60e01b815287818a81865afa5f918161123a575b506110fb57865162461bcd60e51b8152808a01899052602e60248201527f45524331393637557067726164653a206e657720696d706c656d656e7461746960448201526d6f6e206973206e6f74205555505360901b6064820152608490fd5b9791929396959497036111e557506111128261204e565b7fbc7cd75a20ee27fd9adebab32041f755214dbc6bffa90cc0225b39da2e5c2d3b5f80a28351158015906111dd575b61114e575b505050505080f35b5f806111c89684519661116088611c4c565b602788527f416464726573733a206c6f772d6c6576656c2064656c65676174652063616c6c87890152660819985a5b195960ca1b868901525190845af4913d156111d3573d6111ba6111b182611c88565b92519283611c67565b81525f81943d92013e6120dd565b508180808080611146565b50606092506120dd565b506001611141565b835162461bcd60e51b8152908101859052602960248201527f45524331393637557067726164653a20756e737570706f727465642070726f786044820152681a58589b195555525160ba1b6064820152608490fd5b9091508881813d8311611262575b6112528183611c67565b810103126107dc5751908b61109c565b503d611248565b503461030657816003193601126103065760fe5490516001600160a01b039091168152602090f35b508290346104ec576101209283600319360112610252576112b0611b64565b906112b9611b7a565b936101049283356001600160401b038111610914576112db9036908401611be7565b9290976112e6611f58565b60fc546001600160a01b039890891692899190611304851515611d60565b89519a8b96631bcacb1560e01b8852169086015216602484015260443560448401526064356064840152608435608484015260a43560a484015260c43560c484015260e43560e48401528583015281848161136860209b8c97610124840191611cde565b03925af19384156114095781946113da575b5080848492526101058652818120600360ff198254161790553381526101068652206113a68154611da3565b90556101006113b58154611da3565b9055815160038152835f805160206121d0833981519152863393a36107a78154611da3565b9093508481813d8311611402575b6113f28183611c67565b810103126107dc5751928261137a565b503d6113e8565b508251903d90823e3d90fd5b508290346104ec5760208060031936011261091457611432611b64565b916001600160a01b037f0000000000000000000000000000000000000000000000000000000000000000811661146a30821415611db1565b6114865f805160206121b0833981519152918383541614611e12565b61148e611fae565b825190848201928284106001600160401b038511176115f0578385528883527f4910fdfa16fed3260ed0e7147f7cc6da11a60208b5b9406d12a635614ffd91435460ff16156114e757505050505050610497915061204e565b869293949596169085516352d1902d60e01b815287818a81865afa5f91816115c1575b5061156957865162461bcd60e51b8152808a01899052602e60248201527f45524331393637557067726164653a206e657720696d706c656d656e7461746960448201526d6f6e206973206e6f74205555505360901b6064820152608490fd5b9791929396959497036111e557506115808261204e565b7fbc7cd75a20ee27fd9adebab32041f755214dbc6bffa90cc0225b39da2e5c2d3b5f80a28351158015906115ba5761114e57505050505080f35b505f611141565b9091508881813d83116115e9575b6115d98183611c67565b810103126107dc5751908b61150a565b503d6115cf565b604188634e487b7160e01b5f525260245ffd5b508290346104ec57610120928360031936011261025257611622611b64565b9261162b611b7a565b916064359560018060a01b03958688168098036107dc576101049485356001600160401b03811161025e576116639036908701611be7565b93909961166e611f58565b898060fc541693611680851515611d60565b8a519b8c96630db3556360e41b8852168987015216602485015260443560448501526064840152608435608484015260a43560a484015260c43560c484015260e43560e4840152868301528184816116e160209c8d97610124840191611cde565b03925af19485156107e7578195611751575b50808585925261010587528181208360ff1982541617905533815261010687522061171e8154611da3565b905561010061172d8154611da3565b90558251908152835f805160206121d0833981519152863393a36107a78154611da3565b9094508581813d8311611779575b6117698183611c67565b810103126107dc575193836116f3565b503d61175f565b50829060803660031901126107dc57611797611c14565b61179f611b7a565b926064356001600160401b0381116107dc576117be9036908301611be7565b60fe5491936001600160a01b03928316926117da841515611d1f565b833b156107dc575f9561ffff936118229289519a8b98899788976375163f4760e11b895216908701521660248501526044356044850152608060648501526084840191611cde565b039134905af19081156118425750611838575080f35b6100209150611c25565b513d5f823e3d90fd5b508260c03660031901126107dc57611861611b64565b9160a4356001600160401b0381116107dc576118809036908401611be7565b909361188a611f58565b60fb546001600160a01b0394908516906118a5821515611ca3565b84519586936303b29f0b60e11b85521690830152602435602483015260443560448301526064356064830152608435608483015260c060a483015281806118f4602098899660c4840191611cde565b039134905af191821561199b575f9261196c575b50815f526101058352805f20600160ff19825416179055335f526101068352805f206119348154611da3565b90556101006119438154611da3565b9055805160018152825f805160206121d0833981519152853393a36101026107a7348254611cfe565b9091508281813d8311611994575b6119848183611c67565b810103126107dc57519083611908565b503d61197a565b50513d5f823e3d90fd5b50346107dc575f3660031901126107dc57602090610100549051908152f35b905083346107dc576119d536611b90565b909593925f5460ff95868260081c161597888099611b58575b8015611b42575b15611aea57505060ff1981166001175f5586611ad9575b50611a25855f5460081c16611a2081611ef8565b611ef8565b611a2e33612006565b5f5496611a4c868960081c16611a4381611ef8565b611a2081611ef8565b600160c95560018060a01b038094818094816bffffffffffffffffffffffff60a01b99168960fb54161760fb55168760fc54161760fc55168560fd54161760fd55168360fe54161760fe551690825416179055611aa557005b61ff0019165f5551600181527f7f26b83ff96e1f2b6a682f133852f6798a09c465da95921460cefb384740249890602090a1005b61ffff1916610101175f5588611a0c565b62461bcd60e51b8252602090820152602e60248201527f496e697469616c697a61626c653a20636f6e747261637420697320616c72656160448201526d191e481a5b9a5d1a585b1a5e995960921b6064820152608490fd5b50303b1580156119f557506001888416146119f5565b506001888416106119ee565b600435906001600160a01b03821682036107dc57565b602435906001600160a01b03821682036107dc57565b60a09060031901126107dc576001600160a01b0360043581811681036107dc579160243582811681036107dc579160443581811681036107dc579160643582811681036107dc579160843590811681036107dc5790565b9181601f840112156107dc578235916001600160401b0383116107dc57602083818601950101116107dc57565b6004359061ffff821682036107dc57565b6001600160401b038111611c3857604052565b634e487b7160e01b5f52604160045260245ffd5b606081019081106001600160401b03821117611c3857604052565b90601f801991011681019081106001600160401b03821117611c3857604052565b6001600160401b038111611c3857601f01601f191660200190565b15611caa57565b60405162461bcd60e51b815260206004820152600c60248201526b10dbdc99481b9bdd081cd95d60a21b6044820152606490fd5b908060209392818452848401375f828201840152601f01601f1916010190565b91908201809211611d0b57565b634e487b7160e01b5f52601160045260245ffd5b15611d2657565b60405162461bcd60e51b815260206004820152601260248201527110dc9bdcdcd0da185a5b881b9bdd081cd95d60721b6044820152606490fd5b15611d6757565b60405162461bcd60e51b81526020600482015260146024820152731391950818dbdb9d1c9858dd081b9bdd081cd95d60621b6044820152606490fd5b5f198114611d0b5760010190565b15611db857565b60405162461bcd60e51b815260206004820152602c60248201527f46756e6374696f6e206d7573742062652063616c6c6564207468726f7567682060448201526b19195b1959d85d1958d85b1b60a21b6064820152608490fd5b15611e1957565b60405162461bcd60e51b815260206004820152602c60248201527f46756e6374696f6e206d7573742062652063616c6c6564207468726f7567682060448201526b6163746976652070726f787960a01b6064820152608490fd5b15611e7a57565b60405162461bcd60e51b815260206004820152600e60248201526d141bdb1a58de481b9bdd081cd95d60921b6044820152606490fd5b519081151582036107dc57565b15611ec457565b60405162461bcd60e51b815260206004820152600c60248201526b0556e6b6e6f776e20737761760a41b6044820152606490fd5b15611eff57565b60405162461bcd60e51b815260206004820152602b60248201527f496e697469616c697a61626c653a20636f6e7472616374206973206e6f74206960448201526a6e697469616c697a696e6760a81b6064820152608490fd5b600260c95414611f6957600260c955565b60405162461bcd60e51b815260206004820152601f60248201527f5265656e7472616e637947756172643a207265656e7472616e742063616c6c006044820152606490fd5b6033546001600160a01b03163303611fc257565b606460405162461bcd60e51b815260206004820152602060248201527f4f776e61626c653a2063616c6c6572206973206e6f7420746865206f776e65726044820152fd5b603380546001600160a01b039283166001600160a01b0319821681179092559091167f8be0079c531659141344cd1fd0a4f28419497f9722a3daafe3b4186f6b6457e05f80a3565b803b15612082575f805160206121b083398151915280546001600160a01b0319166001600160a01b03909216919091179055565b60405162461bcd60e51b815260206004820152602d60248201527f455243313936373a206e657720696d706c656d656e746174696f6e206973206e60448201526c1bdd08184818dbdb9d1c9858dd609a1b6064820152608490fd5b9192901561213f57508151156120f1575090565b3b156120fa5790565b60405162461bcd60e51b815260206004820152601d60248201527f416464726573733a2063616c6c20746f206e6f6e2d636f6e74726163740000006044820152606490fd5b8251909150156121525750805190602001fd5b6040519062461bcd60e51b82528160208060048301528251908160248401525f935b828510612196575050604492505f838284010152601f80199101168101030190fd5b848101820151868601604401529381019385935061217456fe360894a13ba1a3210667c828492db98dca3e2076cc3735a920a3ca505d382bbc9e3603c8fa679c0ab75fea9493b98145381721bc04d057a2255a38cb6088c9f0a264697066735822122080254cf316c585783f83022308d7ad8f2b49afeda736b4c4fe6fc3896371bcb664736f6c63430008180033","linkReferences":{}},"methodIdentifiers":{"approveSwap(bytes32)":"e35468cb","completeSwap(bytes32,bytes32)":"78dc3356","coreContract()":"e80db5db","crossChain()":"4917db66","disputeResolver()":"f5a3f4af","getChainRiskScore(uint16,address)":"59a929f0","getContractAddresses()":"953874d2","getProtocolStats()":"771aceef","getRiskThreshold()":"8ba90bf1","getUserPolicy(address)":"761d9e68","initialize(address,address,address,address,address)":"1459457a","nftContract()":"d56d229d","owner()":"8da5cb5b","policyEngine()":"927399a5","proxiableUUID()":"52d1902d","raiseDispute(bytes32,string)":"be7b8a77","refundSwap(bytes32)":"fe2510ee","renounceOwnership()":"715018a6","setContracts(address,address,address,address,address)":"f63bf8bd","swapERC20(address,address,uint256,bytes32,uint256,uint256,bytes32,bytes)":"c54aa9cb","swapETH(address,bytes32,uint256,uint256,bytes32,bytes)":"1e56b746","swapNFTforETH(address,address,uint256,uint256,bytes32,uint256,uint256,bytes32,bytes)":"367dc5e0","swapNFTforNFT(address,address,uint256,address,uint256,bytes32,uint256,uint256,bytes)":"3137d856","swapTypes(bytes32)":"77ab9e44","syncRiskToChain(uint16,address,uint256,bytes)":"1f01e265","totalNFTSwaps()":"6ee4ca9b","totalSwapsCompleted()":"cd82e7d3","totalSwapsInitiated()":"172678a9","totalVolumeERC20()":"f6c310a4","totalVolumeETH()":"f2c2ca6c","transferOwnership(address)":"f2fde38b","upgradeTo(address)":"3659cfe6","upgradeToAndCall(address,bytes)":"4f1ef286","userSwapCount(address)":"543aa9fe"},"id":16}