{"abi":[{"type":"constructor","inputs":[],"stateMutability":"nonpayable"},{"type":"function","name":"DEFAULT_HIGH_THRESHOLD","inputs":[],"outputs":[{"name":"","type":"uint256","internalType":"uint256"}],"stateMutability":"view"},{"type":"function","name":"DEFAULT_LOW_THRESHOLD","inputs":[],"outputs":[{"name":"","type":"uint256","internalType":"uint256"}],"stateMutability":"view"},{"type":"function","name":"DEFAULT_MEDIUM_THRESHOLD","inputs":[],"outputs":[{"name":"","type":"uint256","internalType":"uint256"}],"stateMutability":"view"},{"type":"function","name":"MAX_BATCH_SIZE","inputs":[],"outputs":[{"name":"","type":"uint256","internalType":"uint256"}],"stateMutability":"view"},{"type":"function","name":"RISK_SCALE","inputs":[],"outputs":[{"name":"","type":"uint256","internalType":"uint256"}],"stateMutability":"view"},{"type":"function","name":"SIGNATURE_VALIDITY","inputs":[],"outputs":[{"name":"","type":"uint256","internalType":"uint256"}],"stateMutability":"view"},{"type":"function","name":"addOracle","inputs":[{"name":"oracle","type":"address","internalType":"address"},{"name":"weight","type":"uint64","internalType":"uint64"}],"outputs":[],"stateMutability":"nonpayable"},{"type":"function","name":"amttpCoreL1","inputs":[],"outputs":[{"name":"","type":"address","internalType":"address"}],"stateMutability":"view"},{"type":"function","name":"anomalyThreshold","inputs":[],"outputs":[{"name":"","type":"uint256","internalType":"uint256"}],"stateMutability":"view"},{"type":"function","name":"assessRisk","inputs":[{"name":"sender","type":"address","internalType":"address"},{"name":"recipient","type":"address","internalType":"address"},{"name":"amount","type":"uint256","internalType":"uint256"},{"name":"riskScore","type":"uint128","internalType":"uint128"},{"name":"timestamp","type":"uint64","internalType":"uint64"},{"name":"signature","type":"bytes","internalType":"bytes"}],"outputs":[{"name":"action","type":"uint8","internalType":"enum AMTTPRiskRouter.RiskAction"},{"name":"txHash","type":"bytes32","internalType":"bytes32"}],"stateMutability":"nonpayable"},{"type":"function","name":"batchAssessRisk","inputs":[{"name":"requests","type":"tuple[]","internalType":"struct AMTTPRiskRouter.BatchRequest[]","components":[{"name":"sender","type":"address","internalType":"address"},{"name":"recipient","type":"address","internalType":"address"},{"name":"amount","type":"uint256","internalType":"uint256"},{"name":"riskScore","type":"uint128","internalType":"uint128"},{"name":"txHash","type":"bytes32","internalType":"bytes32"}]},{"name":"signatures","type":"bytes[]","internalType":"bytes[]"}],"outputs":[{"name":"actions","type":"uint8[]","internalType":"enum AMTTPRiskRouter.RiskAction[]"},{"name":"txHashes","type":"bytes32[]","internalType":"bytes32[]"}],"stateMutability":"nonpayable"},{"type":"function","name":"circuitBreakerActive","inputs":[],"outputs":[{"name":"","type":"bool","internalType":"bool"}],"stateMutability":"view"},{"type":"function","name":"consecutiveHighRisk","inputs":[],"outputs":[{"name":"","type":"uint256","internalType":"uint256"}],"stateMutability":"view"},{"type":"function","name":"getOracleConfig","inputs":[{"name":"oracle","type":"address","internalType":"address"}],"outputs":[{"name":"","type":"tuple","internalType":"struct AMTTPRiskRouter.OracleConfig","components":[{"name":"isActive","type":"bool","internalType":"bool"},{"name":"weight","type":"uint64","internalType":"uint64"},{"name":"lastUpdate","type":"uint64","internalType":"uint64"},{"name":"totalAssessments","type":"uint128","internalType":"uint128"}]}],"stateMutability":"view"},{"type":"function","name":"getOracles","inputs":[],"outputs":[{"name":"","type":"address[]","internalType":"address[]"}],"stateMutability":"view"},{"type":"function","name":"getRiskResult","inputs":[{"name":"txHash","type":"bytes32","internalType":"bytes32"}],"outputs":[{"name":"result","type":"tuple","internalType":"struct AMTTPRiskRouter.RiskResult","components":[{"name":"riskScore","type":"uint128","internalType":"uint128"},{"name":"timestamp","type":"uint64","internalType":"uint64"},{"name":"action","type":"uint8","internalType":"enum AMTTPRiskRouter.RiskAction"},{"name":"processed","type":"bool","internalType":"bool"}]}],"stateMutability":"view"},{"type":"function","name":"getStatistics","inputs":[],"outputs":[{"name":"_totalAssessments","type":"uint256","internalType":"uint256"},{"name":"_totalApproved","type":"uint256","internalType":"uint256"},{"name":"_totalReviewed","type":"uint256","internalType":"uint256"},{"name":"_totalEscrowed","type":"uint256","internalType":"uint256"},{"name":"_totalBlocked","type":"uint256","internalType":"uint256"},{"name":"_circuitBreakerActive","type":"bool","internalType":"bool"}],"stateMutability":"view"},{"type":"function","name":"getThresholds","inputs":[],"outputs":[{"name":"low","type":"uint256","internalType":"uint256"},{"name":"medium","type":"uint256","internalType":"uint256"},{"name":"high","type":"uint256","internalType":"uint256"}],"stateMutability":"view"},{"type":"function","name":"initialize","inputs":[{"name":"_oracle","type":"address","internalType":"address"},{"name":"_modelVersion","type":"string","internalType":"string"}],"outputs":[],"stateMutability":"nonpayable"},{"type":"function","name":"l1Bridge","inputs":[],"outputs":[{"name":"","type":"address","internalType":"address"}],"stateMutability":"view"},{"type":"function","name":"markProcessed","inputs":[{"name":"txHash","type":"bytes32","internalType":"bytes32"}],"outputs":[],"stateMutability":"nonpayable"},{"type":"function","name":"modelVersion","inputs":[],"outputs":[{"name":"","type":"string","internalType":"string"}],"stateMutability":"view"},{"type":"function","name":"oracleList","inputs":[{"name":"","type":"uint256","internalType":"uint256"}],"outputs":[{"name":"","type":"address","internalType":"address"}],"stateMutability":"view"},{"type":"function","name":"oracleQuorum","inputs":[],"outputs":[{"name":"","type":"uint256","internalType":"uint256"}],"stateMutability":"view"},{"type":"function","name":"oracles","inputs":[{"name":"","type":"address","internalType":"address"}],"outputs":[{"name":"isActive","type":"bool","internalType":"bool"},{"name":"weight","type":"uint64","internalType":"uint64"},{"name":"lastUpdate","type":"uint64","internalType":"uint64"},{"name":"totalAssessments","type":"uint128","internalType":"uint128"}],"stateMutability":"view"},{"type":"function","name":"owner","inputs":[],"outputs":[{"name":"","type":"address","internalType":"address"}],"stateMutability":"view"},{"type":"function","name":"pause","inputs":[],"outputs":[],"stateMutability":"nonpayable"},{"type":"function","name":"paused","inputs":[],"outputs":[{"name":"","type":"bool","internalType":"bool"}],"stateMutability":"view"},{"type":"function","name":"proxiableUUID","inputs":[],"outputs":[{"name":"","type":"bytes32","internalType":"bytes32"}],"stateMutability":"view"},{"type":"function","name":"quickCheck","inputs":[{"name":"riskScore","type":"uint128","internalType":"uint128"}],"outputs":[{"name":"action","type":"uint8","internalType":"enum AMTTPRiskRouter.RiskAction"}],"stateMutability":"view"},{"type":"function","name":"relayToL1","inputs":[{"name":"txHash","type":"bytes32","internalType":"bytes32"}],"outputs":[],"stateMutability":"nonpayable"},{"type":"function","name":"removeOracle","inputs":[{"name":"oracle","type":"address","internalType":"address"}],"outputs":[],"stateMutability":"nonpayable"},{"type":"function","name":"renounceOwnership","inputs":[],"outputs":[],"stateMutability":"nonpayable"},{"type":"function","name":"resetCircuitBreaker","inputs":[],"outputs":[],"stateMutability":"nonpayable"},{"type":"function","name":"riskResults","inputs":[{"name":"","type":"bytes32","internalType":"bytes32"}],"outputs":[{"name":"riskScore","type":"uint128","internalType":"uint128"},{"name":"timestamp","type":"uint64","internalType":"uint64"},{"name":"action","type":"uint8","internalType":"enum AMTTPRiskRouter.RiskAction"},{"name":"processed","type":"bool","internalType":"bool"}],"stateMutability":"view"},{"type":"function","name":"setAMTTPCoreL1","inputs":[{"name":"_amttpCore","type":"address","internalType":"address"}],"outputs":[],"stateMutability":"nonpayable"},{"type":"function","name":"setAnomalyThreshold","inputs":[{"name":"_threshold","type":"uint256","internalType":"uint256"}],"outputs":[],"stateMutability":"nonpayable"},{"type":"function","name":"setL1Bridge","inputs":[{"name":"_bridge","type":"address","internalType":"address"}],"outputs":[],"stateMutability":"nonpayable"},{"type":"function","name":"setModelVersion","inputs":[{"name":"_version","type":"string","internalType":"string"}],"outputs":[],"stateMutability":"nonpayable"},{"type":"function","name":"setOracleQuorum","inputs":[{"name":"_quorum","type":"uint256","internalType":"uint256"}],"outputs":[],"stateMutability":"nonpayable"},{"type":"function","name":"setThresholds","inputs":[{"name":"lowThreshold","type":"uint64","internalType":"uint64"},{"name":"mediumThreshold","type":"uint64","internalType":"uint64"},{"name":"highThreshold","type":"uint64","internalType":"uint64"}],"outputs":[],"stateMutability":"nonpayable"},{"type":"function","name":"thresholds","inputs":[],"outputs":[{"name":"lowThreshold","type":"uint64","internalType":"uint64"},{"name":"mediumThreshold","type":"uint64","internalType":"uint64"},{"name":"highThreshold","type":"uint64","internalType":"uint64"},{"name":"reserved","type":"uint64","internalType":"uint64"}],"stateMutability":"view"},{"type":"function","name":"totalApproved","inputs":[],"outputs":[{"name":"","type":"uint256","internalType":"uint256"}],"stateMutability":"view"},{"type":"function","name":"totalAssessments","inputs":[],"outputs":[{"name":"","type":"uint256","internalType":"uint256"}],"stateMutability":"view"},{"type":"function","name":"totalBlocked","inputs":[],"outputs":[{"name":"","type":"uint256","internalType":"uint256"}],"stateMutability":"view"},{"type":"function","name":"totalEscrowed","inputs":[],"outputs":[{"name":"","type":"uint256","internalType":"uint256"}],"stateMutability":"view"},{"type":"function","name":"totalReviewed","inputs":[],"outputs":[{"name":"","type":"uint256","internalType":"uint256"}],"stateMutability":"view"},{"type":"function","name":"transferOwnership","inputs":[{"name":"newOwner","type":"address","internalType":"address"}],"outputs":[],"stateMutability":"nonpayable"},{"type":"function","name":"unpause","inputs":[],"outputs":[],"stateMutability":"nonpayable"},{"type":"function","name":"upgradeTo","inputs":[{"name":"newImplementation","type":"address","internalType":"address"}],"outputs":[],"stateMutability":"nonpayable"},{"type":"function","name":"upgradeToAndCall","inputs":[{"name":"newImplementation","type":"address","internalType":"address"},{"name":"data","type":"bytes","internalType":"bytes"}],"outputs":[],"stateMutability":"payable"},{"type":"event","name":"AdminChanged","inputs":[{"name":"previousAdmin","type":"address","indexed":false,"internalType":"address"},{"name":"newAdmin","type":"address","indexed":false,"internalType":"address"}],"anonymous":false},{"type":"event","name":"BatchProcessed","inputs":[{"name":"batchId","type":"uint256","indexed":false,"internalType":"uint256"},{"name":"count","type":"uint256","indexed":false,"internalType":"uint256"},{"name":"approved","type":"uint256","indexed":false,"internalType":"uint256"},{"name":"reviewed","type":"uint256","indexed":false,"internalType":"uint256"},{"name":"escrowed","type":"uint256","indexed":false,"internalType":"uint256"},{"name":"blocked","type":"uint256","indexed":false,"internalType":"uint256"}],"anonymous":false},{"type":"event","name":"BeaconUpgraded","inputs":[{"name":"beacon","type":"address","indexed":true,"internalType":"address"}],"anonymous":false},{"type":"event","name":"CircuitBreakerReset","inputs":[],"anonymous":false},{"type":"event","name":"CircuitBreakerTriggered","inputs":[{"name":"consecutiveHighRisk","type":"uint256","indexed":false,"internalType":"uint256"}],"anonymous":false},{"type":"event","name":"Initialized","inputs":[{"name":"version","type":"uint8","indexed":false,"internalType":"uint8"}],"anonymous":false},{"type":"event","name":"L1BridgeUpdated","inputs":[{"name":"newBridge","type":"address","indexed":true,"internalType":"address"}],"anonymous":false},{"type":"event","name":"ModelVersionUpdated","inputs":[{"name":"oldVersion","type":"string","indexed":false,"internalType":"string"},{"name":"newVersion","type":"string","indexed":false,"internalType":"string"}],"anonymous":false},{"type":"event","name":"OracleAdded","inputs":[{"name":"oracle","type":"address","indexed":true,"internalType":"address"},{"name":"weight","type":"uint256","indexed":false,"internalType":"uint256"}],"anonymous":false},{"type":"event","name":"OracleQuorumUpdated","inputs":[{"name":"newQuorum","type":"uint256","indexed":false,"internalType":"uint256"}],"anonymous":false},{"type":"event","name":"OracleRemoved","inputs":[{"name":"oracle","type":"address","indexed":true,"internalType":"address"}],"anonymous":false},{"type":"event","name":"OwnershipTransferred","inputs":[{"name":"previousOwner","type":"address","indexed":true,"internalType":"address"},{"name":"newOwner","type":"address","indexed":true,"internalType":"address"}],"anonymous":false},{"type":"event","name":"Paused","inputs":[{"name":"account","type":"address","indexed":false,"internalType":"address"}],"anonymous":false},{"type":"event","name":"RiskAssessed","inputs":[{"name":"txHash","type":"bytes32","indexed":true,"internalType":"bytes32"},{"name":"sender","type":"address","indexed":true,"internalType":"address"},{"name":"recipient","type":"address","indexed":true,"internalType":"address"},{"name":"amount","type":"uint256","indexed":false,"internalType":"uint256"},{"name":"riskScore","type":"uint256","indexed":false,"internalType":"uint256"},{"name":"action","type":"uint8","indexed":false,"internalType":"enum AMTTPRiskRouter.RiskAction"}],"anonymous":false},{"type":"event","name":"RiskResultRelayedToL1","inputs":[{"name":"txHash","type":"bytes32","indexed":true,"internalType":"bytes32"},{"name":"action","type":"uint8","indexed":false,"internalType":"enum AMTTPRiskRouter.RiskAction"}],"anonymous":false},{"type":"event","name":"ThresholdsUpdated","inputs":[{"name":"lowThreshold","type":"uint256","indexed":false,"internalType":"uint256"},{"name":"mediumThreshold","type":"uint256","indexed":false,"internalType":"uint256"},{"name":"highThreshold","type":"uint256","indexed":false,"internalType":"uint256"}],"anonymous":false},{"type":"event","name":"Unpaused","inputs":[{"name":"account","type":"address","indexed":false,"internalType":"address"}],"anonymous":false},{"type":"event","name":"Upgraded","inputs":[{"name":"implementation","type":"address","indexed":true,"internalType":"address"}],"anonymous":false},{"type":"error","name":"AlreadyProcessed","inputs":[]},{"type":"error","name":"BatchTooLarge","inputs":[]},{"type":"error","name":"CircuitBreakerActive","inputs":[]},{"type":"error","name":"ExpiredSignature","inputs":[]},{"type":"error","name":"InsufficientOracleQuorum","inputs":[]},{"type":"error","name":"InvalidRiskScore","inputs":[]},{"type":"error","name":"InvalidSignature","inputs":[]},{"type":"error","name":"InvalidThresholds","inputs":[]},{"type":"error","name":"NotOracle","inputs":[]},{"type":"error","name":"ZeroAddress","inputs":[]}],"bytecode":{"object":"0x60a080604052346100db57306080525f549060ff8260081c16610089575060ff8082160361004f575b6040516131339081620000e08239608051818181611ba401528181611ca201526121d50152f35b60ff90811916175f557f7f26b83ff96e1f2b6a682f133852f6798a09c465da95921460cefb3847402498602060405160ff8152a15f610028565b62461bcd60e51b815260206004820152602760248201527f496e697469616c697a61626c653a20636f6e747261637420697320696e697469604482015266616c697a696e6760c81b6064820152608490fd5b5f80fdfe60806040526004361015610011575f80fd5b5f3560e01c80630f71bb4f14612750578063146f681a146127345780631912010c1461271657806319b2adf8146124575780631a050376146126af578063235f1f93146124d8578063239aad0d1461247e578063297988461461245c5780632a73dead146124575780632b08c955146124395780633659cfe6146121b0578063372d6b271461215e5780633f4ba83a146120cb57806340884c52146120065780634b8ce32d14611fdd5780634cf5b92214611f0d5780634f1ef28614611c5457806352d1902d14611b925780635b23bc14146117195780635c975abb146116f75780635d1e7a59146116aa57806364d1de76146115a65780636f83a58614611588578063715018a61461152d57806376dd46da146114c857806378ea2dd9146114aa5780637f338fa714610d295780638456cb5914610cd05780638da5cb5b14610ca8578063969b53da14610c7f5780639be93f0514610c635780639c3977b514610c265780639cc91a9314610be8578063a396b8fa14610b44578063a4ddd26914610ae7578063addd509914610a76578063c3547109146109ce578063c543aa78146109b2578063cba09cc814610994578063cda43b3a1461094e578063cfdbf25414610933578063dc74194e14610915578063de5f8d93146108c7578063edb3ba0b14610894578063f11929d014610876578063f2fde38b146107e7578063f399e22e146103ff578063f609844d146103dc578063f6aa8984146102d2578063f9168231146102b45763fdc85fc41461024a575f80fd5b346102b05760203660031901126102b057610263612793565b61026b612be7565b6001600160a01b03165f81815261012f60205260408120805460ff191690557f9c8e7d83025bef8a04c664b2f753f64b8814bdb7e27291d7e50935f18cc3c7129080a2005b5f80fd5b346102b0575f3660031901126102b057602061013b54604051908152f35b346102b05760603660031901126102b0576004356001600160401b03908181168091036102b0576103016127f2565b9060443592808416908185036102b057610319612be7565b83168083108015906103d2575b80156103c7575b6103b5577f5c18dc8d95da80ea715f2473abe6f01199d4bfa87d2ed1ef051058a60dcce25894836fffffffffffffffff00000000000000006060965f8860405161037681612808565b858152876020820152886040820152015260401b1617906001600160401b0360801b9060801b161761012d5560405192835260208301526040820152a1005b604051632e83089360e11b8152600490fd5b506103e8821161032d565b5081811015610326565b346102b0575f3660031901126102b057602060ff61013554166040519015158152f35b346102b05760403660031901126102b057610418612793565b6001600160401b03906024358281116102b0576104399036906004016127c5565b92905f549360ff8560081c1615928380946107da575b80156107c3575b156107675760ff1980871660019081175f559685610756575b5061048960ff5f5460081c1661048481612d72565b612d72565b61049233612d2a565b6104c560ff5f5460081c166104a681612d72565b6104af81612d72565b6104b881612d72565b8860c95561048481612d72565b60fb541660fb5560018060a01b038516948515610744576105d590604051966104ed88612808565b61012c88525f60606020996102588b820152610352604082015201527103520000000000000258000000000000012c61012d556001600160801b038960405161053581612808565b8181526105bd878c8084016064815261012f6040860192844216845260608701995f8b525f525261057960405f2095511515869060ff801983541691151516179055565b518454915170ffffffffffffffffffffffffffffffff001990921660089190911b68ffffffffffffffff001617911660481b67ffffffffffffffff60481b16178255565b019151166001600160801b0319825416179055612ac7565b856101315581116107305780610134926105ef84546128d8565b601f81116106d5575b505f90601f831160011461066b575f92610660575b50505f19600383901b1c191690851b1790555b600a6101365561062c57005b7f7f26b83ff96e1f2b6a682f133852f6798a09c465da95921460cefb38474024989161ff00195f54165f55604051908152a1005b01359050868061060d565b879350601f19831691855f525f805160206130be833981519152925f5b898282106106bf57505084116106a6575b505050811b019055610620565b01355f19600384901b60f8161c19169055868080610699565b8385013586558b97909501949283019201610688565b909150835f525f805160206130be833981519152601f840160051c810191878510610726575b84939291601f8a920160051c01915b8281106107185750506105f8565b5f815585945089910161070a565b90915081906106fb565b634e487b7160e01b5f52604160045260245ffd5b60405163d92e233d60e01b8152600490fd5b61ffff1916610101175f558761046f565b60405162461bcd60e51b815260206004820152602e60248201527f496e697469616c697a61626c653a20636f6e747261637420697320616c72656160448201526d191e481a5b9a5d1a585b1a5e995960921b6064820152608490fd5b50303b1580156104565750600160ff871614610456565b50600160ff87161061044f565b346102b05760203660031901126102b057610800612793565b610808612be7565b6001600160a01b038116156108225761082090612d2a565b005b60405162461bcd60e51b815260206004820152602660248201527f4f776e61626c653a206e6577206f776e657220697320746865207a65726f206160448201526564647265737360d01b6064820152608490fd5b346102b0575f3660031901126102b057602061013c54604051908152f35b346102b0575f3660031901126102b0576108c36108af612910565b6040519182916020835260208301906129c7565b0390f35b346102b0575f3660031901126102b0576108df612be7565b61013560ff1981541690555f610137557f749ce304ab81145be90b787a7777d030c801b4cfd19e6b30df21973a54ec004c5f80a1005b346102b0575f3660031901126102b057602061013a54604051908152f35b346102b0575f3660031901126102b057602060405160328152f35b346102b0575f3660031901126102b057608061012d546001600160401b0390604051918082168352808260401c16602084015281841c16604083015260c01c6060820152f35b346102b0575f3660031901126102b057602061013954604051908152f35b346102b0575f3660031901126102b05760206040516103e88152f35b346102b05760203660031901126102b0576109e7612793565b6109ef612bc3565b5060018060a01b03165f5261012f602052608060405f206001604051610a1481612808565b82549260ff84161515938483526001600160401b03809260606020860191838560081c16835283604088019560481c1685526001600160801b039788910154169501948552604051968752511660208601525116604084015251166060820152f35b346102b05760203660031901126102b0576001600160a01b03610a97612793565b165f5261012f602052608060405f208054906001600160801b0360016001600160401b0392015416906040519260ff811615158452818160081c16602085015260481c1660408301526060820152f35b346102b05760203660031901126102b057335f5261012f60205260ff60405f20541615610b32576004355f90815261012e60205260409020805460ff60c81b1916600160c81b179055005b604051631bc2178f60e01b8152600490fd5b346102b05760203660031901126102b057610b5d612bc3565b506004355f5261012e602052608060405f2060405190610b7c82612808565b54610bde6001600160801b0380831684526001600160401b03602085018185881c1681526040860192610bb560ff8760c01c1685612b2f565b60ff606088019660c81c16151586526040519651168652511660208501525160408401906128cb565b5115156060820152f35b346102b05760203660031901126102b0576004356001600160801b03811681036102b057610c17602091612cd9565b610c2460405180926128cb565bf35b346102b0575f3660031901126102b057606061012d546001600160401b03604051918181168352818160401c16602084015260801c166040820152f35b346102b0575f3660031901126102b05760206040516103528152f35b346102b0575f3660031901126102b057610132546040516001600160a01b039091168152602090f35b346102b0575f3660031901126102b0576033546040516001600160a01b039091168152602090f35b346102b0575f3660031901126102b057610ce8612be7565b610cf0612c95565b600160ff1960fb54161760fb557f62e78cea01bee320cd4e420270b5ea74000d11b0c9f74754ebdbfc544b05a2586020604051338152a1005b346102b05760403660031901126102b0576001600160401b03600435116102b0573660236004350112156102b0576001600160401b0360043560040135116102b05736602460a060043560040135026004350101116102b0576001600160401b03602435116102b0573660236024350112156102b0576001600160401b0360243560040135116102b05736602480356004013560051b81350101116102b057610dd0612c3f565b610dd8612c95565b60ff610135541661149557603260043560040135116114835760243560040135600435600401350361145d57610e1360043560040135612b62565b610e206040519182612859565b600480350135808252610e3290612b62565b601f1901366020830137610e4b60043560040135612b62565b90610e596040519283612859565b600480350135808352610e6b90612b62565b601f19013660208401375f805f805f5b60043560040135811061101d5750610138805460048035013590810190915561013980548501905561013a80548601905561013b80548301905561013c80548401905560051080610fe2575b907f5dd47cb83ee01578375abce18ce70bf39b73b5069a8f0023ace58b54238be0379460c0949392610fa4575b6040519342855260043560040135602086015260408501526060840152608083015260a0820152a160018060c95560405191604083016040845281518091526020606085019201905f5b818110610f81575050508281036020840152602080855192838152019401905f5b818110610f6c5784860385f35b82518652602095860195909201918301610f5f565b9091929360208086610f96849a9888516128cb565b969896019401929101610f3e565b600160ff19610135541617610135557fb93e15598c0191b5e8ad4033b4bfb998a7c8ba85d6b77f9dce086455bd2e8e226020604051858152a1610ef4565b5091908060011b928184046002148215171561100957919290919060048035013510610ec7565b634e487b7160e01b5f52601160045260245ffd5b611030602460a083026004350101612b79565b611043604460a084026004350101612b79565b604051916001600160601b03199060601b1660208301526001600160601b03199060601b166034820152606460a08302600435010135604882015246606882015242608882015260a8828183015281528060e08101106001600160401b0360e0830111176107305760e08101604052805160208201209060e06110cf602460a086026004350101612b79565b916110e3604460a087026004350101612b79565b6110f6608460a088026004350101612b8d565b906101008301946001600160601b03199060601b1685526001600160601b03199060601b16610114830152606460a087026004350101356101288301526001600160801b03199060801b1661014882015260a460a0860260043501013561015882015260788282015261116a82820161283e565b015190207f19457468657265756d205369676e6564204d6573736167653a0a3332000000005f52601c52603c5f206024356004013583101561146f5760248360051b81350101356042196024353603018112156102b05760243501906024820135916001600160401b0383116102b0576044019082360382136102b0576111f96111ff92611207943691612895565b90612e61565b919091612e96565b6001600160a01b03165f90815261012f602052604090205460ff161561145d5761124261123d608460a085026004350101612b8d565b612cd9565b94611256608460a085026004350101612b8d565b6040519061126382612808565b6001600160801b038091168252602082016001600160401b03421681526112f06001600160401b03604085019261129a8c85612b2f565b5f6060870181905288815261012e6020526040902086518154925167ffffffffffffffff60801b1991909716166001600160c01b0319909216919091179190941660801b67ffffffffffffffff60801b16178355565b51600481101561144957815460609093015161ffff60c01b1990931660c09190911b60ff60c01b161791151560c81b60ff60c81b1691909117905561133e86611339858b612ba1565b612b2f565b81611349848b612ba1565b52600486101561144957856113f8579061136560019392612bb5565b955b61137a602460a085026004350101612b79565b917f721fb9bc38db2f4c1f4619181ff126d7d55ca12c89b32647c52f4fd00335d9136113af604460a087026004350101612b79565b926113c3608460a088026004350101612b8d565b936113ef6040519283928a8060a01b0316978a8060a01b031696606460a08b0260043501013584612b3b565b0390a401610e7b565b949560018703611415579061140f60019392612bb5565b96611367565b95929392919060028303611436576114306001939495612bb5565b93611367565b6114436001939594612bb5565b94611367565b634e487b7160e01b5f52602160045260245ffd5b604051638baa579f60e01b8152600490fd5b634e487b7160e01b5f52603260045260245ffd5b6040516305beb17160e11b8152600490fd5b604051600162fc891960e01b03198152600490fd5b346102b0575f3660031901126102b057602061013154604051908152f35b346102b05760203660031901126102b0576004355f5261012e602052608060405f205460ff604051916001600160801b03811683526001600160401b0381851c16602084015261152060408401838360c01c166128cb565b60c81c1615156060820152f35b346102b0575f3660031901126102b057611545612be7565b603380546001600160a01b031981169091555f906001600160a01b03167f8be0079c531659141344cd1fd0a4f28419497f9722a3daafe3b4186f6b6457e08280a3005b346102b0575f3660031901126102b057602061013654604051908152f35b346102b0576020806003193601126102b05760043590335f5261012f815260ff60405f20541615610b3257815f5261012e815260405f20604051906115ea82612808565b54906001600160801b03821681526001600160401b039083810190828460801c168252606060ff6040830195611625828260c01c1688612b2f565b60c81c1615159101525116156116725751906004821015611449577f621e32559fa2f1b70cd6c7cb78f5c4d34f440f2e3766b2c6ec5aafc18bfc8ab39161166f60405180926128cb565ba2005b60405162461bcd60e51b815260048101839052601060248201526f14995cdd5b1d081b9bdd08199bdd5b9960821b6044820152606490fd5b346102b05760203660031901126102b0577fa6b1f31fb071dfd1ccb5f89296e18dab87a8c2d7d3dcb8d78e857f5062b3ec8860206004356116e9612be7565b8061013155604051908152a1005b346102b0575f3660031901126102b057602060ff60fb54166040519015158152f35b346102b05760c03660031901126102b057611732612793565b602435906001600160a01b03821682036102b0576001600160801b0360643516606435036102b0576001600160401b03608435169182608435036102b05760a4356001600160401b0381116102b05761178f9036906004016127c5565b91909361179a612c3f565b6117a2612c95565b60ff6101355416611495576103e86001600160801b036064351611611b805761012c8101809111611009574211611b6e57604051936001600160601b031992838560601b166020870152838360601b1660348701526044356048870152466068870152426088870152608886528560c08101106001600160401b0360c088011117610730576111f96118e3928760c06118eb99016040528051602082012096808960601b1660e08301528660601b1660f48201526044356101088201526001600160801b031960643560801b166101288201526001600160401b0360c01b60843560c01b1661013882015246610140820152608060c08201526118a760c0820161283e565b60e060c08201519101207f19457468657265756d205369676e6564204d6573736167653a0a3332000000005f52601c52603c5f20923691612895565b949094612e96565b6001600160a01b0384165f90815261012f602052604090205460ff161561145d57611917606435612cd9565b9260405161192481612808565b6001600160801b03606435168152602081016001600160401b0342168152604082016119508782612b2f565b5f6060840181905286815261012e602052604090208351815493516001600160c01b03199094166001600160801b03919091161760809390931b67ffffffffffffffff60801b1692909217825551600481101561144957815460609093015161ffff60c01b1990931660c09190911b60ff60c01b161791151560c81b60ff60c81b169190911790556001918261013854016101385560048510156114495760409585611b1e576101398481540190555f610137555b6101375461013654811015611ae0575b506001600160a01b03165f90815261012f602052869020805470ffffffffffffffff00000000000000000019164260481b67ffffffffffffffff60481b16178155830180546001600160801b038082168601166fffffffffffffffffffffffffffffffff1990911617905585516001600160a01b03918216929091169084907f721fb9bc38db2f4c1f4619181ff126d7d55ca12c89b32647c52f4fd00335d9139080611ac78960643560443584612b3b565b0390a460c955611ad9835180936128cb565b6020820152f35b60207fb93e15598c0191b5e8ad4033b4bfb998a7c8ba85d6b77f9dce086455bd2e8e22918660ff19610135541617610135558951908152a187611a15565b858403611b385761013a8481540190555f61013755611a05565b60028603611b575761013b848154019055610137848154019055611a05565b61013c848154019055610137848154019055611a05565b60405163df4cc36d60e01b8152600490fd5b6040516330cdce3160e21b8152600490fd5b346102b0575f3660031901126102b0577f00000000000000000000000000000000000000000000000000000000000000006001600160a01b03163003611be95760206040515f805160206130de8339815191528152f35b60405162461bcd60e51b815260206004820152603860248201527f555550535570677261646561626c653a206d757374206e6f742062652063616c60448201527f6c6564207468726f7567682064656c656761746563616c6c00000000000000006064820152608490fd5b60403660031901126102b057611c68612793565b6024356001600160401b0381116102b057366023820112156102b057611c98903690602481600401359101612895565b6001600160a01b037f000000000000000000000000000000000000000000000000000000000000000081169190611cd130841415612a05565b611ced5f805160206130de833981519152938285541614612a66565b611cf5612be7565b7f4910fdfa16fed3260ed0e7147f7cc6da11a60208b5b9406d12a635614ffd91435460ff1615611d2b5750505061082090612dd2565b8316604051926352d1902d60e01b84526020938481600481865afa5f9181611ede575b50611daf5760405162461bcd60e51b815260048101869052602e60248201527f45524331393637557067726164653a206e657720696d706c656d656e7461746960448201526d6f6e206973206e6f74205555505360901b6064820152608490fd5b93929303611e8757611dc084612dd2565b7fbc7cd75a20ee27fd9adebab32041f755214dbc6bffa90cc0225b39da2e5c2d3b5f80a2815115801590611e7f575b611df557005b610820925f8060405194611e0886612823565b602786527f416464726573733a206c6f772d6c6576656c2064656c65676174652063616c6c85870152660819985a5b195960ca1b60408701528481519101845af4903d15611e76573d611e5a8161287a565b90611e686040519283612859565b81525f81943d92013e613020565b60609250613020565b506001611def565b60405162461bcd60e51b815260048101839052602960248201527f45524331393637557067726164653a20756e737570706f727465642070726f786044820152681a58589b195555525160ba1b6064820152608490fd5b9091508581813d8311611f06575b611ef68183612859565b810103126102b057519087611d4e565b503d611eec565b346102b05760403660031901126102b057611f26612793565b611f2e6127f2565b611f36612be7565b6001600160a01b038216918215610744577f27e42c8c186bae4ba00900be68f86e7115c0845941300729a6bf8e65f4eddbaf91611fd46020926001600160401b03926001600160801b036001604051611f8e81612808565b8181526105bd8789830195169788865260408301814216815260608401965f88528d5f5261012f8c5261057960405f2095511515869060ff801983541691151516179055565b604051908152a2005b346102b0575f3660031901126102b057610133546040516001600160a01b039091168152602090f35b346102b0575f3660031901126102b05760405180610130805480845260208094019081925f527f2f605e086faac1d93117bbfbc18835d434e9405fadc1ca66faf4b864746daf34905f5b868282106120ae57868661206682880383612859565b60405192839281840190828552518091526040840192915f5b82811061208e57505050500390f35b83516001600160a01b03168552869550938101939281019260010161207f565b83546001600160a01b031685529093019260019283019201612050565b346102b0575f3660031901126102b0576120e3612be7565b60fb5460ff8116156121225760ff191660fb557f5db9ee0a495bf2e6ff9c91a7834c1ba4fdd244a5e8aa4e537bd38aeae4b073aa6020604051338152a1005b60405162461bcd60e51b815260206004820152601460248201527314185d5cd8589b194e881b9bdd081c185d5cd95960621b6044820152606490fd5b346102b0575f3660031901126102b05760c0610138546101395461013a5461013b5461013c549160ff6101355416936040519586526020860152604085015260608401526080830152151560a0820152f35b346102b0576020806003193601126102b0576121ca612793565b6001600160a01b03917f0000000000000000000000000000000000000000000000000000000000000000831661220230821415612a05565b61221e5f805160206130de833981519152918583541614612a66565b612226612be7565b60405190828201948286106001600160401b0387111761073057856040525f835260ff7f4910fdfa16fed3260ed0e7147f7cc6da11a60208b5b9406d12a635614ffd914354165f1461228057505050506108209150612dd2565b8492939416906040516352d1902d60e01b81528581600481865afa5f918161240a575b506123045760405162461bcd60e51b815260048101879052602e60248201527f45524331393637557067726164653a206e657720696d706c656d656e7461746960448201526d6f6e206973206e6f74205555505360901b6064820152608490fd5b949394036123b35761231582612dd2565b7fbc7cd75a20ee27fd9adebab32041f755214dbc6bffa90cc0225b39da2e5c2d3b5f80a28251158015906123ac575b61234a57005b5f80610820956040519561235d87612823565b602787527f416464726573733a206c6f772d6c6576656c2064656c65676174652063616c6c86880152660819985a5b195960ca1b60408801525190845af4903d15611e76573d611e5a8161287a565b505f612344565b60405162461bcd60e51b815260048101849052602960248201527f45524331393637557067726164653a20756e737570706f727465642070726f786044820152681a58589b195555525160ba1b6064820152608490fd5b9091508681813d8311612432575b6124228183612859565b810103126102b0575190886122a3565b503d612418565b346102b0575f3660031901126102b057602061013854604051908152f35b6127a9565b346102b05760203660031901126102b057612475612be7565b60043561013655005b346102b05760203660031901126102b0576004356101309081548110156102b0576020915f5260018060a01b03907f2f605e086faac1d93117bbfbc18835d434e9405fadc1ca66faf4b864746daf34015416604051908152f35b346102b0576020806003193601126102b0576001600160401b036004358181116102b05761250a9036906004016127c5565b612512612be7565b61251a612910565b9281116107305761013461252e81546128d8565b601f8111612661575b505f601f83116001146125cd57917fa62714ed8807eb871626df800118284cf664caac9cc14f87501995a388e098b29593918161259e96945f916125c2575b508260011b905f198460031b1c19161790555b806040519586946040865260408601906129c7565b9284840386860152818452858401375f828201850152601f01601f191601030190a1005b905083013588612576565b601f19831690825f525f805160206130be833981519152915f5b81811061264a5750917fa62714ed8807eb871626df800118284cf664caac9cc14f87501995a388e098b2979593918561259e98969410612631575b5050600182811b019055612589565b8401355f19600385901b60f8161c191690558780612622565b91928860018192868a0135815501940192016125e7565b815f525f805160206130be833981519152601f840160051c8101918785106126a5575b601f0160051c01905b81811061269a5750612537565b5f815560010161268d565b9091508190612684565b346102b05760203660031901126102b0576126c8612793565b6126d0612be7565b61013280546001600160a01b0319166001600160a01b039290921691821790557fbc545c94cbea1649a29a98e0207c094e4342acd4c2a7b0865b106b6992111ec25f80a2005b346102b0575f3660031901126102b057602061013754604051908152f35b346102b0575f3660031901126102b05760206040516102588152f35b346102b05760203660031901126102b057612769612793565b612771612be7565b61013380546001600160a01b0319166001600160a01b03909216919091179055005b600435906001600160a01b03821682036102b057565b346102b0575f3660031901126102b057602060405161012c8152f35b9181601f840112156102b0578235916001600160401b0383116102b057602083818601950101116102b057565b602435906001600160401b03821682036102b057565b608081019081106001600160401b0382111761073057604052565b606081019081106001600160401b0382111761073057604052565b60a081019081106001600160401b0382111761073057604052565b90601f801991011681019081106001600160401b0382111761073057604052565b6001600160401b03811161073057601f01601f191660200190565b9291926128a18261287a565b916128af6040519384612859565b8294818452818301116102b0578281602093845f960137010152565b9060048210156114495752565b90600182811c92168015612906575b60208310146128f257565b634e487b7160e01b5f52602260045260245ffd5b91607f16916128e7565b604051905f8261013491825492612926846128d8565b808452936020916001918281169081156129a15750600114612954575b50505061295292500383612859565b565b5f9081525f805160206130be8339815191529590935091905b82841061298957506129529450505081016020015f8080612943565b8554888501830152948501948794509281019261296d565b925050506020925061295294915060ff191682840152151560051b8201015f8080612943565b91908251928382525f5b8481106129f1575050825f602080949584010152601f8019910116010190565b6020818301810151848301820152016129d1565b15612a0c57565b60405162461bcd60e51b815260206004820152602c60248201527f46756e6374696f6e206d7573742062652063616c6c6564207468726f7567682060448201526b19195b1959d85d1958d85b1b60a21b6064820152608490fd5b15612a6d57565b60405162461bcd60e51b815260206004820152602c60248201527f46756e6374696f6e206d7573742062652063616c6c6564207468726f7567682060448201526b6163746976652070726f787960a01b6064820152608490fd5b61013080549068010000000000000000821015610730576001820180825582101561146f575f527f2f605e086faac1d93117bbfbc18835d434e9405fadc1ca66faf4b864746daf340180546001600160a01b0319166001600160a01b03909216919091179055565b60048210156114495752565b6040906001600160801b0361295294969593966060830197835216602082015201906128cb565b6001600160401b0381116107305760051b60200190565b356001600160a01b03811681036102b05790565b356001600160801b03811681036102b05790565b805182101561146f5760209160051b010190565b5f1981146110095760010190565b60405190612bd082612808565b5f6060838281528260208201528260408201520152565b6033546001600160a01b03163303612bfb57565b606460405162461bcd60e51b815260206004820152602060248201527f4f776e61626c653a2063616c6c6572206973206e6f7420746865206f776e65726044820152fd5b600260c95414612c5057600260c955565b60405162461bcd60e51b815260206004820152601f60248201527f5265656e7472616e637947756172643a207265656e7472616e742063616c6c006044820152606490fd5b60ff60fb5416612ca157565b60405162461bcd60e51b815260206004820152601060248201526f14185d5cd8589b194e881c185d5cd95960821b6044820152606490fd5b61012d546001600160801b03909116906001600160401b03908181168311612d02575050505f90565b604081901c82168311612d1757505050600190565b60801c1610612d2557600290565b600390565b603380546001600160a01b039283166001600160a01b0319821681179092559091167f8be0079c531659141344cd1fd0a4f28419497f9722a3daafe3b4186f6b6457e05f80a3565b15612d7957565b60405162461bcd60e51b815260206004820152602b60248201527f496e697469616c697a61626c653a20636f6e7472616374206973206e6f74206960448201526a6e697469616c697a696e6760a81b6064820152608490fd5b803b15612e06575f805160206130de83398151915280546001600160a01b0319166001600160a01b03909216919091179055565b60405162461bcd60e51b815260206004820152602d60248201527f455243313936373a206e657720696d706c656d656e746174696f6e206973206e60448201526c1bdd08184818dbdb9d1c9858dd609a1b6064820152608490fd5b9060418151145f14612e8d57612e8991602082015190606060408401519301515f1a90612f9a565b9091565b50505f90600290565b60058110156114495780612ea75750565b60018103612ef45760405162461bcd60e51b815260206004820152601860248201527f45434453413a20696e76616c6964207369676e617475726500000000000000006044820152606490fd5b60028103612f415760405162461bcd60e51b815260206004820152601f60248201527f45434453413a20696e76616c6964207369676e6174757265206c656e677468006044820152606490fd5b600314612f4a57565b60405162461bcd60e51b815260206004820152602260248201527f45434453413a20696e76616c6964207369676e6174757265202773272076616c604482015261756560f01b6064820152608490fd5b7f7fffffffffffffffffffffffffffffff5d576e7357a4501ddfe92f46681b20a08411613015576020935f9360ff60809460405194855216868401526040830152606082015282805260015afa1561300a575f516001600160a01b0381161561300257905f90565b505f90600190565b6040513d5f823e3d90fd5b505050505f90600390565b919290156130825750815115613034575090565b3b1561303d5790565b60405162461bcd60e51b815260206004820152601d60248201527f416464726573733a2063616c6c20746f206e6f6e2d636f6e74726163740000006044820152606490fd5b8251909150156130955750805190602001fd5b60405162461bcd60e51b8152602060048201529081906130b99060248301906129c7565b0390fdfee1c588fe1269da19c317f679b04e226f5e48296f9b2c8351127eb010907c472f360894a13ba1a3210667c828492db98dca3e2076cc3735a920a3ca505d382bbca264697066735822122083fff52f3e131b0d5e366c2f8b72843b66897846e6184347d781ae2cb2a8a3c764736f6c63430008180033","linkReferences":{}},"methodIdentifiers":{"DEFAULT_HIGH_THRESHOLD()":"9be93f05","DEFAULT_LOW_THRESHOLD()":"19b2adf8","DEFAULT_MEDIUM_THRESHOLD()":"146f681a","MAX_BATCH_SIZE()":"cfdbf254","RISK_SCALE()":"c543aa78","SIGNATURE_VALIDITY()":"2a73dead","addOracle(address,uint64)":"4cf5b922","amttpCoreL1()":"4b8ce32d","anomalyThreshold()":"6f83a586","assessRisk(address,address,uint256,uint128,uint64,bytes)":"5b23bc14","batchAssessRisk((address,address,uint256,uint128,bytes32)[],bytes[])":"7f338fa7","circuitBreakerActive()":"f609844d","consecutiveHighRisk()":"1912010c","getOracleConfig(address)":"c3547109","getOracles()":"40884c52","getRiskResult(bytes32)":"a396b8fa","getStatistics()":"372d6b27","getThresholds()":"9c3977b5","initialize(address,string)":"f399e22e","l1Bridge()":"969b53da","markProcessed(bytes32)":"a4ddd269","modelVersion()":"edb3ba0b","oracleList(uint256)":"239aad0d","oracleQuorum()":"78ea2dd9","oracles(address)":"addd5099","owner()":"8da5cb5b","pause()":"8456cb59","paused()":"5c975abb","proxiableUUID()":"52d1902d","quickCheck(uint128)":"9cc91a93","relayToL1(bytes32)":"64d1de76","removeOracle(address)":"fdc85fc4","renounceOwnership()":"715018a6","resetCircuitBreaker()":"de5f8d93","riskResults(bytes32)":"76dd46da","setAMTTPCoreL1(address)":"0f71bb4f","setAnomalyThreshold(uint256)":"29798846","setL1Bridge(address)":"1a050376","setModelVersion(string)":"235f1f93","setOracleQuorum(uint256)":"5d1e7a59","setThresholds(uint64,uint64,uint64)":"f6aa8984","thresholds()":"cda43b3a","totalApproved()":"cba09cc8","totalAssessments()":"2b08c955","totalBlocked()":"f11929d0","totalEscrowed()":"f9168231","totalReviewed()":"dc74194e","transferOwnership(address)":"f2fde38b","unpause()":"3f4ba83a","upgradeTo(address)":"3659cfe6","upgradeToAndCall(address,bytes)":"4f1ef286"},"id":14}