{"abi":[{"type":"constructor","inputs":[],"stateMutability":"nonpayable"},{"type":"function","name":"addressProofs","inputs":[{"name":"","type":"address","internalType":"address"},{"name":"","type":"uint8","internalType":"enum AMTTPzkNAF.ProofType"}],"outputs":[{"name":"","type":"bytes32","internalType":"bytes32"}],"stateMutability":"view"},{"type":"function","name":"authorizedOracles","inputs":[{"name":"","type":"address","internalType":"address"}],"outputs":[{"name":"","type":"bool","internalType":"bool"}],"stateMutability":"view"},{"type":"function","name":"hasValidProof","inputs":[{"name":"account","type":"address","internalType":"address"},{"name":"proofType","type":"uint8","internalType":"enum AMTTPzkNAF.ProofType"}],"outputs":[{"name":"","type":"bool","internalType":"bool"}],"stateMutability":"view"},{"type":"function","name":"initialize","inputs":[{"name":"_owner","type":"address","internalType":"address"}],"outputs":[],"stateMutability":"nonpayable"},{"type":"function","name":"isCompliant","inputs":[{"name":"account","type":"address","internalType":"address"}],"outputs":[{"name":"sanctionsProof","type":"bool","internalType":"bool"},{"name":"riskProof","type":"bool","internalType":"bool"},{"name":"kycProof","type":"bool","internalType":"bool"},{"name":"fullyCompliant","type":"bool","internalType":"bool"}],"stateMutability":"view"},{"type":"function","name":"owner","inputs":[],"outputs":[{"name":"","type":"address","internalType":"address"}],"stateMutability":"view"},{"type":"function","name":"pause","inputs":[],"outputs":[],"stateMutability":"nonpayable"},{"type":"function","name":"paused","inputs":[],"outputs":[{"name":"","type":"bool","internalType":"bool"}],"stateMutability":"view"},{"type":"function","name":"proofRecords","inputs":[{"name":"","type":"bytes32","internalType":"bytes32"}],"outputs":[{"name":"proofHash","type":"bytes32","internalType":"bytes32"},{"name":"proofType","type":"uint8","internalType":"enum AMTTPzkNAF.ProofType"},{"name":"prover","type":"address","internalType":"address"},{"name":"timestamp","type":"uint256","internalType":"uint256"},{"name":"expiresAt","type":"uint256","internalType":"uint256"},{"name":"isValid","type":"bool","internalType":"bool"}],"stateMutability":"view"},{"type":"function","name":"proofValidityDuration","inputs":[],"outputs":[{"name":"","type":"uint256","internalType":"uint256"}],"stateMutability":"view"},{"type":"function","name":"proxiableUUID","inputs":[],"outputs":[{"name":"","type":"bytes32","internalType":"bytes32"}],"stateMutability":"view"},{"type":"function","name":"renounceOwnership","inputs":[],"outputs":[],"stateMutability":"nonpayable"},{"type":"function","name":"revokeProof","inputs":[{"name":"proofHash","type":"bytes32","internalType":"bytes32"},{"name":"reason","type":"string","internalType":"string"}],"outputs":[],"stateMutability":"nonpayable"},{"type":"function","name":"sanctionsListRoot","inputs":[],"outputs":[{"name":"","type":"bytes32","internalType":"bytes32"}],"stateMutability":"view"},{"type":"function","name":"sanctionsListUpdatedAt","inputs":[],"outputs":[{"name":"","type":"uint256","internalType":"uint256"}],"stateMutability":"view"},{"type":"function","name":"setAuthorizedOracle","inputs":[{"name":"oracle","type":"address","internalType":"address"},{"name":"authorized","type":"bool","internalType":"bool"}],"outputs":[],"stateMutability":"nonpayable"},{"type":"function","name":"setProofValidityDuration","inputs":[{"name":"duration","type":"uint256","internalType":"uint256"}],"outputs":[],"stateMutability":"nonpayable"},{"type":"function","name":"setVerifyingKey","inputs":[{"name":"proofType","type":"uint8","internalType":"enum AMTTPzkNAF.ProofType"},{"name":"alpha1","type":"uint256[2]","internalType":"uint256[2]"},{"name":"beta2","type":"uint256[2][2]","internalType":"uint256[2][2]"},{"name":"gamma2","type":"uint256[2][2]","internalType":"uint256[2][2]"},{"name":"delta2","type":"uint256[2][2]","internalType":"uint256[2][2]"},{"name":"ic","type":"uint256[2][]","internalType":"uint256[2][]"}],"outputs":[],"stateMutability":"nonpayable"},{"type":"function","name":"totalProofsVerified","inputs":[],"outputs":[{"name":"","type":"uint256","internalType":"uint256"}],"stateMutability":"view"},{"type":"function","name":"transferOwnership","inputs":[{"name":"newOwner","type":"address","internalType":"address"}],"outputs":[],"stateMutability":"nonpayable"},{"type":"function","name":"unpause","inputs":[],"outputs":[],"stateMutability":"nonpayable"},{"type":"function","name":"updateSanctionsListRoot","inputs":[{"name":"newRoot","type":"bytes32","internalType":"bytes32"}],"outputs":[],"stateMutability":"nonpayable"},{"type":"function","name":"upgradeTo","inputs":[{"name":"newImplementation","type":"address","internalType":"address"}],"outputs":[],"stateMutability":"nonpayable"},{"type":"function","name":"upgradeToAndCall","inputs":[{"name":"newImplementation","type":"address","internalType":"address"},{"name":"data","type":"bytes","internalType":"bytes"}],"outputs":[],"stateMutability":"payable"},{"type":"function","name":"verify","inputs":[{"name":"proofType","type":"uint8","internalType":"enum AMTTPzkNAF.ProofType"},{"name":"proof","type":"tuple","internalType":"struct AMTTPzkNAF.Proof","components":[{"name":"a","type":"uint256[2]","internalType":"uint256[2]"},{"name":"b","type":"uint256[2][2]","internalType":"uint256[2][2]"},{"name":"c","type":"uint256[2]","internalType":"uint256[2]"}]},{"name":"publicInputs","type":"uint256[]","internalType":"uint256[]"}],"outputs":[{"name":"","type":"bool","internalType":"bool"}],"stateMutability":"view"},{"type":"function","name":"verifyAndStore","inputs":[{"name":"proofType","type":"uint8","internalType":"enum AMTTPzkNAF.ProofType"},{"name":"proof","type":"tuple","internalType":"struct AMTTPzkNAF.Proof","components":[{"name":"a","type":"uint256[2]","internalType":"uint256[2]"},{"name":"b","type":"uint256[2][2]","internalType":"uint256[2][2]"},{"name":"c","type":"uint256[2]","internalType":"uint256[2]"}]},{"name":"publicInputs","type":"uint256[]","internalType":"uint256[]"}],"outputs":[{"name":"proofHash","type":"bytes32","internalType":"bytes32"}],"stateMutability":"nonpayable"},{"type":"function","name":"verifyingKeySet","inputs":[{"name":"","type":"uint8","internalType":"enum AMTTPzkNAF.ProofType"}],"outputs":[{"name":"","type":"bool","internalType":"bool"}],"stateMutability":"view"},{"type":"function","name":"version","inputs":[],"outputs":[{"name":"","type":"string","internalType":"string"}],"stateMutability":"pure"},{"type":"event","name":"AdminChanged","inputs":[{"name":"previousAdmin","type":"address","indexed":false,"internalType":"address"},{"name":"newAdmin","type":"address","indexed":false,"internalType":"address"}],"anonymous":false},{"type":"event","name":"BeaconUpgraded","inputs":[{"name":"beacon","type":"address","indexed":true,"internalType":"address"}],"anonymous":false},{"type":"event","name":"Initialized","inputs":[{"name":"version","type":"uint8","indexed":false,"internalType":"uint8"}],"anonymous":false},{"type":"event","name":"OracleAuthorized","inputs":[{"name":"oracle","type":"address","indexed":true,"internalType":"address"},{"name":"authorized","type":"bool","indexed":false,"internalType":"bool"}],"anonymous":false},{"type":"event","name":"OwnershipTransferred","inputs":[{"name":"previousOwner","type":"address","indexed":true,"internalType":"address"},{"name":"newOwner","type":"address","indexed":true,"internalType":"address"}],"anonymous":false},{"type":"event","name":"Paused","inputs":[{"name":"account","type":"address","indexed":false,"internalType":"address"}],"anonymous":false},{"type":"event","name":"ProofRevoked","inputs":[{"name":"proofHash","type":"bytes32","indexed":true,"internalType":"bytes32"},{"name":"reason","type":"string","indexed":false,"internalType":"string"}],"anonymous":false},{"type":"event","name":"ProofVerified","inputs":[{"name":"proofHash","type":"bytes32","indexed":true,"internalType":"bytes32"},{"name":"proofType","type":"uint8","indexed":true,"internalType":"enum AMTTPzkNAF.ProofType"},{"name":"prover","type":"address","indexed":true,"internalType":"address"},{"name":"expiresAt","type":"uint256","indexed":false,"internalType":"uint256"}],"anonymous":false},{"type":"event","name":"SanctionsListUpdated","inputs":[{"name":"newRoot","type":"bytes32","indexed":true,"internalType":"bytes32"},{"name":"timestamp","type":"uint256","indexed":false,"internalType":"uint256"}],"anonymous":false},{"type":"event","name":"Unpaused","inputs":[{"name":"account","type":"address","indexed":false,"internalType":"address"}],"anonymous":false},{"type":"event","name":"Upgraded","inputs":[{"name":"implementation","type":"address","indexed":true,"internalType":"address"}],"anonymous":false},{"type":"event","name":"VerifyingKeyUpdated","inputs":[{"name":"proofType","type":"uint8","indexed":true,"internalType":"enum AMTTPzkNAF.ProofType"},{"name":"keyHash","type":"bytes32","indexed":false,"internalType":"bytes32"}],"anonymous":false},{"type":"error","name":"InvalidInput","inputs":[]},{"type":"error","name":"InvalidProof","inputs":[]},{"type":"error","name":"NotAuthorizedOracle","inputs":[]},{"type":"error","name":"ProofAlreadyExists","inputs":[]},{"type":"error","name":"ProofExpired","inputs":[]},{"type":"error","name":"VerifyingKeyNotSet","inputs":[]}],"bytecode":{"object":"0x60a080604052346100da57306080525f549060ff8260081c16610088575060ff8082160361004e575b60405161225090816100df8239608051818181610316015281816106f001526108200152f35b60ff90811916175f557f7f26b83ff96e1f2b6a682f133852f6798a09c465da95921460cefb3847402498602060405160ff8152a15f610028565b62461bcd60e51b815260206004820152602760248201527f496e697469616c697a61626c653a20636f6e747261637420697320696e697469604482015266616c697a696e6760c81b6064820152608490fd5b5f80fdfe60806040526004361015610011575f80fd5b5f3560e01c806276f350146101d3578063016baeff146101ce5780633659cfe6146101c95780633bd60ea7146101c45780633f4ba83a146101bf5780634bf03ba6146101ba5780634f1ef286146101b557806352520d08146101b057806352d1902d146101ab57806354fd4d50146101a6578063563cf2a6146101a15780635c975abb1461019c57806361c992a314610197578063715018a6146101925780637e17c1e11461018d5780638456cb59146101885780638c646dbb146101835780638da5cb5b1461017e578063966315d1146101795780639916d13b146101745780639d1ef9c21461016f578063a200e5d01461016a578063a9b13cc914610165578063c4d66de814610160578063c7a6de4d1461015b578063d246a2a314610156578063e84cb27f146101515763f2fde38b1461014c575f80fd5b61128e565b61121d565b6111ff565b61117d565b611091565b611073565b610e82565b610e53565b610d7a565b610d5d565b610d35565b610d04565b610cab565b610c34565b610bcc565b610b8e565b610b6c565b6109c1565b61091c565b61080e565b6107f0565b610678565b61051b565b61045e565b61043c565b6102f3565b6102a8565b610210565b600435906001600160a01b03821682036101ee57565b5f80fd5b6024359060058210156101ee57565b6004359060058210156101ee57565b346101ee5760403660031901126101ee57602061023c61022e6101d8565b6102366101f2565b90611327565b6040519015158152f35b6005111561025057565b634e487b7160e01b5f52602160045260245ffd5b6005811015610250575f5260fc60205260405f2090565b6005811015610250575f5260fb60205260405f2090565b906005811015610250575f5260205260405f2090565b346101ee5760403660031901126101ee5760206102ea6102c66101d8565b6102ce6101f2565b6001600160a01b039091165f90815260fe845260409020610292565b54604051908152f35b346101ee5760203660031901126101ee5761030c6101d8565b6001600160a01b037f000000000000000000000000000000000000000000000000000000000000000081169190610345308414156113df565b6103615f805160206121fb833981519152938285541614611440565b610369611a8f565b60405190610376826105d7565b5f82527f4910fdfa16fed3260ed0e7147f7cc6da11a60208b5b9406d12a635614ffd91435460ff16156103b15750506103af9150611e48565b005b6020600491604094939451928380926352d1902d60e01b825286165afa5f918161040b575b506103f85760405162461bcd60e51b8152806103f460048201611a40565b0390fd5b6103af9361040691146119e2565b611d16565b61042e91925060203d602011610435575b610426818361062b565b8101906119d3565b905f6103d6565b503d61041c565b346101ee5760203660031901126101ee57610455611a8f565b60043561010155005b346101ee575f3660031901126101ee57610476611a8f565b60655460ff8116156104b55760ff19166065557f5db9ee0a495bf2e6ff9c91a7834c1ba4fdd244a5e8aa4e537bd38aeae4b073aa6020604051338152a1005b60405162461bcd60e51b815260206004820152601460248201527314185d5cd8589b194e881b9bdd081c185d5cd95960621b6044820152606490fd5b9060649160e4116101ee57565b9060e491610164116101ee57565b90610164916101e4116101ee57565b346101ee576102003660031901126101ee57610535610201565b366064116101ee57610546366104f1565b61054f366104fe565b916105593661050c565b6101e4359367ffffffffffffffff938486116101ee57366023870112156101ee5785600401359485116101ee573660248660061b880101116101ee5760246103af9601936114a1565b634e487b7160e01b5f52604160045260245ffd5b60c0810190811067ffffffffffffffff8211176105d257604052565b6105a2565b6020810190811067ffffffffffffffff8211176105d257604052565b6040810190811067ffffffffffffffff8211176105d257604052565b6060810190811067ffffffffffffffff8211176105d257604052565b90601f8019910116810190811067ffffffffffffffff8211176105d257604052565b6040519061065a826105b6565b565b67ffffffffffffffff81116105d257601f01601f191660200190565b60403660031901126101ee5761068c6101d8565b6024359067ffffffffffffffff82116101ee57366023830112156101ee5781600401356106b88161065c565b926106c6604051948561062b565b81845236602483830101116101ee57815f9260246020930183870137840101526001600160a01b037f00000000000000000000000000000000000000000000000000000000000000008116929061071f308514156113df565b61073b5f805160206121fb833981519152948286541614611440565b610743611a8f565b7f4910fdfa16fed3260ed0e7147f7cc6da11a60208b5b9406d12a635614ffd91435460ff16156107795750506103af9150611e48565b6020600491604094939451928380926352d1902d60e01b825286165afa5f91816107cf575b506107bc5760405162461bcd60e51b8152806103f460048201611a40565b6103af936107ca91146119e2565b611df6565b6107e991925060203d60201161043557610426818361062b565b905f61079e565b346101ee575f3660031901126101ee57602061010154604051908152f35b346101ee575f3660031901126101ee577f00000000000000000000000000000000000000000000000000000000000000006001600160a01b0316300361086a576040515f805160206121fb8339815191528152602090f35b0390f35b60405162461bcd60e51b815260206004820152603860248201527f555550535570677261646561626c653a206d757374206e6f742062652063616c60448201527f6c6564207468726f7567682064656c656761746563616c6c00000000000000006064820152608490fd5b602080825282518183018190529093925f5b82811061090857505060409293505f838284010152601f8019910116010190565b8181018601518482016040015285016108e7565b346101ee575f3660031901126101ee5761086660405161093b816105f3565b60058152640312e302e360dc1b6020820152604051918291826108d5565b906101406003198301126101ee5761096f610201565b916101006023198201126101ee576024916101243567ffffffffffffffff928382116101ee57806023830112156101ee5781600401359384116101ee5760248460051b830101116101ee576024019190565b346101ee576109cf36610959565b916109d8611ae7565b6109f26109ee6109e786610264565b5460ff1690565b1590565b610b5a576109ee8383610a059387611b6d565b610b4857610a33610a2591604051928391602083019542913389896117bb565b03601f19810183528261062b565b5190206002610a4a825f5260fd60205260405f2090565b0154610b365761086691610a616101015442611819565b90610ab3610a6d61064d565b848152610a7d836020830161131b565b336040820152426060820152836080820152610a9c60a0820160019052565b610aae855f5260fd60205260405f2090565b611826565b335f90815260fe602052604090208390610ace908390610292565b55610ae4610ade610103546118bc565b61010355565b610aed81610246565b827f0bea3c76f0ca8333196b38ba50d5195c8d0de285429fe372013ab87a635a5aba60405180610b233396829190602083019252565b0390a46040519081529081906020820190565b60405163b8cdb9bd60e01b8152600490fd5b6040516309bde33960e01b8152600490fd5b604051637c48038560e01b8152600490fd5b346101ee575f3660031901126101ee57602060ff606554166040519015158152f35b346101ee5760203660031901126101ee576001600160a01b03610baf6101d8565b165f52610102602052602060ff60405f2054166040519015158152f35b346101ee575f3660031901126101ee57610be4611a8f565b603380546001600160a01b031981169091555f906001600160a01b03167f8be0079c531659141344cd1fd0a4f28419497f9722a3daafe3b4186f6b6457e08280a3005b9060058210156102505752565b346101ee5760203660031901126101ee576004355f5260fd60205260c060405f20805490600181015490600281015460ff600460038401549301541692604051948552610c876020860160ff8316610c27565b60081c6001600160a01b0316604085015260608401526080830152151560a0820152f35b346101ee575f3660031901126101ee57610cc3611a8f565b610ccb611ae7565b600160ff1960655416176065557f62e78cea01bee320cd4e420270b5ea74000d11b0c9f74754ebdbfc544b05a2586020604051338152a1005b346101ee5760203660031901126101ee57602060ff610d29610d24610201565b610264565b54166040519015158152f35b346101ee575f3660031901126101ee576033546040516001600160a01b039091168152602090f35b346101ee575f3660031901126101ee57602060ff54604051908152f35b346101ee576040806003193601126101ee576004359060243567ffffffffffffffff8082116101ee57366023830112156101ee5781600401359081116101ee5736602482840101116101ee57335f5261010260205260ff835f20541615610e4257916024917f4325cc88f2e090d404f959b20fcbeb4dc07c60858ac2ad8f2d5c33f78204866d93855f5260fd6020526004835f200160ff1981541690558083519485936020855282602086015201848401375f828201840152601f01601f19168101030190a2005b8251630b7b9fc760e01b8152600490fd5b346101ee57610e6136610959565b9060ff610e6f859495610264565b541615610b5a5760209361023c93611b6d565b346101ee576020806003193601126101ee57610e9c6101d8565b60405162076f3560e41b8082526001600160a01b03831660048301525f60248301529290918183604481305afa928315610fc9575f93611054575b506040518481526001600160a01b038216600482015260016024820152938285604481305afa948515610fc9575f95611035575b508415610fce575b6040519081526001600160a01b0390911660048201526003602482015290808280604481015b0381305afa8015610fc9576108669284925f92610f9c575b505081610f94575b81610f8c575b60405194859485926060929594919560808501961515855215156020850152151560408401521515910152565b905080610f5f565b849150610f59565b610fbb9250803d10610fc2575b610fb3818361062b565b8101906118ca565b5f80610f51565b503d610fa9565b6118e2565b6040518181526001600160a01b0383166004820152600260248201529094509091908181604481305afa928315610fc957610f399383925f91611018575b50959150919250610f13565b61102f9150833d8511610fc257610fb3818361062b565b5f61100c565b61104d919550833d8511610fc257610fb3818361062b565b935f610f0b565b61106c919350823d8411610fc257610fb3818361062b565b915f610ed7565b346101ee575f3660031901126101ee57602061010054604051908152f35b346101ee5760203660031901126101ee576110aa6101d8565b6110eb5f54916110d160ff8460081c161580948195611165575b8115611145575b506118ed565b826110e2600160ff195f5416175f55565b61112e57611950565b6110f157005b6110ff61ff00195f54165f55565b604051600181527f7f26b83ff96e1f2b6a682f133852f6798a09c465da95921460cefb384740249890602090a1005b61114061010061ff00195f5416175f55565b611950565b303b15915081611157575b505f6110cb565b6001915060ff16145f611150565b600160ff82161091506110c4565b801515036101ee57565b346101ee5760403660031901126101ee576111966101d8565b7f82a8fb1e779ea45ad427cc612e47087f5386a567e49dce488185e40646fa48d56020602435926111c684611173565b6111ce611a8f565b6001600160a01b03165f818152610102835260409020805460ff191660ff86151516179055926040519015158152a2005b346101ee575f3660031901126101ee57602061010354604051908152f35b346101ee5760203660031901126101ee57600435335f5261010260205260ff60405f2054161561127c578060ff5542610100557ffcfc2f720c11867f0e29cfd53560141ec55f9495ab13afae17489f6c858af6116020604051428152a2005b604051630b7b9fc760e01b8152600490fd5b346101ee5760203660031901126101ee576112a76101d8565b6112af611a8f565b6001600160a01b038116156112c7576103af90611c6e565b60405162461bcd60e51b815260206004820152602660248201527f4f776e61626c653a206e6577206f776e657220697320746865207a65726f206160448201526564647265737360d01b6064820152608490fd5b60058210156102505752565b6001600160a01b039081165f90815260fe60205260409020909161134a91610292565b5480156113d9575f5260fd6020526113c760405f20916040519061136d826105b6565b83548252600184015461138660ff82166020850161131b565b60081c166040820152600283015460608201526113c160a06113b8600460038701549660808601978852015460ff1690565b15159201918252565b51151590565b90816113d1575090565b905051421090565b50505f90565b156113e657565b60405162461bcd60e51b815260206004820152602c60248201527f46756e6374696f6e206d7573742062652063616c6c6564207468726f7567682060448201526b19195b1959d85d1958d85b1b60a21b6064820152608490fd5b1561144757565b60405162461bcd60e51b815260206004820152602c60248201527f46756e6374696f6e206d7573742062652063616c6c6564207468726f7567682060448201526b6163746976652070726f787960a01b6064820152608490fd5b9490936114ac611a8f565b600e6114b78761027b565b6114c0816115a7565b6114cd87600283016115f0565b6114da85600683016115f0565b6114e786600a83016115f0565b016114f181611622565b5f5b8381106115765750507f0d211ca712c2633042ae35121d35a732bf13f5105404ec5ef58da25ef752e8f69492610a256115719593611555936115446115378b610264565b805460ff19166001179055565b604051958694602086019889611746565b51902061156184610246565b6040519081529081906020820190565b0390a2565b8061158d611587600193878761169a565b846116da565b016114f3565b634e487b7160e01b5f52601160045260245ffd5b60245f5b600281106115b857505050565b6001906020833593019281850155016115ab565b905f5b600281106115dc57505050565b6001906020833593019281850155016115cf565b915f915b6002908184101561161b579060408261160f600194886115cc565b019401920191926115f4565b5050915050565b80545f825580611630575050565b6001916001600160ff1b0382168203611681575f5260205f209060011b8101905b81811061165d57505050565b6002810183825b82811061167657505050600201611651565b5f8155018490611664565b611593565b634e487b7160e01b5f52603260045260245ffd5b91908110156116aa5760061b0190565b611686565b8054156116aa575f5260205f20905f90565b80548210156116aa575f5260205f209060011b01905f90565b8054680100000000000000008110156105d2576116fc916001820181556116c1565b91909161170c5761065a916115cc565b634e487b7160e01b5f525f60045260245ffd5b5f915b6002831061172f57505050565b600190604081818581943701920192019190611722565b9093946102009281946117886101e09161177d8387019461177360409b604060248b3760408a019061171f565b60c088019061171f565b61014086019061171f565b6101c0840152520192915f5b8281106117a2575050505090565b9091929382808281886001953701950193929101611794565b9594939190866117ca91610c27565b6001600160a01b0316602086015260806040860181905285018190526001600160fb1b0381116101ee5760609160a09160051b809183880137850101930152565b906001820180921161168157565b9190820180921161168157565b815181556001810191602081015160058110156102505760a060049261188e61065a966118a99460ff8019835416911617815561186c604084015160018060a01b031690565b8154610100600160a81b03191660089190911b610100600160a81b0316179055565b60608101516002860155608081015160038601550151151590565b91019060ff801983541691151516179055565b5f1981146116815760010190565b908160209103126101ee57516118df81611173565b90565b6040513d5f823e3d90fd5b156118f457565b60405162461bcd60e51b815260206004820152602e60248201527f496e697469616c697a61626c653a20636f6e747261637420697320616c72656160448201526d191e481a5b9a5d1a585b1a5e995960921b6064820152608490fd5b61196960ff5f5460081c1661196481611cb6565b611cb6565b61197233611c6e565b61199e60ff5f5460081c1661198681611cb6565b61198f81611cb6565b60ff1960655416606555611cb6565b6119a781611c6e565b62015180610101556001600160a01b03165f90815261010260205260409020805460ff19166001179055565b908160209103126101ee575190565b156119e957565b60405162461bcd60e51b815260206004820152602960248201527f45524331393637557067726164653a20756e737570706f727465642070726f786044820152681a58589b195555525160ba1b6064820152608490fd5b60809060208152602e60208201527f45524331393637557067726164653a206e657720696d706c656d656e7461746960408201526d6f6e206973206e6f74205555505360901b60608201520190565b6033546001600160a01b03163303611aa357565b606460405162461bcd60e51b815260206004820152602060248201527f4f776e61626c653a2063616c6c6572206973206e6f7420746865206f776e65726044820152fd5b60ff60655416611af357565b60405162461bcd60e51b815260206004820152601060248201526f14185d5cd8589b194e881c185d5cd95960821b6044820152606490fd5b60405191905f835b60028210611b475750505061065a826105f3565b6001602081928554815201930191019091611b33565b91908110156116aa5760051b0190565b611b7b90949391929461027b565b90611b858161180b565b90600e830191825403611c5c5790611ba5611b9f826116af565b50611b2b565b9160208301905f5b818110611be557505050506118df939450611bc783611fbb565b90600a83019360c0810193600681019360406002830193019061204a565b7f30644e72e131a029b85045b68181585d2833e84879b9709143e1f593f0000001611c1182848c611b5d565b351015611c5c5780611c52611c478b611c408487611c39611c3360019961180b565b8c6116c1565b5093611b5d565b3590611f10565b908851875190611f5d565b8552865201611bad565b60405163b4fa3fb360e01b8152600490fd5b603380546001600160a01b039283166001600160a01b0319821681179092559091167f8be0079c531659141344cd1fd0a4f28419497f9722a3daafe3b4186f6b6457e05f80a3565b15611cbd57565b60405162461bcd60e51b815260206004820152602b60248201527f496e697469616c697a61626c653a20636f6e7472616374206973206e6f74206960448201526a6e697469616c697a696e6760a81b6064820152608490fd5b90611d2082611e48565b6001600160a01b0382167fbc7cd75a20ee27fd9adebab32041f755214dbc6bffa90cc0225b39da2e5c2d3b5f80a2805115801590611def575b611d61575050565b611de4915f8060405193611d748561060f565b602785527f416464726573733a206c6f772d6c6576656c2064656c65676174652063616c6c6020860152660819985a5b195960ca1b6040860152602081519101845af43d15611de7573d91611dc88361065c565b92611dd6604051948561062b565b83523d5f602085013e612169565b50565b606091612169565b505f611d59565b90611e0082611e48565b6001600160a01b0382167fbc7cd75a20ee27fd9adebab32041f755214dbc6bffa90cc0225b39da2e5c2d3b5f80a2805115801590611e4057611d61575050565b506001611d59565b803b15611e7c575f805160206121fb83398151915280546001600160a01b0319166001600160a01b03909216919091179055565b60405162461bcd60e51b815260206004820152602d60248201527f455243313936373a206e657720696d706c656d656e746174696f6e206973206e60448201526c1bdd08184818dbdb9d1c9858dd609a1b6064820152608490fd5b6040519061030080830183811067ffffffffffffffff8211176105d257604052368337565b60405190611f09826105d7565b6020368337565b604090606093926001835192611f258461060f565b863685378054845201546020830152828201528151938491611f46836105f3565b8336843760075afa156101ee576020825192015190565b9392604092835192608084019684881067ffffffffffffffff8911176105d257608097865287368637845260208401528383015260608201528151938491611fa4836105f3565b8336843760065afa156101ee576020825192015190565b60408051611fc8816105f3565b36903780359081158061203e575b6120245760209060405192611fea846105f3565b83527f30644e72e131a029b85045b68181585d97816a916871ca8d3c208c16d87cfd47918291013506810390811161168157602082015290565b5050604051612032816105f3565b5f81525f602082015290565b50602081013515611fd6565b909396949195929661205a611ed7565b978251895260209788968780950151858c01528481013560408c0152803560608c0152606081013560808c01526040013560a08b0152805460c08b01526120a390600101905f90565b9054600391821b1c60e08b01526001828101546101008c015282546101208c0152828201546101408c01526002928301546101608c015283516101808c015293909201516101a08a0152838301546101c08a015283546101e08a0152838201546102008a015292830154610220890152833561024089015293909201356102608701529083015461028086015282546102a0860152908201546102c085015201546102e0830152612152611efc565b80925a90600861030092fa156101ee575160011490565b919290156121cb575081511561217d575090565b3b156121865790565b60405162461bcd60e51b815260206004820152601d60248201527f416464726573733a2063616c6c20746f206e6f6e2d636f6e74726163740000006044820152606490fd5b8251909150156121de5750805190602001fd5b60405162461bcd60e51b81529081906103f490600483016108d556fe360894a13ba1a3210667c828492db98dca3e2076cc3735a920a3ca505d382bbca2646970667358221220d26961e63376f5563dcd0f664b8fb8981d77c857d1a69c5a684858b66a0a80dc64736f6c63430008180033","linkReferences":{}},"methodIdentifiers":{"addressProofs(address,uint8)":"016baeff","authorizedOracles(address)":"61c992a3","hasValidProof(address,uint8)":"0076f350","initialize(address)":"c4d66de8","isCompliant(address)":"a200e5d0","owner()":"8da5cb5b","pause()":"8456cb59","paused()":"5c975abb","proofRecords(bytes32)":"7e17c1e1","proofValidityDuration()":"52520d08","proxiableUUID()":"52d1902d","renounceOwnership()":"715018a6","revokeProof(bytes32,string)":"9916d13b","sanctionsListRoot()":"966315d1","sanctionsListUpdatedAt()":"a9b13cc9","setAuthorizedOracle(address,bool)":"c7a6de4d","setProofValidityDuration(uint256)":"3bd60ea7","setVerifyingKey(uint8,uint256[2],uint256[2][2],uint256[2][2],uint256[2][2],uint256[2][])":"4bf03ba6","totalProofsVerified()":"d246a2a3","transferOwnership(address)":"f2fde38b","unpause()":"3f4ba83a","updateSanctionsListRoot(bytes32)":"e84cb27f","upgradeTo(address)":"3659cfe6","upgradeToAndCall(address,bytes)":"4f1ef286","verify(uint8,(uint256[2],uint256[2][2],uint256[2]),uint256[])":"9d1ef9c2","verifyAndStore(uint8,(uint256[2],uint256[2][2],uint256[2]),uint256[])":"563cf2a6","verifyingKeySet(uint8)":"8c646dbb","version()":"54fd4d50"},"id":31}