{"abi":[{"type":"constructor","inputs":[],"stateMutability":"nonpayable"},{"type":"function","name":"activeModelVersion","inputs":[],"outputs":[{"name":"","type":"string","internalType":"string"}],"stateMutability":"view"},{"type":"function","name":"addTrustedCounterparty","inputs":[{"name":"user","type":"address","internalType":"address"},{"name":"counterparty","type":"address","internalType":"address"}],"outputs":[],"stateMutability":"nonpayable"},{"type":"function","name":"addTrustedUser","inputs":[{"name":"user","type":"address","internalType":"address"}],"outputs":[],"stateMutability":"nonpayable"},{"type":"function","name":"addVelocityLimit","inputs":[{"name":"user","type":"address","internalType":"address"},{"name":"maxTransactions","type":"uint256","internalType":"uint256"},{"name":"maxVolume","type":"uint256","internalType":"uint256"},{"name":"window","type":"uint8","internalType":"enum AMTTPPolicyEngine.VelocityWindow"}],"outputs":[],"stateMutability":"nonpayable"},{"type":"function","name":"amttpContract","inputs":[],"outputs":[{"name":"","type":"address","internalType":"address"}],"stateMutability":"view"},{"type":"function","name":"disputeResolver","inputs":[],"outputs":[{"name":"","type":"address","internalType":"address"}],"stateMutability":"view"},{"type":"function","name":"emergencyPause","inputs":[],"outputs":[{"name":"","type":"bool","internalType":"bool"}],"stateMutability":"view"},{"type":"function","name":"escrowThreshold","inputs":[],"outputs":[{"name":"","type":"uint256","internalType":"uint256"}],"stateMutability":"view"},{"type":"function","name":"freezeAccount","inputs":[{"name":"user","type":"address","internalType":"address"},{"name":"reason","type":"string","internalType":"string"}],"outputs":[],"stateMutability":"nonpayable"},{"type":"function","name":"getDisputeResolver","inputs":[],"outputs":[{"name":"","type":"address","internalType":"address"}],"stateMutability":"view"},{"type":"function","name":"getModelPerformance","inputs":[{"name":"version","type":"string","internalType":"string"}],"outputs":[{"name":"","type":"uint256","internalType":"uint256"}],"stateMutability":"view"},{"type":"function","name":"getPolicyEngineStatus","inputs":[],"outputs":[{"name":"","type":"tuple","internalType":"struct AMTTPPolicyEngine.PolicyEngineStatus","components":[{"name":"policyEngineAddress","type":"address","internalType":"address"},{"name":"enabled","type":"bool","internalType":"bool"},{"name":"globalThreshold","type":"uint256","internalType":"uint256"},{"name":"defaultModel","type":"string","internalType":"string"}]}],"stateMutability":"view"},{"type":"function","name":"getUserActivity","inputs":[{"name":"user","type":"address","internalType":"address"}],"outputs":[{"name":"","type":"tuple","internalType":"struct AMTTPPolicyEngine.UserActivity","components":[{"name":"dailyVolume","type":"uint256","internalType":"uint256"},{"name":"weeklyVolume","type":"uint256","internalType":"uint256"},{"name":"monthlyVolume","type":"uint256","internalType":"uint256"},{"name":"dailyCount","type":"uint256","internalType":"uint256"},{"name":"lastTransactionTime","type":"uint256","internalType":"uint256"},{"name":"lastResetTime","type":"uint256","internalType":"uint256"},{"name":"suspiciousScore","type":"uint256","internalType":"uint256"},{"name":"frozen","type":"bool","internalType":"bool"}]}],"stateMutability":"view"},{"type":"function","name":"getUserPolicy","inputs":[{"name":"user","type":"address","internalType":"address"}],"outputs":[{"name":"","type":"tuple","internalType":"struct AMTTPPolicyEngine.TransactionPolicy","components":[{"name":"maxAmount","type":"uint256","internalType":"uint256"},{"name":"dailyLimit","type":"uint256","internalType":"uint256"},{"name":"weeklyLimit","type":"uint256","internalType":"uint256"},{"name":"monthlyLimit","type":"uint256","internalType":"uint256"},{"name":"riskThreshold","type":"uint256","internalType":"uint256"},{"name":"allowedCounterparties","type":"address[]","internalType":"address[]"},{"name":"blockedCounterparties","type":"address[]","internalType":"address[]"},{"name":"autoApprove","type":"bool","internalType":"bool"},{"name":"enabled","type":"bool","internalType":"bool"},{"name":"cooldownPeriod","type":"uint256","internalType":"uint256"},{"name":"lastLargeTransaction","type":"uint256","internalType":"uint256"}]}],"stateMutability":"view"},{"type":"function","name":"getUserRiskPolicy","inputs":[{"name":"user","type":"address","internalType":"address"}],"outputs":[{"name":"","type":"tuple","internalType":"struct AMTTPPolicyEngine.RiskPolicy","components":[{"name":"minimalThreshold","type":"uint256","internalType":"uint256"},{"name":"lowThreshold","type":"uint256","internalType":"uint256"},{"name":"mediumThreshold","type":"uint256","internalType":"uint256"},{"name":"highThreshold","type":"uint256","internalType":"uint256"},{"name":"minimalAction","type":"uint8","internalType":"enum AMTTPPolicyEngine.PolicyAction"},{"name":"lowAction","type":"uint8","internalType":"enum AMTTPPolicyEngine.PolicyAction"},{"name":"mediumAction","type":"uint8","internalType":"enum AMTTPPolicyEngine.PolicyAction"},{"name":"highAction","type":"uint8","internalType":"enum AMTTPPolicyEngine.PolicyAction"},{"name":"adaptiveThresholds","type":"bool","internalType":"bool"}]}],"stateMutability":"view"},{"type":"function","name":"globalApprovers","inputs":[{"name":"","type":"address","internalType":"address"}],"outputs":[{"name":"","type":"bool","internalType":"bool"}],"stateMutability":"view"},{"type":"function","name":"globalMaxAmount","inputs":[],"outputs":[{"name":"","type":"uint256","internalType":"uint256"}],"stateMutability":"view"},{"type":"function","name":"globalRiskThreshold","inputs":[],"outputs":[{"name":"","type":"uint256","internalType":"uint256"}],"stateMutability":"view"},{"type":"function","name":"initialize","inputs":[{"name":"_amttpContract","type":"address","internalType":"address"},{"name":"_oracleService","type":"address","internalType":"address"}],"outputs":[],"stateMutability":"nonpayable"},{"type":"function","name":"isTransactionAllowed","inputs":[{"name":"user","type":"address","internalType":"address"},{"name":"counterparty","type":"address","internalType":"address"},{"name":"amount","type":"uint256","internalType":"uint256"},{"name":"riskScore","type":"uint256","internalType":"uint256"}],"outputs":[{"name":"allowed","type":"bool","internalType":"bool"},{"name":"reason","type":"string","internalType":"string"}],"stateMutability":"view"},{"type":"function","name":"isTrustedUser","inputs":[{"name":"user","type":"address","internalType":"address"}],"outputs":[{"name":"","type":"bool","internalType":"bool"}],"stateMutability":"view"},{"type":"function","name":"minimumModelScore","inputs":[],"outputs":[{"name":"","type":"uint256","internalType":"uint256"}],"stateMutability":"view"},{"type":"function","name":"modelVersionScores","inputs":[{"name":"","type":"string","internalType":"string"}],"outputs":[{"name":"","type":"uint256","internalType":"uint256"}],"stateMutability":"view"},{"type":"function","name":"oracleService","inputs":[],"outputs":[{"name":"","type":"address","internalType":"address"}],"stateMutability":"view"},{"type":"function","name":"owner","inputs":[],"outputs":[{"name":"","type":"address","internalType":"address"}],"stateMutability":"view"},{"type":"function","name":"proxiableUUID","inputs":[],"outputs":[{"name":"","type":"bytes32","internalType":"bytes32"}],"stateMutability":"view"},{"type":"function","name":"removeTrustedCounterparty","inputs":[{"name":"user","type":"address","internalType":"address"},{"name":"counterparty","type":"address","internalType":"address"}],"outputs":[],"stateMutability":"nonpayable"},{"type":"function","name":"removeTrustedUser","inputs":[{"name":"user","type":"address","internalType":"address"}],"outputs":[],"stateMutability":"nonpayable"},{"type":"function","name":"renounceOwnership","inputs":[],"outputs":[],"stateMutability":"nonpayable"},{"type":"function","name":"routeToKlerosEscrow","inputs":[{"name":"txId","type":"bytes32","internalType":"bytes32"},{"name":"recipient","type":"address","internalType":"address"},{"name":"riskScore","type":"uint256","internalType":"uint256"},{"name":"evidenceURI","type":"string","internalType":"string"}],"outputs":[{"name":"success","type":"bool","internalType":"bool"}],"stateMutability":"payable"},{"type":"function","name":"setComplianceRules","inputs":[{"name":"user","type":"address","internalType":"address"},{"name":"requireKYC","type":"bool","internalType":"bool"},{"name":"requireApproval","type":"bool","internalType":"bool"},{"name":"approvalThreshold","type":"uint256","internalType":"uint256"},{"name":"approvalTimeout","type":"uint256","internalType":"uint256"},{"name":"geofencing","type":"bool","internalType":"bool"}],"outputs":[],"stateMutability":"nonpayable"},{"type":"function","name":"setDisputeResolver","inputs":[{"name":"_disputeResolver","type":"address","internalType":"address"}],"outputs":[],"stateMutability":"nonpayable"},{"type":"function","name":"setEmergencyPause","inputs":[{"name":"paused","type":"bool","internalType":"bool"}],"outputs":[],"stateMutability":"nonpayable"},{"type":"function","name":"setEscrowThreshold","inputs":[{"name":"_threshold","type":"uint256","internalType":"uint256"}],"outputs":[],"stateMutability":"nonpayable"},{"type":"function","name":"setMinimumModelScore","inputs":[{"name":"score","type":"uint256","internalType":"uint256"}],"outputs":[],"stateMutability":"nonpayable"},{"type":"function","name":"setRiskPolicy","inputs":[{"name":"user","type":"address","internalType":"address"},{"name":"thresholds","type":"uint256[4]","internalType":"uint256[4]"},{"name":"actions","type":"uint8[4]","internalType":"enum AMTTPPolicyEngine.PolicyAction[4]"},{"name":"adaptiveThresholds","type":"bool","internalType":"bool"}],"outputs":[],"stateMutability":"nonpayable"},{"type":"function","name":"setTransactionPolicy","inputs":[{"name":"user","type":"address","internalType":"address"},{"name":"maxAmount","type":"uint256","internalType":"uint256"},{"name":"dailyLimit","type":"uint256","internalType":"uint256"},{"name":"weeklyLimit","type":"uint256","internalType":"uint256"},{"name":"monthlyLimit","type":"uint256","internalType":"uint256"},{"name":"riskThreshold","type":"uint256","internalType":"uint256"},{"name":"autoApprove","type":"bool","internalType":"bool"},{"name":"cooldownPeriod","type":"uint256","internalType":"uint256"}],"outputs":[],"stateMutability":"nonpayable"},{"type":"function","name":"shouldRouteToKleros","inputs":[{"name":"riskScore","type":"uint256","internalType":"uint256"}],"outputs":[{"name":"shouldEscrow","type":"bool","internalType":"bool"}],"stateMutability":"view"},{"type":"function","name":"transferOwnership","inputs":[{"name":"newOwner","type":"address","internalType":"address"}],"outputs":[],"stateMutability":"nonpayable"},{"type":"function","name":"trustedCounterparties","inputs":[{"name":"","type":"address","internalType":"address"},{"name":"","type":"address","internalType":"address"}],"outputs":[{"name":"","type":"bool","internalType":"bool"}],"stateMutability":"view"},{"type":"function","name":"trustedUsers","inputs":[{"name":"","type":"address","internalType":"address"}],"outputs":[{"name":"","type":"bool","internalType":"bool"}],"stateMutability":"view"},{"type":"function","name":"unfreezeAccount","inputs":[{"name":"user","type":"address","internalType":"address"}],"outputs":[],"stateMutability":"nonpayable"},{"type":"function","name":"updateModelVersion","inputs":[{"name":"version","type":"string","internalType":"string"},{"name":"f1Score","type":"uint256","internalType":"uint256"}],"outputs":[],"stateMutability":"nonpayable"},{"type":"function","name":"upgradeTo","inputs":[{"name":"newImplementation","type":"address","internalType":"address"}],"outputs":[],"stateMutability":"nonpayable"},{"type":"function","name":"upgradeToAndCall","inputs":[{"name":"newImplementation","type":"address","internalType":"address"},{"name":"data","type":"bytes","internalType":"bytes"}],"outputs":[],"stateMutability":"payable"},{"type":"function","name":"userActivity","inputs":[{"name":"","type":"address","internalType":"address"}],"outputs":[{"name":"dailyVolume","type":"uint256","internalType":"uint256"},{"name":"weeklyVolume","type":"uint256","internalType":"uint256"},{"name":"monthlyVolume","type":"uint256","internalType":"uint256"},{"name":"dailyCount","type":"uint256","internalType":"uint256"},{"name":"lastTransactionTime","type":"uint256","internalType":"uint256"},{"name":"lastResetTime","type":"uint256","internalType":"uint256"},{"name":"suspiciousScore","type":"uint256","internalType":"uint256"},{"name":"frozen","type":"bool","internalType":"bool"}],"stateMutability":"view"},{"type":"function","name":"userComplianceRules","inputs":[{"name":"","type":"address","internalType":"address"}],"outputs":[{"name":"requireKYC","type":"bool","internalType":"bool"},{"name":"requireApproval","type":"bool","internalType":"bool"},{"name":"approvalThreshold","type":"uint256","internalType":"uint256"},{"name":"approvalTimeout","type":"uint256","internalType":"uint256"},{"name":"geofencing","type":"bool","internalType":"bool"}],"stateMutability":"view"},{"type":"function","name":"userPolicies","inputs":[{"name":"","type":"address","internalType":"address"}],"outputs":[{"name":"maxAmount","type":"uint256","internalType":"uint256"},{"name":"dailyLimit","type":"uint256","internalType":"uint256"},{"name":"weeklyLimit","type":"uint256","internalType":"uint256"},{"name":"monthlyLimit","type":"uint256","internalType":"uint256"},{"name":"riskThreshold","type":"uint256","internalType":"uint256"},{"name":"autoApprove","type":"bool","internalType":"bool"},{"name":"enabled","type":"bool","internalType":"bool"},{"name":"cooldownPeriod","type":"uint256","internalType":"uint256"},{"name":"lastLargeTransaction","type":"uint256","internalType":"uint256"}],"stateMutability":"view"},{"type":"function","name":"userRiskPolicies","inputs":[{"name":"","type":"address","internalType":"address"}],"outputs":[{"name":"minimalThreshold","type":"uint256","internalType":"uint256"},{"name":"lowThreshold","type":"uint256","internalType":"uint256"},{"name":"mediumThreshold","type":"uint256","internalType":"uint256"},{"name":"highThreshold","type":"uint256","internalType":"uint256"},{"name":"minimalAction","type":"uint8","internalType":"enum AMTTPPolicyEngine.PolicyAction"},{"name":"lowAction","type":"uint8","internalType":"enum AMTTPPolicyEngine.PolicyAction"},{"name":"mediumAction","type":"uint8","internalType":"enum AMTTPPolicyEngine.PolicyAction"},{"name":"highAction","type":"uint8","internalType":"enum AMTTPPolicyEngine.PolicyAction"},{"name":"adaptiveThresholds","type":"bool","internalType":"bool"}],"stateMutability":"view"},{"type":"function","name":"userVelocityLimits","inputs":[{"name":"","type":"address","internalType":"address"},{"name":"","type":"uint256","internalType":"uint256"}],"outputs":[{"name":"maxTransactions","type":"uint256","internalType":"uint256"},{"name":"maxVolume","type":"uint256","internalType":"uint256"},{"name":"window","type":"uint8","internalType":"enum AMTTPPolicyEngine.VelocityWindow"},{"name":"enabled","type":"bool","internalType":"bool"}],"stateMutability":"view"},{"type":"function","name":"validateTransaction","inputs":[{"name":"user","type":"address","internalType":"address"},{"name":"counterparty","type":"address","internalType":"address"},{"name":"amount","type":"uint256","internalType":"uint256"},{"name":"dqnRiskScore","type":"uint256","internalType":"uint256"},{"name":"modelVersion","type":"string","internalType":"string"},{"name":"kycHash","type":"bytes32","internalType":"bytes32"}],"outputs":[{"name":"action","type":"uint8","internalType":"enum AMTTPPolicyEngine.PolicyAction"},{"name":"reason","type":"string","internalType":"string"}],"stateMutability":"nonpayable"},{"type":"event","name":"AccountFrozen","inputs":[{"name":"user","type":"address","indexed":true,"internalType":"address"},{"name":"reason","type":"string","indexed":false,"internalType":"string"}],"anonymous":false},{"type":"event","name":"AccountUnfrozen","inputs":[{"name":"user","type":"address","indexed":true,"internalType":"address"}],"anonymous":false},{"type":"event","name":"AdminChanged","inputs":[{"name":"previousAdmin","type":"address","indexed":false,"internalType":"address"},{"name":"newAdmin","type":"address","indexed":false,"internalType":"address"}],"anonymous":false},{"type":"event","name":"BeaconUpgraded","inputs":[{"name":"beacon","type":"address","indexed":true,"internalType":"address"}],"anonymous":false},{"type":"event","name":"ComplianceViolation","inputs":[{"name":"user","type":"address","indexed":true,"internalType":"address"},{"name":"reason","type":"string","indexed":false,"internalType":"string"}],"anonymous":false},{"type":"event","name":"EmergencyPauseToggled","inputs":[{"name":"paused","type":"bool","indexed":false,"internalType":"bool"}],"anonymous":false},{"type":"event","name":"HighRiskAutoBlocked","inputs":[{"name":"user","type":"address","indexed":true,"internalType":"address"},{"name":"counterparty","type":"address","indexed":true,"internalType":"address"},{"name":"amount","type":"uint256","indexed":false,"internalType":"uint256"},{"name":"riskScore","type":"uint256","indexed":false,"internalType":"uint256"}],"anonymous":false},{"type":"event","name":"Initialized","inputs":[{"name":"version","type":"uint8","indexed":false,"internalType":"uint8"}],"anonymous":false},{"type":"event","name":"LowRiskAutoApproved","inputs":[{"name":"user","type":"address","indexed":true,"internalType":"address"},{"name":"counterparty","type":"address","indexed":true,"internalType":"address"},{"name":"amount","type":"uint256","indexed":false,"internalType":"uint256"},{"name":"riskScore","type":"uint256","indexed":false,"internalType":"uint256"}],"anonymous":false},{"type":"event","name":"MediumRiskFlagged","inputs":[{"name":"user","type":"address","indexed":true,"internalType":"address"},{"name":"counterparty","type":"address","indexed":true,"internalType":"address"},{"name":"amount","type":"uint256","indexed":false,"internalType":"uint256"},{"name":"riskScore","type":"uint256","indexed":false,"internalType":"uint256"}],"anonymous":false},{"type":"event","name":"ModelVersionUpdated","inputs":[{"name":"version","type":"string","indexed":false,"internalType":"string"},{"name":"f1Score","type":"uint256","indexed":false,"internalType":"uint256"}],"anonymous":false},{"type":"event","name":"OwnershipTransferred","inputs":[{"name":"previousOwner","type":"address","indexed":true,"internalType":"address"},{"name":"newOwner","type":"address","indexed":true,"internalType":"address"}],"anonymous":false},{"type":"event","name":"PolicyUpdated","inputs":[{"name":"user","type":"address","indexed":true,"internalType":"address"},{"name":"policyType","type":"string","indexed":false,"internalType":"string"}],"anonymous":false},{"type":"event","name":"RiskThresholdExceeded","inputs":[{"name":"user","type":"address","indexed":true,"internalType":"address"},{"name":"riskScore","type":"uint256","indexed":false,"internalType":"uint256"},{"name":"threshold","type":"uint256","indexed":false,"internalType":"uint256"}],"anonymous":false},{"type":"event","name":"TransactionEscrowedForDispute","inputs":[{"name":"txId","type":"bytes32","indexed":true,"internalType":"bytes32"},{"name":"user","type":"address","indexed":true,"internalType":"address"},{"name":"amount","type":"uint256","indexed":false,"internalType":"uint256"},{"name":"riskScore","type":"uint256","indexed":false,"internalType":"uint256"}],"anonymous":false},{"type":"event","name":"TransactionValidated","inputs":[{"name":"user","type":"address","indexed":true,"internalType":"address"},{"name":"counterparty","type":"address","indexed":true,"internalType":"address"},{"name":"amount","type":"uint256","indexed":false,"internalType":"uint256"},{"name":"action","type":"uint8","indexed":false,"internalType":"enum AMTTPPolicyEngine.PolicyAction"}],"anonymous":false},{"type":"event","name":"Upgraded","inputs":[{"name":"implementation","type":"address","indexed":true,"internalType":"address"}],"anonymous":false},{"type":"event","name":"VelocityLimitExceeded","inputs":[{"name":"user","type":"address","indexed":true,"internalType":"address"},{"name":"window","type":"uint8","indexed":false,"internalType":"enum AMTTPPolicyEngine.VelocityWindow"},{"name":"amount","type":"uint256","indexed":false,"internalType":"uint256"}],"anonymous":false}],"bytecode":{"object":"0x60a08060405234620000df57306080525f549060ff8260081c166200008d575060ff8082160362000052575b604051613ddc9081620000e482396080518181816114f5015281816116170152611f440152f35b60ff90811916175f557f7f26b83ff96e1f2b6a682f133852f6798a09c465da95921460cefb3847402498602060405160ff8152a15f6200002b565b62461bcd60e51b815260206004820152602760248201527f496e697469616c697a61626c653a20636f6e747261637420697320696e697469604482015266616c697a696e6760c81b6064820152608490fd5b5f80fdfe60806040526004361015610011575f80fd5b60e05f35811c806228273a146125cf5780630c3542ff14612363578063178e40e1146122d25780631a9c08a7146123105780631b13767f146122d25780631c5293531461221457806321258ecb146121a457806326327a25146120ff57806331e15192146120d75780633659cfe614611f1f5780633effed1914611c3a578063438b5c2214611c1c57806346a0d7fe14611bfe578063485cc955146119995780634c0370ab146118585780634f1ef286146115c857806351858e27146115a557806352d1902d146114e35780635ec0ba7b1461129957806365b77cef14611196578063715018a61461113b578063761d9e6814611070578063788649ea1461100857806387a2294414610f6f5780638da5cb5b14610f47578063924e63f614610eca57806399e6da3414610e3e5780639ed8762c14610e11578063a1a9389414610df3578063af866d8714610db1578063bdc5b6a614610591578063bea620dd14610d6c578063c0f345af14610cf9578063c3aabe3c14610ca8578063c881d63714610c44578063cc117be014610c26578063ce018f6414610bb5578063d02edadb14610b86578063d2f5fb5a14610b26578063d8d1a65714610ac3578063d9221a7a14610964578063d9cb8606146108c3578063daa64f951461089a578063e0f3aa1114610792578063e6dd6d5f14610754578063f0a44b7a1461069c578063f2fde38b146106c5578063f5a3f4af1461069c578063f5bd4e84146105ee578063f6d929ff146105915763fe18d46b1461024a575f80fd5b3461058d57610100908160031936011261058d57610266612653565b906024359060a4359360c4359384151580950361058d576001600160a01b0316943386148015610579575b61029a906129ba565b61010454841161053d576103e881116104ff57855f5260fb60205260405f2090600982015495604051956102cd87612763565b865260208601966044358852604087019060643582526060880192608435845260808901948552610313600661030560058901612cef565b9760a08c0198895201612cef565b60c08a01528789015260018689015260e435610120890152610140880152885f5260fb60205260405f209787518955516001890155516002880155516003870155516004860155518051906001600160401b0382116104b057600160401b82116104b05760209060058701548360058901558084106104e1575b5001600586015f5260205f205f5b8381106104c457505050506006840160c0840151908151916001600160401b0383116104b057600160401b83116104b0576020908254848455808510610495575b5001905f5260205f205f5b83811061047857888860096101408a6104338b8b61041a60078801928501511515839060ff801983541691151516179055565b830151815461ff00191690151560081b61ff0016179055565b610120810151600885015501519101555f80516020613d87833981519152606060405160208152600b60208201526a3a3930b739b0b1ba34b7b760a91b6040820152a2005b82516001600160a01b0316818301556020909201916001016103e7565b6104aa90845f5285845f209182019101612ae4565b5f6103dc565b634e487b7160e01b5f52604160045260245ffd5b82516001600160a01b03168183015560209092019160010161039b565b6104f990600589015f5284845f209182019101612ae4565b5f61038d565b60405162461bcd60e51b8152602060048201526016602482015275125b9d985b1a59081c9a5cdac81d1a1c995cda1bdb1960521b6044820152606490fd5b60405162461bcd60e51b8152602060048201526014602482015273115e18d959591cc819db1bd8985b081b1a5b5a5d60621b6044820152606490fd5b506033546001600160a01b03163314610291565b5f80fd5b3461058d57602036600319011261058d576004356001600160401b03811161058d576105da60206105c781933690600401612842565b81604051938285809451938492016126ca565b810161010981520301902054604051908152f35b503461058d57602036600319011261058d576101209061061d61060f612653565b6106176134c3565b506137ca565b60405191815183526020820151602084015260408201516040840152606082015160608401526080820151610651816126ac565b608084015260a0820151610664816126ac565b60a084015260c0820151610677816126ac565b60c0840152808201519061068a826126ac565b83015261010080910151151590820152f35b3461058d575f36600319011261058d57610107546040516001600160a01b039091168152602090f35b3461058d57602036600319011261058d576106de612653565b6106e6613566565b6001600160a01b03811615610700576106fe906135be565b005b60405162461bcd60e51b815260206004820152602660248201527f4f776e61626c653a206e6577206f776e657220697320746865207a65726f206160448201526564647265737360d01b6064820152608490fd5b3461058d57602036600319011261058d576001600160a01b03610775612653565b165f52610101602052602060ff60405f2054166040519015158152f35b503461058d57602036600319011261058d57610100906107b0612653565b5f826040516107be81612747565b8281528260208201528260408201528260608201528260808201528260a08201528260c0820152015260018060a01b03165f5260ff60205260405f209060405161080781612747565b8254928382526001810154602083019081526002820154604084019081526003830154606085019081526004840154916080860192835260058501549360a087019485528760ff600760068901549860c08b01998a52015416970196151587526040519889525160208901525160408801525160608701525160808601525160a08501525160c084015251151590820152f35b3461058d575f36600319011261058d57610106546040516001600160a01b039091168152602090f35b3461058d57604036600319011261058d576108dc612653565b6024356001600160401b03811161058d5761095f61091f7fc71267b66b2c8820cf488bba23c122cee8408eb55e75428bab72cce8d259e6b9923690600401612842565b92610928613566565b60018060a01b031692835f5260ff602052600760405f2001600160ff198254161790556040519182916020835260208301906126eb565b0390a2005b3461058d5760c036600319011261058d5761097d612653565b610985612669565b906084356001600160401b03811161058d576109a5903690600401612842565b610105546001600160a01b0390600881901c82163303610a885760ff16610a535782165f5260ff60205260ff600760405f20015416610a1d576109f39260a435926064359160443591612d7e565b90610a196040519282610a0685946126ac565b83526040602084015260408301906126eb565b0390f35b60405162461bcd60e51b815260206004820152600e60248201526d20b1b1b7bab73a10333937bd32b760911b6044820152606490fd5b60405162461bcd60e51b815260206004820152600d60248201526c14de5cdd195b481c185d5cd959609a1b6044820152606490fd5b60405162461bcd60e51b815260206004820152601360248201527213db9b1e4810535515140818dbdb9d1c9858dd606a1b6044820152606490fd5b3461058d57602036600319011261058d5760043580151580910361058d5760207fb5838f871ddee4623a406029b1a0b6013e0ec30f2dc114307f21459a800a829691610b0d613566565b61010560ff1981541660ff8316179055604051908152a1005b3461058d57602036600319011261058d57600435610b42613566565b6103e88111610b515761010b55005b60405162461bcd60e51b815260206004820152600d60248201526c496e76616c69642073636f726560981b6044820152606490fd5b3461058d575f36600319011261058d57610a19610ba16128d4565b6040519182916020835260208301906126eb565b3461058d57602036600319011261058d576001600160a01b03610bd6612653565b165f5260fe60205260a060405f2080549060018101549060ff60046003830154920154169160ff604051948181161515865260081c16151560208501526040840152606083015215156080820152f35b3461058d575f36600319011261058d57602061010354604051908152f35b3461058d57602036600319011261058d57600435610c60613566565b6103e88111610c6f5761010855005b60405162461bcd60e51b8152602060048201526011602482015270125b9d985b1a59081d1a1c995cda1bdb19607a1b6044820152606490fd5b3461058d57608036600319011261058d57610cda610cc4612653565b610ccc612669565b906064359160443591612baf565b90610a19604051928392151583526040602084015260408301906126eb565b3461058d57604036600319011261058d57610d12612653565b610d1a612669565b906001600160a01b039081163381148015610d5f575b610d39906129ba565b5f5261010060205260405f2091165f5260205260405f20600160ff198254161790555f80f35b5060335482163314610d30565b3461058d57602036600319011261058d57610d85612653565b610d8d613566565b6001600160a01b03165f90815261010260205260409020805460ff19166001179055005b3461058d57602036600319011261058d57610dca612653565b610dd2613566565b6001600160a01b03165f90815261010260205260409020805460ff19169055005b3461058d575f36600319011261058d57602061010454604051908152f35b3461058d575f36600319011261058d576101055460405160089190911c6001600160a01b03168152602090f35b503461058d57602036600319011261058d57610100906001600160a01b03610e64612653565b165f5260ff60205260405f20908154916001810154906002810154600382015460048301549060058401549260ff600760068701549601541695604051988952602089015260408801526060870152608086015260a085015260c0840152151590820152f35b3461058d57602036600319011261058d57610ee3612653565b610eeb613566565b6001600160a01b03168015610f105761010780546001600160a01b0319169091179055005b60405162461bcd60e51b815260206004820152600f60248201526e496e76616c6964206164647265737360881b6044820152606490fd5b3461058d575f36600319011261058d576033546040516001600160a01b039091168152602090f35b503461058d57602036600319011261058d57610120906001600160a01b03610f95612653565b165f5260fb60205260405f209081549160018101549160ff600283015460038401546004850154906007860154926009600888015497015497604051998a5260208a0152604089015260608801526080870152818116151560a087015260081c16151560c0850152830152610100820152f35b3461058d57602036600319011261058d57611021612653565b611029613566565b6001600160a01b03165f81815260ff60205260408120600701805460ff191690557ff915cd9fe234de6e8d3afe7bf2388d35b2b6d48e8c629a24602019bde79c213a9080a2005b503461058d57602036600319011261058d5761109b61108d612653565b611095612afa565b50613606565b6040519182916020835280516020840152602081015160408401526040810151606084015260608101516080840152608081015160a084015260a08101519061110a6110f5610160938460c0880152610180870190612860565b60c0830151868203601f190186880152612860565b9281015161010090151581860152810151610120901515818601528101519061014091828601520151908301520390f35b3461058d575f36600319011261058d57611153613566565b603380546001600160a01b031981169091555f906001600160a01b03167f8be0079c531659141344cd1fd0a4f28419497f9722a3daafe3b4186f6b6457e08280a3005b3461058d5760c036600319011261058d576111af612653565b602435801515810361058d57604435801515810361058d5760a43590811515820361058d57611257926112356004926111fd60018060a01b038098169788331490811561128b575b506129ba565b865f5260fe60205261121f60405f2093849060ff801983541691151516179055565b825461ff00191690151560081b61ff0016178255565b60643560018201556084356003820155019060ff801983541691151516179055565b5f80516020613d87833981519152606060405160208152600a602082015269636f6d706c69616e636560b01b6040820152a2005b9050603354163314896111f7565b3461058d57604036600319011261058d576001600160401b0360043581811161058d576112ca903690600401612842565b61010654602435906112f090336001600160a01b03918216149081156114d557506129ba565b61010b54811061149057604051928184845160209681611314899383858b016126ca565b81016101098152030190205582519081116104b05761010a90611337825461289c565b601f811161144c575b5084601f82116001146113ba5791816113a69594927f6c6d39c8f186634456713997582082ddfa184ced26a90511fb8422c9c0795f5f97945f916113af575b508160011b915f199060031b1c19161790555b6040519384936040855260408501906126eb565b918301520390a1005b90508501518861137f565b601f19821690835f525f80516020613d67833981519152915f5b8181106114355750927f6c6d39c8f186634456713997582082ddfa184ced26a90511fb8422c9c0795f5f979492600192826113a69998961061141d575b5050811b019055611392565b8701515f1960f88460031b161c191690558880611411565b91928860018192868b0151815501940192016113d4565b61148090835f525f80516020613d67833981519152601f840160051c810191888510611486575b601f0160051c0190612ae4565b85611340565b9091508190611473565b60405162461bcd60e51b815260206004820152601960248201527f4d6f64656c20706572666f726d616e636520746f6f206c6f77000000000000006044820152606490fd5b9050603354163314856111f7565b3461058d575f36600319011261058d577f00000000000000000000000000000000000000000000000000000000000000006001600160a01b0316300361153a5760206040515f80516020613d478339815191528152f35b60405162461bcd60e51b815260206004820152603860248201527f555550535570677261646561626c653a206d757374206e6f742062652063616c60448201527f6c6564207468726f7567682064656c656761746563616c6c00000000000000006064820152608490fd5b3461058d575f36600319011261058d57602060ff61010554166040519015158152f35b604036600319011261058d576115dc612653565b6024356001600160401b03811161058d573660238201121561058d5761160c90369060248160040135910161280c565b906001600160a01b037f000000000000000000000000000000000000000000000000000000000000000081169061164530831415612a22565b6116615f80516020613d47833981519152928284541614612a83565b611669613566565b7f4910fdfa16fed3260ed0e7147f7cc6da11a60208b5b9406d12a635614ffd91435460ff161561169f5750506106fe9150613c1a565b6040516352d1902d60e01b81526020939291831691908481600481865afa5f9181611829575b506117265760405162461bcd60e51b815260048101869052602e60248201527f45524331393637557067726164653a206e657720696d706c656d656e7461746960448201526d6f6e206973206e6f74205555505360901b6064820152608490fd5b036117d25761173482613c1a565b7fbc7cd75a20ee27fd9adebab32041f755214dbc6bffa90cc0225b39da2e5c2d3b5f80a28251158015906117ca575b61176957005b5f806106fe946040519461177c8661279a565b602786527f416464726573733a206c6f772d6c6576656c2064656c65676174652063616c6c81870152660819985a5b195960ca1b604087015281519101845af46117c461298b565b91613ca9565b506001611763565b60405162461bcd60e51b815260048101849052602960248201527f45524331393637557067726164653a20756e737570706f727465642070726f786044820152681a58589b195555525160ba1b6064820152608490fd5b9091508581813d8311611851575b61184181836127d0565b8101031261058d575190876116c5565b503d611837565b3461058d57608036600319011261058d57611871612653565b606435600481101561058d576001600160a01b039182169161189d9033841490811561198b57506129ba565b815f5260fd60205260405f2090604051916118b783612710565b60243583526020830192604435845260408101926118d4816126ac565b83526060810191600183528054600160401b8110156104b0576118fc9160018201815561267f565b611978576119469460029251825551600182015501915161191c816126ac565b611925816126ac565b8254915161ffff1990921660ff919091161790151560081b61ff0016179055565b5f80516020613d87833981519152606060405160208152600860208201526776656c6f6369747960c01b6040820152a2005b634e487b7160e01b5f525f60045260245ffd5b9050603354163314846111f7565b3461058d57604036600319011261058d576119b2612653565b6119ba612669565b5f549060ff8260081c161592838094611bf1575b8015611bda575b15611b7e5760019284600160ff198316175f55611b6d575b50611a0760ff5f5460081c16611a0281613506565b613506565b611a10336135be565b611a2d60ff5f5460081c16611a2481613506565b611a0281613506565b600160c9556101058054610100600160a81b03191660089290921b610100600160a81b031691909117905561010680546001600160a01b0319166001600160a01b039092169190911790556102bc6101035568056bc75e2d631000006101045561010a8054909190611a9e9061289c565b601f8111611b3a575b50507f44514e2d76312e302d7265616c2d667261756400000000000000000000000026905561029d61010b819055604051721114538b5d8c4b8c0b5c99585b0b599c985d59606a1b815261010960138201526033902055611b0457005b61ff00195f54165f557f7f26b83ff96e1f2b6a682f133852f6798a09c465da95921460cefb3847402498602060405160018152a1005b825f52601f5f80516020613d67833981519152910160051c8101905b818110611b635750611aa7565b5f81558201611b56565b61ffff1916610101175f55846119ed565b60405162461bcd60e51b815260206004820152602e60248201527f496e697469616c697a61626c653a20636f6e747261637420697320616c72656160448201526d191e481a5b9a5d1a585b1a5e995960921b6064820152608490fd5b50303b1580156119d55750600160ff8416146119d5565b50600160ff8416106119ce565b3461058d575f36600319011261058d57602061010b54604051908152f35b3461058d575f36600319011261058d57602061010854604051908152f35b503461058d5761014036600319011261058d57611c55612653565b90366043121561058d57604051611c6b81612710565b60a48136821161058d576024905b828210611f0f575050503660c3121561058d5760405191611c9983612710565b6101248336821161058d5760a4905b828210611ef65750503580151580910361058d576001600160a01b0394851694611cdc90338714908115611ee857506129ba565b8251916020948585019384518091109081611eda575b5080611ec9575b15611e8f57845193519360408601519560600151825196611d19886126ac565b8884015196611d27886126ac565b604085015194611d36866126ac565b6060015195611d44876126ac565b60405194611d518661272b565b85528a850191825260408501928352606085019384526080850199611d75816126ac565b8a5260a0850198611d85816126ac565b895260c0850195611d95816126ac565b8652840195611da3816126ac565b865261010084019687528a5f5260fc8a5260405f2093518455516001840155516002830155516003820155600401945193611ddd856126ac565b611de6856126ac565b8554905191611df4836126ac565b611dfd836126ac565b5192611e08846126ac565b611e11846126ac565b5193611e1c856126ac565b611e25856126ac565b511515871b64ff00000000169460ff169064ffffffffff1916179060081b61ff0016179060101b62ff000016179060181b63ff00000016171790556040519080825281016004905260408101637269736b60e01b905260605f80516020613d8783398151915291a2005b60405162461bcd60e51b8152600481018790526012602482015271496e76616c6964207468726573686f6c647360701b6044820152606490fd5b506040850151606086015111611cf9565b90506040860151115f611cf2565b90506033541633145f6111f7565b8135600481101561058d57815260209182019101611ca8565b8135815260209182019101611c79565b3461058d5760208060031936011261058d57611f39612653565b6001600160a01b03917f00000000000000000000000000000000000000000000000000000000000000008316611f7130821415612a22565b611f8d5f80516020613d47833981519152918583541614612a83565b611f95613566565b60405193611fa28561277f565b5f85527f4910fdfa16fed3260ed0e7147f7cc6da11a60208b5b9406d12a635614ffd91435460ff1615611fdc575050506106fe9150613c1a565b83929316906040516352d1902d60e01b81528481600481865afa5f91816120a8575b5061205f5760405162461bcd60e51b815260048101869052602e60248201527f45524331393637557067726164653a206e657720696d706c656d656e7461746960448201526d6f6e206973206e6f74205555505360901b6064820152608490fd5b036117d25761206d82613c1a565b7fbc7cd75a20ee27fd9adebab32041f755214dbc6bffa90cc0225b39da2e5c2d3b5f80a28251158015906120a15761176957005b505f611763565b9091508581813d83116120d0575b6120c081836127d0565b8101031261058d57519087611ffe565b503d6120b6565b3461058d57602036600319011261058d5760206120f56004356129f5565b6040519015158152f35b3461058d575f36600319011261058d5760608060405161211e81612710565b5f81525f60208201525f6040820152015260ff61010554161561010354610a196040519161214b83612710565b30835260208301938452604083019081526121646128d4565b90606084019182526040519485946020865260018060a01b03905116602086015251151560408501525160608401525160808084015260a08301906126eb565b3461058d57604036600319011261058d576121bd612653565b6121c5612669565b906001600160a01b039081163381148015612207575b6121e4906129ba565b5f5261010060205260405f2091165f5260205260405f2060ff1981541690555f80f35b50603354821633146121db565b503461058d57602036600319011261058d57610120906001600160a01b0361223a612653565b165f5260fc60205260ff60405f2080549260018201549060028301546004600385015494015493858516868660081c1691878760101c1693888860181c16966040519a8b5260208b015260408a01526060890152612297816126ac565b60808801526122a5816126ac565b60a08701526122b3816126ac565b60c08601526122c1826126ac565b84015260201c161515610100820152f35b3461058d57602036600319011261058d576001600160a01b036122f3612653565b165f52610102602052602060ff60405f2054166040519015158152f35b3461058d57604036600319011261058d57612329612653565b612331612669565b9060018060a01b038091165f5261010060205260405f2091165f52602052602060ff60405f2054166040519015158152f35b608036600319011261058d5760043561237a612669565b90604480359260649182356001600160401b0380821161058d573660238301121561058d57816004013590811161058d576024933685838501011161058d57600260c9541461258c57600260c955610107546001600160a01b0390811693909290841561254a57341561251857610108548a106124df579261245660c45f9694848c958b8f998b9a8f8e6040519a8b9860208a019d8e63a333ac2760e01b9052878b01521690880152860152608060848601528260a4860152018484013787838284010152601f801991011681010360a48101845201826127d0565b519134905af161246461298b565b50156124af575050506040519134835260208301527f9aa0f40ccfed94ed34144b9fe1a3ca791dd3d89c58e9d384ea00729bd4e99e5960403393a3600160c955602060405160018152f35b6c115cd8dc9bddc819985a5b1959609a1b90600d6040519362461bcd60e51b855260206004860152840152820152fd5b60405162461bcd60e51b81526020600482015260148189015273149a5cdac818995b1bddc81d1a1c995cda1bdb1960621b818801528890fd5b60405162461bcd60e51b815260206004820152600d818901526c139bc8199d5b991cc81cd95b9d609a1b818801528890fd5b60405162461bcd60e51b8152602060048201526018818901527f44697370757465207265736f6c766572206e6f74207365740000000000000000818801528890fd5b5050507f5265656e7472616e637947756172643a207265656e7472616e742063616c6c0090601f6040519362461bcd60e51b855260206004860152840152820152fd5b3461058d57604036600319011261058d576125e8612653565b6001600160a01b03165f90815260fd602052604090208054602435919082101561058d576080916126189161267f565b5060ff8154916002600182015491015490828216906040519485526020850152612641816126ac565b604084015260081c1615156060820152f35b600435906001600160a01b038216820361058d57565b602435906001600160a01b038216820361058d57565b8054821015612698575f52600360205f20910201905f90565b634e487b7160e01b5f52603260045260245ffd5b600411156126b657565b634e487b7160e01b5f52602160045260245ffd5b5f5b8381106126db5750505f910152565b81810151838201526020016126cc565b90602091612704815180928185528580860191016126ca565b601f01601f1916010190565b608081019081106001600160401b038211176104b057604052565b61012081019081106001600160401b038211176104b057604052565b61010081019081106001600160401b038211176104b057604052565b61016081019081106001600160401b038211176104b057604052565b602081019081106001600160401b038211176104b057604052565b606081019081106001600160401b038211176104b057604052565b604081019081106001600160401b038211176104b057604052565b90601f801991011681019081106001600160401b038211176104b057604052565b6001600160401b0381116104b057601f01601f191660200190565b929192612818826127f1565b9161282660405193846127d0565b82948184528183011161058d578281602093845f960137010152565b9080601f8301121561058d5781602061285d9335910161280c565b90565b9081518082526020808093019301915f5b82811061287f575050505090565b83516001600160a01b031685529381019392810192600101612871565b90600182811c921680156128ca575b60208310146128b657565b634e487b7160e01b5f52602260045260245ffd5b91607f16916128ab565b604051905f8261010a918254926128ea8461289c565b808452936020916001918281169081156129655750600114612918575b505050612916925003836127d0565b565b5f9081525f80516020613d678339815191529590935091905b82841061294d57506129169450505081016020015f8080612907565b85548885018301529485019487945092810192612931565b925050506020925061291694915060ff191682840152151560051b8201015f8080612907565b3d156129b5573d9061299c826127f1565b916129aa60405193846127d0565b82523d5f602084013e565b606090565b156129c157565b60405162461bcd60e51b815260206004820152600c60248201526b155b985d5d1a1bdc9a5e995960a21b6044820152606490fd5b610107546001600160a01b031615612a1d5761010854908115612a1757101590565b50505f90565b505f90565b15612a2957565b60405162461bcd60e51b815260206004820152602c60248201527f46756e6374696f6e206d7573742062652063616c6c6564207468726f7567682060448201526b19195b1959d85d1958d85b1b60a21b6064820152608490fd5b15612a8a57565b60405162461bcd60e51b815260206004820152602c60248201527f46756e6374696f6e206d7573742062652063616c6c6564207468726f7567682060448201526b6163746976652070726f787960a01b6064820152608490fd5b818110612aef575050565b5f8155600101612ae4565b60405190612b0782612763565b5f61014083828152826020820152826040820152826060820152826080820152606060a0820152606060c08201528260e082015282610100820152826101208201520152565b60405190612b5a826127b5565b6016825275115e18d959591cc81b585e1a5b5d5b48185b5bdd5b9d60521b6020830152565b60405190612b8c826127b5565b6014825273426c6f636b656420636f756e746572706172747960601b6020830152565b9160ff6101055416612cc05760018060a01b0383165f5260ff60205260ff600760405f20015416612c9057612be383613606565b5110612c8357612bf3908261376f565b612c7757600391612c06612c0c926137ca565b906138d4565b612c15816126ac565b14612c4c57600190604051612c29816127b5565b6013815272151c985b9cd858dd1a5bdb88185b1b1bddd959606a1b602082015290565b5f90604051612c5a816127b5565b600d81526c0a4d2e6d640e8dede40d0d2ced609b1b602082015290565b50505f9061285d612b7f565b5050505f9061285d612b4d565b505050505f90604051612ca2816127b5565b600e81526d20b1b1b7bab73a10333937bd32b760911b602082015290565b505050505f90604051612cd2816127b5565b600d81526c14de5cdd195b481c185d5cd959609a1b602082015290565b90604051918281549182825260209260208301915f5260205f20935f905b828210612d2357505050612916925003836127d0565b85546001600160a01b031684526001958601958895509381019390910190612d0d565b6001600160401b0381116104b05760051b60200190565b91908201809211612d6a57565b634e487b7160e01b5f52601160045260245ffd5b92909395949560018060a01b03841693845f5260ff60205260405f20600581018054620151808101809111612d6a574210156134b2575b5462093a808101808211612d6a574210156134a7575b62278d008101809111612d6a5742101561349c575b612deb858254612d5d565b815560018101612dfc868254612d5d565b905560028101612e0d868254612d5d565b90556003928382019081549260018401809411612d6a57612e45936020935560044291015581604051938285809451938492016126ca565b81016101098152030190205461010b541161345757612e6381613606565b91612e6d826137ca565b98865f5260fe60205260405f20926040519360e08501908582106001600160401b038311176104b05760059160405260ff81548181161515885260081c161515602087015260018101546040870152612ec860028201612cef565b606087015284810154608087015260ff600482015416151560a087015201805490612ef282612d46565b91612f0060405193846127d0565b80835260208301915f5260205f20915f905b8282106133b4575050505060c0850152845187116133a057612f348782613927565b1561335b5788612f439161376f565b6133485782511515908161333f575b5061330d57612f6189856138d4565b98612f6b8a6126ac565b818a14613242575050612f7d886126ac565b600188146131b8576020810151151590816131a9575b5061316657805160011c8310159081613147575b5061310c57825f5261010060205260405f209360018060a01b031693845f5260205260ff60405f205416806130fc575b6130f4575b612fe5866126ac565b851561302e575060407ff39b635119f03b78e4d615358d086f8004603b1e9dbc54c1c0dc59d11ddfb0d191815190815261301e876126ac565b866020820152a361285d82613b0d565b838380959697507f8980da75d456d3dbaa492c7ed182c82fbceda0fee2725bbe404ac82c5453c59660408095947ff39b635119f03b78e4d615358d086f8004603b1e9dbc54c1c0dc59d11ddfb0d1975f5260fb602052815f20805460011c8710156130e8575b508151908682526020820152a381519081525f6020820152a35f906040516130bb816127b5565b601781527f4c4f575f5249534b3a204175746f2d617070726f766564000000000000000000602082015290565b6009429101555f613094565b5f9550612fdc565b50613106866126ac565b5f612fd7565b505050509050600190604051613121816127b5565b6016815275436f6f6c646f776e20706572696f642061637469766560501b602082015290565b61315e915061012061014082015191015190612d5d565b42105f612fa7565b5050505050905060019060405161317c816127b5565b601881527f4d616e75616c20617070726f76616c2072657175697265640000000000000000602082015290565b6040915001518310155f612f93565b5050604091949550927fb6ee2bd6949bb8c69b8ae2997d150cf624d0fd1215e6159c64c40b48ab1bed0592938251958652602086015260018060a01b031693a36001906040516132078161279a565b602581527f4d454449554d5f5249534b3a20466c616767656420666f722068756d616e2072602082015264657669657760d81b604082015290565b9150969750604093849250857f13f524146d9a98295f3551bbf424e2ff0966628c6ec65cbbebd14a8301cab178847f9b1017599778de46303ad2af7269bf9ca425dff04361368238007c9c2a83b3d49899815194855287602086015260018060a01b031693a3015182519182526020820152a2906040516132c28161279a565b603581527f484947485f5249534b3a204175746f2d626c6f636b6564202d20726f75746520602082015274746f204b6c65726f7320666f72206469737075746560581b604082015290565b96975050505050505090604051613323816127b5565b600c81526b12d650c81c995c5d5a5c995960a21b602082015290565b9050155f612f52565b509697505050505050509061285d612b7f565b505096975050505050505090604051613373816127b5565b601781527f56656c6f63697479206c696d6974206578636565646564000000000000000000602082015290565b50509697505050505050509061285d612b4d565b6040515f85546133c38161289c565b808452906001811690811561343457506001146133fd575b50600192826133ef859460209403826127d0565b815201940191019092612f12565b5f878152602081209092505b81831061341e575050810160200160016133db565b6001816020925483868801015201920191613409565b60ff191660208581019190915291151560051b84019091019150600190506133db565b60405162461bcd60e51b815260206004820152601a60248201527f4d6f64656c2076657273696f6e206e6f7420617070726f7665640000000000006044820152606490fd5b5f6002820155612de0565b5f6001830155612dcb565b5f82555f6003830155428155612db5565b604051906134d08261272b565b5f610100838281528260208201528260408201528260608201528260808201528260a08201528260c08201528260e08201520152565b1561350d57565b60405162461bcd60e51b815260206004820152602b60248201527f496e697469616c697a61626c653a20636f6e7472616374206973206e6f74206960448201526a6e697469616c697a696e6760a81b6064820152608490fd5b6033546001600160a01b0316330361357a57565b606460405162461bcd60e51b815260206004820152602060248201527f4f776e61626c653a2063616c6c6572206973206e6f7420746865206f776e65726044820152fd5b603380546001600160a01b039283166001600160a01b0319821681179092559091167f8be0079c531659141344cd1fd0a4f28419497f9722a3daafe3b4186f6b6457e05f80a3565b61360e612afa565b5060018060a01b03165f5260fb6020526040805f2090805161362f81612763565b8254815260018301546020820152600283015482820152600383015460608201526004830154608082015261366660058401612cef565b60a082015261367760068401612cef565b60c082015260078301549260ff8416151560e083015260ff6101009460081c161593841581840152600960088301549261012093848601520154926101409384820152946136c7575b5050505090565b839450906001610e10925f95516136dd8161277f565b8681528751906136ec8261277f565b878252680ad78ebc5ac62000008951996137058b612763565b678ac7230489e800008b526802b5e3af16b188000060208c01528a0152681b1ae4d6e2ef50000060608a01526102bc60808a015260a089015260c08801528160e08801528601528401528201525f8080806136c0565b80518210156126985760209160051b010190565b9060018060a01b038092165f5260fb602052613790600660405f2001612cef565b915f5b83518110156137c257816137a7828661375b565b5116828416146137b957600101613793565b50505050600190565b505050505f90565b6137d26134c3565b5060018060a01b03165f5260fc60205260405f206040516137f28161272b565b81548152600182015460208201526002820154604082015260046003830154926060830193845201549060ff8216613829816126ac565b608082015260ff8260081c1661383e816126ac565b60a082015260ff8260101c16613853816126ac565b60c082015260ff8260181c16613868816126ac565b60e082015260ff6101009260201c16151582820152915115613888575090565b90505f604051916138988361272b565b60c8835261019060208401526102bc60408401526103e860608401528160808401528160a0840152600160c0840152600360e084015282015290565b815181116138ea57506080015161285d816126ac565b60208201518111613903575060a0015161285d816126ac565b60408201511061391a5760c0015161285d816126ac565b60e0015161285d816126ac565b60018060a01b031690815f5260209160fd8352604090815f2090815461394c81612d46565b92613959855194856127d0565b8184525f908152868120878086015b848410613abd5750505050505f5260ff8452815f209082519461398a86612747565b8254865260019586958685015483830152600285015486830152600385015495606080840197885260ff600760049860048101546080880152600581015460a0880152600681015460c0880152015416151560e0850152885f905b6139f7575b5050505050505050505090565b8651811015613ab8578982613a0c838a61375b565b51015115613ab25783613a1f838a61375b565b510151613a2b816126ac565b613a34816126ac565b14613a44575b89905b01896139e5565b9850613a51838551612d5d565b85613a5c8b8961375b565b510151108015613a80575b613a72578998613a3a565b505050505050505050505f90565b5087518a8101809111613a9f57613a978a8861375b565b515110613a67565b601188634e487b7160e01b5f525260245ffd5b90613a3d565b6139ea565b6001916003918951613ace81612710565b855481528486015483820152600286015460ff90818116613aee816126ac565b8d84015260081c16151560608201528152019201920191908890613968565b613b16816126ac565b8015613bea57613b25816126ac565b60018114613bb05780613b396002926126ac565b14613b7757604051613b4a816127b5565b601881527f566572792068696768207269736b202d20626c6f636b65640000000000000000602082015290565b604051613b83816127b5565b601b81527f48696768207269736b202d20657363726f772072657175697265640000000000602082015290565b50604051613bbd816127b5565b601d81527f4d656469756d207269736b202d20726576696577207265717569726564000000602082015290565b50604051613bf7816127b5565b6013815272131bddc81c9a5cdac80b48185c1c1c9bdd9959606a1b602082015290565b803b15613c4e575f80516020613d4783398151915280546001600160a01b0319166001600160a01b03909216919091179055565b60405162461bcd60e51b815260206004820152602d60248201527f455243313936373a206e657720696d706c656d656e746174696f6e206973206e60448201526c1bdd08184818dbdb9d1c9858dd609a1b6064820152608490fd5b91929015613d0b5750815115613cbd575090565b3b15613cc65790565b60405162461bcd60e51b815260206004820152601d60248201527f416464726573733a2063616c6c20746f206e6f6e2d636f6e74726163740000006044820152606490fd5b825190915015613d1e5750805190602001fd5b60405162461bcd60e51b815260206004820152908190613d429060248301906126eb565b0390fdfe360894a13ba1a3210667c828492db98dca3e2076cc3735a920a3ca505d382bbcc588bd85af64879c0999911852d2549e38c750e7e4e194eb8891b0913e93b12caf8f5e7b5d5f186ebd11ced07ae4d20d38169546b7e3ebc70c37472674bed204a2646970667358221220dfb3c643f2be0043459895778dced0be9ef3930089bd1d8104bdf84c8ceaa60864736f6c63430008180033","linkReferences":{}},"methodIdentifiers":{"activeModelVersion()":"d02edadb","addTrustedCounterparty(address,address)":"c0f345af","addTrustedUser(address)":"bea620dd","addVelocityLimit(address,uint256,uint256,uint8)":"4c0370ab","amttpContract()":"9ed8762c","disputeResolver()":"f5a3f4af","emergencyPause()":"51858e27","escrowThreshold()":"438b5c22","freezeAccount(address,string)":"d9cb8606","getDisputeResolver()":"f0a44b7a","getModelPerformance(string)":"f6d929ff","getPolicyEngineStatus()":"26327a25","getUserActivity(address)":"e0f3aa11","getUserPolicy(address)":"761d9e68","getUserRiskPolicy(address)":"f5bd4e84","globalApprovers(address)":"e6dd6d5f","globalMaxAmount()":"a1a93894","globalRiskThreshold()":"cc117be0","initialize(address,address)":"485cc955","isTransactionAllowed(address,address,uint256,uint256)":"c3aabe3c","isTrustedUser(address)":"1b13767f","minimumModelScore()":"46a0d7fe","modelVersionScores(string)":"bdc5b6a6","oracleService()":"daa64f95","owner()":"8da5cb5b","proxiableUUID()":"52d1902d","removeTrustedCounterparty(address,address)":"21258ecb","removeTrustedUser(address)":"af866d87","renounceOwnership()":"715018a6","routeToKlerosEscrow(bytes32,address,uint256,string)":"0c3542ff","setComplianceRules(address,bool,bool,uint256,uint256,bool)":"65b77cef","setDisputeResolver(address)":"924e63f6","setEmergencyPause(bool)":"d8d1a657","setEscrowThreshold(uint256)":"c881d637","setMinimumModelScore(uint256)":"d2f5fb5a","setRiskPolicy(address,uint256[4],uint8[4],bool)":"3effed19","setTransactionPolicy(address,uint256,uint256,uint256,uint256,uint256,bool,uint256)":"fe18d46b","shouldRouteToKleros(uint256)":"31e15192","transferOwnership(address)":"f2fde38b","trustedCounterparties(address,address)":"1a9c08a7","trustedUsers(address)":"178e40e1","unfreezeAccount(address)":"788649ea","updateModelVersion(string,uint256)":"5ec0ba7b","upgradeTo(address)":"3659cfe6","upgradeToAndCall(address,bytes)":"4f1ef286","userActivity(address)":"99e6da34","userComplianceRules(address)":"ce018f64","userPolicies(address)":"87a22944","userRiskPolicies(address)":"1c529353","userVelocityLimits(address,uint256)":"0028273a","validateTransaction(address,address,uint256,uint256,string,bytes32)":"d9221a7a"},"id":12}