{"abi":[{"type":"constructor","inputs":[],"stateMutability":"nonpayable"},{"type":"function","name":"allowance","inputs":[{"name":"owner","type":"address","internalType":"address"},{"name":"spender","type":"address","internalType":"address"}],"outputs":[{"name":"","type":"uint256","internalType":"uint256"}],"stateMutability":"view"},{"type":"function","name":"approve","inputs":[{"name":"spender","type":"address","internalType":"address"},{"name":"amount","type":"uint256","internalType":"uint256"}],"outputs":[{"name":"","type":"bool","internalType":"bool"}],"stateMutability":"nonpayable"},{"type":"function","name":"authorizedOracles","inputs":[{"name":"","type":"address","internalType":"address"}],"outputs":[{"name":"","type":"bool","internalType":"bool"}],"stateMutability":"view"},{"type":"function","name":"balanceOf","inputs":[{"name":"account","type":"address","internalType":"address"}],"outputs":[{"name":"","type":"uint256","internalType":"uint256"}],"stateMutability":"view"},{"type":"function","name":"canTransfer","inputs":[{"name":"user","type":"address","internalType":"address"},{"name":"to","type":"address","internalType":"address"},{"name":"amount","type":"uint256","internalType":"uint256"}],"outputs":[{"name":"","type":"bool","internalType":"bool"}],"stateMutability":"view"},{"type":"function","name":"decimals","inputs":[],"outputs":[{"name":"","type":"uint8","internalType":"uint8"}],"stateMutability":"view"},{"type":"function","name":"decreaseAllowance","inputs":[{"name":"spender","type":"address","internalType":"address"},{"name":"subtractedValue","type":"uint256","internalType":"uint256"}],"outputs":[{"name":"","type":"bool","internalType":"bool"}],"stateMutability":"nonpayable"},{"type":"function","name":"getTransaction","inputs":[{"name":"txId","type":"bytes32","internalType":"bytes32"}],"outputs":[{"name":"","type":"tuple","internalType":"struct AMTTP.Transaction","components":[{"name":"from","type":"address","internalType":"address"},{"name":"to","type":"address","internalType":"address"},{"name":"amount","type":"uint256","internalType":"uint256"},{"name":"timestamp","type":"uint256","internalType":"uint256"},{"name":"riskScore","type":"uint256","internalType":"uint256"},{"name":"status","type":"uint8","internalType":"uint8"},{"name":"dataHash","type":"bytes32","internalType":"bytes32"}]}],"stateMutability":"view"},{"type":"function","name":"getUserProfile","inputs":[{"name":"user","type":"address","internalType":"address"}],"outputs":[{"name":"","type":"tuple","internalType":"struct AMTTP.UserProfile","components":[{"name":"totalTransactions","type":"uint256","internalType":"uint256"},{"name":"totalVolume","type":"uint256","internalType":"uint256"},{"name":"lastActivity","type":"uint256","internalType":"uint256"},{"name":"reputationScore","type":"uint8","internalType":"uint8"},{"name":"isActive","type":"bool","internalType":"bool"}]}],"stateMutability":"view"},{"type":"function","name":"increaseAllowance","inputs":[{"name":"spender","type":"address","internalType":"address"},{"name":"addedValue","type":"uint256","internalType":"uint256"}],"outputs":[{"name":"","type":"bool","internalType":"bool"}],"stateMutability":"nonpayable"},{"type":"function","name":"initialize","inputs":[{"name":"name","type":"string","internalType":"string"},{"name":"symbol","type":"string","internalType":"string"},{"name":"initialSupply","type":"uint256","internalType":"uint256"}],"outputs":[],"stateMutability":"nonpayable"},{"type":"function","name":"kycVerified","inputs":[{"name":"","type":"address","internalType":"address"}],"outputs":[{"name":"","type":"bool","internalType":"bool"}],"stateMutability":"view"},{"type":"function","name":"name","inputs":[],"outputs":[{"name":"","type":"string","internalType":"string"}],"stateMutability":"view"},{"type":"function","name":"owner","inputs":[],"outputs":[{"name":"","type":"address","internalType":"address"}],"stateMutability":"view"},{"type":"function","name":"pause","inputs":[],"outputs":[],"stateMutability":"nonpayable"},{"type":"function","name":"paused","inputs":[],"outputs":[{"name":"","type":"bool","internalType":"bool"}],"stateMutability":"view"},{"type":"function","name":"policyManager","inputs":[],"outputs":[{"name":"","type":"address","internalType":"contract IAMTTPPolicyManager"}],"stateMutability":"view"},{"type":"function","name":"policyValidationEnabled","inputs":[],"outputs":[{"name":"","type":"bool","internalType":"bool"}],"stateMutability":"view"},{"type":"function","name":"proxiableUUID","inputs":[],"outputs":[{"name":"","type":"bytes32","internalType":"bytes32"}],"stateMutability":"view"},{"type":"function","name":"releaseEscrow","inputs":[{"name":"txId","type":"bytes32","internalType":"bytes32"},{"name":"approve","type":"bool","internalType":"bool"}],"outputs":[],"stateMutability":"nonpayable"},{"type":"function","name":"renounceOwnership","inputs":[],"outputs":[],"stateMutability":"nonpayable"},{"type":"function","name":"secureTransfer","inputs":[{"name":"to","type":"address","internalType":"address"},{"name":"amount","type":"uint256","internalType":"uint256"},{"name":"dataHash","type":"bytes32","internalType":"bytes32"}],"outputs":[{"name":"txId","type":"bytes32","internalType":"bytes32"}],"stateMutability":"nonpayable"},{"type":"function","name":"setOracle","inputs":[{"name":"oracle","type":"address","internalType":"address"},{"name":"authorized","type":"bool","internalType":"bool"}],"outputs":[],"stateMutability":"nonpayable"},{"type":"function","name":"setPolicyManager","inputs":[{"name":"_policyManager","type":"address","internalType":"address"}],"outputs":[],"stateMutability":"nonpayable"},{"type":"function","name":"submitRiskScore","inputs":[{"name":"txId","type":"bytes32","internalType":"bytes32"},{"name":"riskScore","type":"uint256","internalType":"uint256"}],"outputs":[],"stateMutability":"nonpayable"},{"type":"function","name":"symbol","inputs":[],"outputs":[{"name":"","type":"string","internalType":"string"}],"stateMutability":"view"},{"type":"function","name":"totalSupply","inputs":[],"outputs":[{"name":"","type":"uint256","internalType":"uint256"}],"stateMutability":"view"},{"type":"function","name":"transactions","inputs":[{"name":"","type":"bytes32","internalType":"bytes32"}],"outputs":[{"name":"from","type":"address","internalType":"address"},{"name":"to","type":"address","internalType":"address"},{"name":"amount","type":"uint256","internalType":"uint256"},{"name":"timestamp","type":"uint256","internalType":"uint256"},{"name":"riskScore","type":"uint256","internalType":"uint256"},{"name":"status","type":"uint8","internalType":"uint8"},{"name":"dataHash","type":"bytes32","internalType":"bytes32"}],"stateMutability":"view"},{"type":"function","name":"transfer","inputs":[{"name":"to","type":"address","internalType":"address"},{"name":"amount","type":"uint256","internalType":"uint256"}],"outputs":[{"name":"","type":"bool","internalType":"bool"}],"stateMutability":"nonpayable"},{"type":"function","name":"transferFrom","inputs":[{"name":"from","type":"address","internalType":"address"},{"name":"to","type":"address","internalType":"address"},{"name":"amount","type":"uint256","internalType":"uint256"}],"outputs":[{"name":"","type":"bool","internalType":"bool"}],"stateMutability":"nonpayable"},{"type":"function","name":"transferOwnership","inputs":[{"name":"newOwner","type":"address","internalType":"address"}],"outputs":[],"stateMutability":"nonpayable"},{"type":"function","name":"unpause","inputs":[],"outputs":[],"stateMutability":"nonpayable"},{"type":"function","name":"updateKYCStatus","inputs":[{"name":"user","type":"address","internalType":"address"},{"name":"verified","type":"bool","internalType":"bool"}],"outputs":[],"stateMutability":"nonpayable"},{"type":"function","name":"upgradeTo","inputs":[{"name":"newImplementation","type":"address","internalType":"address"}],"outputs":[],"stateMutability":"nonpayable"},{"type":"function","name":"upgradeToAndCall","inputs":[{"name":"newImplementation","type":"address","internalType":"address"},{"name":"data","type":"bytes","internalType":"bytes"}],"outputs":[],"stateMutability":"payable"},{"type":"function","name":"userProfiles","inputs":[{"name":"","type":"address","internalType":"address"}],"outputs":[{"name":"totalTransactions","type":"uint256","internalType":"uint256"},{"name":"totalVolume","type":"uint256","internalType":"uint256"},{"name":"lastActivity","type":"uint256","internalType":"uint256"},{"name":"reputationScore","type":"uint8","internalType":"uint8"},{"name":"isActive","type":"bool","internalType":"bool"}],"stateMutability":"view"},{"type":"event","name":"AdminChanged","inputs":[{"name":"previousAdmin","type":"address","indexed":false,"internalType":"address"},{"name":"newAdmin","type":"address","indexed":false,"internalType":"address"}],"anonymous":false},{"type":"event","name":"Approval","inputs":[{"name":"owner","type":"address","indexed":true,"internalType":"address"},{"name":"spender","type":"address","indexed":true,"internalType":"address"},{"name":"value","type":"uint256","indexed":false,"internalType":"uint256"}],"anonymous":false},{"type":"event","name":"BeaconUpgraded","inputs":[{"name":"beacon","type":"address","indexed":true,"internalType":"address"}],"anonymous":false},{"type":"event","name":"Initialized","inputs":[{"name":"version","type":"uint8","indexed":false,"internalType":"uint8"}],"anonymous":false},{"type":"event","name":"KYCStatusUpdated","inputs":[{"name":"user","type":"address","indexed":true,"internalType":"address"},{"name":"verified","type":"bool","indexed":false,"internalType":"bool"}],"anonymous":false},{"type":"event","name":"OracleUpdated","inputs":[{"name":"oracle","type":"address","indexed":true,"internalType":"address"},{"name":"authorized","type":"bool","indexed":false,"internalType":"bool"}],"anonymous":false},{"type":"event","name":"OwnershipTransferred","inputs":[{"name":"previousOwner","type":"address","indexed":true,"internalType":"address"},{"name":"newOwner","type":"address","indexed":true,"internalType":"address"}],"anonymous":false},{"type":"event","name":"Paused","inputs":[{"name":"account","type":"address","indexed":false,"internalType":"address"}],"anonymous":false},{"type":"event","name":"PolicyManagerUpdated","inputs":[{"name":"newManager","type":"address","indexed":true,"internalType":"address"}],"anonymous":false},{"type":"event","name":"RiskScoreUpdated","inputs":[{"name":"txId","type":"bytes32","indexed":true,"internalType":"bytes32"},{"name":"oldScore","type":"uint256","indexed":false,"internalType":"uint256"},{"name":"newScore","type":"uint256","indexed":false,"internalType":"uint256"}],"anonymous":false},{"type":"event","name":"TransactionApproved","inputs":[{"name":"txId","type":"bytes32","indexed":true,"internalType":"bytes32"},{"name":"riskScore","type":"uint256","indexed":false,"internalType":"uint256"}],"anonymous":false},{"type":"event","name":"TransactionEscrowed","inputs":[{"name":"txId","type":"bytes32","indexed":true,"internalType":"bytes32"},{"name":"riskScore","type":"uint256","indexed":false,"internalType":"uint256"}],"anonymous":false},{"type":"event","name":"TransactionInitiated","inputs":[{"name":"txId","type":"bytes32","indexed":true,"internalType":"bytes32"},{"name":"from","type":"address","indexed":true,"internalType":"address"},{"name":"to","type":"address","indexed":true,"internalType":"address"},{"name":"amount","type":"uint256","indexed":false,"internalType":"uint256"}],"anonymous":false},{"type":"event","name":"TransactionRejected","inputs":[{"name":"txId","type":"bytes32","indexed":true,"internalType":"bytes32"},{"name":"riskScore","type":"uint256","indexed":false,"internalType":"uint256"},{"name":"reason","type":"string","indexed":false,"internalType":"string"}],"anonymous":false},{"type":"event","name":"Transfer","inputs":[{"name":"from","type":"address","indexed":true,"internalType":"address"},{"name":"to","type":"address","indexed":true,"internalType":"address"},{"name":"value","type":"uint256","indexed":false,"internalType":"uint256"}],"anonymous":false},{"type":"event","name":"Unpaused","inputs":[{"name":"account","type":"address","indexed":false,"internalType":"address"}],"anonymous":false},{"type":"event","name":"Upgraded","inputs":[{"name":"implementation","type":"address","indexed":true,"internalType":"address"}],"anonymous":false},{"type":"event","name":"UserProfileUpdated","inputs":[{"name":"user","type":"address","indexed":true,"internalType":"address"},{"name":"reputationScore","type":"uint8","indexed":false,"internalType":"uint8"}],"anonymous":false}],"bytecode":{"object":"0x60a080604052346100db57306080525f549060ff8260081c16610089575060ff8082160361004f575b604051612e149081620000e082396080518181816117f4015281816118f30152611d780152f35b60ff90811916175f557f7f26b83ff96e1f2b6a682f133852f6798a09c465da95921460cefb3847402498602060405160ff8152a15f610028565b62461bcd60e51b815260206004820152602760248201527f496e697469616c697a61626c653a20636f6e747261637420697320696e697469604482015266616c697a696e6760c81b6064820152608490fd5b5f80fdfe6080806040526004361015610012575f80fd5b5f3560e01c90816306fdde031461214957508063095ea7b31461212357806318160ddd1461210657806323b872dd14612063578063313ce56714612048578063332d56d714611fdd5780633659cfe614611d535780633950935114611d065780633f4ba83a14611c7357806346972fe514611c4d5780634aae13ca14611b5e5780634f1ef286146118a457806352d1902d146117e257806353df9d761461175a5780635a17c1541461129d5780635c975abb1461127b57806361c992a31461123d578063642f2eaf146111c3578063653608431461114457806370a082311461110c578063715018a6146110b15780638456cb59146110585780638da5cb5b1461103057806395d89b4114610f4e578063987ee15614610e8b5780639da520b914610c555780639eeb7a2e14610969578063a457c2d7146108c6578063a5410a6614610888578063a9059cbb14610857578063ab3dbf3b1461082e578063adde41e1146107ba578063b119490e146102af578063dd62ed3e1461025e578063e46638e61461023b5763f2fde38b146101a8575f80fd5b34610237576020366003190112610237576101c1612235565b6101c96128ca565b6001600160a01b038116156101e3576101e190612b20565b005b60405162461bcd60e51b815260206004820152602660248201527f4f776e61626c653a206e6577206f776e657220697320746865207a65726f206160448201526564647265737360d01b6064820152608490fd5b5f80fd5b3461023757602061025461024e3661224b565b91612584565b6040519015158152f35b3461023757604036600319011261023757610277612235565b6001600160a01b03602435818116929083900361023757165f52603460205260405f20905f52602052602060405f2054604051908152f35b346102375760603660031901126102375767ffffffffffffffff600435818111610237576102e1903690600401612357565b90602435818111610237576102fa903690600401612357565b916044355f549160ff808460081c1615948580966107ae575b8015610798575b1561073c5760019660ff19958789888316175f5561072b575b5061034c835f5460081c1661034781612c32565b612c32565b835182811161061f5780610361603654612375565b95601f968781116106bd575b5060209087831160011461063e575f92610633575b50505f19600383901b1c191690891b176036555b805191821161061f576103aa603754612375565b8481116105bc575b50602090848311600114610538576104309392915f918361052d575b50505f19600383901b1c191690881b176037555b6103f5815f5460081c1661034781612c32565b6103fe33612b20565b5f5460081c1661040d81612c32565b61041681612c32565b61041f81612c32565b8460fb541660fb5561034781612c32565b8461012d5533156104e957506104488160355461246f565b603555335f52603360205260405f208181540190556040519081525f7fddf252ad1be2c89b69c2b068fc378daa952ba7f163c4a11628f55a4df523b3ef60203393a3335f5261015f6020528260405f209182541617905561016360ff60a01b1981541690556104b357005b60207f7f26b83ff96e1f2b6a682f133852f6798a09c465da95921460cefb38474024989161ff00195f54165f55604051908152a1005b6064906040519062461bcd60e51b82526020600483015260248201527f45524332303a206d696e7420746f20746865207a65726f2061646472657373006044820152fd5b0151905089806103ce565b92918891601f1982169060375f527f42a7b7dd785cd69714a189dffb3fd7d7174edc9ece837694ce50f7078f7c31ae915f5b8181106105a457509583610430971061058c575b505050811b016037556103e2565b01515f1960f88460031b161c1916905589808061057e565b8288015184558c95909301926020928301920161056a565b60375f527f42a7b7dd785cd69714a189dffb3fd7d7174edc9ece837694ce50f7078f7c31ae8580850160051c82019260208610610616575b0160051c019089905b82811061060b5750506103b2565b5f81550189906105fd565b925081926105f4565b634e487b7160e01b5f52604160045260245ffd5b015190508a80610382565b908b9350601f1983169160365f527f4a11f94e20a93c79f6ec743a1954ec4fc2c08429ae2122118bf234b2185c81b8925f5b8181106106a55750841161068d575b505050811b01603655610396565b01515f1960f88460031b161c191690558a808061067f565b8284015185558e969094019360209384019301610670565b90915060365f527f4a11f94e20a93c79f6ec743a1954ec4fc2c08429ae2122118bf234b2185c81b88780850160051c82019260208610610722575b918d91869594930160051c01915b82811061071457505061036d565b5f81558594508d9101610706565b925081926106f8565b61ffff1916610101175f5588610333565b60405162461bcd60e51b815260206004820152602e60248201527f496e697469616c697a61626c653a20636f6e747261637420697320616c72656160448201526d191e481a5b9a5d1a585b1a5e995960921b6064820152608490fd5b50303b15801561031a575060018286161461031a565b50600182861610610313565b34610237576020366003190112610237576107d3612235565b6107db6128ca565b61016380546001600160a81b0319166001600160a01b039290921691821782151560a01b60ff60a01b161790557f5106d9fe21e5ccaebfff5e5b6191d80ca628c317ef02f88ec6abbc39e505f6c35f80a2005b34610237575f36600319011261023757610163546040516001600160a01b039091168152602090f35b346102375760403660031901126102375761087d610873612235565b602435903361275b565b602060405160018152f35b34610237576020366003190112610237576001600160a01b036108a9612235565b165f52610162602052602060ff60405f2054166040519015158152f35b34610237576040366003190112610237576108df612235565b60243590335f52603460205260405f2060018060a01b0382165f5260205260405f2054918083106109165761087d9203903361265d565b60405162461bcd60e51b815260206004820152602560248201527f45524332303a2064656372656173656420616c6c6f77616e63652062656c6f77604482015264207a65726f60d81b6064820152608490fd5b3461023757604036600319011261023757600435610985612348565b335f52602061015f815261099f60ff60405f20541661247c565b825f5261016080825260018060a01b03906109c18260405f20541615156124c0565b845f52808352600360ff600560405f2001541603610c2157845f52825260405f20925f14610ba857600192838101918083541690610a0660028401928354903061275b565b6005830160ff199087828254161790558184541690835491805f526101619182895260405f20948554985f19998a8114610b6e578b978d97610a548960039401998a8455830191825461246f565b9055426002820155019360ff8554956101009661ff001999888b8316178355600a8111155f14610b825750506032868254161781555b54166040519081527f629b53b264436a49a427fbe315f72dba31ff17b89838f53d45952419fd9a0787988991a25416955492865f52895260405f20938454988914610b6e578a60038b9660ff96610b0e7fdb913ccd3ed86ac6f449715949df229faaba0ec9e3fa4814c2bcb6866576d74d9f60049e0194858455830191825461246f565b90554260028201550180549283169094178455600a8111610b4857505081541660321781555b5416604051908152a20154604051908152a2005b606410610b5d57508154166046178155610b34565b61ffff191661015a17825550610b34565b634e487b7160e01b5f52601160045260245ffd5b606410610b985750604686825416178155610a8a565b61ffff191661015a178155610a8a565b906040600484610be46080957f2d017c8be400030c23a48e092d4576565f04ab84b59d21aa6045d40d5bac28059754166002830154903061275b565b60058101805460ff191660021790550154815190815291820152601060408201526f26b0b73ab0b6103932b532b1ba34b7b760811b6060820152a2005b60405162461bcd60e51b815260048101849052600c60248201526b139bdd08195cd8dc9bddd95960a21b6044820152606490fd5b3461023757604036600319011261023757600435602435335f5260209061015f8252610c8760ff60405f20541661247c565b825f526101609182815260018060a01b0392610caa8460405f20541615156124c0565b845f5280825260ff600560405f20015416610e4657845f52815260405f2090847f30c441add66d2b9d1c07b4bd426ba20793efad7cfcd339ed82017dce5606d425604060048501868154915581519081528685820152a26101639081548560ff8260a01c169182610e3a575b505015610dd85750906084845f93541694600281845416916001850154169301549560405196879485936303cff63960e01b85526004850152602484015260448301528560648301525afa918215610dcd575f80915f94610da5575b50610d825750506101e191612bce565b600391925060ff1610155f14610d9c57506101e190612b68565b6101e191612966565b915050610dc59192503d805f833e610dbd81836122d4565b810190612504565b929185610d72565b6040513d5f823e3d90fd5b9493505061032082109050610e245750604051906040820182811067ffffffffffffffff82111761061f576101e1936848696768207269736b60b81b9160405260098452830152612bce565b9091506102588110610d9c57506101e190612b68565b16151590508588610d16565b60405162461bcd60e51b815260048101839052601d60248201527f5472616e73616374696f6e20616c72656164792070726f6365737365640000006044820152606490fd5b3461023757602036600319011261023757610ea4612235565b5f6080604051610eb38161229c565b828152826020820152826040820152826060820152015260018060a01b03165f5261016160205260a060405f2060405190610eed8261229c565b60ff8154928381526001830154926020820193845260036002820154916040840192835201549383608060608501948288168652019560081c1615158552604051958652516020860152516040850152511660608301525115156080820152f35b34610237575f366003190112610237576040516037545f82610f6f83612375565b91828252602093600190856001821691825f14611010575050600114610fb5575b50610f9d925003836122d4565b610fb1604051928284938452830190612210565b0390f35b84915060375f527f42a7b7dd785cd69714a189dffb3fd7d7174edc9ece837694ce50f7078f7c31ae905f915b858310610ff8575050610f9d935082010185610f90565b80548389018501528794508693909201918101610fe1565b60ff191685820152610f9d95151560051b8501019250879150610f909050565b34610237575f366003190112610237576065546040516001600160a01b039091168152602090f35b34610237575f366003190112610237576110706128ca565b611078612922565b600160ff1960fb54161760fb557f62e78cea01bee320cd4e420270b5ea74000d11b0c9f74754ebdbfc544b05a2586020604051338152a1005b34610237575f366003190112610237576110c96128ca565b606580546001600160a01b031981169091555f906001600160a01b03167f8be0079c531659141344cd1fd0a4f28419497f9722a3daafe3b4186f6b6457e08280a3005b34610237576020366003190112610237576001600160a01b0361112d612235565b165f526033602052602060405f2054604051908152f35b346102375760403660031901126102375761115d612235565b7f94c9cbe1d9aa7af08484f82ab0179d6db973a391236668c34192d954ff32c06c6020611188612348565b926111916128ca565b6001600160a01b03165f81815261015f835260409020805460ff191660ff86151516179055925b6040519015158152a2005b34610237576020366003190112610237576004355f5261016060205260e060405f2060018060a01b039081815416916001820154169060028101546003820154600483015491600660ff60058601541694015494604051968752602087015260408601526060850152608084015260a083015260c0820152f35b34610237576020366003190112610237576001600160a01b0361125e612235565b165f5261015f602052602060ff60405f2054166040519015158152f35b34610237575f36600319011261023757602060ff60fb54166040519015158152f35b34610237576060366003190112610237576112b6612235565b600261012d541461171557600261012d556112cf612922565b6001600160a01b038116156116dc57602435156116a657335f52603360205260243560405f20541061166a5760405190602082013360601b81526001600160601b03198260601b1660348401526024356048840152426068840152436088840152608883528260c081011067ffffffffffffffff60c08501111761061f5760c08301604052825190209161136560c08201612280565b3360c082015260018060a01b03821660e0820152602435610100820152426101208201525f6101408201525f610160820152604435610180820152825f52610160602052600661018060405f209260018060a01b0360c0820151166001600160601b0360a01b8554161784556001840160018060a01b0360e0830151166001600160601b0360a01b8254161790556101008101516002850155610120810151600385015561014081015160048501556005840160ff6101608301511660ff19825416179055015191015560405190602435825260018060a01b031690827f40209967c539e0677a080001a37de2df6d451503cb1215f3fdbaccd0ffaaa48460203393a460ff6101635460a01c1615611489575b602090600161012d55604051908152f35b805f5261016060205260405f209060058201600160ff198254161790556114cb60018060a01b0383541660018060a01b0360018501541660028501549161275b565b60018060a01b0382541691600281015492805f5261016160205260405f20908154915f198314610b6e57600360ff91600160209501978882556115136001830191825461246f565b905542600282015501805461ff001980821661010017835597600a8111611643575050603282198254161781555b54166040519081527f629b53b264436a49a427fbe315f72dba31ff17b89838f53d45952419fd9a0787928391a2600260018060a01b03600184015416920154825f5261016160205260405f208054915f198314610b6e57602096600360ff9360018a9601938482556115b86001830191825461246f565b905542600282015501805491821661010017815591600a811161161c575050603282198254161781555b5416604051908152a2807fdb913ccd3ed86ac6f449715949df229faaba0ec9e3fa4814c2bcb6866576d74d836040515f8152a29050611478565b6064106116335750604682198254161781556115e2565b61ffff191661015a1781556115e2565b60641061165a575060468219825416178155611541565b61ffff191661015a178155611541565b60405162461bcd60e51b8152602060048201526014602482015273496e73756666696369656e742062616c616e636560601b6044820152606490fd5b60405162461bcd60e51b815260206004820152600e60248201526d125b9d985b1a5908185b5bdd5b9d60921b6044820152606490fd5b60405162461bcd60e51b8152602060048201526011602482015270125b9d985b1a59081c9958da5c1a595b9d607a1b6044820152606490fd5b60405162461bcd60e51b815260206004820152601f60248201527f5265656e7472616e637947756172643a207265656e7472616e742063616c6c006044820152606490fd5b3461023757604036600319011261023757611773612235565b7f2df1cad2a2659e001c3804c872f69655356013e35c18c2e77a5d568078ab788f602061179e612348565b92335f5261015f82526117b760ff60405f20541661247c565b6001600160a01b03165f818152610162835260409020805460ff191660ff86151516179055926111b8565b34610237575f366003190112610237577f00000000000000000000000000000000000000000000000000000000000000006001600160a01b031630036118395760206040515f80516020612dbf8339815191528152f35b60405162461bcd60e51b815260206004820152603860248201527f555550535570677261646561626c653a206d757374206e6f742062652063616c60448201527f6c6564207468726f7567682064656c656761746563616c6c00000000000000006064820152608490fd5b6040366003190112610237576118b8612235565b60243567ffffffffffffffff81116102375736602382011215610237576118e9903690602481600401359101612312565b6001600160a01b037f000000000000000000000000000000000000000000000000000000000000000081169190611922308414156123ad565b61193e5f80516020612dbf83398151915293828554161461240e565b6119466128ca565b7f4910fdfa16fed3260ed0e7147f7cc6da11a60208b5b9406d12a635614ffd91435460ff161561197c575050506101e190612c92565b8316604051926352d1902d60e01b84526020938481600481865afa5f9181611b2f575b50611a005760405162461bcd60e51b815260048101869052602e60248201527f45524331393637557067726164653a206e657720696d706c656d656e7461746960448201526d6f6e206973206e6f74205555505360901b6064820152608490fd5b93929303611ad857611a1184612c92565b7fbc7cd75a20ee27fd9adebab32041f755214dbc6bffa90cc0225b39da2e5c2d3b5f80a2815115801590611ad0575b611a4657005b6101e1925f8060405194611a59866122b8565b602786527f416464726573733a206c6f772d6c6576656c2064656c65676174652063616c6c85870152660819985a5b195960ca1b60408701528481519101845af4903d15611ac7573d611aab816122f6565b90611ab960405192836122d4565b81525f81943d92013e612d21565b60609250612d21565b506001611a40565b60405162461bcd60e51b815260048101839052602960248201527f45524331393637557067726164653a20756e737570706f727465642070726f786044820152681a58589b195555525160ba1b6064820152608490fd5b9091508581813d8311611b57575b611b4781836122d4565b810103126102375751908761199f565b503d611b3d565b34610237576020366003190112610237575f60c0604051611b7e81612280565b8281528260208201528260408201528260608201528260808201528260a082015201526004355f5261016060205260e060405f20604051611bbe81612280565b60ff60018060a01b03928381541693848452806001830154169060208501918252600283015460408601908152600384015491606087019283526004850154936080880194855260c06006886005890154169760a08b019889520154980197885260405198895251166020880152516040870152516060860152516080850152511660a08301525160c0820152f35b34610237575f36600319011261023757602060ff6101635460a01c166040519015158152f35b34610237575f36600319011261023757611c8b6128ca565b60fb5460ff811615611cca5760ff191660fb557f5db9ee0a495bf2e6ff9c91a7834c1ba4fdd244a5e8aa4e537bd38aeae4b073aa6020604051338152a1005b60405162461bcd60e51b815260206004820152601460248201527314185d5cd8589b194e881b9bdd081c185d5cd95960621b6044820152606490fd5b346102375760403660031901126102375761087d611d22612235565b335f52603460205260405f2060018060a01b0382165f52602052611d4c60243560405f205461246f565b903361265d565b346102375760208060031936011261023757611d6d612235565b6001600160a01b03917f00000000000000000000000000000000000000000000000000000000000000008316611da5308214156123ad565b611dc15f80516020612dbf83398151915291858354161461240e565b611dc96128ca565b604051908282019482861067ffffffffffffffff87111761061f57856040525f835260ff7f4910fdfa16fed3260ed0e7147f7cc6da11a60208b5b9406d12a635614ffd914354165f14611e2457505050506101e19150612c92565b8492939416906040516352d1902d60e01b81528581600481865afa5f9181611fae575b50611ea85760405162461bcd60e51b815260048101879052602e60248201527f45524331393637557067726164653a206e657720696d706c656d656e7461746960448201526d6f6e206973206e6f74205555505360901b6064820152608490fd5b94939403611f5757611eb982612c92565b7fbc7cd75a20ee27fd9adebab32041f755214dbc6bffa90cc0225b39da2e5c2d3b5f80a2825115801590611f50575b611eee57005b5f806101e19560405195611f01876122b8565b602787527f416464726573733a206c6f772d6c6576656c2064656c65676174652063616c6c86880152660819985a5b195960ca1b60408801525190845af4903d15611ac7573d611aab816122f6565b505f611ee8565b60405162461bcd60e51b815260048101849052602960248201527f45524331393637557067726164653a20756e737570706f727465642070726f786044820152681a58589b195555525160ba1b6064820152608490fd5b9091508681813d8311611fd6575b611fc681836122d4565b8101031261023757519088611e47565b503d611fbc565b34610237576020366003190112610237576001600160a01b03611ffe612235565b165f5261016160205260a060405f2060ff815491600181015490600360028201549101549160405194855260208501526040840152818116606084015260081c1615156080820152f35b34610237575f36600319011261023757602060405160128152f35b34610237576120713661224b565b9060018060a01b0383165f52603460205260405f20335f5260205260405f2054925f1984036120a5575b61087d935061275b565b8284106120c1576120bc8361087d9503338361265d565b61209b565b60405162461bcd60e51b815260206004820152601d60248201527f45524332303a20696e73756666696369656e7420616c6c6f77616e63650000006044820152606490fd5b34610237575f366003190112610237576020603554604051908152f35b346102375760403660031901126102375761087d61213f612235565b602435903361265d565b34610237575f366003190112610237576036545f8261216783612375565b91828252602093600190856001821691825f146110105750506001146121945750610f9d925003836122d4565b84915060365f527f4a11f94e20a93c79f6ec743a1954ec4fc2c08429ae2122118bf234b2185c81b8905f915b8583106121d7575050610f9d935082010185610f90565b805483890185015287945086939092019181016121c0565b5f5b8381106122005750505f910152565b81810151838201526020016121f1565b90602091612229815180928185528580860191016121ef565b601f01601f1916010190565b600435906001600160a01b038216820361023757565b6060906003190112610237576001600160a01b0390600435828116810361023757916024359081168103610237579060443590565b60e0810190811067ffffffffffffffff82111761061f57604052565b60a0810190811067ffffffffffffffff82111761061f57604052565b6060810190811067ffffffffffffffff82111761061f57604052565b90601f8019910116810190811067ffffffffffffffff82111761061f57604052565b67ffffffffffffffff811161061f57601f01601f191660200190565b92919261231e826122f6565b9161232c60405193846122d4565b829481845281830111610237578281602093845f960137010152565b60243590811515820361023757565b9080601f830112156102375781602061237293359101612312565b90565b90600182811c921680156123a3575b602083101461238f57565b634e487b7160e01b5f52602260045260245ffd5b91607f1691612384565b156123b457565b60405162461bcd60e51b815260206004820152602c60248201527f46756e6374696f6e206d7573742062652063616c6c6564207468726f7567682060448201526b19195b1959d85d1958d85b1b60a21b6064820152608490fd5b1561241557565b60405162461bcd60e51b815260206004820152602c60248201527f46756e6374696f6e206d7573742062652063616c6c6564207468726f7567682060448201526b6163746976652070726f787960a01b6064820152608490fd5b91908201809211610b6e57565b1561248357565b60405162461bcd60e51b81526020600482015260156024820152744e6f7420617574686f72697a6564206f7261636c6560581b6044820152606490fd5b156124c757565b60405162461bcd60e51b8152602060048201526015602482015274151c985b9cd858dd1a5bdb881b9bdd08199bdd5b99605a1b6044820152606490fd5b909160608284031261023757815180151581036102375792602083015160ff81168103610237579260408101519067ffffffffffffffff8211610237570181601f82011215610237578051612558816122f6565b9261256660405194856122d4565b818452602082840101116102375761237291602080850191016121ef565b91906101635460ff8160a01c1615801561264c575b61262c576040516303cff63960e01b81526001600160a01b03948516600482018190529285166024820152604481018490525f606482018190529094909185916084918391165afa928315610dcd575f9361260e575b50826125fa57505090565b9091505f52603360205260405f2054101590565b6126239193503d805f833e610dbd81836122d4565b5050915f6125ef565b50506001600160a01b039091165f90815260336020526040902054101590565b506001600160a01b03811615612599565b6001600160a01b0390811691821561270a57169182156126ba5760207f8c5be1e5ebec7d5bd14f71427d1e84f3dd0314c0f7b2291e5b200ac8c7c3b92591835f526034825260405f20855f5282528060405f2055604051908152a3565b60405162461bcd60e51b815260206004820152602260248201527f45524332303a20617070726f766520746f20746865207a65726f206164647265604482015261737360f01b6064820152608490fd5b60405162461bcd60e51b8152602060048201526024808201527f45524332303a20617070726f76652066726f6d20746865207a65726f206164646044820152637265737360e01b6064820152608490fd5b6001600160a01b03908116918215612877571691821561282657815f52603360205260405f20548181106127d257817fddf252ad1be2c89b69c2b068fc378daa952ba7f163c4a11628f55a4df523b3ef92602092855f52603384520360405f2055845f5260405f20818154019055604051908152a3565b60405162461bcd60e51b815260206004820152602660248201527f45524332303a207472616e7366657220616d6f756e7420657863656564732062604482015265616c616e636560d01b6064820152608490fd5b60405162461bcd60e51b815260206004820152602360248201527f45524332303a207472616e7366657220746f20746865207a65726f206164647260448201526265737360e81b6064820152608490fd5b60405162461bcd60e51b815260206004820152602560248201527f45524332303a207472616e736665722066726f6d20746865207a65726f206164604482015264647265737360d81b6064820152608490fd5b6065546001600160a01b031633036128de57565b606460405162461bcd60e51b815260206004820152602060248201527f4f776e61626c653a2063616c6c6572206973206e6f7420746865206f776e65726044820152fd5b60ff60fb541661292e57565b60405162461bcd60e51b815260206004820152601060248201526f14185d5cd8589b194e881c185d5cd95960821b6044820152606490fd5b90815f5260206101608152604091825f209260058401600160ff1991818382541617905560018060a01b0390818754169282828901986129b1828b541696600283019788549161275b565b5416845491815f5261016192838a52875f209586549b5f199c8d8114610b6e578c988860039201948582556129ea8a830191825461246f565b9055426002820155019460ff8654966101009761ff00199689888316178355600a8111155f14612afa5750506032878254161781555b54168b519081527f629b53b264436a49a427fbe315f72dba31ff17b89838f53d45952419fd9a0787998a91a25416965493875f528a52875f209485549b8c14610b6e5760038b9660ff96612a9f7fdb913ccd3ed86ac6f449715949df229faaba0ec9e3fa4814c2bcb6866576d74d9f850194858455830191825461246f565b90554260028201550180549283169094178455600a8111612ad457505081541660321781555b54168451908152a251908152a2565b606410612ae957508154166046178155612ac5565b61ffff191661015a17825550612ac5565b606410612b105750604687825416178155612a20565b61ffff191661015a178155612a20565b606580546001600160a01b039283166001600160a01b0319821681179092559091167f8be0079c531659141344cd1fd0a4f28419497f9722a3daafe3b4186f6b6457e05f80a3565b805f526101606020527fa6875726820db382883d6b14ce30e72cf1e2aaced0a4385cce614a03c71408196020600460405f2060058101600360ff19825416179055612bc360018060a01b03825416600283015490309061275b565b0154604051908152a2565b907f2d017c8be400030c23a48e092d4576565f04ab84b59d21aa6045d40d5bac280590825f52610160602052600460405f2060058101600260ff198254161790550154612c2d6040519283928352604060208401526040830190612210565b0390a2565b15612c3957565b60405162461bcd60e51b815260206004820152602b60248201527f496e697469616c697a61626c653a20636f6e7472616374206973206e6f74206960448201526a6e697469616c697a696e6760a81b6064820152608490fd5b803b15612cc6575f80516020612dbf83398151915280546001600160a01b0319166001600160a01b03909216919091179055565b60405162461bcd60e51b815260206004820152602d60248201527f455243313936373a206e657720696d706c656d656e746174696f6e206973206e60448201526c1bdd08184818dbdb9d1c9858dd609a1b6064820152608490fd5b91929015612d835750815115612d35575090565b3b15612d3e5790565b60405162461bcd60e51b815260206004820152601d60248201527f416464726573733a2063616c6c20746f206e6f6e2d636f6e74726163740000006044820152606490fd5b825190915015612d965750805190602001fd5b60405162461bcd60e51b815260206004820152908190612dba906024830190612210565b0390fdfe360894a13ba1a3210667c828492db98dca3e2076cc3735a920a3ca505d382bbca2646970667358221220d2ed313b26898aa32a7a3e8946648c1ccd61dccab09b9c37eeaef288cf99a0f264736f6c63430008180033","linkReferences":{}},"methodIdentifiers":{"allowance(address,address)":"dd62ed3e","approve(address,uint256)":"095ea7b3","authorizedOracles(address)":"61c992a3","balanceOf(address)":"70a08231","canTransfer(address,address,uint256)":"e46638e6","decimals()":"313ce567","decreaseAllowance(address,uint256)":"a457c2d7","getTransaction(bytes32)":"4aae13ca","getUserProfile(address)":"987ee156","increaseAllowance(address,uint256)":"39509351","initialize(string,string,uint256)":"b119490e","kycVerified(address)":"a5410a66","name()":"06fdde03","owner()":"8da5cb5b","pause()":"8456cb59","paused()":"5c975abb","policyManager()":"ab3dbf3b","policyValidationEnabled()":"46972fe5","proxiableUUID()":"52d1902d","releaseEscrow(bytes32,bool)":"9eeb7a2e","renounceOwnership()":"715018a6","secureTransfer(address,uint256,bytes32)":"5a17c154","setOracle(address,bool)":"65360843","setPolicyManager(address)":"adde41e1","submitRiskScore(bytes32,uint256)":"9da520b9","symbol()":"95d89b41","totalSupply()":"18160ddd","transactions(bytes32)":"642f2eaf","transfer(address,uint256)":"a9059cbb","transferFrom(address,address,uint256)":"23b872dd","transferOwnership(address)":"f2fde38b","unpause()":"3f4ba83a","updateKYCStatus(address,bool)":"53df9d76","upgradeTo(address)":"3659cfe6","upgradeToAndCall(address,bytes)":"4f1ef286","userProfiles(address)":"332d56d7"},"id":18}