{"abi":[{"type":"constructor","inputs":[],"stateMutability":"nonpayable"},{"type":"receive","stateMutability":"payable"},{"type":"function","name":"MAX_BATCH_CHAINS","inputs":[],"outputs":[{"name":"","type":"uint256","internalType":"uint256"}],"stateMutability":"view"},{"type":"function","name":"MSG_BLOCK_ADDRESS","inputs":[],"outputs":[{"name":"","type":"uint8","internalType":"uint8"}],"stateMutability":"view"},{"type":"function","name":"MSG_DISPUTE_RESULT","inputs":[],"outputs":[{"name":"","type":"uint8","internalType":"uint8"}],"stateMutability":"view"},{"type":"function","name":"MSG_POLICY_UPDATE","inputs":[],"outputs":[{"name":"","type":"uint8","internalType":"uint8"}],"stateMutability":"view"},{"type":"function","name":"MSG_RISK_SCORE","inputs":[],"outputs":[{"name":"","type":"uint8","internalType":"uint8"}],"stateMutability":"view"},{"type":"function","name":"MSG_UNBLOCK_ADDRESS","inputs":[],"outputs":[{"name":"","type":"uint8","internalType":"uint8"}],"stateMutability":"view"},{"type":"function","name":"blockAddressGlobally","inputs":[{"name":"_dstChainIds","type":"uint16[]","internalType":"uint16[]"},{"name":"_targetAddress","type":"address","internalType":"address"},{"name":"_reason","type":"string","internalType":"string"}],"outputs":[],"stateMutability":"payable"},{"type":"function","name":"chainBlockMessageCount","inputs":[{"name":"","type":"uint16","internalType":"uint16"},{"name":"","type":"uint256","internalType":"uint256"}],"outputs":[{"name":"","type":"uint256","internalType":"uint256"}],"stateMutability":"view"},{"type":"function","name":"chainNames","inputs":[{"name":"","type":"uint16","internalType":"uint16"}],"outputs":[{"name":"","type":"string","internalType":"string"}],"stateMutability":"view"},{"type":"function","name":"chainPaused","inputs":[{"name":"","type":"uint16","internalType":"uint16"}],"outputs":[{"name":"","type":"bool","internalType":"bool"}],"stateMutability":"view"},{"type":"function","name":"chainRateLimit","inputs":[{"name":"","type":"uint16","internalType":"uint16"}],"outputs":[{"name":"","type":"uint256","internalType":"uint256"}],"stateMutability":"view"},{"type":"function","name":"crossChainRiskScores","inputs":[{"name":"","type":"address","internalType":"address"},{"name":"","type":"uint16","internalType":"uint16"}],"outputs":[{"name":"","type":"uint256","internalType":"uint256"}],"stateMutability":"view"},{"type":"function","name":"defaultAdapterParams","inputs":[],"outputs":[{"name":"","type":"bytes","internalType":"bytes"}],"stateMutability":"view"},{"type":"function","name":"estimateRiskScoreFee","inputs":[{"name":"_dstChainId","type":"uint16","internalType":"uint16"},{"name":"_targetAddress","type":"address","internalType":"address"},{"name":"_riskScore","type":"uint256","internalType":"uint256"}],"outputs":[{"name":"nativeFee","type":"uint256","internalType":"uint256"}],"stateMutability":"view"},{"type":"function","name":"failedMessages","inputs":[{"name":"","type":"uint16","internalType":"uint16"},{"name":"","type":"bytes","internalType":"bytes"},{"name":"","type":"uint64","internalType":"uint64"}],"outputs":[{"name":"","type":"bytes32","internalType":"bytes32"}],"stateMutability":"view"},{"type":"function","name":"forceResumeReceive","inputs":[{"name":"_srcChainId","type":"uint16","internalType":"uint16"},{"name":"_srcAddress","type":"bytes","internalType":"bytes"}],"outputs":[],"stateMutability":"nonpayable"},{"type":"function","name":"getAggregatedRiskScore","inputs":[{"name":"_address","type":"address","internalType":"address"}],"outputs":[{"name":"maxScore","type":"uint256","internalType":"uint256"},{"name":"sourceChain","type":"uint16","internalType":"uint16"}],"stateMutability":"view"},{"type":"function","name":"getSupportedChains","inputs":[],"outputs":[{"name":"","type":"uint16[]","internalType":"uint16[]"}],"stateMutability":"pure"},{"type":"function","name":"globallyBlocked","inputs":[{"name":"","type":"address","internalType":"address"}],"outputs":[{"name":"","type":"bool","internalType":"bool"}],"stateMutability":"view"},{"type":"function","name":"initialize","inputs":[{"name":"_lzEndpoint","type":"address","internalType":"address"},{"name":"_localChainId","type":"uint16","internalType":"uint16"},{"name":"_policyEngine","type":"address","internalType":"address"}],"outputs":[],"stateMutability":"nonpayable"},{"type":"function","name":"isChainPaused","inputs":[{"name":"chainId","type":"uint16","internalType":"uint16"}],"outputs":[{"name":"","type":"bool","internalType":"bool"}],"stateMutability":"view"},{"type":"function","name":"isGloballyBlocked","inputs":[{"name":"_address","type":"address","internalType":"address"}],"outputs":[{"name":"","type":"bool","internalType":"bool"}],"stateMutability":"view"},{"type":"function","name":"lastRiskUpdate","inputs":[{"name":"","type":"address","internalType":"address"}],"outputs":[{"name":"","type":"uint256","internalType":"uint256"}],"stateMutability":"view"},{"type":"function","name":"localChainId","inputs":[],"outputs":[{"name":"","type":"uint16","internalType":"uint16"}],"stateMutability":"view"},{"type":"function","name":"lzEndpoint","inputs":[],"outputs":[{"name":"","type":"address","internalType":"contract ILayerZeroEndpoint"}],"stateMutability":"view"},{"type":"function","name":"lzReceive","inputs":[{"name":"_srcChainId","type":"uint16","internalType":"uint16"},{"name":"_srcAddress","type":"bytes","internalType":"bytes"},{"name":"_nonce","type":"uint64","internalType":"uint64"},{"name":"_payload","type":"bytes","internalType":"bytes"}],"outputs":[],"stateMutability":"nonpayable"},{"type":"function","name":"minDstGas","inputs":[],"outputs":[{"name":"","type":"uint256","internalType":"uint256"}],"stateMutability":"view"},{"type":"function","name":"owner","inputs":[],"outputs":[{"name":"","type":"address","internalType":"address"}],"stateMutability":"view"},{"type":"function","name":"pause","inputs":[],"outputs":[],"stateMutability":"nonpayable"},{"type":"function","name":"pauseChain","inputs":[{"name":"chainId","type":"uint16","internalType":"uint16"}],"outputs":[],"stateMutability":"nonpayable"},{"type":"function","name":"paused","inputs":[],"outputs":[{"name":"","type":"bool","internalType":"bool"}],"stateMutability":"view"},{"type":"function","name":"policyEngine","inputs":[],"outputs":[{"name":"","type":"address","internalType":"address"}],"stateMutability":"view"},{"type":"function","name":"processMessage","inputs":[{"name":"_srcChainId","type":"uint16","internalType":"uint16"},{"name":"_srcAddress","type":"bytes","internalType":"bytes"},{"name":"_nonce","type":"uint64","internalType":"uint64"},{"name":"_payload","type":"bytes","internalType":"bytes"}],"outputs":[],"stateMutability":"nonpayable"},{"type":"function","name":"propagateDisputeResult","inputs":[{"name":"_dstChainId","type":"uint16","internalType":"uint16"},{"name":"_disputeId","type":"bytes32","internalType":"bytes32"},{"name":"_approved","type":"bool","internalType":"bool"}],"outputs":[],"stateMutability":"payable"},{"type":"function","name":"proxiableUUID","inputs":[],"outputs":[{"name":"","type":"bytes32","internalType":"bytes32"}],"stateMutability":"view"},{"type":"function","name":"receivedNonces","inputs":[{"name":"","type":"uint16","internalType":"uint16"},{"name":"","type":"bytes","internalType":"bytes"}],"outputs":[{"name":"","type":"uint64","internalType":"uint64"}],"stateMutability":"view"},{"type":"function","name":"renounceOwnership","inputs":[],"outputs":[],"stateMutability":"nonpayable"},{"type":"function","name":"retryMessage","inputs":[{"name":"_srcChainId","type":"uint16","internalType":"uint16"},{"name":"_srcAddress","type":"bytes","internalType":"bytes"},{"name":"_nonce","type":"uint64","internalType":"uint64"},{"name":"_payload","type":"bytes","internalType":"bytes"}],"outputs":[],"stateMutability":"nonpayable"},{"type":"function","name":"sendRiskScore","inputs":[{"name":"_dstChainId","type":"uint16","internalType":"uint16"},{"name":"_targetAddress","type":"address","internalType":"address"},{"name":"_riskScore","type":"uint256","internalType":"uint256"},{"name":"_adapterParams","type":"bytes","internalType":"bytes"}],"outputs":[],"stateMutability":"payable"},{"type":"function","name":"setChainRateLimit","inputs":[{"name":"chainId","type":"uint16","internalType":"uint16"},{"name":"maxPerBlock","type":"uint256","internalType":"uint256"}],"outputs":[],"stateMutability":"nonpayable"},{"type":"function","name":"setConfig","inputs":[{"name":"_version","type":"uint16","internalType":"uint16"},{"name":"_chainId","type":"uint16","internalType":"uint16"},{"name":"_configType","type":"uint256","internalType":"uint256"},{"name":"_config","type":"bytes","internalType":"bytes"}],"outputs":[],"stateMutability":"nonpayable"},{"type":"function","name":"setDefaultAdapterParams","inputs":[{"name":"_adapterParams","type":"bytes","internalType":"bytes"}],"outputs":[],"stateMutability":"nonpayable"},{"type":"function","name":"setMinDstGas","inputs":[{"name":"_minDstGas","type":"uint256","internalType":"uint256"}],"outputs":[],"stateMutability":"nonpayable"},{"type":"function","name":"setPolicyEngine","inputs":[{"name":"_policyEngine","type":"address","internalType":"address"}],"outputs":[],"stateMutability":"nonpayable"},{"type":"function","name":"setReceiveVersion","inputs":[{"name":"_version","type":"uint16","internalType":"uint16"}],"outputs":[],"stateMutability":"nonpayable"},{"type":"function","name":"setSendVersion","inputs":[{"name":"_version","type":"uint16","internalType":"uint16"}],"outputs":[],"stateMutability":"nonpayable"},{"type":"function","name":"setTrustedRemote","inputs":[{"name":"_chainId","type":"uint16","internalType":"uint16"},{"name":"_remoteAddress","type":"bytes","internalType":"bytes"}],"outputs":[],"stateMutability":"nonpayable"},{"type":"function","name":"setTrustedRemotePath","inputs":[{"name":"_chainId","type":"uint16","internalType":"uint16"},{"name":"_path","type":"bytes","internalType":"bytes"}],"outputs":[],"stateMutability":"nonpayable"},{"type":"function","name":"transferOwnership","inputs":[{"name":"newOwner","type":"address","internalType":"address"}],"outputs":[],"stateMutability":"nonpayable"},{"type":"function","name":"trustedRemotes","inputs":[{"name":"","type":"uint16","internalType":"uint16"}],"outputs":[{"name":"","type":"bytes","internalType":"bytes"}],"stateMutability":"view"},{"type":"function","name":"unblockAddressGlobally","inputs":[{"name":"_dstChainIds","type":"uint16[]","internalType":"uint16[]"},{"name":"_targetAddress","type":"address","internalType":"address"}],"outputs":[],"stateMutability":"payable"},{"type":"function","name":"unpause","inputs":[],"outputs":[],"stateMutability":"nonpayable"},{"type":"function","name":"unpauseChain","inputs":[{"name":"chainId","type":"uint16","internalType":"uint16"}],"outputs":[],"stateMutability":"nonpayable"},{"type":"function","name":"upgradeTo","inputs":[{"name":"newImplementation","type":"address","internalType":"address"}],"outputs":[],"stateMutability":"nonpayable"},{"type":"function","name":"upgradeToAndCall","inputs":[{"name":"newImplementation","type":"address","internalType":"address"},{"name":"data","type":"bytes","internalType":"bytes"}],"outputs":[],"stateMutability":"payable"},{"type":"event","name":"AddressBlockedGlobally","inputs":[{"name":"targetAddress","type":"address","indexed":true,"internalType":"address"},{"name":"originChain","type":"uint16","indexed":true,"internalType":"uint16"},{"name":"reason","type":"string","indexed":false,"internalType":"string"}],"anonymous":false},{"type":"event","name":"AddressUnblockedGlobally","inputs":[{"name":"targetAddress","type":"address","indexed":true,"internalType":"address"},{"name":"originChain","type":"uint16","indexed":true,"internalType":"uint16"}],"anonymous":false},{"type":"event","name":"AdminChanged","inputs":[{"name":"previousAdmin","type":"address","indexed":false,"internalType":"address"},{"name":"newAdmin","type":"address","indexed":false,"internalType":"address"}],"anonymous":false},{"type":"event","name":"BeaconUpgraded","inputs":[{"name":"beacon","type":"address","indexed":true,"internalType":"address"}],"anonymous":false},{"type":"event","name":"ChainPaused","inputs":[{"name":"chainId","type":"uint16","indexed":true,"internalType":"uint16"}],"anonymous":false},{"type":"event","name":"ChainRateLimitExceeded","inputs":[{"name":"chainId","type":"uint16","indexed":true,"internalType":"uint16"},{"name":"blockNumber","type":"uint256","indexed":false,"internalType":"uint256"}],"anonymous":false},{"type":"event","name":"ChainUnpaused","inputs":[{"name":"chainId","type":"uint16","indexed":true,"internalType":"uint16"}],"anonymous":false},{"type":"event","name":"DisputeResultReceived","inputs":[{"name":"srcChainId","type":"uint16","indexed":true,"internalType":"uint16"},{"name":"disputeId","type":"bytes32","indexed":true,"internalType":"bytes32"},{"name":"approved","type":"bool","indexed":false,"internalType":"bool"},{"name":"nonce","type":"uint64","indexed":false,"internalType":"uint64"}],"anonymous":false},{"type":"event","name":"Initialized","inputs":[{"name":"version","type":"uint8","indexed":false,"internalType":"uint8"}],"anonymous":false},{"type":"event","name":"MessageFailed","inputs":[{"name":"srcChainId","type":"uint16","indexed":true,"internalType":"uint16"},{"name":"srcAddress","type":"bytes","indexed":false,"internalType":"bytes"},{"name":"nonce","type":"uint64","indexed":false,"internalType":"uint64"},{"name":"payload","type":"bytes","indexed":false,"internalType":"bytes"},{"name":"reason","type":"bytes","indexed":false,"internalType":"bytes"}],"anonymous":false},{"type":"event","name":"OwnershipTransferred","inputs":[{"name":"previousOwner","type":"address","indexed":true,"internalType":"address"},{"name":"newOwner","type":"address","indexed":true,"internalType":"address"}],"anonymous":false},{"type":"event","name":"Paused","inputs":[{"name":"account","type":"address","indexed":false,"internalType":"address"}],"anonymous":false},{"type":"event","name":"PolicySynced","inputs":[{"name":"srcChainId","type":"uint16","indexed":true,"internalType":"uint16"},{"name":"policyHash","type":"bytes32","indexed":false,"internalType":"bytes32"},{"name":"nonce","type":"uint64","indexed":false,"internalType":"uint64"}],"anonymous":false},{"type":"event","name":"RetryMessageSuccess","inputs":[{"name":"srcChainId","type":"uint16","indexed":true,"internalType":"uint16"},{"name":"srcAddress","type":"bytes","indexed":false,"internalType":"bytes"},{"name":"nonce","type":"uint64","indexed":false,"internalType":"uint64"},{"name":"payloadHash","type":"bytes32","indexed":false,"internalType":"bytes32"}],"anonymous":false},{"type":"event","name":"RiskScoreReceived","inputs":[{"name":"srcChainId","type":"uint16","indexed":true,"internalType":"uint16"},{"name":"targetAddress","type":"address","indexed":true,"internalType":"address"},{"name":"riskScore","type":"uint256","indexed":false,"internalType":"uint256"},{"name":"nonce","type":"uint64","indexed":false,"internalType":"uint64"}],"anonymous":false},{"type":"event","name":"RiskScoreSent","inputs":[{"name":"dstChainId","type":"uint16","indexed":true,"internalType":"uint16"},{"name":"targetAddress","type":"address","indexed":true,"internalType":"address"},{"name":"riskScore","type":"uint256","indexed":false,"internalType":"uint256"},{"name":"messageId","type":"bytes32","indexed":false,"internalType":"bytes32"}],"anonymous":false},{"type":"event","name":"TrustedRemoteSet","inputs":[{"name":"chainId","type":"uint16","indexed":true,"internalType":"uint16"},{"name":"trustedRemote","type":"bytes","indexed":false,"internalType":"bytes"}],"anonymous":false},{"type":"event","name":"Unpaused","inputs":[{"name":"account","type":"address","indexed":false,"internalType":"address"}],"anonymous":false},{"type":"event","name":"Upgraded","inputs":[{"name":"implementation","type":"address","indexed":true,"internalType":"address"}],"anonymous":false},{"type":"error","name":"ChainIsPaused","inputs":[]},{"type":"error","name":"InsufficientGas","inputs":[]},{"type":"error","name":"InvalidEndpoint","inputs":[]},{"type":"error","name":"InvalidPayload","inputs":[]},{"type":"error","name":"InvalidSourceChain","inputs":[]},{"type":"error","name":"MessageAlreadyProcessed","inputs":[]},{"type":"error","name":"NoFailedMessage","inputs":[]},{"type":"error","name":"UntrustedRemote","inputs":[]}],"bytecode":{"object":"0x60a08060405234620000df57306080525f549060ff8260081c166200008d575060ff8082160362000052575b604051613aba9081620000e482396080518181816117ef015281816118da0152611cc50152f35b60ff90811916175f557f7f26b83ff96e1f2b6a682f133852f6798a09c465da95921460cefb3847402498602060405160ff8152a15f6200002b565b62461bcd60e51b815260206004820152602760248201527f496e697469616c697a61626c653a20636f6e747261637420697320696e697469604482015266616c697a696e6760c81b6064820152608490fd5b5f80fdfe6080604081815260049182361015610021575b505050361561001f575f80fd5b005b5f925f3560e01c9182621d35671461298557508163024d973f14612923578163028658a71461289857816305b4f51c146127f65783826307e0db171461278d575081630e3187e5146127285783826310ddb137146126bf575081631dc69ca01461233a578163218f9f7314611f96578163272bd38414611f785781632b5d23d214611f305781633659cfe614611c9d5781633e48ea5814611c295781633f4ba83a14611b935783826342d65a8d14611b30575081634f1ef2861461189b57816352d1902d146117d95781635b056da5146117b55781635b8c41e61461172c5781635c975abb146117085781636135b085146116bb578163708c0db9146112a0578163715018a61461124357816374a34e3314610cf55781637bc87fff1461120757816383241883146111e75781638456cb591461118c57816387e0de90146111535781638b50b484146110725781638da5cb5b14611049578163927399a51461101b5781639f0a008914610fcf578163a934712614610fb3578163b353aaa714610f89578163b50a8e1714610d34578163bec4eb2014610cf5578163c0cc309014610cd8578163c4bffe2b14610c7a578163c61d2c7614610c4757838263cbed8b9c14610b8b57508163d06fe8f914610b68578163d17f7b8914610b4c578163d1deba1f14610965578163d46630f9146104bc578163d64c35fe14610949578163e382690e146105a6578163e4ffe402146106de578163e767c105146105c6578163eb8d72b7146105a6578163ebd07f9b1461058a578163f2fde38b146104f4578163f8c07a49146104bc578163f95d1688146103d4578163fbba623b146102b2575063fecdd4b2146102945780610012565b346102ae57816003193601126102ae576020905160148152f35b5080fd5b83346103d15760209160206003193601126102ae576001600160401b039080358281116103cd576102e69036908301612c5f565b9190926102f161369b565b82116103ba57506101359161030f8261030a8554612d4f565b6133d4565b8394601f8311600114610350575083948291610340949592610345575b50508160011b915f199060031b1c19161790565b905580f35b01359050858061032c565b601f198316955f80516020613a45833981519152929186905b8882106103a257505083600195969710610389575b505050811b01905580f35b01355f19600384901b60f8161c1916905584808061037e565b80600184968294958701358155019501920190610369565b634e487b7160e01b845260419052602483fd5b8380fd5b80fd5b8284346103d157602090816003193601126103d157829061ffff6103f6612c3d565b16815261012f83522091805180935f90805461041181612d4f565b91828552600191876001821691825f14610495575050600114610455575b5050506104519291610442910385612de4565b51928284938452830190612f7c565b0390f35b8693505f92919252825f20915f925b82841061047d575050508201018161044261045161042f565b8054848a018601528895508794909301928101610464565b60ff19168782015293151560051b860190930193508492506104429150610451905061042f565b5050346102ae5760203660031901126102ae5760ff8160209361ffff6104e0612c3d565b16815261013a855220541690519015158152f35b9050346105865760203660031901126105865761050f612cf3565b9161051861369b565b6001600160a01b03831615610534578361053184613801565b80f35b906020608492519162461bcd60e51b8352820152602660248201527f4f776e61626c653a206e6577206f776e657220697320746865207a65726f206160448201526564647265737360d01b6064820152fd5b8280fd5b5050346102ae57816003193601126102ae576020905160028152f35b83346103d1576105316105b836613010565b916105c161369b565b6134c3565b90506060366003190112610586576105dc612c3d565b91604435928315158094036106da5784936105f56136f3565b60018060a01b03806101335460101c16331480156106cd575b610617906131a6565b61ffff8316865261012e60205261062f848720612ebc565b9061063c8251151561362b565b6106458461366f565b845192600560208501526024358685015260608401524260808401526080835261066e83612dc9565b61012d541690813b156106c957869361069b86519788958694859462c5803160e81b865233938601613296565b039134905af19081156106c057506106b05750f35b6106b990612d87565b6103d15780f35b513d84823e3d90fd5b8680fd5b506033548116331461060e565b5f80fd5b9190506003196080368201126103cd576106f6612c3d565b916106ff612d09565b91604435906064356001600160401b038111610945576107229036908801612c5f565b919061072c6136f3565b610734613737565b60018060a01b0397886101335460101c1633148015610938575b610757906131a6565b6103e8851161090057908993929161ffff89169889865261012e60205261077f888720612ebc565b9261078c8451151561362b565b8851600160208201526001600160a01b038b16604082015260608101899052426080808301919091528152956107c360a088612de4565b80156108ed576107e8916107d8913691612fbc565b915b6107e381613849565b61366f565b8a61012d541691823b156106c95761085587958c9361083a61082a998d519a8b998a98899862c5803160e81b8a5289015260c0602489015260c4880190612f7c565b9084878303016044880152612f7c565b913360648601528860848601528483030160a4850152612f7c565b039134905af180156108e3576108cb575b50507f9086470028f9d6c61a7a2cb8e5a61d3bd4a1ee8d7e14637aca1e200764bc6f1892825195602087019186835216958684820152826060820152426080820152608081526108b581612dc9565b51902082519182526020820152a3600160655580f35b6108d490612d87565b6108df57855f610866565b8580fd5b84513d84823e3d90fd5b50506107e86108fa612e05565b916107da565b606490602087519162461bcd60e51b83528201526012602482015271496e76616c6964207269736b2073636f726560701b6044820152fd5b506033548916331461074e565b8780fd5b5050346102ae57816003193601126102ae576020905160018152f35b919050346105865761097636612c8c565b6109869793949592969197613737565b61ffff831697888a5261013793602095858752848c2087865180928b8d83378b820190815203019020996001600160401b0381169a8b5f528852855f2054968715610b1557876109d7368888612fbc565b8a815191012003610adf57908d95949392918d8752895289898c8989208a5193849283378d8201908152030190208c5f5289525f87812055303b156108df578a948694610a37928c8a51988997889763218f9f7360e01b8952880161310f565b038183305af18015610ad557610ac1575b5095877fc264d91f3adc5588250e1551f547752ca0cfa8f6b530d243b9f9f4cab10ea8e5975261013684528189208483518092888a833788820190815203019020816001600160401b0319825416179055610aaf82519687966060885260608801916130ef565b938501528301520390a2600160655580f35b610aca90612d87565b61094557875f610a48565b83513d84823e3d90fd5b865162461bcd60e51b81528084018a9052601060248201526f0a0c2f2d8dec2c840dad2e6dac2e8c6d60831b6044820152606490fd5b865162461bcd60e51b81528084018a905260116024820152704e6f206661696c6564206d65737361676560781b6044820152606490fd5b5050346102ae57816003193601126102ae576020905160038152f35b8390346102ae5760203660031901126102ae57610b8361369b565b356101345580f35b80918434610c43576080366003190112610c4357610ba7612c3d565b91610bb0612c4e565b926064356001600160401b0381116108df57610bcf9036908401612c5f565b94610bd861369b565b61012d546001600160a01b031691823b15610945578794610c3086928851998a97889687956332fb62e760e21b875261ffff8093169087015216602485015260443560448501526080606485015260848401916130ef565b03925af19081156106c057506106b05750f35b5050fd5b5050346102ae5760203660031901126102ae578060209261ffff610c69612c3d565b168152610139845220549051908152f35b5050346102ae57816003193601126102ae57610c94613448565b815192839260208080860192818752855180945286019401925b828110610cbd57505050500390f35b835161ffff1685528695509381019392810192600101610cae565b919050346105865782600319360112610586576020925051908152f35b5050346102ae5760203660031901126102ae5760209160ff9082906001600160a01b03610d20612cf3565b168152610131855220541690519015158152f35b905081600319360112610586576001600160401b03918135838111610f1557610d609036908401612d1f565b93610d69612d09565b90610d726136f3565b610d7a613737565b60018060a01b03806101339381855460101c1633148015610f7c575b610d9f906131a6565b610dac60148a11156131e1565b1693848952602092610131602052868a2060ff19815416905561ffff8095541695875196817f8b53afaede6417f4309257c8fce401bf4d0967c24332af39c7d1d832ce66a1d58d80a3600360208801528787015242606087015260608652608086019086821090821117610f69578652885b888110610e2e5789600160655580f35b89610e42610e3d838c8661321f565b61322f565b8681169081835261012e8752610e598a8420612ebc565b91825115159081610f53575b50610e76575b505050600101610e1e565b610e9f908b8b8b8961012d5416928251958692839263040a7bb160e41b84528730918501613254565b0381845afa928315610f49578593610f19575b50803b15610f15578c9385938c93610ede8f519788968795869462c5803160e81b865233938601613296565b03925af18015610f0b57610ef3575b80610e6b565b610efc90612d87565b610f0757895f610eed565b8980fd5b89513d84823e3d90fd5b8480fd5b610f3a9193508c8d3d10610f42575b610f328183612de4565b81019061323e565b50915f610eb2565b503d610f28565b8c513d87823e3d90fd5b84525061013a87528983205460ff16155f610e65565b604188634e487b7160e01b5f525260245ffd5b5060335482163314610d96565b5050346102ae57816003193601126102ae5761012d5490516001600160a01b039091168152602090f35b5050346102ae57816003193601126102ae576020905160058152f35b5050346102ae57806003193601126102ae5760209161ffff82610ff0612cf3565b92610ff9612c4e565b9360018060a01b0316815261013086522091165f528252805f20549051908152f35b5050346102ae57816003193601126102ae5761013354905160109190911c6001600160a01b03168152602090f35b5050346102ae57816003193601126102ae5760335490516001600160a01b039091168152602090f35b9190503461058657606036600319011261058657806110d361110e93611096612c3d565b906110e16110a2612d09565b8551600160208201526001600160a01b039091166040820152604435606082015242608082015293849060a0820190565b03601f198101855284612de4565b61012d54845163040a7bb160e41b81529687946001600160a01b0390921693859384939130918501613254565b03915afa9182156111495760209392611129575b5051908152f35b816111419293503d8411610f4257610f328183612de4565b50905f611122565b81513d85823e3d90fd5b5050346102ae5760203660031901126102ae5760209181906001600160a01b0361117b612cf3565b168152610132845220549051908152f35b5050346102ae57816003193601126102ae5760207f62e78cea01bee320cd4e420270b5ea74000d11b0c9f74754ebdbfc544b05a258916111ca61369b565b6111d26136f3565b600160ff19609754161760975551338152a180f35b5050346102ae57816003193601126102ae57602090610134549051908152f35b5050346102ae57806003193601126102ae578060209261ffff611228612c3d565b16815261013884528181206024358252845220549051908152f35b83346103d157806003193601126103d15761125c61369b565b603380546001600160a01b031981169091555f906001600160a01b03167f8be0079c531659141344cd1fd0a4f28419497f9722a3daafe3b4186f6b6457e08280a380f35b905034610586576060366003190112610586576112bb612cf3565b6112c3612c4e565b6001600160a01b0391906044359083821682036106da5786549360ff8560081c1615938480956116ae575b8015611697575b1561163d5761137160019660ff19908789838316178d5561162c575b5061132b60ff8c5460081c16611326816137a1565b6137a1565b61133433613801565b60ff8b5460081c1690611346826137a1565b61134f826137a1565b8860655561135c826137a1565b611365826137a1565b609754166097556137a1565b16801561161c5761012d906bffffffffffffffffffffffff60a01b8254161790556101339161ffff83549162010000600160b01b039060101b1692169069ffffffffffffffffffff60b01b161717905562030d40928361013455845190602094600160f01b868401526022830152602282526113ec82612dae565b8151906001600160401b0382116116095750610135916114108261030a8554612d4f565b8590601f83116001146115a15761143d92918991836115965750508160011b915f199060031b1c19161790565b90555b6065855261012f80845284862061146061145a8254612d4f565b82613422565b601067457468657265756d60c01b019055606d865280845284862061148861145a8254612d4f565b600e662837b63cb3b7b760c91b019055606e86528084528486206114af61145a8254612d4f565b601067417262697472756d60c01b01905560b886528084528486206114d761145a8254612d4f565b6008634261736560e01b019055606f86528084528486206114fb61145a8254612d4f565b6010674f7074696d69736d60c01b0190556066865280845284862061152361145a8254612d4f565b60066242534360e81b019055606a8652835283852061154561145a8254612d4f565b6012684176616c616e63686560b81b01905561155f578380f35b7f7f26b83ff96e1f2b6a682f133852f6798a09c465da95921460cefb38474024989261ff0019855416855551908152a15f80808380f35b015190505f8061032c565b8389528592915f80516020613a4583398151915291601f1984168b5b8a8282106115f357505084116115db575b505050811b019055611440565b01515f1960f88460031b161c191690555f80806115ce565b8385015186558a979095019493840193016115bd565b634e487b7160e01b885260419052602487fd5b865163f1cbb56760e01b81528690fd5b61ffff1916610101178b555f611311565b875162461bcd60e51b8152602081890152602e60248201527f496e697469616c697a61626c653a20636f6e747261637420697320616c72656160448201526d191e481a5b9a5d1a585b1a5e995960921b6064820152608490fd5b50303b1580156112f55750600160ff8716146112f5565b50600160ff8716106112ee565b83346103d15760203660031901126103d1576116d5612cf3565b6116dd61369b565b610133805462010000600160b01b03191660109290921b62010000600160b01b031691909117905580f35b5050346102ae57816003193601126102ae5760209060ff6097541690519015158152f35b90503461058657606036600319011261058657611747612c3d565b6024356001600160401b03928382116108df5761176691369101612ff2565b936044359283168093036106da5760209484869261ffff61179c9516815261013784522082865194838680955193849201612f5b565b820190815203019020905f528252805f20549051908152f35b5050346102ae57816003193601126102ae5760209061ffff61013354169051908152f35b905082346103d157806003193601126103d157507f00000000000000000000000000000000000000000000000000000000000000006001600160a01b0316300361183357602082515f80516020613a658339815191528152f35b6020608492519162461bcd60e51b8352820152603860248201527f555550535570677261646561626c653a206d757374206e6f742062652063616c60448201527f6c6564207468726f7567682064656c656761746563616c6c00000000000000006064820152fd5b91809150600319360112610586576118b1612cf3565b906024356001600160401b038111610f15576118d09036908501612ff2565b6001600160a01b037f0000000000000000000000000000000000000000000000000000000000000000811692919061190a308514156132fc565b6119265f80516020613a6583398151915294828654161461335d565b61192e61369b565b7f4910fdfa16fed3260ed0e7147f7cc6da11a60208b5b9406d12a635614ffd91435460ff161561196657505050506105319150613918565b82516352d1902d60e01b81526020959394918416919086818981865afa5f9181611b01575b506119ea57855162461bcd60e51b8152808901889052602e60248201527f45524331393637557067726164653a206e657720696d706c656d656e7461746960448201526d6f6e206973206e6f74205555505360901b6064820152608490fd5b9691929394959603611aac5750611a0083613918565b7fbc7cd75a20ee27fd9adebab32041f755214dbc6bffa90cc0225b39da2e5c2d3b5f80a2805115801590611aa4575b611a3b575b5050505080f35b5f8091611a9a95660819985a5b195960ca1b865196611a5988612dae565b602788527f416464726573733a206c6f772d6c6576656c2064656c65676174652063616c6c8389015287015281519101845af4611a9461314f565b916139a7565b505f808080611a34565b506001611a2f565b845162461bcd60e51b8152908101869052602960248201527f45524331393637557067726164653a20756e737570706f727465642070726f786044820152681a58589b195555525160ba1b6064820152608490fd5b9091508781813d8311611b29575b611b198183612de4565b810103126106da5751905f61198b565b503d611b0f565b80918434610c4357611b4136613010565b939091611b4c61369b565b61012d546001600160a01b031690813b156106c9578661ffff91610c3082968851998a97889687956342d65a8d60e01b8752169085015289602485015260448401916130ef565b905034610586578260031936011261058657611bad61369b565b6097549060ff821615611bef575060ff1916609755513381527f5db9ee0a495bf2e6ff9c91a7834c1ba4fdd244a5e8aa4e537bd38aeae4b073aa90602090a180f35b606490602084519162461bcd60e51b8352820152601460248201527314185d5cd8589b194e881b9bdd081c185d5cd95960621b6044820152fd5b905034610586578160031936011261058657611c43612c3d565b6001600160401b03916024358381116108df57918460209661ffff611c6f8995611c8b97369101612ff2565b9316815261013684522082865194838680955193849201612f5b565b82019081520301902054169051908152f35b91905034610586576020806003193601126103cd57611cba612cf3565b916001600160a01b037f00000000000000000000000000000000000000000000000000000000000000008116611cf2308214156132fc565b611d0e5f80516020613a6583398151915291838354161461335d565b611d1661369b565b825190848201928284106001600160401b03851117610f69578385528883527f4910fdfa16fed3260ed0e7147f7cc6da11a60208b5b9406d12a635614ffd91435460ff1615611d6f575050505050506105319150613918565b8693949596169085516352d1902d60e01b815287818a81865afa5f9181611f01575b50611df057865162461bcd60e51b8152808a01899052602e60248201527f45524331393637557067726164653a206e657720696d706c656d656e7461746960448201526d6f6e206973206e6f74205555505360901b6064820152608490fd5b979192949795939503611eac5750611e0784613918565b7fbc7cd75a20ee27fd9adebab32041f755214dbc6bffa90cc0225b39da2e5c2d3b5f80a2815115801590611ea5575b611e43575b505050505080f35b611e9a945f92660819985a5b195960ca1b837f416464726573733a206c6f772d6c6576656c2064656c65676174652063616c6c86955198611e838a612dae565b60278a528901528701525190845af4611a9461314f565b505f80808080611e3b565b505f611e36565b825162461bcd60e51b8152908101869052602960248201527f45524331393637557067726164653a20756e737570706f727465642070726f786044820152681a58589b195555525160ba1b6064820152608490fd5b9091508881813d8311611f29575b611f198183612de4565b810103126106da5751905f611d91565b503d611f0f565b5050346102ae5760203660031901126102ae57611f65816104519361ffff611f56612c3d565b16815261012e60205220612ebc565b9051918291602083526020830190612f7c565b5050346102ae57816003193601126102ae5761045190611f65612e05565b9190503461058657611fa736612c8c565b919694959350915030330361230b578101818103906020948583126123075760ff611fd1856132ee565b16600181036120ed575050506080136108df5780611ff16102bc926132ee565b5082611ffe85830161378d565b9101359060018060a01b0316809581895261013086527f15f9dea2870412b32b1fa4b54024231ac0a44b323dd65367a1ef900f56a6770f8561ffff818c209316998a93845f52895285825f2055848c52610132895242828d20556001600160401b038251918783521689820152a31015612079575050505080f35b7ff444c153f7c157a6cf2f8b0235c240b8fbe443497b16a70d54018bff518100bb917f486967682063726f73732d636861696e207269736b2073636f726500000000006060928588526101318352808820600160ff19825416179055601b815193808552840152820152a35f808080611a34565b60028199939698959799145f146121ac575050506080136108df57612111836132ee565b5061211d85840161378d565b9284810135906001600160401b03821161094557019180601f840112156106c9577ff444c153f7c157a6cf2f8b0235c240b8fbe443497b16a70d54018bff518100bb936121756121a692858961ffff97359101612fbc565b9060018060a01b0316958689526101318852808920600160ff19825416179055519384938885521696830190612f7c565b0390a380f35b9091929395969450600381145f1461222657505050606013610f1557610131836121d861ffff956132ee565b506001600160a01b03906121ed90870161378d565b1680875294528420805460ff1916905516907f8b53afaede6417f4309257c8fce401bf4d0967c24332af39c7d1d832ce66a1d58380a380f35b81819897989694939596145f1461228b5750506060136108df577f2374512f3bebd404592ffbf49528b70d56b51e0c559f4944a3648595f11d3aa8936001600160401b0361ffff93612277886132ee565b50828651980135885216908601521692a280f35b92969493926005036122f957506080136108df576122a8836132ee565b5081830135938415158095036106da577fdbf831308772f8ec03b0d674a00529cb48e33e6cb00b5b004c21c932b42f18b4936001600160401b0361ffff93855197885216828701520135941692a380f35b8351637c6953f960e01b8152fd5b8880fd5b825162461bcd60e51b8152602081860152600960248201526827b7363c9039b2b63360b91b6044820152606490fd5b90506060366003190112610586576001600160401b03908035828111610f15576123679036908301612d1f565b939092612372612d09565b906044359081116106c95761238a9036908501612c5f565b9190956123956136f3565b61239d613737565b60018060a01b03806101339381855460101c16331480156126b2575b6123c2906131a6565b6123cf60148511156131e1565b1691828a5261246b6020936101318552612457888d209b60019c600160ff1982541617905589837ff444c153f7c157a6cf2f8b0235c240b8fbe443497b16a70d54018bff518100bb6124348c61ffff809d541694519182918d83528d830190886130ef565b0390a389519889936002898601528b8501526080606085015260a08401916130ef565b42608083015203601f198101875286612de4565b89898b8888825b8d878086106125ee575050505050505034106125b85789805b82811061249b5750600160655580f35b8a916124ab610e3d83868e61321f565b8781169081835261012e88526124c28b8420612ebc565b918251151590816125a2575b506124df575b505050018a9061248b565b61250c91929394508b8b8b8961012d5416928251958692839263040a7bb160e41b84528730918501613254565b0381845afa928315610f49578593612582575b50803b15610f15578c9385938c9361254b8f519788968795869462c5803160e81b865233938601613296565b03925af18015610f0b57908c939291612565575b806124d4565b61257191929350612d87565b61257e5789908b5f61255f565b8a80fd5b61259a9193508c8d3d10610f4257610f328183612de4565b50915f61251f565b84525061013a88528a83205460ff16155f6124ce565b855162461bcd60e51b8152808801849052601060248201526f496e73756666696369656e742066656560801b6044820152606490fd5b612600610e3d8787936126119561321f565b928c8416815261012e8c5220612ebc565b51612625575b505050018a9088888e612472565b612650939594508c8861012d54169184519586948593849363040a7bb160e41b855230918501613254565b03915afa9081156126a8578d9161268a575b508101809111612677578a909188885f612617565b601189634e487b7160e01b5f525260245ffd5b6126a19150893d8b11610f4257610f328183612de4565b505f612662565b89513d8f823e3d90fd5b50603354821633146123b9565b80918434610c43576020366003190112610c43576126db612c3d565b6126e361369b565b61012d546001600160a01b031690813b15610f1557602461ffff91868094865197889586946310ddb13760e01b865216908401525af19081156106c057506106b05750f35b5050346102ae5760203660031901126102ae5761ffff612746612c3d565b61274e61369b565b1680835261013a602052908220805460ff191660011790557f14fb671957f97f61bbf7e0f432b5c1580d9844608feeaa55815dd11942df1b918280a280f35b80918434610c43576020366003190112610c43576127a9612c3d565b6127b161369b565b61012d546001600160a01b031690813b15610f1557602461ffff91868094865197889586946307e0db1760e01b865216908401525af19081156106c057506106b05750f35b8284346103d1576020806003193601126102ae57612812612cf3565b82908361281d613448565b916001600160a01b0316815b835181101561288557818352610130865287832061ffff908161284c848861317e565b51165f528752885f2054868111612868575b5050600101612829565b90955060019197509461287b888661317e565b511696908961285e565b878561ffff898351928352166020820152f35b919050346105865780600319360112610586576128b3612c3d565b602435926128bf61369b565b83151580612918575b156128e0575061ffff16835261013960205282205580f35b606490602084519162461bcd60e51b83528201526012602482015271155b9c99585cdbdb98589b19481b1a5b5a5d60721b6044820152fd5b506103e884106128c8565b5050346102ae5760203660031901126102ae5761ffff612941612c3d565b61294961369b565b1680835261013a602052908220805460ff191690557f45ab06c3b47dc8a241fd039cda08699de1dead693eb76016c414ceefeb71320a8280a280f35b848483346106da5761299636612c8c565b929495939690919860018060a01b0361012d54163303612bfc57506129ba8661366f565b61ffff861695865f5260209461012e86526129d6835f20612ebc565b8051878982149283612bde575b50505015612ba85788999a885f9a999a5261013692838852845f208986519d8e37898d019081528c896001600160401b039e8f930301902054169b8216809c1015612b6557303b156106da578992612a5188885f958d8a51988997889763218f9f7360e01b8952880161310f565b038183305af19081612b48575b508a959493929190612b15575091839183899a7fe183f33de2837795525b4792ca4cd60535bd77c53b7e7030060bfcf5734d6b0c9a89612b0f99988c612b0199612aa661314f565b9b612ab2368b8b612fbc565b848151910120958152610137845220865193849283378d820190815203019020825f528652825f2055612af182519a8b9a60808c5260808c01916130ef565b94890152878403908801526130ef565b908382036060850152612f7c565b0390a280f35b9396959792509390505283528381872091519485938437820190815203019020906001600160401b031982541617905580f35b612b589196959493929b50612d87565b5f9990919293948b612a5e565b845162461bcd60e51b8152808401899052601760248201527f4e6f6e636520616c72656164792070726f6365737365640000000000000000006044820152606490fd5b825162461bcd60e51b8152908101869052601060248201526f556e7472757374656420736f7572636560801b6044820152606490fd5b01209050612bed36898c612fbc565b878151910120148c87816129e3565b62461bcd60e51b8152602085820152601760248201527f496e76616c696420656e64706f696e742063616c6c65720000000000000000006044820152606490fd5b6004359061ffff821682036106da57565b6024359061ffff821682036106da57565b9181601f840112156106da578235916001600160401b0383116106da57602083818601950101116106da57565b9060806003198301126106da5760043561ffff811681036106da57916001600160401b03906024358281116106da5781612cc891600401612c5f565b9390939260443581811681036106da57926064359182116106da57612cef91600401612c5f565b9091565b600435906001600160a01b03821682036106da57565b602435906001600160a01b03821682036106da57565b9181601f840112156106da578235916001600160401b0383116106da576020808501948460051b0101116106da57565b90600182811c92168015612d7d575b6020831014612d6957565b634e487b7160e01b5f52602260045260245ffd5b91607f1691612d5e565b6001600160401b038111612d9a57604052565b634e487b7160e01b5f52604160045260245ffd5b606081019081106001600160401b03821117612d9a57604052565b60a081019081106001600160401b03821117612d9a57604052565b90601f801991011681019081106001600160401b03821117612d9a57604052565b604051905f8261013591825492612e1b84612d4f565b80845293602091600191828116908115612e965750600114612e49575b505050612e4792500383612de4565b565b5f9081525f80516020613a458339815191529590935091905b828410612e7e5750612e479450505081016020015f8080612e38565b85548885018301529485019487945092810192612e62565b9250505060209250612e4794915060ff191682840152151560051b8201015f8080612e38565b9060405191825f8254612ece81612d4f565b908184526020946001916001811690815f14612f395750600114612efb57505050612e4792500383612de4565b5f90815285812095935091905b818310612f21575050612e4793508201015f8080612e38565b85548884018501529485019487945091830191612f08565b92505050612e4794925060ff191682840152151560051b8201015f8080612e38565b5f5b838110612f6c5750505f910152565b8181015183820152602001612f5d565b90602091612f9581518092818552858086019101612f5b565b601f01601f1916010190565b6001600160401b038111612d9a57601f01601f191660200190565b929192612fc882612fa1565b91612fd66040519384612de4565b8294818452818301116106da578281602093845f960137010152565b9080601f830112156106da5781602061300d93359101612fbc565b90565b9060406003198301126106da5760043561ffff811681036106da5791602435906001600160401b0382116106da57612cef91600401612c5f565b905f916101359081549161305d83612d4f565b808352926020916001918281169081156130c85750600114613081575b5050505050565b90939495505f525f80516020613a45833981519152925f935b8585106130b557505050602092500101905f8080808061307a565b805485850184015293820193810161309a565b9350505050602093945060ff929192191683830152151560051b0101905f8080808061307a565b908060209392818452848401375f828201840152601f01601f1916010190565b9161313b9061300d9795969461ffff6001600160401b03941685526080602086015260808501916130ef565b9416604082015260608185039101526130ef565b3d15613179573d9061316082612fa1565b9161316e6040519384612de4565b82523d5f602084013e565b606090565b80518210156131925760209160051b010190565b634e487b7160e01b5f52603260045260245ffd5b156131ad57565b60405162461bcd60e51b815260206004820152600c60248201526b155b985d5d1a1bdc9a5e995960a21b6044820152606490fd5b156131e857565b60405162461bcd60e51b815260206004820152600f60248201526e546f6f206d616e7920636861696e7360881b6044820152606490fd5b91908110156131925760051b0190565b3561ffff811681036106da5790565b91908260409103126106da576020825192015190565b919261300d9361ffff6132829316845260018060a01b0316602084015260a0604084015260a0830190612f7c565b905f6060820152608081830391015261304a565b91926132bb61300d959461ffff6132c99416855260c0602086015260c0850190612f7c565b908382036040850152612f7c565b6001600160a01b0390921660608201525f608082015280820360a0919091015261304a565b359060ff821682036106da57565b1561330357565b60405162461bcd60e51b815260206004820152602c60248201527f46756e6374696f6e206d7573742062652063616c6c6564207468726f7567682060448201526b19195b1959d85d1958d85b1b60a21b6064820152608490fd5b1561336457565b60405162461bcd60e51b815260206004820152602c60248201527f46756e6374696f6e206d7573742062652063616c6c6564207468726f7567682060448201526b6163746976652070726f787960a01b6064820152608490fd5b8181106133c9575050565b5f81556001016133be565b90601f82116133e1575050565b612e47916101355f525f80516020613a45833981519152906020601f840160051c83019310613418575b601f0160051c01906133be565b909150819061340b565b90601f811161342f575050565b612e47915f52601f60205f20910160051c8101906133be565b60405160c081018181106001600160401b03821117612d9a57604052600581526020810160a0368237815115613192576065905280516001101561319257606d604082015280516002101561319257606e60608201528051600310156131925760b8608082015280516004101561319257606f60a082015290565b61ffff909291921691825f5260209061012e825260405f206001600160401b038411612d9a576134f38154612d4f565b601f81116135fd575b505f601f851160011461357557916135659161355186807f93c35c217d799290d33244ef8905b63167d13758ab18343cd8055ed1b80567489897965f9161356a575b508160011b915f199060031b1c19161790565b90555b6040519383859485528401916130ef565b0390a2565b90508401355f61353e565b601f19851690825f52845f20915f5b8181106135e65750916135659391877f93c35c217d799290d33244ef8905b63167d13758ab18343cd8055ed1b805674898979694106135cd575b5050600185811b019055613554565b8301355f19600388901b60f8161c191690555f806135be565b919286600181928689013581550194019201613584565b61362590825f52845f20601f870160051c81019186881061341857601f0160051c01906133be565b5f6134fc565b1561363257565b60405162461bcd60e51b81526020600482015260156024820152742ab73a393ab9ba32b2103232b9ba34b730ba34b7b760591b6044820152606490fd5b61ffff165f5261013a60205260ff60405f20541661368957565b604051632e22a60960e21b8152600490fd5b6033546001600160a01b031633036136af57565b606460405162461bcd60e51b815260206004820152602060248201527f4f776e61626c653a2063616c6c6572206973206e6f7420746865206f776e65726044820152fd5b60ff609754166136ff57565b60405162461bcd60e51b815260206004820152601060248201526f14185d5cd8589b194e881c185d5cd95960821b6044820152606490fd5b600260655414613748576002606555565b60405162461bcd60e51b815260206004820152601f60248201527f5265656e7472616e637947756172643a207265656e7472616e742063616c6c006044820152606490fd5b35906001600160a01b03821682036106da57565b156137a857565b60405162461bcd60e51b815260206004820152602b60248201527f496e697469616c697a61626c653a20636f6e7472616374206973206e6f74206960448201526a6e697469616c697a696e6760a81b6064820152608490fd5b603380546001600160a01b039283166001600160a01b0319821681179092559091167f8be0079c531659141344cd1fd0a4f28419497f9722a3daafe3b4186f6b6457e05f80a3565b61ffff16805f5260206101398152604090815f20549283156139125761013890818352835f20435f528352835f2054948510156138b0576001850180951161389c575f528152815f2090435f52525f2055565b634e487b7160e01b5f52601160045260245ffd5b8391507fcea3f1c044cc2f0eca28231fac0444ac9b0917bc6750f9c29aa98e2d9908a0998360649551438152a2519062461bcd60e51b82526004820152601360248201527214985d19481b1a5b5a5d08195e18d959591959606a1b6044820152fd5b50505050565b803b1561394c575f80516020613a6583398151915280546001600160a01b0319166001600160a01b03909216919091179055565b60405162461bcd60e51b815260206004820152602d60248201527f455243313936373a206e657720696d706c656d656e746174696f6e206973206e60448201526c1bdd08184818dbdb9d1c9858dd609a1b6064820152608490fd5b91929015613a0957508151156139bb575090565b3b156139c45790565b60405162461bcd60e51b815260206004820152601d60248201527f416464726573733a2063616c6c20746f206e6f6e2d636f6e74726163740000006044820152606490fd5b825190915015613a1c5750805190602001fd5b60405162461bcd60e51b815260206004820152908190613a40906024830190612f7c565b0390fdfedf37d27e88e3bd0b85262482997e409a463f5be0ebb19232abf994dd8474090d360894a13ba1a3210667c828492db98dca3e2076cc3735a920a3ca505d382bbca2646970667358221220dcf3afe64ae8225ba21aede41be14e8066669ac82d720c77c12a617c12aa222764736f6c63430008180033","linkReferences":{}},"methodIdentifiers":{"MAX_BATCH_CHAINS()":"fecdd4b2","MSG_BLOCK_ADDRESS()":"ebd07f9b","MSG_DISPUTE_RESULT()":"a9347126","MSG_POLICY_UPDATE()":"c0cc3090","MSG_RISK_SCORE()":"d64c35fe","MSG_UNBLOCK_ADDRESS()":"d17f7b89","blockAddressGlobally(uint16[],address,string)":"1dc69ca0","chainBlockMessageCount(uint16,uint256)":"7bc87fff","chainNames(uint16)":"f95d1688","chainPaused(uint16)":"d46630f9","chainRateLimit(uint16)":"c61d2c76","crossChainRiskScores(address,uint16)":"9f0a0089","defaultAdapterParams()":"272bd384","estimateRiskScoreFee(uint16,address,uint256)":"8b50b484","failedMessages(uint16,bytes,uint64)":"5b8c41e6","forceResumeReceive(uint16,bytes)":"42d65a8d","getAggregatedRiskScore(address)":"05b4f51c","getSupportedChains()":"c4bffe2b","globallyBlocked(address)":"74a34e33","initialize(address,uint16,address)":"708c0db9","isChainPaused(uint16)":"f8c07a49","isGloballyBlocked(address)":"bec4eb20","lastRiskUpdate(address)":"87e0de90","localChainId()":"5b056da5","lzEndpoint()":"b353aaa7","lzReceive(uint16,bytes,uint64,bytes)":"001d3567","minDstGas()":"83241883","owner()":"8da5cb5b","pause()":"8456cb59","pauseChain(uint16)":"0e3187e5","paused()":"5c975abb","policyEngine()":"927399a5","processMessage(uint16,bytes,uint64,bytes)":"218f9f73","propagateDisputeResult(uint16,bytes32,bool)":"e767c105","proxiableUUID()":"52d1902d","receivedNonces(uint16,bytes)":"3e48ea58","renounceOwnership()":"715018a6","retryMessage(uint16,bytes,uint64,bytes)":"d1deba1f","sendRiskScore(uint16,address,uint256,bytes)":"e4ffe402","setChainRateLimit(uint16,uint256)":"028658a7","setConfig(uint16,uint16,uint256,bytes)":"cbed8b9c","setDefaultAdapterParams(bytes)":"fbba623b","setMinDstGas(uint256)":"d06fe8f9","setPolicyEngine(address)":"6135b085","setReceiveVersion(uint16)":"10ddb137","setSendVersion(uint16)":"07e0db17","setTrustedRemote(uint16,bytes)":"eb8d72b7","setTrustedRemotePath(uint16,bytes)":"e382690e","transferOwnership(address)":"f2fde38b","trustedRemotes(uint16)":"2b5d23d2","unblockAddressGlobally(uint16[],address)":"b50a8e17","unpause()":"3f4ba83a","unpauseChain(uint16)":"024d973f","upgradeTo(address)":"3659cfe6","upgradeToAndCall(address,bytes)":"4f1ef286"},"id":6}