{"abi":[{"type":"constructor","inputs":[],"stateMutability":"nonpayable"},{"type":"function","name":"addressProofs","inputs":[{"name":"","type":"address","internalType":"address"},{"name":"","type":"uint8","internalType":"enum MockZkNAF.ProofType"}],"outputs":[{"name":"","type":"bytes32","internalType":"bytes32"}],"stateMutability":"view"},{"type":"function","name":"batchDemoApprove","inputs":[{"name":"accounts","type":"address[]","internalType":"address[]"}],"outputs":[],"stateMutability":"nonpayable"},{"type":"function","name":"demoApproved","inputs":[{"name":"","type":"address","internalType":"address"}],"outputs":[{"name":"","type":"bool","internalType":"bool"}],"stateMutability":"view"},{"type":"function","name":"demoMode","inputs":[],"outputs":[{"name":"","type":"bool","internalType":"bool"}],"stateMutability":"view"},{"type":"function","name":"generateAllProofs","inputs":[],"outputs":[{"name":"sanctionsProof","type":"bytes32","internalType":"bytes32"},{"name":"riskProof","type":"bytes32","internalType":"bytes32"},{"name":"kycProof","type":"bytes32","internalType":"bytes32"}],"stateMutability":"nonpayable"},{"type":"function","name":"generateDemoProof","inputs":[{"name":"proofType","type":"uint8","internalType":"enum MockZkNAF.ProofType"}],"outputs":[{"name":"proofHash","type":"bytes32","internalType":"bytes32"}],"stateMutability":"nonpayable"},{"type":"function","name":"generateProofFor","inputs":[{"name":"account","type":"address","internalType":"address"},{"name":"proofType","type":"uint8","internalType":"enum MockZkNAF.ProofType"}],"outputs":[{"name":"proofHash","type":"bytes32","internalType":"bytes32"}],"stateMutability":"nonpayable"},{"type":"function","name":"getProof","inputs":[{"name":"proofHash","type":"bytes32","internalType":"bytes32"}],"outputs":[{"name":"","type":"tuple","internalType":"struct MockZkNAF.ProofRecord","components":[{"name":"proofHash","type":"bytes32","internalType":"bytes32"},{"name":"proofType","type":"uint8","internalType":"enum MockZkNAF.ProofType"},{"name":"prover","type":"address","internalType":"address"},{"name":"timestamp","type":"uint256","internalType":"uint256"},{"name":"expiresAt","type":"uint256","internalType":"uint256"},{"name":"isValid","type":"bool","internalType":"bool"}]}],"stateMutability":"view"},{"type":"function","name":"getUserProof","inputs":[{"name":"account","type":"address","internalType":"address"},{"name":"proofType","type":"uint8","internalType":"enum MockZkNAF.ProofType"}],"outputs":[{"name":"","type":"tuple","internalType":"struct MockZkNAF.ProofRecord","components":[{"name":"proofHash","type":"bytes32","internalType":"bytes32"},{"name":"proofType","type":"uint8","internalType":"enum MockZkNAF.ProofType"},{"name":"prover","type":"address","internalType":"address"},{"name":"timestamp","type":"uint256","internalType":"uint256"},{"name":"expiresAt","type":"uint256","internalType":"uint256"},{"name":"isValid","type":"bool","internalType":"bool"}]}],"stateMutability":"view"},{"type":"function","name":"hasValidProof","inputs":[{"name":"account","type":"address","internalType":"address"},{"name":"proofType","type":"uint8","internalType":"enum MockZkNAF.ProofType"}],"outputs":[{"name":"","type":"bool","internalType":"bool"}],"stateMutability":"view"},{"type":"function","name":"isCompliant","inputs":[{"name":"account","type":"address","internalType":"address"}],"outputs":[{"name":"sanctionsProof","type":"bool","internalType":"bool"},{"name":"riskProof","type":"bool","internalType":"bool"},{"name":"kycProof","type":"bool","internalType":"bool"},{"name":"fullyCompliant","type":"bool","internalType":"bool"}],"stateMutability":"view"},{"type":"function","name":"owner","inputs":[],"outputs":[{"name":"","type":"address","internalType":"address"}],"stateMutability":"view"},{"type":"function","name":"proofRecords","inputs":[{"name":"","type":"bytes32","internalType":"bytes32"}],"outputs":[{"name":"proofHash","type":"bytes32","internalType":"bytes32"},{"name":"proofType","type":"uint8","internalType":"enum MockZkNAF.ProofType"},{"name":"prover","type":"address","internalType":"address"},{"name":"timestamp","type":"uint256","internalType":"uint256"},{"name":"expiresAt","type":"uint256","internalType":"uint256"},{"name":"isValid","type":"bool","internalType":"bool"}],"stateMutability":"view"},{"type":"function","name":"proofValidityDuration","inputs":[],"outputs":[{"name":"","type":"uint256","internalType":"uint256"}],"stateMutability":"view"},{"type":"function","name":"setDemoApproval","inputs":[{"name":"account","type":"address","internalType":"address"},{"name":"approved","type":"bool","internalType":"bool"}],"outputs":[],"stateMutability":"nonpayable"},{"type":"function","name":"setDemoMode","inputs":[{"name":"enabled","type":"bool","internalType":"bool"}],"outputs":[],"stateMutability":"nonpayable"},{"type":"function","name":"setProofValidityDuration","inputs":[{"name":"duration","type":"uint256","internalType":"uint256"}],"outputs":[],"stateMutability":"nonpayable"},{"type":"function","name":"totalProofsVerified","inputs":[],"outputs":[{"name":"","type":"uint256","internalType":"uint256"}],"stateMutability":"view"},{"type":"event","name":"AddressDemoApproved","inputs":[{"name":"account","type":"address","indexed":true,"internalType":"address"},{"name":"approved","type":"bool","indexed":false,"internalType":"bool"}],"anonymous":false},{"type":"event","name":"DemoModeChanged","inputs":[{"name":"enabled","type":"bool","indexed":false,"internalType":"bool"}],"anonymous":false},{"type":"event","name":"ProofGenerated","inputs":[{"name":"proofHash","type":"bytes32","indexed":true,"internalType":"bytes32"},{"name":"proofType","type":"uint8","indexed":true,"internalType":"enum MockZkNAF.ProofType"},{"name":"prover","type":"address","indexed":true,"internalType":"address"},{"name":"expiresAt","type":"uint256","indexed":false,"internalType":"uint256"}],"anonymous":false}],"bytecode":{"object":"0x6080806040523461003b575f80546001600160a81b0319163360ff60a01b191617600160a01b179055620151806004556110c090816100408239f35b5f80fdfe60806040526004361015610011575f80fd5b5f3560e01c806276f35014610a13578063016baeff146109db57806314177ec4146109365780631b80bb3a146108a35780633bd60ea71461087657806344ba06d51461085257806352520d081461083557806355a70679146107525780636de1ab06146107155780637e17c1e11461069e5780637edadd54146106275780637ef0a959146105fe5780638da5cb5b146105d757806398bba86e14610204578063a200e5d0146101c1578063d246a2a3146101a4578063e638caca146101175763eccba51a146100de575f80fd5b3461011357602061010b6100f136610a4c565b9061010660018060a01b035f54163314610c74565b610ed4565b604051908152f35b5f80fd5b3461011357604036600319011261011357610130610a36565b6024359081151590818303610113577feec76c1492af944b942038ee2cf839bff9b8f0952ca567a9503ee7088a0e818a9161019b60209260018060a01b039061017d825f54163314610c74565b1694855f526003845260405f209060ff801983541691151516179055565b604051908152a2005b34610113575f366003190112610113576020600554604051908152f35b346101135760203660031901126101135760806101e46101df610a36565b610cfc565b916040519315158452151560208401521515604083015215156060820152f35b34610113575f3660031901126101135760055460405160208101915f835233604083015242606083015260808201526080815261024081610b29565b51902060045442018042116105af5760405161025b81610af9565b82815260208101905f825233604082015260608101904282526080810184815260a082019060018252865f52600160205260405f2093835185556001850195519560058710156105c3576102fc9660049560ff60408454920151610100600160a81b039060081b169216906affffffffffffffffffffff60a81b161717905551600285015551600384015551151591019060ff801983541691151516179055565b335f52600260205260405f205f80526020528160405f20556005545f1981146105af5760010190816005556040519081525f835f8051602061106b83398151915260203394a460405160208101916001835233604083015242606083015260808201526080815261036c81610b29565b5190209060045442018042116105af5760405161038881610af9565b8381526020810160018152336040830152426060830152826080830152600160a0830152845f52600160205260405f209082518255519160058310156105c3576001820180546040830151610100600160a81b0360089190911b1660ff9586166001600160a81b031990921691909117179055606081015160028301556080810151600383015560a001516004909101805460ff1916911515909216179055335f52600260205260405f2060015f526020528260405f20556005545f1981146105af5760010190816005556040519081526001845f8051602061106b83398151915260203394a460405160208101916003835233604083015242606083015260808201526080815261049981610b29565b5190206004544201928342116105af576040516104b581610af9565b82815260208101906003825260408101338152606082014281526080830188815260a084019160018352875f52600160205260405f20945185556001850195519560058710156105c3576105539660049560ff835491610100600160a81b03905160081b169216906affffffffffffffffffffff60a81b161717905551600285015551600384015551151591019060ff801983541691151516179055565b335f52600260205260405f2060035f526020528160405f2055600554935f1985146105af576001606095016005556040519081526003835f8051602061106b83398151915260203394a460405192835260208301526040820152f35b634e487b7160e01b5f52601160045260245ffd5b634e487b7160e01b5f52602160045260245ffd5b34610113575f366003190112610113575f546040516001600160a01b039091168152602090f35b346101135760203660031901126101135760043560058110156101135761010b60209133610ed4565b3461011357602036600319011261011357600435801515809103610113575f547f8a4cfbe76a332503b75b9cd87e82597a539999330f06c5c363eb976f113a7e4691602091610680336001600160a01b03831614610c74565b60ff60a01b191660a082901b60ff60a01b16175f55604051908152a1005b34610113576020366003190112610113576004355f52600160205260c060405f20805490600181015490600281015460ff6004600384015493015416926040519485526106f16020860160ff8316610a91565b60081c6001600160a01b0316604085015260608401526080830152151560a0820152f35b34610113576020366003190112610113576001600160a01b03610736610a36565b165f526003602052602060ff60405f2054166040519015158152f35b34610113576020806003193601126101135767ffffffffffffffff906004358281116101135736602382011215610113578060040135928311610113576024810190602436918560051b010111610113575f546001600160a01b0393906107bc9085163314610c74565b5f5b8181106107c757005b80856107de6107d96001948688610cac565b610cd0565b165f526003855260405f2082908160ff198254161790557feec76c1492af944b942038ee2cf839bff9b8f0952ca567a9503ee7088a0e818a86886108266107d986898b610cac565b1692604051908152a2016107be565b34610113575f366003190112610113576020600454604051908152f35b34610113575f36600319011261011357602060ff5f5460a01c166040519015158152f35b346101135760203660031901126101135761089b60018060a01b035f54163314610c74565b600480359055005b34610113576020366003190112610113576108bc610c44565b506004355f52600160205261093260405f2060ff6004604051926108df84610af9565b8054845260018101546108f784821660208701610aed565b60018060a01b039060081c1660408501526002810154606085015260038101546080850152015416151560a082015260405191829182610a9e565b0390f35b346101135761093261097361094a36610a4c565b610955929192610c44565b506001600160a01b039283165f908152600260205260409020610a7b565b545f52600160205260ff600460405f206040519361099085610af9565b8154855260018201546109a885821660208801610aed565b60081c1660408501526002810154606085015260038101546080850152015416151560a082015260405191829182610a9e565b34610113576020610a0a6109ee36610a4c565b6001600160a01b039091165f9081526002845260409020610a7b565b54604051908152f35b34610113576020610a2c610a2636610a4c565b90610b67565b6040519015158152f35b600435906001600160a01b038216820361011357565b6040906003190112610113576004356001600160a01b0381168103610113579060243560058110156101135790565b9060058110156105c3575f5260205260405f2090565b9060058210156105c35752565b91909160a08060c083019480518452610abf60208201516020860190610a91565b600180831b036040820151166040850152606081015160608501526080810151608085015201511515910152565b60058210156105c35752565b60c0810190811067ffffffffffffffff821117610b1557604052565b634e487b7160e01b5f52604160045260245ffd5b60a0810190811067ffffffffffffffff821117610b1557604052565b90601f8019910116810190811067ffffffffffffffff821117610b1557604052565b9060ff5f5460a01c1680610c23575b610c1c576001600160a01b039182165f908152600260205260409020610b9c9190610a7b565b54908115610c165760a0915f52600160205260405f209060405190610bc082610af9565b825482526001830154610bd960ff821660208501610aed565b60081c1660408201526002820154606082015260ff60046003840154938460808501520154161515928391015281610c0f575090565b9050421090565b50505f90565b5050600190565b506001600160a01b0382165f9081526003602052604090205460ff16610b76565b60405190610c5182610af9565b5f60a0838281528260208201528260408201528260608201528260808201520152565b15610c7b57565b60405162461bcd60e51b81526020600482015260096024820152682737ba1037bbb732b960b91b6044820152606490fd5b9190811015610cbc5760051b0190565b634e487b7160e01b5f52603260045260245ffd5b356001600160a01b03811681036101135790565b90816020910312610113575180151581036101135790565b9060ff5f5460a01c1680610eb3575b610ea7576040805162076f3560e41b8082526001600160a01b03909416600482018190525f6024830152926020929091908382604481305afa918215610e9d575f92610e7e575b508195815194818652866004870152600160248701528086604481305afa958615610e55575f96610e5f575b508515610e07575b859683519283526004830152600360248301528082604481305afa928315610dfe57505f92610dd1575b5050809382610dc9575b5081610dc4575090565b905090565b91505f610dba565b610df09250803d10610df7575b610de88183610b45565b810190610ce4565b5f80610db0565b503d610dde565b513d5f823e3d90fd5b94508151818152866004820152600260248201528581604481305afa908115610e55575f91610e38575b5094610d86565b610e4f9150863d8811610df757610de88183610b45565b5f610e31565b83513d5f823e3d90fd5b81610e779297503d8811610df757610de88183610b45565b945f610d7e565b610e96919250843d8611610df757610de88183610b45565b905f610d52565b50513d5f823e3d90fd5b60019150819081908190565b506001600160a01b0382165f9081526003602052604090205460ff16610d0b565b906005549060409283516020810191610eed8385610a91565b60018060a01b0316938486830152426060830152608082015260808152610f1381610b29565b519020926004908154420191824211611057578151610f3181610af9565b86815260208101610f428682610aed565b8382019087825260608301428152608084019187835260a0850193600185528b5f526001602052875f209551865560018601915190600582101561104457825490516001600160a81b031990911660ff9283161760089190911b610100600160a81b03161790915590516002850155905160038401559051918301805492151590911660ff1992909216919091179055845f52600260205285610fe785845f20610a7b565b556005545f19811461103157600101600555600584101561101e5750602085925f8051602061106b8339815191529251908152a490565b602190634e487b7160e01b5f525260245ffd5b601182634e487b7160e01b5f525260245ffd5b602188634e487b7160e01b5f525260245ffd5b601190634e487b7160e01b5f525260245ffdfe18116ea878a2d2494052bd2e58f87186480fb9d6b3d161680fcd7d224c3106b1a2646970667358221220f600aa880766e76e9e6172c8600606a4498e5d3f61a204ca0636d0b16f3b222164736f6c63430008180033","linkReferences":{}},"methodIdentifiers":{"addressProofs(address,uint8)":"016baeff","batchDemoApprove(address[])":"55a70679","demoApproved(address)":"6de1ab06","demoMode()":"44ba06d5","generateAllProofs()":"98bba86e","generateDemoProof(uint8)":"7ef0a959","generateProofFor(address,uint8)":"eccba51a","getProof(bytes32)":"1b80bb3a","getUserProof(address,uint8)":"14177ec4","hasValidProof(address,uint8)":"0076f350","isCompliant(address)":"a200e5d0","owner()":"8da5cb5b","proofRecords(bytes32)":"7e17c1e1","proofValidityDuration()":"52520d08","setDemoApproval(address,bool)":"e638caca","setDemoMode(bool)":"7edadd54","setProofValidityDuration(uint256)":"3bd60ea7","totalProofsVerified()":"d246a2a3"},"id":32}