{"abi":[{"type":"function","name":"verifyProof","inputs":[{"name":"_pA","type":"uint256[2]","internalType":"uint256[2]"},{"name":"_pB","type":"uint256[2][2]","internalType":"uint256[2][2]"},{"name":"_pC","type":"uint256[2]","internalType":"uint256[2]"},{"name":"_pubSignals","type":"uint256[9]","internalType":"uint256[9]"}],"outputs":[{"name":"","type":"bool","internalType":"bool"}],"stateMutability":"view"}],"bytecode":{"object":"0x608080604052346100165761096d908161001b8239f35b5f80fdfe60806040526004361015610011575f80fd5b5f3560e01c63c542c93b14610024575f80fd5b3461040e576102208060031936011261040e5761004036610412565b903660c41161040e576100523661041f565b9161022436811161040e57610400604052610104356100708161042d565b6101243561007d8161042d565b6101443561008a8161042d565b610164356100978161042d565b61018435906100a58261042d565b6101a435926100b38461042d565b6101c435946100c18661042d565b6101e435966100cf8861042d565b61020435986100dd8a61042d565b356100e79061042d565b7f1fa7a7c08dfe4b9ce153b89c3562698cb9532cc1b32a4def2621bc9a4506a00b6080527f104e9b502f9015732db1d69e361ea42bac9c571fabc58f32028cdce3d27bae0c60a0526101389061045e565b610141906104e8565b61014a90610572565b610153906105fc565b61015c90610686565b61016590610710565b61016e9061079a565b61017790610823565b610180906108ad565b6101009283928284933584527f30644e72e131a029b85045b68181585d97816a916871ca8d3c208c16d87cfd4790602001358103066101205260443561014052606435610160526084356101805260a4356101a0527f2d4d9aa7e302d9df41749d5507949d05dbea33fbb16c643b22f599a2be6df2e26101c0527f14bedd503c37ceb061d8ec60209fe345ce89830a19230301f076caff004d19266101e0527f0967032fcbf776d1afc985f88877f182d38480a653f2decaa9794cbc3bf3060c610200527f0e187847ad4c798374d0d6732bf501847dd68bc0e071241e0213bc7fc13db7ab90527f304cfbd1e08a704a99f5e847d93f8c3caafddec46b7a0d379da69a4d112346a7610240527f1739c1b1a457a8c7313123d24d2f9192f896b7c63eea05a9d57f06547ad0cec8610260526080516102805260a0516102a0527f198e9393920d483a7260bfb731fb5d25f1aa493335a9e71297e485b7aef312c26102c0527f1800deef121f1e76426a00665e5c4479674322d4f75edadd46debd5cd992f6ed6102e052610300907f090689d0585ff075ec9e99ad690c3395bc4b313370b38ef355acdadcd122975b82527f12c85ea5db8c6deb4aab71808dcb408fe3d1e7690c43d37b4ce6cc0166fa7daa6103205280356103405260200135610360527f1388200799afa8133e7e7c76f9827d40a135762bb1eaf3af47384249cadc5b30610380527f1fd4c481b0f926626ce424224a25e81aa4142f67ba4f3d8808e87c735b466d006103a0527f2bfc8406da4bb839e52aa0b9118a603695be20398ad9101cbfff9141fe96c4c36103c0527f17375320f85441f4e6c9c7464e147e325242145c15700a05eb27863effff129a6103e0526107cf195a01926008602094fa9051165f5260205ff35b5f80fd5b9060049160441161040e57565b9060c4916101041161040e57565b7f30644e72e131a029b85045b68181585d2833e84879b9709143e1f593f0000001111561045657565b5f805260205ff35b604051907f22a9af30b04cefc430986d72f452e70a597f5cb6871ee2843501d76461435ab882527f2d2f146fb2d42b7225e0c661f0e4a05dbd75c0189b22e6a83416952d5df2da1d6020830152604082019081526107cf196040836060816007855a01fa156104565760409260066080939284938451905260a05160608401525a01fa1561045657565b604051907f0e91999038010efa047dc17db6b60bcf9fa1f99d4e4375fb793057e13078a2b182527f063de75c06f5827b6cda595d5090f4442a537c339e42bafeb3a76a368be342e06020830152604082019081526107cf196040836060816007855a01fa156104565760409260066080939284938451905260a05160608401525a01fa1561045657565b604051907f06d3e8ce5bfd6e042037d40877757b297cdcc66152ecef7b2c7a1a5408be05e282527f15c369623bf28639c5dc105210615264af37d64f0c117843e33f70029f81310a6020830152604082019081526107cf196040836060816007855a01fa156104565760409260066080939284938451905260a05160608401525a01fa1561045657565b604051907f06967e3186f89dff5e679cdd882d5b91c1c9574e1b5e1a8883a5d5c68363c7fb82527f28ff5919f93ba85be327832c37c7e073945c44f4941da72d8c79d015f68edc2b6020830152604082019081526107cf196040836060816007855a01fa156104565760409260066080939284938451905260a05160608401525a01fa1561045657565b604051907f05b2b309a1dc8688a64f21fd5bf889ee9a1b678734acccdf9c9eab62dd48f88382527f043b064bb50a05e9720f43b68eda368c2496a94f1a35fe1e38d245246858de176020830152604082019081526107cf196040836060816007855a01fa156104565760409260066080939284938451905260a05160608401525a01fa1561045657565b604051907f16ea6a45d4b0a4eb154a0d658945b353ac2596d67a4e14dc0f27db8c4b09407182527f2cc28879a483eb9ce1ac13fd53fcb8615b12c7875c45e35edb001701603ed1c86020830152604082019081526107cf196040836060816007855a01fa156104565760409260066080939284938451905260a05160608401525a01fa1561045657565b604051907f2d01efb6e2639b3f4201f463512d72d537adab3bc9d361bf5d64f5a3c8539ba282527e5f8016df5254747fbb450281388f1f1cdf0283748ed8264d8a487fe91fa0466020830152604082019081526107cf196040836060816007855a01fa156104565760409260066080939284938451905260a05160608401525a01fa1561045657565b604051907f0be4f9cde8e4ca07239de80e1c8d055a4e5a708ba756036638a2993c6fd20d3c82527f2a990f5fbaa86ff5e71255026f968e0902ac7d9032ca3f82e529d3272a649d506020830152604082019081526107cf196040836060816007855a01fa156104565760409260066080939284938451905260a05160608401525a01fa1561045657565b604051907f06f657441235afbdd5f6c93c00b8ffc68a9fe26162cc3a1d0014f27a25dde7e882527f234898699300a3d70b3b0070b257d3656b1124e13f9692dd7e9e68f70a7cef126020830152604082019081526107cf196040836060816007855a01fa156104565760409260066080939284938451905260a05160608401525a01fa156104565756fea2646970667358221220a325a6823e858a8734c71d7e59b7fceb1f02088c2482fa3def71e96d53c37f4b64736f6c63430008180033","linkReferences":{}},"methodIdentifiers":{"verifyProof(uint256[2],uint256[2][2],uint256[2],uint256[9])":"c542c93b"},"id":35}