{"abi":[{"type":"constructor","inputs":[{"name":"_policyEngine","type":"address","internalType":"address"},{"name":"_mlOracle","type":"address","internalType":"address"}],"stateMutability":"nonpayable"},{"type":"function","name":"DEFAULT_BLOCK_THRESHOLD","inputs":[],"outputs":[{"name":"","type":"uint256","internalType":"uint256"}],"stateMutability":"view"},{"type":"function","name":"DEFAULT_HIGH_RISK_THRESHOLD","inputs":[],"outputs":[{"name":"","type":"uint256","internalType":"uint256"}],"stateMutability":"view"},{"type":"function","name":"MAX_QUEUE_TIME","inputs":[],"outputs":[{"name":"","type":"uint256","internalType":"uint256"}],"stateMutability":"view"},{"type":"function","name":"RISK_PRECISION","inputs":[],"outputs":[{"name":"","type":"uint256","internalType":"uint256"}],"stateMutability":"view"},{"type":"function","name":"addToBlacklist","inputs":[{"name":"safe","type":"address","internalType":"address"},{"name":"target","type":"address","internalType":"address"}],"outputs":[],"stateMutability":"nonpayable"},{"type":"function","name":"addToWhitelist","inputs":[{"name":"safe","type":"address","internalType":"address"},{"name":"target","type":"address","internalType":"address"}],"outputs":[],"stateMutability":"nonpayable"},{"type":"function","name":"approveQueuedTransaction","inputs":[{"name":"txHash","type":"bytes32","internalType":"bytes32"}],"outputs":[],"stateMutability":"nonpayable"},{"type":"function","name":"auditLogs","inputs":[{"name":"","type":"uint256","internalType":"uint256"}],"outputs":[{"name":"txHash","type":"bytes32","internalType":"bytes32"},{"name":"safe","type":"address","internalType":"address"},{"name":"riskScore","type":"uint256","internalType":"uint256"},{"name":"action","type":"uint8","internalType":"enum AMTTPSafeModule.RiskAction"},{"name":"timestamp","type":"uint256","internalType":"uint256"},{"name":"reason","type":"string","internalType":"string"}],"stateMutability":"view"},{"type":"function","name":"blacklist","inputs":[{"name":"","type":"address","internalType":"address"},{"name":"","type":"address","internalType":"address"}],"outputs":[{"name":"","type":"bool","internalType":"bool"}],"stateMutability":"view"},{"type":"function","name":"checkAfterExecution","inputs":[{"name":"txHash","type":"bytes32","internalType":"bytes32"},{"name":"success","type":"bool","internalType":"bool"}],"outputs":[],"stateMutability":"nonpayable"},{"type":"function","name":"checkTransaction","inputs":[{"name":"to","type":"address","internalType":"address"},{"name":"value","type":"uint256","internalType":"uint256"},{"name":"data","type":"bytes","internalType":"bytes"},{"name":"operation","type":"uint8","internalType":"uint8"},{"name":"safeTxGas","type":"uint256","internalType":"uint256"},{"name":"baseGas","type":"uint256","internalType":"uint256"},{"name":"gasPrice","type":"uint256","internalType":"uint256"},{"name":"gasToken","type":"address","internalType":"address"},{"name":"refundReceiver","type":"address","internalType":"address"},{"name":"signatures","type":"bytes","internalType":"bytes"},{"name":"msgSender","type":"address","internalType":"address"}],"outputs":[],"stateMutability":"nonpayable"},{"type":"function","name":"dailyVolumes","inputs":[{"name":"","type":"address","internalType":"address"}],"outputs":[{"name":"volume","type":"uint256","internalType":"uint256"},{"name":"lastResetDay","type":"uint256","internalType":"uint256"}],"stateMutability":"view"},{"type":"function","name":"execute","inputs":[{"name":"to","type":"address","internalType":"address"},{"name":"value","type":"uint256","internalType":"uint256"},{"name":"data","type":"bytes","internalType":"bytes"},{"name":"operation","type":"uint8","internalType":"uint8"}],"outputs":[{"name":"success","type":"bool","internalType":"bool"}],"stateMutability":"nonpayable"},{"type":"function","name":"executeQueuedTransaction","inputs":[{"name":"txHash","type":"bytes32","internalType":"bytes32"}],"outputs":[{"name":"","type":"bool","internalType":"bool"}],"stateMutability":"nonpayable"},{"type":"function","name":"getAuditLogs","inputs":[{"name":"safe","type":"address","internalType":"address"},{"name":"limit","type":"uint256","internalType":"uint256"}],"outputs":[{"name":"","type":"tuple[]","internalType":"struct AMTTPSafeModule.AuditLog[]","components":[{"name":"txHash","type":"bytes32","internalType":"bytes32"},{"name":"safe","type":"address","internalType":"address"},{"name":"riskScore","type":"uint256","internalType":"uint256"},{"name":"action","type":"uint8","internalType":"enum AMTTPSafeModule.RiskAction"},{"name":"timestamp","type":"uint256","internalType":"uint256"},{"name":"reason","type":"string","internalType":"string"}]}],"stateMutability":"view"},{"type":"function","name":"getQueuedTransactions","inputs":[{"name":"safe","type":"address","internalType":"address"}],"outputs":[{"name":"","type":"bytes32[]","internalType":"bytes32[]"}],"stateMutability":"view"},{"type":"function","name":"isOperator","inputs":[{"name":"safe","type":"address","internalType":"address"},{"name":"account","type":"address","internalType":"address"}],"outputs":[{"name":"","type":"bool","internalType":"bool"}],"stateMutability":"view"},{"type":"function","name":"mlOracleService","inputs":[],"outputs":[{"name":"","type":"address","internalType":"address"}],"stateMutability":"view"},{"type":"function","name":"owner","inputs":[],"outputs":[{"name":"","type":"address","internalType":"address"}],"stateMutability":"view"},{"type":"function","name":"pause","inputs":[],"outputs":[],"stateMutability":"nonpayable"},{"type":"function","name":"paused","inputs":[],"outputs":[{"name":"","type":"bool","internalType":"bool"}],"stateMutability":"view"},{"type":"function","name":"policyEngine","inputs":[],"outputs":[{"name":"","type":"address","internalType":"address"}],"stateMutability":"view"},{"type":"function","name":"queuedTransactions","inputs":[{"name":"","type":"bytes32","internalType":"bytes32"}],"outputs":[{"name":"txHash","type":"bytes32","internalType":"bytes32"},{"name":"safe","type":"address","internalType":"address"},{"name":"to","type":"address","internalType":"address"},{"name":"value","type":"uint256","internalType":"uint256"},{"name":"data","type":"bytes","internalType":"bytes"},{"name":"operation","type":"uint8","internalType":"uint8"},{"name":"riskScore","type":"uint256","internalType":"uint256"},{"name":"queuedAt","type":"uint256","internalType":"uint256"},{"name":"approvalCount","type":"uint256","internalType":"uint256"},{"name":"status","type":"uint8","internalType":"enum AMTTPSafeModule.TransactionStatus"},{"name":"riskReason","type":"string","internalType":"string"}],"stateMutability":"view"},{"type":"function","name":"registerSafe","inputs":[{"name":"safe","type":"address","internalType":"address"},{"name":"operators","type":"address[]","internalType":"address[]"},{"name":"config","type":"tuple","internalType":"struct AMTTPSafeModule.SafeConfig","components":[{"name":"enabled","type":"bool","internalType":"bool"},{"name":"highRiskThreshold","type":"uint256","internalType":"uint256"},{"name":"blockThreshold","type":"uint256","internalType":"uint256"},{"name":"dailyLimit","type":"uint256","internalType":"uint256"},{"name":"singleTxLimit","type":"uint256","internalType":"uint256"},{"name":"requiresMLCheck","type":"bool","internalType":"bool"},{"name":"autoApproveWhitelisted","type":"bool","internalType":"bool"},{"name":"operators","type":"address[]","internalType":"address[]"}]}],"outputs":[],"stateMutability":"nonpayable"},{"type":"function","name":"registeredSafes","inputs":[{"name":"","type":"address","internalType":"address"}],"outputs":[{"name":"","type":"bool","internalType":"bool"}],"stateMutability":"view"},{"type":"function","name":"rejectQueuedTransaction","inputs":[{"name":"txHash","type":"bytes32","internalType":"bytes32"}],"outputs":[],"stateMutability":"nonpayable"},{"type":"function","name":"removeFromBlacklist","inputs":[{"name":"safe","type":"address","internalType":"address"},{"name":"target","type":"address","internalType":"address"}],"outputs":[],"stateMutability":"nonpayable"},{"type":"function","name":"removeFromWhitelist","inputs":[{"name":"safe","type":"address","internalType":"address"},{"name":"target","type":"address","internalType":"address"}],"outputs":[],"stateMutability":"nonpayable"},{"type":"function","name":"renounceOwnership","inputs":[],"outputs":[],"stateMutability":"nonpayable"},{"type":"function","name":"safeAuditIndexes","inputs":[{"name":"","type":"address","internalType":"address"},{"name":"","type":"uint256","internalType":"uint256"}],"outputs":[{"name":"","type":"uint256","internalType":"uint256"}],"stateMutability":"view"},{"type":"function","name":"safeConfigs","inputs":[{"name":"","type":"address","internalType":"address"}],"outputs":[{"name":"enabled","type":"bool","internalType":"bool"},{"name":"highRiskThreshold","type":"uint256","internalType":"uint256"},{"name":"blockThreshold","type":"uint256","internalType":"uint256"},{"name":"dailyLimit","type":"uint256","internalType":"uint256"},{"name":"singleTxLimit","type":"uint256","internalType":"uint256"},{"name":"requiresMLCheck","type":"bool","internalType":"bool"},{"name":"autoApproveWhitelisted","type":"bool","internalType":"bool"}],"stateMutability":"view"},{"type":"function","name":"safeQueuedTxs","inputs":[{"name":"","type":"address","internalType":"address"},{"name":"","type":"uint256","internalType":"uint256"}],"outputs":[{"name":"","type":"bytes32","internalType":"bytes32"}],"stateMutability":"view"},{"type":"function","name":"setMLOracle","inputs":[{"name":"_mlOracle","type":"address","internalType":"address"}],"outputs":[],"stateMutability":"nonpayable"},{"type":"function","name":"setPolicyEngine","inputs":[{"name":"_policyEngine","type":"address","internalType":"address"}],"outputs":[],"stateMutability":"nonpayable"},{"type":"function","name":"transferOwnership","inputs":[{"name":"newOwner","type":"address","internalType":"address"}],"outputs":[],"stateMutability":"nonpayable"},{"type":"function","name":"txApprovals","inputs":[{"name":"","type":"bytes32","internalType":"bytes32"},{"name":"","type":"address","internalType":"address"}],"outputs":[{"name":"","type":"bool","internalType":"bool"}],"stateMutability":"view"},{"type":"function","name":"unpause","inputs":[],"outputs":[],"stateMutability":"nonpayable"},{"type":"function","name":"updateSafeConfig","inputs":[{"name":"safe","type":"address","internalType":"address"},{"name":"config","type":"tuple","internalType":"struct AMTTPSafeModule.SafeConfig","components":[{"name":"enabled","type":"bool","internalType":"bool"},{"name":"highRiskThreshold","type":"uint256","internalType":"uint256"},{"name":"blockThreshold","type":"uint256","internalType":"uint256"},{"name":"dailyLimit","type":"uint256","internalType":"uint256"},{"name":"singleTxLimit","type":"uint256","internalType":"uint256"},{"name":"requiresMLCheck","type":"bool","internalType":"bool"},{"name":"autoApproveWhitelisted","type":"bool","internalType":"bool"},{"name":"operators","type":"address[]","internalType":"address[]"}]}],"outputs":[],"stateMutability":"nonpayable"},{"type":"function","name":"whitelist","inputs":[{"name":"","type":"address","internalType":"address"},{"name":"","type":"address","internalType":"address"}],"outputs":[{"name":"","type":"bool","internalType":"bool"}],"stateMutability":"view"},{"type":"event","name":"BlacklistUpdated","inputs":[{"name":"safe","type":"address","indexed":true,"internalType":"address"},{"name":"target","type":"address","indexed":true,"internalType":"address"},{"name":"status","type":"bool","indexed":false,"internalType":"bool"}],"anonymous":false},{"type":"event","name":"MLOracleUpdated","inputs":[{"name":"newOracle","type":"address","indexed":true,"internalType":"address"}],"anonymous":false},{"type":"event","name":"OwnershipTransferred","inputs":[{"name":"previousOwner","type":"address","indexed":true,"internalType":"address"},{"name":"newOwner","type":"address","indexed":true,"internalType":"address"}],"anonymous":false},{"type":"event","name":"Paused","inputs":[{"name":"account","type":"address","indexed":false,"internalType":"address"}],"anonymous":false},{"type":"event","name":"PolicyEngineUpdated","inputs":[{"name":"newEngine","type":"address","indexed":true,"internalType":"address"}],"anonymous":false},{"type":"event","name":"SafeConfigUpdated","inputs":[{"name":"safe","type":"address","indexed":true,"internalType":"address"},{"name":"highRiskThreshold","type":"uint256","indexed":false,"internalType":"uint256"},{"name":"blockThreshold","type":"uint256","indexed":false,"internalType":"uint256"}],"anonymous":false},{"type":"event","name":"SafeRegistered","inputs":[{"name":"safe","type":"address","indexed":true,"internalType":"address"},{"name":"operators","type":"address[]","indexed":false,"internalType":"address[]"}],"anonymous":false},{"type":"event","name":"TransactionApproved","inputs":[{"name":"txHash","type":"bytes32","indexed":true,"internalType":"bytes32"},{"name":"approver","type":"address","indexed":true,"internalType":"address"}],"anonymous":false},{"type":"event","name":"TransactionBlocked","inputs":[{"name":"txHash","type":"bytes32","indexed":true,"internalType":"bytes32"},{"name":"safe","type":"address","indexed":true,"internalType":"address"},{"name":"riskScore","type":"uint256","indexed":false,"internalType":"uint256"},{"name":"reason","type":"string","indexed":false,"internalType":"string"}],"anonymous":false},{"type":"event","name":"TransactionExecuted","inputs":[{"name":"txHash","type":"bytes32","indexed":true,"internalType":"bytes32"},{"name":"safe","type":"address","indexed":true,"internalType":"address"},{"name":"success","type":"bool","indexed":false,"internalType":"bool"}],"anonymous":false},{"type":"event","name":"TransactionQueued","inputs":[{"name":"txHash","type":"bytes32","indexed":true,"internalType":"bytes32"},{"name":"safe","type":"address","indexed":true,"internalType":"address"},{"name":"riskScore","type":"uint256","indexed":false,"internalType":"uint256"},{"name":"reason","type":"string","indexed":false,"internalType":"string"}],"anonymous":false},{"type":"event","name":"Unpaused","inputs":[{"name":"account","type":"address","indexed":false,"internalType":"address"}],"anonymous":false},{"type":"event","name":"WhitelistUpdated","inputs":[{"name":"safe","type":"address","indexed":true,"internalType":"address"},{"name":"target","type":"address","indexed":true,"internalType":"address"},{"name":"status","type":"bool","indexed":false,"internalType":"bool"}],"anonymous":false}],"bytecode":{"object":"0x6080346200013a57601f6200322538819003918201601f19168301916001600160401b038311848410176200013e5780849260409485528339810103126200013a576200005a6020620000528362000152565b920162000152565b5f80546001600160a01b031980821633908117845560405191956001600160a01b03959492939092908616907f8be0079c531659141344cd1fd0a4f28419497f9722a3daafe3b4186f6b6457e09080a3600180556002549184821615620000f857506001600160a81b031990911660089190911b610100600160a81b0316176002556003805490931691161790556040516130bd9081620001688239f35b62461bcd60e51b815260206004820152601560248201527f496e76616c696420706f6c69637920656e67696e6500000000000000000000006044820152606490fd5b5f80fd5b634e487b7160e01b5f52604160045260245ffd5b51906001600160a01b03821682036200013a5756fe6080806040526004361015610012575f80fd5b5f3560e01c908163019f330c14611c3857508063025faaab14611c1b578063092c385814611bd25780631b66a718146117085780631f6431b2146116c757806326bd178b146116ab578063275f7ec8146114e1578063313e8f781461148a57806339dec38e1461146e5780633f4ba83a146113db5780634ee5d10e1461139e578063519454471461121a578063575182431461118f5780635c975abb1461116d57806360760415146110cd5780636135b0851461101957806369833f1514610ff15780636f4fa0b214610f8b578063715018a614610f3457806375f0bb5214610e9c578063763fef5814610e175780638456cb5914610d855780638da5cb5b14610d5e578063927399a514610d325780639327136814610ce25780639d8374b414610c5b578063a23f362b14610c3f578063ad28ff8814610bed578063ae6748f014610b2a578063b092145e14610ad8578063b6363cf214610aa2578063c1e28663146108f0578063c3bfee1514610652578063dd26eb0514610502578063f2b06537146103ee578063f2fde38b1461032d578063f8d3277d146102a6578063fa90fba5146102165763fcb67d8c146101c9575f80fd5b34610212576040366003190112610212576101e2611cf8565b6004355f52600b60205260405f209060018060a01b03165f52602052602060ff60405f2054166040519015158152f35b5f80fd5b346102125760403660031901126102125761022f611ce2565b610237611cf8565b9061024a6102453383612f4a565b61211c565b60018060a01b0380911690815f52600a60205260405f20921691825f5260205260405f20600160ff198254161790557f47a4287ed69fa0ceb6b434a9bf7bb2b4bdeaf7b822a3ffdd6eda43b2a6585fbb602060405160018152a3005b34610212576040366003190112610212576102bf611ce2565b6102c7611cf8565b906102d56102453383612f4a565b60018060a01b0380911690815f52600960205260405f20921691825f5260205260405f2060ff1981541690557fd9c6c3eabe38e3b9a606a66358d8f225489216a59eeba66facefb7d91663526660206040515f8152a3005b3461021257602036600319011261021257610346611ce2565b61034e612fed565b6001600160a01b0390811690811561039a575f54826001600160601b0360a01b8216175f55167f8be0079c531659141344cd1fd0a4f28419497f9722a3daafe3b4186f6b6457e05f80a3005b60405162461bcd60e51b815260206004820152602660248201527f4f776e61626c653a206e6577206f776e657220697320746865207a65726f206160448201526564647265737360d01b6064820152608490fd5b34610212576020366003190112610212576004355f52600660205260405f20600a81549160018060a01b03928360018301541693600283015416600383015460405192610449846104428160048901611e94565b0385611d9d565b6104b160ff6005870154169460068701549260078801549460088901549661048a60ff60098c0154169a610483604051809e819301611e94565b038c611d9d565b6040519b610160938d5260208d015260408c015260608b01528060808b0152890190611f53565b9360a088015260c087015260e086015261010085015260058210156104ee5783926104ea92610120850152838203610140850152611f53565b0390f35b634e487b7160e01b5f52602160045260245ffd5b346102125760208060031936011261021257600435805f526006825260405f20600981019260ff84541660058110156104ee5761053f9015612ef9565b6001928383019160018060a01b0361056361055e828654163390612f4a565b611f90565b825f52600b825260405f20335f52825260ff60405f20541661061a57825f52600b825260405f20335f528252600860405f209560ff1996888882541617905501938454935f19851461060657876004950180965533907f81c6ac0dfc682cef290187a357858d8f72568d0c818cd30303f079c4ed6294a75f80a354165f5252600660405f20015483810180911161060657831c11156105fe57005b825416179055005b634e487b7160e01b5f52601160045260245ffd5b60405162461bcd60e51b815260048101839052601060248201526f105b1c9958591e48185c1c1c9bdd995960821b6044820152606490fd5b346102125760403660031901126102125761066b611ce2565b6024803560018060a01b038093165f52602091600d835260405f20916040518084868296549384815201905f52865f20925f5b888282106108da575050506106b592500384611d9d565b825190808210156108d25750905b6106cc82611fda565b926106da6040519485611d9d565b8284526106e683611fda565b601f1901855f5b828110610898575050505f5b8381106107a8575050505060405191808301818452825180915260408401918060408360051b8701019401925f965b8388106107355786860387f35b90919293948380610797600193603f198b820301875289519060c09082518152878584015116858201526040830151604082015261077b60608085015190830190611f25565b608080840151908201528160a080940151938201520190611f53565b970193019701969093929193610728565b81515f19808201918083116108855783900301908111610872576107cf6107d59184612f36565b51611e23565b50604051906107e382611d67565b80548252886001820154168883015260028101546040830152600360ff81830154169081101561085f5761083e83926005926060600197960152600481015460808501526108376040518094819301611e94565b0382611d9d565b60a082015261084d8288612f36565b526108588187612f36565b50016106f9565b85634e487b7160e01b5f5260216004525ffd5b83634e487b7160e01b5f5260116004525ffd5b85634e487b7160e01b5f5260116004525ffd5b6040516108a481611d67565b5f81525f838201525f604082015260605f818301525f608083015260a08201528282890101520186906106ed565b9050906106c3565b855484526001958601958995509301920161069e565b34610212576003196040368201126102125761090a611ce2565b906024356001600160401b03928382116102125761010082360393840112610212576109396102453383612f4a565b60018060a01b0380911693845f52602091600560205261095f60ff60405f205416612094565b855f52600460205260405f209361098d61097b82600401611fcd565b869060ff801983541691151516179055565b60019360248201359687600188015560066044840135978860028201556064850135600382015560848501356004820155610a08600582016109e66109d460a48901611fcd565b829060ff801983541691151516179055565b6109f260c48801611fcd565b815461ff00191690151560081b61ff0016179055565b019260e4810135916022190182121561021257016004810135948511610212576024018460051b3603811361021257610a418584612007565b915f5260205f20905f925b858410610a8657897f94cf89c7841d11066ee25e534c79bea7458e51e01edcc66f1361f97ee2f055b460408b8b82519182526020820152a2005b8035938585168503610212578288920194818501550192610a4c565b34610212576040366003190112610212576020610ace610ac0611ce2565b610ac8611cf8565b90612f4a565b6040519015158152f35b3461021257604036600319011261021257610af1611ce2565b610af9611cf8565b9060018060a01b038091165f52600960205260405f2091165f52602052602060ff60405f2054166040519015158152f35b3461021257602036600319011261021257600435805f52600660205260405f2090600982019182549260ff841660058110156104ee577f54ba7b597ceff3655ce355fb88e035c971f52b53121399c799a666c7777a32bb92608092610b9160069315612ef9565b60018201546001600160a01b031696600290610bb061055e338b612f4a565b60ff191617905501546040519081526040602082015260146040820152732932b532b1ba32b210313c9037b832b930ba37b960611b6060820152a3005b3461021257604036600319011261021257610c06611ce2565b610c0e611cf8565b9060018060a01b038091165f52600a60205260405f2091165f52602052602060ff60405f2054166040519015158152f35b34610212575f3660031901126102125760206040516102bc8152f35b3461021257604036600319011261021257610c74611ce2565b610c7c611cf8565b90610c8a6102453383612f4a565b60018060a01b0380911690815f52600a60205260405f20921691825f5260205260405f2060ff1981541690557f47a4287ed69fa0ceb6b434a9bf7bb2b4bdeaf7b822a3ffdd6eda43b2a6585fbb60206040515f8152a3005b34610212576040366003190112610212576024358015158091036102125760405190815233907f24548818c64291ac443a715fc51dc65c4ab02da0f9af9f755a6d61c7171549b9602060043592a3005b34610212575f3660031901126102125760025460405160089190911c6001600160a01b03168152602090f35b34610212575f366003190112610212575f546040516001600160a01b039091168152602090f35b34610212575f36600319011261021257610d9d612fed565b60025460ff8116610ddf5760019060ff1916176002557f62e78cea01bee320cd4e420270b5ea74000d11b0c9f74754ebdbfc544b05a2586020604051338152a1005b60405162461bcd60e51b815260206004820152601060248201526f14185d5cd8589b194e881c185d5cd95960821b6044820152606490fd5b34610212576020366003190112610212576001600160a01b03610e38611ce2565b165f52600460205260e060405f2060ff80825416916001810154906002810154600382015490600560048401549301549360405196151587526020870152604086015260608501526080840152818116151560a084015260081c16151560c0820152f35b346102125761016036600319011261021257610eb6611ce2565b6001600160401b0360443581811161021257610ed6903690600401611dbe565b610ede611e13565b916001600160a01b039060e43582811603610212576101043582811603610212576101243590811161021257610f18903690600401611dbe565b50610144359081160361021257610f3292602435906121bf565b005b34610212575f36600319011261021257610f4c612fed565b5f80546001600160a01b0319811682556001600160a01b03167f8be0079c531659141344cd1fd0a4f28419497f9722a3daafe3b4186f6b6457e08280a3005b3461021257602036600319011261021257610fa4611ce2565b610fac612fed565b600380546001600160a01b0319166001600160a01b039290921691821790557fe082c580afc1de7885dad3e86524cec09b055198ff578764db9d79a7507f27f05f80a2005b34610212575f366003190112610212576003546040516001600160a01b039091168152602090f35b3461021257602036600319011261021257611032611ce2565b61103a612fed565b6001600160a01b0381169081156110965760028054610100600160a81b03191660089290921b610100600160a81b03169190911790557fc715e03d65a2da6b90a0e4688aa08dc6764de44c14fa37a13f99a0608f6c52145f80a2005b60405162461bcd60e51b815260206004820152600f60248201526e496e76616c6964206164647265737360881b6044820152606490fd5b3461021257602036600319011261021257600435600c54811015610212576110f490611e23565b5080546104ea600560018060a01b0360018501541693611157600282015460ff6003840154169061113b6004850154946111346040518098819301611e94565b0386611d9d565b6040519788978852602088015260408701526060860190611f25565b608084015260c060a084015260c0830190611f53565b34610212575f36600319011261021257602060ff600254166040519015158152f35b34610212576040366003190112610212576111a8611ce2565b6111b0611cf8565b906111be6102453383612f4a565b60018060a01b0380911690815f52600960205260405f20921691825f5260205260405f20600160ff198254161790557fd9c6c3eabe38e3b9a606a66358d8f225489216a59eeba66facefb7d916635266602060405160018152a3005b3461021257608036600319011261021257611233611ce2565b602435906044356001600160401b03811161021257611256903690600401611dbe565b61125e611e13565b335f526020936005855261127860ff60405f205416612094565b6040518581019061129f816112914288878b33896120d6565b03601f198101835282611d9d565b51902093845f5260068652600960405f20019283549360ff851660058110156104ee5788956112d260016003931461203b565b60ff191617905560ff611313604051968795869563468721a760e01b875260018060a01b031660048701526024860152608060448601526084850190611f53565b9116606483015203815f335af1908115611393575f91611366575b50604051901515918282527f24548818c64291ac443a715fc51dc65c4ab02da0f9af9f755a6d61c7171549b9843393a3604051908152f35b6113869150833d851161138c575b61137e8183611d9d565b810190611f78565b8361132e565b503d611374565b6040513d5f823e3d90fd5b34610212576020366003190112610212576001600160a01b036113bf611ce2565b165f526005602052602060ff60405f2054166040519015158152f35b34610212575f366003190112610212576113f3612fed565b60025460ff8116156114325760ff19166002557f5db9ee0a495bf2e6ff9c91a7834c1ba4fdd244a5e8aa4e537bd38aeae4b073aa6020604051338152a1005b60405162461bcd60e51b815260206004820152601460248201527314185d5cd8589b194e881b9bdd081c185d5cd95960621b6044820152606490fd5b34610212575f3660031901126102125760206040516103848152f35b34610212576040366003190112610212576114a3611ce2565b6001600160a01b03165f90815260076020526040902080546024359190821015610212576020916114d391611d22565b90546040519160031b1c8152f35b346102125760208060031936011261021257600435600160028154146116665760028155815f526006835260405f2091600983019081549160ff831660058110156104ee5784611531911461203b565b600785015462093a80810180911161060657421161162b57848401546001600160a01b039081169387929060039061156c61055e3389612f4a565b60ff191617905560028601541660038601549060ff6005880154166115ba604051988994859463468721a760e01b865260048601526024850152608060448501526004608485019101611e94565b90606483015203815f865af1938415611393575f9461160c575b507f24548818c64291ac443a715fc51dc65c4ab02da0f9af9f755a6d61c7171549b98560405195151595868152a38055604051908152f35b611624919450853d871161138c5761137e8183611d9d565b92856115d4565b60405162461bcd60e51b8152600481018790526013602482015272151c985b9cd858dd1a5bdb88195e1c1a5c9959606a1b6044820152606490fd5b60405162461bcd60e51b815260048101849052601f60248201527f5265656e7472616e637947756172643a207265656e7472616e742063616c6c006044820152606490fd5b34610212575f3660031901126102125760206040516103e88152f35b34610212576020366003190112610212576001600160a01b036116e8611ce2565b165f5260086020526040805f206001815491015482519182526020820152f35b346102125760031960603682011261021257611722611ce2565b602435916001600160401b0383116102125736602384011215610212576001600160401b0383600401351161021257366024846004013560051b85010111610212576001600160401b0360443511610212576101009060443536030112610212576001600160a01b0381165f9081526005602052604090205460ff16611b8d576001600160a01b03811615611b5157816004013515611b0c576040516317aa5fb760e11b81523360048201526020816024816001600160a01b0386165afa908115611393575f91611aed575b508015611a8f575b6117ff90611f90565b6001600160a01b0381165f908152600560205260409020805460ff1916600117905561182f600460443501611fcd565b604435602401358015611a86575b6044803501358015611a7d575b61185860a460443501611fcd565b9061186760c460443501611fcd565b926040519461187586611d4b565b151585526020850152604084015260443560648101356060850152608401356080840152151560a0830152151560c08201526118b46004840135611fda565b906118c26040519283611d9d565b6004840135825260248401602083015b6024866004013560051b8701018210611a6557505060e081019182526001600160a01b0383165f9081526004602052604090208151815460ff191690151560ff16178155600691611980906020810151600184015560408101516002840155606081015160038401556080810151600484015560c0600584019161196860a08201511515849060ff801983541691151516179055565b0151815461ff00191690151560081b61ff0016179055565b019051908151916001600160401b038311611a51576020906119a28484612007565b01905f5260205f205f5b838110611a3457604080516020808252600489013590820152908101908660248901895f5b81600401358110611a0e576001600160a01b0384167f94dfe55c5f9eca9b5acc7b6caa7b93e6422e259ae1dae08943fac8fd86b3a6b986880387a2005b909194602080600192838060a01b03611a268a611d0e565b1681520196019291016119d1565b82516001600160a01b0316818301556020909201916001016119ac565b634e487b7160e01b5f52604160045260245ffd5b60208091611a7284611d0e565b8152019101906118d2565b5061038461184a565b506102bc61183d565b50604051632d9ad53d60e01b81523060048201526020816024816001600160a01b0386165afa8015611393576117ff915f91611ace575b5090506117f6565b611ae7915060203d60201161138c5761137e8183611d9d565b84611ac6565b611b06915060203d60201161138c5761137e8183611d9d565b836117ee565b60405162461bcd60e51b815260206004820152601a60248201527f4e656564206174206c65617374206f6e65206f70657261746f720000000000006044820152606490fd5b60405162461bcd60e51b8152602060048201526014602482015273496e76616c69642073616665206164647265737360601b6044820152606490fd5b60405162461bcd60e51b815260206004820152601760248201527f5361666520616c726561647920726567697374657265640000000000000000006044820152606490fd5b3461021257604036600319011261021257611beb611ce2565b6001600160a01b03165f908152600d6020526040902080546024359190821015610212576020916114d391611d22565b34610212575f36600319011261021257602060405162093a808152f35b346102125760209081600319360112610212576001600160a01b03611c5b611ce2565b165f526007825260405f2080548083528383019081925f52845f20905f5b86828210611cce578686611c8f82880383611d9d565b60405192839281840190828552518091526040840192915f5b828110611cb757505050500390f35b835185528695509381019392810192600101611ca8565b835485529093019260019283019201611c79565b600435906001600160a01b038216820361021257565b602435906001600160a01b038216820361021257565b35906001600160a01b038216820361021257565b8054821015611d37575f5260205f2001905f90565b634e487b7160e01b5f52603260045260245ffd5b61010081019081106001600160401b03821117611a5157604052565b60c081019081106001600160401b03821117611a5157604052565b604081019081106001600160401b03821117611a5157604052565b90601f801991011681019081106001600160401b03821117611a5157604052565b81601f82011215610212578035906001600160401b038211611a515760405192611df2601f8401601f191660200185611d9d565b8284526020838301011161021257815f926020809301838601378301015290565b6064359060ff8216820361021257565b600c54811015611d3757600690600c5f52027fdf6966c971051c3d54ec59162606531493a51404a002842f56009d7e5cf4a8c701905f90565b90600182811c92168015611e8a575b6020831014611e7657565b634e487b7160e01b5f52602260045260245ffd5b91607f1691611e6b565b80545f9392611ea282611e5c565b918282526020936001916001811690815f14611f065750600114611ec8575b5050505050565b90939495505f92919252835f2092845f945b838610611ef257505050500101905f80808080611ec1565b805485870183015294019385908201611eda565b60ff19168685015250505090151560051b010191505f80808080611ec1565b9060038210156104ee5752565b5f5b838110611f435750505f910152565b8181015183820152602001611f34565b90602091611f6c81518092818552858086019101611f32565b601f01601f1916010190565b90816020910312610212575180151581036102125790565b15611f9757565b60405162461bcd60e51b815260206004820152600e60248201526d139bdd08185d5d1a1bdc9a5e995960921b6044820152606490fd5b3580151581036102125790565b6001600160401b038111611a515760051b60200190565b818110611ffc575050565b5f8155600101611ff1565b90600160401b8111611a515781549080835581811061202557505050565b612039925f5260205f209182019101611ff1565b565b1561204257565b60405162461bcd60e51b815260206004820152601860248201527f5472616e73616374696f6e206e6f7420617070726f76656400000000000000006044820152606490fd5b9190820180921161060657565b1561209b57565b60405162461bcd60e51b815260206004820152601360248201527214d85999481b9bdd081c9959da5cdd195c9959606a1b6044820152606490fd5b91906068959493916001600160601b0319809260601b16845260601b1660148301526028820152612111825180936020604885019101611f32565b019060488201520190565b1561212357565b60405162461bcd60e51b815260206004820152601760248201527f4e6f7420617574686f72697a6564206f70657261746f720000000000000000006044820152606490fd5b90604051918281549182825260209260208301915f5260205f20935f905b82821061219c5750505061203992500383611d9d565b85546001600160a01b031684526001958601958895509381019390910190612186565b9190335f52600560205260ff60405f205416158015612ee5575b612edf57600a60205260405f2060018060a01b0384165f5260205260ff60405f205416612ea257335f52600860205260405f206201518042046001820181815410612e97575b50506004602052600360405f20015480612e45575b50612240828254612087565b9055335f52600460205260405f20926040519361225c85611d4b565b60ff815416151585526001810154602086015260028101546040860152600381015460608601526122b760066004830154926080880193845260ff6005820154818116151560a08b015260081c16151560c089015201612168565b60e08601525180612df4575b5060c0840151151580612dcc575b612bfd5760a0840151151580612be9575b6122ed575050505050565b5f959293949550803b95606460405161230581611d82565b601481527329ba30b73230b932103a3930b739b0b1ba34b7b760611b6020820152678ac7230489e80000851115612b92575060c8810181116106065760c8019460405161235181611d82565b60168152752434b3b4103b30b63ab2903a3930b739b0b1ba34b7b760511b6020820152975b151580612b88575b612b46575b604051602081019061239d8161129142868a8a33896120d6565b519020604088015190979087106125ed57888888600c54906040516123c181611d67565b83815260208101903382526040810190838252606081019160028352608082019042825260a0830194898652600160401b9788811015611a515780600161240b9201600c55611e23565b9490946125da57518455516001840180546001600160a01b0319166001600160a01b03929092169190911790555160028301559151916003808301908410156104ee5760059360ff801983541691161790555160048201550190518051906001600160401b038211611a515761248b826124858554611e5c565b85613044565b602090601f8311600114612576576124ba92915f918361256b575b50508160011b915f199060031b1c19161790565b90555b335f52600d60205260405f20805492831015611a5157826125049160017f54ba7b597ceff3655ce355fb88e035c971f52b53121399c799a666c7777a32bb95018155611d22565b5050604051908152604060208201528061252333956040830190611f53565b0390a360405162461bcd60e51b815260206004820152601e60248201527f5472616e73616374696f6e20626c6f636b65643a2068696768207269736b00006044820152606490fd5b0151905088806124a6565b90601f19831691845f5260205f20925f5b8181106125c257509084600195949392106125aa575b505050811b0190556124bd565b01515f1960f88460031b161c1916905587808061259d565b92936020600181928786015181550195019301612587565b634e487b7160e01b5f525f60045260245ffd5b60200151969794968610156127c95750505050600c54916040519461261186611d67565b855233602086015260408501525f606085015242608085015260a0840152600160401b811015611a515760018101600c5561264b81611e23565b6125da57835181556001810160018060a01b036020860151166001600160601b0360a01b82541617905560408401516002820155600381019060608501519060038210156104ee5760a09260059260ff8019835416911617905560808601516004820155019301519283516001600160401b038111611a51576126d8816126d28454611e5c565b84613044565b602094601f8211600114612767576127099293949582915f9261275c5750508160011b915f199060031b1c19161790565b90555b335f52600d60205260405f20805490600160401b821015611a51578161273a91600161275094018155611d22565b819391549060031b91821b915f19901b19161790565b90555f80808080611ec1565b015190505f806124a6565b601f19821695835f5260205f20915f5b8881106127b157508360019596979810612799575b505050811b01905561270c565b01515f1960f88460031b161c191690555f808061278c565b91926020600181928685015181550194019201612777565b879594965060405193846101608101106001600160401b0361016087011117611a515760ff93610160860160405287865233602087015260018060a01b03166040860152606085015260808401521660a08201528160c08201524260e08201525f6101008201525f61012082015283610140820152825f52600660205260405f20815181556001810160018060a01b03602084015116906001600160601b0360a01b9182825416179055600282019060018060a01b03604085015116908254161790556060820151600382015560808201518051906001600160401b038211611a51576128c6826128bd6004860154611e5c565b60048601613044565b602090601f8311600114612ad8576128f492915f918361256b5750508160011b915f199060031b1c19161790565b60048201555b6005810160ff60a0840151169060ff19918282541617905560c0830151600683015560e08301516007830155610100830151600883015560098201916101208401519260058410156104ee576101409360ff600a948354169116179055019101518051906001600160401b038211611a515761297a826124858554611e5c565b602090601f8311600114612a74576129a892915f9183612a695750508160011b915f199060031b1c19161790565b90555b335f52600760205260405f2090815491600160401b831015611a5157826129f89160017f3098787ce1182dcb93cac601d755eabb4bf63e8143f8082005b408d3fbee3f4095018155611d22565b50506040519081526040602082015280612a1733956040830190611f53565b0390a360405162461bcd60e51b815260206004820152602160248201527f5472616e73616374696f6e207175657565643a20656c657661746564207269736044820152606b60f81b6064820152608490fd5b0151905087806124a6565b90601f19831691845f5260205f20925f5b818110612ac05750908460019594939210612aa8575b505050811b0190556129ab565b01515f1960f88460031b161c19169055868080612a9b565b92936020600181928786015181550195019301612a85565b9190600484015f5260205f20905f935b601f1984168510612b2b576001945083601f19811610612b13575b505050811b0160048201556128fa565b01515f1960f88460031b161c19169055878080612b03565b81810151835560209485019460019093019290910190612ae8565b965093609681018091116106065793604051612b6181611d82565b601481527321b7b73a3930b1ba1034b73a32b930b1ba34b7b760611b602082015296612383565b508051151561237e565b97670de0b6b3a7640000859792971115612376579750945060c894604051612bb981611d82565b601881527f4d656469756d2076616c7565207472616e73616374696f6e0000000000000000602082015297612376565b506003546001600160a01b031615156122e2565b505050505060405190612c0f82611d82565b601582527415da1a5d195b1a5cdd1959081c9958da5c1a595b9d605a1b6020830152600c5460405192612c4184611d67565b5f84523360208501525f60408501525f606085015242608085015260a0840152600160401b811015611a515760018101600c55612c7d81611e23565b6125da57835181556001810160018060a01b036020860151166001600160601b0360a01b82541617905560408401516002820155600381019060608501519060038210156104ee5760a09260059260ff8019835416911617905560808601516004820155019301519283516001600160401b038111611a5157612d04816126d28454611e5c565b602094601f8211600114612d6a57612d359293949582915f9261275c5750508160011b915f199060031b1c19161790565b90555b335f52600d60205260405f20805490600160401b821015611a51578161273a916001612d6694018155611d22565b9055565b601f19821695835f5260205f20915f5b888110612db457508360019596979810612d9c575b505050811b019055612d38565b01515f1960f88460031b161c191690555f8080612d8f565b91926020600181928685015181550194019201612d7a565b50335f52600960205260405f2060018060a01b0382165f5260205260ff60405f2054166122d1565b8211612e00575f6122c3565b60405162461bcd60e51b815260206004820152601760248201527f457863656564732073696e676c65207478206c696d69740000000000000000006044820152606490fd5b612e50838354612087565b11612e5b575f612234565b60405162461bcd60e51b815260206004820152601460248201527311185a5b1e481b1a5b5a5d08195e18d95959195960621b6044820152606490fd5b5f8355555f8061221f565b60405162461bcd60e51b8152602060048201526015602482015274149958da5c1a595b9d08189b1858dadb1a5cdd1959605a1b6044820152606490fd5b50505050565b50600460205260ff60405f205416156121d9565b15612f0057565b60405162461bcd60e51b815260206004820152600e60248201526d496e76616c69642073746174757360901b6044820152606490fd5b8051821015611d375760209160051b010190565b9060018060a01b0380921691825f526004602052612f6d600660405f2001612168565b5f5b8151811015612f9f5782612f838284612f36565b511683851614612f9557600101612f6f565b5050505050600190565b5050602460209260405194859384926317aa5fb760e11b84521660048301525afa908115611393575f91612fd1575090565b612fea915060203d60201161138c5761137e8183611d9d565b90565b5f546001600160a01b0316330361300057565b606460405162461bcd60e51b815260206004820152602060248201527f4f776e61626c653a2063616c6c6572206973206e6f7420746865206f776e65726044820152fd5b9190601f811161305357505050565b612039925f5260205f20906020601f840160051c8301931061307d575b601f0160051c0190611ff1565b909150819061307056fea26469706673582212206795062ed8cd810ef43d9f49e41305f05369b7447610d305b39685972365ee7c64736f6c63430008180033","linkReferences":{}},"methodIdentifiers":{"DEFAULT_BLOCK_THRESHOLD()":"39dec38e","DEFAULT_HIGH_RISK_THRESHOLD()":"a23f362b","MAX_QUEUE_TIME()":"025faaab","RISK_PRECISION()":"26bd178b","addToBlacklist(address,address)":"fa90fba5","addToWhitelist(address,address)":"57518243","approveQueuedTransaction(bytes32)":"dd26eb05","auditLogs(uint256)":"60760415","blacklist(address,address)":"ad28ff88","checkAfterExecution(bytes32,bool)":"93271368","checkTransaction(address,uint256,bytes,uint8,uint256,uint256,uint256,address,address,bytes,address)":"75f0bb52","dailyVolumes(address)":"1f6431b2","execute(address,uint256,bytes,uint8)":"51945447","executeQueuedTransaction(bytes32)":"275f7ec8","getAuditLogs(address,uint256)":"c3bfee15","getQueuedTransactions(address)":"019f330c","isOperator(address,address)":"b6363cf2","mlOracleService()":"69833f15","owner()":"8da5cb5b","pause()":"8456cb59","paused()":"5c975abb","policyEngine()":"927399a5","queuedTransactions(bytes32)":"f2b06537","registerSafe(address,address[],(bool,uint256,uint256,uint256,uint256,bool,bool,address[]))":"1b66a718","registeredSafes(address)":"4ee5d10e","rejectQueuedTransaction(bytes32)":"ae6748f0","removeFromBlacklist(address,address)":"9d8374b4","removeFromWhitelist(address,address)":"f8d3277d","renounceOwnership()":"715018a6","safeAuditIndexes(address,uint256)":"092c3858","safeConfigs(address)":"763fef58","safeQueuedTxs(address,uint256)":"313e8f78","setMLOracle(address)":"6f4fa0b2","setPolicyEngine(address)":"6135b085","transferOwnership(address)":"f2fde38b","txApprovals(bytes32,address)":"fcb67d8c","unpause()":"3f4ba83a","updateSafeConfig(address,(bool,uint256,uint256,uint256,uint256,bool,bool,address[]))":"c1e28663","whitelist(address,address)":"b092145e"},"id":17}