{"abi":[{"type":"function","name":"verifyProof","inputs":[{"name":"_pA","type":"uint256[2]","internalType":"uint256[2]"},{"name":"_pB","type":"uint256[2][2]","internalType":"uint256[2][2]"},{"name":"_pC","type":"uint256[2]","internalType":"uint256[2]"},{"name":"_pubSignals","type":"uint256[8]","internalType":"uint256[8]"}],"outputs":[{"name":"","type":"bool","internalType":"bool"}],"stateMutability":"view"}],"bytecode":{"object":"0x60808060405234610016576108cb908161001b8239f35b5f80fdfe60806040526004361015610011575f80fd5b5f3560e01c63c9219a7a14610024575f80fd5b346103f557610200806003193601126103f557610040366103f9565b903660c4116103f55761005236610406565b916102043681116103f5576104006040526101043561007081610414565b6101243561007d81610414565b6101443561008a81610414565b6101643561009781610414565b61018435916100a583610414565b6101a435936100b385610414565b6101c435956100c187610414565b6101e435976100cf89610414565b356100d990610414565b7f18033674537e359102b3c5360602afbb2e07484ae3cf46cbdadd2deb48a085806080527ec841ad0c321a3c884b0dd09bfcc6a4199ead5f3d66998781ca4718601366f060a05261012990610445565b610132906104cf565b61013b90610559565b610144906105e3565b61014d9061066d565b610156906106f7565b61015f90610781565b6101689061080b565b6101009283928284933584527f30644e72e131a029b85045b68181585d97816a916871ca8d3c208c16d87cfd4790602001358103066101205260443561014052606435610160526084356101805260a4356101a0527f2d4d9aa7e302d9df41749d5507949d05dbea33fbb16c643b22f599a2be6df2e26101c0527f14bedd503c37ceb061d8ec60209fe345ce89830a19230301f076caff004d19266101e0527f0967032fcbf776d1afc985f88877f182d38480a653f2decaa9794cbc3bf3060c90527f0e187847ad4c798374d0d6732bf501847dd68bc0e071241e0213bc7fc13db7ab610220527f304cfbd1e08a704a99f5e847d93f8c3caafddec46b7a0d379da69a4d112346a7610240527f1739c1b1a457a8c7313123d24d2f9192f896b7c63eea05a9d57f06547ad0cec8610260526080516102805260a0516102a0527f198e9393920d483a7260bfb731fb5d25f1aa493335a9e71297e485b7aef312c26102c0527f1800deef121f1e76426a00665e5c4479674322d4f75edadd46debd5cd992f6ed6102e052610300907f090689d0585ff075ec9e99ad690c3395bc4b313370b38ef355acdadcd122975b82527f12c85ea5db8c6deb4aab71808dcb408fe3d1e7690c43d37b4ce6cc0166fa7daa6103205280356103405260200135610360527f0ba28c4b349cc75822a6f82e3de8617823d55879dc73fd9cdd3088b0078dcc4c610380527f18fcee9a06869b6eb191bab4fa5e44adbb77e2cdfadff83966599102c4f4b4ad6103a0527f15f827492da1f4d9d37eb95e606d89f29862c7b6f0c42ae983c654a7b5aaa6896103c0527eaafcb2cd19ba32a8e60f537736d7f93463bf92351d0b807eab27f6f045e7646103e0526107cf195a01926008602094fa9051165f5260205ff35b5f80fd5b906004916044116103f557565b9060c491610104116103f557565b7f30644e72e131a029b85045b68181585d2833e84879b9709143e1f593f0000001111561043d57565b5f805260205ff35b604051907f2601e31d122be76cff41a19ebca4ef419d9da69c1035ac93ebdf500192f5813282527f2f21f9b4d6b40f7a292a8066f5be3e493e6d18ff6264fdf22c7e7a2714900eda6020830152604082019081526107cf196040836060816007855a01fa1561043d5760409260066080939284938451905260a05160608401525a01fa1561043d57565b604051907f182735a4d35c56b11c6ccee184f588097ddb3c8bc83abed054002e710783f5b982527f28910f5ebca58e3c797655945d2efb0afc3de6b1f10f9e2658c1f365de06413b6020830152604082019081526107cf196040836060816007855a01fa1561043d5760409260066080939284938451905260a05160608401525a01fa1561043d57565b604051907f1f1a22e706a1494d50b02932090db95aa145acaf39b0965272326f7a1ef164e582527f164ea2800aa7dbc9f1a1ce992183e476b97689db424509cff52ce370c1ea4be96020830152604082019081526107cf196040836060816007855a01fa1561043d5760409260066080939284938451905260a05160608401525a01fa1561043d57565b604051907f02172adb8018f925e7ab46bf1c833221658b7806622f98f3781c77e726010d3f82527f0bc2709403d8f5f4131f8f86fad61a517953d95fa8f7fa37c7fd40647d1ffd646020830152604082019081526107cf196040836060816007855a01fa1561043d5760409260066080939284938451905260a05160608401525a01fa1561043d57565b604051907f215f00bc4551050213aa04b5437b8ef51d2ceeec50992f8799f66f7f4f791e9482527f1db7b35031ab415cb598305247f97ff2e11a420191cb6d2f90979cbd203faba46020830152604082019081526107cf196040836060816007855a01fa1561043d5760409260066080939284938451905260a05160608401525a01fa1561043d57565b604051907f0c5eb8277a54d4701b06b685f0bb53eaabf06fe2053e0f649c7c7cd6d6fd346e82527f1e400f3effd6b0b344c995788ef3efdd5b82256c19c9428ab36784fb2865c3206020830152604082019081526107cf196040836060816007855a01fa1561043d5760409260066080939284938451905260a05160608401525a01fa1561043d57565b604051907f1018e1d7c559a206527a608a40936a9b117b38630926b3859e1cb4b30e3635c782527f12d61b6a896589b3fbe33915022e01db2b9e0f319ab07e86588ac94f3daa342e6020830152604082019081526107cf196040836060816007855a01fa1561043d5760409260066080939284938451905260a05160608401525a01fa1561043d57565b604051907f2b803f624b87bca34c2a9b18e8255906b09ffde6f1bce12f287bcee3db755f1a82527f0ae76e92207adc23b14f5e9a178202dead2fcfb83a97378f1d316fd5e50212fc6020830152604082019081526107cf196040836060816007855a01fa1561043d5760409260066080939284938451905260a05160608401525a01fa1561043d5756fea264697066735822122008c6ee344b2bc5183d19d7c45fe3729eebdf5f4a359888b96e6cdaef489e3f9864736f6c63430008180033","linkReferences":{}},"methodIdentifiers":{"verifyProof(uint256[2],uint256[2][2],uint256[2],uint256[8])":"c9219a7a"},"id":39}