{"abi":[{"type":"constructor","inputs":[],"stateMutability":"nonpayable"},{"type":"function","name":"addressTierOverride","inputs":[{"name":"","type":"address","internalType":"address"}],"outputs":[{"name":"","type":"uint256","internalType":"uint256"}],"stateMutability":"view"},{"type":"function","name":"batchVerify","inputs":[{"name":"addresses","type":"address[]","internalType":"address[]"},{"name":"proofType","type":"uint8","internalType":"enum AMTTPzkNAF.ProofType"}],"outputs":[{"name":"allValid","type":"bool","internalType":"bool"},{"name":"invalidAddresses","type":"address[]","internalType":"address[]"}],"stateMutability":"view"},{"type":"function","name":"configureTier","inputs":[{"name":"tier","type":"uint256","internalType":"uint256"},{"name":"requirements","type":"tuple","internalType":"struct AMTTPCoreZkNAF.TierRequirements","components":[{"name":"requireSanctions","type":"bool","internalType":"bool"},{"name":"requireRiskProof","type":"bool","internalType":"bool"},{"name":"requireKYC","type":"bool","internalType":"bool"},{"name":"minRiskLevel","type":"uint8","internalType":"enum AMTTPzkNAF.ProofType"},{"name":"maxTransferAmount","type":"uint256","internalType":"uint256"}]}],"outputs":[],"stateMutability":"nonpayable"},{"type":"function","name":"getComplianceStatus","inputs":[{"name":"account","type":"address","internalType":"address"}],"outputs":[{"name":"hasSanctionsProof","type":"bool","internalType":"bool"},{"name":"hasRiskProof","type":"bool","internalType":"bool"},{"name":"hasKYCProof","type":"bool","internalType":"bool"},{"name":"maxAllowedTier","type":"uint256","internalType":"uint256"}],"stateMutability":"view"},{"type":"function","name":"initialize","inputs":[{"name":"_zkNAF","type":"address","internalType":"address"}],"outputs":[],"stateMutability":"nonpayable"},{"type":"function","name":"owner","inputs":[],"outputs":[{"name":"","type":"address","internalType":"address"}],"stateMutability":"view"},{"type":"function","name":"pause","inputs":[],"outputs":[],"stateMutability":"nonpayable"},{"type":"function","name":"paused","inputs":[],"outputs":[{"name":"","type":"bool","internalType":"bool"}],"stateMutability":"view"},{"type":"function","name":"renounceOwnership","inputs":[],"outputs":[],"stateMutability":"nonpayable"},{"type":"function","name":"setExemption","inputs":[{"name":"account","type":"address","internalType":"address"},{"name":"exempt","type":"bool","internalType":"bool"}],"outputs":[],"stateMutability":"nonpayable"},{"type":"function","name":"setTierOverride","inputs":[{"name":"account","type":"address","internalType":"address"},{"name":"tier","type":"uint256","internalType":"uint256"}],"outputs":[],"stateMutability":"nonpayable"},{"type":"function","name":"setVerificationEnabled","inputs":[{"name":"enabled","type":"bool","internalType":"bool"}],"outputs":[],"stateMutability":"nonpayable"},{"type":"function","name":"setZkNAF","inputs":[{"name":"_zkNAF","type":"address","internalType":"address"}],"outputs":[],"stateMutability":"nonpayable"},{"type":"function","name":"tierCount","inputs":[],"outputs":[{"name":"","type":"uint256","internalType":"uint256"}],"stateMutability":"view"},{"type":"function","name":"transferOwnership","inputs":[{"name":"newOwner","type":"address","internalType":"address"}],"outputs":[],"stateMutability":"nonpayable"},{"type":"function","name":"transferTiers","inputs":[{"name":"","type":"uint256","internalType":"uint256"}],"outputs":[{"name":"requireSanctions","type":"bool","internalType":"bool"},{"name":"requireRiskProof","type":"bool","internalType":"bool"},{"name":"requireKYC","type":"bool","internalType":"bool"},{"name":"minRiskLevel","type":"uint8","internalType":"enum AMTTPzkNAF.ProofType"},{"name":"maxTransferAmount","type":"uint256","internalType":"uint256"}],"stateMutability":"view"},{"type":"function","name":"unpause","inputs":[],"outputs":[],"stateMutability":"nonpayable"},{"type":"function","name":"verificationExempt","inputs":[{"name":"","type":"address","internalType":"address"}],"outputs":[{"name":"","type":"bool","internalType":"bool"}],"stateMutability":"view"},{"type":"function","name":"verifyTransfer","inputs":[{"name":"from","type":"address","internalType":"address"},{"name":"to","type":"address","internalType":"address"},{"name":"amount","type":"uint256","internalType":"uint256"}],"outputs":[{"name":"allowed","type":"bool","internalType":"bool"},{"name":"reason","type":"string","internalType":"string"}],"stateMutability":"view"},{"type":"function","name":"zkNAF","inputs":[],"outputs":[{"name":"","type":"address","internalType":"contract AMTTPzkNAF"}],"stateMutability":"view"},{"type":"function","name":"zkVerificationEnabled","inputs":[],"outputs":[{"name":"","type":"bool","internalType":"bool"}],"stateMutability":"view"},{"type":"event","name":"AddressExempted","inputs":[{"name":"account","type":"address","indexed":true,"internalType":"address"},{"name":"exempt","type":"bool","indexed":false,"internalType":"bool"}],"anonymous":false},{"type":"event","name":"AddressTierOverride","inputs":[{"name":"account","type":"address","indexed":true,"internalType":"address"},{"name":"tier","type":"uint256","indexed":false,"internalType":"uint256"}],"anonymous":false},{"type":"event","name":"Initialized","inputs":[{"name":"version","type":"uint8","indexed":false,"internalType":"uint8"}],"anonymous":false},{"type":"event","name":"OwnershipTransferred","inputs":[{"name":"previousOwner","type":"address","indexed":true,"internalType":"address"},{"name":"newOwner","type":"address","indexed":true,"internalType":"address"}],"anonymous":false},{"type":"event","name":"Paused","inputs":[{"name":"account","type":"address","indexed":false,"internalType":"address"}],"anonymous":false},{"type":"event","name":"TierConfigured","inputs":[{"name":"tier","type":"uint256","indexed":true,"internalType":"uint256"},{"name":"requirements","type":"tuple","indexed":false,"internalType":"struct AMTTPCoreZkNAF.TierRequirements","components":[{"name":"requireSanctions","type":"bool","internalType":"bool"},{"name":"requireRiskProof","type":"bool","internalType":"bool"},{"name":"requireKYC","type":"bool","internalType":"bool"},{"name":"minRiskLevel","type":"uint8","internalType":"enum AMTTPzkNAF.ProofType"},{"name":"maxTransferAmount","type":"uint256","internalType":"uint256"}]}],"anonymous":false},{"type":"event","name":"TransferVerified","inputs":[{"name":"from","type":"address","indexed":true,"internalType":"address"},{"name":"to","type":"address","indexed":true,"internalType":"address"},{"name":"amount","type":"uint256","indexed":false,"internalType":"uint256"},{"name":"tier","type":"uint256","indexed":false,"internalType":"uint256"},{"name":"sanctionsVerified","type":"bool","indexed":false,"internalType":"bool"},{"name":"riskVerified","type":"bool","indexed":false,"internalType":"bool"},{"name":"kycVerified","type":"bool","indexed":false,"internalType":"bool"}],"anonymous":false},{"type":"event","name":"Unpaused","inputs":[{"name":"account","type":"address","indexed":false,"internalType":"address"}],"anonymous":false},{"type":"event","name":"VerificationFailed","inputs":[{"name":"from","type":"address","indexed":true,"internalType":"address"},{"name":"to","type":"address","indexed":true,"internalType":"address"},{"name":"amount","type":"uint256","indexed":false,"internalType":"uint256"},{"name":"reason","type":"string","indexed":false,"internalType":"string"}],"anonymous":false},{"type":"event","name":"ZkVerificationEnabled","inputs":[{"name":"enabled","type":"bool","indexed":false,"internalType":"bool"}],"anonymous":false}],"bytecode":{"object":"0x608080604052346100bf575f549060ff8260081c1661006d575060ff80821603610033575b6040516117d690816100c48239f35b60ff90811916175f557f7f26b83ff96e1f2b6a682f133852f6798a09c465da95921460cefb3847402498602060405160ff8152a15f610024565b62461bcd60e51b815260206004820152602760248201527f496e697469616c697a61626c653a20636f6e747261637420697320696e697469604482015266616c697a696e6760c81b6064820152608490fd5b5f80fdfe608060409080825260049081361015610016575f80fd5b5f3560e01c90816305681af914611099575080631f1902e21461107357806339481059146110375780633ea6e07114610fbd5780633f4ba83a14610f2a5780634737a25014610ebf5780634f17b38314610e585780635c975abb14610e3557806370c460e814610c10578063715018a614610bb55780637c8fd218146109885780638456cb59146108f75780638da5cb5b146108cf57806396b55f7d146108b15780639a4b1d5c14610827578063c4d66de814610456578063c8dcab2b1461041f578063ce15b523146103b6578063ecbcc5741461033b578063efa15852146101995763f2fde38b14610107575f80fd5b34610195576020366003190112610195576101206110bc565b91610129611620565b6001600160a01b038316156101435761014183611678565b005b906020608492519162461bcd60e51b8352820152602660248201527f4f776e61626c653a206e6577206f776e657220697320746865207a65726f206160448201526564647265737360d01b6064820152fd5b5f80fd5b5090346101955760c03660031901126101955781359160a0366023190112610195576101c3611620565b600a83101561030957825f526098602052815f2090602435801515810361019557825490151560ff1660ff1991909116178255604435928315159384810361019557835461ff00191690151560081b61ff0016178355606435908115159182810361019557845462ff0000191690151560101b62ff0000161784556084359260058410156101955784610258856001976115fd565b60a4359586910155609b548710156102c0575b507fcc1cbdb5b4298eeb12a258374fd25ccc47fb0dc74a0b6f9fc73f13dd15fdfe49949260a09492826102b89351956102a26110d2565b15158752602087015285015260608401906110e1565b6080820152a2005b60018701908188116102f65750609b557fcc1cbdb5b4298eeb12a258374fd25ccc47fb0dc74a0b6f9fc73f13dd15fdfe4961026b565b601190634e487b7160e01b5f525260245ffd5b6020606492519162461bcd60e51b8352820152600d60248201526c0a8d2cae440e8dede40d0d2ced609b1b6044820152fd5b5034610195576020366003190112610195576103556110bc565b61035d611620565b6001600160a01b031691821561038157609780546001600160a01b03191684179055005b906020606492519162461bcd60e51b8352820152600f60248201526e496e76616c6964206164647265737360881b6044820152fd5b5090346101955760203660031901126101955760a091355f526098602052805f20610418600182549201549183519360ff82161515855260ff8260081c161515602086015260ff8260101c1615159085015260ff606085019160181c166110e1565b6080820152f35b8234610195576020366003190112610195576020906001600160a01b036104446110bc565b165f5260998252805f20549051908152f35b50346101955760209081600319360112610195576104726110bc565b5f549160ff8360081c16159182809361081a575b8015610803575b156107a95760ff1980851660019081175f559484610797575b506104c060ff5f5460081c166104bb81611740565b611740565b6104c933611678565b6104dd60ff5f5460081c166104bb81611740565b6065541660655560018060a01b0316801561075c576affffffffffffffffffffff60a81b6097541617609755845161051481611102565b8381528481015f81528682015f815261059560608401915f835261057c6080860194683635c9adc5dea0000086525f805260988b526105658c5f2097511515889060ff801983541691151516179055565b51865461ff00191690151560081b61ff0016178655565b51845462ff0000191690151560101b62ff000016178455565b51600581101561074957906105ab8692846115fd565b5191015584516105ba81611102565b8381528481018481528682015f815261060d60608401916002835261057c608086019469021e19e0c9bab24000008652895f5260988b526105658c5f2097511515889060ff801983541691151516179055565b51600581101561074957906106238692846115fd565b51910155845161063281611102565b838152848101848152868201858152610685606084019187835261057c608086019469152d02c7e14af6800000865260025f5260988b526105658c5f2097511515889060ff801983541691151516179055565b516005811015610749579061069b8692846115fd565b5191015584516106aa81611102565b8381528481018481528682018581526106f4606084019187835261057c60808601945f19865260035f5260988b526105658c5f2097511515889060ff801983541691151516179055565b516005811015610749579061070a8692846115fd565b51910155609b5561071757005b7f7f26b83ff96e1f2b6a682f133852f6798a09c465da95921460cefb38474024989261ff00195f54165f5551908152a1005b602184634e487b7160e01b5f525260245ffd5b855162461bcd60e51b81528083018690526015602482015274496e76616c6964207a6b4e4146206164647265737360581b6044820152606490fd5b61ffff1916610101175f9081556104a6565b855162461bcd60e51b8152808301869052602e60248201527f496e697469616c697a61626c653a20636f6e747261637420697320616c72656160448201526d191e481a5b9a5d1a585b1a5e995960921b6064820152608490fd5b50303b15801561048d5750600160ff85161461048d565b50600160ff851610610486565b823461019557606080600319360112610195576108426110bc565b6024356001600160a01b0381160361019557610861906044359061123a565b92909181519215158352602090826020850152845180938501525f5b83811061089e5784606081865f838284010152601f80199101168101030190f35b858101830151858201830152820161087d565b8234610195575f36600319011261019557602090609b549051908152f35b8234610195575f3660031901126101955760335490516001600160a01b039091168152602090f35b5034610195575f36600319011261019557610910611620565b6065549060ff8216610952577f62e78cea01bee320cd4e420270b5ea74000d11b0c9f74754ebdbfc544b05a25860208460018560ff19161760655551338152a1005b606490602084519162461bcd60e51b8352820152601060248201526f14185d5cd8589b194e881c185d5cd95960821b6044820152fd5b5090346101955760209081600319360112610195576109a56110bc565b9060018060a01b039283609754169082519462076f3560e41b948587521680878701525f60248701528186604481865afa958615610bab575f96610b8c575b508351948086528188870152600160248701528286604481875afa958615610b63575f96610b6d575b508515610b0c575b90604483928651958693849283528b830152600360248301525afa918215610b02575f92610ad3575b508480610acc575b80610ac5575b15610a9257609b545f198101908111610a7f5760809650935b835195151586521515908501521515908301526060820152f35b601187634e487b7160e01b5f525260245ffd5b608095508480610abe575b15610aaa57600193610a65565b8415610ab7575f93610a65565b5f93610a65565b5083610a9d565b5081610a4c565b5083610a46565b81610af49293503d8411610afb575b610aec818361116a565b81019061120e565b905f610a3e565b503d610ae2565b83513d5f823e3d90fd5b945083518581528188820152600260248201528281604481875afa908115610b63578392916044915f91610b46575b509691925050610a15565b610b5d9150843d8611610afb57610aec818361116a565b5f610b3b565b85513d5f823e3d90fd5b610b85919650833d8511610afb57610aec818361116a565b945f610a0d565b610ba4919650823d8411610afb57610aec818361116a565b945f6109e4565b84513d5f823e3d90fd5b34610195575f36600319011261019557610bcd611620565b603380546001600160a01b031981169091555f906001600160a01b03167f8be0079c531659141344cd1fd0a4f28419497f9722a3daafe3b4186f6b6457e08280a3005b5034610195578160031936011261019557803567ffffffffffffffff918282116101955736602383011215610195578181013592831161019557602480830192602436918660051b01011161019557602435916005831015610195575f93610c77866111a4565b955f5b818110610d1557888888610c8d816111a4565b915f5b828110610ced57505090825192839281840190158452602091602085015282518091526020606085019301915f5b828110610ccd57505050500390f35b83516001600160a01b031685528695509381019392810192600101610cbe565b6001906001600160a01b03610d028285611226565b5116610d0e8287611226565b5201610c90565b6001600160a01b0380610d31610d2c8486886111d6565b6111fa565b165f5286838b8784602092609a8452898c8960ff845f205416159788610db0575b50505050505050509050610d6a575b50600101610c7a565b610d7b610d2c8385879b959b6111d6565b90610d86838b611226565b911690525f198114610d9e5760018091019690610d61565b84601185634e487b7160e01b5f52525ffd5b8596985091610dcf610d2c899b93610dec9560449960975416976111d6565b9451988997889662076f3560e41b885216908601528401906110e1565b5afa918215610e2b575f92610e0e575b50501587905f87848e898c898b610d52565b610e249250803d10610afb57610aec818361116a565b5f80610dfc565b8c513d5f823e3d90fd5b8234610195575f3660031901126101955760209060ff6065541690519015158152f35b82346101955780600319360112610195577f59492399fc87510d45b4aab37f3bc56909f8335b7ebfcc8880100178be180e6c6020610e946110bc565b60243590610ea0611620565b6001600160a01b03165f818152609984528590208290559351908152a2005b5034610195576020366003190112610195573590811515809203610195577f87671d0dc6e8d2c0a102860b0b2e389317fcea4fb94a7b17531a2d32a4bda34491602091610f0a611620565b6097805460ff60a01b191660a084901b60ff60a01b1617905551908152a1005b5034610195575f36600319011261019557610f43611620565b6065549060ff821615610f83577f5db9ee0a495bf2e6ff9c91a7834c1ba4fdd244a5e8aa4e537bd38aeae4b073aa6020848460ff191660655551338152a1005b606490602084519162461bcd60e51b8352820152601460248201527314185d5cd8589b194e881b9bdd081c185d5cd95960621b6044820152fd5b82346101955780600319360112610195577f1524fcd72e4f2413bd3516ff7188d48bc54a56ca0bed481b15b0158dc03831e56020610ff96110bc565b6110016110d2565b9061100a611620565b6001600160a01b03165f818152609a8452859020805460ff191660ff8415151617905593519015158152a2005b8234610195576020366003190112610195576020906001600160a01b0361105c6110bc565b165f52609a825260ff815f20541690519015158152f35b8234610195575f3660031901126101955760209060ff60975460a01c1690519015158152f35b34610195575f366003190112610195576097546001600160a01b03168152602090f35b600435906001600160a01b038216820361019557565b60243590811515820361019557565b9060058210156110ee5752565b634e487b7160e01b5f52602160045260245ffd5b60a0810190811067ffffffffffffffff82111761111e57604052565b634e487b7160e01b5f52604160045260245ffd5b6020810190811067ffffffffffffffff82111761111e57604052565b6060810190811067ffffffffffffffff82111761111e57604052565b90601f8019910116810190811067ffffffffffffffff82111761111e57604052565b67ffffffffffffffff811161111e5760051b60200190565b906111ae8261118c565b6111bb604051918261116a565b82815280926111cc601f199161118c565b0190602036910137565b91908110156111e65760051b0190565b634e487b7160e01b5f52603260045260245ffd5b356001600160a01b03811681036101955790565b90816020910312610195575180151581036101955790565b80518210156111e65760209160051b010190565b91909160975460ff808260a01c16156115e95760018060a01b039182841691825f52602094609a865260409782895f2054166115d557611279916116c0565b5f5260988552865f2087519161128e83611102565b8154928184161515815287810191808560081c16151583528a820194818160101c161515865260181c16606082019360058210156110ee5760019185520154608082015251611538575b516113a0575b50516112fc575b50505050600191516112f681611132565b5f815290565b604484928751948593849262076f3560e41b8452600484015260036024840152165afa908115610bab575f91611383575b501561133b578080806112e5565b5f9280519181830183811067ffffffffffffffff82111761111e577f5a4b4e41463a2056616c6964204b59432070726f6f66207265717569726564009252601f835282015290565b61139a9150823d8411610afb57610aec818361116a565b5f61132d565b5f90805160058110156110ee57600103611465575050865162076f3560e41b8152600481018490526001602482015285816044818689165afa90811561145b575f9161143e575b505b156113f4575f6112de565b50505050651c5d5a5c995960d21b5f937f5a4b4e41463a2056616c6964207269736b2072616e67652070726f6f662072658151936114318561114e565b6026855284015282015290565b6114559150863d8811610afb57610aec818361116a565b5f6113e7565b88513d5f823e3d90fd5b5160058110156110ee576002036113e95750865162076f3560e41b808252600482018590526001602483015290838616908781604481855afa92831561152e5788915f9461150f575b5083156114be575b5050506113e9565b9091925060448a51809481938252886004830152600260248301525afa90811561145b575f916114f2575b505f86816114b6565b6115099150863d8811610afb57610aec818361116a565b5f6114e9565b611527919450823d8411610afb57610aec818361116a565b925f6114ae565b8a513d5f823e3d90fd5b885162076f3560e41b8152600481018690525f60248201528781604481888b165afa90811561152e575f916115b8575b506112d857505050505050641d5a5c995960da1b5f937f5a4b4e41463a2056616c69642073616e6374696f6e732070726f6f66207265718151936115ab8561114e565b6025855284015282015290565b6115cf9150883d8a11610afb57610aec818361116a565b5f611568565b50505050505050600191516112f681611132565b50505090506001906040516112f681611132565b9060058110156110ee5763ff00000082549160181b169063ff0000001916179055565b6033546001600160a01b0316330361163457565b606460405162461bcd60e51b815260206004820152602060248201527f4f776e61626c653a2063616c6c6572206973206e6f7420746865206f776e65726044820152fd5b603380546001600160a01b039283166001600160a01b0319821681179092559091167f8be0079c531659141344cd1fd0a4f28419497f9722a3daafe3b4186f6b6457e05f80a3565b60018060a01b03165f52602090609960205260409060405f2054806117395750609b5492915f5b84811061171457505050505f1981019081116117005790565b634e487b7160e01b5f52601160045260245ffd5b805f52609884526001825f200154831115611731576001016116e7565b935050505090565b9250505090565b1561174757565b60405162461bcd60e51b815260206004820152602b60248201527f496e697469616c697a61626c653a20636f6e7472616374206973206e6f74206960448201526a6e697469616c697a696e6760a81b6064820152608490fdfea26469706673582212201f69987527ea16356cb04637b1087f3f3942a4bc19b853b225ce43c4f9ffdacb64736f6c63430008180033","linkReferences":{}},"methodIdentifiers":{"addressTierOverride(address)":"c8dcab2b","batchVerify(address[],uint8)":"70c460e8","configureTier(uint256,(bool,bool,bool,uint8,uint256))":"efa15852","getComplianceStatus(address)":"7c8fd218","initialize(address)":"c4d66de8","owner()":"8da5cb5b","pause()":"8456cb59","paused()":"5c975abb","renounceOwnership()":"715018a6","setExemption(address,bool)":"3ea6e071","setTierOverride(address,uint256)":"4f17b383","setVerificationEnabled(bool)":"4737a250","setZkNAF(address)":"ecbcc574","tierCount()":"96b55f7d","transferOwnership(address)":"f2fde38b","transferTiers(uint256)":"ce15b523","unpause()":"3f4ba83a","verificationExempt(address)":"39481059","verifyTransfer(address,address,uint256)":"9a4b1d5c","zkNAF()":"05681af9","zkVerificationEnabled()":"1f1902e2"},"id":4}