{"abi":[{"type":"constructor","inputs":[],"stateMutability":"nonpayable"},{"type":"receive","stateMutability":"payable"},{"type":"function","name":"BLOCK_THRESHOLD","inputs":[],"outputs":[{"name":"","type":"uint256","internalType":"uint256"}],"stateMutability":"view"},{"type":"function","name":"HIGH_RISK_THRESHOLD","inputs":[],"outputs":[{"name":"","type":"uint256","internalType":"uint256"}],"stateMutability":"view"},{"type":"function","name":"RISK_SCALE","inputs":[],"outputs":[{"name":"","type":"uint256","internalType":"uint256"}],"stateMutability":"view"},{"type":"function","name":"activeModelVersion","inputs":[],"outputs":[{"name":"","type":"string","internalType":"string"}],"stateMutability":"view"},{"type":"function","name":"addApprover","inputs":[{"name":"_approver","type":"address","internalType":"address"}],"outputs":[],"stateMutability":"nonpayable"},{"type":"function","name":"approvalThreshold","inputs":[],"outputs":[{"name":"","type":"uint256","internalType":"uint256"}],"stateMutability":"view"},{"type":"function","name":"approvals","inputs":[{"name":"","type":"bytes32","internalType":"bytes32"},{"name":"","type":"address","internalType":"address"}],"outputs":[{"name":"","type":"bool","internalType":"bool"}],"stateMutability":"view"},{"type":"function","name":"approveSwap","inputs":[{"name":"swapId","type":"bytes32","internalType":"bytes32"}],"outputs":[],"stateMutability":"nonpayable"},{"type":"function","name":"approvers","inputs":[{"name":"","type":"uint256","internalType":"uint256"}],"outputs":[{"name":"","type":"address","internalType":"address"}],"stateMutability":"view"},{"type":"function","name":"completeSwap","inputs":[{"name":"swapId","type":"bytes32","internalType":"bytes32"},{"name":"preimage","type":"bytes32","internalType":"bytes32"}],"outputs":[],"stateMutability":"nonpayable"},{"type":"function","name":"disputeResolver","inputs":[],"outputs":[{"name":"","type":"address","internalType":"contract IAMTTPDisputeResolverLocal"}],"stateMutability":"view"},{"type":"function","name":"executeDisputeRuling","inputs":[{"name":"swapId","type":"bytes32","internalType":"bytes32"},{"name":"releaseToSeller","type":"bool","internalType":"bool"}],"outputs":[],"stateMutability":"nonpayable"},{"type":"function","name":"getApprovers","inputs":[],"outputs":[{"name":"","type":"address[]","internalType":"address[]"}],"stateMutability":"view"},{"type":"function","name":"getContractStatus","inputs":[],"outputs":[{"name":"_policyEngine","type":"address","internalType":"address"},{"name":"_disputeResolver","type":"address","internalType":"address"},{"name":"_oracle","type":"address","internalType":"address"},{"name":"_policyEnabled","type":"bool","internalType":"bool"},{"name":"_riskThreshold","type":"uint256","internalType":"uint256"},{"name":"_modelVersion","type":"string","internalType":"string"}],"stateMutability":"view"},{"type":"function","name":"getSwap","inputs":[{"name":"swapId","type":"bytes32","internalType":"bytes32"}],"outputs":[{"name":"","type":"tuple","internalType":"struct AMTTPCore.Swap","components":[{"name":"buyer","type":"address","internalType":"address"},{"name":"status","type":"uint8","internalType":"enum AMTTPCore.SwapStatus"},{"name":"approvalCount","type":"uint8","internalType":"uint8"},{"name":"assetType","type":"uint8","internalType":"enum AMTTPCore.AssetType"},{"name":"seller","type":"address","internalType":"address"},{"name":"token","type":"address","internalType":"address"},{"name":"amount","type":"uint256","internalType":"uint256"},{"name":"hashlock","type":"bytes32","internalType":"bytes32"},{"name":"timelock","type":"uint256","internalType":"uint256"},{"name":"riskScore","type":"uint256","internalType":"uint256"},{"name":"kycHash","type":"bytes32","internalType":"bytes32"}]}],"stateMutability":"view"},{"type":"function","name":"getZkNAFStatus","inputs":[{"name":"account","type":"address","internalType":"address"}],"outputs":[{"name":"hasSanctionsProof","type":"bool","internalType":"bool"},{"name":"hasRiskProof","type":"bool","internalType":"bool"},{"name":"hasKYCProof","type":"bool","internalType":"bool"},{"name":"maxAllowedTier","type":"uint256","internalType":"uint256"},{"name":"zkEnabled","type":"bool","internalType":"bool"}],"stateMutability":"view"},{"type":"function","name":"globalRiskThreshold","inputs":[],"outputs":[{"name":"","type":"uint256","internalType":"uint256"}],"stateMutability":"view"},{"type":"function","name":"initialize","inputs":[{"name":"_oracle","type":"address","internalType":"address"}],"outputs":[],"stateMutability":"nonpayable"},{"type":"function","name":"initiateSwap","inputs":[{"name":"seller","type":"address","internalType":"address"},{"name":"hashlock","type":"bytes32","internalType":"bytes32"},{"name":"timelock","type":"uint256","internalType":"uint256"},{"name":"riskScore","type":"uint256","internalType":"uint256"},{"name":"kycHash","type":"bytes32","internalType":"bytes32"},{"name":"oracleSignature","type":"bytes","internalType":"bytes"}],"outputs":[{"name":"swapId","type":"bytes32","internalType":"bytes32"}],"stateMutability":"payable"},{"type":"function","name":"initiateSwapERC20","inputs":[{"name":"seller","type":"address","internalType":"address"},{"name":"token","type":"address","internalType":"address"},{"name":"amount","type":"uint256","internalType":"uint256"},{"name":"hashlock","type":"bytes32","internalType":"bytes32"},{"name":"timelock","type":"uint256","internalType":"uint256"},{"name":"riskScore","type":"uint256","internalType":"uint256"},{"name":"kycHash","type":"bytes32","internalType":"bytes32"},{"name":"oracleSignature","type":"bytes","internalType":"bytes"}],"outputs":[{"name":"swapId","type":"bytes32","internalType":"bytes32"}],"stateMutability":"nonpayable"},{"type":"function","name":"isApprover","inputs":[{"name":"","type":"address","internalType":"address"}],"outputs":[{"name":"","type":"bool","internalType":"bool"}],"stateMutability":"view"},{"type":"function","name":"oracle","inputs":[],"outputs":[{"name":"","type":"address","internalType":"address"}],"stateMutability":"view"},{"type":"function","name":"owner","inputs":[],"outputs":[{"name":"","type":"address","internalType":"address"}],"stateMutability":"view"},{"type":"function","name":"pause","inputs":[],"outputs":[],"stateMutability":"nonpayable"},{"type":"function","name":"paused","inputs":[],"outputs":[{"name":"","type":"bool","internalType":"bool"}],"stateMutability":"view"},{"type":"function","name":"policyEngine","inputs":[],"outputs":[{"name":"","type":"address","internalType":"contract IAMTTPPolicyEngine"}],"stateMutability":"view"},{"type":"function","name":"policyEngineEnabled","inputs":[],"outputs":[{"name":"","type":"bool","internalType":"bool"}],"stateMutability":"view"},{"type":"function","name":"proxiableUUID","inputs":[],"outputs":[{"name":"","type":"bytes32","internalType":"bytes32"}],"stateMutability":"view"},{"type":"function","name":"raiseDispute","inputs":[{"name":"swapId","type":"bytes32","internalType":"bytes32"},{"name":"evidence","type":"string","internalType":"string"}],"outputs":[],"stateMutability":"payable"},{"type":"function","name":"refundSwap","inputs":[{"name":"swapId","type":"bytes32","internalType":"bytes32"}],"outputs":[],"stateMutability":"nonpayable"},{"type":"function","name":"rejectSwap","inputs":[{"name":"swapId","type":"bytes32","internalType":"bytes32"},{"name":"reason","type":"string","internalType":"string"}],"outputs":[],"stateMutability":"nonpayable"},{"type":"function","name":"removeApprover","inputs":[{"name":"_approver","type":"address","internalType":"address"}],"outputs":[],"stateMutability":"nonpayable"},{"type":"function","name":"renounceOwnership","inputs":[],"outputs":[],"stateMutability":"nonpayable"},{"type":"function","name":"setActiveModelVersion","inputs":[{"name":"_version","type":"string","internalType":"string"}],"outputs":[],"stateMutability":"nonpayable"},{"type":"function","name":"setApprovalThreshold","inputs":[{"name":"_threshold","type":"uint256","internalType":"uint256"}],"outputs":[],"stateMutability":"nonpayable"},{"type":"function","name":"setDisputeResolver","inputs":[{"name":"_disputeResolver","type":"address","internalType":"address"}],"outputs":[],"stateMutability":"nonpayable"},{"type":"function","name":"setGlobalRiskThreshold","inputs":[{"name":"_threshold","type":"uint256","internalType":"uint256"}],"outputs":[],"stateMutability":"nonpayable"},{"type":"function","name":"setKYCStatus","inputs":[{"name":"user","type":"address","internalType":"address"},{"name":"verified","type":"bool","internalType":"bool"}],"outputs":[],"stateMutability":"nonpayable"},{"type":"function","name":"setOracle","inputs":[{"name":"_oracle","type":"address","internalType":"address"}],"outputs":[],"stateMutability":"nonpayable"},{"type":"function","name":"setPolicyEngine","inputs":[{"name":"_policyEngine","type":"address","internalType":"address"}],"outputs":[],"stateMutability":"nonpayable"},{"type":"function","name":"setUserPolicy","inputs":[{"name":"user","type":"address","internalType":"address"},{"name":"dailyLimit","type":"uint128","internalType":"uint128"},{"name":"singleTxLimit","type":"uint128","internalType":"uint128"},{"name":"kycVerified","type":"bool","internalType":"bool"},{"name":"trusted","type":"bool","internalType":"bool"}],"outputs":[],"stateMutability":"nonpayable"},{"type":"function","name":"setZkNAFModule","inputs":[{"name":"_zkNAFModule","type":"address","internalType":"address"},{"name":"_enabled","type":"bool","internalType":"bool"}],"outputs":[],"stateMutability":"nonpayable"},{"type":"function","name":"swaps","inputs":[{"name":"","type":"bytes32","internalType":"bytes32"}],"outputs":[{"name":"buyer","type":"address","internalType":"address"},{"name":"status","type":"uint8","internalType":"enum AMTTPCore.SwapStatus"},{"name":"approvalCount","type":"uint8","internalType":"uint8"},{"name":"assetType","type":"uint8","internalType":"enum AMTTPCore.AssetType"},{"name":"seller","type":"address","internalType":"address"},{"name":"token","type":"address","internalType":"address"},{"name":"amount","type":"uint256","internalType":"uint256"},{"name":"hashlock","type":"bytes32","internalType":"bytes32"},{"name":"timelock","type":"uint256","internalType":"uint256"},{"name":"riskScore","type":"uint256","internalType":"uint256"},{"name":"kycHash","type":"bytes32","internalType":"bytes32"}],"stateMutability":"view"},{"type":"function","name":"transferOwnership","inputs":[{"name":"newOwner","type":"address","internalType":"address"}],"outputs":[],"stateMutability":"nonpayable"},{"type":"function","name":"unpause","inputs":[],"outputs":[],"stateMutability":"nonpayable"},{"type":"function","name":"upgradeTo","inputs":[{"name":"newImplementation","type":"address","internalType":"address"}],"outputs":[],"stateMutability":"nonpayable"},{"type":"function","name":"upgradeToAndCall","inputs":[{"name":"newImplementation","type":"address","internalType":"address"},{"name":"data","type":"bytes","internalType":"bytes"}],"outputs":[],"stateMutability":"payable"},{"type":"function","name":"userPolicies","inputs":[{"name":"","type":"address","internalType":"address"}],"outputs":[{"name":"dailyLimit","type":"uint128","internalType":"uint128"},{"name":"singleTxLimit","type":"uint128","internalType":"uint128"},{"name":"dailySpent","type":"uint128","internalType":"uint128"},{"name":"lastResetDay","type":"uint64","internalType":"uint64"},{"name":"kycVerified","type":"bool","internalType":"bool"},{"name":"trusted","type":"bool","internalType":"bool"}],"stateMutability":"view"},{"type":"function","name":"zkNAFEnabled","inputs":[],"outputs":[{"name":"","type":"bool","internalType":"bool"}],"stateMutability":"view"},{"type":"function","name":"zkNAFModule","inputs":[],"outputs":[{"name":"","type":"address","internalType":"address"}],"stateMutability":"view"},{"type":"event","name":"AdminChanged","inputs":[{"name":"previousAdmin","type":"address","indexed":false,"internalType":"address"},{"name":"newAdmin","type":"address","indexed":false,"internalType":"address"}],"anonymous":false},{"type":"event","name":"ApprovalThresholdUpdated","inputs":[{"name":"newThreshold","type":"uint256","indexed":false,"internalType":"uint256"}],"anonymous":false},{"type":"event","name":"ApproverAdded","inputs":[{"name":"approver","type":"address","indexed":true,"internalType":"address"}],"anonymous":false},{"type":"event","name":"ApproverRemoved","inputs":[{"name":"approver","type":"address","indexed":true,"internalType":"address"}],"anonymous":false},{"type":"event","name":"BeaconUpgraded","inputs":[{"name":"beacon","type":"address","indexed":true,"internalType":"address"}],"anonymous":false},{"type":"event","name":"DisputeResolverUpdated","inputs":[{"name":"newResolver","type":"address","indexed":true,"internalType":"address"}],"anonymous":false},{"type":"event","name":"Initialized","inputs":[{"name":"version","type":"uint8","indexed":false,"internalType":"uint8"}],"anonymous":false},{"type":"event","name":"OracleUpdated","inputs":[{"name":"newOracle","type":"address","indexed":true,"internalType":"address"}],"anonymous":false},{"type":"event","name":"OwnershipTransferred","inputs":[{"name":"previousOwner","type":"address","indexed":true,"internalType":"address"},{"name":"newOwner","type":"address","indexed":true,"internalType":"address"}],"anonymous":false},{"type":"event","name":"Paused","inputs":[{"name":"account","type":"address","indexed":false,"internalType":"address"}],"anonymous":false},{"type":"event","name":"PolicyEngineUpdated","inputs":[{"name":"newEngine","type":"address","indexed":true,"internalType":"address"}],"anonymous":false},{"type":"event","name":"RiskScoreSubmitted","inputs":[{"name":"swapId","type":"bytes32","indexed":true,"internalType":"bytes32"},{"name":"riskScore","type":"uint256","indexed":false,"internalType":"uint256"},{"name":"modelVersion","type":"string","indexed":false,"internalType":"string"}],"anonymous":false},{"type":"event","name":"SwapApproved","inputs":[{"name":"swapId","type":"bytes32","indexed":true,"internalType":"bytes32"},{"name":"approver","type":"address","indexed":true,"internalType":"address"}],"anonymous":false},{"type":"event","name":"SwapBlocked","inputs":[{"name":"swapId","type":"bytes32","indexed":true,"internalType":"bytes32"},{"name":"riskScore","type":"uint256","indexed":false,"internalType":"uint256"},{"name":"reason","type":"string","indexed":false,"internalType":"string"}],"anonymous":false},{"type":"event","name":"SwapCompleted","inputs":[{"name":"swapId","type":"bytes32","indexed":true,"internalType":"bytes32"},{"name":"seller","type":"address","indexed":true,"internalType":"address"}],"anonymous":false},{"type":"event","name":"SwapDisputed","inputs":[{"name":"swapId","type":"bytes32","indexed":true,"internalType":"bytes32"},{"name":"disputeId","type":"uint256","indexed":false,"internalType":"uint256"}],"anonymous":false},{"type":"event","name":"SwapInitiated","inputs":[{"name":"swapId","type":"bytes32","indexed":true,"internalType":"bytes32"},{"name":"buyer","type":"address","indexed":true,"internalType":"address"},{"name":"seller","type":"address","indexed":true,"internalType":"address"},{"name":"amount","type":"uint256","indexed":false,"internalType":"uint256"},{"name":"riskScore","type":"uint256","indexed":false,"internalType":"uint256"}],"anonymous":false},{"type":"event","name":"SwapRefunded","inputs":[{"name":"swapId","type":"bytes32","indexed":true,"internalType":"bytes32"},{"name":"buyer","type":"address","indexed":true,"internalType":"address"}],"anonymous":false},{"type":"event","name":"Unpaused","inputs":[{"name":"account","type":"address","indexed":false,"internalType":"address"}],"anonymous":false},{"type":"event","name":"Upgraded","inputs":[{"name":"implementation","type":"address","indexed":true,"internalType":"address"}],"anonymous":false},{"type":"event","name":"UserPolicyUpdated","inputs":[{"name":"user","type":"address","indexed":true,"internalType":"address"}],"anonymous":false},{"type":"event","name":"ZkNAFModuleUpdated","inputs":[{"name":"zkNAFModule","type":"address","indexed":true,"internalType":"address"},{"name":"enabled","type":"bool","indexed":false,"internalType":"bool"}],"anonymous":false},{"type":"error","name":"AlreadyApproved","inputs":[]},{"type":"error","name":"DisputeResolverNotSet","inputs":[]},{"type":"error","name":"ETHTransferFailed","inputs":[]},{"type":"error","name":"ExceedsDailyLimit","inputs":[]},{"type":"error","name":"ExceedsSingleTxLimit","inputs":[]},{"type":"error","name":"InvalidApprovalThreshold","inputs":[]},{"type":"error","name":"InvalidPreimage","inputs":[]},{"type":"error","name":"InvalidRiskScore","inputs":[]},{"type":"error","name":"InvalidSeller","inputs":[]},{"type":"error","name":"InvalidSignature","inputs":[]},{"type":"error","name":"InvalidTimelock","inputs":[]},{"type":"error","name":"InvalidToken","inputs":[]},{"type":"error","name":"NoETHSent","inputs":[]},{"type":"error","name":"NotApprover","inputs":[]},{"type":"error","name":"NotOracle","inputs":[]},{"type":"error","name":"NotPartyToSwap","inputs":[]},{"type":"error","name":"OnlyDisputeResolver","inputs":[]},{"type":"error","name":"OracleNotSet","inputs":[]},{"type":"error","name":"SwapCannotDispute","inputs":[]},{"type":"error","name":"SwapCannotRefund","inputs":[]},{"type":"error","name":"SwapExists","inputs":[]},{"type":"error","name":"SwapExpired","inputs":[]},{"type":"error","name":"SwapNotApproved","inputs":[]},{"type":"error","name":"SwapNotDisputed","inputs":[]},{"type":"error","name":"SwapNotExpired","inputs":[]},{"type":"error","name":"SwapNotFound","inputs":[]},{"type":"error","name":"SwapNotPending","inputs":[]},{"type":"error","name":"ZeroAmount","inputs":[]}],"bytecode":{"object":"0x60a08060405234620000df57306080525f549060ff8260081c166200008d575060ff8082160362000052575b604051613c249081620000e48239608051818181611b2001528181611c1f01526122a50152f35b60ff90811916175f557f7f26b83ff96e1f2b6a682f133852f6798a09c465da95921460cefb3847402498602060405160ff8152a15f6200002b565b62461bcd60e51b815260206004820152602760248201527f496e697469616c697a61626c653a20636f6e747261637420697320696e697469604482015266616c697a696e6760c81b6064820152608490fd5b5f80fdfe6080604052600436101561001a575b3615610018575f80fd5b005b5f3560e01c80622a40da14612c5a57806307653e16146127285780630845529b146125e857806324f6c7761461259e578063356cc7ea146124fe5780633659cfe6146122815780633b61eb36146120cd5780633da0e66e14611f1c5780633f4ba83a14611e89578063469e1ecb14611e605780634f1ef28614611bd057806352d1902d14611b0e5780635c975abb14611aec5780636135b08514611a6a5780636cb3e8ef146119a55780636cf4c88f146117d15780636d218e4814611793578063715018a61461173857806378dc33561461160c5780637adbf973146115a55780637d0eef61146115875780637dc0d1d01461155e5780638456cb591461150557806386c4832e146114e957806387a22944146114635780638bb97c02146113425780638da5cb5b1461131a578063924e63f6146112b3578063927399a51461128a5780639c9f7deb146112265780639dcbd55c1461120a578063a0016b8c14611191578063a3f569ae146110e1578063b646c19414611023578063be7b8a7714610e7e578063c032846b14610dff578063c4d66de814610bd5578063c543aa7814610bb9578063cc117be014610b9b578063d02edadb14610b59578063d3650fb814610b16578063dea1c2e314610af0578063e08bea1f14610aca578063e35468cb14610966578063eb84e7f2146108ad578063eba885841461046c578063f2fde38b146103df578063f5a3f4af146103b6578063f9a638811461036b5763fe2510ee0361000e57346103675760203660031901126103675760043561025f6133b9565b805f5261012d8060205260018060a01b03908160405f2054161561035557825f5260205260405f20805460ff8160a01c166006811015610341578015159081610335575b506103235760058201544210610311576102e390600360a01b60ff60a01b1982161780845560038401548560ff816002880154169360b01c1693166136df565b5416907fc672feaa452bd52b0000f3d29c943cd9331556ab05529d49e984311220c16c195f80a3600160c955005b6040516314f5e72f60e01b8152600490fd5b604051631d8ba0fd60e31b8152600490fd5b6001915014155f6102a3565b634e487b7160e01b5f52602160045260245ffd5b6040516305ec69df60e41b8152600490fd5b5f80fd5b346103675760203660031901126103675760a061038e610389612dd0565b613298565b9260409291925194151585521515602085015215156040840152606083015215156080820152f35b34610367575f36600319011261036757610135546040516001600160a01b039091168152602090f35b34610367576020366003190112610367576103f8612dd0565b610400613361565b6001600160a01b03811615610418576100189061376c565b60405162461bcd60e51b815260206004820152602660248201527f4f776e61626c653a206e6577206f776e657220697320746865207a65726f206160448201526564647265737360d01b6064820152608490fd5b346103675761010036600319011261036757610486612dd0565b61048e612de6565b9060e4356001600160401b038111610367576104ae903690600401612da3565b6104b66133b9565b6104be61340f565b6044351561089b576001600160a01b03831615610889576001600160a01b038416156108775742608435111561086557610138549160ff8360a01c1680610853575b6107c7575b61051a925060c43560a4356044358633613453565b156107b55760405160208101903360601b82526001600160601b0319808460601b1660348301528460601b166048820152606435605c820152608435607c82015242609c820152609c815261056e81612e41565b5190205f81815261012d60205260409020549091906001600160a01b03166107a3576105a360c43560a4356044358433613536565b6105bf604051916105b383612e25565b33835260208301613159565b5f6040828101829052600160608401526001600160a01b03848116608085015286811660a085015260443560c085015260643560e085015260843561010085015260a43561012085015260c43561014085015285835261012d6020908152919092208351815493166001600160a01b0319938416178155908301519195916006811015610341576106509082613165565b6040830151815460ff60a81b191660a89190911b60ff60a81b16178155606083015195600287101561034157815460ff60b01b191660b09790971b60ff60b01b16969096178155608083015160018201805488166001600160a01b0392831617905560a084015160028301805490981691161790955560c0820151600386015560e08201516004860155610100820151600586015561012082015160068601556101409190910151600794909401939093556040516323b872dd60e01b60208281019190915233602483015230604480840191909152356064830152936107569190610748826084810103601f198101845283612e92565b6001600160a01b03166138a3565b60405190604435825260a4358483015260018060a01b031690827fd514471591f77c1c9e0013ff2994f4264d077d6352187ce4bfb5bc8f437209c960403393a4600160c955604051908152f35b604051631d5a99a160e01b8152600490fd5b604051638baa579f60e01b8152600490fd5b604051632692c75760e21b81523360048201526001600160a01b038581166024830152604480359083015290935f9185916064918391165afa9283156108485761051a9361081e915f905f92610823575b50613129565b610505565b905061084191503d805f833e6108398183612e92565b8101906130f5565b9088610818565b6040513d5f823e3d90fd5b506001600160a01b0383161515610500565b604051637c68874160e11b8152600490fd5b60405163c1ab6dc160e01b8152600490fd5b60405163bab7ca3560e01b8152600490fd5b604051631f2a200560e01b8152600490fd5b34610367576020366003190112610367576004355f5261012d60205261016060405f20805460018060a01b03918260018201541683600283015416600383015460048401549160058501549361093e60076006880154970154976040519981168a5261092260208b0160ff8360a01c16612e0b565b60ff8160a81c1660408b015260ff60608b019160b01c16612e18565b608088015260a087015260c086015260e0850152610100840152610120830152610140820152f35b346103675760208060031936011261036757600435335f52610131825260ff908160405f2054161580610ab5575b610aa3575f81815261012d8085526040909120546001600160a01b03161561035557815f52835260405f209282845460a01c16600681101561034157610a9157815f5261012e80825260405f20335f5282528360405f205416610a7f575f838152908252604080822033835290925220805460ff19166001908117909155835460ff60a81b19811660a891821c85169092018416901b60ff60a81b1617835533907fbfece94188ca5510ff29b3892f68dc16c81be915972f251498a734915bae128e5f80a381549061013254908260a81c161015610a6e57005b60ff60a01b1916600160a01b179055005b60405163080fc0bd60e11b8152600490fd5b604051630fe0fb5160e11b8152600490fd5b604051630197e13360e61b8152600490fd5b506033546001600160a01b0316331415610994565b34610367575f36600319011261036757602060ff6101385460a01c166040519015158152f35b34610367575f36600319011261036757602060ff6101355460a01c166040519015158152f35b34610367576020366003190112610367576004356101305481101561036757610b4060209161305a565b905460405160039290921b1c6001600160a01b03168152f35b34610367575f36600319011261036757610b97604051610b8381610b7c81612fb5565b0382612e92565b604051918291602083526020830190612f58565b0390f35b34610367575f36600319011261036757602061013754604051908152f35b34610367575f3660031901126103675760206040516103e88152f35b3461036757602036600319011261036757610bee612dd0565b5f5460ff8160081c161590818092610df2575b8015610ddb575b15610d7f5760019260ff19918385848316175f55610d6e575b50610c3b60ff5f5460081c16610c36816137b4565b6137b4565b610c443361376c565b610c7760ff5f5460081c16610c58816137b4565b610c61816137b4565b610c6a816137b4565b8560c955610c36816137b4565b8160fb541660fb556101339060018060a01b03166001600160601b0360a01b82541617905582610132556102bc61013755610136610cb58154612f7d565b601f8111610d38575b50601067044514e2d76312e360c41b019055610135805460ff60a01b19169055610ce73361326b565b335f526101316020528260405f2091825416179055610d0257005b60207f7f26b83ff96e1f2b6a682f133852f6798a09c465da95921460cefb38474024989161ff00195f54165f55604051908152a1005b815f5284601f5f80516020613baf833981519152920160051c8201915b828110610d63575050610cbe565b5f8155018590610d55565b61ffff1916610101175f5584610c21565b60405162461bcd60e51b815260206004820152602e60248201527f496e697469616c697a61626c653a20636f6e747261637420697320616c72656160448201526d191e481a5b9a5d1a585b1a5e995960921b6064820152608490fd5b50303b158015610c085750600160ff821614610c08565b50600160ff821610610c01565b34610367575f3660031901126103675760018060a01b03806101345416610b97610135548361013354169060ff610137549160405193610e4985610e4281612fb5565b0386612e92565b604051978897885282166020880152604087015260a01c1615156060850152608084015260c060a084015260c0830190612f58565b610e8736612f04565b90825f5261012d9160209183835260018060a01b03938460405f2054161561035557855f52835260405f2080549260ff8460a01c166006811015610341578015159081611017575b506110055785841633141580610ff5575b610fe357610135938685541615610fd157610f45968695600392600160a21b9060ff60a01b191617855554169201546040519687948593849363939e793560e01b85528b6004860152336024860152604485015260806064850152608484019161324b565b039134905af18015610848575f90610f84575b7f0f7c2a08004e0c137167a94f5c0327bbd718b72cdb8ee0034a8ca1b31a5726ae9250604051908152a2005b508082813d8311610fca575b610f9a8183612e92565b81010312610367577f0f7c2a08004e0c137167a94f5c0327bbd718b72cdb8ee0034a8ca1b31a5726ae9151610f58565b503d610f90565b6040516319b812f960e21b8152600490fd5b604051633afa9dfd60e01b8152600490fd5b5085600183015416331415610ee0565b6040516373d581df60e01b8152600490fd5b60019150141588610ecf565b346103675760203660031901126103675761103c612dd0565b611044613361565b60018060a01b03811690815f52610131908160205260ff60405f2054166110a95761106e9061326b565b815f5260205260405f20600160ff198254161790557f835bddf1ceee4956e4329af9edf018523c1191238187a597453f6020bcadb0425f80a2005b60405162461bcd60e51b815260206004820152601060248201526f20b63932b0b23c9030b8383937bb32b960811b6044820152606490fd5b34610367576040366003190112610367576110fa612dd0565b611102612dfc565b9060018060a01b0380610133541633141580611183575b61117157165f81815261012f60205260409020600101805460ff60c01b191692151560c01b60ff60c01b16929092179091557feb9893d0169091c966f7eb6f96f444118c8e051527e789cc3d7c20be49931e275f80a2005b604051631bc2178f60e01b8152600490fd5b508060335416331415611119565b34610367576020366003190112610367576004356111ad613361565b801580156111fe575b6111ec576020817f3105a3dc553e12034caac9827a83c245fe17eef4ee1eedb45238ac7449a5bbec9261013255604051908152a1005b604051632e17030160e01b8152600490fd5b506101305481116111b6565b34610367575f3660031901126103675760206040516102bc8152f35b3461036757602036600319011261036757600435611242613361565b6103e881116112515761013755005b60405162461bcd60e51b8152602060048201526011602482015270125b9d985b1a59081d1a1c995cda1bdb19607a1b6044820152606490fd5b34610367575f36600319011261036757610134546040516001600160a01b039091168152602090f35b34610367576020366003190112610367576112cc612dd0565b6112d4613361565b61013580546001600160a01b0319166001600160a01b039290921691821790557f8f2e1b6cc4ffc3a93ac515202f6b1afdd15a9422b7301fce25c71481c537e89a5f80a2005b34610367575f366003190112610367576033546040516001600160a01b039091168152602090f35b346103675761135036612f04565b335f5261013160205260ff60405f205416158061144e575b610aa357825f5261012d918260205260018060a01b03928360405f2054161561035557845f5260205260405f209182549060ff8260a01c16600681101561034157610a915785926114007f10a73ecfb51336692e5b1f0e550606ceda6a678b2473b42adadee3216aef3fde93600360a01b60ff60a01b1982161780885560038801548960ff8160028c0154169360b01c1693166136df565b611422600686015491604051938493845260406020850152604084019161324b565b0390a25416907fc672feaa452bd52b0000f3d29c943cd9331556ab05529d49e984311220c16c195f80a3005b506033546001600160a01b0316331415611368565b34610367576020366003190112610367576001600160a01b03611484612dd0565b165f5261012f60205260c060405f2060ff81549160016001600160801b039101549060405193818116855260801c6020850152811660408401526001600160401b038160801c1660608401528181851c161515608084015260c81c16151560a0820152f35b34610367575f3660031901126103675760206040516103848152f35b34610367575f3660031901126103675761151d613361565b61152561340f565b600160ff1960fb54161760fb557f62e78cea01bee320cd4e420270b5ea74000d11b0c9f74754ebdbfc544b05a2586020604051338152a1005b34610367575f36600319011261036757610133546040516001600160a01b039091168152602090f35b34610367575f36600319011261036757602061013254604051908152f35b34610367576020366003190112610367576115be612dd0565b6115c6613361565b61013380546001600160a01b0319166001600160a01b039290921691821790557f3df77beb5db05fcdd70a30fc8adf3f83f9501b68579455adbd100b81809403945f80a2005b34610367576040366003190112610367576004356116286133b9565b805f5261012d8060205260018060a01b03908160405f2054161561035557825f5260205260405f20805460ff8160a01c1660068110156103415760010361172657600582015442101561171457604051602081019060243582526020815261168f81612e77565b5190206004830154036117025760ff60a01b1916600160a11b17808255600182018054600384015460029094015491936116d49360b01c60ff169286169186166136df565b5416907f0625e047e273118a71cca3f0dd73a68d97dd99585ffdee4b3f86670fe113f13d5f80a3600160c955005b604051630cb4548160e11b8152600490fd5b604051632b32713d60e01b8152600490fd5b604051630dce347d60e11b8152600490fd5b34610367575f36600319011261036757611750613361565b603380546001600160a01b031981169091555f906001600160a01b03167f8be0079c531659141344cd1fd0a4f28419497f9722a3daafe3b4186f6b6457e08280a3005b34610367576020366003190112610367576001600160a01b036117b4612dd0565b165f52610131602052602060ff60405f2054166040519015158152f35b34610367576020366003190112610367576117ea612dd0565b6117f2613361565b60018060a01b0380911690815f526101318060205260ff60405f2054161561197157825f5260205260405f2060ff1981541690556101308054915f5b8381106118b4575b5050905061013280549154809211806118ab575b611876575b827fc6e35658c76ecdde40a54f31a91fb7c8615e9893cc0885584b27bb3433270d465f80a2005b817f3105a3dc553e12034caac9827a83c245fe17eef4ee1eedb45238ac7449a5bbec9260209255604051908152a1818061184f565b5081151561184a565b81856118bf8361305a565b929054600393841b1c16146118d7575060010161182e565b92935f199182820191821161195d57611903846118f66119219461305a565b905490881b1c169161305a565b90919060018060a01b038084549260031b9316831b921b1916179055565b835480156119495701916119348361305a565b81939154921b1b191690558155808380611836565b634e487b7160e01b5f52603160045260245ffd5b634e487b7160e01b5f52601160045260245ffd5b60405162461bcd60e51b815260206004820152600c60248201526b2737ba1030b8383937bb32b960a11b6044820152606490fd5b34610367575f3660031901126103675760405180610130805480845260208094019081925f527f2f605e086faac1d93117bbfbc18835d434e9405fadc1ca66faf4b864746daf34905f5b86828210611a4d578686611a0582880383612e92565b60405192839281840190828552518091526040840192915f5b828110611a2d57505050500390f35b83516001600160a01b031685528695509381019392810192600101611a1e565b83546001600160a01b0316855290930192600192830192016119ef565b3461036757602036600319011261036757611a83612dd0565b611a8b613361565b61013480546001600160a01b0319166001600160a01b03929092169182179055610135805460ff60a01b191682151560a01b60ff60a01b161790557fc715e03d65a2da6b90a0e4688aa08dc6764de44c14fa37a13f99a0608f6c52145f80a2005b34610367575f36600319011261036757602060ff60fb54166040519015158152f35b34610367575f366003190112610367577f00000000000000000000000000000000000000000000000000000000000000006001600160a01b03163003611b655760206040515f80516020613bcf8339815191528152f35b60405162461bcd60e51b815260206004820152603860248201527f555550535570677261646561626c653a206d757374206e6f742062652063616c60448201527f6c6564207468726f7567682064656c656761746563616c6c00000000000000006064820152608490fd5b604036600319011261036757611be4612dd0565b6024356001600160401b038111610367573660238201121561036757611c14903690602481600401359101612ece565b906001600160a01b037f0000000000000000000000000000000000000000000000000000000000000000811690611c4d30831415613189565b611c695f80516020613bcf8339815191529282845416146131ea565b611c71613361565b7f4910fdfa16fed3260ed0e7147f7cc6da11a60208b5b9406d12a635614ffd91435460ff1615611ca75750506100189150613814565b6040516352d1902d60e01b81526020939291831691908481600481865afa5f9181611e31575b50611d2e5760405162461bcd60e51b815260048101869052602e60248201527f45524331393637557067726164653a206e657720696d706c656d656e7461746960448201526d6f6e206973206e6f74205555505360901b6064820152608490fd5b03611dda57611d3c82613814565b7fbc7cd75a20ee27fd9adebab32041f755214dbc6bffa90cc0225b39da2e5c2d3b5f80a2825115801590611dd2575b611d7157005b5f806100189460405194611d8486612e5c565b602786527f416464726573733a206c6f772d6c6576656c2064656c65676174652063616c6c81870152660819985a5b195960ca1b604087015281519101845af4611dcc6136b0565b91613b39565b506001611d6b565b60405162461bcd60e51b815260048101849052602960248201527f45524331393637557067726164653a20756e737570706f727465642070726f786044820152681a58589b195555525160ba1b6064820152608490fd5b9091508581813d8311611e59575b611e498183612e92565b8101031261036757519087611ccd565b503d611e3f565b34610367575f36600319011261036757610138546040516001600160a01b039091168152602090f35b34610367575f36600319011261036757611ea1613361565b60fb5460ff811615611ee05760ff191660fb557f5db9ee0a495bf2e6ff9c91a7834c1ba4fdd244a5e8aa4e537bd38aeae4b073aa6020604051338152a1005b60405162461bcd60e51b815260206004820152601460248201527314185d5cd8589b194e881b9bdd081c185d5cd95960621b6044820152606490fd5b34610367576020366003190112610367575f610140604051611f3d81612e25565b8281528260208201528260408201528260608201528260808201528260a08201528260c08201528260e0820152826101008201528261012082015201526004355f5261012d60205260405f20604051611f9581612e25565b81546001600160a01b038116825260ff90611fb960a082901c831660208501613159565b818160a81c16604084015260b01c16600281101561034157606082015260018201546001600160a01b0390811660808301526002830154811660a0830152600383015460c0830152600483015460e08301526005830154610100830152600683015461012083015260079092015461014080830191909152604051825190931683526020808301516101609493916120549190850190612e0b565b60ff604082015116604084015261207360608201516060850190612e18565b60018060a01b03608082015116608084015260018060a01b0360a08201511660a084015260c081015160c084015260e081015160e08401526101008101516101008401526101208101516101208401520151610140820152f35b346103675760a0366003190112610367576120e6612dd0565b602435906001600160801b0390818316809303610367576044359180831680930361036757606435801515809103610367576084359283151580940361036757610133546001600160a01b039190821633141580612273575b611171571694855f5261012f9485602052600160405f2001546001600160401b03916040519560c087018781108582111761225f576122209761220596600192604052815260208101938452604081019a8386168c5286606083019660801c1686526080820198895260a082019a8b528c5f526020528260405f209151166001600160801b031980955160801b161781550198511690885416178755511685908154906001600160401b0360801b9060801b16906001600160401b0360801b1916179055565b51835460ff60c01b191690151560c01b60ff60c01b16178355565b51815460ff60c81b191690151560c81b60ff60c81b161790557feb9893d0169091c966f7eb6f96f444118c8e051527e789cc3d7c20be49931e275f80a2005b634e487b7160e01b5f52604160045260245ffd5b50816033541633141561213f565b34610367576020806003193601126103675761229b612dd0565b6001600160a01b037f0000000000000000000000000000000000000000000000000000000000000000811692906122d430851415613189565b6122f05f80516020613bcf8339815191529482865416146131ea565b6122f8613361565b60405193828501918583106001600160401b0384111761225f57826040525f865260ff7f4910fdfa16fed3260ed0e7147f7cc6da11a60208b5b9406d12a635614ffd914354165f1461235257505050506100189150613814565b84939416906040516352d1902d60e01b81528581600481865afa5f91816124cf575b506123d55760405162461bcd60e51b815260048101879052602e60248201527f45524331393637557067726164653a206e657720696d706c656d656e7461746960448201526d6f6e206973206e6f74205555505360901b6064820152608490fd5b03612478576123e383613814565b7fbc7cd75a20ee27fd9adebab32041f755214dbc6bffa90cc0225b39da2e5c2d3b5f80a2835115801590612471575b61241857005b5f8091610018957f416464726573733a206c6f772d6c6576656c2064656c65676174652063616c6c6040519661244d88612e5c565b60278852870152660819985a5b195960ca1b60408701525190845af4611dcc6136b0565b505f612412565b60405162461bcd60e51b815260048101859052602960248201527f45524331393637557067726164653a20756e737570706f727465642070726f786044820152681a58589b195555525160ba1b6064820152608490fd5b9091508681813d83116124f7575b6124e78183612e92565b8101031261036757519088612374565b503d6124dd565b3461036757604036600319011261036757612517612dd0565b7f95516719c6c2dfb587c1bf8c608b85bc110fad355a50267f85e78a9b1076f9c56020612542612dfc565b9261254b613361565b60018060a01b031692610138908482549180612595575b60ff60a01b90151560a01b16916affffffffffffffffffffff60a81b16171780915560ff6040519160a01c1615158152a2005b50801515612562565b34610367576040366003190112610367576125b7612de6565b6004355f5261012e60205260405f209060018060a01b03165f52602052602060ff60405f2054166040519015158152f35b3461036757604036600319011261036757600435612604612dfc565b610135546001600160a01b0391908216330361271657825f5261012d60205260405f209081549060ff8260a01c1660068110156103415760040361270457156126ab5750805460ff60a01b1916600160a11b17808255600182018054600384015460029094015491936126829360b01c60ff169286169186166136df565b5416907f0625e047e273118a71cca3f0dd73a68d97dd99585ffdee4b3f86670fe113f13d5f80a3005b6126db90600360a01b60ff60a01b1982161780845560038401548560ff816002880154169360b01c1693166136df565b5416907fc672feaa452bd52b0000f3d29c943cd9331556ab05529d49e984311220c16c195f80a3005b6040516314abb64b60e01b8152600490fd5b604051633a2a18e560e11b8152600490fd5b60c03660031901126103675761273c612dd0565b60a4356001600160401b0381116103675761275b903690600401612da3565b6127636133b9565b61276b61340f565b3415612c48576001600160a01b0383161561088957426044351115610865576103e860643511612c3657610138549160ff8360a01c1680612c24575b612bae575b6127bf9250608435606435348633613453565b156107b557335f5261012f60205260405f2080548060801c80612b90575b506001600160801b03169081612b2e575b505060405160208101903360601b82526001600160601b03198360601b166034820152602435604882015260443560688201524260888201526088815261283481612e41565b5190205f81815261012d60205260409020546001600160a01b03166107a357612864608435606435348533613536565b9160405161287181612e25565b3381526128818460208301613159565b5f60408201525f606082015260018060a01b03821660808201525f60a08201523460c082015260243560e0820152604435610100820152606435610120820152608435610140820152825f5261012d60205260405f209060018060a01b03815116906001600160601b0360a01b9182845416178355602081015160068110156103415761290e9084613165565b6040810151835460ff60a81b191660a89190911b60ff60a81b161783556060810151906002821015610341576007926101409285549060ff60b01b9060b01b169060ff60b01b19161785556001850160018060a01b0360808401511682825416179055600285019060018060a01b0360a0840151169082541617905560c0810151600385015560e08101516004850155610100810151600585015561012081015160068501550151910155335f5261012f60205260405f2060016001600160401b0362015180420416910190815490806001600160401b038360801c1610612b05575b505080546001600160801b038034168183160116906001600160801b03191617905560405190348252606435602083015260018060a01b031690827fd514471591f77c1c9e0013ff2994f4264d077d6352187ce4bfb5bc8f437209c960403393a4807f34227c764c0d15545a683016d32e5567d0f44e234713123b75b65478addf471f60405160643581526040602082015280612a9060408201612fb5565b0390a2600682101561034157600560209214612ab4575b600160c955604051908152f35b807f10a73ecfb51336692e5b1f0e550606ceda6a678b2473b42adadee3216aef3fde60806040516064358152604086820152600960408201526848696768207269736b60b81b6060820152a2612aa7565b6001600160c01b031990911660809190911b67ffffffffffffffff60801b1617815584806129f1565b600101546201518042046001600160401b038260801c16145f14612b81576001600160801b038091165b1634810180911161195d5711612b6f5781806127ee565b60405163158081a560e21b8152600490fd5b506001600160801b035f612b58565b3411612b9c57836127dd565b6040516365ddd82960e11b8152600490fd5b604051632692c75760e21b81523360048201526001600160a01b03858116602483015234604483015290935f9185916064918391165afa928315610848576127bf93612c02915f905f92612c075750613129565b6127ac565b9050612c1d91503d805f833e6108398183612e92565b9087610818565b506001600160a01b03831615156127a7565b6040516330cdce3160e21b8152600490fd5b604051630b7cc7c360e11b8152600490fd5b3461036757602080600319360112610367576001600160401b0360043581811161036757612c8c903690600401612da3565b9091612c96613361565b811161225f5761013691612caa8354612f7d565b601f8111612d57575b505f93601f8311600114612cef5750928192935f92612ce4575b50505f19600383901b1c191660019190911b179055005b013590508380612ccd565b601f198316945f80516020613baf83398151915292915f905b878210612d3f575050836001959610612d26575b505050811b019055005b01355f19600384901b60f8161c19169055838080612d1c565b80600184968294958701358155019501920190612d08565b5f80516020613baf833981519152601f840160051c81019160208510612d99575b601f0160051c01905b818110612d8e5750612cb3565b5f8155600101612d81565b9091508190612d78565b9181601f84011215610367578235916001600160401b038311610367576020838186019501011161036757565b600435906001600160a01b038216820361036757565b602435906001600160a01b038216820361036757565b60243590811515820361036757565b9060068210156103415752565b9060028210156103415752565b61016081019081106001600160401b0382111761225f57604052565b60c081019081106001600160401b0382111761225f57604052565b606081019081106001600160401b0382111761225f57604052565b604081019081106001600160401b0382111761225f57604052565b90601f801991011681019081106001600160401b0382111761225f57604052565b6001600160401b03811161225f57601f01601f191660200190565b929192612eda82612eb3565b91612ee86040519384612e92565b829481845281830111610367578281602093845f960137010152565b9060406003198301126103675760043591602435906001600160401b03821161036757612f3391600401612da3565b9091565b5f5b838110612f485750505f910152565b8181015183820152602001612f39565b90602091612f7181518092818552858086019101612f37565b601f01601f1916010190565b90600182811c92168015612fab575b6020831014612f9757565b634e487b7160e01b5f52602260045260245ffd5b91607f1691612f8c565b905f9161013690815491612fc883612f7d565b808352926020916001918281169081156130335750600114612fec575b5050505050565b90939495505f525f80516020613baf833981519152925f935b85851061302057505050602092500101905f80808080612fe5565b8054858501840152938201938101613005565b9350505050602093945060ff929192191683830152151560051b0101905f80808080612fe5565b610130805482101561308f575f527f2f605e086faac1d93117bbfbc18835d434e9405fadc1ca66faf4b864746daf3401905f90565b634e487b7160e01b5f52603260045260245ffd5b5190811515820361036757565b81601f820112156103675780516130c681612eb3565b926130d46040519485612e92565b81845260208284010111610367576130f29160208085019101612f37565b90565b9190916040818403126103675761310b816130a3565b9260208201516001600160401b038111610367576130f292016130b0565b156131315750565b60405162461bcd60e51b815260206004820152908190613155906024830190612f58565b0390fd5b60068210156103415752565b90600681101561034157815460ff60a01b191660a09190911b60ff60a01b16179055565b1561319057565b60405162461bcd60e51b815260206004820152602c60248201527f46756e6374696f6e206d7573742062652063616c6c6564207468726f7567682060448201526b19195b1959d85d1958d85b1b60a21b6064820152608490fd5b156131f157565b60405162461bcd60e51b815260206004820152602c60248201527f46756e6374696f6e206d7573742062652063616c6c6564207468726f7567682060448201526b6163746976652070726f787960a01b6064820152608490fd5b908060209392818452848401375f828201840152601f01601f1916010190565b610130908154916801000000000000000083101561225f57826119039160016132969501905561305a565b565b6101385460a081901c60ff16916001600160a01b039182169182156133515760246080926040519485938492630f91fa4360e31b84521660048301525afa908115610848575f925f925f925f916132f1575b5091929394565b9350509250506080813d608011613349575b8161331060809383612e92565b8101031261036757613321816130a3565b61332d602083016130a3565b92606061333c604085016130a3565b930151919392915f6132ea565b3d9150613303565b505050505f905f905f905f905f90565b6033546001600160a01b0316330361337557565b606460405162461bcd60e51b815260206004820152602060248201527f4f776e61626c653a2063616c6c6572206973206e6f7420746865206f776e65726044820152fd5b600260c954146133ca57600260c955565b60405162461bcd60e51b815260206004820152601f60248201527f5265656e7472616e637947756172643a207265656e7472616e742063616c6c006044820152606490fd5b60ff60fb541661341b57565b60405162461bcd60e51b815260206004820152601060248201526f14185d5cd8589b194e881c185d5cd95960821b6044820152606490fd5b610133546001600160a01b039081169790969295919490938815613524576040519560208701973060601b89524660348901526001600160601b0319809260601b16605489015260601b166068870152607c860152609c85015260bc84015260bc835260e08301908382106001600160401b0383111761225f5761351f9461351794613511936040525190207f19457468657265756d205369676e6564204d6573736167653a0a3332000000005f52601c52603c5f20923691612ece565b90613989565b9190916139ba565b161490565b604051633e1e538160e21b8152600490fd5b939160ff6101355460a01c168061369b575b61359e57505061038482109050613560575050600590565b610137541115613599576001600160a01b03165f90815261012f602052604090206001015460c81c60ff1661359457600190565b600190565b505f90565b61013454604051636c910d3d60e11b81526001600160a01b03968716600482015292861660248401526044830191909152606482019390935260c06084820152925f9284929116908290849082906135f860c48301612fb5565b9060a483015203925af1908115610848575f9161364d575b50600481101561034157600381036136285750600590565b60028114908115613642575b5061363e57600190565b5f90565b60019150145f613634565b90503d805f833e61365e8183612e92565b8101906040818303126103675780519160048310156103675760208201516001600160401b0381116103675761369492016130b0565b505f613610565b50610134546001600160a01b03161515613548565b3d156136da573d906136c182612eb3565b916136cf6040519384612e92565b82523d5f602084013e565b606090565b91909260028110156103415761371a57505f80809381935af16137006136b0565b501561370857565b60405163b12d13eb60e01b8152600490fd5b60405163a9059cbb60e01b60208201526001600160a01b039283166024820152604480820194909452928352608083019291906001600160401b0384118385101761225f5761329693604052166138a3565b603380546001600160a01b039283166001600160a01b0319821681179092559091167f8be0079c531659141344cd1fd0a4f28419497f9722a3daafe3b4186f6b6457e05f80a3565b156137bb57565b60405162461bcd60e51b815260206004820152602b60248201527f496e697469616c697a61626c653a20636f6e7472616374206973206e6f74206960448201526a6e697469616c697a696e6760a81b6064820152608490fd5b803b15613848575f80516020613bcf83398151915280546001600160a01b0319166001600160a01b03909216919091179055565b60405162461bcd60e51b815260206004820152602d60248201527f455243313936373a206e657720696d706c656d656e746174696f6e206973206e60448201526c1bdd08184818dbdb9d1c9858dd609a1b6064820152608490fd5b6040516138fa916001600160a01b03166138bc82612e77565b5f806020958685527f5361666545524332303a206c6f772d6c6576656c2063616c6c206661696c656487860152868151910182855af1611dcc6136b0565b805182811591821561396a575b50509050156139135750565b6084906040519062461bcd60e51b82526004820152602a60248201527f5361666545524332303a204552433230206f7065726174696f6e20646964206e6044820152691bdd081cdd58d8d9595960b21b6064820152fd5b8380929350010312610367578161398191016130a3565b80825f613907565b9060418151145f146139b157612f3391602082015190606060408401519301515f1a90613abe565b50505f90600290565b600581101561034157806139cb5750565b60018103613a185760405162461bcd60e51b815260206004820152601860248201527f45434453413a20696e76616c6964207369676e617475726500000000000000006044820152606490fd5b60028103613a655760405162461bcd60e51b815260206004820152601f60248201527f45434453413a20696e76616c6964207369676e6174757265206c656e677468006044820152606490fd5b600314613a6e57565b60405162461bcd60e51b815260206004820152602260248201527f45434453413a20696e76616c6964207369676e6174757265202773272076616c604482015261756560f01b6064820152608490fd5b7f7fffffffffffffffffffffffffffffff5d576e7357a4501ddfe92f46681b20a08411613b2e576020935f9360ff60809460405194855216868401526040830152606082015282805260015afa15610848575f516001600160a01b03811615613b2657905f90565b505f90600190565b505050505f90600390565b91929015613b9b5750815115613b4d575090565b3b15613b565790565b60405162461bcd60e51b815260206004820152601d60248201527f416464726573733a2063616c6c20746f206e6f6e2d636f6e74726163740000006044820152606490fd5b8251909150156131315750805190602001fdfe39da2db355130acf428d669fbf1c14faa9d51399a25b793fc254bbbde66f02e2360894a13ba1a3210667c828492db98dca3e2076cc3735a920a3ca505d382bbca2646970667358221220ac9684bc796f2873b408d2088288e02bc0b556f6d4d4ed2d61c277a2e67e6a5a64736f6c63430008180033","linkReferences":{}},"methodIdentifiers":{"BLOCK_THRESHOLD()":"86c4832e","HIGH_RISK_THRESHOLD()":"9dcbd55c","RISK_SCALE()":"c543aa78","activeModelVersion()":"d02edadb","addApprover(address)":"b646c194","approvalThreshold()":"7d0eef61","approvals(bytes32,address)":"24f6c776","approveSwap(bytes32)":"e35468cb","approvers(uint256)":"d3650fb8","completeSwap(bytes32,bytes32)":"78dc3356","disputeResolver()":"f5a3f4af","executeDisputeRuling(bytes32,bool)":"0845529b","getApprovers()":"6cb3e8ef","getContractStatus()":"c032846b","getSwap(bytes32)":"3da0e66e","getZkNAFStatus(address)":"f9a63881","globalRiskThreshold()":"cc117be0","initialize(address)":"c4d66de8","initiateSwap(address,bytes32,uint256,uint256,bytes32,bytes)":"07653e16","initiateSwapERC20(address,address,uint256,bytes32,uint256,uint256,bytes32,bytes)":"eba88584","isApprover(address)":"6d218e48","oracle()":"7dc0d1d0","owner()":"8da5cb5b","pause()":"8456cb59","paused()":"5c975abb","policyEngine()":"927399a5","policyEngineEnabled()":"dea1c2e3","proxiableUUID()":"52d1902d","raiseDispute(bytes32,string)":"be7b8a77","refundSwap(bytes32)":"fe2510ee","rejectSwap(bytes32,string)":"8bb97c02","removeApprover(address)":"6cf4c88f","renounceOwnership()":"715018a6","setActiveModelVersion(string)":"002a40da","setApprovalThreshold(uint256)":"a0016b8c","setDisputeResolver(address)":"924e63f6","setGlobalRiskThreshold(uint256)":"9c9f7deb","setKYCStatus(address,bool)":"a3f569ae","setOracle(address)":"7adbf973","setPolicyEngine(address)":"6135b085","setUserPolicy(address,uint128,uint128,bool,bool)":"3b61eb36","setZkNAFModule(address,bool)":"356cc7ea","swaps(bytes32)":"eb84e7f2","transferOwnership(address)":"f2fde38b","unpause()":"3f4ba83a","upgradeTo(address)":"3659cfe6","upgradeToAndCall(address,bytes)":"4f1ef286","userPolicies(address)":"87a22944","zkNAFEnabled()":"e08bea1f","zkNAFModule()":"469e1ecb"},"id":2}