{"abi":[{"type":"constructor","inputs":[{"name":"_arbitrator","type":"address","internalType":"address"},{"name":"_metaEvidenceURI","type":"string","internalType":"string"}],"stateMutability":"nonpayable"},{"type":"function","name":"EXTRA_DATA","inputs":[],"outputs":[{"name":"","type":"bytes","internalType":"bytes"}],"stateMutability":"view"},{"type":"function","name":"RULING_APPROVE","inputs":[],"outputs":[{"name":"","type":"uint256","internalType":"uint256"}],"stateMutability":"view"},{"type":"function","name":"RULING_OPTIONS","inputs":[],"outputs":[{"name":"","type":"uint256","internalType":"uint256"}],"stateMutability":"view"},{"type":"function","name":"RULING_REJECT","inputs":[],"outputs":[{"name":"","type":"uint256","internalType":"uint256"}],"stateMutability":"view"},{"type":"function","name":"arbitrator","inputs":[],"outputs":[{"name":"","type":"address","internalType":"contract IArbitrator"}],"stateMutability":"view"},{"type":"function","name":"canExecute","inputs":[{"name":"_txId","type":"bytes32","internalType":"bytes32"}],"outputs":[{"name":"","type":"bool","internalType":"bool"}],"stateMutability":"view"},{"type":"function","name":"challengeTransaction","inputs":[{"name":"_txId","type":"bytes32","internalType":"bytes32"}],"outputs":[],"stateMutability":"payable"},{"type":"function","name":"challengeWindow","inputs":[],"outputs":[{"name":"","type":"uint256","internalType":"uint256"}],"stateMutability":"view"},{"type":"function","name":"disputeToTx","inputs":[{"name":"","type":"uint256","internalType":"uint256"}],"outputs":[{"name":"","type":"bytes32","internalType":"bytes32"}],"stateMutability":"view"},{"type":"function","name":"emergencyWithdraw","inputs":[{"name":"_txId","type":"bytes32","internalType":"bytes32"}],"outputs":[],"stateMutability":"nonpayable"},{"type":"function","name":"escrowTransaction","inputs":[{"name":"_txId","type":"bytes32","internalType":"bytes32"},{"name":"_recipient","type":"address","internalType":"address"},{"name":"_riskScore","type":"uint256","internalType":"uint256"},{"name":"_evidenceURI","type":"string","internalType":"string"}],"outputs":[],"stateMutability":"payable"},{"type":"function","name":"escrowTransactionERC20","inputs":[{"name":"_txId","type":"bytes32","internalType":"bytes32"},{"name":"_recipient","type":"address","internalType":"address"},{"name":"_token","type":"address","internalType":"address"},{"name":"_amount","type":"uint256","internalType":"uint256"},{"name":"_riskScore","type":"uint256","internalType":"uint256"},{"name":"_evidenceURI","type":"string","internalType":"string"}],"outputs":[],"stateMutability":"nonpayable"},{"type":"function","name":"escrows","inputs":[{"name":"","type":"bytes32","internalType":"bytes32"}],"outputs":[{"name":"txId","type":"bytes32","internalType":"bytes32"},{"name":"sender","type":"address","internalType":"address"},{"name":"recipient","type":"address","internalType":"address"},{"name":"token","type":"address","internalType":"address"},{"name":"amount","type":"uint256","internalType":"uint256"},{"name":"riskScore","type":"uint256","internalType":"uint256"},{"name":"createdAt","type":"uint256","internalType":"uint256"},{"name":"challengeDeadline","type":"uint256","internalType":"uint256"},{"name":"status","type":"uint8","internalType":"enum AMTTPDisputeResolver.EscrowStatus"},{"name":"disputeID","type":"uint256","internalType":"uint256"},{"name":"ruling","type":"uint256","internalType":"uint256"},{"name":"partialPct","type":"uint8","internalType":"uint8"},{"name":"evidenceURI","type":"string","internalType":"string"}],"stateMutability":"view"},{"type":"function","name":"evidenceGroupCounter","inputs":[],"outputs":[{"name":"","type":"uint256","internalType":"uint256"}],"stateMutability":"view"},{"type":"function","name":"executeTransaction","inputs":[{"name":"_txId","type":"bytes32","internalType":"bytes32"}],"outputs":[],"stateMutability":"nonpayable"},{"type":"function","name":"getChallengeCost","inputs":[],"outputs":[{"name":"","type":"uint256","internalType":"uint256"}],"stateMutability":"view"},{"type":"function","name":"getEscrow","inputs":[{"name":"_txId","type":"bytes32","internalType":"bytes32"}],"outputs":[{"name":"sender","type":"address","internalType":"address"},{"name":"recipient","type":"address","internalType":"address"},{"name":"token","type":"address","internalType":"address"},{"name":"amount","type":"uint256","internalType":"uint256"},{"name":"riskScore","type":"uint256","internalType":"uint256"},{"name":"challengeDeadline","type":"uint256","internalType":"uint256"},{"name":"status","type":"uint8","internalType":"enum AMTTPDisputeResolver.EscrowStatus"},{"name":"disputeID","type":"uint256","internalType":"uint256"},{"name":"ruling","type":"uint256","internalType":"uint256"}],"stateMutability":"view"},{"type":"function","name":"getTokenBalance","inputs":[{"name":"_token","type":"address","internalType":"address"}],"outputs":[{"name":"","type":"uint256","internalType":"uint256"}],"stateMutability":"view"},{"type":"function","name":"healthCheck","inputs":[],"outputs":[{"name":"arbitratorAddress","type":"address","internalType":"address"},{"name":"currentChallengeWindow","type":"uint256","internalType":"uint256"},{"name":"currentMetaEvidenceID","type":"uint256","internalType":"uint256"},{"name":"contractBalance","type":"uint256","internalType":"uint256"},{"name":"isOperational","type":"bool","internalType":"bool"}],"stateMutability":"view"},{"type":"function","name":"metaEvidenceID","inputs":[],"outputs":[{"name":"","type":"uint256","internalType":"uint256"}],"stateMutability":"view"},{"type":"function","name":"owner","inputs":[],"outputs":[{"name":"","type":"address","internalType":"address"}],"stateMutability":"view"},{"type":"function","name":"renounceOwnership","inputs":[],"outputs":[],"stateMutability":"nonpayable"},{"type":"function","name":"requestAppeal","inputs":[{"name":"_txId","type":"bytes32","internalType":"bytes32"}],"outputs":[],"stateMutability":"nonpayable"},{"type":"function","name":"rule","inputs":[{"name":"_disputeID","type":"uint256","internalType":"uint256"},{"name":"_ruling","type":"uint256","internalType":"uint256"}],"outputs":[],"stateMutability":"nonpayable"},{"type":"function","name":"setChallengeWindow","inputs":[{"name":"_window","type":"uint256","internalType":"uint256"}],"outputs":[],"stateMutability":"nonpayable"},{"type":"function","name":"setEscrowPartialPct","inputs":[{"name":"_txId","type":"bytes32","internalType":"bytes32"},{"name":"_pct","type":"uint8","internalType":"uint8"}],"outputs":[],"stateMutability":"nonpayable"},{"type":"function","name":"submitEvidence","inputs":[{"name":"_txId","type":"bytes32","internalType":"bytes32"},{"name":"_evidenceURI","type":"string","internalType":"string"}],"outputs":[],"stateMutability":"nonpayable"},{"type":"function","name":"transferOwnership","inputs":[{"name":"newOwner","type":"address","internalType":"address"}],"outputs":[],"stateMutability":"nonpayable"},{"type":"function","name":"txToEvidenceGroup","inputs":[{"name":"","type":"bytes32","internalType":"bytes32"}],"outputs":[{"name":"","type":"uint256","internalType":"uint256"}],"stateMutability":"view"},{"type":"function","name":"updateMetaEvidence","inputs":[{"name":"_uri","type":"string","internalType":"string"}],"outputs":[],"stateMutability":"nonpayable"},{"type":"event","name":"AppealRequested","inputs":[{"name":"txId","type":"bytes32","indexed":true,"internalType":"bytes32"},{"name":"requester","type":"address","indexed":true,"internalType":"address"},{"name":"timestamp","type":"uint256","indexed":false,"internalType":"uint256"}],"anonymous":false},{"type":"event","name":"ChallengeWindowExpired","inputs":[{"name":"txId","type":"bytes32","indexed":true,"internalType":"bytes32"},{"name":"recipient","type":"address","indexed":true,"internalType":"address"},{"name":"amount","type":"uint256","indexed":false,"internalType":"uint256"}],"anonymous":false},{"type":"event","name":"Dispute","inputs":[{"name":"_arbitrator","type":"address","indexed":true,"internalType":"contract IArbitrator"},{"name":"_disputeID","type":"uint256","indexed":true,"internalType":"uint256"},{"name":"_metaEvidenceID","type":"uint256","indexed":false,"internalType":"uint256"},{"name":"_evidenceGroupID","type":"uint256","indexed":false,"internalType":"uint256"}],"anonymous":false},{"type":"event","name":"Evidence","inputs":[{"name":"_arbitrator","type":"address","indexed":true,"internalType":"contract IArbitrator"},{"name":"_evidenceGroupID","type":"uint256","indexed":true,"internalType":"uint256"},{"name":"_party","type":"address","indexed":true,"internalType":"address"},{"name":"_evidence","type":"string","indexed":false,"internalType":"string"}],"anonymous":false},{"type":"event","name":"MetaEvidence","inputs":[{"name":"_metaEvidenceID","type":"uint256","indexed":true,"internalType":"uint256"},{"name":"_evidence","type":"string","indexed":false,"internalType":"string"}],"anonymous":false},{"type":"event","name":"OwnershipTransferred","inputs":[{"name":"previousOwner","type":"address","indexed":true,"internalType":"address"},{"name":"newOwner","type":"address","indexed":true,"internalType":"address"}],"anonymous":false},{"type":"event","name":"Ruling","inputs":[{"name":"_arbitrator","type":"address","indexed":true,"internalType":"contract IArbitrator"},{"name":"_disputeID","type":"uint256","indexed":true,"internalType":"uint256"},{"name":"_ruling","type":"uint256","indexed":false,"internalType":"uint256"}],"anonymous":false},{"type":"event","name":"TransactionApproved","inputs":[{"name":"txId","type":"bytes32","indexed":true,"internalType":"bytes32"},{"name":"recipient","type":"address","indexed":true,"internalType":"address"},{"name":"amount","type":"uint256","indexed":false,"internalType":"uint256"}],"anonymous":false},{"type":"event","name":"TransactionChallenged","inputs":[{"name":"txId","type":"bytes32","indexed":true,"internalType":"bytes32"},{"name":"challenger","type":"address","indexed":true,"internalType":"address"},{"name":"disputeID","type":"uint256","indexed":false,"internalType":"uint256"}],"anonymous":false},{"type":"event","name":"TransactionEscrowed","inputs":[{"name":"txId","type":"bytes32","indexed":true,"internalType":"bytes32"},{"name":"sender","type":"address","indexed":true,"internalType":"address"},{"name":"recipient","type":"address","indexed":true,"internalType":"address"},{"name":"token","type":"address","indexed":false,"internalType":"address"},{"name":"amount","type":"uint256","indexed":false,"internalType":"uint256"},{"name":"riskScore","type":"uint256","indexed":false,"internalType":"uint256"},{"name":"challengeDeadline","type":"uint256","indexed":false,"internalType":"uint256"}],"anonymous":false},{"type":"event","name":"TransactionRejected","inputs":[{"name":"txId","type":"bytes32","indexed":true,"internalType":"bytes32"},{"name":"sender","type":"address","indexed":true,"internalType":"address"},{"name":"amount","type":"uint256","indexed":false,"internalType":"uint256"}],"anonymous":false}],"bytecode":{"object":"0x604060a0815234620001c557620025d9803803806200001e81620001dd565b9283398101908281830312620001c55780516001600160a01b038082169291839003620001c5576020928383015160018060401b0393848211620001c557019185601f84011215620001c5578251938411620001c957601f19926200008a601f860185168701620001dd565b9480865286860197878284010111620001c5578787620000ab930162000203565b5f543360018060a01b03198216175f558751913391167f8be0079c531659141344cd1fd0a4f28419497f9722a3daafe3b4186f6b6457e05f80a3600180556201518060025581156200018e57509185917f61606860eb6c87306811e2695215385101daab53bd6ab4e9f9049aead9363c7d9493608052601f6003549662000145855196879581875251928380928801528787019062000203565b01168101030190a2516123b2908162000227823960805181818161021e0152818161044d0152818161059b015281816109f301528181610d1f0152818161110901526111ed0152f35b62461bcd60e51b815260048101859052601260248201527124b73b30b634b21030b93134ba3930ba37b960711b6044820152606490fd5b5f80fd5b634e487b7160e01b5f52604160045260245ffd5b6040519190601f01601f191682016001600160401b03811183821017620001c957604052565b5f5b838110620002155750505f910152565b81810151838201526020016200020556fe60806040526004361015610011575f80fd5b5f3560e01c806301c1aa0d146119ee578063089d9391146119c45780630d1b1cca1461115557806325f2fdf1146118f357806327f0db83146114bb5780632d83549c14611346578063311a6c56146111d75780633aecd0e3146111825780634456251b1461115a578063626c47e814611155578063689a118b146111385780636cc6cde1146110f45780636e9c10df14611073578063715018a61461101c57806375870d6514610ed3578063788702b214610eb8578063861a141214610e9b57806387bc293714610e7e5780638da5cb5b14610e575780639e1df63714610e24578063a333ac2714610a3b578063b252720b146109d9578063c548699a146109af578063c69ed5f21461085a578063dda54f2a14610546578063e4ef8f1d146104c6578063ec5b461614610409578063f023b8111461036d578063f2fde38b146102ac5763f48a0b3114610163575f80fd5b346102a85760403660031901126102a8576004356024356001600160401b0381116102a857610196903690600401611aaa565b90825f52600460205260405f209260ff60088501541660058110156102945760020361025b5760018401546001600160a01b03946101e39186163314908690821561024a575b5050611bd4565b5f5260076020527fdccf2f8b2cc26eafcd61905cba744cff4b81d14740725f6376390dc6298a6a3c61024560405f20549360405191829133977f0000000000000000000000000000000000000000000000000000000000000000169583611d4e565b0390a4005b60029192500154163314855f6101dc565b60405162461bcd60e51b81526020600482015260116024820152704e6f20616374697665206469737075746560781b6044820152606490fd5b634e487b7160e01b5f52602160045260245ffd5b5f80fd5b346102a85760203660031901126102a8576102c5611a94565b6102cd611dc3565b6001600160a01b03908116908115610319575f54826001600160601b0360a01b8216175f55167f8be0079c531659141344cd1fd0a4f28419497f9722a3daafe3b4186f6b6457e05f80a3005b60405162461bcd60e51b815260206004820152602660248201527f4f776e61626c653a206e6577206f776e657220697320746865207a65726f206160448201526564647265737360d01b6064820152608490fd5b346102a85760203660031901126102a8576004355f52600460205261012060405f2060018060a01b0380600183015416916103fc82600283015416926003830154166004830154600584015460078501549160ff60088701541693600a600988015497015497604051998a5260208a015260408901526060880152608087015260a086015260c0850190611b4c565b60e0830152610100820152f35b346102a8575f3660031901126102a857610449610424611b97565b6040519063f7434ea960e01b8252818060209485938460048401526024830190611b59565b03817f00000000000000000000000000000000000000000000000000000000000000006001600160a01b03165afa9081156104bb575f9161048e575b50604051908152f35b90508181813d83116104b4575b6104a58183611b2b565b810103126102a8575182610485565b503d61049b565b6040513d5f823e3d90fd5b346102a85760203660031901126102a8576004356001600160401b0381116102a8576105177f61606860eb6c87306811e2695215385101daab53bd6ab4e9f9049aead9363c7d913690600401611aaa565b610522929192611dc3565b61052d600354611cd7565b928360035561054160405192839283611d4e565b0390a2005b6020806003193601126102a8576004359061055f611e1a565b815f526004815260405f2091600883019182549260ff84166005811015610294576001036108215760078501544210156107dc5792936105ef937f00000000000000000000000000000000000000000000000000000000000000006001600160a01b03169190836105ce611b97565b6040518098819263f7434ea960e01b83528460048401526024830190611b59565b0381865afa9586156104bb575f966107ad575b5085341061076857600261064a969760ff191617905582610621611b97565b6040518097819263c13517e160e01b835260026004840152604060248401526044830190611b59565b038189865af19485156104bb575f95610715575b507fd2ef00b1e43f1d95d52c03a9300c00486918542ccf86435cfa651849280f7a79929185600981930155815f52600583528460405f20557f74baab670a4015ab2f1b467c5252a96141a2573f2908e58a92081e80d3cfde3d6040600354875f5260078652815f2054825191825286820152a36040519384523393a38034116106e8575b60018055005b5f80806106f6819434611db6565b81811561070c575b3390f1156104bb57806106e2565b506108fc6106fe565b928092955083813d8311610761575b61072e8183611b2b565b810103126102a85791519390917fd2ef00b1e43f1d95d52c03a9300c00486918542ccf86435cfa651849280f7a7961065e565b503d610724565b60405162461bcd60e51b815260048101859052601c60248201527f496e73756666696369656e74206172626974726174696f6e20666565000000006044820152606490fd5b9095508381813d83116107d5575b6107c58183611b2b565b810103126102a857519487610602565b503d6107bb565b60405162461bcd60e51b815260048101839052601760248201527f4368616c6c656e67652077696e646f7720636c6f7365640000000000000000006044820152606490fd5b60405162461bcd60e51b81526004810183905260116024820152704e6f74206368616c6c656e676561626c6560781b6044820152606490fd5b346102a85760203660031901126102a857600435610876611e1a565b805f52600460205260405f2090600882019060ff8254166005811015610294576001810361095e575060078301544210610919575f80939260048294839460018060a01b03600283015416928392015493600460ff198254161790557f244045f984670594ac8c23c6972cd67b8c9c021e7399a199c449f147efa4b9936020604051868152a3828215610910575bf1156104bb5760018055005b506108fc610904565b60405162461bcd60e51b815260206004820152601760248201527f4368616c6c656e67652077696e646f77206163746976650000000000000000006044820152606490fd5b9092506003141590506109795761097490611e70565b6106e2565b60405162461bcd60e51b815260206004820152600e60248201526d43616e6e6f74206578656375746560901b6044820152606490fd5b346102a85760203660031901126102a8576004355f526005602052602060405f2054604051908152f35b346102a8575f3660031901126102a85760a0600180821b037f0000000000000000000000000000000000000000000000000000000000000000166002549060035447906040519383855260208501526040840152606083015215156080820152f35b60803660031901126102a857610a4f611a7e565b6064356001600160401b0381116102a857610a6e903690600401611aaa565b9190610a78611e1a565b610a83341515611c0e565b610a976001600160a01b0383161515611c4a565b6004355f52600460205260ff600860405f20015416600581101561029457610abf9015611c8a565b610acb60025442611cca565b610ad6600654611cd7565b9283600655604051610ae781611b0f565b600435815233602082015260018060a01b03821660408201525f606082015234608082015260443560a08201524260c08201528260e082015260016101008201525f6101208201525f6101408201525f610160820152610b48368786611d00565b6101808201526004355f52600460205260405f2090805182556001820160018060a01b03602083015116906001600160601b0360a01b91828254161790556002830160018060a01b0360408401511682825416179055600383019060018060a01b03606084015116908254161790556080810151600483015560a0810151600583015560c0810151600683015560e0810151600783015561010081015190600582101561029457610bff6101809260088501611d36565b6101208101516009840155610140810151600a840155600b830160ff6101608301511660ff1982541617905501518051906001600160401b038211610e1057610c4b600c840154611ad7565b601f8111610dc8575b50602090601f8311600114610d5c57600c92915f9183610d51575b50508160011b915f199060031b1c1916179101555b6004355f5260076020528360405f2055604051915f83523460208401526044356040840152606083015260018060a01b03169033907f22718edff812022039b64be028b10e44bd4bfd53bbd081daa36aea791da3293e608060043592a482610cec5760018055005b7fdccf2f8b2cc26eafcd61905cba744cff4b81d14740725f6376390dc6298a6a3c60405180610d46339660018060a01b037f0000000000000000000000000000000000000000000000000000000000000000169583611d4e565b0390a48080806106e2565b015190508980610c6f565b90600c84015f5260205f20915f5b601f1985168110610db05750918391600193600c95601f19811610610d98575b505050811b01910155610c84565b01515f1960f88460031b161c19169055898080610d8a565b91926020600181928685015181550194019201610d6a565b600c84015f5260205f20601f840160051c81019160208510610e06575b601f0160051c01905b818110610dfb5750610c54565b5f8155600101610dee565b9091508190610de5565b634e487b7160e01b5f52604160045260245ffd5b346102a8575f3660031901126102a857610e53610e3f611b97565b604051918291602083526020830190611b59565b0390f35b346102a8575f3660031901126102a8575f546040516001600160a01b039091168152602090f35b346102a8575f3660031901126102a8576020600654604051908152f35b346102a8575f3660031901126102a8576020600254604051908152f35b346102a8575f3660031901126102a857602060405160018152f35b346102a85760203660031901126102a857600435610eef611dc3565b610ef7611e1a565b805f52600460205260405f20600881019182549260ff8416600581101561029457600414610fe457600783015462278d008101809111610fd057421115610f9f5760049160018060a01b039182600186015416938493600382880154970154169660ff19161790555f8051602061235d8339815191526020604051868152a382610f96575f8093508092819282821561091057f1156104bb5760018055005b61097492612154565b60405162461bcd60e51b8152602060048201526009602482015268546f6f206561726c7960b81b6044820152606490fd5b634e487b7160e01b5f52601160045260245ffd5b60405162461bcd60e51b815260206004820152601060248201526f105b1c9958591e48195e1958dd5d195960821b6044820152606490fd5b346102a8575f3660031901126102a857611034611dc3565b5f80546001600160a01b0319811682556001600160a01b03167f8be0079c531659141344cd1fd0a4f28419497f9722a3daafe3b4186f6b6457e08280a3005b346102a85760403660031901126102a85760243560ff81168091036102a85761109a611dc3565b606481116110c1576004355f526004602052600b60405f20019060ff198254161790555f80f35b60405162461bcd60e51b815260206004820152600b60248201526a125b9d985b1a59081c18dd60aa1b6044820152606490fd5b346102a8575f3660031901126102a8576040517f00000000000000000000000000000000000000000000000000000000000000006001600160a01b03168152602090f35b346102a8575f3660031901126102a8576020600354604051908152f35b611a63565b346102a85760203660031901126102a8576020611178600435611d75565b6040519015158152f35b346102a8576020806003193601126102a8576024816001600160a01b036111a7611a94565b16604051928380926370a0823160e01b82523060048301525afa9081156104bb575f9161048e5750604051908152f35b346102a85760403660031901126102a8576024357f00000000000000000000000000000000000000000000000000000000000000006001600160a01b03166004353382900361130f57805f52600560205260405f20549182156112d857825f52600460205260405f2093600885019485549160ff83166005811015610294576002036112a25780600a6020936112a09960037f394027a5fa6e098a1191094d1719d6929b9abc535fcc0c8f448d6a4e756222769760ff19161790550155604051908152a3611e70565b005b60405162461bcd60e51b815260206004820152600e60248201526d139bdd0818da185b1b195b99d95960921b6044820152606490fd5b60405162461bcd60e51b815260206004820152600f60248201526e556e6b6e6f776e206469737075746560881b6044820152606490fd5b60405162461bcd60e51b815260206004820152600f60248201526e27b7363c9030b93134ba3930ba37b960891b6044820152606490fd5b346102a85760203660031901126102a8576004355f52600460205260405f2080549060018060a01b03916001908360018401541692846002820154169460038201541660048201546005830154600684015460078501549060ff60088701541692600987015494600a88015496600c60ff600b8b01541699016040519b8c915f918154916113d383611ad7565b808652926001811690811561149b575060011461145a575b505050036113f9908c611b2b565b6040519c8d9c8d6101a09c81526020015260408d015260608c015260808b015260a08a015260c089015260e0880152610100870161143691611b4c565b610120860152610140850152610160840152806101808401528201610e5391611b59565b5f9081526020812092949350915b84831061148157505081602092935001018f80806113eb565b908181946020858195549201015201910190918e92611468565b925050506020925060ff191682840152151560051b8201018f80806113eb565b346102a85760c03660031901126102a8576114d4611a7e565b604435906001600160a01b03821682036102a85760a4356001600160401b0381116102a857611507903690600401611aaa565b92611510611e1a565b61151d6064351515611c0e565b6115316001600160a01b0384161515611c4a565b6001600160a01b038116156118be576004355f52600460205260ff600860405f200154166005811015610294576115689015611c8a565b61157460025442611cca565b92611580600654611cd7565b93846006556040516323b872dd60e01b602082015233602482015230604482015260643560648201526064815260a08101908082106001600160401b03831117610e10576040919091526115dd906001600160a01b03851661219f565b6040516115e981611b0f565b60043581523360208201526001600160a01b03838116604083015284166060820152606435608082015260843560a08201524260c082015260e0810182905260016101008201525f61012082018190526101408201819052610160820152611652368887611d00565b6101808201526004355f52600460205260405f2090805182556001820160018060a01b03602083015116906001600160601b0360a01b91828254161790556002830160018060a01b0360408401511682825416179055600383019060018060a01b03606084015116908254161790556080810151600483015560a0810151600583015560c0810151600683015560e08101516007830155610100810151906005821015610294576117096101809260088501611d36565b6101208101516009840155610140810151600a840155600b830160ff6101608301511660ff1982541617905501518051906001600160401b038211610e1057611755600c840154611ad7565b601f8111611876575b50602090601f831160011461180a57600c92915f91836117ff575b50508160011b915f199060031b1c1916179101555b6004355f5260076020528460405f20556040519260018060a01b0316835260643560208401526084356040840152606083015260018060a01b03169033907f22718edff812022039b64be028b10e44bd4bfd53bbd081daa36aea791da3293e608060043592a482610cec5760018055005b015190508a80611779565b90600c84015f5260205f20915f5b601f198516811061185e5750918391600193600c95601f19811610611846575b505050811b0191015561178e565b01515f1960f88460031b161c191690558a8080611838565b91926020600181928685015181550194019201611818565b600c84015f5260205f20601f840160051c810191602085106118b4575b601f0160051c01905b8181106118a9575061175e565b5f815560010161189c565b9091508190611893565b60405162461bcd60e51b815260206004820152600d60248201526c24b73b30b634b2103a37b5b2b760991b6044820152606490fd5b346102a85760203660031901126102a857600435805f52600460205260405f2060ff60088201541660058110156102945760030361199057600181015461195091336001600160a01b03928316149190821561197f575050611bd4565b604051904282527fd5ef4454778b3e080f5bed36e0790d4187bde5743c3bff63c03a666e4a8b540d60203393a3005b6002919250015416331483806101dc565b60405162461bcd60e51b815260206004820152600c60248201526b139bdd081c995cdbdb1d995960a21b6044820152606490fd5b346102a85760203660031901126102a8576004355f526007602052602060405f2054604051908152f35b346102a85760203660031901126102a857600435611a0a611dc3565b610e1081101580611a56575b15611a2057600255005b60405162461bcd60e51b815260206004820152600e60248201526d496e76616c69642077696e646f7760901b6044820152606490fd5b5062093a80811115611a16565b346102a8575f3660031901126102a857602060405160028152f35b602435906001600160a01b03821682036102a857565b600435906001600160a01b03821682036102a857565b9181601f840112156102a8578235916001600160401b0383116102a857602083818601950101116102a857565b90600182811c92168015611b05575b6020831014611af157565b634e487b7160e01b5f52602260045260245ffd5b91607f1691611ae6565b6101a081019081106001600160401b03821117610e1057604052565b90601f801991011681019081106001600160401b03821117610e1057604052565b9060058210156102945752565b91908251928382525f5b848110611b83575050825f602080949584010152601f8019910116010190565b602081830181015184830182015201611b63565b6040515f6020820152600360a01b602c820152600160a01b603882015260248152606081016001600160401b03811182821017610e105760405290565b15611bdb57565b60405162461bcd60e51b815260206004820152600b60248201526a4e6f74206120706172747960a81b6044820152606490fd5b15611c1557565b60405162461bcd60e51b815260206004820152600d60248201526c139bc8199d5b991cc81cd95b9d609a1b6044820152606490fd5b15611c5157565b60405162461bcd60e51b8152602060048201526011602482015270125b9d985b1a59081c9958da5c1a595b9d607a1b6044820152606490fd5b15611c9157565b60405162461bcd60e51b8152602060048201526011602482015270545820616c72656164792065786973747360781b6044820152606490fd5b91908201809211610fd057565b5f198114610fd05760010190565b6001600160401b038111610e1057601f01601f191660200190565b929192611d0c82611ce5565b91611d1a6040519384611b2b565b8294818452818301116102a8578281602093845f960137010152565b9060058110156102945760ff80198354169116179055565b90918060409360208452816020850152848401375f828201840152601f01601f1916010190565b5f52600460205260405f2060ff60088201541660058110156102945760018103611da457506007015442101590565b6003915014611db1575f90565b600190565b91908203918211610fd057565b5f546001600160a01b03163303611dd657565b606460405162461bcd60e51b815260206004820152602060248201527f4f776e61626c653a2063616c6c6572206973206e6f7420746865206f776e65726044820152fd5b600260015414611e2b576002600155565b60405162461bcd60e51b815260206004820152601f60248201527f5265656e7472616e637947756172643a207265656e7472616e742063616c6c006044820152606490fd5b805f52600490602090828252604092835f209160088301805460ff8116600581101561214157841461213857839060ff191617905560018060a01b03938460028501541693856001820154169084810154966003820154169460ff600b600a8401549301541691600181145f14611f495750505050907f36088d8c95f10317cb92d7a374fc7ca80d20040c9e5d5a154dc30455cf41dc8784928751878152a380611f3f57505f8080938193828215611f36575bf115611f2d57505b565b513d5f823e3d90fd5b506108fc611f23565b611f2b9350612154565b908160028599949397969597145f14611f9157505050505f8051602061235d833981519152908751878152a380611f3f57505f8080938193828215611f3657f115611f2d5750565b60039096919293949596145f14612101575081611fde57505050905f8051602061235d83398151915284928751878152a380611f3f57505f8080938193828215611f3657f115611f2d5750565b8188959396949798029185830414851517156120ee5750905f8051602061235d83398151915261201360648994048096611db6565b9686837f36088d8c95f10317cb92d7a374fc7ca80d20040c9e5d5a154dc30455cf41dc87838d518a8152a38951888152a3806120bd5750801591821561208d575b5050508015918215612067575b50505050565b5f928392839283928390612084575bf115611f2d57808080612061565b506108fc612076565b5f9283928392839283906120b4575bf1156120aa575f8080612054565b82513d5f823e3d90fd5b506108fc61209c565b9450809392936120dd575b5050816120d457505050565b611f2b92612154565b6120e79185612154565b5f806120c8565b601190634e487b7160e01b5f525260245ffd5b94939150505f8051602061235d83398151915291508751878152a380611f3f57505f8080938193828215611f3657f115611f2d5750565b50505050505050565b602185634e487b7160e01b5f525260245ffd5b60405163a9059cbb60e01b60208201526001600160a01b03909216602483015260448083019390935291815260808101916001600160401b03831182841017610e1057611f2b926040525b60408051908101916001600160a01b03166001600160401b03831182841017610e105761222b926040525f806020958685527f5361666545524332303a206c6f772d6c6576656c2063616c6c206661696c656487860152868151910182855af13d156122bb573d9161221083611ce5565b9261221e6040519485611b2b565b83523d5f8785013e6122bf565b805182811591821561229b575b50509050156122445750565b6084906040519062461bcd60e51b82526004820152602a60248201527f5361666545524332303a204552433230206f7065726174696f6e20646964206e6044820152691bdd081cdd58d8d9595960b21b6064820152fd5b83809293500103126102a85781015180151581036102a85780825f612238565b6060915b9192901561232157508151156122d3575090565b3b156122dc5790565b60405162461bcd60e51b815260206004820152601d60248201527f416464726573733a2063616c6c20746f206e6f6e2d636f6e74726163740000006044820152606490fd5b8251909150156123345750805190602001fd5b60405162461bcd60e51b815260206004820152908190612358906024830190611b59565b0390fdfe9ab3fd9da89d71db59eba7c9d05c7e7a6ee87bcc3a43148ca34251841b983177a2646970667358221220fc777d98a302ef6bce399b3be2817f8e30bee857082130fe4182b9968408a4bc64736f6c63430008180033","linkReferences":{}},"methodIdentifiers":{"EXTRA_DATA()":"9e1df637","RULING_APPROVE()":"788702b2","RULING_OPTIONS()":"626c47e8","RULING_REJECT()":"0d1b1cca","arbitrator()":"6cc6cde1","canExecute(bytes32)":"4456251b","challengeTransaction(bytes32)":"dda54f2a","challengeWindow()":"861a1412","disputeToTx(uint256)":"c548699a","emergencyWithdraw(bytes32)":"75870d65","escrowTransaction(bytes32,address,uint256,string)":"a333ac27","escrowTransactionERC20(bytes32,address,address,uint256,uint256,string)":"27f0db83","escrows(bytes32)":"2d83549c","evidenceGroupCounter()":"87bc2937","executeTransaction(bytes32)":"c69ed5f2","getChallengeCost()":"ec5b4616","getEscrow(bytes32)":"f023b811","getTokenBalance(address)":"3aecd0e3","healthCheck()":"b252720b","metaEvidenceID()":"689a118b","owner()":"8da5cb5b","renounceOwnership()":"715018a6","requestAppeal(bytes32)":"25f2fdf1","rule(uint256,uint256)":"311a6c56","setChallengeWindow(uint256)":"01c1aa0d","setEscrowPartialPct(bytes32,uint8)":"6e9c10df","submitEvidence(bytes32,string)":"f48a0b31","transferOwnership(address)":"f2fde38b","txToEvidenceGroup(bytes32)":"089d9391","updateMetaEvidence(string)":"e4ef8f1d"},"id":7}