{
  "_format": "hh-sol-artifact-1",
  "contractName": "AMTTP",
  "sourceName": "contracts/withnft.sol",
  "abi": [
    {
      "anonymous": false,
      "inputs": [
        {
          "indexed": true,
          "internalType": "bytes32",
          "name": "swapId",
          "type": "bytes32"
        },
        {
          "indexed": true,
          "internalType": "address",
          "name": "approver",
          "type": "address"
        }
      ],
      "name": "Approved",
      "type": "event"
    },
    {
      "anonymous": false,
      "inputs": [
        {
          "indexed": false,
          "internalType": "address",
          "name": "approver",
          "type": "address"
        }
      ],
      "name": "ApproverAdded",
      "type": "event"
    },
    {
      "anonymous": false,
      "inputs": [
        {
          "indexed": false,
          "internalType": "address",
          "name": "approver",
          "type": "address"
        }
      ],
      "name": "ApproverRemoved",
      "type": "event"
    },
    {
      "anonymous": false,
      "inputs": [
        {
          "indexed": false,
          "internalType": "uint8",
          "name": "version",
          "type": "uint8"
        }
      ],
      "name": "Initialized",
      "type": "event"
    },
    {
      "anonymous": false,
      "inputs": [
        {
          "indexed": true,
          "internalType": "address",
          "name": "previousOwner",
          "type": "address"
        },
        {
          "indexed": true,
          "internalType": "address",
          "name": "newOwner",
          "type": "address"
        }
      ],
      "name": "OwnershipTransferred",
      "type": "event"
    },
    {
      "anonymous": false,
      "inputs": [
        {
          "indexed": true,
          "internalType": "bytes32",
          "name": "swapId",
          "type": "bytes32"
        },
        {
          "indexed": true,
          "internalType": "address",
          "name": "seller",
          "type": "address"
        }
      ],
      "name": "SwapCompleted",
      "type": "event"
    },
    {
      "anonymous": false,
      "inputs": [
        {
          "indexed": true,
          "internalType": "bytes32",
          "name": "swapId",
          "type": "bytes32"
        }
      ],
      "name": "SwapEscalated",
      "type": "event"
    },
    {
      "anonymous": false,
      "inputs": [
        {
          "indexed": true,
          "internalType": "bytes32",
          "name": "swapId",
          "type": "bytes32"
        },
        {
          "indexed": true,
          "internalType": "address",
          "name": "buyer",
          "type": "address"
        },
        {
          "indexed": true,
          "internalType": "address",
          "name": "seller",
          "type": "address"
        },
        {
          "indexed": false,
          "internalType": "uint256",
          "name": "amount",
          "type": "uint256"
        },
        {
          "indexed": false,
          "internalType": "uint8",
          "name": "riskLevel",
          "type": "uint8"
        },
        {
          "indexed": false,
          "internalType": "bytes32",
          "name": "kycHash",
          "type": "bytes32"
        },
        {
          "indexed": false,
          "internalType": "enum AMTTP.AssetType",
          "name": "assetType",
          "type": "uint8"
        }
      ],
      "name": "SwapInitiated",
      "type": "event"
    },
    {
      "anonymous": false,
      "inputs": [
        {
          "indexed": true,
          "internalType": "bytes32",
          "name": "swapId",
          "type": "bytes32"
        },
        {
          "indexed": true,
          "internalType": "address",
          "name": "buyer",
          "type": "address"
        }
      ],
      "name": "SwapRefunded",
      "type": "event"
    },
    {
      "inputs": [
        {
          "internalType": "address",
          "name": "a",
          "type": "address"
        }
      ],
      "name": "addApprover",
      "outputs": [],
      "stateMutability": "nonpayable",
      "type": "function"
    },
    {
      "inputs": [
        {
          "internalType": "bytes32",
          "name": "",
          "type": "bytes32"
        }
      ],
      "name": "approvalCounts",
      "outputs": [
        {
          "internalType": "uint256",
          "name": "",
          "type": "uint256"
        }
      ],
      "stateMutability": "view",
      "type": "function"
    },
    {
      "inputs": [
        {
          "internalType": "bytes32",
          "name": "",
          "type": "bytes32"
        },
        {
          "internalType": "address",
          "name": "",
          "type": "address"
        }
      ],
      "name": "approvals",
      "outputs": [
        {
          "internalType": "bool",
          "name": "",
          "type": "bool"
        }
      ],
      "stateMutability": "view",
      "type": "function"
    },
    {
      "inputs": [
        {
          "internalType": "bytes32",
          "name": "swapId",
          "type": "bytes32"
        }
      ],
      "name": "approveSwap",
      "outputs": [],
      "stateMutability": "nonpayable",
      "type": "function"
    },
    {
      "inputs": [
        {
          "internalType": "uint256",
          "name": "",
          "type": "uint256"
        }
      ],
      "name": "approvers",
      "outputs": [
        {
          "internalType": "address",
          "name": "",
          "type": "address"
        }
      ],
      "stateMutability": "view",
      "type": "function"
    },
    {
      "inputs": [
        {
          "internalType": "bytes32",
          "name": "swapId",
          "type": "bytes32"
        },
        {
          "internalType": "bytes32",
          "name": "preimage",
          "type": "bytes32"
        }
      ],
      "name": "completeSwap",
      "outputs": [],
      "stateMutability": "nonpayable",
      "type": "function"
    },
    {
      "inputs": [
        {
          "internalType": "bytes32",
          "name": "swapId",
          "type": "bytes32"
        }
      ],
      "name": "escalateSwap",
      "outputs": [],
      "stateMutability": "nonpayable",
      "type": "function"
    },
    {
      "inputs": [
        {
          "internalType": "address",
          "name": "_oracle",
          "type": "address"
        },
        {
          "internalType": "uint256",
          "name": "_threshold",
          "type": "uint256"
        }
      ],
      "name": "initialize",
      "outputs": [],
      "stateMutability": "nonpayable",
      "type": "function"
    },
    {
      "inputs": [
        {
          "internalType": "address",
          "name": "seller",
          "type": "address"
        },
        {
          "internalType": "bytes32",
          "name": "hashlock",
          "type": "bytes32"
        },
        {
          "internalType": "uint256",
          "name": "timelock",
          "type": "uint256"
        },
        {
          "internalType": "uint8",
          "name": "risk",
          "type": "uint8"
        },
        {
          "internalType": "bytes32",
          "name": "kycHash",
          "type": "bytes32"
        },
        {
          "internalType": "bytes",
          "name": "oracleSig",
          "type": "bytes"
        }
      ],
      "name": "initiateSwap",
      "outputs": [],
      "stateMutability": "payable",
      "type": "function"
    },
    {
      "inputs": [
        {
          "internalType": "address",
          "name": "seller",
          "type": "address"
        },
        {
          "internalType": "address",
          "name": "token",
          "type": "address"
        },
        {
          "internalType": "uint256",
          "name": "amount",
          "type": "uint256"
        },
        {
          "internalType": "bytes32",
          "name": "hashlock",
          "type": "bytes32"
        },
        {
          "internalType": "uint256",
          "name": "timelock",
          "type": "uint256"
        },
        {
          "internalType": "uint8",
          "name": "risk",
          "type": "uint8"
        },
        {
          "internalType": "bytes32",
          "name": "kycHash",
          "type": "bytes32"
        },
        {
          "internalType": "bytes",
          "name": "oracleSig",
          "type": "bytes"
        }
      ],
      "name": "initiateSwapERC20",
      "outputs": [],
      "stateMutability": "nonpayable",
      "type": "function"
    },
    {
      "inputs": [
        {
          "internalType": "address",
          "name": "seller",
          "type": "address"
        },
        {
          "internalType": "address",
          "name": "token",
          "type": "address"
        },
        {
          "internalType": "uint256",
          "name": "tokenId",
          "type": "uint256"
        },
        {
          "internalType": "bytes32",
          "name": "hashlock",
          "type": "bytes32"
        },
        {
          "internalType": "uint256",
          "name": "timelock",
          "type": "uint256"
        },
        {
          "internalType": "uint8",
          "name": "risk",
          "type": "uint8"
        },
        {
          "internalType": "bytes32",
          "name": "kycHash",
          "type": "bytes32"
        },
        {
          "internalType": "bytes",
          "name": "oracleSig",
          "type": "bytes"
        }
      ],
      "name": "initiateSwapERC721",
      "outputs": [],
      "stateMutability": "nonpayable",
      "type": "function"
    },
    {
      "inputs": [
        {
          "internalType": "address",
          "name": "a",
          "type": "address"
        }
      ],
      "name": "isApprover",
      "outputs": [
        {
          "internalType": "bool",
          "name": "",
          "type": "bool"
        }
      ],
      "stateMutability": "view",
      "type": "function"
    },
    {
      "inputs": [],
      "name": "oracle",
      "outputs": [
        {
          "internalType": "address",
          "name": "",
          "type": "address"
        }
      ],
      "stateMutability": "view",
      "type": "function"
    },
    {
      "inputs": [],
      "name": "owner",
      "outputs": [
        {
          "internalType": "address",
          "name": "",
          "type": "address"
        }
      ],
      "stateMutability": "view",
      "type": "function"
    },
    {
      "inputs": [
        {
          "internalType": "bytes32",
          "name": "swapId",
          "type": "bytes32"
        }
      ],
      "name": "refundSwap",
      "outputs": [],
      "stateMutability": "nonpayable",
      "type": "function"
    },
    {
      "inputs": [
        {
          "internalType": "address",
          "name": "a",
          "type": "address"
        }
      ],
      "name": "removeApprover",
      "outputs": [],
      "stateMutability": "nonpayable",
      "type": "function"
    },
    {
      "inputs": [],
      "name": "renounceOwnership",
      "outputs": [],
      "stateMutability": "nonpayable",
      "type": "function"
    },
    {
      "inputs": [
        {
          "internalType": "address",
          "name": "token",
          "type": "address"
        },
        {
          "internalType": "address",
          "name": "to",
          "type": "address"
        },
        {
          "internalType": "uint256",
          "name": "tokenId",
          "type": "uint256"
        }
      ],
      "name": "rescueERC721",
      "outputs": [],
      "stateMutability": "nonpayable",
      "type": "function"
    },
    {
      "inputs": [
        {
          "internalType": "address",
          "name": "o",
          "type": "address"
        }
      ],
      "name": "setOracle",
      "outputs": [],
      "stateMutability": "nonpayable",
      "type": "function"
    },
    {
      "inputs": [
        {
          "internalType": "uint256",
          "name": "t",
          "type": "uint256"
        }
      ],
      "name": "setThreshold",
      "outputs": [],
      "stateMutability": "nonpayable",
      "type": "function"
    },
    {
      "inputs": [
        {
          "internalType": "bytes32",
          "name": "",
          "type": "bytes32"
        }
      ],
      "name": "swaps",
      "outputs": [
        {
          "internalType": "address",
          "name": "buyer",
          "type": "address"
        },
        {
          "internalType": "address",
          "name": "seller",
          "type": "address"
        },
        {
          "internalType": "uint256",
          "name": "amount",
          "type": "uint256"
        },
        {
          "internalType": "address",
          "name": "token",
          "type": "address"
        },
        {
          "internalType": "uint256",
          "name": "tokenId",
          "type": "uint256"
        },
        {
          "internalType": "bytes32",
          "name": "hashlock",
          "type": "bytes32"
        },
        {
          "internalType": "uint256",
          "name": "timelock",
          "type": "uint256"
        },
        {
          "internalType": "uint8",
          "name": "riskLevel",
          "type": "uint8"
        },
        {
          "internalType": "bytes32",
          "name": "kycHash",
          "type": "bytes32"
        },
        {
          "internalType": "bool",
          "name": "completed",
          "type": "bool"
        },
        {
          "internalType": "bool",
          "name": "refunded",
          "type": "bool"
        },
        {
          "internalType": "bool",
          "name": "frozen",
          "type": "bool"
        },
        {
          "internalType": "enum AMTTP.AssetType",
          "name": "assetType",
          "type": "uint8"
        }
      ],
      "stateMutability": "view",
      "type": "function"
    },
    {
      "inputs": [],
      "name": "threshold",
      "outputs": [
        {
          "internalType": "uint256",
          "name": "",
          "type": "uint256"
        }
      ],
      "stateMutability": "view",
      "type": "function"
    },
    {
      "inputs": [
        {
          "internalType": "address",
          "name": "newOwner",
          "type": "address"
        }
      ],
      "name": "transferOwnership",
      "outputs": [],
      "stateMutability": "nonpayable",
      "type": "function"
    }
  ],
  "bytecode": "0x6080806040523461001657612616908161001c8239f35b600080fdfe608080604052600436101561001357600080fd5b600090813560e01c90816323f3693914611e1a5750806324f6c77614611dd157806338293371146119ec57806342cde4e8146119ce5780636cf4c88f146118b05780636d218e4814611882578063715018a61461182457806378dc33561461146b5780637adbf9731461141f5780637dc0d1d0146113f65780637df325e1146113605780638abed32b146113365780638da5cb5b1461130d578063960bfe04146112b1578063b140429414610de7578063b646c19414610d27578063cd6dc68714610bb1578063d3650fb814610b6d578063d5e9a80b1461068e578063e35468cb14610536578063eb84e7f21461044b578063f2fde38b146103ba5763fe2510ee1461011e57600080fd5b346103b7576020806003193601126103b3576004359061013c612112565b81835260978152604083209060098201805461015b60ff82161561224c565b61016b60ff8260081c161561228c565b61017b60ff8260101c16156122cb565b600684015442106103805761ff001916610100179081905560181c60ff16600381101561036c578061023d57508380808060018060a01b038654166002870154905af16101c6612300565b501561020557505b546001600160a01b0316907fc672feaa452bd52b0000f3d29c943cd9331556ab05529d49e984311220c16c198380a3600160655580f35b6064906040519062461bcd60e51b825260048201526011602482015270115512081c99599d5b990819985a5b1959607a1b6044820152fd5b600181036102d1575060038201548254600284015460405163a9059cbb60e01b81526001600160a01b0392831660048201526024810191909152918391839160449183918a91165af180156102c657610298575b50506101ce565b816102b792903d106102bf575b6102af81836121e7565b810190612209565b503880610291565b503d6102a5565b6040513d87823e3d90fd5b60029150036101ce5760038101548154600483015485926001600160a01b03908116921690823b15610368576040516323b872dd60e01b81523060048201526001600160a01b0392909216602483015260448201529082908290606490829084905af1801561035d576103455750506101ce565b61034e90612168565b610359578238610291565b8280fd5b6040513d84823e3d90fd5b8380fd5b634e487b7160e01b85526021600452602485fd5b60405162461bcd60e51b815260048101849052600b60248201526a139bdd08195e1c1a5c995960aa1b6044820152606490fd5b5080fd5b80fd5b50346103b75760203660031901126103b7576103d4611f0e565b6103dc612011565b6001600160a01b038116156103f7576103f490612069565b80f35b60405162461bcd60e51b815260206004820152602660248201527f4f776e61626c653a206e6577206f776e657220697320746865207a65726f206160448201526564647265737360d01b6064820152608490fd5b50346103b75760203660031901126103b757604090600435815260976020522060018060a01b0360ff818354169180600185015416936002810154916003820154166004820154600583015460068401549186600786015416936009600887015496015496888860181c169a6040519a8b5260208b015260408a01526060890152608088015260a087015260c086015260e08501526101008401528181161515610120840152818160081c16151561014084015260101c1615156101608201526003821015610520576101a091610180820152f35b634e487b7160e01b600052602160045260246000fd5b50346103b7576020806003193601126103b35760043590610556336123c8565b1561065b57818352609881526040832033600052815260ff6040600020541661062457609990828452609781526105a0600960408620015460ff8116159081610615575b50612330565b82845260988152604084203360005281526040600020600160ff19825416179055828452526040822080549060018201809211610601575533907f90b535106f433f3869de4725076776361dc9946b091db11206fa1b526a85ecd48380a380f35b634e487b7160e01b84526011600452602484fd5b60ff915060081c16153861059a565b6064906040519062461bcd60e51b82526004820152601060248201526f105b1c9958591e48185c1c1c9bdd995960821b6044820152fd5b6064906040519062461bcd60e51b82526004820152600c60248201526b2737ba1030b8383937bb32b960a11b6044820152fd5b5060c03660031901126103b7576106a3611f0e565b602480359060449081359060649182359460ff8616809603610a86576084359360a43567ffffffffffffffff8111610b69576106e3903690600401611f24565b6106ee999199612112565b3415610b39576001600160a01b038216998a15610b065742861115610ad15760038a11610aa05760048a1015610a8b5761072782612230565b61073460405191826121e7565b8281523683830111610a865760006020846107c1956107b995838601378301015260405160208101903382528d60408201523460608201528c60808201528a60a082015260a08152610785816121af565b5190207f19457468657265756d205369676e6564204d6573736167653a0a333200000000600052601c52603c60002061251d565b919091612419565b609c546001600160a01b03918216911681149081610a7c575b5015610a405760405160208101916001600160601b031990813360601b16845260601b1660348201528360488201528460688201526068815261081c816121cb565b5190206000818152609760205260409020549096906001600160a01b0316610a115750506000929161095d600961018093896040519461085b86612192565b33865260208601928d84528a8c604089019534875260608a01918d835260808b01938e855260a08c0195865260c08c0196875260e08c019788526101008c01526101208b019d8e5260006101408c015260006101608c015260008c8c0152600052609760205260406000209660018060a01b038b5116916001600160601b0360a01b92838a5416178955600189019060018060a01b0390511683825416179055516002880155600387019160018060a01b039051169082541617905551600485015551600584015551600683015560ff6007830191511660ff1982541617905561010084015160088201550194511515859060ff801983541691151516179055565b610140810151845461ff00191690151560081b61ff0016178455610160810151845462ff0000191690151560101b62ff00001617845501519060038210156109fd575063ff00000082549160181b169063ff00000019161790556040519234845260208401526040830152600060608301527fbf65c77c39f1726f5a1c1116c14795eca552690a845fbe9f58574d77a9f8886860803393a4600160655580f35b634e487b7160e01b60009081526021600452fd5b6a537761702065786973747360a81b8591600b6040519362461bcd60e51b855260206004860152840152820152fd5b5060405162461bcd60e51b81526020600482015260188186015277496e76616c6964206f7261636c65207369676e617475726560401b81880152fd5b90501515386107da565b600080fd5b86634e487b7160e01b60005260216004526000fd5b60405162461bcd60e51b815260206004820152600c818901526b496e76616c6964207269736b60a01b818b01528490fd5b60405162461bcd60e51b8152602060048201526010818901526f496e76616c69642074696d656c6f636b60801b818b01528490fd5b60405162461bcd60e51b815260206004820152600e818901526d24b73b30b634b21039b2b63632b960911b818b01528490fd5b60405162461bcd60e51b815260206004820152600b818801526a139bc8115512081cd95b9d60aa1b818a01528390fd5b8980fd5b50346103b75760203660031901126103b75760043590609a548210156103b7576020610b9883611fc4565b905460405160039290921b1c6001600160a01b03168152f35b50346103b75760403660031901126103b757610bcb611f0e565b815460ff8160081c161590818092610d1a575b8015610d03575b15610ca75760ff198116600117845581610c96575b50610c1460ff845460081c16610c0f816120b2565b6120b2565b610c1d33612069565b825491610c3360ff8460081c16610c0f816120b2565b600160655560018060a01b03166001600160601b0360a01b609c541617609c55602435609b55610c61575080f35b61ff00191681557f7f26b83ff96e1f2b6a682f133852f6798a09c465da95921460cefb3847402498602060405160018152a180f35b61ffff191661010117835538610bfa565b60405162461bcd60e51b815260206004820152602e60248201527f496e697469616c697a61626c653a20636f6e747261637420697320616c72656160448201526d191e481a5b9a5d1a585b1a5e995960921b6064820152608490fd5b50303b158015610be55750600160ff821614610be5565b50600160ff821610610bde565b50346103b75760203660031901126103b757610d41611f0e565b610d49612011565b6001600160a01b03811690610d5f821515612368565b609a5468010000000000000000811015610dd35791610dc9602092610dab8560017f835bddf1ceee4956e4329af9edf018523c1191238187a597453f6020bcadb0429701609a55611fc4565b90919060018060a01b038084549260031b9316831b921b1916179055565b604051908152a180f35b634e487b7160e01b84526041600452602484fd5b50346103b757610df636611f52565b610e0898919298979597969496612112565b841561127e576001600160a01b03821693841561124857428811156112105760ff1692600384116111dc57600484101561052057610e4582612230565b610e5260405191826121e7565b8281523683830111610a86576000602084610ea3956107b995838601378301015260405160208101903382528760408201528860608201528660808201528c60a082015260a08152610785816121af565b609c546001600160a01b039182169116811490816111d2575b50156111925760405160208101916001600160601b031990813360601b16845260601b16603482015287604882015286606882015260688152610efe816121cb565b5190206000818152609760205260409020549095906001600160a01b031661115f5760405196610f2d88612192565b33885283602089015284604089015260018060a01b03861660608901526000608089015260a088015260c08701528060e08701528661010087015260006101208701526000610140870152600061016087015260016101808701528460005260976020526101806009604060002060018060a01b038951166001600160601b0360a01b90818354161782556001820160018060a01b0360208c0151168282541617905560408a01516002830155600382019060018060a01b0360608c015116908254161790556080890151600482015560a0890151600582015560c089015160068201556007810160ff60e08b01511660ff19825416179055610100890151600882015501966110506101208201511515899060ff801983541691151516179055565b610140810151885461ff00191690151560081b61ff0016178855610160810151885462ff0000191690151560101b62ff00001617885501519460038610156105205788978761111f9763ff00000060209a549160181b169063ff000000191617905560405192858452888401526040830152600160608301527fbf65c77c39f1726f5a1c1116c14795eca552690a845fbe9f58574d77a9f8886860803393a46040516323b872dd60e01b8152336004820152306024820152604481019190915293849283919082906064820190565b03926001600160a01b03165af1801561035d57611140575b50600160655580f35b6111589060203d6020116102bf576102af81836121e7565b5038611137565b60405162461bcd60e51b815260206004820152600b60248201526a537761702065786973747360a81b6044820152606490fd5b60405162461bcd60e51b8152602060048201526018602482015277496e76616c6964206f7261636c65207369676e617475726560401b6044820152606490fd5b9050151538610ebc565b60405162461bcd60e51b815260206004820152600c60248201526b496e76616c6964207269736b60a01b6044820152606490fd5b60405162461bcd60e51b815260206004820152601060248201526f496e76616c69642074696d656c6f636b60801b6044820152606490fd5b60405162461bcd60e51b815260206004820152600e60248201526d24b73b30b634b21039b2b63632b960911b6044820152606490fd5b60405162461bcd60e51b815260206004820152600b60248201526a16995c9bc8185b5bdd5b9d60aa1b6044820152606490fd5b50346103b75760203660031901126103b7576004356112ce612011565b609a5481116112dd57609b5580f35b60405162461bcd60e51b81526020600482015260086024820152670a8dede40d0d2ced60c31b6044820152606490fd5b50346103b757806003193601126103b7576033546040516001600160a01b039091168152602090f35b50346103b75760203660031901126103b75760406020916004358152609983522054604051908152f35b50346103b75760603660031901126103b7578061137b611f0e565b611383611ef8565b9061138c612011565b6001600160a01b0316803b156113f2576040516323b872dd60e01b81523060048201526001600160a01b03929092166024830152604480359083015282908290606490829084905af1801561035d576113e25750f35b6113eb90612168565b6103b75780f35b5050fd5b50346103b757806003193601126103b757609c546040516001600160a01b039091168152602090f35b50346103b75760203660031901126103b757611439611f0e565b611441612011565b6001600160a01b0316611455811515612368565b6001600160601b0360a01b609c541617609c5580f35b50346103b75760403660031901126103b757602460043561148a612112565b808352602060978152604084209060098201938454946114ad60ff87161561224c565b6114bd60ff8760081c161561228c565b6114cd60ff8760101c16156122cb565b60068401544210156117f6576040518381019083358252848152604081019181831067ffffffffffffffff8411176117e15782604052815190206005870154036117ae57505060ff60078501541661152481612221565b600481101561179b5760021490811561176c575b5061171c575b60ff90600180978319161780915560181c16600381101561170957806115f857508580808060018060a01b0389880154166002880154905af161157f612300565b50156115bf5750505b8201546001600160a01b0316907f0625e047e273118a71cca3f0dd73a68d97dd99585ffdee4b3f86670fe113f13d8480a360655580f35b9060136064926040519262461bcd60e51b8452600484015282015272115512081d1c985b9cd9995c8819985a5b1959606a1b6044820152fd5b905084810361167f5750600382015484830154600284015460405163a9059cbb60e01b81526001600160a01b0392831660048201526024810191909152918391839160449183918b91165af1801561167457611656575b5050611588565b8161166c92903d106102bf576102af81836121e7565b50388061164f565b6040513d88823e3d90fd5b600291500361158857600381015483820154600483015486926001600160a01b03908116921690823b15610368576040516323b872dd60e01b81523060048201526001600160a01b0392909216602483015260448201529082908290606490829084905af1801561035d576116f5575050611588565b6116fe90612168565b61036857833861164f565b50634e487b7160e01b8652602160045285fd5b848752609983526040872054609b54111561153e5760405162461bcd60e51b815260048101849052601481840152734e6f7420656e6f75676820617070726f76616c7360601b6044820152606490fd5b6117769150612221565b60048110156117885760031438611538565b634e487b7160e01b885260216004528288fd5b634e487b7160e01b895260216004528389fd5b906f496e76616c696420707265696d61676560801b60846064938762461bcd60e51b855260448201526010858201520152fd5b84634e487b7160e01b60005260416004526000fd5b60405162461bcd60e51b81526004810184905260078184015266115e1c1a5c995960ca1b6044820152606490fd5b50346103b757806003193601126103b75761183d612011565b603380546001600160a01b031981169091556000906001600160a01b03167f8be0079c531659141344cd1fd0a4f28419497f9722a3daafe3b4186f6b6457e08280a380f35b50346103b75760203660031901126103b75760206118a66118a1611f0e565b6123c8565b6040519015158152f35b50346103b7576020806003193601126103b3576118cb611f0e565b916118d4612011565b6001600160a01b0392831691815b609a805490818310156119c4578690866118fb85611fc4565b939054600394851b1c161461191b57505050611916906123a3565b6118e2565b6000199795969495919390928881019081116119b05790610dab8361194261194f94611fc4565b905490881b1c1691611fc4565b815496871561199c577fc6e35658c76ecdde40a54f31a91fb7c8615e9893cc0885584b27bb3433270d469697019261198684611fc4565b81939154921b1b1916905555604051908152a180f35b634e487b7160e01b87526031600452602487fd5b634e487b7160e01b88526011600452602488fd5b5050505091505080f35b50346103b757806003193601126103b7576020609b54604051908152f35b50346103b7576119fb36611f52565b611a09999893949599612112565b6001600160a01b03841615611248574286111561121057600360ff8616116111dc57600460ff86161015611dbd57611a4081612230565b91611a4e60405193846121e7565b8183523682820111610b695791896020836107b994611add968386013783010152604051602081019033825260018060a01b03871660408201526001606082015260ff881660808201528560a082015260a08152611aab816121af565b5190207f19457468657265756d205369676e6564204d6573736167653a0a3332000000008b52601c52603c8a2061251d565b609c546001600160a01b03918216911681149081611db3575b50156111925760405160208101906001600160601b0319803360601b1683528460601b16603482015289604882015285606882015260688152611b38816121cb565b519020808852609760205260408820549094906001600160a01b031661115f5760405198611b658a612192565b338a5260018060a01b03841660208b0152600160408b015260018060a01b03881660608b01528660808b015260a08a015260c089015260ff831660e0890152806101008901528661012089015286610140890152866101608901526002610180890152838752609760205261018060096040892060018060a01b038b51166001600160601b0360a01b9081835416178255600182018c602060018060a01b03910151168282541617905560408c0151600283015560038201908c606060018060a01b03910151169082541617905560808b0151600482015560a08b0151600582015560c08b015160068201556007810160ff60e08d01511660ff198254161790556101008b015160088201550198611c9061012082015115158b9060ff801983541691151516179055565b6101408101518a5461ff00191690151560081b61ff0016178a556101608101518a5462ff0000191690151560101b62ff000016178a550151976003891015611d9f57879863ff00000082549160181b169063ff000000191617905560ff604051936001855216602084015260408301526002606083015260018060a01b0316917fbf65c77c39f1726f5a1c1116c14795eca552690a845fbe9f58574d77a9f8886860803393a46001600160a01b0382163b156113f2576040516323b872dd60e01b8152336004820152306024820152604481019190915291908290606490829084906001600160a01b03165af1801561035d57611d905750600160655580f35b611d9990612168565b38611137565b634e487b7160e01b88526021600452602488fd5b9050151538611af6565b634e487b7160e01b89526021600452602489fd5b50346103b75760403660031901126103b75760ff6040602092611df2611ef8565b6004358252609885528282206001600160a01b03909116825284522054604051911615158152f35b9050346103b35760203660031901126103b357600435808352609760205260408320805491929091336001600160a01b0391821614908115611ee8575b5015611eba575060090162010000815460ff81161580611eab575b611e7b90612330565b62ff000019161790557f223ab6991c0e3cee2af471cba0cc06415bf12c2adf4cc81c07d869dd5057503e8280a280f35b50600881901c60ff1615611e72565b62461bcd60e51b81526020600482015260096024820152684e6f7420706172747960b81b6044820152606490fd5b9050600183015416331438611e57565b602435906001600160a01b0382168203610a8657565b600435906001600160a01b0382168203610a8657565b9181601f84011215610a865782359167ffffffffffffffff8311610a865760208381860195010111610a8657565b90610100600319830112610a86576001600160a01b03916004358381168103610a8657926024359081168103610a86579160443591606435916084359160a43560ff81168103610a86579160c4359160e4359067ffffffffffffffff8211610a8657611fc091600401611f24565b9091565b609a54811015611ffb57609a6000527f44da158ba27f9252712a74ff6a55c5d531f69609f1f6e7f17c4443a8e2089be40190600090565b634e487b7160e01b600052603260045260246000fd5b6033546001600160a01b0316330361202557565b606460405162461bcd60e51b815260206004820152602060248201527f4f776e61626c653a2063616c6c6572206973206e6f7420746865206f776e65726044820152fd5b603380546001600160a01b039283166001600160a01b0319821681179092559091167f8be0079c531659141344cd1fd0a4f28419497f9722a3daafe3b4186f6b6457e0600080a3565b156120b957565b60405162461bcd60e51b815260206004820152602b60248201527f496e697469616c697a61626c653a20636f6e7472616374206973206e6f74206960448201526a6e697469616c697a696e6760a81b6064820152608490fd5b600260655414612123576002606555565b60405162461bcd60e51b815260206004820152601f60248201527f5265656e7472616e637947756172643a207265656e7472616e742063616c6c006044820152606490fd5b67ffffffffffffffff811161217c57604052565b634e487b7160e01b600052604160045260246000fd5b6101a0810190811067ffffffffffffffff82111761217c57604052565b60c0810190811067ffffffffffffffff82111761217c57604052565b60a0810190811067ffffffffffffffff82111761217c57604052565b90601f8019910116810190811067ffffffffffffffff82111761217c57604052565b90816020910312610a8657518015158103610a865790565b60ff1660048110156105205790565b67ffffffffffffffff811161217c57601f01601f191660200190565b1561225357565b60405162461bcd60e51b8152602060048201526011602482015270105b1c9958591e4818dbdb5c1b195d1959607a1b6044820152606490fd5b1561229357565b60405162461bcd60e51b815260206004820152601060248201526f105b1c9958591e481c99599d5b99195960821b6044820152606490fd5b156122d257565b60405162461bcd60e51b8152602060048201526006602482015265233937bd32b760d11b6044820152606490fd5b3d1561232b573d9061231182612230565b9161231f60405193846121e7565b82523d6000602084013e565b606090565b1561233757565b60405162461bcd60e51b8152602060048201526009602482015268119a5b985b1a5e995960ba1b6044820152606490fd5b1561236f57565b60405162461bcd60e51b815260206004820152600c60248201526b5a65726f206164647265737360a01b6044820152606490fd5b60001981146123b25760010190565b634e487b7160e01b600052601160045260246000fd5b609a549060005b8281106123de57505050600090565b6123e781611fc4565b905460039190911b1c6001600160a01b03908116908316146124115761240c906123a3565b6123cf565b505050600190565b6005811015610520578061242a5750565b600181036124775760405162461bcd60e51b815260206004820152601860248201527f45434453413a20696e76616c6964207369676e617475726500000000000000006044820152606490fd5b600281036124c45760405162461bcd60e51b815260206004820152601f60248201527f45434453413a20696e76616c6964207369676e6174757265206c656e677468006044820152606490fd5b6003146124cd57565b60405162461bcd60e51b815260206004820152602260248201527f45434453413a20696e76616c6964207369676e6174757265202773272076616c604482015261756560f01b6064820152608490fd5b90604181511460001461254757611fc0916020820151906060604084015193015160001a90612551565b5050600090600290565b9291907f7fffffffffffffffffffffffffffffff5d576e7357a4501ddfe92f46681b20a083116125d45791608094939160ff602094604051948552168484015260408301526060820152600093849182805260015afa156125c75781516001600160a01b038116156125c1579190565b50600190565b50604051903d90823e3d90fd5b5050505060009060039056fea2646970667358221220996a38dff7d82418a2d4c42838bf8673f90d844b886b6e9859c2b9827a11ae8f64736f6c63430008150033",
  "linkReferences": {},
  "deployedLinkReferences": {}
}