{"abi":[{"type":"constructor","inputs":[],"stateMutability":"nonpayable"},{"type":"receive","stateMutability":"payable"},{"type":"function","name":"BLOCK_THRESHOLD","inputs":[],"outputs":[{"name":"","type":"uint256","internalType":"uint256"}],"stateMutability":"view"},{"type":"function","name":"HIGH_RISK_THRESHOLD","inputs":[],"outputs":[{"name":"","type":"uint256","internalType":"uint256"}],"stateMutability":"view"},{"type":"function","name":"RISK_SCALE","inputs":[],"outputs":[{"name":"","type":"uint256","internalType":"uint256"}],"stateMutability":"view"},{"type":"function","name":"activeModelVersion","inputs":[],"outputs":[{"name":"","type":"string","internalType":"string"}],"stateMutability":"view"},{"type":"function","name":"addApprover","inputs":[{"name":"_approver","type":"address","internalType":"address"}],"outputs":[],"stateMutability":"nonpayable"},{"type":"function","name":"approvalThreshold","inputs":[],"outputs":[{"name":"","type":"uint256","internalType":"uint256"}],"stateMutability":"view"},{"type":"function","name":"approvals","inputs":[{"name":"","type":"bytes32","internalType":"bytes32"},{"name":"","type":"address","internalType":"address"}],"outputs":[{"name":"","type":"bool","internalType":"bool"}],"stateMutability":"view"},{"type":"function","name":"approveSwap","inputs":[{"name":"swapId","type":"bytes32","internalType":"bytes32"}],"outputs":[],"stateMutability":"nonpayable"},{"type":"function","name":"approvers","inputs":[{"name":"","type":"uint256","internalType":"uint256"}],"outputs":[{"name":"","type":"address","internalType":"address"}],"stateMutability":"view"},{"type":"function","name":"completeSwap","inputs":[{"name":"swapId","type":"bytes32","internalType":"bytes32"},{"name":"preimage","type":"bytes32","internalType":"bytes32"}],"outputs":[],"stateMutability":"nonpayable"},{"type":"function","name":"disputeResolver","inputs":[],"outputs":[{"name":"","type":"address","internalType":"contract IAMTTPDisputeResolverLocal"}],"stateMutability":"view"},{"type":"function","name":"executeDisputeRuling","inputs":[{"name":"swapId","type":"bytes32","internalType":"bytes32"},{"name":"releaseToSeller","type":"bool","internalType":"bool"}],"outputs":[],"stateMutability":"nonpayable"},{"type":"function","name":"getApprovers","inputs":[],"outputs":[{"name":"","type":"address[]","internalType":"address[]"}],"stateMutability":"view"},{"type":"function","name":"getContractStatus","inputs":[],"outputs":[{"name":"_policyEngine","type":"address","internalType":"address"},{"name":"_disputeResolver","type":"address","internalType":"address"},{"name":"_oracle","type":"address","internalType":"address"},{"name":"_policyEnabled","type":"bool","internalType":"bool"},{"name":"_riskThreshold","type":"uint256","internalType":"uint256"},{"name":"_modelVersion","type":"string","internalType":"string"}],"stateMutability":"view"},{"type":"function","name":"getSwap","inputs":[{"name":"swapId","type":"bytes32","internalType":"bytes32"}],"outputs":[{"name":"","type":"tuple","internalType":"struct AMTTPCore.Swap","components":[{"name":"buyer","type":"address","internalType":"address"},{"name":"status","type":"uint8","internalType":"enum AMTTPCore.SwapStatus"},{"name":"approvalCount","type":"uint8","internalType":"uint8"},{"name":"assetType","type":"uint8","internalType":"enum AMTTPCore.AssetType"},{"name":"seller","type":"address","internalType":"address"},{"name":"token","type":"address","internalType":"address"},{"name":"amount","type":"uint256","internalType":"uint256"},{"name":"hashlock","type":"bytes32","internalType":"bytes32"},{"name":"timelock","type":"uint256","internalType":"uint256"},{"name":"riskScore","type":"uint256","internalType":"uint256"},{"name":"kycHash","type":"bytes32","internalType":"bytes32"}]}],"stateMutability":"view"},{"type":"function","name":"globalRiskThreshold","inputs":[],"outputs":[{"name":"","type":"uint256","internalType":"uint256"}],"stateMutability":"view"},{"type":"function","name":"initialize","inputs":[{"name":"_oracle","type":"address","internalType":"address"}],"outputs":[],"stateMutability":"nonpayable"},{"type":"function","name":"initiateSwap","inputs":[{"name":"seller","type":"address","internalType":"address"},{"name":"hashlock","type":"bytes32","internalType":"bytes32"},{"name":"timelock","type":"uint256","internalType":"uint256"},{"name":"riskScore","type":"uint256","internalType":"uint256"},{"name":"kycHash","type":"bytes32","internalType":"bytes32"},{"name":"oracleSignature","type":"bytes","internalType":"bytes"}],"outputs":[{"name":"swapId","type":"bytes32","internalType":"bytes32"}],"stateMutability":"payable"},{"type":"function","name":"initiateSwapERC20","inputs":[{"name":"seller","type":"address","internalType":"address"},{"name":"token","type":"address","internalType":"address"},{"name":"amount","type":"uint256","internalType":"uint256"},{"name":"hashlock","type":"bytes32","internalType":"bytes32"},{"name":"timelock","type":"uint256","internalType":"uint256"},{"name":"riskScore","type":"uint256","internalType":"uint256"},{"name":"kycHash","type":"bytes32","internalType":"bytes32"},{"name":"oracleSignature","type":"bytes","internalType":"bytes"}],"outputs":[{"name":"swapId","type":"bytes32","internalType":"bytes32"}],"stateMutability":"nonpayable"},{"type":"function","name":"isApprover","inputs":[{"name":"","type":"address","internalType":"address"}],"outputs":[{"name":"","type":"bool","internalType":"bool"}],"stateMutability":"view"},{"type":"function","name":"oracle","inputs":[],"outputs":[{"name":"","type":"address","internalType":"address"}],"stateMutability":"view"},{"type":"function","name":"owner","inputs":[],"outputs":[{"name":"","type":"address","internalType":"address"}],"stateMutability":"view"},{"type":"function","name":"pause","inputs":[],"outputs":[],"stateMutability":"nonpayable"},{"type":"function","name":"paused","inputs":[],"outputs":[{"name":"","type":"bool","internalType":"bool"}],"stateMutability":"view"},{"type":"function","name":"policyEngine","inputs":[],"outputs":[{"name":"","type":"address","internalType":"contract IAMTTPPolicyEngine"}],"stateMutability":"view"},{"type":"function","name":"policyEngineEnabled","inputs":[],"outputs":[{"name":"","type":"bool","internalType":"bool"}],"stateMutability":"view"},{"type":"function","name":"proxiableUUID","inputs":[],"outputs":[{"name":"","type":"bytes32","internalType":"bytes32"}],"stateMutability":"view"},{"type":"function","name":"raiseDispute","inputs":[{"name":"swapId","type":"bytes32","internalType":"bytes32"},{"name":"evidence","type":"string","internalType":"string"}],"outputs":[],"stateMutability":"payable"},{"type":"function","name":"refundSwap","inputs":[{"name":"swapId","type":"bytes32","internalType":"bytes32"}],"outputs":[],"stateMutability":"nonpayable"},{"type":"function","name":"rejectSwap","inputs":[{"name":"swapId","type":"bytes32","internalType":"bytes32"},{"name":"reason","type":"string","internalType":"string"}],"outputs":[],"stateMutability":"nonpayable"},{"type":"function","name":"removeApprover","inputs":[{"name":"_approver","type":"address","internalType":"address"}],"outputs":[],"stateMutability":"nonpayable"},{"type":"function","name":"renounceOwnership","inputs":[],"outputs":[],"stateMutability":"nonpayable"},{"type":"function","name":"setActiveModelVersion","inputs":[{"name":"_version","type":"string","internalType":"string"}],"outputs":[],"stateMutability":"nonpayable"},{"type":"function","name":"setApprovalThreshold","inputs":[{"name":"_threshold","type":"uint256","internalType":"uint256"}],"outputs":[],"stateMutability":"nonpayable"},{"type":"function","name":"setDisputeResolver","inputs":[{"name":"_disputeResolver","type":"address","internalType":"address"}],"outputs":[],"stateMutability":"nonpayable"},{"type":"function","name":"setGlobalRiskThreshold","inputs":[{"name":"_threshold","type":"uint256","internalType":"uint256"}],"outputs":[],"stateMutability":"nonpayable"},{"type":"function","name":"setKYCStatus","inputs":[{"name":"user","type":"address","internalType":"address"},{"name":"verified","type":"bool","internalType":"bool"}],"outputs":[],"stateMutability":"nonpayable"},{"type":"function","name":"setOracle","inputs":[{"name":"_oracle","type":"address","internalType":"address"}],"outputs":[],"stateMutability":"nonpayable"},{"type":"function","name":"setPolicyEngine","inputs":[{"name":"_policyEngine","type":"address","internalType":"address"}],"outputs":[],"stateMutability":"nonpayable"},{"type":"function","name":"setUserPolicy","inputs":[{"name":"user","type":"address","internalType":"address"},{"name":"dailyLimit","type":"uint128","internalType":"uint128"},{"name":"singleTxLimit","type":"uint128","internalType":"uint128"},{"name":"kycVerified","type":"bool","internalType":"bool"},{"name":"trusted","type":"bool","internalType":"bool"}],"outputs":[],"stateMutability":"nonpayable"},{"type":"function","name":"swaps","inputs":[{"name":"","type":"bytes32","internalType":"bytes32"}],"outputs":[{"name":"buyer","type":"address","internalType":"address"},{"name":"status","type":"uint8","internalType":"enum AMTTPCore.SwapStatus"},{"name":"approvalCount","type":"uint8","internalType":"uint8"},{"name":"assetType","type":"uint8","internalType":"enum AMTTPCore.AssetType"},{"name":"seller","type":"address","internalType":"address"},{"name":"token","type":"address","internalType":"address"},{"name":"amount","type":"uint256","internalType":"uint256"},{"name":"hashlock","type":"bytes32","internalType":"bytes32"},{"name":"timelock","type":"uint256","internalType":"uint256"},{"name":"riskScore","type":"uint256","internalType":"uint256"},{"name":"kycHash","type":"bytes32","internalType":"bytes32"}],"stateMutability":"view"},{"type":"function","name":"transferOwnership","inputs":[{"name":"newOwner","type":"address","internalType":"address"}],"outputs":[],"stateMutability":"nonpayable"},{"type":"function","name":"unpause","inputs":[],"outputs":[],"stateMutability":"nonpayable"},{"type":"function","name":"upgradeTo","inputs":[{"name":"newImplementation","type":"address","internalType":"address"}],"outputs":[],"stateMutability":"nonpayable"},{"type":"function","name":"upgradeToAndCall","inputs":[{"name":"newImplementation","type":"address","internalType":"address"},{"name":"data","type":"bytes","internalType":"bytes"}],"outputs":[],"stateMutability":"payable"},{"type":"function","name":"userPolicies","inputs":[{"name":"","type":"address","internalType":"address"}],"outputs":[{"name":"dailyLimit","type":"uint128","internalType":"uint128"},{"name":"singleTxLimit","type":"uint128","internalType":"uint128"},{"name":"dailySpent","type":"uint128","internalType":"uint128"},{"name":"lastResetDay","type":"uint64","internalType":"uint64"},{"name":"kycVerified","type":"bool","internalType":"bool"},{"name":"trusted","type":"bool","internalType":"bool"}],"stateMutability":"view"},{"type":"event","name":"AdminChanged","inputs":[{"name":"previousAdmin","type":"address","indexed":false,"internalType":"address"},{"name":"newAdmin","type":"address","indexed":false,"internalType":"address"}],"anonymous":false},{"type":"event","name":"ApproverAdded","inputs":[{"name":"approver","type":"address","indexed":true,"internalType":"address"}],"anonymous":false},{"type":"event","name":"ApproverRemoved","inputs":[{"name":"approver","type":"address","indexed":true,"internalType":"address"}],"anonymous":false},{"type":"event","name":"BeaconUpgraded","inputs":[{"name":"beacon","type":"address","indexed":true,"internalType":"address"}],"anonymous":false},{"type":"event","name":"DisputeResolverUpdated","inputs":[{"name":"newResolver","type":"address","indexed":true,"internalType":"address"}],"anonymous":false},{"type":"event","name":"Initialized","inputs":[{"name":"version","type":"uint8","indexed":false,"internalType":"uint8"}],"anonymous":false},{"type":"event","name":"OwnershipTransferred","inputs":[{"name":"previousOwner","type":"address","indexed":true,"internalType":"address"},{"name":"newOwner","type":"address","indexed":true,"internalType":"address"}],"anonymous":false},{"type":"event","name":"Paused","inputs":[{"name":"account","type":"address","indexed":false,"internalType":"address"}],"anonymous":false},{"type":"event","name":"PolicyEngineUpdated","inputs":[{"name":"newEngine","type":"address","indexed":true,"internalType":"address"}],"anonymous":false},{"type":"event","name":"RiskScoreSubmitted","inputs":[{"name":"swapId","type":"bytes32","indexed":true,"internalType":"bytes32"},{"name":"riskScore","type":"uint256","indexed":false,"internalType":"uint256"},{"name":"modelVersion","type":"string","indexed":false,"internalType":"string"}],"anonymous":false},{"type":"event","name":"SwapApproved","inputs":[{"name":"swapId","type":"bytes32","indexed":true,"internalType":"bytes32"},{"name":"approver","type":"address","indexed":true,"internalType":"address"}],"anonymous":false},{"type":"event","name":"SwapBlocked","inputs":[{"name":"swapId","type":"bytes32","indexed":true,"internalType":"bytes32"},{"name":"riskScore","type":"uint256","indexed":false,"internalType":"uint256"},{"name":"reason","type":"string","indexed":false,"internalType":"string"}],"anonymous":false},{"type":"event","name":"SwapCompleted","inputs":[{"name":"swapId","type":"bytes32","indexed":true,"internalType":"bytes32"},{"name":"seller","type":"address","indexed":true,"internalType":"address"}],"anonymous":false},{"type":"event","name":"SwapDisputed","inputs":[{"name":"swapId","type":"bytes32","indexed":true,"internalType":"bytes32"},{"name":"disputeId","type":"uint256","indexed":false,"internalType":"uint256"}],"anonymous":false},{"type":"event","name":"SwapInitiated","inputs":[{"name":"swapId","type":"bytes32","indexed":true,"internalType":"bytes32"},{"name":"buyer","type":"address","indexed":true,"internalType":"address"},{"name":"seller","type":"address","indexed":true,"internalType":"address"},{"name":"amount","type":"uint256","indexed":false,"internalType":"uint256"},{"name":"riskScore","type":"uint256","indexed":false,"internalType":"uint256"}],"anonymous":false},{"type":"event","name":"SwapRefunded","inputs":[{"name":"swapId","type":"bytes32","indexed":true,"internalType":"bytes32"},{"name":"buyer","type":"address","indexed":true,"internalType":"address"}],"anonymous":false},{"type":"event","name":"Unpaused","inputs":[{"name":"account","type":"address","indexed":false,"internalType":"address"}],"anonymous":false},{"type":"event","name":"Upgraded","inputs":[{"name":"implementation","type":"address","indexed":true,"internalType":"address"}],"anonymous":false},{"type":"event","name":"UserPolicyUpdated","inputs":[{"name":"user","type":"address","indexed":true,"internalType":"address"}],"anonymous":false},{"type":"error","name":"AlreadyApproved","inputs":[]},{"type":"error","name":"DisputeResolverNotSet","inputs":[]},{"type":"error","name":"ETHTransferFailed","inputs":[]},{"type":"error","name":"ExceedsDailyLimit","inputs":[]},{"type":"error","name":"ExceedsSingleTxLimit","inputs":[]},{"type":"error","name":"InvalidPreimage","inputs":[]},{"type":"error","name":"InvalidRiskScore","inputs":[]},{"type":"error","name":"InvalidSeller","inputs":[]},{"type":"error","name":"InvalidSignature","inputs":[]},{"type":"error","name":"InvalidTimelock","inputs":[]},{"type":"error","name":"InvalidToken","inputs":[]},{"type":"error","name":"NoETHSent","inputs":[]},{"type":"error","name":"NotApprover","inputs":[]},{"type":"error","name":"NotOracle","inputs":[]},{"type":"error","name":"NotPartyToSwap","inputs":[]},{"type":"error","name":"OnlyDisputeResolver","inputs":[]},{"type":"error","name":"SwapCannotDispute","inputs":[]},{"type":"error","name":"SwapCannotRefund","inputs":[]},{"type":"error","name":"SwapExists","inputs":[]},{"type":"error","name":"SwapExpired","inputs":[]},{"type":"error","name":"SwapNotApproved","inputs":[]},{"type":"error","name":"SwapNotDisputed","inputs":[]},{"type":"error","name":"SwapNotExpired","inputs":[]},{"type":"error","name":"SwapNotFound","inputs":[]},{"type":"error","name":"SwapNotPending","inputs":[]},{"type":"error","name":"ZeroAmount","inputs":[]}],"bytecode":{"object":"0x60a08060405234620000df57306080525f549060ff8260081c166200008d575060ff8082160362000052575b6040516136bf9081620000e4823960805181818161185f0152818161195e0152611fa70152f35b60ff90811916175f557f7f26b83ff96e1f2b6a682f133852f6798a09c465da95921460cefb3847402498602060405160ff8152a15f6200002b565b62461bcd60e51b815260206004820152602760248201527f496e697469616c697a61626c653a20636f6e747261637420697320696e697469604482015266616c697a696e6760c81b6064820152608490fd5b5f80fdfe6080604052600436101561001a575b3615610018575f80fd5b005b5f3560e01c80622a40da1461283057806307653e161461238a5780630845529b1461224a57806324f6c776146122005780633659cfe614611f835780633b61eb3614611de35780633da0e66e14611c325780633f4ba83a14611b9f5780634f1ef2861461190f57806352d1902d1461184d5780635c975abb1461182b5780636135b085146117a95780636cb3e8ef146116e45780636cf4c88f146116345780636d218e48146115f6578063715018a61461159b57806378dc33561461146f5780637adbf9731461142c5780637d0eef611461140e5780637dc0d1d0146113e55780638456cb591461138c57806386c4832e1461137057806387a22944146112ea5780638bb97c02146111c95780638da5cb5b146111a1578063924e63f61461113a578063927399a5146111115780639c9f7deb146110ad5780639dcbd55c14611091578063a0016b8c1461106f578063a3f569ae14610fbf578063b646c19414610f01578063be7b8a7714610d51578063c032846b14610cd2578063c4d66de814610aa8578063c543aa7814610a8c578063cc117be014610a6e578063d02edadb14610a2c578063d3650fb8146109d2578063dea1c2e3146109ac578063e35468cb14610848578063eb84e7f21461078f578063eba88584146103f5578063f2fde38b14610368578063f5a3f4af1461033f5763fe2510ee0361000e573461033b57602036600319011261033b57600435610233612e16565b805f5261012d8060205260018060a01b03908160405f2054161561032957825f5260205260405f20805460ff8160a01c166006811015610315578015159081610309575b506102f757600582015442106102e5576102b790600360a01b60ff60a01b1982161780845560038401548560ff816002880154169360b01c16931661314f565b5416907fc672feaa452bd52b0000f3d29c943cd9331556ab05529d49e984311220c16c195f80a3600160c955005b6040516314f5e72f60e01b8152600490fd5b604051631d8ba0fd60e31b8152600490fd5b6001915014155f610277565b634e487b7160e01b5f52602160045260245ffd5b6040516305ec69df60e41b8152600490fd5b5f80fd5b3461033b575f36600319011261033b57610135546040516001600160a01b039091168152602090f35b3461033b57602036600319011261033b576103816129a6565b610389612dbe565b6001600160a01b038116156103a157610018906131de565b60405162461bcd60e51b815260206004820152602660248201527f4f776e61626c653a206e6577206f776e657220697320746865207a65726f206160448201526564647265737360d01b6064820152608490fd5b3461033b5761010036600319011261033b5761040f6129a6565b6104176129bc565b9060e4356001600160401b03811161033b57610437903690600401612979565b61043f612e16565b610447612e6c565b6044351561077d576001600160a01b0383161561076b576001600160a01b03841615610759574260843511156107475761048b9160c43560a4356044358633612eb0565b156107355760405160208101903360601b82526001600160601b0319808460601b1660348301528460601b166048820152606435605c820152608435607c82015242609c820152609c81526104df81612a17565b5190205f81815261012d60205260409020549091906001600160a01b03166107235761051460c43560a4356044358433612f6e565b61053060405191610524836129fb565b33835260208301612c30565b5f6040828101829052600160608401526001600160a01b03848116608085015286811660a085015260443560c085015260643560e085015260843561010085015260a43561012085015260c43561014085015285835261012d6020908152919092208351815493166001600160a01b0319938416178155908301519092906006811015610315576105c19084612c3c565b6040810151835460ff60a81b191660a89190911b60ff60a81b161783556060810151906002821015610315576007926101409285549060ff60b01b9060b01b169060ff60b01b19161785556001850160018060a01b0360808401511682825416179055600285019060018060a01b0360a0840151169082541617905560c0810151600385015560e081015160048501556101008101516005850155610120810151600685015501519101556040516323b872dd60e01b602082015233602482015230604482015260443560648201526064815260a08101908082106001600160401b0383111761070f576020946106c29260405260018060a01b0316613315565b60405190604435825260a4358483015260018060a01b031690827fd514471591f77c1c9e0013ff2994f4264d077d6352187ce4bfb5bc8f437209c960403393a4600160c955604051908152f35b634e487b7160e01b5f52604160045260245ffd5b604051631d5a99a160e01b8152600490fd5b604051638baa579f60e01b8152600490fd5b604051637c68874160e11b8152600490fd5b60405163c1ab6dc160e01b8152600490fd5b60405163bab7ca3560e01b8152600490fd5b604051631f2a200560e01b8152600490fd5b3461033b57602036600319011261033b576004355f5261012d60205261016060405f20805460018060a01b03918260018201541683600283015416600383015460048401549160058501549361082060076006880154970154976040519981168a5261080460208b0160ff8360a01c166129e1565b60ff8160a81c1660408b015260ff60608b019160b01c166129ee565b608088015260a087015260c086015260e0850152610100840152610120830152610140820152f35b3461033b5760208060031936011261033b57600435335f52610131825260ff908160405f2054161580610997575b610985575f81815261012d8085526040909120546001600160a01b03161561032957815f52835260405f209282845460a01c1660068110156103155761097357815f5261012e80825260405f20335f5282528360405f205416610961575f838152908252604080822033835290925220805460ff19166001908117909155835460ff60a81b19811660a891821c85169092018416901b60ff60a81b1617835533907fbfece94188ca5510ff29b3892f68dc16c81be915972f251498a734915bae128e5f80a381549061013254908260a81c16101561095057005b60ff60a01b1916600160a01b179055005b60405163080fc0bd60e11b8152600490fd5b604051630fe0fb5160e11b8152600490fd5b604051630197e13360e61b8152600490fd5b506033546001600160a01b0316331415610876565b3461033b575f36600319011261033b57602060ff6101355460a01c166040519015158152f35b3461033b57602036600319011261033b5760043561013090815481101561033b576020915f5260018060a01b03907f2f605e086faac1d93117bbfbc18835d434e9405fadc1ca66faf4b864746daf34015416604051908152f35b3461033b575f36600319011261033b57610a6a604051610a5681610a4f81612b8b565b0382612a68565b604051918291602083526020830190612b2e565b0390f35b3461033b575f36600319011261033b57602061013754604051908152f35b3461033b575f36600319011261033b5760206040516103e88152f35b3461033b57602036600319011261033b57610ac16129a6565b5f5460ff8160081c161590818092610cc5575b8015610cae575b15610c525760019260ff19918385848316175f55610c41575b50610b0e60ff5f5460081c16610b0981613226565b613226565b610b17336131de565b610b4a60ff5f5460081c16610b2b81613226565b610b3481613226565b610b3d81613226565b8560c955610b0981613226565b8160fb541660fb556101339060018060a01b03166001600160601b0360a01b82541617905582610132556102bc61013755610136610b888154612b53565b601f8111610c0b575b50601067044514e2d76312e360c41b019055610135805460ff60a01b19169055610bba33612d42565b335f526101316020528260405f2091825416179055610bd557005b60207f7f26b83ff96e1f2b6a682f133852f6798a09c465da95921460cefb38474024989161ff00195f54165f55604051908152a1005b815f5284601f5f8051602061364a833981519152920160051c8201915b828110610c36575050610b91565b5f8155018590610c28565b61ffff1916610101175f5584610af4565b60405162461bcd60e51b815260206004820152602e60248201527f496e697469616c697a61626c653a20636f6e747261637420697320616c72656160448201526d191e481a5b9a5d1a585b1a5e995960921b6064820152608490fd5b50303b158015610adb5750600160ff821614610adb565b50600160ff821610610ad4565b3461033b575f36600319011261033b5760018060a01b03806101345416610a6a610135548361013354169060ff610137549160405193610d1c85610d1581612b8b565b0386612a68565b604051978897885282166020880152604087015260a01c1615156060850152608084015260c060a084015260c0830190612b2e565b610d5a36612ada565b90825f5261012d9160209183835260018060a01b03938460405f2054161561032957855f52835260405f2080549260ff8460a01c166006811015610315578015159081610ef5575b50610ee35785841633141580610ed3575b610ec157610135938685541615610eaf57610e18968695600392600160a21b9060ff60a01b191617855554169201546040519687948593849363939e793560e01b85528b60048601523360248601526044850152608060648501526084840191612d22565b039134905af18015610ea4575f90610e57575b7f0f7c2a08004e0c137167a94f5c0327bbd718b72cdb8ee0034a8ca1b31a5726ae9250604051908152a2005b508082813d8311610e9d575b610e6d8183612a68565b8101031261033b577f0f7c2a08004e0c137167a94f5c0327bbd718b72cdb8ee0034a8ca1b31a5726ae9151610e2b565b503d610e63565b6040513d5f823e3d90fd5b6040516319b812f960e21b8152600490fd5b604051633afa9dfd60e01b8152600490fd5b5085600183015416331415610db3565b6040516373d581df60e01b8152600490fd5b60019150141588610da2565b3461033b57602036600319011261033b57610f1a6129a6565b610f22612dbe565b60018060a01b03811690815f52610131908160205260ff60405f205416610f8757610f4c90612d42565b815f5260205260405f20600160ff198254161790557f835bddf1ceee4956e4329af9edf018523c1191238187a597453f6020bcadb0425f80a2005b60405162461bcd60e51b815260206004820152601060248201526f20b63932b0b23c9030b8383937bb32b960811b6044820152606490fd5b3461033b57604036600319011261033b57610fd86129a6565b610fe06129d2565b9060018060a01b0380610133541633141580611061575b61104f57165f81815261012f60205260409020600101805460ff60c01b191692151560c01b60ff60c01b16929092179091557feb9893d0169091c966f7eb6f96f444118c8e051527e789cc3d7c20be49931e275f80a2005b604051631bc2178f60e01b8152600490fd5b508060335416331415610ff7565b3461033b57602036600319011261033b57611088612dbe565b60043561013255005b3461033b575f36600319011261033b5760206040516102bc8152f35b3461033b57602036600319011261033b576004356110c9612dbe565b6103e881116110d85761013755005b60405162461bcd60e51b8152602060048201526011602482015270125b9d985b1a59081d1a1c995cda1bdb19607a1b6044820152606490fd5b3461033b575f36600319011261033b57610134546040516001600160a01b039091168152602090f35b3461033b57602036600319011261033b576111536129a6565b61115b612dbe565b61013580546001600160a01b0319166001600160a01b039290921691821790557f8f2e1b6cc4ffc3a93ac515202f6b1afdd15a9422b7301fce25c71481c537e89a5f80a2005b3461033b575f36600319011261033b576033546040516001600160a01b039091168152602090f35b3461033b576111d736612ada565b335f5261013160205260ff60405f20541615806112d5575b61098557825f5261012d918260205260018060a01b03928360405f2054161561032957845f5260205260405f209182549060ff8260a01c166006811015610315576109735785926112877f10a73ecfb51336692e5b1f0e550606ceda6a678b2473b42adadee3216aef3fde93600360a01b60ff60a01b1982161780885560038801548960ff8160028c0154169360b01c16931661314f565b6112a96006860154916040519384938452604060208501526040840191612d22565b0390a25416907fc672feaa452bd52b0000f3d29c943cd9331556ab05529d49e984311220c16c195f80a3005b506033546001600160a01b03163314156111ef565b3461033b57602036600319011261033b576001600160a01b0361130b6129a6565b165f5261012f60205260c060405f2060ff81549160016001600160801b039101549060405193818116855260801c6020850152811660408401526001600160401b038160801c1660608401528181851c161515608084015260c81c16151560a0820152f35b3461033b575f36600319011261033b5760206040516103848152f35b3461033b575f36600319011261033b576113a4612dbe565b6113ac612e6c565b600160ff1960fb54161760fb557f62e78cea01bee320cd4e420270b5ea74000d11b0c9f74754ebdbfc544b05a2586020604051338152a1005b3461033b575f36600319011261033b57610133546040516001600160a01b039091168152602090f35b3461033b575f36600319011261033b57602061013254604051908152f35b3461033b57602036600319011261033b576114456129a6565b61144d612dbe565b61013380546001600160a01b0319166001600160a01b03909216919091179055005b3461033b57604036600319011261033b5760043561148b612e16565b805f5261012d8060205260018060a01b03908160405f2054161561032957825f5260205260405f20805460ff8160a01c166006811015610315576001036115895760058201544210156115775760405160208101906024358252602081526114f281612a4d565b5190206004830154036115655760ff60a01b1916600160a11b17808255600182018054600384015460029094015491936115379360b01c60ff1692861691861661314f565b5416907f0625e047e273118a71cca3f0dd73a68d97dd99585ffdee4b3f86670fe113f13d5f80a3600160c955005b604051630cb4548160e11b8152600490fd5b604051632b32713d60e01b8152600490fd5b604051630dce347d60e11b8152600490fd5b3461033b575f36600319011261033b576115b3612dbe565b603380546001600160a01b031981169091555f906001600160a01b03167f8be0079c531659141344cd1fd0a4f28419497f9722a3daafe3b4186f6b6457e08280a3005b3461033b57602036600319011261033b576001600160a01b036116176129a6565b165f52610131602052602060ff60405f2054166040519015158152f35b3461033b57602036600319011261033b5761164d6129a6565b611655612dbe565b6001600160a01b03165f818152610131602081905260409091205460ff16156116b057815f5260205260405f2060ff1981541690557fc6e35658c76ecdde40a54f31a91fb7c8615e9893cc0885584b27bb3433270d465f80a2005b60405162461bcd60e51b815260206004820152600c60248201526b2737ba1030b8383937bb32b960a11b6044820152606490fd5b3461033b575f36600319011261033b5760405180610130805480845260208094019081925f527f2f605e086faac1d93117bbfbc18835d434e9405fadc1ca66faf4b864746daf34905f5b8682821061178c57868661174482880383612a68565b60405192839281840190828552518091526040840192915f5b82811061176c57505050500390f35b83516001600160a01b03168552869550938101939281019260010161175d565b83546001600160a01b03168552909301926001928301920161172e565b3461033b57602036600319011261033b576117c26129a6565b6117ca612dbe565b61013480546001600160a01b0319166001600160a01b03929092169182179055610135805460ff60a01b191682151560a01b60ff60a01b161790557fc715e03d65a2da6b90a0e4688aa08dc6764de44c14fa37a13f99a0608f6c52145f80a2005b3461033b575f36600319011261033b57602060ff60fb54166040519015158152f35b3461033b575f36600319011261033b577f00000000000000000000000000000000000000000000000000000000000000006001600160a01b031630036118a45760206040515f8051602061366a8339815191528152f35b60405162461bcd60e51b815260206004820152603860248201527f555550535570677261646561626c653a206d757374206e6f742062652063616c60448201527f6c6564207468726f7567682064656c656761746563616c6c00000000000000006064820152608490fd5b604036600319011261033b576119236129a6565b6024356001600160401b03811161033b573660238201121561033b57611953903690602481600401359101612aa4565b906001600160a01b037f000000000000000000000000000000000000000000000000000000000000000081169061198c30831415612c60565b6119a85f8051602061366a833981519152928284541614612cc1565b6119b0612dbe565b7f4910fdfa16fed3260ed0e7147f7cc6da11a60208b5b9406d12a635614ffd91435460ff16156119e65750506100189150613286565b6040516352d1902d60e01b81526020939291831691908481600481865afa5f9181611b70575b50611a6d5760405162461bcd60e51b815260048101869052602e60248201527f45524331393637557067726164653a206e657720696d706c656d656e7461746960448201526d6f6e206973206e6f74205555505360901b6064820152608490fd5b03611b1957611a7b82613286565b7fbc7cd75a20ee27fd9adebab32041f755214dbc6bffa90cc0225b39da2e5c2d3b5f80a2825115801590611b11575b611ab057005b5f806100189460405194611ac386612a32565b602786527f416464726573733a206c6f772d6c6576656c2064656c65676174652063616c6c81870152660819985a5b195960ca1b604087015281519101845af4611b0b613120565b916135ac565b506001611aaa565b60405162461bcd60e51b815260048101849052602960248201527f45524331393637557067726164653a20756e737570706f727465642070726f786044820152681a58589b195555525160ba1b6064820152608490fd5b9091508581813d8311611b98575b611b888183612a68565b8101031261033b57519087611a0c565b503d611b7e565b3461033b575f36600319011261033b57611bb7612dbe565b60fb5460ff811615611bf65760ff191660fb557f5db9ee0a495bf2e6ff9c91a7834c1ba4fdd244a5e8aa4e537bd38aeae4b073aa6020604051338152a1005b60405162461bcd60e51b815260206004820152601460248201527314185d5cd8589b194e881b9bdd081c185d5cd95960621b6044820152606490fd5b3461033b57602036600319011261033b575f610140604051611c53816129fb565b8281528260208201528260408201528260608201528260808201528260a08201528260c08201528260e0820152826101008201528261012082015201526004355f5261012d60205260405f20604051611cab816129fb565b81546001600160a01b038116825260ff90611ccf60a082901c831660208501612c30565b818160a81c16604084015260b01c16600281101561031557606082015260018201546001600160a01b0390811660808301526002830154811660a0830152600383015460c0830152600483015460e0830152600583015461010083015260068301546101208301526007909201546101408083019190915260405182519093168352602080830151610160949391611d6a91908501906129e1565b60ff6040820151166040840152611d89606082015160608501906129ee565b60018060a01b03608082015116608084015260018060a01b0360a08201511660a084015260c081015160c084015260e081015160e08401526101008101516101008401526101208101516101208401520151610140820152f35b3461033b5760a036600319011261033b57611dfc6129a6565b602435906001600160801b039081831680930361033b576044359180831680930361033b5760643580151580910361033b576084359283151580940361033b57610133546001600160a01b039190821633141580611f75575b61104f571694855f5261012f9485602052600160405f2001546001600160401b03916040519560c087018781108582111761070f57611f3697611f1b96600192604052815260208101938452604081019a8386168c5286606083019660801c1686526080820198895260a082019a8b528c5f526020528260405f209151166001600160801b031980955160801b161781550198511690885416178755511685908154906001600160401b0360801b9060801b16906001600160401b0360801b1916179055565b51835460ff60c01b191690151560c01b60ff60c01b16178355565b51815460ff60c81b191690151560c81b60ff60c81b161790557feb9893d0169091c966f7eb6f96f444118c8e051527e789cc3d7c20be49931e275f80a2005b508160335416331415611e55565b3461033b5760208060031936011261033b57611f9d6129a6565b6001600160a01b037f000000000000000000000000000000000000000000000000000000000000000081169290611fd630851415612c60565b611ff25f8051602061366a833981519152948286541614612cc1565b611ffa612dbe565b60405193828501918583106001600160401b0384111761070f57826040525f865260ff7f4910fdfa16fed3260ed0e7147f7cc6da11a60208b5b9406d12a635614ffd914354165f1461205457505050506100189150613286565b84939416906040516352d1902d60e01b81528581600481865afa5f91816121d1575b506120d75760405162461bcd60e51b815260048101879052602e60248201527f45524331393637557067726164653a206e657720696d706c656d656e7461746960448201526d6f6e206973206e6f74205555505360901b6064820152608490fd5b0361217a576120e583613286565b7fbc7cd75a20ee27fd9adebab32041f755214dbc6bffa90cc0225b39da2e5c2d3b5f80a2835115801590612173575b61211a57005b5f8091610018957f416464726573733a206c6f772d6c6576656c2064656c65676174652063616c6c6040519661214f88612a32565b60278852870152660819985a5b195960ca1b60408701525190845af4611b0b613120565b505f612114565b60405162461bcd60e51b815260048101859052602960248201527f45524331393637557067726164653a20756e737570706f727465642070726f786044820152681a58589b195555525160ba1b6064820152608490fd5b9091508681813d83116121f9575b6121e98183612a68565b8101031261033b57519088612076565b503d6121df565b3461033b57604036600319011261033b576122196129bc565b6004355f5261012e60205260405f209060018060a01b03165f52602052602060ff60405f2054166040519015158152f35b3461033b57604036600319011261033b576004356122666129d2565b610135546001600160a01b0391908216330361237857825f5261012d60205260405f209081549060ff8260a01c16600681101561031557600403612366571561230d5750805460ff60a01b1916600160a11b17808255600182018054600384015460029094015491936122e49360b01c60ff1692861691861661314f565b5416907f0625e047e273118a71cca3f0dd73a68d97dd99585ffdee4b3f86670fe113f13d5f80a3005b61233d90600360a01b60ff60a01b1982161780845560038401548560ff816002880154169360b01c16931661314f565b5416907fc672feaa452bd52b0000f3d29c943cd9331556ab05529d49e984311220c16c195f80a3005b6040516314abb64b60e01b8152600490fd5b604051633a2a18e560e11b8152600490fd5b60c036600319011261033b5761239e6129a6565b60a4356001600160401b03811161033b576123bd903690600401612979565b6123c5612e16565b6123cd612e6c565b341561281e576001600160a01b0383161561076b57426044351115610747576103e86064351161280c5761240991608435606435348633612eb0565b1561073557335f5261012f60205260405f2080548060801c806127ee575b506001600160801b03169081612778575b505060405160208101903360601b82526001600160601b03198360601b166034820152602435604882015260443560688201524260888201526088815261247e81612a17565b5190205f81815261012d60205260409020546001600160a01b0316610723576124ae608435606435348533612f6e565b916040516124bb816129fb565b3381526124cb8460208301612c30565b5f60408201525f606082015260018060a01b03821660808201525f60a08201523460c082015260243560e0820152604435610100820152606435610120820152608435610140820152825f5261012d60205260405f209060018060a01b03815116906001600160601b0360a01b918284541617835560208101516006811015610315576125589084612c3c565b6040810151835460ff60a81b191660a89190911b60ff60a81b161783556060810151906002821015610315576007926101409285549060ff60b01b9060b01b169060ff60b01b19161785556001850160018060a01b0360808401511682825416179055600285019060018060a01b0360a0840151169082541617905560c0810151600385015560e08101516004850155610100810151600585015561012081015160068501550151910155335f5261012f60205260405f2060016001600160401b0362015180420416910190815490806001600160401b038360801c161061274f575b505080546001600160801b038034168183160116906001600160801b03191617905560405190348252606435602083015260018060a01b031690827fd514471591f77c1c9e0013ff2994f4264d077d6352187ce4bfb5bc8f437209c960403393a4807f34227c764c0d15545a683016d32e5567d0f44e234713123b75b65478addf471f604051606435815260406020820152806126da60408201612b8b565b0390a26006821015610315576005602092146126fe575b600160c955604051908152f35b807f10a73ecfb51336692e5b1f0e550606ceda6a678b2473b42adadee3216aef3fde60806040516064358152604086820152600960408201526848696768207269736b60b81b6060820152a26126f1565b6001600160c01b031990911660809190911b67ffffffffffffffff60801b16178155848061263b565b600101546201518042046001600160401b038260801c16145f146127df576001600160801b038091165b163481018091116127cb57116127b9578180612438565b60405163158081a560e21b8152600490fd5b634e487b7160e01b5f52601160045260245ffd5b506001600160801b035f6127a2565b34116127fa5783612427565b6040516365ddd82960e11b8152600490fd5b6040516330cdce3160e21b8152600490fd5b604051630b7cc7c360e11b8152600490fd5b3461033b5760208060031936011261033b576001600160401b0360043581811161033b57612862903690600401612979565b909161286c612dbe565b811161070f57610136916128808354612b53565b601f811161292d575b505f93601f83116001146128c55750928192935f926128ba575b50505f19600383901b1c191660019190911b179055005b0135905083806128a3565b601f198316945f8051602061364a83398151915292915f905b8782106129155750508360019596106128fc575b505050811b019055005b01355f19600384901b60f8161c191690558380806128f2565b806001849682949587013581550195019201906128de565b5f8051602061364a833981519152601f840160051c8101916020851061296f575b601f0160051c01905b8181106129645750612889565b5f8155600101612957565b909150819061294e565b9181601f8401121561033b578235916001600160401b03831161033b576020838186019501011161033b57565b600435906001600160a01b038216820361033b57565b602435906001600160a01b038216820361033b57565b60243590811515820361033b57565b9060068210156103155752565b9060028210156103155752565b61016081019081106001600160401b0382111761070f57604052565b60c081019081106001600160401b0382111761070f57604052565b606081019081106001600160401b0382111761070f57604052565b604081019081106001600160401b0382111761070f57604052565b90601f801991011681019081106001600160401b0382111761070f57604052565b6001600160401b03811161070f57601f01601f191660200190565b929192612ab082612a89565b91612abe6040519384612a68565b82948184528183011161033b578281602093845f960137010152565b90604060031983011261033b5760043591602435906001600160401b03821161033b57612b0991600401612979565b9091565b5f5b838110612b1e5750505f910152565b8181015183820152602001612b0f565b90602091612b4781518092818552858086019101612b0d565b601f01601f1916010190565b90600182811c92168015612b81575b6020831014612b6d57565b634e487b7160e01b5f52602260045260245ffd5b91607f1691612b62565b905f9161013690815491612b9e83612b53565b80835292602091600191828116908115612c095750600114612bc2575b5050505050565b90939495505f525f8051602061364a833981519152925f935b858510612bf657505050602092500101905f80808080612bbb565b8054858501840152938201938101612bdb565b9350505050602093945060ff929192191683830152151560051b0101905f80808080612bbb565b60068210156103155752565b90600681101561031557815460ff60a01b191660a09190911b60ff60a01b16179055565b15612c6757565b60405162461bcd60e51b815260206004820152602c60248201527f46756e6374696f6e206d7573742062652063616c6c6564207468726f7567682060448201526b19195b1959d85d1958d85b1b60a21b6064820152608490fd5b15612cc857565b60405162461bcd60e51b815260206004820152602c60248201527f46756e6374696f6e206d7573742062652063616c6c6564207468726f7567682060448201526b6163746976652070726f787960a01b6064820152608490fd5b908060209392818452848401375f828201840152601f01601f1916010190565b6101308054906801000000000000000082101561070f5760018201808255821015612daa575f527f2f605e086faac1d93117bbfbc18835d434e9405fadc1ca66faf4b864746daf340180546001600160a01b0319166001600160a01b03909216919091179055565b634e487b7160e01b5f52603260045260245ffd5b6033546001600160a01b03163303612dd257565b606460405162461bcd60e51b815260206004820152602060248201527f4f776e61626c653a2063616c6c6572206973206e6f7420746865206f776e65726044820152fd5b600260c95414612e2757600260c955565b60405162461bcd60e51b815260206004820152601f60248201527f5265656e7472616e637947756172643a207265656e7472616e742063616c6c006044820152606490fd5b60ff60fb5416612e7857565b60405162461bcd60e51b815260206004820152601060248201526f14185d5cd8589b194e881c185d5cd95960821b6044820152606490fd5b610133546001600160a01b0390811697909690939290918815612f6057612f5b96612f5396612f4d956040519360208501956001600160601b0319809260601b16875260601b16603485015260488401526068830152608882015260888152612f1881612a17565b5190207f19457468657265756d205369676e6564204d6573736167653a0a3332000000005f52601c52603c5f20923691612aa4565b906133fc565b91909161342d565b161490565b505050505050505050600190565b939160ff6101355460a01c168061310b575b612fd657505061038482109050612f98575050600590565b610137541115612fd1576001600160a01b03165f90815261012f602052604090206001015460c81c60ff16612fcc57600190565b600190565b505f90565b61013454604051636c910d3d60e11b81526001600160a01b03968716600482015292861660248401526044830191909152606482019390935260c06084820152925f92849291169082908490829061303060c48301612b8b565b9060a483015203925af1908115610ea4575f91613085575b50600481101561031557600381036130605750600590565b6002811490811561307a575b5061307657600190565b5f90565b60019150145f61306c565b90503d805f833e6130968183612a68565b810160408282031261033b57815191600483101561033b576020810151906001600160401b03821161033b570181601f8201121561033b578051906130da82612a89565b926130e86040519485612a68565b8284526020838301011161033b5760208061310594019101612b0d565b5f613048565b50610134546001600160a01b03161515612f80565b3d1561314a573d9061313182612a89565b9161313f6040519384612a68565b82523d5f602084013e565b606090565b91909260028110156103155761318a57505f80809381935af1613170613120565b501561317857565b60405163b12d13eb60e01b8152600490fd5b60405163a9059cbb60e01b60208201526001600160a01b039283166024820152604480820194909452928352608083019291906001600160401b0384118385101761070f576131dc9360405216613315565b565b603380546001600160a01b039283166001600160a01b0319821681179092559091167f8be0079c531659141344cd1fd0a4f28419497f9722a3daafe3b4186f6b6457e05f80a3565b1561322d57565b60405162461bcd60e51b815260206004820152602b60248201527f496e697469616c697a61626c653a20636f6e7472616374206973206e6f74206960448201526a6e697469616c697a696e6760a81b6064820152608490fd5b803b156132ba575f8051602061366a83398151915280546001600160a01b0319166001600160a01b03909216919091179055565b60405162461bcd60e51b815260206004820152602d60248201527f455243313936373a206e657720696d706c656d656e746174696f6e206973206e60448201526c1bdd08184818dbdb9d1c9858dd609a1b6064820152608490fd5b60405161336c916001600160a01b031661332e82612a4d565b5f806020958685527f5361666545524332303a206c6f772d6c6576656c2063616c6c206661696c656487860152868151910182855af1611b0b613120565b80518281159182156133dc575b50509050156133855750565b6084906040519062461bcd60e51b82526004820152602a60248201527f5361666545524332303a204552433230206f7065726174696f6e20646964206e6044820152691bdd081cdd58d8d9595960b21b6064820152fd5b838092935001031261033b57810151801515810361033b5780825f613379565b9060418151145f1461342457612b0991602082015190606060408401519301515f1a90613531565b50505f90600290565b6005811015610315578061343e5750565b6001810361348b5760405162461bcd60e51b815260206004820152601860248201527f45434453413a20696e76616c6964207369676e617475726500000000000000006044820152606490fd5b600281036134d85760405162461bcd60e51b815260206004820152601f60248201527f45434453413a20696e76616c6964207369676e6174757265206c656e677468006044820152606490fd5b6003146134e157565b60405162461bcd60e51b815260206004820152602260248201527f45434453413a20696e76616c6964207369676e6174757265202773272076616c604482015261756560f01b6064820152608490fd5b7f7fffffffffffffffffffffffffffffff5d576e7357a4501ddfe92f46681b20a084116135a1576020935f9360ff60809460405194855216868401526040830152606082015282805260015afa15610ea4575f516001600160a01b0381161561359957905f90565b505f90600190565b505050505f90600390565b9192901561360e57508151156135c0575090565b3b156135c95790565b60405162461bcd60e51b815260206004820152601d60248201527f416464726573733a2063616c6c20746f206e6f6e2d636f6e74726163740000006044820152606490fd5b8251909150156136215750805190602001fd5b60405162461bcd60e51b815260206004820152908190613645906024830190612b2e565b0390fdfe39da2db355130acf428d669fbf1c14faa9d51399a25b793fc254bbbde66f02e2360894a13ba1a3210667c828492db98dca3e2076cc3735a920a3ca505d382bbca26469706673582212202b228a98c340cd320ad3d4c70af901396f41dc4d6d0e8fb69a64ca3b9d58214864736f6c63430008180033","linkReferences":{}},"methodIdentifiers":{"BLOCK_THRESHOLD()":"86c4832e","HIGH_RISK_THRESHOLD()":"9dcbd55c","RISK_SCALE()":"c543aa78","activeModelVersion()":"d02edadb","addApprover(address)":"b646c194","approvalThreshold()":"7d0eef61","approvals(bytes32,address)":"24f6c776","approveSwap(bytes32)":"e35468cb","approvers(uint256)":"d3650fb8","completeSwap(bytes32,bytes32)":"78dc3356","disputeResolver()":"f5a3f4af","executeDisputeRuling(bytes32,bool)":"0845529b","getApprovers()":"6cb3e8ef","getContractStatus()":"c032846b","getSwap(bytes32)":"3da0e66e","globalRiskThreshold()":"cc117be0","initialize(address)":"c4d66de8","initiateSwap(address,bytes32,uint256,uint256,bytes32,bytes)":"07653e16","initiateSwapERC20(address,address,uint256,bytes32,uint256,uint256,bytes32,bytes)":"eba88584","isApprover(address)":"6d218e48","oracle()":"7dc0d1d0","owner()":"8da5cb5b","pause()":"8456cb59","paused()":"5c975abb","policyEngine()":"927399a5","policyEngineEnabled()":"dea1c2e3","proxiableUUID()":"52d1902d","raiseDispute(bytes32,string)":"be7b8a77","refundSwap(bytes32)":"fe2510ee","rejectSwap(bytes32,string)":"8bb97c02","removeApprover(address)":"6cf4c88f","renounceOwnership()":"715018a6","setActiveModelVersion(string)":"002a40da","setApprovalThreshold(uint256)":"a0016b8c","setDisputeResolver(address)":"924e63f6","setGlobalRiskThreshold(uint256)":"9c9f7deb","setKYCStatus(address,bool)":"a3f569ae","setOracle(address)":"7adbf973","setPolicyEngine(address)":"6135b085","setUserPolicy(address,uint128,uint128,bool,bool)":"3b61eb36","swaps(bytes32)":"eb84e7f2","transferOwnership(address)":"f2fde38b","unpause()":"3f4ba83a","upgradeTo(address)":"3659cfe6","upgradeToAndCall(address,bytes)":"4f1ef286","userPolicies(address)":"87a22944"},"id":1}