{"abi":[{"type":"constructor","inputs":[{"name":"_chainId","type":"uint16","internalType":"uint16"}],"stateMutability":"nonpayable"},{"type":"receive","stateMutability":"payable"},{"type":"function","name":"chainId","inputs":[],"outputs":[{"name":"","type":"uint16","internalType":"uint16"}],"stateMutability":"view"},{"type":"function","name":"deliverMessage","inputs":[{"name":"_messageIndex","type":"uint256","internalType":"uint256"}],"outputs":[],"stateMutability":"nonpayable"},{"type":"function","name":"estimateFees","inputs":[{"name":"_dstChainId","type":"uint16","internalType":"uint16"},{"name":"_userApplication","type":"address","internalType":"address"},{"name":"_payload","type":"bytes","internalType":"bytes"},{"name":"_payInZRO","type":"bool","internalType":"bool"},{"name":"_adapterParam","type":"bytes","internalType":"bytes"}],"outputs":[{"name":"nativeFee","type":"uint256","internalType":"uint256"},{"name":"zroFee","type":"uint256","internalType":"uint256"}],"stateMutability":"view"},{"type":"function","name":"forceResumeReceive","inputs":[{"name":"_srcChainId","type":"uint16","internalType":"uint16"},{"name":"_srcAddress","type":"bytes","internalType":"bytes"}],"outputs":[],"stateMutability":"nonpayable"},{"type":"function","name":"getChainId","inputs":[],"outputs":[{"name":"","type":"uint16","internalType":"uint16"}],"stateMutability":"view"},{"type":"function","name":"getInboundNonce","inputs":[{"name":"_srcChainId","type":"uint16","internalType":"uint16"},{"name":"_srcAddress","type":"bytes","internalType":"bytes"}],"outputs":[{"name":"","type":"uint64","internalType":"uint64"}],"stateMutability":"view"},{"type":"function","name":"getOutboundNonce","inputs":[{"name":"_dstChainId","type":"uint16","internalType":"uint16"},{"name":"_srcAddress","type":"address","internalType":"address"}],"outputs":[{"name":"","type":"uint64","internalType":"uint64"}],"stateMutability":"view"},{"type":"function","name":"getPendingMessagesCount","inputs":[],"outputs":[{"name":"","type":"uint256","internalType":"uint256"}],"stateMutability":"view"},{"type":"function","name":"getReceiveLibraryAddress","inputs":[{"name":"_userApplication","type":"address","internalType":"address"}],"outputs":[{"name":"","type":"address","internalType":"address"}],"stateMutability":"view"},{"type":"function","name":"getSendLibraryAddress","inputs":[{"name":"_userApplication","type":"address","internalType":"address"}],"outputs":[{"name":"","type":"address","internalType":"address"}],"stateMutability":"view"},{"type":"function","name":"hasStoredPayload","inputs":[{"name":"_srcChainId","type":"uint16","internalType":"uint16"},{"name":"_srcAddress","type":"bytes","internalType":"bytes"}],"outputs":[{"name":"","type":"bool","internalType":"bool"}],"stateMutability":"pure"},{"type":"function","name":"inboundNonces","inputs":[{"name":"","type":"uint16","internalType":"uint16"},{"name":"","type":"bytes","internalType":"bytes"}],"outputs":[{"name":"","type":"uint64","internalType":"uint64"}],"stateMutability":"view"},{"type":"function","name":"isReceivingPayload","inputs":[],"outputs":[{"name":"","type":"bool","internalType":"bool"}],"stateMutability":"pure"},{"type":"function","name":"isSendingPayload","inputs":[],"outputs":[{"name":"","type":"bool","internalType":"bool"}],"stateMutability":"pure"},{"type":"function","name":"linkEndpoint","inputs":[{"name":"_chainId","type":"uint16","internalType":"uint16"},{"name":"_endpoint","type":"address","internalType":"address"}],"outputs":[],"stateMutability":"nonpayable"},{"type":"function","name":"linkedEndpoints","inputs":[{"name":"","type":"uint16","internalType":"uint16"}],"outputs":[{"name":"","type":"address","internalType":"address"}],"stateMutability":"view"},{"type":"function","name":"mockFee","inputs":[],"outputs":[{"name":"","type":"uint256","internalType":"uint256"}],"stateMutability":"view"},{"type":"function","name":"nonce","inputs":[],"outputs":[{"name":"","type":"uint64","internalType":"uint64"}],"stateMutability":"view"},{"type":"function","name":"outboundNonces","inputs":[{"name":"","type":"address","internalType":"address"},{"name":"","type":"uint16","internalType":"uint16"}],"outputs":[{"name":"","type":"uint64","internalType":"uint64"}],"stateMutability":"view"},{"type":"function","name":"pendingMessages","inputs":[{"name":"","type":"uint256","internalType":"uint256"}],"outputs":[{"name":"srcChainId","type":"uint16","internalType":"uint16"},{"name":"srcAddress","type":"bytes","internalType":"bytes"},{"name":"nonce","type":"uint64","internalType":"uint64"},{"name":"payload","type":"bytes","internalType":"bytes"},{"name":"destination","type":"address","internalType":"address"},{"name":"delivered","type":"bool","internalType":"bool"}],"stateMutability":"view"},{"type":"function","name":"retryPayload","inputs":[{"name":"_srcChainId","type":"uint16","internalType":"uint16"},{"name":"_srcAddress","type":"bytes","internalType":"bytes"},{"name":"_payload","type":"bytes","internalType":"bytes"}],"outputs":[],"stateMutability":"nonpayable"},{"type":"function","name":"send","inputs":[{"name":"_dstChainId","type":"uint16","internalType":"uint16"},{"name":"_destination","type":"bytes","internalType":"bytes"},{"name":"_payload","type":"bytes","internalType":"bytes"},{"name":"_refundAddress","type":"address","internalType":"address payable"},{"name":"_zroPaymentAddress","type":"address","internalType":"address"},{"name":"_adapterParams","type":"bytes","internalType":"bytes"}],"outputs":[],"stateMutability":"payable"},{"type":"function","name":"setConfig","inputs":[{"name":"_version","type":"uint16","internalType":"uint16"},{"name":"_chainId","type":"uint16","internalType":"uint16"},{"name":"_configType","type":"uint256","internalType":"uint256"},{"name":"_config","type":"bytes","internalType":"bytes"}],"outputs":[],"stateMutability":"nonpayable"},{"type":"function","name":"setMockFee","inputs":[{"name":"_fee","type":"uint256","internalType":"uint256"}],"outputs":[],"stateMutability":"nonpayable"},{"type":"function","name":"setReceiveVersion","inputs":[{"name":"_version","type":"uint16","internalType":"uint16"}],"outputs":[],"stateMutability":"nonpayable"},{"type":"function","name":"setSendVersion","inputs":[{"name":"_version","type":"uint16","internalType":"uint16"}],"outputs":[],"stateMutability":"nonpayable"},{"type":"function","name":"simulateReceive","inputs":[{"name":"_srcChainId","type":"uint16","internalType":"uint16"},{"name":"_srcAddress","type":"bytes","internalType":"bytes"},{"name":"_destAddress","type":"address","internalType":"address"},{"name":"_payload","type":"bytes","internalType":"bytes"}],"outputs":[],"stateMutability":"nonpayable"},{"type":"event","name":"MockMessageReceived","inputs":[{"name":"srcChainId","type":"uint16","indexed":false,"internalType":"uint16"},{"name":"srcAddress","type":"bytes","indexed":false,"internalType":"bytes"},{"name":"destination","type":"address","indexed":false,"internalType":"address"},{"name":"payload","type":"bytes","indexed":false,"internalType":"bytes"},{"name":"nonce","type":"uint64","indexed":false,"internalType":"uint64"}],"anonymous":false},{"type":"event","name":"MockMessageSent","inputs":[{"name":"dstChainId","type":"uint16","indexed":false,"internalType":"uint16"},{"name":"destination","type":"bytes","indexed":false,"internalType":"bytes"},{"name":"payload","type":"bytes","indexed":false,"internalType":"bytes"},{"name":"nonce","type":"uint64","indexed":false,"internalType":"uint64"}],"anonymous":false}],"bytecode":{"object":"0x60803461006f57601f61153038819003918201601f19168301916001600160401b038311848410176100735780849260209460405283398101031261006f575161ffff811680910361006f5766038d7ea4c6800060015561ffff195f5416175f556040516114a890816100888239f35b5f80fd5b634e487b7160e01b5f52604160045260245ffdfe608080604052600436101561001c575b50361561001a575f80fd5b005b5f905f3560e01c90816307e0db17146110755781630eaf6ea61461107a5750806310ddb13714611075578063133e4b0d1461103a57806316d0cfb214610fe85780632922e6e514610f3b5780632a7e3f3214610f225780632cdee8a914610d1d5780633248c4b214610c915780633408e47014610b8557806340a7bb1014610c1357806342d65a8d14610bfe57806371ba2fd614610b805780637a14574814610ba65780639a8a059214610b855780639c729da114610b80578063aaff5f1614610b2b578063affed0e014610b02578063b112c6d714610ae4578063c58031001461042e578063ca066b3514610198578063cbed8b9c146103e6578063d6b760181461038e578063d90f3c2914610370578063e819c0131461019d578063e97a448a146101985763fdc07c700361000f5734610195576001600160401b036020918261ffff604061016c366110fb565b959193909316815260038452208360405194859384378201908152030190205416604051908152f35b80fd5b61137b565b503461019557600319608036820112610364576101b8611093565b906001600160401b0360243581811161036c576101d99036906004016110ce565b92906044356001600160a01b03811691908290036103685760643590878583116101955761020e61ffff9336906004016110ce565b9390981695868252600360205260408220602060405180928b8783378b820190815203019020805482610242818316611426565b16906001600160401b031916179055868252600360205260408220602060405180928b8783378b820190815203019020541694843b15610364578188886102c56102b094888e6040519788968796621d356760e01b885260048801526080602488015260848701908c611452565b928d6044870152858403016064860152611452565b038183895af180156103595761033b575b5050907fffdc17ee2fa5bae7d46a24e92e2550bb8e46c226184b22e730b8bbbcd7d6a8e09661031c61032f9493604051988998895260a060208a015260a0890191611452565b9260408701528583036060870152611452565b9060808301520390a180f35b61034890949392946111ea565b610355579091875f6102d6565b8780fd5b6040513d84823e3d90fd5b5080fd5b5f80fd5b8480fd5b50346101955780600319360112610195576020600154604051908152f35b50346101955760403660031901126101955761ffff60406103ad61114f565b926103b66110a4565b9360018060a01b0316815260026020522091165f5260205260206001600160401b0360405f205416604051908152f35b503461019557608036600319011261019557610400611093565b506104096110a4565b506064356001600160401b038111610364576104299036906004016110ce565b505080f35b5060c036600319011261019557610443611093565b6024356001600160401b038111610ae0576104629036906004016110ce565b6044929192356001600160401b03811161036c576104849036906004016110ce565b606435946001600160a01b0386168603610adc576084356001600160a01b038116036103685760a4356001600160401b038111610355576104c99036906004016110ce565b50506001543410610aa45733875260026020526040872061ffff86165f5260205260405f2080546001600160401b03610503818316611426565b16906001600160401b03191617905533875260026020526040872061ffff86165f526020526001600160401b0360405f2054169387601482145f14610a89575081356bffffffffffffffffffffffff198082169160148410610a74575b505060601c5b61ffff89541690604051913360601b6020840152601483528260408101106001600160401b03604085011117610a6057604083016101008401106001600160401b0361010085011117610a6057610100830160405260408301528160608101528660808301526105d7368688611321565b60a08301526001600160a01b031660c082015260e0810189905260045468010000000000000000811015610a4c578060016106159201600455611165565b610a385761ffff60408301511661ffff1982541617815560608201518051906001600160401b03821161095957819061065160018501546111b2565b601f81116109e6575b50602090601f8311600114610978578d9261096d575b50508160011b915f199060031b1c19161760018201555b600281016001600160401b036080840151166001600160401b031982541617905560a08201518051906001600160401b038211610959576106cb60038401546111b2565b601f8111610912575b506020908c601f84116001146108715761078b948461079999957f218dde72448a3f0491bee458b3050bb2e6045bd9b8afccd29ce7ca43bbc5bb459e9c999561ffff9e9c999560049592610866575b50508160011b915f199060031b1c19161760038201555b019060018060a01b0360c08201511682549160e060ff60a01b910151151560a01b16916affffffffffffffffffffff60a81b1617179055604051988998168852608060208901526080880191611452565b918583036040870152611452565b9060608301520390a160015480341180610854575b6107b6578280f35b3403903482116108405782918291829182916001600160a01b03165af13d1561083b573d6107e381611306565b906107f160405192836111fd565b81528260203d92013e5b15610806575f808280f35b60405162461bcd60e51b815260206004820152600d60248201526c1499599d5b990819985a5b1959609a1b6044820152606490fd5b6107fb565b634e487b7160e01b83526011600452602483fd5b506001600160a01b03821615156107ae565b015190505f80610723565b5090600384018d5260208d20918d5b601f19851681106108fa575061078b946001857f218dde72448a3f0491bee458b3050bb2e6045bd9b8afccd29ce7ca43bbc5bb459e9c999561ffff9e9c99956004956107999d99601f198116106108e2575b505050811b01600382015561073a565b01515f1960f88460031b161c191690555f80806108d2565b91926020600181928685015181550194019201610880565b600384018d5260208d20601f840160051c810160208510610952575b8e5b601f840160051c83018210610947575050506106d4565b81556001018e610930565b508061092e565b634e487b7160e01b8c52604160045260248cfd5b015190505f80610670565b9250600184018d5260208d20908d935b601f19841685106109cb576001945083601f198116106109b3575b505050811b016001820155610687565b01515f1960f88460031b161c191690555f80806109a3565b81810151835560209485019460019093019290910190610988565b909150600184018d5260208d20601f840160051c810160208510610a31575b84939291908f5b601f840160051c83018210610a235750505061065a565b81558594506001018f610a0c565b5080610a05565b634e487b7160e01b8a5260048a905260248afd5b634e487b7160e01b8a52604160045260248afd5b634e487b7160e01b5f52604160045260245ffd5b908092508360140360031b1b16165f80610560565b6028820361056657508060141161035557813560601c610566565b60405162461bcd60e51b815260206004820152601060248201526f496e73756666696369656e742066656560801b6044820152606490fd5b8680fd5b8280fd5b50346101955780600319360112610195576020600454604051908152f35b50346101955780600319360112610195576001600160401b036020915460101c16604051908152f35b503461019557606036600319011261019557610b45611093565b506001600160401b03602435818111610ae057610b669036906004016110ce565b5050604435908111610364576104299036906004016110ce565b611357565b503461019557806003193601126101955761ffff6020915416604051908152f35b50346101955760403660031901126101955761ffff6040610bc5611093565b926001600160a01b03610bd6611139565b16815260026020522091165f5260205260206001600160401b0360405f205416604051908152f35b503461019557610c0d366110fb565b50505080f35b50346101955760a036600319011261019557610c2d611093565b50610c36611139565b506001600160401b03604435818111610ae057610c579036906004016110ce565b505060643580151503610364576084359081116103645790610c7f60409236906004016110ce565b50506001549082519182526020820152f35b503461019557604036600319011261019557610cab611093565b6001600160401b0390602435828111610d195736602382011215610d1957610d0691604060209561ffff610cea88953690602481600401359101611321565b93168152600384522082604051948386809551938492016112c0565b8201908152030190205416604051908152f35b8380fd5b5034610368576003199060203683011261036857600435600454811015610ee557610d4790611165565b50916004830180549160ff8360a01c16610eac5760ff60a01b198316600160a01b17825584546002860180546001880195600389019492936001600160401b03936001600160a01b039361ffff939192841691908616908516803b15610368578a5f8094610df0610ddb9560405198899788968795621d356760e01b87526004870152608060248701526084860190611395565b9160448501528382030160648401528d611395565b03925af18015610ea157610e62575b509061032f9392917fffdc17ee2fa5bae7d46a24e92e2550bb8e46c226184b22e730b8bbbcd7d6a8e09899541695541691541692610e4f604051968796875260a0602088015260a0870190611395565b9160408601528482036060860152611395565b7fffdc17ee2fa5bae7d46a24e92e2550bb8e46c226184b22e730b8bbbcd7d6a8e0985090610e9561032f959493926111ea565b5f985090919293610dff565b6040513d5f823e3d90fd5b60405162461bcd60e51b8152602060048201526011602482015270105b1c9958591e4819195b1a5d995c9959607a1b6044820152606490fd5b60405162461bcd60e51b8152602060048201526015602482015274092dcecc2d8d2c840dacae6e6c2ceca40d2dcc8caf605b1b6044820152606490fd5b3461036857602036600319011261036857600435600155005b346103685760203660031901126103685760043560045481101561036857610f6290611165565b5061ffff815416610f756001830161121e565b9160ff610fca6001600160401b036002840154166004610f976003860161121e565b94015493610fb7604051978897885260c0602089015260c08801906112e1565b91604087015285820360608701526112e1565b9160018060a01b038116608085015260a01c16151560a08301520390f35b3461036857604036600319011261036857611001611093565b61ffff61100c611139565b91165f90815260056020526040902080546001600160a01b0319166001600160a01b03909216919091179055005b346103685760203660031901126103685761ffff611056611093565b165f526005602052602060018060a01b0360405f205416604051908152f35b6110b5565b346103685760209061108b366110fb565b5050505f8152f35b6004359061ffff8216820361036857565b6024359061ffff8216820361036857565b346103685760203660031901126103685761001a611093565b9181601f84011215610368578235916001600160401b038311610368576020838186019501011161036857565b9060406003198301126103685760043561ffff811681036103685791602435906001600160401b03821161036857611135916004016110ce565b9091565b602435906001600160a01b038216820361036857565b600435906001600160a01b038216820361036857565b60045481101561119e5760059060045f52027f8a35acfbc15ff81a39ae7d344fd709f28e8600b4aa8c65c6b64bfe7fe36bd19b01905f90565b634e487b7160e01b5f52603260045260245ffd5b90600182811c921680156111e0575b60208310146111cc57565b634e487b7160e01b5f52602260045260245ffd5b91607f16916111c1565b6001600160401b038111610a6057604052565b90601f801991011681019081106001600160401b03821117610a6057604052565b9060405191825f8254611230816111b2565b908184526020946001916001811690815f1461129e5750600114611260575b50505061125e925003836111fd565b565b5f90815285812095935091905b81831061128657505061125e93508201015f808061124f565b8554888401850152948501948794509183019161126d565b9250505061125e94925060ff191682840152151560051b8201015f808061124f565b5f5b8381106112d15750505f910152565b81810151838201526020016112c2565b906020916112fa815180928185528580860191016112c0565b601f01601f1916010190565b6001600160401b038111610a6057601f01601f191660200190565b92919261132d82611306565b9161133b60405193846111fd565b829481845281830111610368578281602093845f960137010152565b346103685760203660031901126103685761137061114f565b506020604051308152f35b34610368575f3660031901126103685760206040515f8152f35b80545f93926113a3826111b2565b918282526020936001916001811690815f1461140757506001146113c9575b5050505050565b90939495505f92919252835f2092845f945b8386106113f357505050500101905f808080806113c2565b8054858701830152940193859082016113db565b60ff19168685015250505090151560051b010191505f808080806113c2565b6001600160401b0380911690811461143e5760010190565b634e487b7160e01b5f52601160045260245ffd5b908060209392818452848401375f828201840152601f01601f191601019056fea2646970667358221220810eedc74c24439d69a96215c4600ea066b57a640fcb33f8ee3fe3cf88f0330a64736f6c63430008180033","linkReferences":{}},"methodIdentifiers":{"chainId()":"9a8a0592","deliverMessage(uint256)":"2cdee8a9","estimateFees(uint16,address,bytes,bool,bytes)":"40a7bb10","forceResumeReceive(uint16,bytes)":"42d65a8d","getChainId()":"3408e470","getInboundNonce(uint16,bytes)":"fdc07c70","getOutboundNonce(uint16,address)":"7a145748","getPendingMessagesCount()":"b112c6d7","getReceiveLibraryAddress(address)":"71ba2fd6","getSendLibraryAddress(address)":"9c729da1","hasStoredPayload(uint16,bytes)":"0eaf6ea6","inboundNonces(uint16,bytes)":"3248c4b2","isReceivingPayload()":"ca066b35","isSendingPayload()":"e97a448a","linkEndpoint(uint16,address)":"16d0cfb2","linkedEndpoints(uint16)":"133e4b0d","mockFee()":"d90f3c29","nonce()":"affed0e0","outboundNonces(address,uint16)":"d6b76018","pendingMessages(uint256)":"2922e6e5","retryPayload(uint16,bytes,bytes)":"aaff5f16","send(uint16,bytes,bytes,address,address,bytes)":"c5803100","setConfig(uint16,uint16,uint256,bytes)":"cbed8b9c","setMockFee(uint256)":"2a7e3f32","setReceiveVersion(uint16)":"10ddb137","setSendVersion(uint16)":"07e0db17","simulateReceive(uint16,bytes,address,bytes)":"e819c013"},"id":29}