{"abi":[{"type":"constructor","inputs":[],"stateMutability":"nonpayable"},{"type":"function","name":"getUserPolicy","inputs":[{"name":"user","type":"address","internalType":"address"}],"outputs":[{"name":"maxAmount","type":"uint256","internalType":"uint256"},{"name":"riskThreshold","type":"uint256","internalType":"uint256"},{"name":"trusted","type":"bool","internalType":"bool"}],"stateMutability":"view"},{"type":"function","name":"globalRiskThreshold","inputs":[],"outputs":[{"name":"","type":"uint256","internalType":"uint256"}],"stateMutability":"view"},{"type":"function","name":"initialize","inputs":[],"outputs":[],"stateMutability":"nonpayable"},{"type":"function","name":"isTransactionAllowed","inputs":[{"name":"user","type":"address","internalType":"address"},{"name":"counterparty","type":"address","internalType":"address"},{"name":"amount","type":"uint256","internalType":"uint256"},{"name":"riskScore","type":"uint256","internalType":"uint256"}],"outputs":[{"name":"","type":"bool","internalType":"bool"}],"stateMutability":"view"},{"type":"function","name":"owner","inputs":[],"outputs":[{"name":"","type":"address","internalType":"address"}],"stateMutability":"view"},{"type":"function","name":"policyEngine","inputs":[],"outputs":[{"name":"","type":"address","internalType":"contract IAMTTPPolicyLocal"}],"stateMutability":"view"},{"type":"function","name":"policyEngineEnabled","inputs":[],"outputs":[{"name":"","type":"bool","internalType":"bool"}],"stateMutability":"view"},{"type":"function","name":"proxiableUUID","inputs":[],"outputs":[{"name":"","type":"bytes32","internalType":"bytes32"}],"stateMutability":"view"},{"type":"function","name":"renounceOwnership","inputs":[],"outputs":[],"stateMutability":"nonpayable"},{"type":"function","name":"setPolicyEngine","inputs":[{"name":"_policyEngine","type":"address","internalType":"address"}],"outputs":[],"stateMutability":"nonpayable"},{"type":"function","name":"setTrustedUser","inputs":[{"name":"user","type":"address","internalType":"address"},{"name":"trusted","type":"bool","internalType":"bool"}],"outputs":[],"stateMutability":"nonpayable"},{"type":"function","name":"setUserPolicy","inputs":[{"name":"user","type":"address","internalType":"address"},{"name":"maxAmount","type":"uint256","internalType":"uint256"},{"name":"riskThreshold","type":"uint256","internalType":"uint256"}],"outputs":[],"stateMutability":"nonpayable"},{"type":"function","name":"transferOwnership","inputs":[{"name":"newOwner","type":"address","internalType":"address"}],"outputs":[],"stateMutability":"nonpayable"},{"type":"function","name":"trustedUsers","inputs":[{"name":"","type":"address","internalType":"address"}],"outputs":[{"name":"","type":"bool","internalType":"bool"}],"stateMutability":"view"},{"type":"function","name":"upgradeTo","inputs":[{"name":"newImplementation","type":"address","internalType":"address"}],"outputs":[],"stateMutability":"nonpayable"},{"type":"function","name":"upgradeToAndCall","inputs":[{"name":"newImplementation","type":"address","internalType":"address"},{"name":"data","type":"bytes","internalType":"bytes"}],"outputs":[],"stateMutability":"payable"},{"type":"function","name":"userMaxAmounts","inputs":[{"name":"","type":"address","internalType":"address"}],"outputs":[{"name":"","type":"uint256","internalType":"uint256"}],"stateMutability":"view"},{"type":"function","name":"userRiskThresholds","inputs":[{"name":"","type":"address","internalType":"address"}],"outputs":[{"name":"","type":"uint256","internalType":"uint256"}],"stateMutability":"view"},{"type":"function","name":"validateTransaction","inputs":[{"name":"user","type":"address","internalType":"address"},{"name":"counterparty","type":"address","internalType":"address"},{"name":"amount","type":"uint256","internalType":"uint256"},{"name":"riskScore","type":"uint256","internalType":"uint256"}],"outputs":[{"name":"allowed","type":"bool","internalType":"bool"},{"name":"recommendedRiskLevel","type":"uint8","internalType":"uint8"},{"name":"reason","type":"string","internalType":"string"}],"stateMutability":"view"},{"type":"event","name":"AdminChanged","inputs":[{"name":"previousAdmin","type":"address","indexed":false,"internalType":"address"},{"name":"newAdmin","type":"address","indexed":false,"internalType":"address"}],"anonymous":false},{"type":"event","name":"BeaconUpgraded","inputs":[{"name":"beacon","type":"address","indexed":true,"internalType":"address"}],"anonymous":false},{"type":"event","name":"Initialized","inputs":[{"name":"version","type":"uint8","indexed":false,"internalType":"uint8"}],"anonymous":false},{"type":"event","name":"OwnershipTransferred","inputs":[{"name":"previousOwner","type":"address","indexed":true,"internalType":"address"},{"name":"newOwner","type":"address","indexed":true,"internalType":"address"}],"anonymous":false},{"type":"event","name":"PolicyEngineUpdated","inputs":[{"name":"newEngine","type":"address","indexed":true,"internalType":"address"}],"anonymous":false},{"type":"event","name":"TrustedUserUpdated","inputs":[{"name":"user","type":"address","indexed":true,"internalType":"address"},{"name":"trusted","type":"bool","indexed":false,"internalType":"bool"}],"anonymous":false},{"type":"event","name":"Upgraded","inputs":[{"name":"implementation","type":"address","indexed":true,"internalType":"address"}],"anonymous":false},{"type":"event","name":"UserPolicyUpdated","inputs":[{"name":"user","type":"address","indexed":true,"internalType":"address"},{"name":"maxAmount","type":"uint256","indexed":false,"internalType":"uint256"},{"name":"riskThreshold","type":"uint256","indexed":false,"internalType":"uint256"}],"anonymous":false}],"bytecode":{"object":"0x60a080604052346100da57306080525f549060ff8260081c16610088575060ff8082160361004e575b6040516113c990816100df82396080518181816106a0015281816107c80152610a5a0152f35b60ff90811916175f557f7f26b83ff96e1f2b6a682f133852f6798a09c465da95921460cefb3847402498602060405160ff8152a15f610028565b62461bcd60e51b815260206004820152602760248201527f496e697469616c697a61626c653a20636f6e747261637420697320696e697469604482015266616c697a696e6760c81b6064820152608490fd5b5f80fdfe604060808152600480361015610013575f80fd5b5f3560e01c90816303cff63914610d5d578163178e40e114610d21578163329c0dd114610c185781633659cfe614610a2f5781634f1ef2861461074c57816352d1902d1461068c5781636135b08514610613578163715018a6146105b8578163761d9e681461054f5781638129fc1c146103fe5781638da5cb5b146103d6578163927399a5146103ae578163c1e4f0b014610377578163c3aabe3c14610276578163cc117be014610258578163d5a52bd414610221578163dea1c2e3146101fe578163f2fde38b1461016e575063ff3f303c146100ee575f80fd5b3461016a578060031936011261016a57610106610da3565b6024359081151580920361016a577fb081c90a416bb1bf12a0a8456d70c73c6b6c68e377c0f6c6814b8e23a7dea77591602091610141611147565b6001600160a01b03165f81815260cc8452859020805460ff191660ff84161790559351908152a2005b5f80fd5b90503461016a57602036600319011261016a57610189610da3565b91610192611147565b6001600160a01b038316156101ac576101aa8361119f565b005b906020608492519162461bcd60e51b8352820152602660248201527f4f776e61626c653a206e6577206f776e657220697320746865207a65726f206160448201526564647265737360d01b6064820152fd5b823461016a575f36600319011261016a5760209060ff60ce541690519015158152f35b823461016a57602036600319011261016a576020906001600160a01b03610246610da3565b165f5260ca8252805f20549051908152f35b823461016a575f36600319011261016a5760209060cd549051908152f35b823461016a5761028536610db9565b84516303cff63960e01b81526001600160a01b0394851696810196909652929091166024850152604484015260648301525f82608481305afa90811561036e575f916102d8575b60209250519015158152f35b90503d805f843e6102e98184610e84565b82019160608184031261016a57805190811515820361016a57602081015160ff81160361016a57828101519067ffffffffffffffff821161016a57019280601f8501121561016a57835161033c81610ea6565b9161034985519384610e84565b8183526020828701011161016a57602094858061036894019101610df2565b906102cc565b513d5f823e3d90fd5b823461016a57602036600319011261016a576020906001600160a01b0361039c610da3565b165f5260cb8252805f20549051908152f35b823461016a575f36600319011261016a5760c95490516001600160a01b039091168152602090f35b823461016a575f36600319011261016a5760335490516001600160a01b039091168152602090f35b90503461016a575f36600319011261016a575f549060ff8260081c161590818092610542575b801561052b575b156104d1575060ff198281166001175f5591816104bf575b5061045d60ff5f5460081c16610458816111e7565b6111e7565b6104663361119f565b5f549161047860ff8460081c166111e7565b6102bc60cd5560ce541660ce5561048b57005b61ff0019165f5551600181527f7f26b83ff96e1f2b6a682f133852f6798a09c465da95921460cefb384740249890602090a1005b61ffff1916610101175f908155610443565b608490602085519162461bcd60e51b8352820152602e60248201527f496e697469616c697a61626c653a20636f6e747261637420697320616c72656160448201526d191e481a5b9a5d1a585b1a5e995960921b6064820152fd5b50303b15801561042b5750600160ff84161461042b565b50600160ff841610610424565b823461016a57602036600319011261016a5760609061056c610da3565b60018060a01b03165f5260ca602052805f20549060cb602052805f205480156105af575b60cc60205260ff825f2054169082519384526020840152151590820152f35b5060cd54610590565b3461016a575f36600319011261016a576105d0611147565b603380546001600160a01b031981169091555f906001600160a01b03167f8be0079c531659141344cd1fd0a4f28419497f9722a3daafe3b4186f6b6457e08280a3005b3461016a57602036600319011261016a5761062c610da3565b610634611147565b60018060a01b0316806bffffffffffffffffffffffff60a01b60c954161760c95560ff1960ce541660ff821515161760ce557fc715e03d65a2da6b90a0e4688aa08dc6764de44c14fa37a13f99a0608f6c52145f80a2005b90503461016a575f36600319011261016a577f00000000000000000000000000000000000000000000000000000000000000006001600160a01b031630036106e457602082515f805160206113748339815191528152f35b6020608492519162461bcd60e51b8352820152603860248201527f555550535570677261646561626c653a206d757374206e6f742062652063616c60448201527f6c6564207468726f7567682064656c656761746563616c6c00000000000000006064820152fd5b90508160031936011261016a57610761610da3565b906024359267ffffffffffffffff841161016a573660238501121561016a57838201359061078e82610ea6565b61079a82519182610e84565b82815260209283820196366024838301011161016a57815f9260248793018a37830101526001600160a01b037f00000000000000000000000000000000000000000000000000000000000000008116906107f630831415611085565b6108125f805160206113748339815191529282845416146110e6565b61081a611147565b7f4910fdfa16fed3260ed0e7147f7cc6da11a60208b5b9406d12a635614ffd91435460ff1615610854575050505050506101aa9150611247565b869293949596169084516352d1902d60e01b815286818981865afa5f9181610a00575b506108d657855162461bcd60e51b8152808901889052602e60248201527f45524331393637557067726164653a206e657720696d706c656d656e7461746960448201526d6f6e206973206e6f74205555505360901b6064820152608490fd5b9691929396036109ab57506108ea82611247565b7fbc7cd75a20ee27fd9adebab32041f755214dbc6bffa90cc0225b39da2e5c2d3b5f80a28351158015906109a3575b61091f57005b5f806101aa9684519661093188610e38565b602788527f416464726573733a206c6f772d6c6576656c2064656c65676174652063616c6c87890152660819985a5b195960ca1b868901525190845af4913d15610999573d61098b61098282610ea6565b92519283610e84565b81525f81943d92013e6112d6565b50606092506112d6565b506001610919565b835162461bcd60e51b8152908101859052602960248201527f45524331393637557067726164653a20756e737570706f727465642070726f786044820152681a58589b195555525160ba1b6064820152608490fd5b9091508781813d8311610a28575b610a188183610e84565b8101031261016a5751905f610877565b503d610a0e565b90503461016a576020908160031936011261016a57610a4c610da3565b6001600160a01b03939092907f00000000000000000000000000000000000000000000000000000000000000008516610a8730821415611085565b610aa35f805160206113748339815191529187835416146110e6565b610aab611147565b8151908382019682881067ffffffffffffffff891117610c05578784525f83527f4910fdfa16fed3260ed0e7147f7cc6da11a60208b5b9406d12a635614ffd91435460ff1615610b05575050505050506101aa9150611247565b869293949596169084516352d1902d60e01b815286818981865afa5f9181610bd6575b50610b8757855162461bcd60e51b8152808901889052602e60248201527f45524331393637557067726164653a206e657720696d706c656d656e7461746960448201526d6f6e206973206e6f74205555505360901b6064820152608490fd5b9691929396036109ab5750610b9b82611247565b7fbc7cd75a20ee27fd9adebab32041f755214dbc6bffa90cc0225b39da2e5c2d3b5f80a2835115801590610bcf5761091f57005b505f610919565b9091508781813d8311610bfe575b610bee8183610e84565b8101031261016a5751905f610b28565b503d610be4565b604186634e487b7160e01b5f525260245ffd5b823461016a57606036600319011261016a57610c32610da3565b604435926001600160a01b0391821692916024359190338514908115610d13575b5015610ce1576103e88511610caa575082937fa5f8fb0d3f6c257e1da7688ac779a066180cc8cee79b8babb59267ff7d498c08935f5260ca60205281835f205560cb60205280835f205582519182526020820152a2005b606490602084519162461bcd60e51b83528201526011602482015270125b9d985b1a59081d1a1c995cda1bdb19607a1b6044820152fd5b606490602084519162461bcd60e51b8352820152600c60248201526b155b985d5d1a1bdc9a5e995960a21b6044820152fd5b905060335416331486610c53565b823461016a57602036600319011261016a576020906001600160a01b03610d46610da3565b165f5260cc825260ff815f20541690519015158152f35b823461016a576060610d9f610d7d610d7436610db9565b92909150610ec2565b9193909460ff8151968796151587521660208601528401526060830190610e13565b0390f35b600435906001600160a01b038216820361016a57565b608090600319011261016a576001600160a01b0390600435828116810361016a5791602435908116810361016a57906044359060643590565b5f5b838110610e035750505f910152565b8181015183820152602001610df4565b90602091610e2c81518092818552858086019101610df2565b601f01601f1916010190565b6060810190811067ffffffffffffffff821117610e5457604052565b634e487b7160e01b5f52604160045260245ffd5b6040810190811067ffffffffffffffff821117610e5457604052565b90601f8019910116810190811067ffffffffffffffff821117610e5457604052565b67ffffffffffffffff8111610e5457601f01601f191660200190565b9290919260018060a01b0316805f5260209360ca8552604093845f2054801515918261107b575b505061104957815f5260cb8552835f20548015611040575b6103208210610f38575050505f926c0a4d2e6d640e8dede40d0d2ced609b1b6003935191610f2e83610e68565b600d835282015290565b8110610fca57505f5260cc835260ff825f2054165f14610f8e576001927f48696768207269736b202d2074727573746564207573657200000000000000006002935191610f8483610e68565b6018835282015290565b6001927f48696768207269736b202d20657363726f7720726571756972656400000000006003935191610fc083610e68565b601b835282015290565b61019011905061100f576001927f4d656469756d207269736b202d20726576696577207265636f6d6d656e646564600293519161100683610e68565b80835282015290565b60019272131bddc81c9a5cdac80b48185c1c1c9bdd9959606a1b8493519161103683610e68565b6013835282015290565b5060cd54610f01565b50505f9271115e18d959591cc81d5cd95c881b1a5b5a5d60721b600393519161107183610e68565b6012835282015290565b1190505f80610ee9565b1561108c57565b60405162461bcd60e51b815260206004820152602c60248201527f46756e6374696f6e206d7573742062652063616c6c6564207468726f7567682060448201526b19195b1959d85d1958d85b1b60a21b6064820152608490fd5b156110ed57565b60405162461bcd60e51b815260206004820152602c60248201527f46756e6374696f6e206d7573742062652063616c6c6564207468726f7567682060448201526b6163746976652070726f787960a01b6064820152608490fd5b6033546001600160a01b0316330361115b57565b606460405162461bcd60e51b815260206004820152602060248201527f4f776e61626c653a2063616c6c6572206973206e6f7420746865206f776e65726044820152fd5b603380546001600160a01b039283166001600160a01b0319821681179092559091167f8be0079c531659141344cd1fd0a4f28419497f9722a3daafe3b4186f6b6457e05f80a3565b156111ee57565b60405162461bcd60e51b815260206004820152602b60248201527f496e697469616c697a61626c653a20636f6e7472616374206973206e6f74206960448201526a6e697469616c697a696e6760a81b6064820152608490fd5b803b1561127b575f8051602061137483398151915280546001600160a01b0319166001600160a01b03909216919091179055565b60405162461bcd60e51b815260206004820152602d60248201527f455243313936373a206e657720696d706c656d656e746174696f6e206973206e60448201526c1bdd08184818dbdb9d1c9858dd609a1b6064820152608490fd5b9192901561133857508151156112ea575090565b3b156112f35790565b60405162461bcd60e51b815260206004820152601d60248201527f416464726573733a2063616c6c20746f206e6f6e2d636f6e74726163740000006044820152606490fd5b82519091501561134b5750805190602001fd5b60405162461bcd60e51b81526020600482015290819061136f906024830190610e13565b0390fdfe360894a13ba1a3210667c828492db98dca3e2076cc3735a920a3ca505d382bbca26469706673582212207115468c97f930f4145833ee458f1f569aab72ec6570db3911710fed76d7e1be64736f6c63430008180033","linkReferences":{}},"methodIdentifiers":{"getUserPolicy(address)":"761d9e68","globalRiskThreshold()":"cc117be0","initialize()":"8129fc1c","isTransactionAllowed(address,address,uint256,uint256)":"c3aabe3c","owner()":"8da5cb5b","policyEngine()":"927399a5","policyEngineEnabled()":"dea1c2e3","proxiableUUID()":"52d1902d","renounceOwnership()":"715018a6","setPolicyEngine(address)":"6135b085","setTrustedUser(address,bool)":"ff3f303c","setUserPolicy(address,uint256,uint256)":"329c0dd1","transferOwnership(address)":"f2fde38b","trustedUsers(address)":"178e40e1","upgradeTo(address)":"3659cfe6","upgradeToAndCall(address,bytes)":"4f1ef286","userMaxAmounts(address)":"d5a52bd4","userRiskThresholds(address)":"c1e4f0b0","validateTransaction(address,address,uint256,uint256)":"03cff639"},"id":13}