{"abi":[{"type":"constructor","inputs":[{"name":"_mockZkNAF","type":"address","internalType":"address"}],"stateMutability":"nonpayable"},{"type":"function","name":"batchWhitelist","inputs":[{"name":"accounts","type":"address[]","internalType":"address[]"}],"outputs":[],"stateMutability":"nonpayable"},{"type":"function","name":"getComplianceStatus","inputs":[{"name":"account","type":"address","internalType":"address"}],"outputs":[{"name":"hasSanctionsProof","type":"bool","internalType":"bool"},{"name":"hasRiskProof","type":"bool","internalType":"bool"},{"name":"hasKYCProof","type":"bool","internalType":"bool"},{"name":"maxAllowedTier","type":"uint256","internalType":"uint256"}],"stateMutability":"view"},{"type":"function","name":"mockZkNAF","inputs":[],"outputs":[{"name":"","type":"address","internalType":"contract MockZkNAF"}],"stateMutability":"view"},{"type":"function","name":"owner","inputs":[],"outputs":[{"name":"","type":"address","internalType":"address"}],"stateMutability":"view"},{"type":"function","name":"setStrictMode","inputs":[{"name":"enabled","type":"bool","internalType":"bool"}],"outputs":[],"stateMutability":"nonpayable"},{"type":"function","name":"setWhitelisted","inputs":[{"name":"account","type":"address","internalType":"address"},{"name":"status","type":"bool","internalType":"bool"}],"outputs":[],"stateMutability":"nonpayable"},{"type":"function","name":"setZkVerificationEnabled","inputs":[{"name":"enabled","type":"bool","internalType":"bool"}],"outputs":[],"stateMutability":"nonpayable"},{"type":"function","name":"setupDemoCompliance","inputs":[],"outputs":[],"stateMutability":"nonpayable"},{"type":"function","name":"strictMode","inputs":[],"outputs":[{"name":"","type":"bool","internalType":"bool"}],"stateMutability":"view"},{"type":"function","name":"verifyTransfer","inputs":[{"name":"from","type":"address","internalType":"address"},{"name":"to","type":"address","internalType":"address"},{"name":"amount","type":"uint256","internalType":"uint256"}],"outputs":[{"name":"allowed","type":"bool","internalType":"bool"},{"name":"reason","type":"string","internalType":"string"}],"stateMutability":"view"},{"type":"function","name":"whitelisted","inputs":[{"name":"","type":"address","internalType":"address"}],"outputs":[{"name":"","type":"bool","internalType":"bool"}],"stateMutability":"view"},{"type":"function","name":"zkVerificationEnabled","inputs":[],"outputs":[{"name":"","type":"bool","internalType":"bool"}],"stateMutability":"view"},{"type":"event","name":"AddressWhitelisted","inputs":[{"name":"account","type":"address","indexed":true,"internalType":"address"},{"name":"status","type":"bool","indexed":false,"internalType":"bool"}],"anonymous":false},{"type":"event","name":"StrictModeToggled","inputs":[{"name":"enabled","type":"bool","indexed":false,"internalType":"bool"}],"anonymous":false},{"type":"event","name":"TransferVerified","inputs":[{"name":"from","type":"address","indexed":true,"internalType":"address"},{"name":"to","type":"address","indexed":true,"internalType":"address"},{"name":"amount","type":"uint256","indexed":false,"internalType":"uint256"},{"name":"allowed","type":"bool","indexed":false,"internalType":"bool"}],"anonymous":false},{"type":"event","name":"VerificationToggled","inputs":[{"name":"enabled","type":"bool","indexed":false,"internalType":"bool"}],"anonymous":false}],"bytecode":{"object":"0x60803461009b57601f610ae638819003918201601f19168301916001600160401b0383118484101761009f5780849260209460405283398101031261009b57516001600160a01b0381169081900361009b57600180545f80546001600160a01b0319169093179092556001600160a81b03199091163360ff60a01b191617600160a01b1760ff60a81b19169055604051610a3290816100b48239f35b5f80fd5b634e487b7160e01b5f52604160045260245ffdfe6080604090808252600480361015610015575f80fd5b5f3560e01c9182631f1902e2146106685750816325960bcf146105f157816339ee0661146105115781637418fc5c146104eb5781637c8fd218146103df57816386ef40c0146103685781638da5cb5b146103405781639281aa0b146102bd5781639a4b1d5c14610233578163ad4454e81461020c578163bb046586146100e3575063d936547e146100a4575f80fd5b346100df5760203660031901126100df576020906001600160a01b036100c8610699565b165f526002825260ff815f20541690519015158152f35b5f80fd5b9050346100df575f3660031901126100df575f9160018060a01b0391828454168251637ef0a95960e01b918282528684830152816024816020998a945af180156101d9579086916101e3575b505f908582541660248651809481938783526001898401525af180156101d95790869392916101ad575b506024905f6003968154168651978895869485528401525af19081156101a4575061018057005b813d831161019d575b610193818361076b565b810103126100df57005b503d610189565b513d5f823e3d90fd5b8391933d83116101d2575b6101c2818361076b565b810103126100df5784915f610159565b503d6101b8565b84513d5f823e3d90fd5b813d8311610205575b6101f6818361076b565b810103126100df57845f61012f565b503d6101ec565b82346100df575f3660031901126100df575f5490516001600160a01b039091168152602090f35b82346100df576060806003193601126100df5761024e610699565b6024356001600160a01b038116036100df5761026d90604435906107d8565b92909181519215158352602090826020850152845180938501525f5b8381106102aa5784606081865f838284010152601f80199101168101030190f35b8581018301518582018301528201610289565b82346100df57806003193601126100df576102d6610699565b602435908115158092036100df577faf367c7d20ce5b2ab6da56afd0c9c39b00ba995263c60292a3e1ee3781fd48859160209160018060a01b0390610320826001541633146106af565b1693845f5260028352805f2060ff1981541660ff841617905551908152a2005b82346100df575f3660031901126100df5760015490516001600160a01b039091168152602090f35b82346100df5760203660031901126100df5760207f7eef7b09d0f024bbc8860cab19c02c08ade507a017c27c5c84755d8413f6c348916103a661068a565b60015491906103bf336001600160a01b038516146106af565b15159160ff60a81b8360a81b169060ff60a81b19161760015551908152a1005b9050346100df5760203660031901126100df5760806103fc610699565b5f548451630a200e5d60e41b81526001600160a01b039283169481019490945283916024918391165afa9081156104e1576080925f925f925f916104ab575b5083806104a4575b8061049d575b1561046d576003925b82519415158552151560208501521515908301526060820152f35b8380610496575b1561048157600292610452565b831561048f57600192610452565b5f92610452565b5082610474565b5080610449565b5082610443565b919350506104cf9150833d85116104da575b6104c7818361076b565b81019061079a565b50919290915f61043b565b503d6104bd565b82513d5f823e3d90fd5b82346100df575f3660031901126100df5760209060ff60015460a81c1690519015158152f35b9050346100df5760209160206003193601126100df5781359167ffffffffffffffff908184116100df57366023850112156100df578301359081116100df576024830192602436918360051b0101116100df5760018060a01b039360019461057e816001541633146106af565b5f5b83811061058957005b808261059f61059a8a94888b6106e7565b61070b565b165f5260028452855f208260ff19825416179055826105c261059a83888b6106e7565b167faf367c7d20ce5b2ab6da56afd0c9c39b00ba995263c60292a3e1ee3781fd4885858851858152a201610580565b82346100df5760203660031901126100df5760207fb625e49bd9d35aadbd7a6bb5bbcea73a9bc1b7097d570453068f9270feda203a9161062f61068a565b6001549190610648336001600160a01b038516146106af565b15159160ff60a01b8360a01b169060ff60a01b19161760015551908152a1005b346100df575f3660031901126100df5760209060ff60015460a01c1615158152f35b6004359081151582036100df57565b600435906001600160a01b03821682036100df57565b156106b657565b60405162461bcd60e51b81526020600482015260096024820152682737ba1037bbb732b960b91b6044820152606490fd5b91908110156106f75760051b0190565b634e487b7160e01b5f52603260045260245ffd5b356001600160a01b03811681036100df5790565b6020810190811067ffffffffffffffff82111761073b57604052565b634e487b7160e01b5f52604160045260245ffd5b6060810190811067ffffffffffffffff82111761073b57604052565b90601f8019910116810190811067ffffffffffffffff82111761073b57604052565b519081151582036100df57565b91908260809103126100df576107af8261078d565b916107bc6020820161078d565b916107d560606107ce6040850161078d565b930161078d565b90565b600154929160a084901c60ff16156109ea5760018060a01b0380921691825f52600260205260409460ff865f2054166109d95760a81c60ff16156109c9576080905f5416926024865180958193630a200e5d60e41b835260048301525afa9182156101d9575f80915f946109a2575b501561095357683635c9adc5dea000008211908161094a575b506108f85769021e19e0c9bab24000001090816108ef575b50610890576001915161088a8161071f565b5f815290565b5f917f72657175697265732066756c6c20636f6d706c69616e63652070726f6f6673008151916108bf8361074f565b603f83527f5a4b4e41465f44454d4f3a2056657279206c61726765207472616e7366657220602084015282015290565b9050155f610878565b50505f916d3932b9903934b9b590383937b7b360911b81519161091a8361074f565b602e83527f5a4b4e41465f44454d4f3a204c61726765207472616e73666572207265717569602084015282015290565b9050155f610860565b5050505f91691c9bdbd988199a5c9cdd60b21b8151916109728361074f565b602a83527f5a4b4e41465f44454d4f3a2047656e65726174652073616e6374696f6e732070602084015282015290565b9150506109bf91925060803d6080116104da576104c7818361076b565b939290505f610847565b5050506001915161088a8161071f565b505050506001915161088a8161071f565b50506040516001925061088a8161071f56fea26469706673582212202df83d50cca9ac80f3dfe08e577dcaf210c54993f7528a81228763d3f0343a5a64736f6c63430008180033","linkReferences":{}},"methodIdentifiers":{"batchWhitelist(address[])":"39ee0661","getComplianceStatus(address)":"7c8fd218","mockZkNAF()":"ad4454e8","owner()":"8da5cb5b","setStrictMode(bool)":"86ef40c0","setWhitelisted(address,bool)":"9281aa0b","setZkVerificationEnabled(bool)":"25960bcf","setupDemoCompliance()":"bb046586","strictMode()":"7418fc5c","verifyTransfer(address,address,uint256)":"9a4b1d5c","whitelisted(address)":"d936547e","zkVerificationEnabled()":"1f1902e2"},"id":33}