{"abi":[{"type":"function","name":"echidna_emergency_pause_blocks_all","inputs":[],"outputs":[{"name":"","type":"bool","internalType":"bool"}],"stateMutability":"view"},{"type":"function","name":"echidna_frozen_always_blocked","inputs":[],"outputs":[{"name":"","type":"bool","internalType":"bool"}],"stateMutability":"view"},{"type":"function","name":"emergencyPauseEnabled","inputs":[],"outputs":[{"name":"","type":"bool","internalType":"bool"}],"stateMutability":"view"},{"type":"function","name":"freezeAccount","inputs":[{"name":"account","type":"address","internalType":"address"}],"outputs":[],"stateMutability":"nonpayable"},{"type":"function","name":"frozenAccounts","inputs":[{"name":"","type":"address","internalType":"address"}],"outputs":[{"name":"","type":"bool","internalType":"bool"}],"stateMutability":"view"},{"type":"function","name":"setEmergencyPause","inputs":[{"name":"paused","type":"bool","internalType":"bool"}],"outputs":[],"stateMutability":"nonpayable"}],"bytecode":{"object":"0x6080806040523461001657610185908161001b8239f35b5f80fdfe60806040526004361015610011575f80fd5b5f3560e01c80633463a7c5146101345780633617435714610113578063860838a5146100d2578063b2274ad6146100cd578063d8d1a6571461009f5763f26c159f1461005b575f80fd5b3461009b57602036600319011261009b576004356001600160a01b0381169081900361009b575f52600160205260405f20600160ff198254161790555f80f35b5f80fd5b3461009b57602036600319011261009b5760043580151580910361009b5760ff80195f54169116175f555f80f35b610134565b3461009b57602036600319011261009b576004356001600160a01b0381169081900361009b575f526001602052602060ff60405f2054166040519015158152f35b3461009b575f36600319011261009b57602060ff5f54166040519015158152f35b3461009b575f36600319011261009b57602060405160018152f3fea2646970667358221220b906ac53caa6962faaef930171a8c406d7477d211cd6d8c306475edb90d2e3d164736f6c63430008180033","linkReferences":{}},"methodIdentifiers":{"echidna_emergency_pause_blocks_all()":"b2274ad6","echidna_frozen_always_blocked()":"3463a7c5","emergencyPauseEnabled()":"36174357","freezeAccount(address)":"f26c159f","frozenAccounts(address)":"860838a5","setEmergencyPause(bool)":"d8d1a657"},"id":30}