{"abi":[{"type":"receive","stateMutability":"payable"},{"type":"function","name":"ARBITRATION_COST","inputs":[],"outputs":[{"name":"","type":"uint256","internalType":"uint256"}],"stateMutability":"view"},{"type":"function","name":"arbitrationCost","inputs":[{"name":"","type":"bytes","internalType":"bytes"}],"outputs":[{"name":"cost","type":"uint256","internalType":"uint256"}],"stateMutability":"pure"},{"type":"function","name":"autoApprove","inputs":[{"name":"_disputeID","type":"uint256","internalType":"uint256"}],"outputs":[],"stateMutability":"nonpayable"},{"type":"function","name":"createDispute","inputs":[{"name":"_choices","type":"uint256","internalType":"uint256"},{"name":"","type":"bytes","internalType":"bytes"}],"outputs":[{"name":"disputeID","type":"uint256","internalType":"uint256"}],"stateMutability":"payable"},{"type":"function","name":"currentRuling","inputs":[{"name":"_disputeID","type":"uint256","internalType":"uint256"}],"outputs":[{"name":"ruling","type":"uint256","internalType":"uint256"}],"stateMutability":"view"},{"type":"function","name":"disputeCounter","inputs":[],"outputs":[{"name":"","type":"uint256","internalType":"uint256"}],"stateMutability":"view"},{"type":"function","name":"disputes","inputs":[{"name":"","type":"uint256","internalType":"uint256"}],"outputs":[{"name":"arbitrable","type":"address","internalType":"address"},{"name":"choices","type":"uint256","internalType":"uint256"},{"name":"ruling","type":"uint256","internalType":"uint256"},{"name":"resolved","type":"bool","internalType":"bool"}],"stateMutability":"view"},{"type":"function","name":"giveRuling","inputs":[{"name":"_disputeID","type":"uint256","internalType":"uint256"},{"name":"_ruling","type":"uint256","internalType":"uint256"}],"outputs":[],"stateMutability":"nonpayable"},{"type":"function","name":"reject","inputs":[{"name":"_disputeID","type":"uint256","internalType":"uint256"}],"outputs":[],"stateMutability":"nonpayable"},{"type":"function","name":"withdraw","inputs":[],"outputs":[],"stateMutability":"nonpayable"},{"type":"event","name":"DisputeCreated","inputs":[{"name":"disputeID","type":"uint256","indexed":true,"internalType":"uint256"},{"name":"arbitrable","type":"address","indexed":true,"internalType":"address"},{"name":"choices","type":"uint256","indexed":false,"internalType":"uint256"}],"anonymous":false},{"type":"event","name":"RulingGiven","inputs":[{"name":"disputeID","type":"uint256","indexed":true,"internalType":"uint256"},{"name":"ruling","type":"uint256","indexed":false,"internalType":"uint256"}],"anonymous":false}],"bytecode":{"object":"0x60808060405234610016576106ac908161001b8239f35b5f80fdfe6080604081815260049182361015610021575b505050361561001f575f80fd5b005b5f3560e01c9081630c7c906d14610601575080631c3db16d146105d85780633ccfd60b1461059e578063564a565d146105495780637d36f4d31461052b578063b45d94121461043b578063b8adaa1114610375578063c13517e11461021c578063c97c4d5c146100df5763f7434ea91461009b5780610012565b346100db5760203660031901126100db57813567ffffffffffffffff81116100db576020926100cc91369101610620565b505051662386f26fc100008152f35b5f80fd5b5090346100db57816003193601126100db5780359160243591835f525f602052815f2060038101805460ff81166101e657600183015486116101b2576002830186905560ff19166001179055546001600160a01b031690813b156100db578460445f92838651958694859363188d362b60e11b85528401528860248401525af180156101a857917fb6027422b1830179b713bbc31aa5f690ddbc29e31f87e59b13ec4eb149386e369391602093610199575b5051908152a2005b6101a29061064e565b5f610191565b82513d5f823e3d90fd5b845162461bcd60e51b8152602081860152600e60248201526d496e76616c69642072756c696e6760901b6044820152606490fd5b845162461bcd60e51b8152602081860152601060248201526f105b1c9958591e481c995cdbdb1d995960821b6044820152606490fd5b50806003193601126100db5767ffffffffffffffff9082356024358381116100db5761024b9036908601610620565b5050662386f26fc10000341061033f57600154925f19841461032c5760018401600155825190608082019082821090821117610319576020955083523381526003858201918383528481015f815260608201935f8552875f525f8952865f209260018060a01b039051166bffffffffffffffffffffffff60a01b845416178355516001830155516002820155019051151560ff801983541691161790558151908152827f8a732f3f7a5aa93d1294e46c8f5206a3f51f1984c7a5e5c817906b2443e5f44d853393a351908152f35b604186634e487b7160e01b5f525260245ffd5b601185634e487b7160e01b5f525260245ffd5b815162461bcd60e51b8152602081860152601060248201526f496e73756666696369656e742066656560801b6044820152606490fd5b50346100db5760203660031901126100db57813591825f525f602052815f2060038101805460ff81166101e65760018301546002116101b25760028381015560ff19166001179055546001600160a01b031690813b156100db578360445f92838651958694859363188d362b60e11b8552840152600260248401525af180156101a857916020917fb6027422b1830179b713bbc31aa5f690ddbc29e31f87e59b13ec4eb149386e369361042c575b505160028152a2005b6104359061064e565b5f610423565b5090346100db5760203660031901126100db57803591825f525f602052805f2091600383019283549360ff85166104f5576001948583015486116101b2576002830186905560ff191685179055546001600160a01b031690813b156100db578460445f92838651958694859363188d362b60e11b85528401528860248401525af180156101a857917fb6027422b1830179b713bbc31aa5f690ddbc29e31f87e59b13ec4eb149386e369391602093610199575051908152a2005b835162461bcd60e51b8152602081850152601060248201526f105b1c9958591e481c995cdbdb1d995960821b6044820152606490fd5b50346100db575f3660031901126100db576020906001549051908152f35b50346100db5760203660031901126100db57608091355f525f602052805f209060018060a01b038254169160018101549160ff6003600284015493015416928151948552602085015283015215156060820152f35b50346100db575f3660031901126100db575f808080478181156105cf575b3390f1156105c657005b513d5f823e3d90fd5b506108fc6105bc565b50346100db5760203660031901126100db57602091355f525f82526002815f2001549051908152f35b346100db575f3660031901126100db5780662386f26fc1000060209252f35b9181601f840112156100db5782359167ffffffffffffffff83116100db57602083818601950101116100db57565b67ffffffffffffffff811161066257604052565b634e487b7160e01b5f52604160045260245ffdfea2646970667358221220755c3987d8f9f7bd86ce1432ca20bace226d89bda61e606bf0808be5a878e16264736f6c63430008180033","linkReferences":{}},"methodIdentifiers":{"ARBITRATION_COST()":"0c7c906d","arbitrationCost(bytes)":"f7434ea9","autoApprove(uint256)":"b45d9412","createDispute(uint256,bytes)":"c13517e1","currentRuling(uint256)":"1c3db16d","disputeCounter()":"7d36f4d3","disputes(uint256)":"564a565d","giveRuling(uint256,uint256)":"c97c4d5c","reject(uint256)":"b8adaa11","withdraw()":"3ccfd60b"},"id":26}