{
  "_format": "hh-sol-artifact-1",
  "contractName": "AMTTP",
  "sourceName": "contracts/withnft.sol",
  "abi": [
    {
      "inputs": [],
      "stateMutability": "nonpayable",
      "type": "constructor"
    },
    {
      "anonymous": false,
      "inputs": [
        {
          "indexed": false,
          "internalType": "address",
          "name": "previousAdmin",
          "type": "address"
        },
        {
          "indexed": false,
          "internalType": "address",
          "name": "newAdmin",
          "type": "address"
        }
      ],
      "name": "AdminChanged",
      "type": "event"
    },
    {
      "anonymous": false,
      "inputs": [
        {
          "indexed": true,
          "internalType": "address",
          "name": "owner",
          "type": "address"
        },
        {
          "indexed": true,
          "internalType": "address",
          "name": "approved",
          "type": "address"
        },
        {
          "indexed": true,
          "internalType": "uint256",
          "name": "tokenId",
          "type": "uint256"
        }
      ],
      "name": "Approval",
      "type": "event"
    },
    {
      "anonymous": false,
      "inputs": [
        {
          "indexed": true,
          "internalType": "address",
          "name": "owner",
          "type": "address"
        },
        {
          "indexed": true,
          "internalType": "address",
          "name": "operator",
          "type": "address"
        },
        {
          "indexed": false,
          "internalType": "bool",
          "name": "approved",
          "type": "bool"
        }
      ],
      "name": "ApprovalForAll",
      "type": "event"
    },
    {
      "anonymous": false,
      "inputs": [
        {
          "indexed": true,
          "internalType": "bytes32",
          "name": "swapId",
          "type": "bytes32"
        },
        {
          "indexed": true,
          "internalType": "address",
          "name": "approver",
          "type": "address"
        }
      ],
      "name": "Approved",
      "type": "event"
    },
    {
      "anonymous": false,
      "inputs": [
        {
          "indexed": false,
          "internalType": "address",
          "name": "approver",
          "type": "address"
        }
      ],
      "name": "ApproverAdded",
      "type": "event"
    },
    {
      "anonymous": false,
      "inputs": [
        {
          "indexed": false,
          "internalType": "address",
          "name": "approver",
          "type": "address"
        }
      ],
      "name": "ApproverRemoved",
      "type": "event"
    },
    {
      "anonymous": false,
      "inputs": [
        {
          "indexed": true,
          "internalType": "address",
          "name": "beacon",
          "type": "address"
        }
      ],
      "name": "BeaconUpgraded",
      "type": "event"
    },
    {
      "anonymous": false,
      "inputs": [
        {
          "indexed": false,
          "internalType": "uint8",
          "name": "version",
          "type": "uint8"
        }
      ],
      "name": "Initialized",
      "type": "event"
    },
    {
      "anonymous": false,
      "inputs": [
        {
          "indexed": true,
          "internalType": "address",
          "name": "previousOwner",
          "type": "address"
        },
        {
          "indexed": true,
          "internalType": "address",
          "name": "newOwner",
          "type": "address"
        }
      ],
      "name": "OwnershipTransferred",
      "type": "event"
    },
    {
      "anonymous": false,
      "inputs": [
        {
          "indexed": true,
          "internalType": "bytes32",
          "name": "swapId",
          "type": "bytes32"
        },
        {
          "indexed": true,
          "internalType": "address",
          "name": "seller",
          "type": "address"
        }
      ],
      "name": "SwapCompleted",
      "type": "event"
    },
    {
      "anonymous": false,
      "inputs": [
        {
          "indexed": true,
          "internalType": "bytes32",
          "name": "swapId",
          "type": "bytes32"
        }
      ],
      "name": "SwapEscalated",
      "type": "event"
    },
    {
      "anonymous": false,
      "inputs": [
        {
          "indexed": true,
          "internalType": "bytes32",
          "name": "swapId",
          "type": "bytes32"
        },
        {
          "indexed": true,
          "internalType": "address",
          "name": "buyer",
          "type": "address"
        },
        {
          "indexed": true,
          "internalType": "address",
          "name": "seller",
          "type": "address"
        },
        {
          "indexed": false,
          "internalType": "uint256",
          "name": "amount",
          "type": "uint256"
        },
        {
          "indexed": false,
          "internalType": "uint8",
          "name": "riskLevel",
          "type": "uint8"
        },
        {
          "indexed": false,
          "internalType": "bytes32",
          "name": "kycHash",
          "type": "bytes32"
        },
        {
          "indexed": false,
          "internalType": "enum AMTTP.AssetType",
          "name": "assetType",
          "type": "uint8"
        }
      ],
      "name": "SwapInitiated",
      "type": "event"
    },
    {
      "anonymous": false,
      "inputs": [
        {
          "indexed": true,
          "internalType": "bytes32",
          "name": "swapId",
          "type": "bytes32"
        },
        {
          "indexed": true,
          "internalType": "address",
          "name": "buyer",
          "type": "address"
        }
      ],
      "name": "SwapRefunded",
      "type": "event"
    },
    {
      "anonymous": false,
      "inputs": [
        {
          "indexed": true,
          "internalType": "address",
          "name": "from",
          "type": "address"
        },
        {
          "indexed": true,
          "internalType": "address",
          "name": "to",
          "type": "address"
        },
        {
          "indexed": true,
          "internalType": "uint256",
          "name": "tokenId",
          "type": "uint256"
        }
      ],
      "name": "Transfer",
      "type": "event"
    },
    {
      "anonymous": false,
      "inputs": [
        {
          "indexed": true,
          "internalType": "address",
          "name": "implementation",
          "type": "address"
        }
      ],
      "name": "Upgraded",
      "type": "event"
    },
    {
      "inputs": [
        {
          "internalType": "address",
          "name": "a",
          "type": "address"
        }
      ],
      "name": "addApprover",
      "outputs": [],
      "stateMutability": "nonpayable",
      "type": "function"
    },
    {
      "inputs": [
        {
          "internalType": "bytes32",
          "name": "",
          "type": "bytes32"
        }
      ],
      "name": "approvalCounts",
      "outputs": [
        {
          "internalType": "uint256",
          "name": "",
          "type": "uint256"
        }
      ],
      "stateMutability": "view",
      "type": "function"
    },
    {
      "inputs": [
        {
          "internalType": "bytes32",
          "name": "",
          "type": "bytes32"
        },
        {
          "internalType": "address",
          "name": "",
          "type": "address"
        }
      ],
      "name": "approvals",
      "outputs": [
        {
          "internalType": "bool",
          "name": "",
          "type": "bool"
        }
      ],
      "stateMutability": "view",
      "type": "function"
    },
    {
      "inputs": [
        {
          "internalType": "address",
          "name": "to",
          "type": "address"
        },
        {
          "internalType": "uint256",
          "name": "tokenId",
          "type": "uint256"
        }
      ],
      "name": "approve",
      "outputs": [],
      "stateMutability": "nonpayable",
      "type": "function"
    },
    {
      "inputs": [
        {
          "internalType": "bytes32",
          "name": "swapId",
          "type": "bytes32"
        }
      ],
      "name": "approveSwap",
      "outputs": [],
      "stateMutability": "nonpayable",
      "type": "function"
    },
    {
      "inputs": [
        {
          "internalType": "uint256",
          "name": "",
          "type": "uint256"
        }
      ],
      "name": "approvers",
      "outputs": [
        {
          "internalType": "address",
          "name": "",
          "type": "address"
        }
      ],
      "stateMutability": "view",
      "type": "function"
    },
    {
      "inputs": [
        {
          "internalType": "address",
          "name": "owner",
          "type": "address"
        }
      ],
      "name": "balanceOf",
      "outputs": [
        {
          "internalType": "uint256",
          "name": "",
          "type": "uint256"
        }
      ],
      "stateMutability": "view",
      "type": "function"
    },
    {
      "inputs": [
        {
          "internalType": "bytes32",
          "name": "swapId",
          "type": "bytes32"
        },
        {
          "internalType": "bytes32",
          "name": "preimage",
          "type": "bytes32"
        }
      ],
      "name": "completeSwap",
      "outputs": [],
      "stateMutability": "nonpayable",
      "type": "function"
    },
    {
      "inputs": [
        {
          "internalType": "bytes32",
          "name": "swapId",
          "type": "bytes32"
        }
      ],
      "name": "escalateSwap",
      "outputs": [],
      "stateMutability": "nonpayable",
      "type": "function"
    },
    {
      "inputs": [
        {
          "internalType": "uint256",
          "name": "tokenId",
          "type": "uint256"
        }
      ],
      "name": "getApproved",
      "outputs": [
        {
          "internalType": "address",
          "name": "",
          "type": "address"
        }
      ],
      "stateMutability": "view",
      "type": "function"
    },
    {
      "inputs": [],
      "name": "initialize",
      "outputs": [],
      "stateMutability": "nonpayable",
      "type": "function"
    },
    {
      "inputs": [
        {
          "internalType": "address",
          "name": "seller",
          "type": "address"
        },
        {
          "internalType": "bytes32",
          "name": "hashlock",
          "type": "bytes32"
        },
        {
          "internalType": "uint256",
          "name": "timelock",
          "type": "uint256"
        },
        {
          "internalType": "uint8",
          "name": "risk",
          "type": "uint8"
        },
        {
          "internalType": "bytes32",
          "name": "kycHash",
          "type": "bytes32"
        },
        {
          "internalType": "bytes",
          "name": "oracleSig",
          "type": "bytes"
        }
      ],
      "name": "initiateSwap",
      "outputs": [],
      "stateMutability": "payable",
      "type": "function"
    },
    {
      "inputs": [
        {
          "internalType": "address",
          "name": "seller",
          "type": "address"
        },
        {
          "internalType": "address",
          "name": "token",
          "type": "address"
        },
        {
          "internalType": "uint256",
          "name": "amount",
          "type": "uint256"
        },
        {
          "internalType": "bytes32",
          "name": "hashlock",
          "type": "bytes32"
        },
        {
          "internalType": "uint256",
          "name": "timelock",
          "type": "uint256"
        },
        {
          "internalType": "uint8",
          "name": "risk",
          "type": "uint8"
        },
        {
          "internalType": "bytes32",
          "name": "kycHash",
          "type": "bytes32"
        },
        {
          "internalType": "bytes",
          "name": "oracleSig",
          "type": "bytes"
        }
      ],
      "name": "initiateSwapERC20",
      "outputs": [],
      "stateMutability": "nonpayable",
      "type": "function"
    },
    {
      "inputs": [
        {
          "internalType": "address",
          "name": "seller",
          "type": "address"
        },
        {
          "internalType": "address",
          "name": "token",
          "type": "address"
        },
        {
          "internalType": "uint256",
          "name": "tokenId",
          "type": "uint256"
        },
        {
          "internalType": "bytes32",
          "name": "hashlock",
          "type": "bytes32"
        },
        {
          "internalType": "uint256",
          "name": "timelock",
          "type": "uint256"
        },
        {
          "internalType": "uint8",
          "name": "risk",
          "type": "uint8"
        },
        {
          "internalType": "bytes32",
          "name": "kycHash",
          "type": "bytes32"
        },
        {
          "internalType": "bytes",
          "name": "oracleSig",
          "type": "bytes"
        }
      ],
      "name": "initiateSwapERC721",
      "outputs": [],
      "stateMutability": "nonpayable",
      "type": "function"
    },
    {
      "inputs": [
        {
          "internalType": "address",
          "name": "owner",
          "type": "address"
        },
        {
          "internalType": "address",
          "name": "operator",
          "type": "address"
        }
      ],
      "name": "isApprovedForAll",
      "outputs": [
        {
          "internalType": "bool",
          "name": "",
          "type": "bool"
        }
      ],
      "stateMutability": "view",
      "type": "function"
    },
    {
      "inputs": [
        {
          "internalType": "address",
          "name": "a",
          "type": "address"
        }
      ],
      "name": "isApprover",
      "outputs": [
        {
          "internalType": "bool",
          "name": "",
          "type": "bool"
        }
      ],
      "stateMutability": "view",
      "type": "function"
    },
    {
      "inputs": [],
      "name": "name",
      "outputs": [
        {
          "internalType": "string",
          "name": "",
          "type": "string"
        }
      ],
      "stateMutability": "view",
      "type": "function"
    },
    {
      "inputs": [],
      "name": "oracle",
      "outputs": [
        {
          "internalType": "address",
          "name": "",
          "type": "address"
        }
      ],
      "stateMutability": "view",
      "type": "function"
    },
    {
      "inputs": [],
      "name": "owner",
      "outputs": [
        {
          "internalType": "address",
          "name": "",
          "type": "address"
        }
      ],
      "stateMutability": "view",
      "type": "function"
    },
    {
      "inputs": [
        {
          "internalType": "uint256",
          "name": "tokenId",
          "type": "uint256"
        }
      ],
      "name": "ownerOf",
      "outputs": [
        {
          "internalType": "address",
          "name": "",
          "type": "address"
        }
      ],
      "stateMutability": "view",
      "type": "function"
    },
    {
      "inputs": [],
      "name": "proxiableUUID",
      "outputs": [
        {
          "internalType": "bytes32",
          "name": "",
          "type": "bytes32"
        }
      ],
      "stateMutability": "view",
      "type": "function"
    },
    {
      "inputs": [
        {
          "internalType": "bytes32",
          "name": "swapId",
          "type": "bytes32"
        }
      ],
      "name": "refundSwap",
      "outputs": [],
      "stateMutability": "nonpayable",
      "type": "function"
    },
    {
      "inputs": [
        {
          "internalType": "address",
          "name": "a",
          "type": "address"
        }
      ],
      "name": "removeApprover",
      "outputs": [],
      "stateMutability": "nonpayable",
      "type": "function"
    },
    {
      "inputs": [],
      "name": "renounceOwnership",
      "outputs": [],
      "stateMutability": "nonpayable",
      "type": "function"
    },
    {
      "inputs": [
        {
          "internalType": "address",
          "name": "token",
          "type": "address"
        },
        {
          "internalType": "address",
          "name": "to",
          "type": "address"
        },
        {
          "internalType": "uint256",
          "name": "tokenId",
          "type": "uint256"
        }
      ],
      "name": "rescueERC721",
      "outputs": [],
      "stateMutability": "nonpayable",
      "type": "function"
    },
    {
      "inputs": [
        {
          "internalType": "address",
          "name": "from",
          "type": "address"
        },
        {
          "internalType": "address",
          "name": "to",
          "type": "address"
        },
        {
          "internalType": "uint256",
          "name": "tokenId",
          "type": "uint256"
        }
      ],
      "name": "safeTransferFrom",
      "outputs": [],
      "stateMutability": "nonpayable",
      "type": "function"
    },
    {
      "inputs": [
        {
          "internalType": "address",
          "name": "from",
          "type": "address"
        },
        {
          "internalType": "address",
          "name": "to",
          "type": "address"
        },
        {
          "internalType": "uint256",
          "name": "tokenId",
          "type": "uint256"
        },
        {
          "internalType": "bytes",
          "name": "data",
          "type": "bytes"
        }
      ],
      "name": "safeTransferFrom",
      "outputs": [],
      "stateMutability": "nonpayable",
      "type": "function"
    },
    {
      "inputs": [
        {
          "internalType": "address",
          "name": "operator",
          "type": "address"
        },
        {
          "internalType": "bool",
          "name": "approved",
          "type": "bool"
        }
      ],
      "name": "setApprovalForAll",
      "outputs": [],
      "stateMutability": "nonpayable",
      "type": "function"
    },
    {
      "inputs": [
        {
          "internalType": "address",
          "name": "o",
          "type": "address"
        }
      ],
      "name": "setOracle",
      "outputs": [],
      "stateMutability": "nonpayable",
      "type": "function"
    },
    {
      "inputs": [
        {
          "internalType": "uint256",
          "name": "t",
          "type": "uint256"
        }
      ],
      "name": "setThreshold",
      "outputs": [],
      "stateMutability": "nonpayable",
      "type": "function"
    },
    {
      "inputs": [
        {
          "internalType": "bytes4",
          "name": "interfaceId",
          "type": "bytes4"
        }
      ],
      "name": "supportsInterface",
      "outputs": [
        {
          "internalType": "bool",
          "name": "",
          "type": "bool"
        }
      ],
      "stateMutability": "view",
      "type": "function"
    },
    {
      "inputs": [
        {
          "internalType": "bytes32",
          "name": "",
          "type": "bytes32"
        }
      ],
      "name": "swaps",
      "outputs": [
        {
          "internalType": "address",
          "name": "buyer",
          "type": "address"
        },
        {
          "internalType": "address",
          "name": "seller",
          "type": "address"
        },
        {
          "internalType": "uint256",
          "name": "amount",
          "type": "uint256"
        },
        {
          "internalType": "address",
          "name": "token",
          "type": "address"
        },
        {
          "internalType": "uint256",
          "name": "tokenId",
          "type": "uint256"
        },
        {
          "internalType": "bytes32",
          "name": "hashlock",
          "type": "bytes32"
        },
        {
          "internalType": "uint256",
          "name": "timelock",
          "type": "uint256"
        },
        {
          "internalType": "uint8",
          "name": "riskLevel",
          "type": "uint8"
        },
        {
          "internalType": "bytes32",
          "name": "kycHash",
          "type": "bytes32"
        },
        {
          "internalType": "bool",
          "name": "completed",
          "type": "bool"
        },
        {
          "internalType": "bool",
          "name": "refunded",
          "type": "bool"
        },
        {
          "internalType": "bool",
          "name": "frozen",
          "type": "bool"
        },
        {
          "internalType": "enum AMTTP.AssetType",
          "name": "assetType",
          "type": "uint8"
        }
      ],
      "stateMutability": "view",
      "type": "function"
    },
    {
      "inputs": [],
      "name": "symbol",
      "outputs": [
        {
          "internalType": "string",
          "name": "",
          "type": "string"
        }
      ],
      "stateMutability": "view",
      "type": "function"
    },
    {
      "inputs": [],
      "name": "threshold",
      "outputs": [
        {
          "internalType": "uint256",
          "name": "",
          "type": "uint256"
        }
      ],
      "stateMutability": "view",
      "type": "function"
    },
    {
      "inputs": [
        {
          "internalType": "uint256",
          "name": "tokenId",
          "type": "uint256"
        }
      ],
      "name": "tokenURI",
      "outputs": [
        {
          "internalType": "string",
          "name": "",
          "type": "string"
        }
      ],
      "stateMutability": "view",
      "type": "function"
    },
    {
      "inputs": [
        {
          "internalType": "address",
          "name": "from",
          "type": "address"
        },
        {
          "internalType": "address",
          "name": "to",
          "type": "address"
        },
        {
          "internalType": "uint256",
          "name": "tokenId",
          "type": "uint256"
        }
      ],
      "name": "transferFrom",
      "outputs": [],
      "stateMutability": "nonpayable",
      "type": "function"
    },
    {
      "inputs": [
        {
          "internalType": "address",
          "name": "newOwner",
          "type": "address"
        }
      ],
      "name": "transferOwnership",
      "outputs": [],
      "stateMutability": "nonpayable",
      "type": "function"
    },
    {
      "inputs": [
        {
          "internalType": "address",
          "name": "newImplementation",
          "type": "address"
        }
      ],
      "name": "upgradeTo",
      "outputs": [],
      "stateMutability": "nonpayable",
      "type": "function"
    },
    {
      "inputs": [
        {
          "internalType": "address",
          "name": "newImplementation",
          "type": "address"
        },
        {
          "internalType": "bytes",
          "name": "data",
          "type": "bytes"
        }
      ],
      "name": "upgradeToAndCall",
      "outputs": [],
      "stateMutability": "payable",
      "type": "function"
    }
  ],
  "bytecode": "0x60a08060405234620000e157306080526000549060ff8260081c166200008f575060ff8082160362000053575b604051613e309081620000e782396080518181816121ff015281816122ee01526129780152f35b60ff90811916176000557f7f26b83ff96e1f2b6a682f133852f6798a09c465da95921460cefb3847402498602060405160ff8152a1386200002c565b62461bcd60e51b815260206004820152602760248201527f496e697469616c697a61626c653a20636f6e747261637420697320696e697469604482015266616c697a696e6760c81b6064820152608490fd5b600080fdfe608080604052600436101561001357600080fd5b600090813560e01c90816301ffc9a714612ec85750806306fdde0314612e1b578063081812fc14612dfc578063095ea7b314612c8757806323b872dd14612c5d57806323f3693914612b8157806324f6c77614612b375780633659cfe614612953578063382933711461258c57806342842e0e1461256457806342cde4e8146125455780634f1ef286146122b057806352d1902d146121ec5780636352211e146121bb5780636cf4c88f146120a25780636d218e481461207457806370a0823114611fde578063715018a614611f8057806378dc335614611bea5780637adbf97314611b9d5780637dc0d1d014611b735780637df325e114611af05780638129fc1c146116bf5780638abed32b146116945780638da5cb5b1461166b57806395d89b411461159b578063960bfe041461153d578063a22cb46514611462578063b140429414610fa3578063b646c19414610ee0578063b88d4fde14610e91578063c87b56dd14610c7e578063d3650fb814610c39578063d5e9a80b14610799578063e35468cb1461063d578063e985e9c5146105e9578063eb84e7f2146104fd578063f2fde38b1461046c5763fe2510ee146101ce57600080fd5b346104695760208060031936011261046557600435906101ec613848565b81835261015f8152604083209060098201805461020c60ff82161561349b565b61021c60ff8260081c16156134db565b61022c60ff8260101c161561351a565b600684015442106104325761ff001916610100179081905560181c60ff16600381101561041e57806102ef57508380808060018060a01b038654166002870154905af1610277613576565b50156102b757505b546001600160a01b0316907fc672feaa452bd52b0000f3d29c943cd9331556ab05529d49e984311220c16c198380a3600161012d5580f35b6064906040519062461bcd60e51b825260048201526011602482015270115512081c99599d5b990819985a5b1959607a1b6044820152fd5b60018103610383575060038201548254600284015460405163a9059cbb60e01b81526001600160a01b0392831660048201526024810191909152918391839160449183918a91165af180156103785761034a575b505061027f565b8161036992903d10610371575b6103618183613148565b81019061355e565b503880610343565b503d610357565b6040513d87823e3d90fd5b600291500361027f5760038101548154600483015485926001600160a01b03908116921690823b1561041a576040516323b872dd60e01b81523060048201526001600160a01b0392909216602483015260448201529082908290606490829084905af1801561040f576103f757505061027f565b6104009061307c565b61040b578238610343565b8280fd5b6040513d84823e3d90fd5b8380fd5b634e487b7160e01b85526021600452602485fd5b60405162461bcd60e51b815260048101849052600b60248201526a139bdd08195e1c1a5c995960aa1b6044820152606490fd5b5080fd5b80fd5b503461046957602036600319011261046957610486612f7d565b61048e61389f565b6001600160a01b038116156104a9576104a6906138f7565b80f35b60405162461bcd60e51b815260206004820152602660248201527f4f776e61626c653a206e6577206f776e657220697320746865207a65726f206160448201526564647265737360d01b6064820152608490fd5b503461046957602036600319011261046957604090600435815261015f6020522060018060a01b0360ff818354169180600185015416936002810154916003820154166004820154600583015460068401549186600786015416936009600887015496015496888860181c169a6040519a8b5260208b015260408a01526060890152608088015260a087015260c086015260e08501526101008401528181161515610120840152818160081c16151561014084015260101c16151561016082015260038210156105d3576101a091610180820152f35b634e487b7160e01b600052602160045260246000fd5b503461046957604036600319011261046957610603612f7d565b604061060d612f93565b9260018060a01b038093168152606a602052209116600052602052602060ff604060002054166040519015158152f35b503461046957602080600319360112610465576004359061065d3361344f565b15610766578183526101608082526040842033600052825260ff6040600020541661072e57906101619183855261015f82526106ac600960408720015460ff811615908161071f575b506132e6565b8385528152604084203360005281526040600020600160ff1982541617905582845252604082208054906001820180921161070b575533907f90b535106f433f3869de4725076776361dc9946b091db11206fa1b526a85ecd48380a380f35b634e487b7160e01b84526011600452602484fd5b60ff915060081c1615386106a6565b60405162461bcd60e51b815260048101839052601060248201526f105b1c9958591e48185c1c1c9bdd995960821b6044820152606490fd5b6064906040519062461bcd60e51b82526004820152600c60248201526b2737ba1030b8383937bb32b960a11b6044820152fd5b5060c0366003190112610469576107ae612f7d565b602435604480359160649081359360ff8516809503610c34576084359260a4356001600160401b038111610c30576107ea903690600401612fde565b6107f5989198613848565b3415610bff576001600160a01b038216988915610bcb5742851115610b955760038911610b635760048910156105d35761083761089b916108a3933691613184565b60405160208101903382528c60408201523460608201528b60808201528960a082015260a08152610867816130f7565b5190207f19457468657265756d205369676e6564204d6573736167653a0a333200000000600052601c52603c600020613b7a565b919091613bae565b610164546001600160a01b03918216911681149081610b59575b5015610b1c5760405160208101916001600160601b031990813360601b16845260601b166034820152846048820152836068820152606881526108ff81613112565b519020600081815261015f60205260409020549095906001600160a01b0316610aed57505060405191610931836130a5565b338352866020840152346040840152600060608401526000608084015260a083015260c08201528360e08201528161010082015260006101208201526000610140820152600061016082015260006101808201528260005261015f6020526101806009604060002060018060a01b038451166001600160601b0360a01b90818354161782556001820160018060a01b036020870151168282541617905560408501516002830155600382019060018060a01b03606087015116908254161790556080840151600482015560a0840151600582015560c084015160068201556007810160ff60e08601511660ff1982541617905561010084015160088201550191610a4e6101208201511515849060ff801983541691151516179055565b610140810151835461ff00191690151560081b61ff0016178355610160810151835462ff0000191690151560101b62ff000016178355015160038110156105d35763ff00000082549160181b169063ff00000019161790556040519234845260208401526040830152600060608301527fbf65c77c39f1726f5a1c1116c14795eca552690a845fbe9f58574d77a9f8886860803393a4600161012d5580f35b6a537761702065786973747360a81b6040519162461bcd60e51b835260206004840152600b6024840152820152fd5b5060405162461bcd60e51b8152602060048201526018602482015277496e76616c6964206f7261636c65207369676e617475726560401b81870152fd5b90501515386108bd565b60405162461bcd60e51b815260206004820152600c60248201526b496e76616c6964207269736b60a01b818a01528490fd5b60405162461bcd60e51b815260206004820152601060248201526f496e76616c69642074696d656c6f636b60801b818a01528490fd5b60405162461bcd60e51b815260206004820152600e60248201526d24b73b30b634b21039b2b63632b960911b818a01528490fd5b60405162461bcd60e51b815260206004820152600b60248201526a139bc8115512081cd95b9d60aa1b818901528390fd5b8880fd5b600080fd5b5034610469576020366003190112610469576004359061016254821015610469576020610c65836131d9565b905460405160039290921b1c6001600160a01b03168152f35b50346104695760209081600319360112610469578160043591610ca08361364a565b60405192610cad846130c1565b8184528115610e77578190807a184f03e93ff9f4daa797ed6e38ed64bf6a1f0100000000000000008181811015610e69575b5050846d04ee2d6d415b85acef810000000080841015610e5b575b5050662386f26fc1000080831015610e4c575b506305f5e10080831015610e3d575b5061271080831015610e2e575b506064821015610e1e575b600a80921015610e14575b6001908160216001860195610d6c610d5688613169565b97610d64604051998a613148565b808952613169565b878a019890601f1901368a3750860101905b610dde575b5050505092610dc49291610db8946040519583610da98895518092888089019101612f35565b84019151809386840190612f35565b01038084520182613148565b905b610dda604051928284938452830190612f58565b0390f35b600019019083906f181899199a1a9b1b9c1cb0b131b232b360811b8282061a835304918215610e0f57919082610d7e565b610d83565b9160010191610d3f565b9190606460029104910191610d34565b60049193920491019138610d29565b60089193920491019138610d1c565b60109193920491019138610d0d565b930192909104908438610cfa565b604094500491503880610cdf565b50505050604051610e87816130c1565b6000815290610dc6565b503461046957608036600319011261046957610eab612f7d565b610eb3612f93565b606435916001600160401b03831161041a57610ed66104a69336906004016131bb565b9160443591613602565b503461046957602036600319011261046957610efa612f7d565b610f0261389f565b6001600160a01b03811690610f188215156135a6565b61016280549068010000000000000000821015610f8f57602092610f6783610f859360017f835bddf1ceee4956e4329af9edf018523c1191238187a597453f6020bcadb04298960190556131d9565b90919060018060a01b038084549260031b9316831b921b1916179055565b604051908152a180f35b634e487b7160e01b85526041600452602485fd5b503461046957610fb23661300b565b909197959392610fc3979597613848565b841561142f576001600160a01b038716156113f957428411156113c15760ff16916003831161138d5760048310156105d35761100761089b9161103f933691613184565b604051602081019033825260018060a01b038a1660408201528760608201528560808201528b60a082015260a08152610867816130f7565b610164546001600160a01b03918216911681149081611383575b50156113435760405160208101906001600160601b0319803360601b1683528760601b1660348201528760488201528360688201526068815261109b81613112565b519020600081815261015f60205260409020549092906001600160a01b031661131057604051966110cb886130a5565b33885260018060a01b038716602089015284604089015260018060a01b03861660608901526000608089015260a088015260c08701528060e08701528661010087015260006101208701526000610140870152600061016087015260016101808701528160005261015f6020526101806009604060002060018060a01b038951166001600160601b0360a01b90818354161782556001820160018060a01b0360208c0151168282541617905560408a01516002830155600382019060018060a01b0360608c015116908254161790556080890151600482015560a0890151600582015560c089015160068201556007810160ff60e08b01511660ff19825416179055610100890151600882015501966111f76101208201511515899060ff801983541691151516179055565b610140810151885461ff00191690151560081b61ff0016178855610160810151885462ff0000191690151560101b62ff00001617885501519460038610156105d3578897876112cf9763ff00000060209a549160181b169063ff0000001916179055604051928584528884015260408301526001606083015260018060a01b0316917fbf65c77c39f1726f5a1c1116c14795eca552690a845fbe9f58574d77a9f8886860803393a46040516323b872dd60e01b8152336004820152306024820152604481019190915293849283919082906064820190565b03926001600160a01b03165af1801561040f576112f1575b50600161012d5580f35b6113099060203d602011610371576103618183613148565b50386112e7565b60405162461bcd60e51b815260206004820152600b60248201526a537761702065786973747360a81b6044820152606490fd5b60405162461bcd60e51b8152602060048201526018602482015277496e76616c6964206f7261636c65207369676e617475726560401b6044820152606490fd5b9050151538611059565b60405162461bcd60e51b815260206004820152600c60248201526b496e76616c6964207269736b60a01b6044820152606490fd5b60405162461bcd60e51b815260206004820152601060248201526f496e76616c69642074696d656c6f636b60801b6044820152606490fd5b60405162461bcd60e51b815260206004820152600e60248201526d24b73b30b634b21039b2b63632b960911b6044820152606490fd5b60405162461bcd60e51b815260206004820152600b60248201526a16995c9bc8185b5bdd5b9d60aa1b6044820152606490fd5b50346104695760403660031901126104695761147c612f7d565b602435908115159081830361041a576001600160a01b0316913383146114f8576114c990338552606a602052604085208460005260205260406000209060ff801983541691151516179055565b6040519081527f17307eab39ab6107e8899845ad3d59bd9653f200f220920489ca2b5937696c3160203392a380f35b60405162461bcd60e51b815260206004820152601960248201527f4552433732313a20617070726f766520746f2063616c6c6572000000000000006044820152606490fd5b50346104695760203660031901126104695760043561155a61389f565b61016254811161156b576101635580f35b60405162461bcd60e51b81526020600482015260086024820152670a8dede40d0d2ced60c31b6044820152606490fd5b5034610469578060031936011261046957604051908082606654916115bf83613226565b92838352602094600191866001821691826000146116495750506001146115ef575b5050610dc692500383613148565b90859250606682527f46501879b8ca8525e8c2fd519e2fbfcfa2ebea26501294aa02cbfcfb12e943545b858310611631575050610dc6935082010138806115e1565b80548389018501528794508693909201918101611619565b9250935050610dc694915060ff191682840152151560051b82010138806115e1565b50346104695780600319360112610469576097546040516001600160a01b039091168152602090f35b5034610469576020366003190112610469576040602091600435815261016183522054604051908152f35b5034610469578060031936011261046957805460ff808260081c1615808091611ae4575b8015611ace575b15611a7257600192818460ff198316178655611a61575b5061170a6135e1565b6117126135e1565b9061172b84875460081c1661172681613940565b613940565b8051916001600160401b0392838111611a4d578061174a606554613226565b93601f948581116119df575b50602090858311600114611960578a92611955575b5050600019600383901b1c191690871b176065555b805192831161194157908291611797606654613226565b8281116118d1575b506020918311600114611852578792611847575b5050600019600383901b1c191690841b176066555b6117db82855460081c1661172681613940565b6117e4336138f7565b6118018454928360081c166117f881613940565b61172681613940565b8261012d5561180e578280f35b61ff00191682556040519081527f7f26b83ff96e1f2b6a682f133852f6798a09c465da95921460cefb384740249890602090a138808280f35b0151905038806117b3565b606688528693507f46501879b8ca8525e8c2fd519e2fbfcfa2ebea26501294aa02cbfcfb12e943549190601f198416895b8181106118b9575084116118a0575b505050811b016066556117c8565b015160001960f88460031b161c19169055388080611892565b82840151855589969094019360209384019301611883565b90919250606688527f46501879b8ca8525e8c2fd519e2fbfcfa2ebea26501294aa02cbfcfb12e943548380860160051c82019260208710611938575b9186958a929594930160051c01915b82811061192a57505061179f565b8a815586955089910161191c565b9250819261190d565b634e487b7160e01b87526041600452602487fd5b01519050388061176b565b60658b528993507f8ff97419363ffd7000167f130ef7168fbea05faf9251824ca5043f113cc6a7c79190601f1984168c5b8181106119c7575084116119ae575b505050811b01606555611780565b015160001960f88460031b161c191690553880806119a0565b8284015185558c969094019360209384019301611991565b90915060658a527f8ff97419363ffd7000167f130ef7168fbea05faf9251824ca5043f113cc6a7c78580850160051c82019260208610611a44575b918b91869594930160051c01915b828110611a36575050611756565b8c81558594508b9101611a28565b92508192611a1a565b634e487b7160e01b88526041600452602488fd5b61ffff191661010117845538611701565b60405162461bcd60e51b815260206004820152602e60248201527f496e697469616c697a61626c653a20636f6e747261637420697320616c72656160448201526d191e481a5b9a5d1a585b1a5e995960921b6064820152608490fd5b50303b1580156116ea57506001828416146116ea565b506001828416106116e3565b50346104695780611b0036612fa9565b91611b0961389f565b6001600160a01b031691823b15611b6e576040516323b872dd60e01b81523060048201526001600160a01b0392909216602483015260448201529082908290606490829084905af1801561040f57611b5e5750f35b611b679061307c565b6104695780f35b505050fd5b5034610469578060031936011261046957610164546040516001600160a01b039091168152602090f35b503461046957602036600319011261046957611bb7612f7d565b611bbf61389f565b6001600160a01b0316611bd38115156135a6565b61016480546001600160a01b031916909117905580f35b5034610469576040366003190112610469576024600435611c09613848565b808352602061015f815260408420906009820193845494611c2d60ff87161561349b565b611c3d60ff8760081c16156134db565b611c4d60ff8760101c161561351a565b6006840154421015611f52576040518381019083358252848152611c708161312d565b519020600585015403611f1b5760ff600785015416611c8e8161354f565b6004811015611f0857600214908115611ed9575b50611e87575b60ff90600180978319161780915560181c166003811015611e745780611d6357508580808060018060a01b0389880154166002880154905af1611ce9613576565b5015611d2a5750505b8201546001600160a01b0316907f0625e047e273118a71cca3f0dd73a68d97dd99585ffdee4b3f86670fe113f13d8480a361012d5580f35b9060136064926040519262461bcd60e51b8452600484015282015272115512081d1c985b9cd9995c8819985a5b1959606a1b6044820152fd5b9050848103611dea5750600382015484830154600284015460405163a9059cbb60e01b81526001600160a01b0392831660048201526024810191909152918391839160449183918b91165af18015611ddf57611dc1575b5050611cf2565b81611dd792903d10610371576103618183613148565b503880611dba565b6040513d88823e3d90fd5b6002915003611cf257600381015483820154600483015486926001600160a01b03908116921690823b1561041a576040516323b872dd60e01b81523060048201526001600160a01b0392909216602483015260448201529082908290606490829084905af1801561040f57611e60575050611cf2565b611e699061307c565b61041a578338611dba565b50634e487b7160e01b8652602160045285fd5b84875261016183526040872054610163541115611ca85760405162461bcd60e51b815260048101849052601481840152734e6f7420656e6f75676820617070726f76616c7360601b6044820152606490fd5b611ee3915061354f565b6004811015611ef55760031438611ca2565b634e487b7160e01b885260216004528288fd5b634e487b7160e01b895260216004528389fd5b60405162461bcd60e51b8152600481018490526010818401526f496e76616c696420707265696d61676560801b6044820152606490fd5b60405162461bcd60e51b81526004810184905260078184015266115e1c1a5c995960ca1b6044820152606490fd5b5034610469578060031936011261046957611f9961389f565b609780546001600160a01b031981169091556000906001600160a01b03167f8be0079c531659141344cd1fd0a4f28419497f9722a3daafe3b4186f6b6457e08280a380f35b5034610469576020366003190112610469576001600160a01b03612000612f7d565b16801561201d578160409160209352606883522054604051908152f35b60405162461bcd60e51b815260206004820152602960248201527f4552433732313a2061646472657373207a65726f206973206e6f7420612076616044820152683634b21037bbb732b960b91b6064820152608490fd5b5034610469576020366003190112610469576020612098612093612f7d565b61344f565b6040519015158152f35b503461046957602080600319360112610465576120bd612f7d565b916120c661389f565b6001600160a01b0392831691815b610162805490818310156121b1578690866120ee856131d9565b939054600394851b1c1614612108575050506001016120d4565b60001997959694959193909288810190811161219d5790610f678361212f61213c946131d9565b905490881b1c16916131d9565b8154968715612189577fc6e35658c76ecdde40a54f31a91fb7c8615e9893cc0885584b27bb3433270d4696970192612173846131d9565b81939154921b1b1916905555604051908152a180f35b634e487b7160e01b87526031600452602487fd5b634e487b7160e01b88526011600452602488fd5b5050505091505080f35b50346104695760203660031901126104695760206121da60043561342c565b6040516001600160a01b039091168152f35b50346104695780600319360112610469577f00000000000000000000000000000000000000000000000000000000000000006001600160a01b03163003612245576020604051600080516020613ddb8339815191528152f35b60405162461bcd60e51b815260206004820152603860248201527f555550535570677261646561626c653a206d757374206e6f742062652063616c60448201527f6c6564207468726f7567682064656c656761746563616c6c00000000000000006064820152608490fd5b506040366003190112610469576122c5612f7d565b6024356001600160401b03811161040b576122e49036906004016131bb565b6001600160a01b037f0000000000000000000000000000000000000000000000000000000000000000811692919061231e3085141561331e565b61233b600080516020613ddb83398151915294828654161461337f565b61234361389f565b7f4910fdfa16fed3260ed0e7147f7cc6da11a60208b5b9406d12a635614ffd91435460ff16156123795750506104a691506139f3565b82919216604051936352d1902d60e01b85526020948581600481865afa60009181612516575b506124005760405162461bcd60e51b815260048101879052602e60248201527f45524331393637557067726164653a206e657720696d706c656d656e7461746960448201526d6f6e206973206e6f74205555505360901b6064820152608490fd5b949394036124bf57612411826139f3565b7fbc7cd75a20ee27fd9adebab32041f755214dbc6bffa90cc0225b39da2e5c2d3b600080a28251158015906124b7575b61244c575b50505080f35b6000806124ae9460405194612460866130dc565b602786527f416464726573733a206c6f772d6c6576656c2064656c65676174652063616c6c81870152660819985a5b195960ca1b604087015281519101845af46124a8613576565b91613cb2565b50388080612446565b506001612441565b60405162461bcd60e51b815260048101849052602960248201527f45524331393637557067726164653a20756e737570706f727465642070726f786044820152681a58589b195555525160ba1b6064820152608490fd5b9091508681813d831161253e575b61252e8183613148565b81010312610c345751903861239f565b503d612524565b5034610469578060031936011261046957602061016354604051908152f35b5034610469576104a661257636612fa9565b9060405192612584846130c1565b858452613602565b50346104695761259b3661300b565b6125a9999893949599613848565b6001600160a01b038416156113f957428611156113c157600360ff86161161138d57600460ff8616101561293f576125e96126579261089b923691613184565b604051602081019033825260018060a01b03871660408201526001606082015260ff881660808201528560a082015260a08152612625816130f7565b5190207f19457468657265756d205369676e6564204d6573736167653a0a3332000000008b52601c52603c8a20613b7a565b610164546001600160a01b03918216911681149081612935575b50156113435760405160208101906001600160601b0319803360601b1683528460601b166034820152896048820152856068820152606881526126b381613112565b51902080885261015f60205260408820549094906001600160a01b031661131057604051986126e18a6130a5565b338a5260018060a01b03841660208b0152600160408b015260018060a01b03881660608b01528660808b015260a08a015260c089015260ff831660e089015280610100890152866101208901528661014089015286610160890152600261018089015283875261015f60205261018060096040892060018060a01b038b51166001600160601b0360a01b9081835416178255600182018c602060018060a01b03910151168282541617905560408c0151600283015560038201908c606060018060a01b03910151169082541617905560808b0151600482015560a08b0151600582015560c08b015160068201556007810160ff60e08d01511660ff198254161790556101008b01516008820155019861280d61012082015115158b9060ff801983541691151516179055565b6101408101518a5461ff00191690151560081b61ff0016178a556101608101518a5462ff0000191690151560101b62ff000016178a55015197600389101561292157879863ff00000082549160181b169063ff000000191617905560ff604051936001855216602084015260408301526002606083015260018060a01b0316917fbf65c77c39f1726f5a1c1116c14795eca552690a845fbe9f58574d77a9f8886860803393a46001600160a01b0382163b1561291d576040516323b872dd60e01b8152336004820152306024820152604481019190915291908290606490829084906001600160a01b03165af1801561040f5761290e5750600161012d5580f35b6129179061307c565b386112e7565b5050fd5b634e487b7160e01b88526021600452602488fd5b9050151538612671565b634e487b7160e01b89526021600452602489fd5b5034610469576020806003193601126104655761296e612f7d565b6001600160a01b037f000000000000000000000000000000000000000000000000000000000000000081166129a53082141561331e565b6129c2600080516020613ddb83398151915291838354161461337f565b6129ca61389f565b604051916129d7836130c1565b8583527f4910fdfa16fed3260ed0e7147f7cc6da11a60208b5b9406d12a635614ffd91435460ff1615612a11575050506104a691506139f3565b83929316906040516352d1902d60e01b81528581600481865afa879181612b04575b50612a945760405162461bcd60e51b815260048101879052602e60248201527f45524331393637557067726164653a206e657720696d706c656d656e7461746960448201526d6f6e206973206e6f74205555505360901b6064820152608490fd5b949394036124bf57612aa5826139f3565b7fbc7cd75a20ee27fd9adebab32041f755214dbc6bffa90cc0225b39da2e5c2d3b8580a283835115801590612afd575b612ae1575b5050505080f35b80612af39460405194612460866130dc565b5038808083612ada565b5080612ad5565b9091508681813d8311612b30575b612b1c8183613148565b81010312612b2c57519038612a33565b8780fd5b503d612b12565b50346104695760403660031901126104695760ff6040602092612b58612f93565b600435825261016085528282206001600160a01b03909116825284522054604051911615158152f35b50346104695760203660031901126104695760043580825261015f602052604082208054336001600160a01b0391821614908115612c4d575b5015612c1c5760090162010000815460ff81161580612c0d575b612bdd906132e6565b62ff000019161790557f223ab6991c0e3cee2af471cba0cc06415bf12c2adf4cc81c07d869dd5057503e8280a280f35b50600881901c60ff1615612bd4565b60405162461bcd60e51b81526020600482015260096024820152684e6f7420706172747960b81b6044820152606490fd5b9050600182015416331438612bba565b5034610469576104a6612c6f36612fa9565b91612c82612c7d843361366f565b613284565b613737565b503461046957604036600319011261046957612ca1612f7d565b602435906001600160a01b038080612cb88561342c565b16921691808314612dad57803314908115612d8c575b5015612d215782845260696020526040842080546001600160a01b03191683179055612cf98361342c565b167f8c5be1e5ebec7d5bd14f71427d1e84f3dd0314c0f7b2291e5b200ac8c7c3b9258480a480f35b60405162461bcd60e51b815260206004820152603d60248201527f4552433732313a20617070726f76652063616c6c6572206973206e6f7420746f60448201527f6b656e206f776e6572206f7220617070726f76656420666f7220616c6c0000006064820152608490fd5b90508452606a6020526040842033855260205260ff60408520541638612cce565b60405162461bcd60e51b815260206004820152602160248201527f4552433732313a20617070726f76616c20746f2063757272656e74206f776e656044820152603960f91b6064820152608490fd5b50346104695760203660031901126104695760206121da600435613260565b503461046957806003193601126104695760405190808260655491612e3f83613226565b9283835260209460019186600182169182600014611649575050600114612e6e575050610dc692500383613148565b90859250606582527f8ff97419363ffd7000167f130ef7168fbea05faf9251824ca5043f113cc6a7c75b858310612eb0575050610dc6935082010138806115e1565b80548389018501528794508693909201918101612e98565b9050346104655760203660031901126104655760043563ffffffff60e01b811680910361040b57602092506380ac58cd60e01b8114908115612f24575b8115612f13575b5015158152f35b6301ffc9a760e01b14905038612f0c565b635b5e139f60e01b81149150612f05565b60005b838110612f485750506000910152565b8181015183820152602001612f38565b90602091612f7181518092818552858086019101612f35565b601f01601f1916010190565b600435906001600160a01b0382168203610c3457565b602435906001600160a01b0382168203610c3457565b6060906003190112610c34576001600160a01b03906004358281168103610c3457916024359081168103610c34579060443590565b9181601f84011215610c34578235916001600160401b038311610c345760208381860195010111610c3457565b90610100600319830112610c34576001600160a01b03916004358381168103610c3457926024359081168103610c34579160443591606435916084359160a43560ff81168103610c34579160c4359160e435906001600160401b038211610c345761307891600401612fde565b9091565b6001600160401b03811161308f57604052565b634e487b7160e01b600052604160045260246000fd5b6101a081019081106001600160401b0382111761308f57604052565b602081019081106001600160401b0382111761308f57604052565b606081019081106001600160401b0382111761308f57604052565b60c081019081106001600160401b0382111761308f57604052565b60a081019081106001600160401b0382111761308f57604052565b604081019081106001600160401b0382111761308f57604052565b90601f801991011681019081106001600160401b0382111761308f57604052565b6001600160401b03811161308f57601f01601f191660200190565b92919261319082613169565b9161319e6040519384613148565b829481845281830111610c34578281602093846000960137010152565b9080601f83011215610c34578160206131d693359101613184565b90565b6101628054821015613210576000527f29af0939a5988989bfee913a9ad10b9335cb63ebc9fd2b69e5f877d0455ac9190190600090565b634e487b7160e01b600052603260045260246000fd5b90600182811c92168015613256575b602083101461324057565b634e487b7160e01b600052602260045260246000fd5b91607f1691613235565b6132698161364a565b6000908152606960205260409020546001600160a01b031690565b1561328b57565b60405162461bcd60e51b815260206004820152602d60248201527f4552433732313a2063616c6c6572206973206e6f7420746f6b656e206f776e6560448201526c1c881bdc88185c1c1c9bdd9959609a1b6064820152608490fd5b156132ed57565b60405162461bcd60e51b8152602060048201526009602482015268119a5b985b1a5e995960ba1b6044820152606490fd5b1561332557565b60405162461bcd60e51b815260206004820152602c60248201527f46756e6374696f6e206d7573742062652063616c6c6564207468726f7567682060448201526b19195b1959d85d1958d85b1b60a21b6064820152608490fd5b1561338657565b60405162461bcd60e51b815260206004820152602c60248201527f46756e6374696f6e206d7573742062652063616c6c6564207468726f7567682060448201526b6163746976652070726f787960a01b6064820152608490fd5b156133e757565b60405162461bcd60e51b815260206004820152601860248201527f4552433732313a20696e76616c696420746f6b656e20494400000000000000006044820152606490fd5b6000908152606760205260409020546001600160a01b03166131d68115156133e0565b610162549060005b82811061346657505050600090565b61346f816131d9565b905460039190911b1c6001600160a01b039081169083161461349357600101613457565b505050600190565b156134a257565b60405162461bcd60e51b8152602060048201526011602482015270105b1c9958591e4818dbdb5c1b195d1959607a1b6044820152606490fd5b156134e257565b60405162461bcd60e51b815260206004820152601060248201526f105b1c9958591e481c99599d5b99195960821b6044820152606490fd5b1561352157565b60405162461bcd60e51b8152602060048201526006602482015265233937bd32b760d11b6044820152606490fd5b60ff1660048110156105d35790565b90816020910312610c3457518015158103610c345790565b3d156135a1573d9061358782613169565b916135956040519384613148565b82523d6000602084013e565b606090565b156135ad57565b60405162461bcd60e51b815260206004820152600c60248201526b5a65726f206164647265737360a01b6044820152606490fd5b604051906135ee8261312d565b60058252640414d5454560dc1b6020830152565b90613626939291613616612c7d843361366f565b613621838383613737565b613a83565b1561362d57565b60405162461bcd60e51b815280613646600482016139a0565b0390fd5b60009081526067602052604090205461366d906001600160a01b031615156133e0565b565b906001600160a01b0380806136838461342c565b169316918383149384156136b6575b5083156136a0575b50505090565b6136ac91929350613260565b161438808061369a565b909350600052606a60205260406000208260005260205260ff604060002054169238613692565b156136e457565b60405162461bcd60e51b815260206004820152602560248201527f4552433732313a207472616e736665722066726f6d20696e636f72726563742060448201526437bbb732b960d91b6064820152608490fd5b9061375f916137458461342c565b6001600160a01b03939184169284929091831684146136dd565b169182156137f7578161377c916137758661342c565b16146136dd565b7fddf252ad1be2c89b69c2b068fc378daa952ba7f163c4a11628f55a4df523b3ef60008481526069602052604081206001600160601b0360a01b9081815416905583825260686020526040822060001981540190558482526040822060018154019055858252606760205284604083209182541617905580a4565b60405162461bcd60e51b8152602060048201526024808201527f4552433732313a207472616e7366657220746f20746865207a65726f206164646044820152637265737360e01b6064820152608490fd5b61012d600281541461385a5760029055565b60405162461bcd60e51b815260206004820152601f60248201527f5265656e7472616e637947756172643a207265656e7472616e742063616c6c006044820152606490fd5b6097546001600160a01b031633036138b357565b606460405162461bcd60e51b815260206004820152602060248201527f4f776e61626c653a2063616c6c6572206973206e6f7420746865206f776e65726044820152fd5b609780546001600160a01b039283166001600160a01b0319821681179092559091167f8be0079c531659141344cd1fd0a4f28419497f9722a3daafe3b4186f6b6457e0600080a3565b1561394757565b60405162461bcd60e51b815260206004820152602b60248201527f496e697469616c697a61626c653a20636f6e7472616374206973206e6f74206960448201526a6e697469616c697a696e6760a81b6064820152608490fd5b60809060208152603260208201527f4552433732313a207472616e7366657220746f206e6f6e20455243373231526560408201527131b2b4bb32b91034b6b83632b6b2b73a32b960711b60608201520190565b803b15613a2857600080516020613ddb83398151915280546001600160a01b0319166001600160a01b03909216919091179055565b60405162461bcd60e51b815260206004820152602d60248201527f455243313936373a206e657720696d706c656d656e746174696f6e206973206e60448201526c1bdd08184818dbdb9d1c9858dd609a1b6064820152608490fd5b9290803b15613b7157613ad39160209160018060a01b039460405180958194829389630a85bd0160e11b9b8c86523360048701521660248501526044840152608060648401526084830190612f58565b03916000968791165af190829082613b28575b5050613b1a57613af4613576565b80519081613b155760405162461bcd60e51b815280613646600482016139a0565b602001fd5b6001600160e01b0319161490565b909192506020813d602011613b69575b81613b4560209383613148565b810103126104655751906001600160e01b0319821682036104695750903880613ae6565b3d9150613b38565b50505050600190565b906041815114600014613ba457613078916020820151906060604084015193015160001a90613d4b565b5050600090600290565b60058110156105d35780613bbf5750565b60018103613c0c5760405162461bcd60e51b815260206004820152601860248201527f45434453413a20696e76616c6964207369676e617475726500000000000000006044820152606490fd5b60028103613c595760405162461bcd60e51b815260206004820152601f60248201527f45434453413a20696e76616c6964207369676e6174757265206c656e677468006044820152606490fd5b600314613c6257565b60405162461bcd60e51b815260206004820152602260248201527f45434453413a20696e76616c6964207369676e6174757265202773272076616c604482015261756560f01b6064820152608490fd5b91929015613d145750815115613cc6575090565b3b15613ccf5790565b60405162461bcd60e51b815260206004820152601d60248201527f416464726573733a2063616c6c20746f206e6f6e2d636f6e74726163740000006044820152606490fd5b825190915015613d275750805190602001fd5b60405162461bcd60e51b815260206004820152908190613646906024830190612f58565b9291907f7fffffffffffffffffffffffffffffff5d576e7357a4501ddfe92f46681b20a08311613dce5791608094939160ff602094604051948552168484015260408301526060820152600093849182805260015afa15613dc15781516001600160a01b03811615613dbb579190565b50600190565b50604051903d90823e3d90fd5b5050505060009060039056fe360894a13ba1a3210667c828492db98dca3e2076cc3735a920a3ca505d382bbca26469706673582212202a16fa88d399b532f0f33722123b20e0f199ae32506e5cfd0cf9fdac93f2c33a64736f6c63430008180033",
  "linkReferences": {},
  "deployedLinkReferences": {}
}