{"abi":[{"type":"constructor","inputs":[{"name":"_entryPoint","type":"address","internalType":"address"},{"name":"_policyEngine","type":"address","internalType":"address"},{"name":"_mlOracle","type":"address","internalType":"address"}],"stateMutability":"nonpayable"},{"type":"function","name":"DEFAULT_RISK_THRESHOLD","inputs":[],"outputs":[{"name":"","type":"uint256","internalType":"uint256"}],"stateMutability":"view"},{"type":"function","name":"RISK_PRECISION","inputs":[],"outputs":[{"name":"","type":"uint256","internalType":"uint256"}],"stateMutability":"view"},{"type":"function","name":"SESSION_KEY_VALIDITY","inputs":[],"outputs":[{"name":"","type":"uint256","internalType":"uint256"}],"stateMutability":"view"},{"type":"function","name":"VALIDATION_FAILED","inputs":[],"outputs":[{"name":"","type":"bytes4","internalType":"bytes4"}],"stateMutability":"view"},{"type":"function","name":"VALIDATION_SUCCESS","inputs":[],"outputs":[{"name":"","type":"bytes4","internalType":"bytes4"}],"stateMutability":"view"},{"type":"function","name":"accountConfigs","inputs":[{"name":"","type":"address","internalType":"address"}],"outputs":[{"name":"enabled","type":"bool","internalType":"bool"},{"name":"riskThreshold","type":"uint256","internalType":"uint256"},{"name":"dailySpendLimit","type":"uint256","internalType":"uint256"},{"name":"singleTxLimit","type":"uint256","internalType":"uint256"},{"name":"requireMLValidation","type":"bool","internalType":"bool"},{"name":"allowSessionKeys","type":"bool","internalType":"bool"},{"name":"allowBatching","type":"bool","internalType":"bool"}],"stateMutability":"view"},{"type":"function","name":"accountSessionKeys","inputs":[{"name":"","type":"address","internalType":"address"},{"name":"","type":"uint256","internalType":"uint256"}],"outputs":[{"name":"","type":"address","internalType":"address"}],"stateMutability":"view"},{"type":"function","name":"approvePaymaster","inputs":[{"name":"paymaster","type":"address","internalType":"address"},{"name":"approved","type":"bool","internalType":"bool"}],"outputs":[],"stateMutability":"nonpayable"},{"type":"function","name":"approvedPaymasters","inputs":[{"name":"","type":"address","internalType":"address"}],"outputs":[{"name":"","type":"bool","internalType":"bool"}],"stateMutability":"view"},{"type":"function","name":"createSessionKey","inputs":[{"name":"account","type":"address","internalType":"address"},{"name":"sessionKey","type":"address","internalType":"address"},{"name":"validUntil","type":"uint48","internalType":"uint48"},{"name":"allowedTargets","type":"address[]","internalType":"address[]"},{"name":"allowedSelectors","type":"bytes4[]","internalType":"bytes4[]"},{"name":"spendingLimit","type":"uint256","internalType":"uint256"},{"name":"maxRiskAllowed","type":"uint256","internalType":"uint256"}],"outputs":[],"stateMutability":"nonpayable"},{"type":"function","name":"entryPoint","inputs":[],"outputs":[{"name":"","type":"address","internalType":"contract IEntryPoint"}],"stateMutability":"view"},{"type":"function","name":"getAccountRisk","inputs":[{"name":"account","type":"address","internalType":"address"}],"outputs":[{"name":"currentRiskScore","type":"uint256","internalType":"uint256"},{"name":"riskThreshold","type":"uint256","internalType":"uint256"},{"name":"withinThreshold","type":"bool","internalType":"bool"}],"stateMutability":"view"},{"type":"function","name":"getSessionKeys","inputs":[{"name":"account","type":"address","internalType":"address"}],"outputs":[{"name":"","type":"address[]","internalType":"address[]"}],"stateMutability":"view"},{"type":"function","name":"getSpendingInfo","inputs":[{"name":"account","type":"address","internalType":"address"}],"outputs":[{"name":"dailySpent","type":"uint256","internalType":"uint256"},{"name":"dailyLimit","type":"uint256","internalType":"uint256"},{"name":"remainingToday","type":"uint256","internalType":"uint256"}],"stateMutability":"view"},{"type":"function","name":"isPaymasterApproved","inputs":[{"name":"paymaster","type":"address","internalType":"address"}],"outputs":[{"name":"","type":"bool","internalType":"bool"}],"stateMutability":"view"},{"type":"function","name":"isSessionKeyValid","inputs":[{"name":"account","type":"address","internalType":"address"},{"name":"sessionKey","type":"address","internalType":"address"}],"outputs":[{"name":"","type":"bool","internalType":"bool"}],"stateMutability":"view"},{"type":"function","name":"mlOracleService","inputs":[],"outputs":[{"name":"","type":"address","internalType":"address"}],"stateMutability":"view"},{"type":"function","name":"owner","inputs":[],"outputs":[{"name":"","type":"address","internalType":"address"}],"stateMutability":"view"},{"type":"function","name":"pause","inputs":[],"outputs":[],"stateMutability":"nonpayable"},{"type":"function","name":"paused","inputs":[],"outputs":[{"name":"","type":"bool","internalType":"bool"}],"stateMutability":"view"},{"type":"function","name":"policyEngine","inputs":[],"outputs":[{"name":"","type":"address","internalType":"address"}],"stateMutability":"view"},{"type":"function","name":"registerAccount","inputs":[{"name":"account","type":"address","internalType":"address"},{"name":"config","type":"tuple","internalType":"struct AMTTPBiconomyModule.AccountConfig","components":[{"name":"enabled","type":"bool","internalType":"bool"},{"name":"riskThreshold","type":"uint256","internalType":"uint256"},{"name":"dailySpendLimit","type":"uint256","internalType":"uint256"},{"name":"singleTxLimit","type":"uint256","internalType":"uint256"},{"name":"requireMLValidation","type":"bool","internalType":"bool"},{"name":"allowSessionKeys","type":"bool","internalType":"bool"},{"name":"allowBatching","type":"bool","internalType":"bool"}]}],"outputs":[],"stateMutability":"nonpayable"},{"type":"function","name":"registeredAccounts","inputs":[{"name":"","type":"address","internalType":"address"}],"outputs":[{"name":"","type":"bool","internalType":"bool"}],"stateMutability":"view"},{"type":"function","name":"renounceOwnership","inputs":[],"outputs":[],"stateMutability":"nonpayable"},{"type":"function","name":"revokeSessionKey","inputs":[{"name":"account","type":"address","internalType":"address"},{"name":"sessionKey","type":"address","internalType":"address"}],"outputs":[],"stateMutability":"nonpayable"},{"type":"function","name":"riskCache","inputs":[{"name":"","type":"address","internalType":"address"}],"outputs":[{"name":"score","type":"uint256","internalType":"uint256"},{"name":"category","type":"string","internalType":"string"},{"name":"sanctioned","type":"bool","internalType":"bool"},{"name":"timestamp","type":"uint256","internalType":"uint256"}],"stateMutability":"view"},{"type":"function","name":"riskCacheTTL","inputs":[],"outputs":[{"name":"","type":"uint256","internalType":"uint256"}],"stateMutability":"view"},{"type":"function","name":"sessionKeys","inputs":[{"name":"","type":"address","internalType":"address"},{"name":"","type":"address","internalType":"address"}],"outputs":[{"name":"key","type":"address","internalType":"address"},{"name":"validAfter","type":"uint48","internalType":"uint48"},{"name":"validUntil","type":"uint48","internalType":"uint48"},{"name":"spendingLimit","type":"uint256","internalType":"uint256"},{"name":"spentAmount","type":"uint256","internalType":"uint256"},{"name":"maxRiskAllowed","type":"uint256","internalType":"uint256"},{"name":"active","type":"bool","internalType":"bool"}],"stateMutability":"view"},{"type":"function","name":"setMLOracle","inputs":[{"name":"_mlOracle","type":"address","internalType":"address"}],"outputs":[],"stateMutability":"nonpayable"},{"type":"function","name":"setPolicyEngine","inputs":[{"name":"_policyEngine","type":"address","internalType":"address"}],"outputs":[],"stateMutability":"nonpayable"},{"type":"function","name":"setRiskCacheTTL","inputs":[{"name":"_ttl","type":"uint256","internalType":"uint256"}],"outputs":[],"stateMutability":"nonpayable"},{"type":"function","name":"setTrustedForwarder","inputs":[{"name":"forwarder","type":"address","internalType":"address"},{"name":"trusted","type":"bool","internalType":"bool"}],"outputs":[],"stateMutability":"nonpayable"},{"type":"function","name":"spendingTrackers","inputs":[{"name":"","type":"address","internalType":"address"}],"outputs":[{"name":"dailySpent","type":"uint256","internalType":"uint256"},{"name":"weeklySpent","type":"uint256","internalType":"uint256"},{"name":"lastDayReset","type":"uint256","internalType":"uint256"},{"name":"lastWeekReset","type":"uint256","internalType":"uint256"},{"name":"transactionCount","type":"uint256","internalType":"uint256"}],"stateMutability":"view"},{"type":"function","name":"transferOwnership","inputs":[{"name":"newOwner","type":"address","internalType":"address"}],"outputs":[],"stateMutability":"nonpayable"},{"type":"function","name":"trustedForwarders","inputs":[{"name":"","type":"address","internalType":"address"}],"outputs":[{"name":"","type":"bool","internalType":"bool"}],"stateMutability":"view"},{"type":"function","name":"unpause","inputs":[],"outputs":[],"stateMutability":"nonpayable"},{"type":"function","name":"updateAccountConfig","inputs":[{"name":"account","type":"address","internalType":"address"},{"name":"config","type":"tuple","internalType":"struct AMTTPBiconomyModule.AccountConfig","components":[{"name":"enabled","type":"bool","internalType":"bool"},{"name":"riskThreshold","type":"uint256","internalType":"uint256"},{"name":"dailySpendLimit","type":"uint256","internalType":"uint256"},{"name":"singleTxLimit","type":"uint256","internalType":"uint256"},{"name":"requireMLValidation","type":"bool","internalType":"bool"},{"name":"allowSessionKeys","type":"bool","internalType":"bool"},{"name":"allowBatching","type":"bool","internalType":"bool"}]}],"outputs":[],"stateMutability":"nonpayable"},{"type":"function","name":"validateBatch","inputs":[{"name":"account","type":"address","internalType":"address"},{"name":"targets","type":"address[]","internalType":"address[]"},{"name":"values","type":"uint256[]","internalType":"uint256[]"},{"name":"datas","type":"bytes[]","internalType":"bytes[]"}],"outputs":[{"name":"valid","type":"bool","internalType":"bool"},{"name":"totalRiskScore","type":"uint256","internalType":"uint256"}],"stateMutability":"nonpayable"},{"type":"function","name":"validateUserOp","inputs":[{"name":"userOp","type":"tuple","internalType":"struct UserOperation","components":[{"name":"sender","type":"address","internalType":"address"},{"name":"nonce","type":"uint256","internalType":"uint256"},{"name":"initCode","type":"bytes","internalType":"bytes"},{"name":"callData","type":"bytes","internalType":"bytes"},{"name":"callGasLimit","type":"uint256","internalType":"uint256"},{"name":"verificationGasLimit","type":"uint256","internalType":"uint256"},{"name":"preVerificationGas","type":"uint256","internalType":"uint256"},{"name":"maxFeePerGas","type":"uint256","internalType":"uint256"},{"name":"maxPriorityFeePerGas","type":"uint256","internalType":"uint256"},{"name":"paymasterAndData","type":"bytes","internalType":"bytes"},{"name":"signature","type":"bytes","internalType":"bytes"}]},{"name":"userOpHash","type":"bytes32","internalType":"bytes32"}],"outputs":[{"name":"validationData","type":"uint256","internalType":"uint256"}],"stateMutability":"nonpayable"},{"type":"event","name":"AccountConfigUpdated","inputs":[{"name":"account","type":"address","indexed":true,"internalType":"address"}],"anonymous":false},{"type":"event","name":"AccountRegistered","inputs":[{"name":"account","type":"address","indexed":true,"internalType":"address"},{"name":"config","type":"tuple","indexed":false,"internalType":"struct AMTTPBiconomyModule.AccountConfig","components":[{"name":"enabled","type":"bool","internalType":"bool"},{"name":"riskThreshold","type":"uint256","internalType":"uint256"},{"name":"dailySpendLimit","type":"uint256","internalType":"uint256"},{"name":"singleTxLimit","type":"uint256","internalType":"uint256"},{"name":"requireMLValidation","type":"bool","internalType":"bool"},{"name":"allowSessionKeys","type":"bool","internalType":"bool"},{"name":"allowBatching","type":"bool","internalType":"bool"}]}],"anonymous":false},{"type":"event","name":"ForwarderUpdated","inputs":[{"name":"forwarder","type":"address","indexed":true,"internalType":"address"},{"name":"trusted","type":"bool","indexed":false,"internalType":"bool"}],"anonymous":false},{"type":"event","name":"OwnershipTransferred","inputs":[{"name":"previousOwner","type":"address","indexed":true,"internalType":"address"},{"name":"newOwner","type":"address","indexed":true,"internalType":"address"}],"anonymous":false},{"type":"event","name":"Paused","inputs":[{"name":"account","type":"address","indexed":false,"internalType":"address"}],"anonymous":false},{"type":"event","name":"PaymasterApproved","inputs":[{"name":"paymaster","type":"address","indexed":true,"internalType":"address"},{"name":"status","type":"bool","indexed":false,"internalType":"bool"}],"anonymous":false},{"type":"event","name":"RiskThresholdUpdated","inputs":[{"name":"account","type":"address","indexed":true,"internalType":"address"},{"name":"newThreshold","type":"uint256","indexed":false,"internalType":"uint256"}],"anonymous":false},{"type":"event","name":"SessionKeyCreated","inputs":[{"name":"account","type":"address","indexed":true,"internalType":"address"},{"name":"sessionKey","type":"address","indexed":true,"internalType":"address"},{"name":"validUntil","type":"uint48","indexed":false,"internalType":"uint48"}],"anonymous":false},{"type":"event","name":"SessionKeyRevoked","inputs":[{"name":"account","type":"address","indexed":true,"internalType":"address"},{"name":"sessionKey","type":"address","indexed":true,"internalType":"address"}],"anonymous":false},{"type":"event","name":"SpendingLimitUpdated","inputs":[{"name":"account","type":"address","indexed":true,"internalType":"address"},{"name":"newLimit","type":"uint256","indexed":false,"internalType":"uint256"}],"anonymous":false},{"type":"event","name":"TransactionValidated","inputs":[{"name":"account","type":"address","indexed":true,"internalType":"address"},{"name":"userOpHash","type":"bytes32","indexed":false,"internalType":"bytes32"},{"name":"riskScore","type":"uint256","indexed":false,"internalType":"uint256"},{"name":"approved","type":"bool","indexed":false,"internalType":"bool"}],"anonymous":false},{"type":"event","name":"Unpaused","inputs":[{"name":"account","type":"address","indexed":false,"internalType":"address"}],"anonymous":false},{"type":"error","name":"AccountNotRegistered","inputs":[]},{"type":"error","name":"BatchingNotAllowed","inputs":[]},{"type":"error","name":"InvalidSessionKey","inputs":[]},{"type":"error","name":"InvalidSignature","inputs":[]},{"type":"error","name":"RiskThresholdExceeded","inputs":[]},{"type":"error","name":"SessionKeyExpired","inputs":[]},{"type":"error","name":"SpendingLimitExceeded","inputs":[]},{"type":"error","name":"UnauthorizedSelector","inputs":[]},{"type":"error","name":"UnauthorizedTarget","inputs":[]}],"bytecode":{"object":"0x60a034620001a957601f62002fdd38819003918201601f19168301916001600160401b03831184841017620001ad57808492606094604052833981010312620001a9576200004d81620001c1565b906200006a60406200006260208401620001c1565b9201620001c1565b5f80546001600160a01b031980821633908117845560405191966001600160a01b0396909490938716907f8be0079c531659141344cd1fd0a4f28419497f9722a3daafe3b4186f6b6457e09080a360018055846002549361012c600a55169081156200016757508482161562000122576080526001600160a81b031990911660089190911b610100600160a81b031617600255600380549093169116179055604051612e069081620001d78239608051816109710152f35b60405162461bcd60e51b815260206004820152601560248201527f496e76616c696420706f6c69637920656e67696e6500000000000000000000006044820152606490fd5b62461bcd60e51b815260206004820152601360248201527f496e76616c696420656e74727920706f696e74000000000000000000000000006044820152606490fd5b5f80fd5b634e487b7160e01b5f52604160045260245ffd5b51906001600160a01b0382168203620001a95756fe60806040526004361015610011575f80fd5b5f3560e01c8063015d434c14611ae65780630c01e11714611a5f5780631130c04514611a425780631f091782146119a457806325204b0b1461198857806326bd178b1461196c57806327939de8146118875780632d849805146117485780633a7b216814610e325780633f4ba83a146116b557806354776bb9146116785780635c2d33df146115cb5780635c975abb146115a95780636135b0851461151b57806369833f15146114f35780636b2602c0146114d95780636f4fa0b2146114965780636fc43f2e14610ec6578063715018a614610e6f5780637625666514610e3257806381e9c8d114610b5e5780638456cb5914610acc5780638da5cb5b14610aa5578063927399a514610a7957806396ade1f9146109e05780639e5a7ef5146109bd578063b0ad8e29146109a0578063b0d691fe1461095c578063b1af1d6214610905578063c6975a2c1461087e578063c883e1da1461085d578063d8fa638d14610820578063e691d03b146107b4578063e6cd469f146104c8578063f2fde38b14610402578063f681b684146102ec578063fb4347ee14610288578063fde5354d146102155763fff35b72146101c6575f80fd5b346102115760031960403682011261021157600435906001600160401b0382116102115761016090823603011261021157610209602091602435906004016120d1565b604051908152f35b5f80fd5b3461021157602080600319360112610211576001600160a01b039081610239611b4b565b165f526007815261024c60405f20611e64565b60405191808301818452825180915281604085019301915f5b8281106102725785850386f35b8351871685529381019392810192600101610265565b34610211576020366003190112610211576001600160a01b036102a9611b4b565b165f52600860205260a060405f20805490600181015490600281015460046003830154920154926040519485526020850152604084015260608301526080820152f35b346102115760208060031936011261021157610306611b4b565b6001600160a01b03165f818152600883526040808220905193929060049061032d86611bf8565b805486526001810154858701526002810154604087015260038101546060870152015460808501525f526004825260405f209260405161036c81611bc1565b60ff8554161515815260018501548482015260c060ff600460028801549788604086015260038101546060860152015481811615156080850152818160081c16151560a085015260101c16151591015251918284116103da575b926060936040519384528301526040820152f35b9050818303928084116103ee5792906103c6565b634e487b7160e01b5f52601160045260245ffd5b346102115760203660031901126102115761041b611b4b565b610423612376565b6001600160a01b03908116908115610474575f54826bffffffffffffffffffffffff60a01b8216175f55167f8be0079c531659141344cd1fd0a4f28419497f9722a3daafe3b4186f6b6457e05f80a3005b60405162461bcd60e51b815260206004820152602660248201527f4f776e61626c653a206e6577206f776e657220697320746865207a65726f206160448201526564647265737360d01b6064820152608490fd5b3461021157610100366003190112610211576104e2611b4b565b60e0366023190112610211576001600160a01b03165f8181526005602090815260409091205460ff1661077b5781156107455781331480156106af575b7f34935c760636495e4e8e3caabadb7ff72128430566ac975c4ae6ce4e7abbc1d49161054c60e092611d90565b5f8481526005825260409020805460ff1916600117905560443580156106a35760ff90915b610579611e0a565b90610582611e19565b9061058b611e28565b906040519561059987611bc1565b600187528187019081526106616040880193606435855261064860608a0196608435885260808b01981515895260a08b01901515815260c08b0192151583528d5f52600486526105fc60405f209b5115158c9060ff801983541691151516179055565b60018b019451855560028b019651875560038b019751885561063160048c01995115158a9060ff801983541691151516179055565b51885461ff00191690151560081b61ff0016178855565b51865462ff0000191690151560101b62ff000016178655565b856040519754161515875254908601525460408501525460608401525481811615156080840152818160081c16151560a084015260101c16151560c0820152a2005b5060ff61025891610571565b50604051632d9ad53d60e01b8152306004820152908082602481865afa90811561073a5761054c60e0927f34935c760636495e4e8e3caabadb7ff72128430566ac975c4ae6ce4e7abbc1d4945f9161070d575b50925050915061051f565b61072d9150833d8511610733575b6107258183611c49565b8101906120b9565b86610702565b503d61071b565b6040513d5f823e3d90fd5b6064906040519062461bcd60e51b82526004820152600f60248201526e125b9d985b1a59081858d8dbdd5b9d608a1b6044820152fd5b6064906040519062461bcd60e51b825260048201526012602482015271105b1c9958591e481c9959da5cdd195c995960721b6044820152fd5b346102115760207f8cc3357993414364e6add1411f4853a44efd6c6a279b45a373ad4376d9ea12626107e536611b77565b92906107ef612376565b6001600160a01b03165f818152600b835260409020805460ff191660ff86151516179055925b6040519015158152a2005b34610211576020366003190112610211576001600160a01b03610841611b4b565b165f526005602052602060ff60405f2054166040519015158152f35b3461021157602036600319011261021157610876612376565b600435600a55005b3461021157608036600319011261021157610897611b4b565b6001600160401b03602435818111610211576108b7903690600401611d37565b92604435838111610211576108d0903690600401611d37565b90606435948511610211576040956108ef6108f7963690600401611d37565b959094611f63565b825191151582526020820152f35b346102115760403660031901126102115761091e611b4b565b6024359060018060a01b038091165f52600760205260405f2080548310156102115760209261094c91611d67565b9190546040519260031b1c168152f35b34610211575f366003190112610211576040517f00000000000000000000000000000000000000000000000000000000000000006001600160a01b03168152602090f35b34610211575f366003190112610211576020604051620151808152f35b34610211575f366003190112610211576040516001600160e01b03198152602090f35b346102115760403660031901126102115760e06109fb611b4b565b610a03611b61565b60018060a01b038092165f5260066020528160405f2091165f5260205260405f20805490600381015460048201549060ff600660058501549401541693604051958116865265ffffffffffff8160a01c16602087015260d01c60408601526060850152608084015260a0830152151560c0820152f35b34610211575f3660031901126102115760025460405160089190911c6001600160a01b03168152602090f35b34610211575f366003190112610211575f546040516001600160a01b039091168152602090f35b34610211575f36600319011261021157610ae4612376565b60025460ff8116610b265760019060ff1916176002557f62e78cea01bee320cd4e420270b5ea74000d11b0c9f74754ebdbfc544b05a2586020604051338152a1005b60405162461bcd60e51b815260206004820152601060248201526f14185d5cd8589b194e881c185d5cd95960821b6044820152606490fd5b3461021157604036600319011261021157610b77611b4b565b610b7f611b61565b60018060a01b038092165f5260066020528160405f2091165f5260205260405f209060405190610bae82611bdc565b8254908116825265ffffffffffff8160a01c16602083015260d01c6040820152610bda60018301611e64565b6060820152600282019160405180602085549182815201945f5260205f20905f915b816007840110610dc35795610c589284926020985491818110610da6575b818110610d89575b818110610d6c575b818110610d4f575b818110610d32575b818110610d15575b818110610cfa575b10610ce6575b500382611c49565b60808301526003810154908160a084015260ff60066004830154928360c0870152600581015460e08701520154161515928361010082015283610cd0575b83610cb9575b5082610caf575b50506040519015158152f35b1090508280610ca3565b6040015165ffffffffffff16421115925084610c9c565b8481015165ffffffffffff164210159350610c96565b6001600160e01b0319168152860187610c50565b828a1b6001600160e01b031916845292890192600101610c4a565b604083901b6001600160e01b031916845292890192600101610c42565b606083901b6001600160e01b031916845292890192600101610c3a565b608083901b6001600160e01b031916845292890192600101610c32565b60a083901b6001600160e01b031916845292890192600101610c2a565b60c083901b6001600160e01b031916845292890192600101610c22565b60e083901b6001600160e01b031916845292890192600101610c1a565b956001610100600892895463ffffffff60e01b90818160e01b16835260c08282821b166020850152828260a01b16604085015260808383821b166060860152838360601b1690850152828260401b1660a0850152828260201b16908401521660e0820152019701920191610bfc565b34610211576020366003190112610211576001600160a01b03610e53611b4b565b165f52600c602052602060ff60405f2054166040519015158152f35b34610211575f36600319011261021157610e87612376565b5f80546001600160a01b0319811682556001600160a01b03167f8be0079c531659141344cd1fd0a4f28419497f9722a3daafe3b4186f6b6457e08280a3005b346102115760e036600319011261021157610edf611b4b565b610ee7611b61565b6044359065ffffffffffff82168203610211576064356001600160401b03811161021157610f19903690600401611d37565b6084356001600160401b03811161021157610f38903690600401611d37565b9060018060a01b0387165f526005602052610f5960ff60405f205416611dcd565b60018060a01b0387165f52600460205260ff600460405f20015460081c161561145957336001600160a01b038816148015611444575b610f9890611d90565b4265ffffffffffff8716111561140c5760c435156113eb5760c435925b60405194610fc286611bdc565b6001600160a01b038716865265ffffffffffff428116602088015288166040870152610fed82611e37565b91610ffb6040519384611c49565b8083526020830191368260051b8201116102115780925b8260051b820184106113cb5750505050606085015261103082611e37565b9161103e6040519384611c49565b8083526020830191368260051b8201116102115780925b8260051b820184106113a85750505050608083015260a43560a08301525f60c083015260e0820152600161010082015260018060a01b0384165f52600660205260405f2060018060a01b0383165f5260205260405f209060018060a01b0381511665ffffffffffff60a01b602083015160a01b1665ffffffffffff60d01b604084015160d01b16911717825560608101518051906001600160401b03821161126557600160401b821161126557602090600185015483600187015580841061138a575b5001600184015f5260205f205f5b83811061136d575050505060808101518051906001600160401b03821161126557600160401b821161126557602090600285015483600287015580841061131d575b500190600284015f5260205f20905f5b8160031c81106112d257506007198116808203611279575b505050509060066101008360a06111d3950151600385015560c0810151600485015560e081015160058501550151151591019060ff801983541691151516179055565b6001600160a01b0383165f90815260076020526040902080549091600160401b8210156112655761122d827f062e7a74b07be434bf5fbfcfb34d3ba963db31bbc8897a5f5dde229a99d4b942946001602095018155611d67565b81546001600160a01b0393841660039290921b82811b9085901b199091161790915560405165ffffffffffff959095168552941692a3005b634e487b7160e01b5f52604160045260245ffd5b925f935f5b818403811061129d5750505060031c015560066101006111d388611190565b90919460206112c8600192885160e01c908560021b60031b9163ffffffff809116831b921b19161790565b960192910161127e565b5f805b600881106112ea575083820155600101611178565b94906020611314600192845160e01c908960021b60031b9163ffffffff809116831b921b19161790565b920195016112d5565b61134e90600287015f52835f20600780870160031c820192601c8860021b1680611354575b500160031c0190611e4e565b88611168565b5f1990818601918254918a0360031b1c1690558d611342565b82516001600160a01b031681830155602090920191600101611126565b6113a290600187015f5284845f209182019101611e4e565b88611118565b83356001600160e01b031981169003610211578335815260209384019301611055565b83356001600160a01b038116810361021157815260209384019301611012565b6001600160a01b0387165f9081526004602052604090206001015492610fb5565b60405162461bcd60e51b815260206004820152601060248201526f496e76616c69642076616c696469747960801b6044820152606490fd5b50610f9861145233896123cd565b9050610f8f565b60405162461bcd60e51b815260206004820152601560248201527414d95cdcda5bdb881ad95e5cc8191a5cd8589b1959605a1b6044820152606490fd5b34610211576020366003190112610211576114af611b4b565b6114b7612376565b600380546001600160a01b0319166001600160a01b0392909216919091179055005b34610211575f3660031901126102115760206040515f8152f35b34610211575f366003190112610211576003546040516001600160a01b039091168152602090f35b3461021157602036600319011261021157611534611b4b565b61153c612376565b6001600160a01b038116156115725760028054610100600160a81b03191660089290921b610100600160a81b0316919091179055005b60405162461bcd60e51b815260206004820152600f60248201526e496e76616c6964206164647265737360881b6044820152606490fd5b34610211575f36600319011261021157602060ff600254166040519015158152f35b3461021157602080600319360112610211576001600160a01b036115ed611b4b565b165f52600960205260405f2090815461160860018401611c6a565b91600360ff6002860154169401546040519485938452608060208501528451928360808601525f955b84871061165f57505060a094505f858486010152151560408401526060830152601f80199101168101030190f35b86810182015188880160a0015295810195879550611631565b34610211576020366003190112610211576001600160a01b03611699611b4b565b165f52600b602052602060ff60405f2054166040519015158152f35b34610211575f366003190112610211576116cd612376565b60025460ff81161561170c5760ff19166002557f5db9ee0a495bf2e6ff9c91a7834c1ba4fdd244a5e8aa4e537bd38aeae4b073aa6020604051338152a1005b60405162461bcd60e51b815260206004820152601460248201527314185d5cd8589b194e881b9bdd081c185d5cd95960621b6044820152606490fd5b346102115761010036600319011261021157611762611b4b565b60e0366023190112610211576117a460018060a01b03821691825f52600560205261179360ff60405f205416611dcd565b823314908115611875575b50611d90565b805f52600460205260405f20602435801515810361021157816117d860049261184f949060ff801983541691151516179055565b6044356001820155606435600282015560843560038201550161180e6117fc611e0a565b829060ff801983541691151516179055565b61182f611819611e19565b825461ff00191690151560081b61ff0016178255565b611837611e28565b815462ff0000191690151560101b62ff000016179055565b7fef8a5ec1e109451024166f7fe0111f132e543405704229f0345bf04e4a4dc5d05f80a2005b611881915033906123cd565b8361179e565b3461021157602080600319360112610211576060906001600160a01b036118ac611b4b565b16805f526009825260405f20906003604051926118c884611ba6565b805484526118d860018201611c6a565b8585015260ff600282015416151560408501520154848301525f526004825260405f209060405161190881611bc1565b60ff8354161515815260c060ff6004600186015495868886015260028101546040860152600381015489860152015481811615156080850152818160081c16151560a085015260101c16151591015251816040519382855284015211156040820152f35b34610211575f3660031901126102115760206040516103e88152f35b34610211575f3660031901126102115760206040516102588152f35b34610211576040366003190112610211576119bd611b4b565b6119c5611b61565b906001600160a01b03808216916119e690338414908115611a305750611d90565b815f52600660205260405f20921691825f52602052600660405f200160ff1981541690557f744157ccffbd293a2e8644928cd7d23d650f869b88f72d7bfea8041b76ca6bec5f80a3005b611a3c915033906123cd565b8561179e565b34610211575f366003190112610211576020600a54604051908152f35b34610211576020366003190112610211576001600160a01b03611a80611b4b565b165f52600460205260e060405f2060ff808254169160018101549060028101546004600383015492015492604051951515865260208601526040850152606084015281811615156080840152818160081c16151560a084015260101c16151560c0820152f35b346102115760207fcaaba89dc327fa4dce65b4465ea0c02d62543d14f229bfef053edb84a590e194611b1736611b77565b9290611b21612376565b6001600160a01b03165f818152600c835260409020805460ff191660ff8615151617905592610815565b600435906001600160a01b038216820361021157565b602435906001600160a01b038216820361021157565b6040906003190112610211576004356001600160a01b0381168103610211579060243580151581036102115790565b608081019081106001600160401b0382111761126557604052565b60e081019081106001600160401b0382111761126557604052565b61012081019081106001600160401b0382111761126557604052565b60a081019081106001600160401b0382111761126557604052565b604081019081106001600160401b0382111761126557604052565b606081019081106001600160401b0382111761126557604052565b90601f801991011681019081106001600160401b0382111761126557604052565b90604051915f9080549160018360011c9060018516938415611d2d575b6020958684108614611d19578389528895908115611cf75750600114611cb9575b505050611cb792500383611c49565b565b5f90815285812095935091905b818310611cdf575050611cb793508201015f8080611ca8565b85548884018501529485019487945091830191611cc6565b92505050611cb794925060ff191682840152151560051b8201015f8080611ca8565b634e487b7160e01b5f52602260045260245ffd5b91607f1691611c87565b9181601f84011215610211578235916001600160401b038311610211576020808501948460051b01011161021157565b8054821015611d7c575f5260205f2001905f90565b634e487b7160e01b5f52603260045260245ffd5b15611d9757565b60405162461bcd60e51b815260206004820152600e60248201526d139bdd08185d5d1a1bdc9a5e995960921b6044820152606490fd5b15611dd457565b60405162461bcd60e51b815260206004820152600e60248201526d139bdd081c9959da5cdd195c995960921b6044820152606490fd5b60a43580151581036102115790565b60c43580151581036102115790565b60e43580151581036102115790565b6001600160401b0381116112655760051b60200190565b818110611e59575050565b5f8155600101611e4e565b90604051918281549182825260209260208301915f5260205f20935f905b828210611e9857505050611cb792500383611c49565b85546001600160a01b031684526001958601958895509381019390910190611e82565b9190811015611d7c5760051b0190565b919082018092116103ee57565b356001600160a01b03811681036102115790565b903590601e198136030182121561021157018035906001600160401b0382116102115760200191813603831361021157565b9291926001600160401b0382116112655760405191611f47601f8201601f191660200184611c49565b829481845281830111610211578281602093845f960137010152565b92969594919460018060a01b0384165f52600497602093600460205260ff600460405f20015460101c16156120a7579894939796959291905f995f965f955b898710611fe85750505050505050611fbc929394506126a0565b15611fe2578015611fce576001920490565b634e487b7160e01b5f52601260045260245ffd5b505f9190565b9091929394959761200590611ffe8a8488611ebb565b3590611ecb565b97612019612014828c8a611ebb565b611ed8565b9c612025828488611ebb565b359d87831015612094579061205f8e9f9d9e9a9b9c9d612069936120586120518760051b8b018b611eec565b3691611f1e565b508d612452565b9e8f015190611ecb565b9c5115612084576001019594939291909a999897969a611fa2565b50505050505050505050505f9190565b603285634e487b7160e01b5f525260245ffd5b604051637808cf5b60e01b8152600490fd5b90816020910312610211575180151581036102115790565b906120db82611ed8565b9160018060a01b03808416805f526020936005855260409260ff845f2054161561236a5760048652835f2096845161211281611bc1565b60ff895416159283158252600460019a8b8101548b85015260028101548985015260038101546060850152015493608083019260ff86161515845260c060ff60a0830197818160081c161515895260101c16151591015261235c5761217a6060890189611eec565b985f955f9a60609360448210156122da575b50508a9187915161229b575b505090506121a79150836126a0565b156122905751612234575b5050506004936008915f52525f209062015180420462093a804204906002840181815410612229575b5050600383018181541061221c575b50506121f7818354611ecb565b8255612207848301918254611ecb565b9055019081545f1981146103ee570190555f90565b5f86850155555f806121ea565b5f8555555f806121db565b60606122638786947f9d63ffe216548438f75515d37d0973026ca0adaab3c46e4f674169a5e27ef3ed94612452565b9388850151855115159088519283528a83015287820152a25115612289575f80806121b2565b5050505090565b505050505050505090565b6122ad816101406122b3930190611eec565b906127c1565b9384166122c1575b82612198565b6122cb93866127f6565b5115612290575f8088856122bb565b929750809b5060241161021157601082013560601c968b60441161021157879160248401359c8d9460448211612316575b50509181935061218c565b9350935093508260641161021157826084116102115760648201359283608401806084116103ee57116102115761235488928d946084369201611f1e565b935f8061230b565b505050505050505050505f90565b50505050505050600190565b5f546001600160a01b0316330361238957565b606460405162461bcd60e51b815260206004820152602060248201527f4f776e61626c653a2063616c6c6572206973206e6f7420746865206f776e65726044820152fd5b604051632d9ad53d60e01b81526001600160a01b0392831660048201529160209183916024918391165afa5f918161240d575b5061240a57505f90565b90565b61242791925060203d602011610733576107258183611c49565b905f612400565b6040519061243b82611ba6565b5f6060838281528260208201528160408201520152565b91909161245d61242e565b5060018060a01b038091165f5260209160048352604090815f2092825161248381611bc1565b60ff8554161515815260c060ff600460018801549789850198895260028101548886015260038101546060860152015481811615156080850152818160081c16151560a085015260101c16151591015285165f5260098452815f20948251916124eb83611ba6565b865483526124fb60018801611c6a565b86840152612526600360ff60028a015416988686019915158a520154806060860152600a5490611ecb565b42101561261757505051935b516125c757815184118015949061259457815161254e81611c13565b6015815274149a5cdac81dda5d1a1a5b881d1a1c995cda1bdb19605a1b85820152925b5160011c81119382519561258487611ba6565b8652850152830152606082015290565b815161259f81611c13565b6016815275149a5cdac8195e18d959591cc81d1a1c995cda1bdb1960521b8582015292612571565b9250508151916125d683611ba6565b5f83526103e8828401527315185c99d95d081a5cc81cd85b98dd1a5bdb995960621b81519261260484611c13565b601484528301528201525f606082015290565b60649250903b612697575b678ac7230489e80000811115612646575061012c81018091116103ee575b93612532565b670de0b6b3a76400008111156126685750609681018091116103ee575b612640565b67016345785d8a0000101561264057603281018091111561266357634e487b7160e01b5f52601160045260245ffd5b60c89150612622565b60018060a01b0316805f5260046020526040805f20908051926126c284611bc1565b60ff835416151584526001830154602085015260028301549382810194855260c060ff600460038701549660608501978852015481811615156080850152818160081c16151560a085015260101c1615159101525f526008602052805f2091815161272c81611bf8565b6080600485549586845260018101546020850152600281015480968501526003810154606085015201549101525180151590816127b7575b506127af57620151804204036127a757915b815115159283612791575b50505061278d57600190565b5f90565b61279c929350611ecb565b9051105f8080612781565b505f91612776565b505050505f90565b905084115f612764565b9060558110156127d15750505f90565b605511610211576041013560601c90565b8051821015611d7c5760209160051b010190565b93929361280161242e565b5060018060a01b03165f52600660205260405f209060018060a01b03165f5260205260405f20906040519361283585611bdc565b82546001600160a01b038116865260a081901c65ffffffffffff16602087015260d01c604086015261286960018401611e64565b60608601526002830192604051808560208297549384815201905f5260205f20925f905b806007830110612d2b576128e3945491818110612d0c575b818110612ced575b818110612cce575b818110612caf575b818110612c90575b818110612c71575b818110612c54575b10612c3f575b500385611c49565b6080860193845260038101549160a0870192835260ff600660048401549360c08a01948552600581015460e08b015201541615801590816101008a015290612c2a575b8015612c15575b612bb55761293b9151611ecb565b905110612b4c57606084015151155f5b60608601518051821015612b40576001600160a01b039061296d9083906127e2565b51166001600160a01b038416146129865760010161294b565b50505090915060015b15612ada5781516004811092831580612acf575b6129fa575b505050506040516129b881611ba6565b600181525f60208201526040516129ce81611c13565b601181527014d95cdcda5bdb881ad95e481d985b1a59607a1b602082015260408201525f606082015290565b6020015163ffffffff60e01b9182821694612aba575b509192811691505f805b84518051821015612aaf5783612a318387936127e2565b511614612a4057600101612a1a565b505050505060015b15612a56575f8080806129a8565b604051612a6281611ba6565b5f81525f6020820152604051612a7781611c13565b601d81527f46756e6374696f6e2073656c6563746f72206e6f7420616c6c6f776564000000602082015260408201525f606082015290565b505092505050612a48565b60040360031b82901b16811692505f80612a10565b5082515115156129a3565b5050604051612ae881611ba6565b5f81525f6020820152604051612afd81611c2e565b602281527f546172676574206e6f7420616c6c6f77656420666f722073657373696f6e206b602082015261657960f01b604082015260408201525f606082015290565b5050919293505061298f565b50505050604051612b5c81611ba6565b5f81525f6020820152604051612b7181611c2e565b602381527f53657373696f6e206b6579207370656e64696e67206c696d697420657863656560208201526219195960ea1b604082015260408201525f606082015290565b50505050505050604051612bc881611ba6565b5f81525f6020820152604051612bdd81611c13565b601e81527f53657373696f6e206b657920696e76616c6964206f7220657870697265640000602082015260408201525f606082015290565b5065ffffffffffff604088015116421161292d565b5065ffffffffffff6020880151164210612926565b6001600160e01b03191681526020015f6128db565b602083811b6001600160e01b0319168552909301926001016128d5565b604083901b6001600160e01b03191684526020909301926001016128cd565b606083901b6001600160e01b03191684526020909301926001016128c5565b608083901b6001600160e01b03191684526020909301926001016128bd565b60a083901b6001600160e01b03191684526020909301926001016128b5565b60c083901b6001600160e01b03191684526020909301926001016128ad565b60e083901b6001600160e01b03191684526020909301926001016128a5565b916008919350610100600191865463ffffffff60e01b8160e01b16825260c063ffffffff60e01b82821b16602084015263ffffffff60e01b8260a01b166040840152608063ffffffff60e01b83821b16606085015263ffffffff60e01b8360601b169084015263ffffffff60e01b8260401b1660a084015263ffffffff60e01b8260201b169083015263ffffffff60e01b1660e082015201940192018792939161288d56fea2646970667358221220533b1885f008932cd36529b3943db6c867633dff348d8f4a73806c181d9bb44464736f6c63430008180033","linkReferences":{}},"methodIdentifiers":{"DEFAULT_RISK_THRESHOLD()":"25204b0b","RISK_PRECISION()":"26bd178b","SESSION_KEY_VALIDITY()":"b0ad8e29","VALIDATION_FAILED()":"9e5a7ef5","VALIDATION_SUCCESS()":"6b2602c0","accountConfigs(address)":"0c01e117","accountSessionKeys(address,uint256)":"b1af1d62","approvePaymaster(address,bool)":"015d434c","approvedPaymasters(address)":"3a7b2168","createSessionKey(address,address,uint48,address[],bytes4[],uint256,uint256)":"6fc43f2e","entryPoint()":"b0d691fe","getAccountRisk(address)":"27939de8","getSessionKeys(address)":"fde5354d","getSpendingInfo(address)":"f681b684","isPaymasterApproved(address)":"76256665","isSessionKeyValid(address,address)":"81e9c8d1","mlOracleService()":"69833f15","owner()":"8da5cb5b","pause()":"8456cb59","paused()":"5c975abb","policyEngine()":"927399a5","registerAccount(address,(bool,uint256,uint256,uint256,bool,bool,bool))":"e6cd469f","registeredAccounts(address)":"d8fa638d","renounceOwnership()":"715018a6","revokeSessionKey(address,address)":"1f091782","riskCache(address)":"5c2d33df","riskCacheTTL()":"1130c045","sessionKeys(address,address)":"96ade1f9","setMLOracle(address)":"6f4fa0b2","setPolicyEngine(address)":"6135b085","setRiskCacheTTL(uint256)":"c883e1da","setTrustedForwarder(address,bool)":"e691d03b","spendingTrackers(address)":"fb4347ee","transferOwnership(address)":"f2fde38b","trustedForwarders(address)":"54776bb9","unpause()":"3f4ba83a","updateAccountConfig(address,(bool,uint256,uint256,uint256,bool,bool,bool))":"2d849805","validateBatch(address,address[],uint256[],bytes[])":"c6975a2c","validateUserOp((address,uint256,bytes,bytes,uint256,uint256,uint256,uint256,uint256,bytes,bytes),bytes32)":"fff35b72"},"id":0}