{"abi":[{"type":"constructor","inputs":[],"stateMutability":"nonpayable"},{"type":"receive","stateMutability":"payable"},{"type":"function","name":"BLOCK_THRESHOLD","inputs":[],"outputs":[{"name":"","type":"uint256","internalType":"uint256"}],"stateMutability":"view"},{"type":"function","name":"HIGH_RISK_THRESHOLD","inputs":[],"outputs":[{"name":"","type":"uint256","internalType":"uint256"}],"stateMutability":"view"},{"type":"function","name":"RISK_SCALE","inputs":[],"outputs":[{"name":"","type":"uint256","internalType":"uint256"}],"stateMutability":"view"},{"type":"function","name":"activeModelVersion","inputs":[],"outputs":[{"name":"","type":"string","internalType":"string"}],"stateMutability":"view"},{"type":"function","name":"addApprover","inputs":[{"name":"_approver","type":"address","internalType":"address"}],"outputs":[],"stateMutability":"nonpayable"},{"type":"function","name":"approvalThreshold","inputs":[],"outputs":[{"name":"","type":"uint256","internalType":"uint256"}],"stateMutability":"view"},{"type":"function","name":"approvals","inputs":[{"name":"","type":"bytes32","internalType":"bytes32"},{"name":"","type":"address","internalType":"address"}],"outputs":[{"name":"","type":"bool","internalType":"bool"}],"stateMutability":"view"},{"type":"function","name":"approveSwap","inputs":[{"name":"swapId","type":"bytes32","internalType":"bytes32"}],"outputs":[],"stateMutability":"nonpayable"},{"type":"function","name":"approvers","inputs":[{"name":"","type":"uint256","internalType":"uint256"}],"outputs":[{"name":"","type":"address","internalType":"address"}],"stateMutability":"view"},{"type":"function","name":"completeNFTSwap","inputs":[{"name":"swapId","type":"bytes32","internalType":"bytes32"},{"name":"preimage","type":"bytes32","internalType":"bytes32"}],"outputs":[],"stateMutability":"nonpayable"},{"type":"function","name":"completeNFTtoNFTSwap","inputs":[{"name":"swapId","type":"bytes32","internalType":"bytes32"},{"name":"preimage","type":"bytes32","internalType":"bytes32"}],"outputs":[],"stateMutability":"nonpayable"},{"type":"function","name":"depositETHForNFT","inputs":[{"name":"swapId","type":"bytes32","internalType":"bytes32"}],"outputs":[],"stateMutability":"payable"},{"type":"function","name":"depositNFTForSwap","inputs":[{"name":"swapId","type":"bytes32","internalType":"bytes32"}],"outputs":[],"stateMutability":"nonpayable"},{"type":"function","name":"disputeResolver","inputs":[],"outputs":[{"name":"","type":"address","internalType":"contract IAMTTPDisputeResolverLocal"}],"stateMutability":"view"},{"type":"function","name":"executeDisputeRuling","inputs":[{"name":"swapId","type":"bytes32","internalType":"bytes32"},{"name":"releaseTobuyer","type":"bool","internalType":"bool"}],"outputs":[],"stateMutability":"nonpayable"},{"type":"function","name":"getApprovers","inputs":[],"outputs":[{"name":"","type":"address[]","internalType":"address[]"}],"stateMutability":"view"},{"type":"function","name":"getNFTSwap","inputs":[{"name":"swapId","type":"bytes32","internalType":"bytes32"}],"outputs":[{"name":"","type":"tuple","internalType":"struct AMTTPNFT.NFTSwap","components":[{"name":"seller","type":"address","internalType":"address"},{"name":"buyer","type":"address","internalType":"address"},{"name":"nftContract","type":"address","internalType":"address"},{"name":"tokenId","type":"uint256","internalType":"uint256"},{"name":"ethAmount","type":"uint256","internalType":"uint256"},{"name":"hashlock","type":"bytes32","internalType":"bytes32"},{"name":"timelock","type":"uint256","internalType":"uint256"},{"name":"riskScore","type":"uint256","internalType":"uint256"},{"name":"kycHash","type":"bytes32","internalType":"bytes32"},{"name":"status","type":"uint8","internalType":"enum AMTTPNFT.SwapStatus"},{"name":"approvalCount","type":"uint8","internalType":"uint8"},{"name":"swapType","type":"uint8","internalType":"enum AMTTPNFT.SwapType"}]}],"stateMutability":"view"},{"type":"function","name":"getNFTtoNFTSwap","inputs":[{"name":"swapId","type":"bytes32","internalType":"bytes32"}],"outputs":[{"name":"","type":"tuple","internalType":"struct AMTTPNFT.NFTtoNFTSwap","components":[{"name":"partyA","type":"address","internalType":"address"},{"name":"partyB","type":"address","internalType":"address"},{"name":"nftContractA","type":"address","internalType":"address"},{"name":"nftContractB","type":"address","internalType":"address"},{"name":"tokenIdA","type":"uint256","internalType":"uint256"},{"name":"tokenIdB","type":"uint256","internalType":"uint256"},{"name":"hashlock","type":"bytes32","internalType":"bytes32"},{"name":"timelock","type":"uint256","internalType":"uint256"},{"name":"riskScore","type":"uint256","internalType":"uint256"},{"name":"status","type":"uint8","internalType":"enum AMTTPNFT.SwapStatus"},{"name":"partyADeposited","type":"bool","internalType":"bool"},{"name":"partyBDeposited","type":"bool","internalType":"bool"}]}],"stateMutability":"view"},{"type":"function","name":"globalRiskThreshold","inputs":[],"outputs":[{"name":"","type":"uint256","internalType":"uint256"}],"stateMutability":"view"},{"type":"function","name":"initialize","inputs":[{"name":"_oracle","type":"address","internalType":"address"}],"outputs":[],"stateMutability":"nonpayable"},{"type":"function","name":"initiateNFTtoETHSwap","inputs":[{"name":"buyer","type":"address","internalType":"address"},{"name":"nftContract","type":"address","internalType":"address"},{"name":"tokenId","type":"uint256","internalType":"uint256"},{"name":"ethAmount","type":"uint256","internalType":"uint256"},{"name":"hashlock","type":"bytes32","internalType":"bytes32"},{"name":"timelock","type":"uint256","internalType":"uint256"},{"name":"riskScore","type":"uint256","internalType":"uint256"},{"name":"kycHash","type":"bytes32","internalType":"bytes32"},{"name":"oracleSignature","type":"bytes","internalType":"bytes"}],"outputs":[{"name":"swapId","type":"bytes32","internalType":"bytes32"}],"stateMutability":"nonpayable"},{"type":"function","name":"initiateNFTtoNFTSwap","inputs":[{"name":"partyB","type":"address","internalType":"address"},{"name":"nftContractA","type":"address","internalType":"address"},{"name":"tokenIdA","type":"uint256","internalType":"uint256"},{"name":"nftContractB","type":"address","internalType":"address"},{"name":"tokenIdB","type":"uint256","internalType":"uint256"},{"name":"hashlock","type":"bytes32","internalType":"bytes32"},{"name":"timelock","type":"uint256","internalType":"uint256"},{"name":"riskScore","type":"uint256","internalType":"uint256"},{"name":"oracleSignature","type":"bytes","internalType":"bytes"}],"outputs":[{"name":"swapId","type":"bytes32","internalType":"bytes32"}],"stateMutability":"nonpayable"},{"type":"function","name":"isApprover","inputs":[{"name":"","type":"address","internalType":"address"}],"outputs":[{"name":"","type":"bool","internalType":"bool"}],"stateMutability":"view"},{"type":"function","name":"nftSwaps","inputs":[{"name":"","type":"bytes32","internalType":"bytes32"}],"outputs":[{"name":"seller","type":"address","internalType":"address"},{"name":"buyer","type":"address","internalType":"address"},{"name":"nftContract","type":"address","internalType":"address"},{"name":"tokenId","type":"uint256","internalType":"uint256"},{"name":"ethAmount","type":"uint256","internalType":"uint256"},{"name":"hashlock","type":"bytes32","internalType":"bytes32"},{"name":"timelock","type":"uint256","internalType":"uint256"},{"name":"riskScore","type":"uint256","internalType":"uint256"},{"name":"kycHash","type":"bytes32","internalType":"bytes32"},{"name":"status","type":"uint8","internalType":"enum AMTTPNFT.SwapStatus"},{"name":"approvalCount","type":"uint8","internalType":"uint8"},{"name":"swapType","type":"uint8","internalType":"enum AMTTPNFT.SwapType"}],"stateMutability":"view"},{"type":"function","name":"nftToNftSwaps","inputs":[{"name":"","type":"bytes32","internalType":"bytes32"}],"outputs":[{"name":"partyA","type":"address","internalType":"address"},{"name":"partyB","type":"address","internalType":"address"},{"name":"nftContractA","type":"address","internalType":"address"},{"name":"nftContractB","type":"address","internalType":"address"},{"name":"tokenIdA","type":"uint256","internalType":"uint256"},{"name":"tokenIdB","type":"uint256","internalType":"uint256"},{"name":"hashlock","type":"bytes32","internalType":"bytes32"},{"name":"timelock","type":"uint256","internalType":"uint256"},{"name":"riskScore","type":"uint256","internalType":"uint256"},{"name":"status","type":"uint8","internalType":"enum AMTTPNFT.SwapStatus"},{"name":"partyADeposited","type":"bool","internalType":"bool"},{"name":"partyBDeposited","type":"bool","internalType":"bool"}],"stateMutability":"view"},{"type":"function","name":"onERC721Received","inputs":[{"name":"","type":"address","internalType":"address"},{"name":"","type":"address","internalType":"address"},{"name":"","type":"uint256","internalType":"uint256"},{"name":"","type":"bytes","internalType":"bytes"}],"outputs":[{"name":"","type":"bytes4","internalType":"bytes4"}],"stateMutability":"pure"},{"type":"function","name":"oracle","inputs":[],"outputs":[{"name":"","type":"address","internalType":"address"}],"stateMutability":"view"},{"type":"function","name":"owner","inputs":[],"outputs":[{"name":"","type":"address","internalType":"address"}],"stateMutability":"view"},{"type":"function","name":"pause","inputs":[],"outputs":[],"stateMutability":"nonpayable"},{"type":"function","name":"paused","inputs":[],"outputs":[{"name":"","type":"bool","internalType":"bool"}],"stateMutability":"view"},{"type":"function","name":"policyEngine","inputs":[],"outputs":[{"name":"","type":"address","internalType":"contract IAMTTPPolicyEngine"}],"stateMutability":"view"},{"type":"function","name":"policyEngineEnabled","inputs":[],"outputs":[{"name":"","type":"bool","internalType":"bool"}],"stateMutability":"view"},{"type":"function","name":"proxiableUUID","inputs":[],"outputs":[{"name":"","type":"bytes32","internalType":"bytes32"}],"stateMutability":"view"},{"type":"function","name":"raiseDispute","inputs":[{"name":"swapId","type":"bytes32","internalType":"bytes32"},{"name":"evidence","type":"string","internalType":"string"}],"outputs":[],"stateMutability":"payable"},{"type":"function","name":"refundNFTSwap","inputs":[{"name":"swapId","type":"bytes32","internalType":"bytes32"}],"outputs":[],"stateMutability":"nonpayable"},{"type":"function","name":"removeApprover","inputs":[{"name":"_approver","type":"address","internalType":"address"}],"outputs":[],"stateMutability":"nonpayable"},{"type":"function","name":"renounceOwnership","inputs":[],"outputs":[],"stateMutability":"nonpayable"},{"type":"function","name":"rescueNFT","inputs":[{"name":"nftContract","type":"address","internalType":"address"},{"name":"to","type":"address","internalType":"address"},{"name":"tokenId","type":"uint256","internalType":"uint256"}],"outputs":[],"stateMutability":"nonpayable"},{"type":"function","name":"router","inputs":[],"outputs":[{"name":"","type":"address","internalType":"address"}],"stateMutability":"view"},{"type":"function","name":"setDisputeResolver","inputs":[{"name":"_disputeResolver","type":"address","internalType":"address"}],"outputs":[],"stateMutability":"nonpayable"},{"type":"function","name":"setOracle","inputs":[{"name":"_oracle","type":"address","internalType":"address"}],"outputs":[],"stateMutability":"nonpayable"},{"type":"function","name":"setPolicyEngine","inputs":[{"name":"_policyEngine","type":"address","internalType":"address"}],"outputs":[],"stateMutability":"nonpayable"},{"type":"function","name":"setRouter","inputs":[{"name":"_router","type":"address","internalType":"address"}],"outputs":[],"stateMutability":"nonpayable"},{"type":"function","name":"transferOwnership","inputs":[{"name":"newOwner","type":"address","internalType":"address"}],"outputs":[],"stateMutability":"nonpayable"},{"type":"function","name":"unpause","inputs":[],"outputs":[],"stateMutability":"nonpayable"},{"type":"function","name":"upgradeTo","inputs":[{"name":"newImplementation","type":"address","internalType":"address"}],"outputs":[],"stateMutability":"nonpayable"},{"type":"function","name":"upgradeToAndCall","inputs":[{"name":"newImplementation","type":"address","internalType":"address"},{"name":"data","type":"bytes","internalType":"bytes"}],"outputs":[],"stateMutability":"payable"},{"type":"event","name":"AdminChanged","inputs":[{"name":"previousAdmin","type":"address","indexed":false,"internalType":"address"},{"name":"newAdmin","type":"address","indexed":false,"internalType":"address"}],"anonymous":false},{"type":"event","name":"BeaconUpgraded","inputs":[{"name":"beacon","type":"address","indexed":true,"internalType":"address"}],"anonymous":false},{"type":"event","name":"Initialized","inputs":[{"name":"version","type":"uint8","indexed":false,"internalType":"uint8"}],"anonymous":false},{"type":"event","name":"NFTDeposited","inputs":[{"name":"swapId","type":"bytes32","indexed":true,"internalType":"bytes32"},{"name":"depositor","type":"address","indexed":true,"internalType":"address"},{"name":"nftContract","type":"address","indexed":false,"internalType":"address"},{"name":"tokenId","type":"uint256","indexed":false,"internalType":"uint256"}],"anonymous":false},{"type":"event","name":"NFTSwapInitiated","inputs":[{"name":"swapId","type":"bytes32","indexed":true,"internalType":"bytes32"},{"name":"seller","type":"address","indexed":true,"internalType":"address"},{"name":"buyer","type":"address","indexed":true,"internalType":"address"},{"name":"nftContract","type":"address","indexed":false,"internalType":"address"},{"name":"tokenId","type":"uint256","indexed":false,"internalType":"uint256"},{"name":"ethAmount","type":"uint256","indexed":false,"internalType":"uint256"}],"anonymous":false},{"type":"event","name":"NFTtoNFTSwapInitiated","inputs":[{"name":"swapId","type":"bytes32","indexed":true,"internalType":"bytes32"},{"name":"partyA","type":"address","indexed":true,"internalType":"address"},{"name":"partyB","type":"address","indexed":true,"internalType":"address"}],"anonymous":false},{"type":"event","name":"OwnershipTransferred","inputs":[{"name":"previousOwner","type":"address","indexed":true,"internalType":"address"},{"name":"newOwner","type":"address","indexed":true,"internalType":"address"}],"anonymous":false},{"type":"event","name":"Paused","inputs":[{"name":"account","type":"address","indexed":false,"internalType":"address"}],"anonymous":false},{"type":"event","name":"PolicyEngineUpdated","inputs":[{"name":"newEngine","type":"address","indexed":true,"internalType":"address"}],"anonymous":false},{"type":"event","name":"RouterUpdated","inputs":[{"name":"newRouter","type":"address","indexed":true,"internalType":"address"}],"anonymous":false},{"type":"event","name":"SwapApproved","inputs":[{"name":"swapId","type":"bytes32","indexed":true,"internalType":"bytes32"},{"name":"approver","type":"address","indexed":true,"internalType":"address"}],"anonymous":false},{"type":"event","name":"SwapBlocked","inputs":[{"name":"swapId","type":"bytes32","indexed":true,"internalType":"bytes32"},{"name":"riskScore","type":"uint256","indexed":false,"internalType":"uint256"},{"name":"reason","type":"string","indexed":false,"internalType":"string"}],"anonymous":false},{"type":"event","name":"SwapCompleted","inputs":[{"name":"swapId","type":"bytes32","indexed":true,"internalType":"bytes32"}],"anonymous":false},{"type":"event","name":"SwapDisputed","inputs":[{"name":"swapId","type":"bytes32","indexed":true,"internalType":"bytes32"},{"name":"disputeId","type":"uint256","indexed":false,"internalType":"uint256"}],"anonymous":false},{"type":"event","name":"SwapRefunded","inputs":[{"name":"swapId","type":"bytes32","indexed":true,"internalType":"bytes32"}],"anonymous":false},{"type":"event","name":"Unpaused","inputs":[{"name":"account","type":"address","indexed":false,"internalType":"address"}],"anonymous":false},{"type":"event","name":"Upgraded","inputs":[{"name":"implementation","type":"address","indexed":true,"internalType":"address"}],"anonymous":false}],"bytecode":{"object":"0x60a08060405234620000df57306080525f549060ff8260081c166200008d575060ff8082160362000052575b604051613d4f9081620000e48239608051818181611c2e01528181611d2d01526121020152f35b60ff90811916175f557f7f26b83ff96e1f2b6a682f133852f6798a09c465da95921460cefb3847402498602060405160ff8152a15f6200002b565b62461bcd60e51b815260206004820152602760248201527f496e697469616c697a61626c653a20636f6e747261637420697320696e697469604482015266616c697a696e6760c81b6064820152608490fd5b5f80fdfe608080604052600436101561001c575b50361561001a575f80fd5b005b5f905f3560e01c9081630845529b14612dca57508063150b7a0214612d735780631bcacb15146127d4578063201ebc571461256457806322c77a88146123cc57806324f6c776146123815780633659cfe6146120dd5780633f4ba83a146120485780634670b41514611f805780634f1ef28614611cde57806352d1902d14611c1b5780635c975abb14611bf85780635eea235f14611a7e5780636135b085146119fa578063654fdcd4146117f15780636cb3e8ef1461172a5780636cf4c88f146116d15780636d218e4814611691578063715018a6146116345780637adbf973146115ef5780637d0eef61146115d05780637dc0d1d0146115a65780638456cb591461154b57806384faaf911461148657806386c4832e146114695780638da5cb5b14611440578063924e63f6146113fb578063927399a5146113d15780639c13cd4d1461133b5780639dcbd55c1461131e578063a3acb6e01461121d578063b646c1941461117f578063be7b8a7714610f09578063c0d7865514610ea0578063c4d66de814610c5f578063c543aa7814610c42578063cc117be014610c23578063d02edadb14610be8578063d3650fb814610b8c578063db355630146108ad578063dea1c2e314610886578063e35468cb146106bc578063f2fde38b1461062b578063f346cc7314610454578063f4fed44a1461027f578063f5a3f4af146102555763f887ea400361000f5734610252578060031936011261025257610136546040516001600160a01b039091168152602090f35b80fd5b5034610252578060031936011261025257610135546040516001600160a01b039091168152602090f35b50346102525761028e36613294565b61029661363a565b81835261012d602081905260408420546001600160a01b039291906102be908416151561330d565b8385526020526040842090600982019081549060ff8216600681101561044057916103296002926102f560018b999897961461350e565b610304600687015442106135c5565b604051602081019182526020815261031b816130ca565b5190206005860154146135fb565b60ff19161790558160028201541691806001830154166003830154843b1561043c576040516323b872dd60e01b81523060048201526001600160a01b0392909216602483015260448201529284908490606490829084905af1928315610431578493610415575b50815460049092015483928392165af16103a86134a4565b50156103da577fcbd087f9a8a65f06ed193f7147c5f9da5d4c1b09a2de92b7f4196854a3e0e7108280a2600160c95580f35b60405162461bcd60e51b8152602060048201526013602482015272115512081d1c985b9cd9995c8819985a5b1959606a1b6044820152606490fd5b61042190939193613065565b61042d5782915f610390565b8280fd5b6040513d86823e3d90fd5b8580fd5b634e487b7160e01b88526021600452602488fd5b50346102525761046336613294565b61046b61363a565b81835261012f6020526040832090600982019081549060ff8216600681101561061757916104d86002926104a460018a9897961461350e565b6104b3600787015442106135c5565b60405160208101918252602081526104ca816130ca565b5190206006860154146135fb565b60ff19161790556002810154600182015460048301546001600160a01b03918216928216803b1561043c576040516323b872dd60e01b8082523060048301526001600160a01b03959095166024820152604481019290925285908290606490829084905af190811561060c5785916105f4575b50506005816003850154169184541693015490803b156105f0576040519283523060048401526001600160a01b0393909316602483015260448201529082908290606490829084905af180156105e5576105cd575b50807fcbd087f9a8a65f06ed193f7147c5f9da5d4c1b09a2de92b7f4196854a3e0e71091a2600160c95580f35b6105d690613065565b6105e157815f6105a0565b5080fd5b6040513d84823e3d90fd5b8480fd5b6105fd90613065565b61060857835f61054b565b8380fd5b6040513d87823e3d90fd5b634e487b7160e01b87526021600452602487fd5b503461025257602036600319011261025257610645612ff2565b61064d613925565b6001600160a01b03811615610668576106659061397d565b80f35b60405162461bcd60e51b815260206004820152602660248201527f4f776e61626c653a206e6577206f776e657220697320746865207a65726f206160448201526564647265737360d01b6064820152608490fd5b5034610252576020806003193601126105e157600435338352610131825260ff90816040852054168015610872575b6106f4906134d3565b80845261012d8084526040852054610716906001600160a01b0316151561330d565b8185528352600960408520019282845416600681101561085e5761082c5781855261012e80825260408620335f5282528360405f2054166107f45782865281526040852090335f525260405f209060ff199160018382541617905582845460081c168381146107e057845461ff00191660019190910160081b61ff001617845533907fbfece94188ca5510ff29b3892f68dc16c81be915972f251498a734915bae128e8680a382549161013254908360081c1610156107d3578380f35b1660011790555f80808380f35b634e487b7160e01b86526011600452602486fd5b60405162461bcd60e51b815260048101839052601060248201526f105b1c9958591e48185c1c1c9bdd995960821b6044820152606490fd5b6064906040519062461bcd60e51b82526004820152600b60248201526a4e6f742070656e64696e6760a81b6044820152fd5b634e487b7160e01b86526021600452602486fd5b506033546001600160a01b031633146106eb565b5034610252578060031936011261025257602060ff6101355460a01c166040519015158152f35b503461025257610120366003190112610252576108c8612ff2565b6108d0613008565b91606435906001600160a01b0382168203610b8857610104356001600160401b0381116105e15761090590369060040161301e565b505061090f61363a565b610917613690565b6001600160a01b03831615610b51576109334260c435116132c2565b60405160208101903360601b82526001600160601b0319808660601b166034830152808760601b1660488301528460601b16605c8201526044356070820152608435609082015260a43560b082015260b0815261098f816130af565b51902091604051946109a086613078565b33865260018060a01b038516602087015260018060a01b0316604086015260018060a01b03166060850152604435608085015260843560a085015260a43560c085015260c43560e085015260e43561010085015280610120850152806101408501528061016085015281815261012f60205260096040822060018060a01b038651166001600160601b0360a01b90818354161782556001820160018060a01b03602089015116828254161790556002820160018060a01b0360408901511682825416179055600382019060018060a01b03606089015116908254161790556080860151600482015560a0860151600582015560c0860151600682015560e08601516007820155610100860151600882015501610120850151946006861015610b3d57610ace602096836132aa565b61014081015182546101609092015162ffff001990921690151560081b61ff00161790151560101b62ff000016179055604051926001600160a01b031690339083907fbc05abd542d726c3fc1972e73dacdc84fcc18a82a650500b6593b18e5418fde09080a4600160c9558152f35b634e487b7160e01b83526021600452602483fd5b60405162461bcd60e51b815260206004820152600f60248201526e24b73b30b634b2103830b93a3c902160891b6044820152606490fd5b5f80fd5b503461025257602036600319011261025257600435610130805482101561042d575f527f2f605e086faac1d93117bbfbc18835d434e9405fadc1ca66faf4b864746daf3401546040516001600160a01b03909116815260209150f35b5034610252578060031936011261025257610c1f604051610c1381610c0c8161318f565b03826130e5565b60405191829182613268565b0390f35b5034610252578060031936011261025257602061013854604051908152f35b503461025257806003193601126102525760206040516103e88152f35b503461025257602036600319011261025257610c79612ff2565b815460ff8160081c161590818092610e93575b8015610e7c575b15610e205760019260ff19918385848316178755610e0f575b50610cc660ff865460081c16610cc1816139c5565b6139c5565b610ccf3361397d565b610d0260ff865460081c16610ce3816139c5565b610cec816139c5565b610cf5816139c5565b8560c955610cc1816139c5565b8160fb541660fb556101339060018060a01b03166001600160601b0360a01b82541617905582610132556102bc61013855610137610d408154613157565b601f8111610dc6575b50601067044514e2d76312e360c41b019055610135805460ff60a01b19169055610d7233613549565b338452610131602052826040852091825416179055610d8f575080f35b60207f7f26b83ff96e1f2b6a682f133852f6798a09c465da95921460cefb38474024989161ff00198454168455604051908152a180f35b81865284601f7f43dc304bb3613567eca51c4fb9e7f3128bc51bba882a32550e891d6cbd8a0fa1920160051c8201915b828110610e04575050610d49565b878155018590610df6565b61ffff19166101011785555f610cac565b60405162461bcd60e51b815260206004820152602e60248201527f496e697469616c697a61626c653a20636f6e747261637420697320616c72656160448201526d191e481a5b9a5d1a585b1a5e995960921b6064820152608490fd5b50303b158015610c935750600160ff821614610c93565b50600160ff821610610c8c565b503461025257602036600319011261025257610eba612ff2565b610ec2613925565b61013680546001600160a01b0319166001600160a01b039290921691821790557f7aed1d3e8155a07ccf395e44ea3109a0e2d6c9b29bbbe9f142d9790596f4dc808280a280f35b506040366003190112610252576004356024356001600160401b03811161042d57610f3890369060040161301e565b9082845261012d60209181835260018060a01b0391610f5e83604089205416151561330d565b858752835260408620916009830180549060ff8216600681101561116b578015908115611160575b501561112a57826001860154163314801561111e575b156110e15761013591838354161561109c5786959388959360a4936004809460ff191617905554169301546040519788958694859363939e793560e01b85528c60048601523360248601526044850152608060648501528160848501528484013781810183018b9052601f01601f1916810103019134905af1801561043157849061104f575b7f0f7c2a08004e0c137167a94f5c0327bbd718b72cdb8ee0034a8ca1b31a5726ae9250604051908152a280f35b508082813d8311611095575b61106581836130e5565b81010312610608577f0f7c2a08004e0c137167a94f5c0327bbd718b72cdb8ee0034a8ca1b31a5726ae9151611022565b503d61105b565b60405162461bcd60e51b815260048101889052601860248201527f44697370757465207265736f6c766572206e6f742073657400000000000000006044820152606490fd5b60405162461bcd60e51b815260206004820152601160248201527004e6f7420706172747920746f207377617607c1b6044820152606490fd5b0390fd5b50828554163314610f9c565b60405162461bcd60e51b815260048101879052600e60248201526d43616e6e6f74206469737075746560901b6044820152606490fd5b60019150145f610f86565b634e487b7160e01b8a52602160045260248afd5b503461025257602036600319011261025257611199612ff2565b6111a1613925565b6001600160a01b0381168083526101316020819052604084205490929060ff166111e5576111ce90613549565b825260205260408120805460ff1916600117905580f35b60405162461bcd60e51b815260206004820152601060248201526f20b63932b0b23c9030b8383937bb32b960811b6044820152606490fd5b5060203660031901126102525760043561123561363a565b80825261012d602081905260408320546001600160a01b03929061125c908416151561330d565b8352602052604082209060018201541633036112ed57600481015434036112b5576009015460ff1660068110156112a1576001611299911461350e565b600160c95580f35b634e487b7160e01b82526021600452602482fd5b60405162461bcd60e51b815260206004820152601060248201526f15dc9bdb99c811551208185b5bdd5b9d60821b6044820152606490fd5b60405162461bcd60e51b81526020600482015260096024820152682737ba10313abcb2b960b91b6044820152606490fd5b503461025257806003193601126102525760206040516102bc8152f35b50346102525760603660031901126102525780611356612ff2565b61135e613008565b90611367613925565b6001600160a01b0316803b156113cd576040516323b872dd60e01b81523060048201526001600160a01b03929092166024830152604480359083015282908290606490829084905af180156105e5576113bd5750f35b6113c690613065565b6102525780f35b5050fd5b5034610252578060031936011261025257610134546040516001600160a01b039091168152602090f35b503461025257602036600319011261025257611415612ff2565b61141d613925565b61013580546001600160a01b0319166001600160a01b0390921691909117905580f35b50346102525780600319360112610252576033546040516001600160a01b039091168152602090f35b503461025257806003193601126102525760206040516103848152f35b503461025257602036600319011261025257604061018091600435815261012f6020522060ff60018060a01b03808354169281600182015416918060028301541690600383015416600483015460058401549060068501549260078601549460096008880154970154976040519a8b5260208b015260408a01526060890152608088015260a087015260c086015260e085015261010084015261152f610120840183831661304b565b818160081c16151561014084015260101c161515610160820152f35b5034610252578060031936011261025257611564613925565b61156c613690565b600160ff1960fb54161760fb557f62e78cea01bee320cd4e420270b5ea74000d11b0c9f74754ebdbfc544b05a2586020604051338152a180f35b5034610252578060031936011261025257610133546040516001600160a01b039091168152602090f35b5034610252578060031936011261025257602061013254604051908152f35b503461025257602036600319011261025257611609612ff2565b611611613925565b61013380546001600160a01b0319166001600160a01b0390921691909117905580f35b503461025257806003193601126102525761164d613925565b603380546001600160a01b031981169091555f906001600160a01b03167f8be0079c531659141344cd1fd0a4f28419497f9722a3daafe3b4186f6b6457e08280a380f35b50346102525760203660031901126102525760209060ff906040906001600160a01b036116bc612ff2565b16815261013184522054166040519015158152f35b5034610252576020366003190112610252576116eb612ff2565b6116f3613925565b60018060a01b0316808252610131908160205261171660ff6040852054166134d3565b825260205260408120805460ff1916905580f35b50346102525780600319360112610252576040518091610130908154808452602080940190819383527f2f605e086faac1d93117bbfbc18835d434e9405fadc1ca66faf4b864746daf3490835b8181106117d4575050508461178d9103856130e5565b60405193838594850191818652518092526040850193925b8281106117b457505050500390f35b83516001600160a01b0316855286955093810193928101926001016117a5565b82546001600160a01b031684529286019260019283019201611777565b5034610252576020806003193601126105e1576004359061181061363a565b81835261012d80825260408420546001600160a01b039190611835908316151561330d565b8385528252604084209060098201805460ff811660068110156104405780159081156119ef575b50156119ba5760068401544210611987579060038794939260ff191617905580600283015416818354166003840154823b1561043c576040516323b872dd60e01b81523060048201526001600160a01b0392909216602483015260448201529084908290606490829084905af1908115610431578491611973575b50504791600481015480931015611917575b83867fc506b8643b74e7a2fbb400c79e929dd5dfffb301fb07afb3b0e8e7c47925cf5a8280a2600160c95580f35b83928392600184930154165af161192c6134a4565b501561193b57828180806118e9565b6064906040519062461bcd60e51b825260048201526011602482015270115512081c99599d5b990819985a5b1959607a1b6044820152fd5b61197c90613065565b61042d57825f6118d7565b60405162461bcd60e51b815260048101869052600b60248201526a139bdd08195e1c1a5c995960aa1b6044820152606490fd5b60405162461bcd60e51b815260048101869052600d60248201526c10d85b9b9bdd081c99599d5b99609a1b6044820152606490fd5b60019150145f61185c565b503461025257602036600319011261025257611a14612ff2565b611a1c613925565b61013480546001600160a01b0319166001600160a01b03929092169182179055610135805460ff60a01b191682151560a01b60ff60a01b161790557fc715e03d65a2da6b90a0e4688aa08dc6764de44c14fa37a13f99a0608f6c52148280a280f35b503461025257602036600319011261025257604061018091611a9e61338a565b50600435815261012f6020522060ff600960405192611abc84613078565b80546001600160a01b039081168552600182015481166020860152600282015481166040860152600382015416606085015260048101546080850152600581015460a0850152600681015460c0850152600781015460e085015260088101546101008501520154611b338282166101208501613301565b818160081c16151561014084015260101c1615156101608201526101606040519160018060a01b03815116835260018060a01b03602082015116602084015260018060a01b03604082015116604084015260018060a01b0360608201511660608401526080810151608084015260a081015160a084015260c081015160c084015260e081015160e0840152610100810151610100840152611bde61012082015161012085019061304b565b610140810151151561014084015201511515610160820152f35b5034610252578060031936011261025257602060ff60fb54166040519015158152f35b50346102525780600319360112610252577f00000000000000000000000000000000000000000000000000000000000000006001600160a01b03163003611c735760206040515f80516020613cfa8339815191528152f35b60405162461bcd60e51b815260206004820152603860248201527f555550535570677261646561626c653a206d757374206e6f742062652063616c60448201527f6c6564207468726f7567682064656c656761746563616c6c00000000000000006064820152608490fd5b50604036600319011261025257611cf3612ff2565b6024356001600160401b03811161042d573660238201121561042d57611d23903690602481600401359101613121565b6001600160a01b037f00000000000000000000000000000000000000000000000000000000000000008116929190611d5d308514156133e2565b611d795f80516020613cfa833981519152948286541614613443565b611d81613925565b7f4910fdfa16fed3260ed0e7147f7cc6da11a60208b5b9406d12a635614ffd91435460ff1615611db75750506106659150613a25565b82919216604051936352d1902d60e01b85526020948581600481865afa5f9181611f51575b50611e3d5760405162461bcd60e51b815260048101879052602e60248201527f45524331393637557067726164653a206e657720696d706c656d656e7461746960448201526d6f6e206973206e6f74205555505360901b6064820152608490fd5b94939403611efa57611e4e82613a25565b7fbc7cd75a20ee27fd9adebab32041f755214dbc6bffa90cc0225b39da2e5c2d3b5f80a2825115801590611ef2575b611e88575b50505080f35b5f80611ee99460405194611e9b86613094565b602786527f416464726573733a206c6f772d6c6576656c2064656c65676174652063616c6c81870152660819985a5b195960ca1b604087015281519101845af4611ee36134a4565b91613c68565b505f8080611e82565b506001611e7d565b60405162461bcd60e51b815260048101849052602960248201527f45524331393637557067726164653a20756e737570706f727465642070726f786044820152681a58589b195555525160ba1b6064820152608490fd5b9091508681813d8311611f79575b611f6981836130e5565b81010312610b885751905f611ddc565b503d611f5f565b503461025257602036600319011261025257604061018091600435815261012d6020522061204660018060a01b03808354169281600182015416916002820154166003820154600483015460058401549060068501549260078601549460096008880154970154976040519a8b5260208b015260408a01526060890152608088015260a087015260c086015260e0850152610100840152612028610120840160ff831661304b565b60ff8160081c1661014084015260ff61016084019160101c16613058565bf35b5034610252578060031936011261025257612061613925565b60fb5460ff8116156120a15760ff191660fb557f5db9ee0a495bf2e6ff9c91a7834c1ba4fdd244a5e8aa4e537bd38aeae4b073aa6020604051338152a180f35b60405162461bcd60e51b815260206004820152601460248201527314185d5cd8589b194e881b9bdd081c185d5cd95960621b6044820152606490fd5b5034610252576020806003193601126105e1576120f8612ff2565b6001600160a01b037f0000000000000000000000000000000000000000000000000000000000000000811690612130308314156133e2565b61214c5f80516020613cfa833981519152928284541614613443565b612154613925565b60405191848301918383106001600160401b0384111761236d578260405286845260ff7f4910fdfa16fed3260ed0e7147f7cc6da11a60208b5b9406d12a635614ffd914354165f146121ae57505050506106659150613a25565b84939416906040516352d1902d60e01b81528681600481865afa5f918161233e575b506122315760405162461bcd60e51b815260048101889052602e60248201527f45524331393637557067726164653a206e657720696d706c656d656e7461746960448201526d6f6e206973206e6f74205555505360901b6064820152608490fd5b959495036122e75761224283613a25565b7fbc7cd75a20ee27fd9adebab32041f755214dbc6bffa90cc0225b39da2e5c2d3b5f80a28351158015906122e0575b61227d575b5050505080f35b5f80916122d6957f416464726573733a206c6f772d6c6576656c2064656c65676174652063616c6c604051966122b288613094565b60278852870152660819985a5b195960ca1b60408701525190845af4611ee36134a4565b505f808080612276565b505f612271565b60405162461bcd60e51b815260048101859052602960248201527f45524331393637557067726164653a20756e737570706f727465642070726f786044820152681a58589b195555525160ba1b6064820152608490fd5b9091508781813d8311612366575b61235681836130e5565b81010312610b885751905f6121d0565b503d61234c565b634e487b7160e01b5f52604160045260245ffd5b503461025257604036600319011261025257604061239d613008565b91600435815261012e602052209060018060a01b03165f52602052602060ff60405f2054166040519015158152f35b5034610252576020366003190112610252576040906123e961338a565b50600435815261012d6020522060096040519161240583613078565b80546001600160a01b03908116845260018201548116602085015260028201541660408401526003810154606084015260048101546080840152600581015460a0840152600681015460c0840152600781015460e0840152600881015461010084015201549061247c60ff83166101208301613301565b60ff8260081c16610140820152600260ff8360101c1610156125505760ff6101809260101c166101608201526120466101606040519260018060a01b03815116845260018060a01b03602082015116602085015260018060a01b036040820151166040850152606081015160608501526080810151608085015260a081015160a085015260c081015160c085015260e081015160e085015261010081015161010085015261253461012082015161012086019061304b565b60ff610140820151166101408501520151610160830190613058565b634e487b7160e01b5f52602160045260245ffd5b50346102525760203660031901126102525760043561258161363a565b80825261012f6020526040822080546001600160a01b0390811692906125a884151561330d565b600983019384549060ff82166006811015610440576127a05733036126c7575061010084546125dd60ff8260081c161561334a565b61ff0019161784556002830185600483835416950194855490803b1561042d576040516323b872dd60e01b8152336004820152306024820152604481019290925282908290606490829084905af180156105e5576126b3575b505054925460408051929094166001600160a01b03168252602082015233927f3a2446e77599b001d6e7f8d965d64c3ec2c5222ba2a3f1cba8ad884dd7f8349d91a35b805460ff8160081c16806126a6575b612696575b82600160c95580f35b60ff191660011790555f8061268d565b5060ff8160101c16612688565b6126bc90613065565b61043c57855f612636565b8160018501541633145f146110e157806126eb60ff620100009360101c161561334a565b62ff000019161784556003830185600583835416950194855490803b1561042d576040516323b872dd60e01b8152336004820152306024820152604481019290925282908290606490829084905af180156105e55761278c575b505054925460408051929094166001600160a01b03168252602082015233927f3a2446e77599b001d6e7f8d965d64c3ec2c5222ba2a3f1cba8ad884dd7f8349d91a3612679565b61279590613065565b61043c57855f612745565b60405162461bcd60e51b815260206004820152600c60248201526b57726f6e672073746174757360a01b6044820152606490fd5b503461025257610120366003190112610252576127ef612ff2565b906127f8613008565b90610104356001600160401b0381116105e15761281990369060040161301e565b61282161363a565b612829613690565b6001600160a01b03851615612d3e576001600160a01b03841615612d025760643515612ccb5761285c4260a435116132c2565b6103e860c43511612c915761287f9160e43560c435606435604435888a336136d4565b15612c58576040513360601b60208201526001600160601b0319808560601b1660348301528360601b166048820152604435605c820152608435607c82015260a435609c820152609c81528060c08101106001600160401b0360c08301111761236d5760c08101604052602081519101209182825261012d60205260018060a01b03604083205416612c255761291e60e43560c43560643587336137a4565b9360405161292b81613078565b3381526001600160a01b038281166020830152831660408201526044356060820152606435608082015260843560a082015260a43560c082015260c43560e082015260e435610100820152612984866101208301613301565b836101408201528361016082015284845261012d60205260096040852060018060a01b038351166001600160601b0360a01b90818354161782556001820160018060a01b0360208601511682825416179055600282019060018060a01b0360408601511690825416179055606083015160038201556080830151600482015560a0830151600582015560c0830151600682015560e0830151600782015561010083015160088201550190610120810151600681101561085e5790612a4b61016092846132aa565b610140810151835461ff00191660089190911b61ff001617835501516002811015612c1157815462ff0000191660109190911b62ff0000161790556001600160a01b0382163b1561042d576040516323b872dd60e01b815233600482015230602482015260448035908201528381606481836001600160a01b0388165af1801561043157908491612bfd575b5050604080516001600160a01b038481168252604435602083015260643592820192909252911690339085907fcfc53b0548d69b84d9ec15b34286b409e0860c733f0f8ee6526525d31b27748490606090a4604080516001600160a01b039290921682526044356020830152339184917f3a2446e77599b001d6e7f8d965d64c3ec2c5222ba2a3f1cba8ad884dd7f8349d91a36006831015612be95750600560209214612b8c575b600160c955604051908152f35b807f10a73ecfb51336692e5b1f0e550606ceda6a678b2473b42adadee3216aef3fde608060405160c435815260408682015260156040820152742434b3b4103934b9b5903a3930b739b0b1ba34b7b760591b6060820152a2612b7f565b634e487b7160e01b81526021600452602490fd5b612c0690613065565b61042d57825f612ad7565b634e487b7160e01b85526021600452602485fd5b60405162461bcd60e51b815260206004820152600b60248201526a537761702065786973747360a81b6044820152606490fd5b60405162461bcd60e51b8152602060048201526011602482015270496e76616c6964207369676e617475726560781b6044820152606490fd5b60405162461bcd60e51b8152602060048201526012602482015271496e76616c6964207269736b2073636f726560701b6044820152606490fd5b60405162461bcd60e51b815260206004820152600f60248201526e16995c9bc811551208185b5bdd5b9d608a1b6044820152606490fd5b60405162461bcd60e51b8152602060048201526014602482015273125b9d985b1a59081391950818dbdb9d1c9858dd60621b6044820152606490fd5b60405162461bcd60e51b815260206004820152600d60248201526c24b73b30b634b210313abcb2b960991b6044820152606490fd5b503461025257608036600319011261025257612d8d612ff2565b50612d96613008565b506064356001600160401b0381116105e157612db690369060040161301e565b5050604051630a85bd0160e11b8152602090f35b905034610b88576040366003190112610b885760043590602435908115158203610b8857610135546001600160a01b03919082163303612fb85750825f5261012d60205260405f2060098101805460ff8116600681101561255057600403612f8457869415612ed75750600260ff1982541617905560038260028301541692600183015416910154823b15610608576040516323b872dd60e01b81523060048201526001600160a01b0392909216602483015260448201529082908290606490829084905af180156105e557612ec3575b50807fcbd087f9a8a65f06ed193f7147c5f9da5d4c1b09a2de92b7f4196854a3e0e71091a280f35b612ecc90613065565b6105e157815f612e9b565b6003919293945060ff191617905560038260028301541692825416910154823b15610b88576040516323b872dd60e01b81523060048201526001600160a01b039290921660248301526044820152905f908290606490829084905af18015612f7957612f66575b507fc506b8643b74e7a2fbb400c79e929dd5dfffb301fb07afb3b0e8e7c47925cf5a8280a280f35b612f71919250613065565b5f905f612f3e565b6040513d5f823e3d90fd5b60405162461bcd60e51b815260206004820152600c60248201526b139bdd08191a5cdc1d5d195960a21b6044820152606490fd5b62461bcd60e51b815260206004820152601560248201527427b7363c903234b9b83aba32903932b9b7b63b32b960591b6044820152606490fd5b600435906001600160a01b0382168203610b8857565b602435906001600160a01b0382168203610b8857565b9181601f84011215610b88578235916001600160401b038311610b885760208381860195010111610b8857565b9060068210156125505752565b9060028210156125505752565b6001600160401b03811161236d57604052565b61018081019081106001600160401b0382111761236d57604052565b606081019081106001600160401b0382111761236d57604052565b60e081019081106001600160401b0382111761236d57604052565b604081019081106001600160401b0382111761236d57604052565b90601f801991011681019081106001600160401b0382111761236d57604052565b6001600160401b03811161236d57601f01601f191660200190565b92919261312d82613106565b9161313b60405193846130e5565b829481845281830111610b88578281602093845f960137010152565b90600182811c92168015613185575b602083101461317157565b634e487b7160e01b5f52602260045260245ffd5b91607f1691613166565b905f91610137908154916131a283613157565b8083529260209160019182811690811561322057506001146131c6575b5050505050565b90939495505f527f43dc304bb3613567eca51c4fb9e7f3128bc51bba882a32550e891d6cbd8a0fa1925f935b85851061320d57505050602092500101905f808080806131bf565b80548585018401529382019381016131f2565b9350505050602093945060ff929192191683830152151560051b0101905f808080806131bf565b5f5b8381106132585750505f910152565b8181015183820152602001613249565b604091602082526132888151809281602086015260208686019101613247565b601f01601f1916010190565b6040906003190112610b88576004359060243590565b9060068110156125505760ff80198354169116179055565b156132c957565b60405162461bcd60e51b815260206004820152601060248201526f496e76616c69642074696d656c6f636b60801b6044820152606490fd5b60068210156125505752565b1561331457565b60405162461bcd60e51b815260206004820152600e60248201526d14ddd85c081b9bdd08199bdd5b9960921b6044820152606490fd5b1561335157565b60405162461bcd60e51b8152602060048201526011602482015270105b1c9958591e4819195c1bdcda5d1959607a1b6044820152606490fd5b6040519061339782613078565b5f610160838281528260208201528260408201528260608201528260808201528260a08201528260c08201528260e08201528261010082015282610120820152826101408201520152565b156133e957565b60405162461bcd60e51b815260206004820152602c60248201527f46756e6374696f6e206d7573742062652063616c6c6564207468726f7567682060448201526b19195b1959d85d1958d85b1b60a21b6064820152608490fd5b1561344a57565b60405162461bcd60e51b815260206004820152602c60248201527f46756e6374696f6e206d7573742062652063616c6c6564207468726f7567682060448201526b6163746976652070726f787960a01b6064820152608490fd5b3d156134ce573d906134b582613106565b916134c360405193846130e5565b82523d5f602084013e565b606090565b156134da57565b60405162461bcd60e51b815260206004820152600c60248201526b2737ba1030b8383937bb32b960a11b6044820152606490fd5b1561351557565b60405162461bcd60e51b815260206004820152600c60248201526b139bdd08185c1c1c9bdd995960a21b6044820152606490fd5b6101308054906801000000000000000082101561236d57600182018082558210156135b1575f527f2f605e086faac1d93117bbfbc18835d434e9405fadc1ca66faf4b864746daf340180546001600160a01b0319166001600160a01b03909216919091179055565b634e487b7160e01b5f52603260045260245ffd5b156135cc57565b60405162461bcd60e51b8152602060048201526007602482015266115e1c1a5c995960ca1b6044820152606490fd5b1561360257565b60405162461bcd60e51b815260206004820152601060248201526f496e76616c696420707265696d61676560801b6044820152606490fd5b600260c9541461364b57600260c955565b60405162461bcd60e51b815260206004820152601f60248201527f5265656e7472616e637947756172643a207265656e7472616e742063616c6c006044820152606490fd5b60ff60fb541661369c57565b60405162461bcd60e51b815260206004820152601060248201526f14185d5cd8589b194e881c185d5cd95960821b6044820152606490fd5b909294979395969160018060a01b0397886101335416998a156137945761378f9861378798613781976040519560208701976001600160601b03199283809260601b168a5260601b16603488015260601b166048860152605c850152607c840152609c83015260bc82015260bc815261374c816130af565b5190207f19457468657265756d205369676e6564204d6573736167653a0a3332000000005f52601c52603c5f20923691613121565b90613ab4565b919091613ae9565b161490565b5050505050505050505050600190565b93929391909160ff6101355460a01c1680613910575b6137e6575050610384831091506137d390505750600590565b6101385411156137e257600190565b5f90565b935f80949560018060a01b0396879384610134541695604051998a9889978896636c910d3d60e11b88521660048701521660248501526044840152606483015260c0608483015261383960c4830161318f565b9060a483015203925af1908115612f79575f9161388a575b50600481101561255057600381036138695750600590565b6002811490811561387f575b506137e257600190565b60019150145f613875565b90503d805f833e61389b81836130e5565b8101604082820312610b88578151916004831015610b88576020810151906001600160401b038211610b88570181601f82011215610b88578051906138df82613106565b926138ed60405194856130e5565b82845260208383010111610b885760208061390a94019101613247565b5f613851565b50610134546001600160a01b031615156137ba565b6033546001600160a01b0316330361393957565b606460405162461bcd60e51b815260206004820152602060248201527f4f776e61626c653a2063616c6c6572206973206e6f7420746865206f776e65726044820152fd5b603380546001600160a01b039283166001600160a01b0319821681179092559091167f8be0079c531659141344cd1fd0a4f28419497f9722a3daafe3b4186f6b6457e05f80a3565b156139cc57565b60405162461bcd60e51b815260206004820152602b60248201527f496e697469616c697a61626c653a20636f6e7472616374206973206e6f74206960448201526a6e697469616c697a696e6760a81b6064820152608490fd5b803b15613a59575f80516020613cfa83398151915280546001600160a01b0319166001600160a01b03909216919091179055565b60405162461bcd60e51b815260206004820152602d60248201527f455243313936373a206e657720696d706c656d656e746174696f6e206973206e60448201526c1bdd08184818dbdb9d1c9858dd609a1b6064820152608490fd5b9060418151145f14613ae057613adc91602082015190606060408401519301515f1a90613bed565b9091565b50505f90600290565b60058110156125505780613afa5750565b60018103613b475760405162461bcd60e51b815260206004820152601860248201527f45434453413a20696e76616c6964207369676e617475726500000000000000006044820152606490fd5b60028103613b945760405162461bcd60e51b815260206004820152601f60248201527f45434453413a20696e76616c6964207369676e6174757265206c656e677468006044820152606490fd5b600314613b9d57565b60405162461bcd60e51b815260206004820152602260248201527f45434453413a20696e76616c6964207369676e6174757265202773272076616c604482015261756560f01b6064820152608490fd5b7f7fffffffffffffffffffffffffffffff5d576e7357a4501ddfe92f46681b20a08411613c5d576020935f9360ff60809460405194855216868401526040830152606082015282805260015afa15612f79575f516001600160a01b03811615613c5557905f90565b505f90600190565b505050505f90600390565b91929015613cca5750815115613c7c575090565b3b15613c855790565b60405162461bcd60e51b815260206004820152601d60248201527f416464726573733a2063616c6c20746f206e6f6e2d636f6e74726163740000006044820152606490fd5b825190915015613cdd5750805190602001fd5b60405162461bcd60e51b815290819061111a906004830161326856fe360894a13ba1a3210667c828492db98dca3e2076cc3735a920a3ca505d382bbca26469706673582212201253243303751c75d93a65eb4b3954bcdd959c63a1f10a7bd3ddb87774e3bce964736f6c63430008180033","linkReferences":{}},"methodIdentifiers":{"BLOCK_THRESHOLD()":"86c4832e","HIGH_RISK_THRESHOLD()":"9dcbd55c","RISK_SCALE()":"c543aa78","activeModelVersion()":"d02edadb","addApprover(address)":"b646c194","approvalThreshold()":"7d0eef61","approvals(bytes32,address)":"24f6c776","approveSwap(bytes32)":"e35468cb","approvers(uint256)":"d3650fb8","completeNFTSwap(bytes32,bytes32)":"f4fed44a","completeNFTtoNFTSwap(bytes32,bytes32)":"f346cc73","depositETHForNFT(bytes32)":"a3acb6e0","depositNFTForSwap(bytes32)":"201ebc57","disputeResolver()":"f5a3f4af","executeDisputeRuling(bytes32,bool)":"0845529b","getApprovers()":"6cb3e8ef","getNFTSwap(bytes32)":"22c77a88","getNFTtoNFTSwap(bytes32)":"5eea235f","globalRiskThreshold()":"cc117be0","initialize(address)":"c4d66de8","initiateNFTtoETHSwap(address,address,uint256,uint256,bytes32,uint256,uint256,bytes32,bytes)":"1bcacb15","initiateNFTtoNFTSwap(address,address,uint256,address,uint256,bytes32,uint256,uint256,bytes)":"db355630","isApprover(address)":"6d218e48","nftSwaps(bytes32)":"4670b415","nftToNftSwaps(bytes32)":"84faaf91","onERC721Received(address,address,uint256,bytes)":"150b7a02","oracle()":"7dc0d1d0","owner()":"8da5cb5b","pause()":"8456cb59","paused()":"5c975abb","policyEngine()":"927399a5","policyEngineEnabled()":"dea1c2e3","proxiableUUID()":"52d1902d","raiseDispute(bytes32,string)":"be7b8a77","refundNFTSwap(bytes32)":"654fdcd4","removeApprover(address)":"6cf4c88f","renounceOwnership()":"715018a6","rescueNFT(address,address,uint256)":"9c13cd4d","router()":"f887ea40","setDisputeResolver(address)":"924e63f6","setOracle(address)":"7adbf973","setPolicyEngine(address)":"6135b085","setRouter(address)":"c0d78655","transferOwnership(address)":"f2fde38b","unpause()":"3f4ba83a","upgradeTo(address)":"3659cfe6","upgradeToAndCall(address,bytes)":"4f1ef286"},"id":10}