{"abi":[{"type":"constructor","inputs":[],"stateMutability":"nonpayable"},{"type":"receive","stateMutability":"payable"},{"type":"function","name":"BLOCK_THRESHOLD","inputs":[],"outputs":[{"name":"","type":"uint256","internalType":"uint256"}],"stateMutability":"view"},{"type":"function","name":"HIGH_RISK_THRESHOLD","inputs":[],"outputs":[{"name":"","type":"uint256","internalType":"uint256"}],"stateMutability":"view"},{"type":"function","name":"MAX_ORACLES","inputs":[],"outputs":[{"name":"","type":"uint256","internalType":"uint256"}],"stateMutability":"view"},{"type":"function","name":"RISK_SCALE","inputs":[],"outputs":[{"name":"","type":"uint256","internalType":"uint256"}],"stateMutability":"view"},{"type":"function","name":"SIGNATURE_VALIDITY","inputs":[],"outputs":[{"name":"","type":"uint256","internalType":"uint256"}],"stateMutability":"view"},{"type":"function","name":"TIMELOCK_DELAY","inputs":[],"outputs":[{"name":"","type":"uint256","internalType":"uint256"}],"stateMutability":"view"},{"type":"function","name":"UPGRADE_TIMELOCK","inputs":[],"outputs":[{"name":"","type":"uint256","internalType":"uint256"}],"stateMutability":"view"},{"type":"function","name":"activeModelVersion","inputs":[],"outputs":[{"name":"","type":"string","internalType":"string"}],"stateMutability":"view"},{"type":"function","name":"addApprover","inputs":[{"name":"_approver","type":"address","internalType":"address"}],"outputs":[],"stateMutability":"nonpayable"},{"type":"function","name":"addOracle","inputs":[{"name":"_oracle","type":"address","internalType":"address"}],"outputs":[],"stateMutability":"nonpayable"},{"type":"function","name":"approvalThreshold","inputs":[],"outputs":[{"name":"","type":"uint256","internalType":"uint256"}],"stateMutability":"view"},{"type":"function","name":"approvals","inputs":[{"name":"","type":"bytes32","internalType":"bytes32"},{"name":"","type":"address","internalType":"address"}],"outputs":[{"name":"","type":"bool","internalType":"bool"}],"stateMutability":"view"},{"type":"function","name":"approveSwap","inputs":[{"name":"swapId","type":"bytes32","internalType":"bytes32"}],"outputs":[],"stateMutability":"nonpayable"},{"type":"function","name":"approvers","inputs":[{"name":"","type":"uint256","internalType":"uint256"}],"outputs":[{"name":"","type":"address","internalType":"address"}],"stateMutability":"view"},{"type":"function","name":"batchApproveSwaps","inputs":[{"name":"swapIds","type":"bytes32[]","internalType":"bytes32[]"}],"outputs":[],"stateMutability":"nonpayable"},{"type":"function","name":"batchSetUserPolicies","inputs":[{"name":"users","type":"address[]","internalType":"address[]"},{"name":"dailyLimits","type":"uint128[]","internalType":"uint128[]"},{"name":"singleTxLimits","type":"uint128[]","internalType":"uint128[]"},{"name":"kycStatuses","type":"bool[]","internalType":"bool[]"}],"outputs":[],"stateMutability":"nonpayable"},{"type":"function","name":"cancelTimelock","inputs":[{"name":"operationId","type":"bytes32","internalType":"bytes32"}],"outputs":[],"stateMutability":"nonpayable"},{"type":"function","name":"completeSwap","inputs":[{"name":"swapId","type":"bytes32","internalType":"bytes32"},{"name":"preimage","type":"bytes32","internalType":"bytes32"}],"outputs":[],"stateMutability":"nonpayable"},{"type":"function","name":"dailyVolume","inputs":[],"outputs":[{"name":"","type":"uint256","internalType":"uint256"}],"stateMutability":"view"},{"type":"function","name":"dailyVolumeLimit","inputs":[],"outputs":[{"name":"","type":"uint256","internalType":"uint256"}],"stateMutability":"view"},{"type":"function","name":"disputeResolver","inputs":[],"outputs":[{"name":"","type":"address","internalType":"contract IAMTTPDisputeResolver"}],"stateMutability":"view"},{"type":"function","name":"executeDisputeRuling","inputs":[{"name":"swapId","type":"bytes32","internalType":"bytes32"},{"name":"releaseToSeller","type":"bool","internalType":"bool"}],"outputs":[],"stateMutability":"nonpayable"},{"type":"function","name":"executeSetDisputeResolver","inputs":[{"name":"operationId","type":"bytes32","internalType":"bytes32"},{"name":"_disputeResolver","type":"address","internalType":"address"}],"outputs":[],"stateMutability":"nonpayable"},{"type":"function","name":"executeSetOracle","inputs":[{"name":"operationId","type":"bytes32","internalType":"bytes32"},{"name":"newOracle","type":"address","internalType":"address"}],"outputs":[],"stateMutability":"nonpayable"},{"type":"function","name":"executeSetPolicyEngine","inputs":[{"name":"operationId","type":"bytes32","internalType":"bytes32"},{"name":"_policyEngine","type":"address","internalType":"address"}],"outputs":[],"stateMutability":"nonpayable"},{"type":"function","name":"executeUpgrade","inputs":[{"name":"upgradeId","type":"bytes32","internalType":"bytes32"}],"outputs":[],"stateMutability":"nonpayable"},{"type":"function","name":"feeRecipient","inputs":[],"outputs":[{"name":"","type":"address","internalType":"address"}],"stateMutability":"view"},{"type":"function","name":"getApprovers","inputs":[],"outputs":[{"name":"","type":"address[]","internalType":"address[]"}],"stateMutability":"view"},{"type":"function","name":"getContractStatus","inputs":[],"outputs":[{"name":"_policyEngine","type":"address","internalType":"address"},{"name":"_disputeResolver","type":"address","internalType":"address"},{"name":"_oracleCount","type":"uint256","internalType":"uint256"},{"name":"_oracleThreshold","type":"uint256","internalType":"uint256"},{"name":"_policyEnabled","type":"bool","internalType":"bool"},{"name":"_riskThreshold","type":"uint256","internalType":"uint256"},{"name":"_modelVersion","type":"string","internalType":"string"}],"stateMutability":"view"},{"type":"function","name":"getDailyVolumeStatus","inputs":[],"outputs":[{"name":"currentVolume","type":"uint256","internalType":"uint256"},{"name":"limit","type":"uint256","internalType":"uint256"},{"name":"remaining","type":"uint256","internalType":"uint256"},{"name":"resetTimestamp","type":"uint256","internalType":"uint256"}],"stateMutability":"view"},{"type":"function","name":"getOracles","inputs":[],"outputs":[{"name":"","type":"address[5]","internalType":"address[5]"},{"name":"","type":"uint256","internalType":"uint256"},{"name":"","type":"uint256","internalType":"uint256"}],"stateMutability":"view"},{"type":"function","name":"getSwap","inputs":[{"name":"swapId","type":"bytes32","internalType":"bytes32"}],"outputs":[{"name":"","type":"tuple","internalType":"struct AMTTPCoreSecure.Swap","components":[{"name":"buyer","type":"address","internalType":"address"},{"name":"status","type":"uint8","internalType":"enum AMTTPCoreSecure.SwapStatus"},{"name":"approvalCount","type":"uint8","internalType":"uint8"},{"name":"assetType","type":"uint8","internalType":"enum AMTTPCoreSecure.AssetType"},{"name":"seller","type":"address","internalType":"address"},{"name":"token","type":"address","internalType":"address"},{"name":"amount","type":"uint256","internalType":"uint256"},{"name":"hashlock","type":"bytes32","internalType":"bytes32"},{"name":"timelock","type":"uint256","internalType":"uint256"},{"name":"riskScore","type":"uint256","internalType":"uint256"},{"name":"kycHash","type":"bytes32","internalType":"bytes32"}]}],"stateMutability":"view"},{"type":"function","name":"getTimelockItem","inputs":[{"name":"operationId","type":"bytes32","internalType":"bytes32"}],"outputs":[{"name":"","type":"tuple","internalType":"struct AMTTPCoreSecure.TimelockItem","components":[{"name":"executeAfter","type":"uint256","internalType":"uint256"},{"name":"data","type":"bytes","internalType":"bytes"},{"name":"executed","type":"bool","internalType":"bool"}]}],"stateMutability":"view"},{"type":"function","name":"globalRiskThreshold","inputs":[],"outputs":[{"name":"","type":"uint256","internalType":"uint256"}],"stateMutability":"view"},{"type":"function","name":"governance","inputs":[],"outputs":[{"name":"","type":"address","internalType":"address"}],"stateMutability":"view"},{"type":"function","name":"healthCheck","inputs":[],"outputs":[{"name":"isPaused","type":"bool","internalType":"bool"},{"name":"currentDailyVolume","type":"uint256","internalType":"uint256"},{"name":"volumeLimit","type":"uint256","internalType":"uint256"},{"name":"volumeRemaining","type":"uint256","internalType":"uint256"},{"name":"activeOracles","type":"uint256","internalType":"uint256"},{"name":"requiredOracles","type":"uint256","internalType":"uint256"},{"name":"contractETHBalance","type":"uint256","internalType":"uint256"},{"name":"protocolFee","type":"uint256","internalType":"uint256"},{"name":"totalFees","type":"uint256","internalType":"uint256"}],"stateMutability":"view"},{"type":"function","name":"initialize","inputs":[{"name":"_oracle","type":"address","internalType":"address"}],"outputs":[],"stateMutability":"nonpayable"},{"type":"function","name":"initiateSwap","inputs":[{"name":"seller","type":"address","internalType":"address"},{"name":"hashlock","type":"bytes32","internalType":"bytes32"},{"name":"timelock","type":"uint256","internalType":"uint256"},{"name":"riskScore","type":"uint256","internalType":"uint256"},{"name":"kycHash","type":"bytes32","internalType":"bytes32"},{"name":"oracleSignatures","type":"bytes[]","internalType":"bytes[]"},{"name":"nonce","type":"uint256","internalType":"uint256"},{"name":"signatureTimestamp","type":"uint256","internalType":"uint256"}],"outputs":[{"name":"swapId","type":"bytes32","internalType":"bytes32"}],"stateMutability":"payable"},{"type":"function","name":"initiateSwapERC20","inputs":[{"name":"seller","type":"address","internalType":"address"},{"name":"token","type":"address","internalType":"address"},{"name":"amount","type":"uint256","internalType":"uint256"},{"name":"hashlock","type":"bytes32","internalType":"bytes32"},{"name":"timelock","type":"uint256","internalType":"uint256"},{"name":"riskScore","type":"uint256","internalType":"uint256"},{"name":"kycHash","type":"bytes32","internalType":"bytes32"},{"name":"oracleSignatures","type":"bytes[]","internalType":"bytes[]"},{"name":"nonce","type":"uint256","internalType":"uint256"},{"name":"signatureTimestamp","type":"uint256","internalType":"uint256"}],"outputs":[{"name":"swapId","type":"bytes32","internalType":"bytes32"}],"stateMutability":"nonpayable"},{"type":"function","name":"isApprover","inputs":[{"name":"","type":"address","internalType":"address"}],"outputs":[{"name":"","type":"bool","internalType":"bool"}],"stateMutability":"view"},{"type":"function","name":"isNonceUsed","inputs":[{"name":"user","type":"address","internalType":"address"},{"name":"nonce","type":"uint256","internalType":"uint256"}],"outputs":[{"name":"","type":"bool","internalType":"bool"}],"stateMutability":"view"},{"type":"function","name":"isOracle","inputs":[{"name":"","type":"address","internalType":"address"}],"outputs":[{"name":"","type":"bool","internalType":"bool"}],"stateMutability":"view"},{"type":"function","name":"isUpgradeApprover","inputs":[{"name":"","type":"address","internalType":"address"}],"outputs":[{"name":"","type":"bool","internalType":"bool"}],"stateMutability":"view"},{"type":"function","name":"lastVolumeResetDay","inputs":[],"outputs":[{"name":"","type":"uint256","internalType":"uint256"}],"stateMutability":"view"},{"type":"function","name":"oracleCount","inputs":[],"outputs":[{"name":"","type":"uint256","internalType":"uint256"}],"stateMutability":"view"},{"type":"function","name":"oracleThreshold","inputs":[],"outputs":[{"name":"","type":"uint256","internalType":"uint256"}],"stateMutability":"view"},{"type":"function","name":"oracles","inputs":[{"name":"","type":"uint256","internalType":"uint256"}],"outputs":[{"name":"","type":"address","internalType":"address"}],"stateMutability":"view"},{"type":"function","name":"owner","inputs":[],"outputs":[{"name":"","type":"address","internalType":"address"}],"stateMutability":"view"},{"type":"function","name":"pause","inputs":[],"outputs":[],"stateMutability":"nonpayable"},{"type":"function","name":"paused","inputs":[],"outputs":[{"name":"","type":"bool","internalType":"bool"}],"stateMutability":"view"},{"type":"function","name":"policyEngine","inputs":[],"outputs":[{"name":"","type":"address","internalType":"contract IAMTTPPolicyEngine"}],"stateMutability":"view"},{"type":"function","name":"policyEngineEnabled","inputs":[],"outputs":[{"name":"","type":"bool","internalType":"bool"}],"stateMutability":"view"},{"type":"function","name":"protocolFeeBps","inputs":[],"outputs":[{"name":"","type":"uint256","internalType":"uint256"}],"stateMutability":"view"},{"type":"function","name":"proxiableUUID","inputs":[],"outputs":[{"name":"","type":"bytes32","internalType":"bytes32"}],"stateMutability":"view"},{"type":"function","name":"queueTimelock","inputs":[{"name":"operation","type":"uint8","internalType":"enum AMTTPCoreSecure.TimelockOperation"},{"name":"data","type":"bytes","internalType":"bytes"}],"outputs":[{"name":"operationId","type":"bytes32","internalType":"bytes32"}],"stateMutability":"nonpayable"},{"type":"function","name":"queueUpgrade","inputs":[{"name":"newImplementation","type":"address","internalType":"address"}],"outputs":[{"name":"upgradeId","type":"bytes32","internalType":"bytes32"}],"stateMutability":"nonpayable"},{"type":"function","name":"raiseDispute","inputs":[{"name":"swapId","type":"bytes32","internalType":"bytes32"},{"name":"evidence","type":"string","internalType":"string"}],"outputs":[],"stateMutability":"payable"},{"type":"function","name":"refundSwap","inputs":[{"name":"swapId","type":"bytes32","internalType":"bytes32"}],"outputs":[],"stateMutability":"nonpayable"},{"type":"function","name":"rejectSwap","inputs":[{"name":"swapId","type":"bytes32","internalType":"bytes32"},{"name":"reason","type":"string","internalType":"string"}],"outputs":[],"stateMutability":"nonpayable"},{"type":"function","name":"removeApprover","inputs":[{"name":"_approver","type":"address","internalType":"address"}],"outputs":[],"stateMutability":"nonpayable"},{"type":"function","name":"removeOracle","inputs":[{"name":"_oracle","type":"address","internalType":"address"}],"outputs":[],"stateMutability":"nonpayable"},{"type":"function","name":"renounceOwnership","inputs":[],"outputs":[],"stateMutability":"nonpayable"},{"type":"function","name":"setActiveModelVersion","inputs":[{"name":"_version","type":"string","internalType":"string"}],"outputs":[],"stateMutability":"nonpayable"},{"type":"function","name":"setApprovalThreshold","inputs":[{"name":"_threshold","type":"uint256","internalType":"uint256"}],"outputs":[],"stateMutability":"nonpayable"},{"type":"function","name":"setDailyVolumeLimit","inputs":[{"name":"_limit","type":"uint256","internalType":"uint256"}],"outputs":[],"stateMutability":"nonpayable"},{"type":"function","name":"setFeeRecipient","inputs":[{"name":"_recipient","type":"address","internalType":"address"}],"outputs":[],"stateMutability":"nonpayable"},{"type":"function","name":"setGlobalRiskThreshold","inputs":[{"name":"_threshold","type":"uint256","internalType":"uint256"}],"outputs":[],"stateMutability":"nonpayable"},{"type":"function","name":"setGovernance","inputs":[{"name":"_governance","type":"address","internalType":"address"}],"outputs":[],"stateMutability":"nonpayable"},{"type":"function","name":"setKYCStatus","inputs":[{"name":"user","type":"address","internalType":"address"},{"name":"verified","type":"bool","internalType":"bool"}],"outputs":[],"stateMutability":"nonpayable"},{"type":"function","name":"setOracleThreshold","inputs":[{"name":"_threshold","type":"uint256","internalType":"uint256"}],"outputs":[],"stateMutability":"nonpayable"},{"type":"function","name":"setProtocolFee","inputs":[{"name":"_feeBps","type":"uint256","internalType":"uint256"}],"outputs":[],"stateMutability":"nonpayable"},{"type":"function","name":"setUpgradeApprover","inputs":[{"name":"approver","type":"address","internalType":"address"},{"name":"approved","type":"bool","internalType":"bool"}],"outputs":[],"stateMutability":"nonpayable"},{"type":"function","name":"setUserPolicy","inputs":[{"name":"user","type":"address","internalType":"address"},{"name":"dailyLimit","type":"uint128","internalType":"uint128"},{"name":"singleTxLimit","type":"uint128","internalType":"uint128"},{"name":"kycVerified","type":"bool","internalType":"bool"},{"name":"trusted","type":"bool","internalType":"bool"}],"outputs":[],"stateMutability":"nonpayable"},{"type":"function","name":"swaps","inputs":[{"name":"","type":"bytes32","internalType":"bytes32"}],"outputs":[{"name":"buyer","type":"address","internalType":"address"},{"name":"status","type":"uint8","internalType":"enum AMTTPCoreSecure.SwapStatus"},{"name":"approvalCount","type":"uint8","internalType":"uint8"},{"name":"assetType","type":"uint8","internalType":"enum AMTTPCoreSecure.AssetType"},{"name":"seller","type":"address","internalType":"address"},{"name":"token","type":"address","internalType":"address"},{"name":"amount","type":"uint256","internalType":"uint256"},{"name":"hashlock","type":"bytes32","internalType":"bytes32"},{"name":"timelock","type":"uint256","internalType":"uint256"},{"name":"riskScore","type":"uint256","internalType":"uint256"},{"name":"kycHash","type":"bytes32","internalType":"bytes32"}],"stateMutability":"view"},{"type":"function","name":"timelockQueue","inputs":[{"name":"","type":"bytes32","internalType":"bytes32"}],"outputs":[{"name":"executeAfter","type":"uint256","internalType":"uint256"},{"name":"data","type":"bytes","internalType":"bytes"},{"name":"executed","type":"bool","internalType":"bool"}],"stateMutability":"view"},{"type":"function","name":"totalFeesCollected","inputs":[],"outputs":[{"name":"","type":"uint256","internalType":"uint256"}],"stateMutability":"view"},{"type":"function","name":"transferOwnership","inputs":[{"name":"newOwner","type":"address","internalType":"address"}],"outputs":[],"stateMutability":"nonpayable"},{"type":"function","name":"unpause","inputs":[],"outputs":[],"stateMutability":"nonpayable"},{"type":"function","name":"upgradeQueue","inputs":[{"name":"","type":"bytes32","internalType":"bytes32"}],"outputs":[{"name":"newImplementation","type":"address","internalType":"address"},{"name":"executeAfter","type":"uint256","internalType":"uint256"},{"name":"executed","type":"bool","internalType":"bool"}],"stateMutability":"view"},{"type":"function","name":"upgradeTo","inputs":[{"name":"newImplementation","type":"address","internalType":"address"}],"outputs":[],"stateMutability":"nonpayable"},{"type":"function","name":"upgradeToAndCall","inputs":[{"name":"newImplementation","type":"address","internalType":"address"},{"name":"data","type":"bytes","internalType":"bytes"}],"outputs":[],"stateMutability":"payable"},{"type":"function","name":"usedNonces","inputs":[{"name":"","type":"bytes32","internalType":"bytes32"}],"outputs":[{"name":"","type":"bool","internalType":"bool"}],"stateMutability":"view"},{"type":"function","name":"userPolicies","inputs":[{"name":"","type":"address","internalType":"address"}],"outputs":[{"name":"dailyLimit","type":"uint128","internalType":"uint128"},{"name":"singleTxLimit","type":"uint128","internalType":"uint128"},{"name":"dailySpent","type":"uint128","internalType":"uint128"},{"name":"lastResetDay","type":"uint64","internalType":"uint64"},{"name":"kycVerified","type":"bool","internalType":"bool"},{"name":"trusted","type":"bool","internalType":"bool"}],"stateMutability":"view"},{"type":"function","name":"withdrawFees","inputs":[{"name":"token","type":"address","internalType":"address"}],"outputs":[],"stateMutability":"nonpayable"},{"type":"event","name":"AdminChanged","inputs":[{"name":"previousAdmin","type":"address","indexed":false,"internalType":"address"},{"name":"newAdmin","type":"address","indexed":false,"internalType":"address"}],"anonymous":false},{"type":"event","name":"ApproverAdded","inputs":[{"name":"approver","type":"address","indexed":true,"internalType":"address"}],"anonymous":false},{"type":"event","name":"ApproverRemoved","inputs":[{"name":"approver","type":"address","indexed":true,"internalType":"address"}],"anonymous":false},{"type":"event","name":"BeaconUpgraded","inputs":[{"name":"beacon","type":"address","indexed":true,"internalType":"address"}],"anonymous":false},{"type":"event","name":"CircuitBreakerTriggered","inputs":[{"name":"dailyVolume","type":"uint256","indexed":false,"internalType":"uint256"},{"name":"dailyVolumeLimit","type":"uint256","indexed":false,"internalType":"uint256"}],"anonymous":false},{"type":"event","name":"DailyVolumeLimitUpdated","inputs":[{"name":"oldLimit","type":"uint256","indexed":false,"internalType":"uint256"},{"name":"newLimit","type":"uint256","indexed":false,"internalType":"uint256"}],"anonymous":false},{"type":"event","name":"DailyVolumeReset","inputs":[{"name":"day","type":"uint256","indexed":false,"internalType":"uint256"},{"name":"previousVolume","type":"uint256","indexed":false,"internalType":"uint256"}],"anonymous":false},{"type":"event","name":"DisputeResolverUpdated","inputs":[{"name":"newResolver","type":"address","indexed":true,"internalType":"address"}],"anonymous":false},{"type":"event","name":"FeeCollected","inputs":[{"name":"swapId","type":"bytes32","indexed":true,"internalType":"bytes32"},{"name":"feeAmount","type":"uint256","indexed":false,"internalType":"uint256"},{"name":"recipient","type":"address","indexed":true,"internalType":"address"}],"anonymous":false},{"type":"event","name":"FeeRecipientUpdated","inputs":[{"name":"oldRecipient","type":"address","indexed":true,"internalType":"address"},{"name":"newRecipient","type":"address","indexed":true,"internalType":"address"}],"anonymous":false},{"type":"event","name":"Initialized","inputs":[{"name":"version","type":"uint8","indexed":false,"internalType":"uint8"}],"anonymous":false},{"type":"event","name":"MEVProtectedSwap","inputs":[{"name":"user","type":"address","indexed":true,"internalType":"address"},{"name":"swapId","type":"bytes32","indexed":true,"internalType":"bytes32"},{"name":"submissionType","type":"string","indexed":false,"internalType":"string"}],"anonymous":false},{"type":"event","name":"NonceUsed","inputs":[{"name":"nonceHash","type":"bytes32","indexed":true,"internalType":"bytes32"},{"name":"user","type":"address","indexed":true,"internalType":"address"}],"anonymous":false},{"type":"event","name":"OracleAdded","inputs":[{"name":"oracle","type":"address","indexed":true,"internalType":"address"},{"name":"index","type":"uint256","indexed":false,"internalType":"uint256"}],"anonymous":false},{"type":"event","name":"OracleRemoved","inputs":[{"name":"oracle","type":"address","indexed":true,"internalType":"address"}],"anonymous":false},{"type":"event","name":"OracleThresholdUpdated","inputs":[{"name":"oldThreshold","type":"uint256","indexed":false,"internalType":"uint256"},{"name":"newThreshold","type":"uint256","indexed":false,"internalType":"uint256"}],"anonymous":false},{"type":"event","name":"OwnershipTransferred","inputs":[{"name":"previousOwner","type":"address","indexed":true,"internalType":"address"},{"name":"newOwner","type":"address","indexed":true,"internalType":"address"}],"anonymous":false},{"type":"event","name":"Paused","inputs":[{"name":"account","type":"address","indexed":false,"internalType":"address"}],"anonymous":false},{"type":"event","name":"PolicyEngineUpdated","inputs":[{"name":"newEngine","type":"address","indexed":true,"internalType":"address"}],"anonymous":false},{"type":"event","name":"ProtocolFeeUpdated","inputs":[{"name":"oldFeeBps","type":"uint256","indexed":false,"internalType":"uint256"},{"name":"newFeeBps","type":"uint256","indexed":false,"internalType":"uint256"}],"anonymous":false},{"type":"event","name":"ProtocolMetrics","inputs":[{"name":"dailyVolume","type":"uint256","indexed":false,"internalType":"uint256"},{"name":"dailySwapCount","type":"uint256","indexed":false,"internalType":"uint256"},{"name":"totalFeesCollected","type":"uint256","indexed":false,"internalType":"uint256"},{"name":"activeOracleCount","type":"uint256","indexed":false,"internalType":"uint256"},{"name":"timestamp","type":"uint256","indexed":false,"internalType":"uint256"}],"anonymous":false},{"type":"event","name":"RiskScoreSubmitted","inputs":[{"name":"swapId","type":"bytes32","indexed":true,"internalType":"bytes32"},{"name":"riskScore","type":"uint256","indexed":false,"internalType":"uint256"},{"name":"modelVersion","type":"string","indexed":false,"internalType":"string"}],"anonymous":false},{"type":"event","name":"SwapAnalytics","inputs":[{"name":"swapId","type":"bytes32","indexed":true,"internalType":"bytes32"},{"name":"buyer","type":"address","indexed":true,"internalType":"address"},{"name":"seller","type":"address","indexed":true,"internalType":"address"},{"name":"amount","type":"uint256","indexed":false,"internalType":"uint256"},{"name":"riskScore","type":"uint256","indexed":false,"internalType":"uint256"},{"name":"assetType","type":"uint8","indexed":false,"internalType":"enum AMTTPCoreSecure.AssetType"},{"name":"modelVersion","type":"string","indexed":false,"internalType":"string"},{"name":"timestamp","type":"uint256","indexed":false,"internalType":"uint256"}],"anonymous":false},{"type":"event","name":"SwapApproved","inputs":[{"name":"swapId","type":"bytes32","indexed":true,"internalType":"bytes32"},{"name":"approver","type":"address","indexed":true,"internalType":"address"}],"anonymous":false},{"type":"event","name":"SwapBlocked","inputs":[{"name":"swapId","type":"bytes32","indexed":true,"internalType":"bytes32"},{"name":"riskScore","type":"uint256","indexed":false,"internalType":"uint256"},{"name":"reason","type":"string","indexed":false,"internalType":"string"}],"anonymous":false},{"type":"event","name":"SwapCompleted","inputs":[{"name":"swapId","type":"bytes32","indexed":true,"internalType":"bytes32"},{"name":"seller","type":"address","indexed":true,"internalType":"address"}],"anonymous":false},{"type":"event","name":"SwapDisputed","inputs":[{"name":"swapId","type":"bytes32","indexed":true,"internalType":"bytes32"},{"name":"disputeId","type":"uint256","indexed":false,"internalType":"uint256"}],"anonymous":false},{"type":"event","name":"SwapInitiated","inputs":[{"name":"swapId","type":"bytes32","indexed":true,"internalType":"bytes32"},{"name":"buyer","type":"address","indexed":true,"internalType":"address"},{"name":"seller","type":"address","indexed":true,"internalType":"address"},{"name":"amount","type":"uint256","indexed":false,"internalType":"uint256"},{"name":"riskScore","type":"uint256","indexed":false,"internalType":"uint256"}],"anonymous":false},{"type":"event","name":"SwapRefunded","inputs":[{"name":"swapId","type":"bytes32","indexed":true,"internalType":"bytes32"},{"name":"buyer","type":"address","indexed":true,"internalType":"address"}],"anonymous":false},{"type":"event","name":"TimelockCancelled","inputs":[{"name":"operationId","type":"bytes32","indexed":true,"internalType":"bytes32"}],"anonymous":false},{"type":"event","name":"TimelockExecuted","inputs":[{"name":"operationId","type":"bytes32","indexed":true,"internalType":"bytes32"},{"name":"operation","type":"uint8","indexed":false,"internalType":"enum AMTTPCoreSecure.TimelockOperation"}],"anonymous":false},{"type":"event","name":"TimelockQueued","inputs":[{"name":"operationId","type":"bytes32","indexed":true,"internalType":"bytes32"},{"name":"operation","type":"uint8","indexed":false,"internalType":"enum AMTTPCoreSecure.TimelockOperation"},{"name":"executeAfter","type":"uint256","indexed":false,"internalType":"uint256"}],"anonymous":false},{"type":"event","name":"Unpaused","inputs":[{"name":"account","type":"address","indexed":false,"internalType":"address"}],"anonymous":false},{"type":"event","name":"Upgraded","inputs":[{"name":"implementation","type":"address","indexed":true,"internalType":"address"}],"anonymous":false},{"type":"event","name":"UserPolicyUpdated","inputs":[{"name":"user","type":"address","indexed":true,"internalType":"address"}],"anonymous":false},{"type":"event","name":"UserRiskProfile","inputs":[{"name":"user","type":"address","indexed":true,"internalType":"address"},{"name":"totalVolume","type":"uint256","indexed":false,"internalType":"uint256"},{"name":"avgRiskScore","type":"uint256","indexed":false,"internalType":"uint256"},{"name":"swapCount","type":"uint256","indexed":false,"internalType":"uint256"},{"name":"kycVerified","type":"bool","indexed":false,"internalType":"bool"},{"name":"timestamp","type":"uint256","indexed":false,"internalType":"uint256"}],"anonymous":false},{"type":"error","name":"AlreadyApproved","inputs":[]},{"type":"error","name":"DailyVolumeLimitExceeded","inputs":[]},{"type":"error","name":"DisputeResolverNotSet","inputs":[]},{"type":"error","name":"ETHTransferFailed","inputs":[]},{"type":"error","name":"ExceedsDailyLimit","inputs":[]},{"type":"error","name":"ExceedsSingleTxLimit","inputs":[]},{"type":"error","name":"InsufficientOracleSignatures","inputs":[]},{"type":"error","name":"InvalidFeeConfiguration","inputs":[]},{"type":"error","name":"InvalidOracleIndex","inputs":[]},{"type":"error","name":"InvalidPreimage","inputs":[]},{"type":"error","name":"InvalidRiskScore","inputs":[]},{"type":"error","name":"InvalidSeller","inputs":[]},{"type":"error","name":"InvalidSignature","inputs":[]},{"type":"error","name":"InvalidTimelock","inputs":[]},{"type":"error","name":"InvalidToken","inputs":[]},{"type":"error","name":"NoETHSent","inputs":[]},{"type":"error","name":"NonceAlreadyUsed","inputs":[]},{"type":"error","name":"NotApprover","inputs":[]},{"type":"error","name":"NotOracle","inputs":[]},{"type":"error","name":"NotPartyToSwap","inputs":[]},{"type":"error","name":"OnlyDisputeResolver","inputs":[]},{"type":"error","name":"OracleAlreadySigned","inputs":[]},{"type":"error","name":"SignatureExpired","inputs":[]},{"type":"error","name":"SwapCannotDispute","inputs":[]},{"type":"error","name":"SwapCannotRefund","inputs":[]},{"type":"error","name":"SwapExists","inputs":[]},{"type":"error","name":"SwapExpired","inputs":[]},{"type":"error","name":"SwapNotApproved","inputs":[]},{"type":"error","name":"SwapNotDisputed","inputs":[]},{"type":"error","name":"SwapNotExpired","inputs":[]},{"type":"error","name":"SwapNotFound","inputs":[]},{"type":"error","name":"SwapNotPending","inputs":[]},{"type":"error","name":"TimelockNotExpired","inputs":[]},{"type":"error","name":"TimelockNotQueued","inputs":[]},{"type":"error","name":"ZeroAmount","inputs":[]}],"bytecode":{"object":"0x60a08060405234620000df57306080525f549060ff8260081c166200008d575060ff8082160362000052575b60405161593b9081620000e48239608051818181613139015281816132380152613f020152f35b60ff90811916175f557f7f26b83ff96e1f2b6a682f133852f6798a09c465da95921460cefb3847402498602060405160ff8152a15f6200002b565b62461bcd60e51b815260206004820152602760248201527f496e697469616c697a61626c653a20636f6e747261637420697320696e697469604482015266616c697a696e6760c81b6064820152608490fd5b5f80fdfe6080604052600436101561001a575b3615610018575f80fd5b005b5f3560e01c80622a40da146146105780630217626c146145f257806303d993b5146144da5780630845529b1461439a578063164e68de1461427657806324f6c7761461422c57806325ed32ca1461302f5780632a73dead14614210578063336f3635146141bd57806335659fb81461419f5780633659cfe614613ede5780633b61eb3614613d3b5780633b6520cb14613c1f5780633da0e66e14613a6e5780633f4ba83a146139db57806340884c52146139305780634690484014613907578063493ca433146134bd5780634f1ef286146131e957806352d1902d14613127578063530ec6dc146130945780635aa6e6751461306b5780635b69a7d8146130345780635ba1c1a91461302f5780635c975abb1461300d57806360c6d8ae14612fef578063613d8fcc14612fd15780636328543614612ef55780636b449b8a14612e3d5780636cb3e8ef14612d785780636cf4c88f14612cc85780636d218e4814612c8a578063715018a614612c2f578063762744db14612b895780637875125414612b3a578063787dce3d14612acc57806378dc3356146129a05780637d0eef61146129825780637dfaa2a9146129645780638456cb591461290b57806386c4832e146128ef57806387a2294414612869578063893c604c146125295780638bb97c02146124085780638da5cb5b146123e0578063927399a5146123b757806393010ab0146121fe57806398c8877e146121e05780639c9f7deb146121b05780639dcbd55c14612194578063a0016b8c14612172578063a3f569ae146120b1578063a6e592bd14612073578063a97e5c9314612035578063ab033ea914611f9d578063af18996414611d29578063b252720b14611c7c578063b646c19414611bbe578063bca0d6be14611a64578063be7b8a77146118b4578063bfedbfa014611899578063c032846b1461180f578063c379a75d146117f1578063c4d66de81461158c578063c543aa7814611570578063c84db3b9146114cd578063c84e2d1814611460578063cab7e8eb146113f8578063cc117be0146113da578063d02edadb1461139f578063d3650fb814611345578063d391d16914611209578063dea1c2e3146111e3578063df5dd1a5146110c2578063e35468cb14610f0d578063e60227551461094e578063e74b981b146108a6578063eb84e7f2146107ed578063eea5237e1461077b578063f2fde38b146106ee578063f5a3f4af146106c5578063fdc85fc414610511578063fe2510ee146103ed5763feb617240361000e57346103e95760203660031901126103e9576004355f5261013b602052602060ff60405f2054166040519015158152f35b5f80fd5b346103e95760203660031901126103e957600435610409614efc565b805f5261012d8060205260018060a01b03908160405f205416156104ff57825f5260205260405f20805460ff8160a01c1660068110156104eb5780151590816104df575b506104cd57600582015442106104bb5761048d90600360a01b60ff60a01b1982161780845560038401548560ff816002880154169360b01c169316614e5d565b5416907fc672feaa452bd52b0000f3d29c943cd9331556ab05529d49e984311220c16c195f80a3600160c955005b6040516314f5e72f60e01b8152600490fd5b604051631d8ba0fd60e31b8152600490fd5b6001915014158561044d565b634e487b7160e01b5f52602160045260245ffd5b6040516305ec69df60e41b8152600490fd5b346103e95760203660031901126103e95761052a614774565b610532614dd6565b60018060a01b0380911690815f5261013a8060205260ff60405f205416156106935761013890815461013954101561065657835f5260205260405f2060ff1981541690555f5b81548082101561064d57600590818310156106255782610133019182549287878516146105ab5750505050600101610578565b909193505f959294951992838501858111610639578311156106255761013294850154166001600160a01b0319958616179055845491820182811161063957101561062557019081541690555b80545f190190557f9c8e7d83025bef8a04c664b2f753f64b8814bdb7e27291d7e50935f18cc3c7125f80a2005b634e487b7160e01b5f52603260045260245ffd5b634e487b7160e01b5f52601160045260245ffd5b505090506105f8565b60405162461bcd60e51b815260206004820152601560248201527415dbdd5b1908189c99585ac81d1a1c995cda1bdb19605a1b6044820152606490fd5b60405162461bcd60e51b815260206004820152600a6024820152694e6f74206f7261636c6560b01b6044820152606490fd5b346103e9575f3660031901126103e957610141546040516001600160a01b039091168152602090f35b346103e95760203660031901126103e957610707614774565b61070f614dd6565b6001600160a01b03811615610727576100189061543a565b60405162461bcd60e51b815260206004820152602660248201527f4f776e61626c653a206e6577206f776e657220697320746865207a65726f206160448201526564647265737360d01b6064820152608490fd5b346103e95760203660031901126103e957600435610797614dd6565b801515806107e0575b6107a990614d2e565b6101397fce35dc86071f6f15ee1cff2b7d53df791583cfd9071532181f5c05364de8147e604082548151908152846020820152a155005b50610138548111156107a0565b346103e95760203660031901126103e9576004355f5261012d60205261016060405f20805460018060a01b03918260018201541683600283015416600383015460048401549160058501549361087e60076006880154970154976040519981168a5261086260208b0160ff8360a01c166147cc565b60ff8160a81c1660408b015260ff60608b019160b01c166147d9565b608088015260a087015260c086015260e0850152610100840152610120830152610140820152f35b346103e95760203660031901126103e9576108bf614774565b6108c7614dd6565b6001600160a01b03908116801561091557610148918183549182167faaebcf1bfa00580e41d966056b48521fa9f202645c86d4ddf28113e617c1b1d35f80a36001600160a01b031916179055005b60405162461bcd60e51b8152602060048201526011602482015270125b9d985b1a59081c9958da5c1a595b9d607a1b6044820152606490fd5b6101003660031901126103e957610963614774565b60a4356001600160401b0381116103e9576109829036906004016147e6565b61098d929192614efc565b610995614f52565b3415610efb576001600160a01b03821615610ee957426044351115610ed7576103e860643511610ec5576040513360601b6001600160601b0319166020820190815260c4356034830152466054830152906109fd81607481015b03601f19810183528261489e565b51902092835f5261013b60205260ff60405f205416610eb457835f5261013b60205260405f20600160ff198254161790556040519333907fabaa20a7409f654576020b2eb2bd09961d12bb1b297018ebbf8310528d4127335f80a361012c60e435018060e43511610639574211610ea55790610a879160e43560c435608435606435348833614fa7565b15610e9357335f5261012f60205260405f2080548060801c80610e75575b506001600160801b03169081610e11575b5050610ac1346151a1565b60405160208101903360601b82526001600160601b03198360601b1660348201526024356048820152604435606882015242608882015260888152610b0581614831565b5190205f81815261012d60205260409020546001600160a01b0316610dff57610b35608435606435348533615276565b91604051610b428161484c565b338152610b528460208301614c77565b5f60408201525f606082015260018060a01b03821660808201525f60a08201523460c082015260243560e0820152604435610100820152606435610120820152608435610140820152825f5261012d60205260405f209060018060a01b03815116906001600160601b0360a01b9182845416178355602081015160068110156104eb57610bdf9084614b19565b6040810151835460ff60a81b191660a89190911b60ff60a81b1617835560608101519060028210156104eb576007926101409285549060ff60b01b9060b01b169060ff60b01b19161785556001850160018060a01b0360808401511682825416179055600285019060018060a01b0360a0840151169082541617905560c0810151600385015560e08101516004850155610100810151600585015561012081015160068501550151910155335f5261012f60205260405f2060016001600160401b0362015180420416910190815490806001600160401b038360801c1610610dd6575b505080546001600160801b038034168183160116906001600160801b03191617905560405190348252606435602083015260018060a01b031690827fd514471591f77c1c9e0013ff2994f4264d077d6352187ce4bfb5bc8f437209c960403393a4807f34227c764c0d15545a683016d32e5567d0f44e234713123b75b65478addf471f60405160643581526040602082015280610d61604082016149c1565b0390a260068210156104eb57600560209214610d85575b600160c955604051908152f35b807f10a73ecfb51336692e5b1f0e550606ceda6a678b2473b42adadee3216aef3fde60806040516064358152604086820152600960408201526848696768207269736b60b81b6060820152a2610d78565b6001600160c01b031990911660809190911b67ffffffffffffffff60801b161781558480610cc2565b604051631d5a99a160e01b8152600490fd5b600101546201518042046001600160401b038260801c16145f14610e6b576001600160801b03610e4d91165b6001600160801b03349116614b0c565b11610e59578180610ab6565b60405163158081a560e21b8152600490fd5b50610e4d5f610e3d565b3411610e815783610aa5565b6040516365ddd82960e11b8152600490fd5b60405163f3424cb160e01b8152600490fd5b630819bdcd60e01b8452600484fd5b604051623f613760e71b8152600490fd5b6040516330cdce3160e21b8152600490fd5b604051637c68874160e11b8152600490fd5b60405163bab7ca3560e01b8152600490fd5b604051630b7cc7c360e11b8152600490fd5b346103e9576020806003193601126103e957600435335f52610131825260ff908160405f20541615806110ad575b61109b575f81815261012d8085526040909120546001600160a01b0316156104ff57815f52835260405f209282845460a01c1660068110156104eb5761108957815f5261012e80825260405f20335f5282528360405f20541661107757826040517fe8879958f6210518f7b406ca6ac01b1cf8ef3df3fcdc8fb2e0bc46d73de373ec339180610fe6816060906020815260076020820152663ab735b737bbb760c91b60408201520190565b0390a35f838152908252604080822033835290925220805460ff19166001908117909155835460ff60a81b19811660a891821c85169092018416901b60ff60a81b1617835533907fbfece94188ca5510ff29b3892f68dc16c81be915972f251498a734915bae128e5f80a381549061013254908260a81c16101561106657005b60ff60a01b1916600160a01b179055005b60405163080fc0bd60e11b8152600490fd5b604051630fe0fb5160e11b8152600490fd5b604051630197e13360e61b8152600490fd5b506033546001600160a01b0316331415610f3b565b346103e9576020806003193601126103e9576110dc614774565b906110e5614dd6565b6101389081549260058410156111a8576001600160a01b03165f81815261013a80845260409091205460ff16611172576001939461013301826001600160601b0360a01b825416179055815f52825260405f208360ff198254161790557f27e42c8c186bae4ba00900be68f86e7115c0845941300729a6bf8e65f4eddbaf845492604051848152a2019055005b60405162461bcd60e51b815260048101849052600e60248201526d416c7265616479206f7261636c6560901b6044820152606490fd5b60405162461bcd60e51b815260048101839052601360248201527213585e081bdc9858db195cc81c995858da1959606a1b6044820152606490fd5b346103e9575f3660031901126103e957602060ff6101415460a01c166040519015158152f35b346103e95760403660031901126103e95760043561122561478a565b61122d614dd6565b815f5261013c60205260405f2080548015611333574210611321575f805160206158e683398151915291816001600260209401916112bd8261128f85549361127860ff861615614c38565b6112886040518094819301614a66565b038261489e565b8681519101206040519587870190858060a01b0316968782528881526112b481614883565b51902014614c90565b60ff191617905561014080546001600160a01b03191682179055610141805460ff60a01b191682151560a01b60ff60a01b16179055604051907fc715e03d65a2da6b90a0e4688aa08dc6764de44c14fa37a13f99a0608f6c52145f80a260018152a2005b60405163621e25c360e01b8152600490fd5b60405163dfc44acf60e01b8152600490fd5b346103e95760203660031901126103e9576004356101309081548110156103e9576020915f5260018060a01b03907f2f605e086faac1d93117bbfbc18835d434e9405fadc1ca66faf4b864746daf34015416604051908152f35b346103e9575f3660031901126103e9576113d66040516113c281611288816149c1565b604051918291602083526020830190614931565b0390f35b346103e9575f3660031901126103e957602061014354604051908152f35b346103e95760403660031901126103e957611411614774565b60405160609190911b6001600160601b0319166020820190815260243560348301529061144181605481016109ef565b5190205f5261013b602052602060ff60405f2054166040519015158152f35b346103e95760203660031901126103e9576004355f5261013c60205260405f20805460ff6002604051936114a28561149b8160018501614a66565b038661489e565b0154166114c16040519384938452606060208501526060840190614931565b90151560408301520390f35b346103e95760403660031901126103e9576114e6614774565b6114ee6147a0565b61013d546001600160a01b0390811633148015611563575b1561152d5761001892165f5261013e60205260405f209060ff801983541691151516179055565b60405162461bcd60e51b815260206004820152600e60248201526d139bdd08185d5d1a1bdc9a5e995960921b6044820152606490fd5b5080603354163314611506565b346103e9575f3660031901126103e95760206040516103e88152f35b346103e9576020806003193601126103e9576115a6614774565b905f5460ff8160081c1615908180926117e4575b80156117cd575b156117715760019360ff19918386848316175f55611760575b506115f460ff5f5460081c166115ef81615482565b615482565b6115fd3361543a565b61163060ff5f5460081c1661161181615482565b61161a81615482565b61162381615482565b8660c9556115ef81615482565b8160fb541660fb5560018060a01b03166001600160601b0360a01b906101338183825416179055856101385585610139555f5261013a845260405f20858382541617905584610132556102bc6101435561014261168d8154614989565b601f811161172a575b50601067044514e2d76312e360c41b019055610141805460ff60a01b191690556116bf33614d6e565b335f52610131845260405f20858382541617905561013d90339082541617905561013e83528360405f20918254161790556116f657005b7f7f26b83ff96e1f2b6a682f133852f6798a09c465da95921460cefb38474024989161ff00195f54165f55604051908152a1005b815f5286601f5f805160206158a6833981519152920160051c8201915b828110611755575050611696565b5f8155018790611747565b61ffff1916610101175f55856115da565b60405162461bcd60e51b815260048101849052602e60248201527f496e697469616c697a61626c653a20636f6e747261637420697320616c72656160448201526d191e481a5b9a5d1a585b1a5e995960921b6064820152608490fd5b50303b1580156115c15750600160ff8216146115c1565b50600160ff8216106115ba565b346103e9575f3660031901126103e957602061013954604051908152f35b346103e9575f3660031901126103e95761014054610141546101385461013954610143546040516001600160a01b03958616946113d694919360ff9261185f86611858816149c1565b038761489e565b6040519889988952831660208901526040880152606087015260a01c161515608085015260a084015260e060c084015260e0830190614931565b346103e9575f3660031901126103e957602060405160058152f35b6118bd36614956565b90825f5261012d9160209183835260018060a01b03938460405f205416156104ff57855f52835260405f2080549260ff8460a01c1660068110156104eb578015159081611a58575b50611a465785841633141580611a36575b611a2457610141938685541615611a125761197b968695600392600160a21b9060ff60a01b191617855554169201546040519687948593849363939e793560e01b85528b60048601523360248601526044850152608060648501526084840191614d0e565b039134905af18015611a07575f906119ba575b7f0f7c2a08004e0c137167a94f5c0327bbd718b72cdb8ee0034a8ca1b31a5726ae9250604051908152a2005b508082813d8311611a00575b6119d0818361489e565b810103126103e9577f0f7c2a08004e0c137167a94f5c0327bbd718b72cdb8ee0034a8ca1b31a5726ae915161198e565b503d6119c6565b6040513d5f823e3d90fd5b6040516319b812f960e21b8152600490fd5b604051633afa9dfd60e01b8152600490fd5b5085600183015416331415611916565b6040516373d581df60e01b8152600490fd5b60019150141588611905565b346103e95760403660031901126103e957600435611a8061478a565b611a88614dd6565b815f52602061013c815260405f2091825480156113335742106113215760028301611ae96001611ac183549661127860ff891615614c38565b8051908501206040516001600160a01b0390941684860181815286865290946112b481614883565b600160ff19809516179055805f5261013a9283835260ff60405f2054161580611bb1575b611b2b575b845f805160206158e6833981519152846040515f8152a2005b61013893845460058110156106255761013301836001600160601b0360a01b825416179055825f528352600160405f2091825416179055825492600184018091558311610639577f27e42c8c186bae4ba00900be68f86e7115c0845941300729a6bf8e65f4eddbaf825f805160206158e683398151915294604051908152a28380611b12565b5060056101385410611b0d565b346103e95760203660031901126103e957611bd7614774565b611bdf614dd6565b60018060a01b03811690815f52610131908160205260ff60405f205416611c4457611c0990614d6e565b815f5260205260405f20600160ff198254161790557f835bddf1ceee4956e4329af9edf018523c1191238187a597453f6020bcadb0425f80a2005b60405162461bcd60e51b815260206004820152601060248201526f20b63932b0b23c9030b8383937bb32b960811b6044820152606490fd5b346103e9575f3660031901126103e957610146546201518042041115611d1d576101205f5b61014454908115611d155780821115611d0f57611cbe8183614c83565b915b60ff60fb5416926101385461013954904792610147549461014954966040519815158952602089015260408801526060870152608086015260a085015260c084015260e0830152610100820152f35b5f611cbe565b5f1991611cc0565b61012061014554611ca1565b346103e95760403660031901126103e95760043560048110156103e9576001600160401b036024358181116103e957611d66903690600401614747565b919092611d71614dd6565b6040519360209485810190611d8584614ccc565b8360f81b825285836021830137611daf60418288810142602182015203602181018452018261489e565b51902093611dd46202a30042019260405192611dca84614816565b84845236916148da565b86820190815260408201905f8252865f5261013c885260405f2092518355600195600184019151968751918211611f89578897611e118454614989565b8b601f8211611f4f575b50508a91601f8411600114611eb9575093611e9393611e7a847fae47fc9290f3b1885aa453e8f90f106ee610a41acfecdb41b5e0b93142ee9c209a989560029560409b995f92611eae575b50508160011b915f199060031b1c19161790565b90555b51151591019060ff801983541691151516179055565b825191611e9f81614ccc565b825286820152a2604051908152f35b015190508f80611e66565b9190601f198416855f528c805f20945f915b838310611f35575050508460029460409a9894611e9398947fae47fc9290f3b1885aa453e8f90f106ee610a41acfecdb41b5e0b93142ee9c209d9b9860019510611f1d575b505050811b019055611e7d565b01515f1960f88460031b161c191690558e8080611f10565b8486015187558e9d50958101959485019491820191611ecb565b611f7891865f52815f2090601f870160051c8201928710611f7f575b601f0160051c0190614af6565b8b8b611e1b565b9091508190611f6b565b634e487b7160e01b5f52604160045260245ffd5b346103e95760203660031901126103e957611fb6614774565b611fbe614dd6565b6001600160a01b03168015611ffb5761013d80546001600160a01b031916821790555f90815261013e60205260409020805460ff19166001179055005b60405162461bcd60e51b8152602060048201526012602482015271496e76616c696420676f7665726e616e636560701b6044820152606490fd5b346103e95760203660031901126103e9576001600160a01b03612056614774565b165f5261013a602052602060ff60405f2054166040519015158152f35b346103e95760203660031901126103e9576001600160a01b03612094614774565b165f5261013e602052602060ff60405f2054166040519015158152f35b346103e95760403660031901126103e9576120ca614774565b6120d26147a0565b90335f5261013a60205260ff60405f205416158061215d575b61214b576001600160a01b03165f81815261012f60205260409020600101805460ff60c01b191692151560c01b60ff60c01b16929092179091557feb9893d0169091c966f7eb6f96f444118c8e051527e789cc3d7c20be49931e275f80a2005b604051631bc2178f60e01b8152600490fd5b506033546001600160a01b03163314156120eb565b346103e95760203660031901126103e95761218b614dd6565b60043561013255005b346103e9575f3660031901126103e95760206040516102bc8152f35b346103e95760203660031901126103e9576004356121cc614dd6565b6121da6103e8821115614d2e565b61014355005b346103e9575f3660031901126103e957602061014554604051908152f35b346103e9576020806003193601126103e9576004356001600160401b0381116103e95761222f9036906004016147e6565b335f52610131835260ff908160405f20541615806123a2575b61109b576032811161236c575f5b81811061225f57005b61226a818386614cd6565b3590815f5261012d865260405f2084815460018060a01b038116156123605760a01c169260068410156104eb5760019361235957805f5261012e80895260405f20335f5289528660405f205416612351575f82815290895260408082203383528a529020805460ff191685179055815460ff60a81b19811660a891821c881686018816821b60ff60a81b161783559033907fbfece94188ca5510ff29b3892f68dc16c81be915972f251498a734915bae128e5f80a3815490868261013254921c16101561233b575b50505b01612256565b60ff60a01b191660a084901b1790558680612332565b505050612335565b5050612335565b50505060019150612335565b60405162461bcd60e51b815260048101859052600e60248201526d546f6f206d616e7920737761707360901b6044820152606490fd5b506033546001600160a01b0316331415612248565b346103e9575f3660031901126103e957610140546040516001600160a01b039091168152602090f35b346103e9575f3660031901126103e9576033546040516001600160a01b039091168152602090f35b346103e95761241636614956565b335f5261013160205260ff60405f2054161580612514575b61109b57825f5261012d918260205260018060a01b03928360405f205416156104ff57845f5260205260405f209182549060ff8260a01c1660068110156104eb576110895785926124c67f10a73ecfb51336692e5b1f0e550606ceda6a678b2473b42adadee3216aef3fde93600360a01b60ff60a01b1982161780885560038801548960ff8160028c0154169360b01c169316614e5d565b6124e86006860154916040519384938452604060208501526040840191614d0e565b0390a25416907fc672feaa452bd52b0000f3d29c943cd9331556ab05529d49e984311220c16c195f80a3005b506033546001600160a01b031633141561242e565b346103e95760803660031901126103e9576004356001600160401b0381116103e9576125599036906004016147e6565b906024356001600160401b0381116103e9576125799036906004016147e6565b91906044356001600160401b0381116103e95761259a9036906004016147e6565b90946064356001600160401b0381116103e9576125bb9036906004016147e6565b929093335f5261013a60205260ff60405f2054161580612854575b61214b576064831161281e5786831480612815575b8061280c575b156127cf575f5b83811061260157005b61261461260f828a85614cd6565b614ce6565b9061262361260f82868d614cd6565b916001600160a01b0361263f61263a84898d614cd6565b614cfa565b165f90815261012f60205260409020600101546001600160801b03166001600160a01b0361267161263a858a8e614cd6565b165f5261012f6020526001600160401b03600160405f20015460801c16612699848a8c614cd6565b359182151583036103e9576001600160801b0360019681604051966126bd88614831565b16865216602085015260408401526060830152151560808201525f60a0820152828060a01b036126f161263a84898d614cd6565b165f90815261012f6020908152604091829020835191840151608090811b6fffffffffffffffffffffffffffffffff19166001600160801b0393841617825592840151908601805460608601518587015160a09788015190151560c01b60ff60c01b169190961b67ffffffffffffffff60801b16939094166001600160d01b031990911617919091179190911791151560c81b60ff60c81b1691909117905582901b8290036127a461263a83888c614cd6565b167feb9893d0169091c966f7eb6f96f444118c8e051527e789cc3d7c20be49931e275f80a2016125f8565b60405162461bcd60e51b8152602060048201526015602482015274082e4e4c2f240d8cadccee8d040dad2e6dac2e8c6d605b1b6044820152606490fd5b508383146125f1565b508183146125eb565b60405162461bcd60e51b815260206004820152600e60248201526d546f6f206d616e7920757365727360901b6044820152606490fd5b506033546001600160a01b03163314156125d6565b346103e95760203660031901126103e9576001600160a01b0361288a614774565b165f5261012f60205260c060405f2060ff81549160016001600160801b039101549060405193818116855260801c6020850152811660408401526001600160401b038160801c1660608401528181851c161515608084015260c81c16151560a0820152f35b346103e9575f3660031901126103e95760206040516103848152f35b346103e9575f3660031901126103e957612923614dd6565b61292b614f52565b600160ff1960fb54161760fb557f62e78cea01bee320cd4e420270b5ea74000d11b0c9f74754ebdbfc544b05a2586020604051338152a1005b346103e9575f3660031901126103e957602061014654604051908152f35b346103e9575f3660031901126103e957602061013254604051908152f35b346103e95760403660031901126103e9576004356129bc614efc565b805f5261012d8060205260018060a01b03908160405f205416156104ff57825f5260205260405f20805460ff8160a01c1660068110156104eb57600103612aba576005820154421015612aa8576040516020810190602435825260208152612a2381614883565b519020600483015403612a965760ff60a01b1916600160a11b1780825560018201805460038401546002909401549193612a689360b01c60ff16928616918616614e5d565b5416907f0625e047e273118a71cca3f0dd73a68d97dd99585ffdee4b3f86670fe113f13d5f80a3600160c955005b604051630cb4548160e11b8152600490fd5b604051632b32713d60e01b8152600490fd5b604051630dce347d60e11b8152600490fd5b346103e95760203660031901126103e957600435612ae8614dd6565b6101f48111612b28576101477fb404cac19fb1cbeff98d325795b08886e3cd8fe8cb1a2f193aac66f13fb239c3604082548151908152846020820152a155005b60405163369276d760e11b8152600490fd5b346103e95760203660031901126103e9576004355f5261013f602052606060405f2060018060a01b038154169060ff600260018301549201541690604051928352602083015215156040820152f35b346103e9576020806003193601126103e9575f60408051612ba981614816565b82815260608482015201526004355f5261013c815260405f2060405190612bcf82614816565b80548252612c2260ff600260405193612bef8561149b8160018501614a66565b86860194855201541691604084019215158352604051948594818652519085015251606060408501526080840190614931565b9051151560608301520390f35b346103e9575f3660031901126103e957612c47614dd6565b603380546001600160a01b031981169091555f906001600160a01b03167f8be0079c531659141344cd1fd0a4f28419497f9722a3daafe3b4186f6b6457e08280a3005b346103e95760203660031901126103e9576001600160a01b03612cab614774565b165f52610131602052602060ff60405f2054166040519015158152f35b346103e95760203660031901126103e957612ce1614774565b612ce9614dd6565b6001600160a01b03165f818152610131602081905260409091205460ff1615612d4457815f5260205260405f2060ff1981541690557fc6e35658c76ecdde40a54f31a91fb7c8615e9893cc0885584b27bb3433270d465f80a2005b60405162461bcd60e51b815260206004820152600c60248201526b2737ba1030b8383937bb32b960a11b6044820152606490fd5b346103e9575f3660031901126103e95760405180610130805480845260208094019081925f527f2f605e086faac1d93117bbfbc18835d434e9405fadc1ca66faf4b864746daf34905f5b86828210612e20578686612dd88288038361489e565b60405192839281840190828552518091526040840192915f5b828110612e0057505050500390f35b83516001600160a01b031685528695509381019392810192600101612df1565b83546001600160a01b031685529093019260019283019201612dc2565b346103e95760403660031901126103e957600435612e5961478a565b612e61614dd6565b815f5261013c60205260405f2080548015611333574210611321575f805160206158e68339815191529181600160026020940191612eac8261128f85549361127860ff861615614c38565b60ff191617905561014180546001600160a01b03191682179055604051907f8f2e1b6cc4ffc3a93ac515202f6b1afdd15a9422b7301fce25c71481c537e89a5f80a260028152a2005b346103e95760203660031901126103e957600435612f11614dd6565b805f5261013c80602052612f2a60405f20541515614bff565b815f5280602052612f4560ff600260405f2001541615614c38565b815f526020525f60026040822082815560018101612f638154614989565b9081612f94575b505001557fa32a56a4fb497457a2ff2c7acd600aac5dd868b3c2fd537c030e2bbfaecd47e15f80a2005b81601f869311600114612fab5750555b8480612f6a565b908083918252612fca601f60208420940160051c840160018501614af6565b5555612fa4565b346103e9575f3660031901126103e957602061013854604051908152f35b346103e9575f3660031901126103e957602061014954604051908152f35b346103e9575f3660031901126103e957602060ff60fb54166040519015158152f35b6147af565b346103e95760203660031901126103e95760043560058110156103e95761013301546040516001600160a01b039091168152602090f35b346103e9575f3660031901126103e95761013d546040516001600160a01b039091168152602090f35b346103e9575f3660031901126103e95762015180804204906101465482115f1461311d575f905b61014454928315613115578284111561310f576130d88385614c83565b905b600181018091116106395782810292818404149015171561063957608093604051938452602084015260408301526060820152f35b5f6130d8565b5f19906130da565b61014554906130bb565b346103e9575f3660031901126103e9577f00000000000000000000000000000000000000000000000000000000000000006001600160a01b0316300361317e5760206040515f805160206158c68339815191528152f35b60405162461bcd60e51b815260206004820152603860248201527f555550535570677261646561626c653a206d757374206e6f742062652063616c60448201527f6c6564207468726f7567682064656c656761746563616c6c00000000000000006064820152608490fd5b60403660031901126103e9576131fd614774565b6024356001600160401b0381116103e957366023820112156103e95761322d9036906024816004013591016148da565b906001600160a01b037f000000000000000000000000000000000000000000000000000000000000000081169061326630831415614b3d565b6132825f805160206158c6833981519152928284541614614b9e565b303303613478577f4910fdfa16fed3260ed0e7147f7cc6da11a60208b5b9406d12a635614ffd91435460ff16156132bf57505061001891506155c9565b6040516352d1902d60e01b81526020939291831691908481600481865afa5f9181613449575b506133465760405162461bcd60e51b815260048101869052602e60248201527f45524331393637557067726164653a206e657720696d706c656d656e7461746960448201526d6f6e206973206e6f74205555505360901b6064820152608490fd5b036133f257613354826155c9565b7fbc7cd75a20ee27fd9adebab32041f755214dbc6bffa90cc0225b39da2e5c2d3b5f80a28251158015906133ea575b61338957005b5f80610018946040519461339c86614816565b602786527f416464726573733a206c6f772d6c6576656c2064656c65676174652063616c6c81870152660819985a5b195960ca1b604087015281519101845af46133e4614e2e565b91615808565b506001613383565b60405162461bcd60e51b815260048101849052602960248201527f45524331393637557067726164653a20756e737570706f727465642070726f786044820152681a58589b195555525160ba1b6064820152608490fd5b9091508581813d8311613471575b613461818361489e565b810103126103e9575190876132e5565b503d613457565b60405162461bcd60e51b815260206004820152601f60248201527f5570677261646520766961206578656375746555706772616465206f6e6c79006044820152606490fd5b346103e9576101403660031901126103e9576134d7614774565b6134df61478a565b9060e4356001600160401b0381116103e9576134ff9036906004016147e6565b90613508614efc565b613510614f52565b5f6040517fe8879958f6210518f7b406ca6ac01b1cf8ef3df3fcdc8fb2e0bc46d73de373ec33918061355e816060906020815260076020820152663ab735b737bbb760c91b60408201520190565b0390a3604435156138f5576001600160a01b03831615610ee9576001600160a01b038416156138e357426084351115610ed7576040513360601b6001600160601b03191660208201908152610104356034830152466054830152906135c681607481016109ef565b519020805f5261013b60205260ff60405f205416610eb457805f5261013b60205260405f20600160ff198254161790556040519033907fabaa20a7409f654576020b2eb2bd09961d12bb1b297018ebbf8310528d4127335f80a361012c61012435018061012435116106395742116138d457509061365691610124356101043560c43560a4356044358833614fa7565b15610e93576136666044356151a1565b60405160208101903360601b82526001600160601b0319808460601b1660348301528460601b166048820152606435605c820152608435607c82015242609c820152609c81526136b581614831565b5190205f81815261012d60205260409020549091906001600160a01b0316610dff576136ea60c43560a4356044358433615276565b613706604051916136fa8361484c565b33835260208301614c77565b5f6040828101829052600160608401526001600160a01b03848116608085015286811660a085015260443560c085015260643560e085015260843561010085015260a43561012085015260c43561014085015285835261012d6020908152919092208351815493166001600160a01b03199384161781559083015191959160068110156104eb576137979082614b19565b6040830151815460ff60a81b191660a89190911b60ff60a81b1617815560608301519560028710156104eb576101406138879460079260209985549060ff60b01b9060b01b169060ff60b01b19161785556001850160018060a01b0360808401511682825416179055600285019060018060a01b0360a0840151169082541617905560c0810151600385015560e08101516004850155610100810151600585015561012081015160068501550151910155604051906323b872dd60e01b8683015233602483015230604483015260443560648301526064825261387982614868565b6001600160a01b03166154e2565b60405190604435825260a4358483015260018060a01b031690827fd514471591f77c1c9e0013ff2994f4264d077d6352187ce4bfb5bc8f437209c960403393a4600160c955604051908152f35b630819bdcd60e01b8152600490fd5b60405163c1ab6dc160e01b8152600490fd5b604051631f2a200560e01b8152600490fd5b346103e9575f3660031901126103e957610148546040516001600160a01b039091168152602090f35b346103e9575f3660031901126103e95760a060405161394e81614868565b369037610138546101395460405191906101335f845b600582106139bb5750505061397883614868565b6040519182935f945b6005861061399b57505060e0935060a083015260c0820152f35b81516001600160a01b031681526001959095019460209182019101613981565b82546001600160a01b031681526001928301929190910190602001613964565b346103e9575f3660031901126103e9576139f3614dd6565b60fb5460ff811615613a325760ff191660fb557f5db9ee0a495bf2e6ff9c91a7834c1ba4fdd244a5e8aa4e537bd38aeae4b073aa6020604051338152a1005b60405162461bcd60e51b815260206004820152601460248201527314185d5cd8589b194e881b9bdd081c185d5cd95960621b6044820152606490fd5b346103e95760203660031901126103e9575f610140604051613a8f8161484c565b8281528260208201528260408201528260608201528260808201528260a08201528260c08201528260e0820152826101008201528261012082015201526004355f5261012d60205260405f20604051613ae78161484c565b81546001600160a01b038116825260ff90613b0b60a082901c831660208501614c77565b818160a81c16604084015260b01c1660028110156104eb57606082015260018201546001600160a01b0390811660808301526002830154811660a0830152600383015460c0830152600483015460e0830152600583015461010083015260068301546101208301526007909201546101408083019190915260405182519093168352602080830151610160949391613ba691908501906147cc565b60ff6040820151166040840152613bc5606082015160608501906147d9565b60018060a01b03608082015116608084015260018060a01b0360a08201511660a084015260c081015160c084015260e081015160e08401526101008101516101008401526101208101516101208401520151610140820152f35b346103e95760203660031901126103e957335f5261013e60205260ff60405f20541615613cff576004355f90815261013f6020526040902080546001600160a01b031690613c6e821515614bff565b60018101544210613cc35760020160018154613c8d60ff821615614c38565b60ff1916179055613c9d816155c9565b7fbc7cd75a20ee27fd9adebab32041f755214dbc6bffa90cc0225b39da2e5c2d3b5f80a2005b60405162461bcd60e51b8152602060048201526014602482015273151a5b595b1bd8dac81b9bdd08195e1c1a5c995960621b6044820152606490fd5b60405162461bcd60e51b81526020600482015260146024820152732737ba103ab833b930b2329030b8383937bb32b960611b6044820152606490fd5b346103e95760a03660031901126103e957613d54614774565b6024356001600160801b03918282168092036103e957604435918383168093036103e9576064358015158091036103e957608435928315158094036103e957335f5261013a60205260ff60405f2054161580613ec9575b61214b57613e8a92613e6f9160018060a01b031696875f5261012f9687602052600160405f2001549160016001600160401b039460405190613dec82614831565b815260208101938452604081019a8386168c5286606083019660801c1686526080820198895260a082019a8b528c5f526020528260405f209151166001600160801b031980955160801b161781550198511690885416178755511685908154906001600160401b0360801b9060801b16906001600160401b0360801b1916179055565b51835460ff60c01b191690151560c01b60ff60c01b16178355565b51815460ff60c81b191690151560c81b60ff60c81b161790557feb9893d0169091c966f7eb6f96f444118c8e051527e789cc3d7c20be49931e275f80a2005b506033546001600160a01b0316331415613dab565b346103e9576020806003193601126103e957613ef8614774565b6001600160a01b037f000000000000000000000000000000000000000000000000000000000000000081169290613f3130851415614b3d565b613f4d5f805160206158c6833981519152948286541614614b9e565b30330361415a5760405193828501918583106001600160401b03841117611f8957826040525f865260ff7f4910fdfa16fed3260ed0e7147f7cc6da11a60208b5b9406d12a635614ffd914354165f14613fae575050505061001891506155c9565b84939416906040516352d1902d60e01b81528581600481865afa5f918161412b575b506140315760405162461bcd60e51b815260048101879052602e60248201527f45524331393637557067726164653a206e657720696d706c656d656e7461746960448201526d6f6e206973206e6f74205555505360901b6064820152608490fd5b036140d45761403f836155c9565b7fbc7cd75a20ee27fd9adebab32041f755214dbc6bffa90cc0225b39da2e5c2d3b5f80a28351158015906140cd575b61407457005b5f8091610018957f416464726573733a206c6f772d6c6576656c2064656c65676174652063616c6c604051966140a988614816565b60278852870152660819985a5b195960ca1b60408701525190845af46133e4614e2e565b505f61406e565b60405162461bcd60e51b815260048101859052602960248201527f45524331393637557067726164653a20756e737570706f727465642070726f786044820152681a58589b195555525160ba1b6064820152608490fd5b9091508681813d8311614153575b614143818361489e565b810103126103e957519088613fd0565b503d614139565b60405162461bcd60e51b815260048101839052601f60248201527f5570677261646520766961206578656375746555706772616465206f6e6c79006044820152606490fd5b346103e9575f3660031901126103e957602061014754604051908152f35b346103e95760203660031901126103e9576004356141d9614dd6565b6101447ffeba797a2dbb0783186c39eaa4c5f24b10d2fa22b4d2bfa0bc021af91bd757a3604082548151908152846020820152a155005b346103e9575f3660031901126103e957602060405161012c8152f35b346103e95760403660031901126103e95761424561478a565b6004355f5261012e60205260405f209060018060a01b03165f52602052602060ff60405f2054166040519015158152f35b346103e9576020806003193601126103e957614290614774565b90614299614dd6565b610148546001600160a01b03908116928315614362571691826142fb5760405162461bcd60e51b815260048101839052601860248201527f55736520666565526563697069656e7420666f722045544800000000000000006044820152606490fd5b6040516370a0823160e01b8152306004820152928284602481845afa928315611a07575f93614330575b506100189350614ead565b90925083813d831161435b575b614347818361489e565b810103126103e95761001892519184614325565b503d61433d565b60405162461bcd60e51b815260048101849052601060248201526f139bc8199959481c9958da5c1a595b9d60821b6044820152606490fd5b346103e95760403660031901126103e9576004356143b66147a0565b610141546001600160a01b039190821633036144c857825f5261012d60205260405f209081549060ff8260a01c1660068110156104eb576004036144b6571561445d5750805460ff60a01b1916600160a11b17808255600182018054600384015460029094015491936144349360b01c60ff16928616918616614e5d565b5416907f0625e047e273118a71cca3f0dd73a68d97dd99585ffdee4b3f86670fe113f13d5f80a3005b61448d90600360a01b60ff60a01b1982161780845560038401548560ff816002880154169360b01c169316614e5d565b5416907fc672feaa452bd52b0000f3d29c943cd9331556ab05529d49e984311220c16c195f80a3005b6040516314abb64b60e01b8152600490fd5b604051633a2a18e560e11b8152600490fd5b346103e9576020806003193601126103e9576144f4614774565b6144fc614dd6565b6001600160a01b038181169182156145b45760405160609190911b6001600160601b0319168482019081524260148201529061453b81603484016109ef565b519020916202a3004201804211610639576145ac926002916040519361456085614816565b845286840190815260408401915f8352865f5261013f885260405f209451166001600160601b0360a01b85541617845551600184015551151591019060ff801983541691151516179055565b604051908152f35b60405162461bcd60e51b815260048101859052601660248201527524b73b30b634b21034b6b83632b6b2b73a30ba34b7b760511b6044820152606490fd5b346103e9575f3660031901126103e957602061014454604051908152f35b346103e9576020806003193601126103e9576001600160401b036004358181116103e957614642903690600401614747565b909161464c614dd6565b8111611f8957610142916146608354614989565b601f8111614710575b505f93601f83116001146146a85750614699929382915f9261469d5750508160011b915f199060031b1c19161790565b9055005b013590508480611e66565b601f198316945f805160206158a683398151915292915f905b8782106146f85750508360019596106146df575b505050811b019055005b01355f19600384901b60f8161c191690558380806146d5565b806001849682949587013581550195019201906146c1565b614741905f805160206158a6833981519152601f850160051c81019160208610611f7f57601f0160051c0190614af6565b84614669565b9181601f840112156103e9578235916001600160401b0383116103e957602083818601950101116103e957565b600435906001600160a01b03821682036103e957565b602435906001600160a01b03821682036103e957565b6024359081151582036103e957565b346103e9575f3660031901126103e95760206040516202a3008152f35b9060068210156104eb5752565b9060028210156104eb5752565b9181601f840112156103e9578235916001600160401b0383116103e9576020808501948460051b0101116103e957565b606081019081106001600160401b03821117611f8957604052565b60c081019081106001600160401b03821117611f8957604052565b61016081019081106001600160401b03821117611f8957604052565b60a081019081106001600160401b03821117611f8957604052565b604081019081106001600160401b03821117611f8957604052565b90601f801991011681019081106001600160401b03821117611f8957604052565b6001600160401b038111611f8957601f01601f191660200190565b9291926148e6826148bf565b916148f4604051938461489e565b8294818452818301116103e9578281602093845f960137010152565b5f5b8381106149215750505f910152565b8181015183820152602001614912565b9060209161494a81518092818552858086019101614910565b601f01601f1916010190565b9060406003198301126103e95760043591602435906001600160401b0382116103e95761498591600401614747565b9091565b90600182811c921680156149b7575b60208310146149a357565b634e487b7160e01b5f52602260045260245ffd5b91607f1691614998565b905f91610142908154916149d483614989565b80835292602091600191828116908115614a3f57506001146149f8575b5050505050565b90939495505f525f805160206158a6833981519152925f935b858510614a2c57505050602092500101905f808080806149f1565b8054858501840152938201938101614a11565b9350505050602093945060ff929192191683830152151560051b0101905f808080806149f1565b80545f9392614a7482614989565b918282526020936001916001811690815f14614ad75750600114614a99575050505050565b90939495505f92919252835f2092845f945b838610614ac357505050500101905f808080806149f1565b805485870183015294019385908201614aab565b60ff19168685015250505090151560051b010191505f808080806149f1565b818110614b01575050565b5f8155600101614af6565b9190820180921161063957565b9060068110156104eb57815460ff60a01b191660a09190911b60ff60a01b16179055565b15614b4457565b60405162461bcd60e51b815260206004820152602c60248201527f46756e6374696f6e206d7573742062652063616c6c6564207468726f7567682060448201526b19195b1959d85d1958d85b1b60a21b6064820152608490fd5b15614ba557565b60405162461bcd60e51b815260206004820152602c60248201527f46756e6374696f6e206d7573742062652063616c6c6564207468726f7567682060448201526b6163746976652070726f787960a01b6064820152608490fd5b15614c0657565b60405162461bcd60e51b815260206004820152600a602482015269139bdd081c5d595d595960b21b6044820152606490fd5b15614c3f57565b60405162461bcd60e51b815260206004820152601060248201526f105b1c9958591e48195e1958dd5d195960821b6044820152606490fd5b60068210156104eb5752565b9190820391821161063957565b15614c9757565b60405162461bcd60e51b815260206004820152600d60248201526c088c2e8c240dad2e6dac2e8c6d609b1b6044820152606490fd5b600411156104eb57565b91908110156106255760051b0190565b356001600160801b03811681036103e95790565b356001600160a01b03811681036103e95790565b908060209392818452848401375f828201840152601f01601f1916010190565b15614d3557565b60405162461bcd60e51b8152602060048201526011602482015270125b9d985b1a59081d1a1c995cda1bdb19607a1b6044820152606490fd5b61013080549068010000000000000000821015611f895760018201808255821015610625575f527f2f605e086faac1d93117bbfbc18835d434e9405fadc1ca66faf4b864746daf340180546001600160a01b0319166001600160a01b03909216919091179055565b6033546001600160a01b03163303614dea57565b606460405162461bcd60e51b815260206004820152602060248201527f4f776e61626c653a2063616c6c6572206973206e6f7420746865206f776e65726044820152fd5b3d15614e58573d90614e3f826148bf565b91614e4d604051938461489e565b82523d5f602084013e565b606090565b90919260028110156104eb57614e99575f809350809281925af1614e7f614e2e565b5015614e8757565b60405163b12d13eb60e01b8152600490fd5b614eab926001600160a01b0316614ead565b565b60405163a9059cbb60e01b60208201526001600160a01b03909216602483015260448083019390935291815260808101916001600160401b03831182841017611f8957614eab926040526154e2565b600260c95414614f0d57600260c955565b60405162461bcd60e51b815260206004820152601f60248201527f5265656e7472616e637947756172643a207265656e7472616e742063616c6c006044820152606490fd5b60ff60fb5416614f5e57565b60405162461bcd60e51b815260206004820152601060248201526f14185d5cd8589b194e881c185d5cd95960821b6044820152606490fd5b9060058110156106255760051b0190565b93979495909561013854156151935761013954988987106151855760409460405194602097602087019a6001600160601b0319809260601b168c5260601b16603487015260488601526068850152608884015260a883015260c88201524660e882015260e8815261012081016001600160401b039582821087831117611f8957816040528251902061015c6101408401937f19457468657265756d205369676e6564204d6573736167653a0a33320000000085520152603c815261506a81614816565b519020936040519161507b83614868565b60a03684375f965f5b868110615098575050505050505050101590565b8060051b820135601e19833603018112156103e95782018035908582116103e957870181360381136103e9576150d66150dc916150e49336916148da565b8a615658565b919091615689565b6001600160a01b039081165f81815261013a89528590205490919060ff161561517b575f905f5b8c8110615154575b505061514b576151238a87614f96565b526001809901988a8a101561513d57506001905b01615084565b995050505050505050505090565b50600190615137565b8382615160838c614f96565b51161461516f5760010161510b565b50505060015f80615113565b5050600190615137565b505050505050505050505f90565b505050505050505050600190565b62015180420461014680548211615238575b505061014454806151d2575b506151ce610145918254614b0c565b9055565b61014554816151e18483614b0c565b116151ec57506151bf565b9061521a7fc1b68f84e2906898e13e04dfea4f2ca4c44015fceb114b71916f54a7072712a693604093614b0c565b9082519182526020820152a1604051631f8bb99560e21b8152600490fd5b5f6101457f10ee94e9840988debcde08483d660602ba7cc7450991da1f586e2ef21e036933604082548151908782526020820152a155555f806151b3565b939160ff6101415460a01c1680615425575b6152de575050610384821090506152a0575050600590565b6101435411156152d9576001600160a01b03165f90815261012f602052604090206001015460c81c60ff166152d457600190565b600190565b505f90565b61014054604051636c910d3d60e11b81526001600160a01b03968716600482015292861660248401526044830191909152606482019390935260c06084820152925f92849291169082908490829061533860c483016149c1565b9060a483015203925af1908115611a07575f9161539f575b5061535a81614ccc565b600381036153685750600590565b61537181614ccc565b6002811490811561538b575b5061538757600190565b5f90565b6001915061539881614ccc565b145f61537d565b90503d805f833e6153b0818361489e565b81016040828203126103e95781519160048310156103e9576020810151906001600160401b0382116103e9570181601f820112156103e9578051906153f4826148bf565b92615402604051948561489e565b828452602083830101116103e95760208061541f94019101614910565b5f615350565b50610140546001600160a01b03161515615288565b603380546001600160a01b039283166001600160a01b0319821681179092559091167f8be0079c531659141344cd1fd0a4f28419497f9722a3daafe3b4186f6b6457e05f80a3565b1561548957565b60405162461bcd60e51b815260206004820152602b60248201527f496e697469616c697a61626c653a20636f6e7472616374206973206e6f74206960448201526a6e697469616c697a696e6760a81b6064820152608490fd5b604051615539916001600160a01b03166154fb82614883565b5f806020958685527f5361666545524332303a206c6f772d6c6576656c2063616c6c206661696c656487860152868151910182855af16133e4614e2e565b80518281159182156155a9575b50509050156155525750565b6084906040519062461bcd60e51b82526004820152602a60248201527f5361666545524332303a204552433230206f7065726174696f6e20646964206e6044820152691bdd081cdd58d8d9595960b21b6064820152fd5b83809293500103126103e95781015180151581036103e95780825f615546565b803b156155fd575f805160206158c683398151915280546001600160a01b0319166001600160a01b03909216919091179055565b60405162461bcd60e51b815260206004820152602d60248201527f455243313936373a206e657720696d706c656d656e746174696f6e206973206e60448201526c1bdd08184818dbdb9d1c9858dd609a1b6064820152608490fd5b9060418151145f146156805761498591602082015190606060408401519301515f1a9061578d565b50505f90600290565b60058110156104eb578061569a5750565b600181036156e75760405162461bcd60e51b815260206004820152601860248201527f45434453413a20696e76616c6964207369676e617475726500000000000000006044820152606490fd5b600281036157345760405162461bcd60e51b815260206004820152601f60248201527f45434453413a20696e76616c6964207369676e6174757265206c656e677468006044820152606490fd5b60031461573d57565b60405162461bcd60e51b815260206004820152602260248201527f45434453413a20696e76616c6964207369676e6174757265202773272076616c604482015261756560f01b6064820152608490fd5b7f7fffffffffffffffffffffffffffffff5d576e7357a4501ddfe92f46681b20a084116157fd576020935f9360ff60809460405194855216868401526040830152606082015282805260015afa15611a07575f516001600160a01b038116156157f557905f90565b505f90600190565b505050505f90600390565b9192901561586a575081511561581c575090565b3b156158255790565b60405162461bcd60e51b815260206004820152601d60248201527f416464726573733a2063616c6c20746f206e6f6e2d636f6e74726163740000006044820152606490fd5b82519091501561587d5750805190602001fd5b60405162461bcd60e51b8152602060048201529081906158a1906024830190614931565b0390fdfe7917ad5f1bd6fa6d4f9128143f89bcba30c5b503e76ecd2dd7562ddf9706ae19360894a13ba1a3210667c828492db98dca3e2076cc3735a920a3ca505d382bbc772fec5a15751454d903e40fe071b030ec5bcf53f48e01709d26c2bbf6b6a192a264697066735822122078405585607e757219f18d30567fd883a179e9df0aa233bb4b74b3063a75fd7564736f6c63430008180033","linkReferences":{}},"methodIdentifiers":{"BLOCK_THRESHOLD()":"86c4832e","HIGH_RISK_THRESHOLD()":"9dcbd55c","MAX_ORACLES()":"bfedbfa0","RISK_SCALE()":"c543aa78","SIGNATURE_VALIDITY()":"2a73dead","TIMELOCK_DELAY()":"5ba1c1a9","UPGRADE_TIMELOCK()":"25ed32ca","activeModelVersion()":"d02edadb","addApprover(address)":"b646c194","addOracle(address)":"df5dd1a5","approvalThreshold()":"7d0eef61","approvals(bytes32,address)":"24f6c776","approveSwap(bytes32)":"e35468cb","approvers(uint256)":"d3650fb8","batchApproveSwaps(bytes32[])":"93010ab0","batchSetUserPolicies(address[],uint128[],uint128[],bool[])":"893c604c","cancelTimelock(bytes32)":"63285436","completeSwap(bytes32,bytes32)":"78dc3356","dailyVolume()":"98c8877e","dailyVolumeLimit()":"0217626c","disputeResolver()":"f5a3f4af","executeDisputeRuling(bytes32,bool)":"0845529b","executeSetDisputeResolver(bytes32,address)":"6b449b8a","executeSetOracle(bytes32,address)":"bca0d6be","executeSetPolicyEngine(bytes32,address)":"d391d169","executeUpgrade(bytes32)":"3b6520cb","feeRecipient()":"46904840","getApprovers()":"6cb3e8ef","getContractStatus()":"c032846b","getDailyVolumeStatus()":"530ec6dc","getOracles()":"40884c52","getSwap(bytes32)":"3da0e66e","getTimelockItem(bytes32)":"762744db","globalRiskThreshold()":"cc117be0","governance()":"5aa6e675","healthCheck()":"b252720b","initialize(address)":"c4d66de8","initiateSwap(address,bytes32,uint256,uint256,bytes32,bytes[],uint256,uint256)":"e6022755","initiateSwapERC20(address,address,uint256,bytes32,uint256,uint256,bytes32,bytes[],uint256,uint256)":"493ca433","isApprover(address)":"6d218e48","isNonceUsed(address,uint256)":"cab7e8eb","isOracle(address)":"a97e5c93","isUpgradeApprover(address)":"a6e592bd","lastVolumeResetDay()":"7dfaa2a9","oracleCount()":"613d8fcc","oracleThreshold()":"c379a75d","oracles(uint256)":"5b69a7d8","owner()":"8da5cb5b","pause()":"8456cb59","paused()":"5c975abb","policyEngine()":"927399a5","policyEngineEnabled()":"dea1c2e3","protocolFeeBps()":"35659fb8","proxiableUUID()":"52d1902d","queueTimelock(uint8,bytes)":"af189964","queueUpgrade(address)":"03d993b5","raiseDispute(bytes32,string)":"be7b8a77","refundSwap(bytes32)":"fe2510ee","rejectSwap(bytes32,string)":"8bb97c02","removeApprover(address)":"6cf4c88f","removeOracle(address)":"fdc85fc4","renounceOwnership()":"715018a6","setActiveModelVersion(string)":"002a40da","setApprovalThreshold(uint256)":"a0016b8c","setDailyVolumeLimit(uint256)":"336f3635","setFeeRecipient(address)":"e74b981b","setGlobalRiskThreshold(uint256)":"9c9f7deb","setGovernance(address)":"ab033ea9","setKYCStatus(address,bool)":"a3f569ae","setOracleThreshold(uint256)":"eea5237e","setProtocolFee(uint256)":"787dce3d","setUpgradeApprover(address,bool)":"c84db3b9","setUserPolicy(address,uint128,uint128,bool,bool)":"3b61eb36","swaps(bytes32)":"eb84e7f2","timelockQueue(bytes32)":"c84e2d18","totalFeesCollected()":"60c6d8ae","transferOwnership(address)":"f2fde38b","unpause()":"3f4ba83a","upgradeQueue(bytes32)":"78751254","upgradeTo(address)":"3659cfe6","upgradeToAndCall(address,bytes)":"4f1ef286","usedNonces(bytes32)":"feb61724","userPolicies(address)":"87a22944","withdrawFees(address)":"164e68de"},"id":3}